:100000000C944A3B0C94463C0C94713C0C949C3CE4
:100010000C94C73C0C94F23C0C941D3D0C94483D50
:100020000C94733D0C94BC3B0C94BC3B0C94BC3BBB
:100030000C94BC3B0C94BC3B0C94BC3B0C94BC3B64
:100040000C94BC3B0C9427410C94BC3B0C94BC3BE3
:100050000C94BC3B0C94DF480C94BC3B0C94BC3B14
:100060000C94BC3B0C9474420C9433420C94184294
:100070000C94BC3B0C94BC3B0C94BC3B0C94BC3B24
:100080000C94BC3B0C94BC3B0C94BC3B0C94BC3B14
:100090000C9478430C94EC420C94AF420C94A1F174
:1000A0000C94BC3B0C94BC3B0C94BC3B0C94BC3BF4
:1000B0000C94BC3B0C94BC3B0C94BC3B0C94BC3BE4
:1000C0000C94BC3B0C94BC3B0C94BC3B0C0D0E0F35
:1000D000253032783A253032783A253032783A2550
:1000E0003032783A253032783A253032780025643B
:1000F0002E25642E25642E25640044484350206D2F
:10010000736720747970652035332076616C75656E
:100110002025750D0A0044484350206D73672074F4
:100120007970652035332076616C75652025750DF5
:100130000A004950004D41534B00444E5300474183
:10014000544500444843502D436F6E6669672067ED
:1001500065686F6C740D0A00444843502D436F6E00
:10016000666967204665686C67657363686C61677C
:10017000656E0D0A00207C2D3E20566572737563F6
:10018000686520444843502D436F6E666967207A46
:100190007520686F6C656E2E2000206665686C6740
:1001A000657363686C6167656E0D0A00206665683B
:1001B0006C67657363686C6167656E0D0A00205A31
:1001C0006569743A20253032643A253032643A2524
:1001D0003032642E253032640D0A004E545053459F
:1001E00052564552005554435A4F4E4500207C2DDF
:1001F0003E204E54502D536572766572205A6569C3
:100200007420616B7475616C6973696572656E3AAF
:10021000006F6E004E545000207C202020444E532E
:10022000202020203A2025730D0A00207C20202049
:10023000476174657761793A2025730D0A00207C47
:100240002020204E65746D61736B3A2025730D0A72
:1002500000207C202020495020202020203A2025EA
:10026000730D0A006F6E00444843500044484350E9
:1002700000207C2D3E20544350202848757272691E
:1002800063616E2D656E67696E652920696E69749C
:1002900069616C6973696572740D0A00207C2D3E7A
:1002A000205544502028546F726E61646F2D656E26
:1002B00067696E652920696E697469616C69736923
:1002C0006572740D0A002D2B2D3E2041525020697D
:1002D0006E697469616C6973696572740D0A0020D6
:1002E0004C696E6B2072656164790D0A0020467559
:1002F0006C6C6475706C65783A00454E4332386AB0
:10030000363020285265762E3A2025642920696EE1
:10031000697469616C697369657274202820485733
:100320002D4164643A20253032783A253032783ACB
:10033000253032783A253032783A253032783A25ED
:100340003032782029004D4143004D4143004D4358
:1003500050636F6E666967000D0A000A002563002E
:10036000436F6E6669672069737420256420627923
:100370007465732067726F73732C20256420627913
:1003800074652077657264656E2062656E75747A37
:10039000742E204F66667365742025640D0A0D0A5D
:1003A000004F46460057524954455F50524F5445FE
:1003B00043540020496E697469616C6973696572A0
:1003C000740D0A00204572726F720D0A0054485273
:1003D000454144005348454C4C0046696C6573796F
:1003E0007374656D004D4D432F5344004558544977
:1003F0004E5400436F6E666967004C45445F636FFF
:10040000726500434C4F434B005354444F555400C6
:10041000554152540054656C657850686F6E654E56
:1004200065742E2E2E0D0A003EFFFFFF3F34353639
:100430003738393A3B3C3DFFFFFFFFFFFFFF00012C
:1004400002030405060708090A0B0C0D0E0F101114
:100450001213141516171819FFFFFFFFFFFF1A1BC1
:100460001C1D1E1F202122232425262728292A2B54
:100470002C2D2E2F303132334142434445464748DC
:10048000494A4B4C4D4E4F50515253545556575864
:10049000595A6162636465666768696A6B6C6D6E00
:1004A0006F707172737475767778797A3031323310
:1004B0003435363738392B2F002F6E69632F75701E
:1004C000646174653F686F73746E616D653D25731B
:1004D000006D656D626572732E64796E646E732E45
:1004E0006F726700636865636B69702E64796E6410
:1004F0006E732E6F72670047455420002048545495
:10050000502F312E300D0A557365722D4167656E7F
:10051000743A20576765742F312E31312E340D0A0D
:100520004163636570743A202A2F2A0D0A486F735D
:10053000743A20000D0A417574686F72697A6174AB
:10054000696F6E3A2042617369632025730D0A0D4D
:100550000A000D0A0D0A002F00436F6E74656E7459
:100560002D4C656E6774683A2000485454502F3102
:100570002E000D0A00436F6D6D616E64733A0D0AB3
:100580000D0A0068656C7000485454502F312E30AD
:10059000203430330D0A436F6E74656E742D5479B8
:1005A00070653A20746578742F68746D6C0D0A4B11
:1005B0006565702D416C6976653A20636C6F736573
:1005C0000D0A0D0A3C48544D4C3E3C424F44593EA6
:1005D0003430332046696C65206E6F7420666F7509
:1005E0006E64213C2F424F44593E3C2F48544D4CA1
:1005F0003E0D0A0D0A00504F535400474554006801
:100600007474706400485454502D5365727665724A
:1006100020506F72742025642E0D0A00696E646587
:10062000782E68746D6C003C2F424F44593E3C2F2D
:1006300048544D4C3E0D0A0D0A003C48544D4C3E6A
:100640003C484541443E3C6D65746120687474705B
:100650002D65717569763D226578706972657322C2
:1006600020636F6E74656E743D2230223E3C212DF6
:100670002D20456E61626C652049453920537461B7
:100680006E6461726473206D6F6465202D2D3E3C35
:100690006D65746120687474702D65717569763D3F
:1006A00022582D55412D436F6D70617469626C65E0
:1006B0002220636F6E74656E743D2249453D392278
:1006C000203E3C2F484541443E3C424F44593E0069
:1006D000485454502F312E312032303020446F6333
:1006E000756D656E7420666F6C6C6F77730D0A4361
:1006F0006F6E74656E742D547970653A20746578E8
:10070000742F68746D6C0D0A43616368652D436FC7
:100710006E74726F6C3A206E6F2D63616368650D45
:100720000A436F6E6E656374696F6E3A20636C6F17
:1007300073650D0A0D0A00696E6465782E68746D24
:100740006C003C48544D4C3E3C484541443E3C5472
:1007500049544C453E547850322D4E6574202D201E
:1007600044617320496E7465726E65742D496E74B0
:10077000657266616365207A756D2054656C657875
:1007800050686F6E6520323C2F5449544C453E3CB6
:100790002F484541443E3C6672616D657365742027
:1007A000726F77733D2236342C34302C2A2C34303F
:1007B00022207363726F6C6C696E673D226E6F22CC
:1007C000206672616D65626F726465723D223222CD
:1007D00020626F726465723D223222206672616D02
:1007E0006573706163696E673D22322220626F72A9
:1007F000646572636F6C6F723D222330303030302D
:1008000030223E3C6672616D65207372633D2268E2
:100810006561646C696E652E68746D6C22206E6112
:100820006D653D224E617669676174696F6E312234
:10083000207363726F6C6C696E673D226175746FB3
:10084000223E3C6672616D65207372633D226D616C
:10085000696E6D656E752E68746D6C22206E616DAB
:10086000653D224E617669676174696F6E32222040
:100870007363726F6C6C696E673D226175746F2271
:100880003E3C6672616D65207372633D22696E66DF
:100890006F2E68746D6C22206E616D653D226D61F6
:1008A000696E223E3C6672616D65207372633D2203
:1008B00073746174732E63676922206E616D653D88
:1008C0002275706461746522207363726F6C6C6949
:1008D0006E673D226175746F223E3C6E6F66726179
:1008E0006D65733E3C626F64793E3C703E49687250
:1008F0002042726F7773657220756E7465727374BF
:100900002675756D6C3B747A74206B65696E652015
:100910004672616D6573213C2F703E3C2F626F649F
:10092000793E3C2F6E6F6672616D65733E3C2F663B
:1009300072616D657365743E3C2F48544D4C3E0D9D
:100940000A0D0A00686561646C696E652E68746DD5
:100950006C003C48544D4C3E3C424F445920746519
:1009600078743D2223303030304330222073747944
:100970006C653D226261636B67726F756E642D6991
:100980006D6167653A75726C286C6F636873747219
:10099000656966656E2D68672E706E6729223E3C1C
:1009A0007370616E207374796C653D22666F6E742E
:1009B0003A20626F6C6420343070782027436F7562
:1009C00072696572204E6577272C274C75636964C0
:1009D0006120436F6E736F6C65272C6D6F6E6F7344
:1009E000706163653B20223E3C623E547850322D5C
:1009F0004E6574202D2044617320496E7465726EBB
:100A000065742D496E74657266616365207A756DD3
:100A10002054656C657850686F6E653C2F623E3C73
:100A20002F7370616E3E3C2F424F44593E3C2F481D
:100A3000544D4C3E0D0A0D0A006C6F63687374725E
:100A4000656966656E2D68672E706E670089504E09
:100A5000470D0A1A0A0000000D49484452000002DE
:100A6000250000003F0403000000CD91A50C00000C
:100A70000030504C5445FFFF66C0C0C0FF0000006E
:100A80000000000000000000000000000000000066
:100A90000000000000000000000000000000000056
:100AA000000000000000C3145A1300000009704841
:100AB000597300000B1300000B1301009A9C1800DF
:100AC00000027F4944415478DAED5B5B72C3200C2D
:100AD000B47302ABF73F6CE33CA8C9EAB124D30975
:100AE00069573F558C84F10E428BA0CB22799093AD
:100AF000201026C2E4594CD6EDFCD7968372914E55
:100B0000B934A1B036AD2978C5E23E093A5C466DEC
:100B100082612498AC66DB62663FCAB58FA37269B6
:100B200072DE43DAB4A6E015D8E1ED57FDC18CCDF5
:100B3000EDCD07E3DC6B3A4CB6E36718F1A9C64D7F
:100B40009373CFCDB8F03AEDD6B61B6D4DB9BBFD62
:100B500028E67642DBB426FF15D86133263ED5C899
:100B600069F2300C613288896247987C202653E410
:100B70001D09CFD990DB18C98890CE55EE051B4CC6
:100B8000781DE385542DA7A061ECB4A91E4CEC3868
:100B90004030AC2AF760AA770A36D15E18327EEC74
:100BA000DCBD26C5A42DB690AF9D2785172EADC1FF
:100BB0001A7BF78AF809E6F1351E0CF29380E70CF0
:100BC0004C138EC3305E484B0ABA254C3C4C143B48
:100BD000183BC2E443307973DE9188C70A9327310A
:100BE000D9A368DD034CCA55F1D6D8F72A9705700A
:100BF0007DA7224C3C4C1432183B4EADE09F2BCAD3
:100C00003BCAC5AFD7D9FA529511352BCBBDB00928
:100C1000CB74D861500034D72629A6255E479B7433
:100C2000BFD36F7CB0DA5CEC89D00B9B9CED526734
:100C3000DC27856E0BD3EF6EBA0C126C6A12AFA371
:100C4000CD7C98F49BD67606815BDD6E17DC9E2406
:100C50009BDFC4ABB3496B4A5D5926384A4BEA4E19
:100C6000E8854DC5215D52EC42F7EAB02FF1EA6C00
:100C7000848987896207634798CC8FC90C7947F2CA
:100C80000A67634E4219D265041B2C0E37939359A1
:100C9000FA8437247803B1C354A41363BF58EDC456
:100CA000971F29556D9971C73AB6DBF37C98042BD1
:100CB0006A7106D1DB24F758708D051B9E9F30A703
:100CC0007E0CC1A8384C721C397C3D2C61500999AE
:100CD00011261E268A1D8C1D61323F2633E41D0914
:100CE000C5D982625AC2EB98FF535808363824C3DC
:100CF00017DB98F104B1136C6A92F862EE8B0690E0
:100D00000CDCD4F142A6681ABA96F0073019BE88F6
:100D1000527965FCC42F1C251C86B9931F8FDE9E5B
:100D20009E268397B898F10813C50E1F3BC24479DD
:100D300087C93B1261224C848930F93D4C4CF2202A
:100D40005FDF827D01B9877BC8E300000000494571
:100D50004E44AE4260826D61696E6D656E752E683F
:100D6000746D6C003C48544D4C3E3C484541443EFB
:100D70003C6C696E6B2072656C3D227374796C6596
:100D800073686565742220747970653D2274657896
:100D9000742F6373732220687265663D22737479C1
:100DA0006C652E637373223E3C2F484541443E3CA4
:100DB000424F4459206267636F6C6F723D22234338
:100DC0003046464330223E3C6120687265663D22D3
:100DD000696E666F2E68746D6C22746172676574DB
:100DE0003D226D61696E223E496E666F726D61745F
:100DF000696F6E656E3C2F613E202F203C6120683C
:100E00007265663D227478702D6D656E752E6874FE
:100E10006D6C223E54656C657850686F6E653C2F32
:100E2000613E202F203C6120687265663D226E6520
:100E300074776F726B2E68746D6C223E4E65747A97
:100E40007765726B3C2F613E202F203C61206872D9
:100E500065663D2273797374656D2E68746D6C22BE
:100E60003E53797374656D3C2F613E3C2F424F4475
:100E7000593E3C2F48544D4C3E0D0A0D0A006E65FC
:100E800074776F726B2E68746D6C003C48544D4CD7
:100E90003E3C484541443E3C6C696E6B2072656C3B
:100EA0003D227374796C657368656574222074796A
:100EB00070653D22746578742F63737322206872A5
:100EC00065663D227374796C652E637373223E3CB4
:100ED0002F484541443E3C424F4459206267636F6E
:100EE0006C6F723D2223433046464330223E3C61C4
:100EF00020687265663D226D61696E6D656E752E46
:100F000068746D6C223E7A75727565636B3C2F61F7
:100F10003E202F203C6120687265663D226E65741C
:100F2000776F726B2E6367692220746172676574D4
:100F30003D226D61696E223E496E666F733C2F6182
:100F40003E202F203C6120687265663D226E6574EC
:100F5000776F726B2E6367693F636F6E6669672296
:100F6000207461726765743D226D61696E223E4B2B
:100F70006F6E66696775726174696F6E3C2F613E52
:100F80003C2F424F44593E3C2F48544D4C3E0D0A95
:100F90000D0A0073797374656D2E68746D6C003C76
:100FA00048544D4C3E3C484541443E3C6C696E6B58
:100FB0002072656C3D227374796C65736865657425
:100FC0002220747970653D22746578742F63737381
:100FD0002220687265663D227374796C652E637396
:100FE00073223E3C2F484541443E3C424F445920E9
:100FF0006267636F6C6F723D222343304646433015
:10100000223E3C6120687265663D226D61696E6DAD
:10101000656E752E68746D6C223E7A7572756563A7
:101020006B3C2F613E202F203C6120687265663D3D
:101030002272657365742E6367692220746172671A
:1010400065743D226D61696E223E52657365743C24
:101050002F613E202F203C6120687265663D226E24
:1010600074702E63676922207461726765743D2213
:101070006D61696E223E4E54503C2F613E202F2000
:101080003C6120687265663D2264796E646E732EE1
:1010900063676922207461726765743D226D6169BE
:1010A0006E223E44796E444E533C2F613E202F20E9
:1010B0003C6120687265663D2265656D656D2E63D5
:1010C000676922207461726765743D226D61696E83
:1010D000223E45456D656D3C2F613E202F203C61D1
:1010E00020687265663D2263726F6E2E63676922A7
:1010F000207461726765743D226D61696E223E6382
:10110000726F6E3C2F613E3C2F424F44593E3C2F44
:1011100048544D4C3E0D0A0D0A00696E666F2E68EC
:10112000746D6C003C48544D4C3E3C424F44593E1B
:101130003C7072653E3C703E202057656C636F6D5D
:101140006520746F0D0A5F5F5F5F5F5F5F5F5F5F6A
:101150005F5F5F5F5F5F5F5F5F5F5F5F5F5F5F5F9F
:101160005F5F5F5F5F5F5F5F5F5F5F5F5F5F5F5F8F
:101170005F5F5F5F5F5F5F5F5F5F5F5F5F5F5F5F7F
:101180005F5F5F5F5F5F5F5F5F5F5F5F5F5F5F5F6F
:101190000D0A204F4F4F4F4F20204F4F4F4F4F20A2
:1011A000204F2020202020204F4F4F4F4F20204FF6
:1011B0002020204F202020202020204F4F4F4F2044
:1011C00020204F2020204F2020204F4F4F20202034
:1011D0004F2020204F20204F4F4F4F4F0D0A2020EF
:1011E000204F202020204F2020202020204F202072
:1011F000202020204F202020202020204F204F2062
:10120000202020202020204F2020204F20204F2051
:1012100020204F20204F2020204F20204F4F2020E3
:101220004F20204F202020200D0A202E2E2E2E2E43
:101230002E2E2E2E2E2E2E2E2E2E2E2E2E2E2E2ECE
:101240002E2E2E2E2E2E2E2E2E2E2E2E2E2E2E2EBE
:101250002E2E2E2E2E2E2E2E2E2E2E2E2E2E2E2EAE
:101260002E2E2E2E2E2E2E2E2E2E2E2E2E2E2E2E9E
:101270002E2E2E2E0D0A2020204F202020204F4FD2
:101280004F202020204F2020202020204F4F4F2073
:1012900020202020204F202020204F4F4F20204F63
:1012A0004F4F4F2020204F4F4F4F4F20204F202097
:1012B000204F20204F204F204F20204F4F4F2020E5
:1012C0000D0A2020204F202020204F2020202020E9
:1012D000204F2020202020204F20202020202020B0
:1012E0004F204F20202020202020204F2020202071
:1012F00020204F2020204F20204F2020204F202032
:101300004F20204F4F20204F202020200D0A20204A
:10131000204F202020204F4F4F4F4F20204F4F4F26
:101320004F4F20204F4F4F4F4F20204F2020204F16
:10133000202020202020204F2020202020204F204F
:1013400020204F2020204F4F4F2020204F202020B2
:101350004F20204F4F4F4F4F0D0A5F5F5F5F5F5F22
:101360005F5F5F5F5F5F5F5F5F5F5F5F5F5F5F5F8D
:101370005F5F5F5F5F5F5F5F5F5F5F5F5F5F5F5F7D
:101380005F5F5F5F5F5F5F5F5F5F5F5F5F5F5F5F6D
:101390005F5F5F5F5F5F5F5F5F5F5F5F5F5F5F5F5D
:1013A0005F5F5F5F0D0A56657273696F6E20312E45
:1013B00030204275696C64203333362061742044D8
:1013C0006174653A20417567203230203230313304
:1013D0002031373A35323A32380D0A4D6F64756C28
:1013E00065733A205478702D416E7363686C757321
:1013F00073205275666E722D536572766572204544
:101400006D61696C0D0A0D0A6275696C64206F6EFE
:10141000204156522D6C6962632076657273696F44
:101420006E3A20312E362E372F3230303930373069
:10143000322077697468206176722D676363203487
:101440002E332E330D0A0D0A286329323030362D03
:1014500032303132202020536F6674776172653AE2
:10146000204672656420536F6E6E656E7265696E9C
:101470000D0A6261736564206F6E204F70656E4D5A
:101480004350206279204469726B2042726F7373FB
:101490007769636B0D0A3C2F7072653E3C2F703E7E
:1014A0003C2F424F44593E3C2F48544D4C3E0D0A70
:1014B000007374796C652E637373004063686172A6
:1014C000736574202249534F2D383835392D312218
:1014D0000D0A202020613A6C696E6B207B207465B8
:1014E00078742D6465636F726174696F6E3A6E6FA4
:1014F0006E653B20666F6E742D7765696768743A18
:10150000626F6C643B20636F6C6F723A23303030D3
:101510003041303B207D200D0A202020613A766941
:101520007369746564207B20746578742D646563C9
:101530006F726174696F6E3A6E6F6E653B20666F95
:101540006E742D7765696768743A626F6C643B20CE
:10155000636F6C6F723A234130303041303B207DF5
:10156000200D0A202020613A686F766572207B206A
:10157000746578742D6465636F726174696F6E3A17
:101580006E6F6E653B20666F6E742D776569676858
:10159000743A626F6C643B206261636B67726F7553
:1015A0006E642D636F6C6F723A2346464343434328
:1015B0003B207D200D0A202020613A61637469760A
:1015C00065207B20746578742D6465636F72617427
:1015D000696F6E3A6E6F6E653B20666F6E742D7725
:1015E00065696768743A626F6C643B206261636B23
:1015F00067726F756E642D636F6C6F723A23464627
:10160000464643433B207D200D0A202020613A6658
:101610006F637573207B20746578742D6465636FC8
:10162000726174696F6E3A6E6F6E653B20666F6EA5
:10163000742D7765696768743A626F6C643B2062E9
:1016400061636B67726F756E642D636F6C6F723A56
:10165000234343434346463B207D200D0A20202060
:10166000707265207B206F766572666C6F773A20AA
:101670007363726F6C6C3B207D0D0A007478702D63
:101680006D656E752E68746D6C003C48544D4C3E13
:101690003C484541443E3C6C696E6B2072656C3D34
:1016A000227374796C65736865657422207479702F
:1016B000653D22746578742F6373732220687265A8
:1016C000663D227374796C652E637373223E3C2FE2
:1016D000484541443E3C424F4459206267636F6C29
:1016E0006F723D2223433046464330223E3C612008
:1016F000687265663D226D61696E6D656E752E68F6
:10170000746D6C223E7A75722675756D6C3B636BD9
:101710003C2F613E202F203C6120687265663D228F
:101720007478702D6D73672E68746D6C22207461EF
:10173000726765743D226D61696E223E4E61636819
:1017400072696368742073656E64656E3C2F613ED8
:10175000202F203C6120687265663D227478702DD0
:10176000746C6E7665727A2E63676922207461727A
:101770006765743D226D61696E223E5465696C6EC9
:1017800065686D65722D5665727A656963686E6904
:10179000733C2F613E202F203C6120687265663DBE
:1017A000227478706366672D6D656E752E68746D32
:1017B0006C223E5478502D45696E7374656C6C755F
:1017C0006E67656E3C2F613E202F203C6120687261
:1017D00065663D227478702D64656275672E636757
:1017E0006922207461726765743D226D61696E22A1
:1017F0003E44656275672D496E666F733C2F613E8E
:10180000202F203C6120687265663D227478702D1F
:10181000747769746C6E6C697374652E6367692282
:10182000207461726765743D226D61696E223E426B
:1018300075732D546C6E2D4C697374653C2F613E2D
:10184000202F203C6120687265663D2273646469C4
:10185000722E63676922207461726765743D226D20
:1018600061696E223E53442D4B617274653C2F6159
:101870003E3C2F424F44593E3C2F48544D4C3E0D68
:101880000A0D0A007478706366672D6D656E752E9B
:1018900068746D6C003C48544D4C3E3C4845414496
:1018A0003E3C6C696E6B2072656C3D227374796C82
:1018B0006573686565742220747970653D2274656E
:1018C00078742F6373732220687265663D22737487
:1018D000796C652E637373223E3C2F484541443E2C
:1018E0003C424F4459206267636F6C6F723D222304
:1018F000433046464330223E3C6120687265663D77
:10190000227478702D6D656E752E68746D6C223E34
:101910007A75722675756D6C3B636B3C2F613E204A
:101920002F203C6120687265663D22747870636682
:10193000672D696E7465726E2E636769222074610B
:10194000726765743D226D61696E223E45696E73F2
:1019500074656C6C756E67656E20696D206C6F6B5D
:10196000616C656E205478502D53797374656D3CAD
:101970002F613E202F203C6120687265663D2274F5
:1019800078706366672D65787465726E2E6367691B
:1019900022207461726765743D226D61696E223E1A
:1019A00045696E7374656C6C756E67656E20696DE4
:1019B0002069702D74656C65782D4E65747A3C2FA6
:1019C000613E202F203C6120687265663D2274785C
:1019D000706366672D656D61696C2E63676922208F
:1019E0007461726765743D226D61696E223E654D5A
:1019F00061696C2D45696E7374656C6C756E676595
:101A00006E3C2F613E202F203C6120687265663D50
:101A1000227478706366672D7370657272656E2EBE
:101A200063676922207461726765743D226D616924
:101A30006E223E5370657272656E3C2F613E3C2F84
:101A4000424F44593E3C2F48544D4C3E0D0A0D0A1E
:101A5000007478702D6D73672E68746D6C003C484F
:101A6000544D4C3E3C484541443E3C2F4845414442
:101A70003E3C6672616D6573657420726F77733D6D
:101A8000222A2C363022207363726F6C6C696E6769
:101A90003D226E6F22206672616D65626F726465B1
:101AA000723D22322220626F726465723D223222C0
:101AB000206672616D6573706163696E673D223285
:101AC0002220626F72646572636F6C6F723D2223B5
:101AD000303030303030223E3C6672616D652073AC
:101AE00072633D227478702D6D73672D6F75742E3F
:101AF00063676922206E616D653D224D73674F7586
:101B00007422207363726F6C6C696E673D2261751D
:101B1000746F223E3C6672616D65207372633D2274
:101B20007478702D6D73672D696E2E63676922203E
:101B30006E616D653D224D7367496E22207363723D
:101B40006F6C6C696E673D226E6F223E3C6E6F66F5
:101B500072616D65733E3C626F64793E3C703E49D4
:101B600068722042726F7773657220756E74657249
:101B70007374C3BC747A74206B65696E6520467299
:101B8000616D6573213C2F703E3C2F626F64793E1E
:101B90003C2F6E6F6672616D65733E3C2F6672619D
:101BA0006D657365743E3C2F48544D4C3E0D0A0DD7
:101BB0000A002820256C64204279746520756562CE
:101BC000657274726167656E20285344290D0A009E
:101BD0004854545020736F636B657420636C6F734B
:101BE000656420627920636C69656E740D0A004833
:101BF0005454502F312E312032303020446F6375D1
:101C00006D656E7420666F6C6C6F77730D0A436F31
:101C10006E74656E742D4C656E6774683A20256C21
:101C2000640D0A436F6E74656E742D547970653A55
:101C300020257325730D0A43616368652D436F6E1C
:101C400074726F6C3A206D61782D6167653D333633
:101C500030300D0A436F6E6E656374696F6E3A20A3
:101C6000636C6F73650D0A0D0A00746578742F003C
:101C700068746D0068746D6C002820256C642042C7
:101C800079746520756562657274726167656E202E
:101C900028464C415348290D0A000D0A436F6E74C3
:101CA000656E742D4C656E6774683A2025640D0A64
:101CB00043616368652D436F6E74726F6C3A206D7B
:101CC00061782D6167653D333630300D0A436F6EA4
:101CD0006E656374696F6E3A20636C6F73650D0A8D
:101CE0000D0A0062696E00746578742F68746D6CFB
:101CF000006A70656700706E6700485454502F3159
:101D00002E312032303020446F63756D656E742043
:101D1000666F6C6C6F77730D0A436F6E74656E74CB
:101D20002D547970653A20000D0A002066726F6D9F
:101D30002000687474702D726571756573743A2033
:101D400000687474702D7365727665723A2025731D
:101D500020003E200051756974696E670D0A00719C
:101D600075697400556E642C206C6F73206765680C
:101D70007427732E2E2E21212120282268656C7055
:101D8000222068696C6674203A2D29290D0A3E20AC
:101D90000074656C6E65740054656C6E65742D53CB
:101DA000657276657220506F72742025642E0D0A5C
:101DB0000043524F4E5F454E5452595F25303264B6
:101DC0000025643A206E696368742062656C6567FB
:101DD000740D0A0025643A202564202564202573AB
:101DE0000D0A0063726F6E00666F6F2E6367690085
:101DF0002573202F202573202F2025640D0A0049EC
:101E0000502F4D41432F54544C0D0A006172700005
:101E10003C2F424F44593E3C2F48544D4C3E0D0AF6
:101E20000D0A003C48544D4C3E3C484541443E3C24
:101E30006D65746120687474702D65717569763D87
:101E400022726566726573682220636F6E74656EB8
:101E5000743D223630303B20223E3C5449544C45A0
:101E60003E53747265616D696E673C2F5449544CE2
:101E7000453E3C2F484541443E3C424F4459206238
:101E800067636F6C6F723D222332323842323222E6
:101E900020746578743D2223464646464646223ED7
:101EA0005A6569743A20253032643A253032643AF2
:101EB000253032642E2530326420282025752F25C8
:101EC000752F253034752029005048535441543221
:101ED000207C203078253034580D0A005048535467
:101EE000415431207C203078253034580D0A00527E
:101EF00065762E494420207C202020307825303201
:101F0000580D0A002D2D2D2D2D2D2D2D2B2D2D2D48
:101F10002D2D2D2D2D0D0A005265672E20202020FD
:101F20007C20576572740D0A00454E4332384A369C
:101F3000303A0D0A005443502D5458204572726FA8
:101F400072733A202564205443502D525820457214
:101F5000726F72733A2025642028756E736F7274E5
:101F600065642025642C206F6C6473657120256482
:101F7000290D0A0D0A0045746865726E65743A2071
:101F8000256C6420427974657320696E20256C6429
:101F9000205061636B6574656E204C6F636B457296
:101FA000726F727320256C640D0A00737461747310
:101FB0002E6367690073746174730052657365748E
:101FC0000072657365740072657365740072657381
:101FD0006574003C666F726D20616374696F6E3D5D
:101FE0002272657365742E63676922206D6574685B
:101FF0006F643D2267657422206163636570742D90
:10200000636861727365743D2249534F2D383835CA
:10201000392D31223E3C703E3C696E7075742074DF
:102020007970653D227375626D697422206E616DF1
:10203000653D227265736574222076616C75653D1D
:10204000227265736574223E3C2F703E3C2F666F92
:10205000726D3E0072657365742E63676900726508
:1020600073657400646E73203C686F73746E616D89
:10207000653E0D0A004950207A75202573203D20C9
:1020800025730D0A00646E730044484350004950A4
:10209000004D41534B004741544500444E53004DC1
:1020A00041430045696E7374656C6C756E67656E4F
:1020B0002075656265726E6F6D6D656E210D0A002B
:1020C0003C74723E3C746420616C69676E3D2272A0
:1020D00069676874223E48617264776172652D4D4C
:1020E00041433C2F74643E3C74643E3C696E7075A1
:1020F00074206E616D653D224D41432220747970DC
:10210000653D2274657874222073697A653D2231B9
:1021100037222076616C75653D22257322206D6122
:10212000786C656E6774683D223137223E3C2F74AF
:10213000643E3C2F74723E3C74723E3C74643E3C80
:102140002F74643E3C74643E3C696E7075742074F8
:102150007970653D227375626D6974222076616CB9
:1021600075653D222045696E7374656C6C756E678C
:10217000202655756D6C3B6265726E65686D656E87
:1021800020223E3C2F74643E3C2F74723E3C2F74E0
:1021900061626C653E3C2F666F726D3E004D41433F
:1021A000003C74723E3C746420616C69676E3D2231
:1021B0007269676874223E444E532D53657276658A
:1021C000723C2F74643E3C74643E3C696E7075745E
:1021D000206E616D653D22444E53222074797065F6
:1021E0003D2274657874222073697A653D22313509
:1021F000222076616C75653D22257322206D617801
:102200006C656E6774683D223135223E3C2F7464E4
:102210003E3C2F74723E00444E53003C74723E3C70
:10222000746420616C69676E3D227269676874220C
:102230003E476174657761793C2F74643E3C7464F9
:102240003E3C696E707574206E616D653D2247413C
:1022500054452220747970653D227465787422207B
:1022600073697A653D223135222076616C75653D52
:1022700022257322206D61786C656E6774683D223B
:102280003135223E3C2F74643E3C2F74723E004731
:10229000415445003C74723E3C746420616C696733
:1022A0006E3D227269676874223E4E65747A776566
:1022B000726B6D61736B653C2F74643E3C74643E5D
:1022C0003C696E707574206E616D653D224D4153A1
:1022D0004B2220747970653D2274657874222073D6
:1022E000697A653D223135222076616C75653D2223
:1022F000257322206D61786C656E6774683D2231AC
:1023000035223E3C2F74643E3C2F74723E004D419A
:10231000534B003C74723E3C746420616C69676E80
:102320003D227269676874223E49502D416472658E
:102330007373653C2F74643E3C74643E3C696E70FC
:102340007574206E616D653D22495022207479704C
:10235000653D2274657874222073697A653D223167
:1023600035222076616C75653D22257322206D61D2
:10237000786C656E6774683D223135223E3C2F745F
:10238000643E3C2F74723E004950003E3C2F746402
:102390003E3C2F74723E00636865636B6564006F3A
:1023A0006E003C74723E3C746420616C69676E3DE3
:1023B000227269676874223E4448435020616B74FE
:1023C0006976696572656E3C2F74643E3C74643E48
:1023D0003C696E70757420747970653D2263686520
:1023E000636B626F7822206E616D653D22444843C5
:1023F00050222076616C75653D226F6E222000446C
:10240000484350003C666F726D20616374696F6E63
:102410003D226E6574776F726B2E636769223E3C56
:102420007461626C6520626F726465723D22302255
:102430002063656C6C70616464696E673D2235224F
:102440002063656C6C73706163696E673D22302236
:102450003E00636F6E666967003C2F7072653E0DCB
:102460000A007374617473006966636F6E666967EE
:10247000003C7072653E0D0A000D0A48572D4164FC
:10248000723A20253032783A253032783A25303287
:10249000783A253032783A253032783A2530327819
:1024A0000D0A0D0A00444E533A25730D0A00476188
:1024B00074657761793A25730D0A004E65746D6114
:1024C000736B3A25730D0A0049503A25730D0A00C3
:1024D0006E6574776F726B2E636769006966636FF0
:1024E0006E666967004E5450004E54505345525624
:1024F0004552005554435A4F4E450045696E73741A
:10250000656C6C756E67656E2075656265726E6F61
:102510006D6D656E210D0A003C74723E3C74642042
:10252000616C69676E3D227269676874223E534E22
:1025300054502D5365727665723C2F74643E3C7422
:10254000643E3C696E707574206E616D653D224E0F
:1025500054505345525645522220747970653D229D
:1025600074657874222073697A653D2232352220A1
:1025700076616C75653D22257322206D61786C65EE
:102580006E6774683D223235223E3C2F74643E3CB7
:102590002F74723E3C74723E3C746420616C6967B7
:1025A0006E3D227269676874223E5A6569747A6F5B
:1025B0006E653C2F74643E3C74643E3C696E70757D
:1025C00074206E616D653D225554435A4F4E45222D
:1025D00020747970653D2274657874222073697A5D
:1025E000653D2233222076616C75653D222573227C
:1025F000206D61786C656E6774683D2233223E3CC5
:102600002F74643E3C2F74723E3C74723E3C746482
:102610003E3C2F74643E3C74643E3C696E7075743D
:1026200020747970653D227375626D69742220761D
:10263000616C75653D222045696E7374656C6C75BF
:102640006E67202655756D6C3B6265726E65686DB0
:10265000656E20223E3C2F74643E3C2F74723E3CDB
:102660002F7461626C653E3C2F666F726D3E003068
:102670000074696D652E66752D6265726C696E2ECB
:102680006465003E3C2F74643E3C2F74723E0063D0
:102690006865636B6564006F6E003C666F726D20E9
:1026A000616374696F6E3D226E74702E6367692278
:1026B0003E0D3C7461626C6520626F726465723DB0
:1026C0002230222063656C6C70616464696E673DC2
:1026D0002235222063656C6C73706163696E673D9F
:1026E0002230223E3C74723E3C746420616C696707
:1026F0006E3D227269676874223E534E54502061C9
:102700006B746976696572656E3C2F74643E3C74C7
:10271000643E3C696E70757420747970653D226307
:102720006865636B626F7822206E616D653D224E35
:102730005450222076616C75653D226F6E22200018
:102740006E7470203C6E74707365727665723E0DA7
:102750000A004665686C65720D0A004E6575652055
:102760005A6569743A20253032643A253032643A29
:10277000253032640D0A00486F6C65205A65697413
:1027800020766F6E2025730D0A004665686C6572B1
:102790000D0A006E74702E636769006E74700026F7
:1027A00044594E444E535F55534552505700445977
:1027B0004E444E535F444F4D41494E0045696E7340
:1027C00074656C6C756E67656E2075656265726E9A
:1027D0006F6D6D656E210D0A002D31202D31352074
:1027E0002264796E646E7320757064617465220072
:1027F00044594E444E535F4F4E002D31202D3135FC
:10280000202264796E646E73207570646174652231
:102810000044594E444E530044594E444E535F4F6A
:102820004E0044594E444E5300444F4D41494E00D2
:1028300044594E444E535F444F4D41494E00444F1E
:102840004D41494E004143434F554E540026445993
:102850004E444E535F555345525057004143434FEA
:10286000554E54004143434F554E54003C666F72E1
:102870006D20616374696F6E3D2264796E646E735E
:102880002E636769223E0D203C7461626C65206294
:102890006F726465723D2230222063656C6C7061DA
:1028A0006464696E673D2235222063656C6C7370C9
:1028B0006163696E673D2230223E20203C74723E87
:1028C0000D2020203C746420616C69676E3D22728B
:1028D00069676874223E44796E444E5320616B747C
:1028E0006976696572656E3C2F74643E2020203CD9
:1028F00074643E3C696E70757420747970653D2215
:10290000636865636B626F7822206E616D653D223E
:1029100044594E444E53222076616C75653D226FBA
:102920006E22202573203E20203C2F74643E0D2013
:10293000203C74723E0D2020203C746420616C6940
:10294000676E3D227269676874223E64796E444EF8
:1029500053204163636F756E742028207573657210
:102960003A707720293C2F74643E2020203C746408
:102970003E3C696E707574206E616D653D22414309
:10298000434F554E542220747970653D227465780A
:1029900074222073697A653D223331222076616C7E
:1029A00075653D2222206D61786C656E6774683DA7
:1029B000223331223E3C2F74643E20203C2F74721F
:1029C0003E0D20203C74723E0D2020203C7464207B
:1029D000616C69676E3D227269676874223E447952
:1029E0006E444E5320446F6D61696E3C2F74643E9B
:1029F0002020203C74643E3C696E707574206E61CA
:102A00006D653D22444F4D41494E222074797065D9
:102A10003D2274657874222073697A653D223331D2
:102A2000222076616C75653D22257322206D6178C8
:102A30006C656E6774683D223331223E3C2F7464AE
:102A40003E20203C2F74723E0D20203C74723E0DBF
:102A50002020203C74643E3C2F74643E3C74643EF1
:102A60003C696E70757420747970653D227375626F
:102A70006D6974222076616C75653D222045696E12
:102A80007374656C6C756E67202655756D6C3B6252
:102A900065726E65686D656E20223E3C2F74643EE3
:102AA00020203C2F74723E0D203C2F7461626C65B7
:102AB0003E0D3C2F666F726D3E00636865636B650B
:102AC00064006F6E0044594E444E535F4F4E0044B5
:102AD000594E444E535F444F4D41494E0044594E68
:102AE000444E535F444F4D41494E0064796E646ECD
:102AF00073203C7570646174653E202F203C7365C3
:102B0000746163636F756E7420757365723A707764
:102B10004064796E646E732D646F6D61696E3E0DF5
:102B20000A004163636F756E74646174656E20673B
:102B3000657370656963686572742E0D0A0073654C
:102B4000746163636F756E740055706461746520A1
:102B500066756572202573206665686C67657363AA
:102B6000686C6167656E0D0A00557064617465205C
:102B700066756572202573206572666F6C67726575
:102B80006963682E0D0A007570646174650064796C
:102B90006E646E732E6367690064796E646E730091
:102BA00064656C0064656C0045696E7374656C6C7B
:102BB000756E67656E2075656265726E6F6D6D65A9
:102BC0006E210D0A00434D44002564202564202217
:102BD000257322004D4D00484800434D44003C669B
:102BE0006F726D20616374696F6E3D2263726F6EE8
:102BF0002E636769223E3C7461626C6520626F726D
:102C00006465723D2230222063656C6C706164647F
:102C1000696E673D2235222063656C6C7370616359
:102C2000696E673D2230223E3C74723E3C746420E3
:102C3000616C69676E3D227269676874223E5374E5
:102C4000756E64653C2F74643E3C74643E3C696EF2
:102C5000707574206E616D653D224848222074793C
:102C600070653D2274657874222073697A653D220F
:102C700033222076616C75653D2230226D61786C5F
:102C8000656E6774683D2233223E3C2F74643E3C7F
:102C90002F74723E3C74723E3C746420616C6967B0
:102CA0006E3D227269676874223E4D696E75746567
:102CB0003C2F74643E3C74643E3C696E70757420B5
:102CC0006E616D653D224D4D2220747970653D2207
:102CD00074657874222073697A653D2233222076E8
:102CE000616C75653D223022206D61786C656E6780
:102CF00074683D2233223E3C2F74643E3C2F747234
:102D00003E3C74723E3C746420616C69676E3D2287
:102D10007269676874223E436F6D6D616E643C2F0B
:102D200074643E3C74643E3C696E707574206E61E0
:102D30006D653D22434D442220747970653D2274B7
:102D4000657874222073697A653D22333022206DC4
:102D500061786C656E6774683D223330223E3C2F8B
:102D600074643E3C2F74723E3C74723E3C74643E0C
:102D70003C2F74643E3C74643E3C696E70757420F4
:102D8000747970653D227375626D69742220766175
:102D90006C75653D222045696E74726167207369A8
:102DA000636865726E20223E3C2F74643E3C2F7433
:102DB000723E3C2F7461626C653E3C2F666F726D93
:102DC0003E0D006164646E6577003C74723E3C7435
:102DD0006420616C69676E3D226C656674223E3CBE
:102DE0006120687265663D2263726F6E2E6367694B
:102DF0003F6164646E657722207374796C653D224F
:102E0000746578742D6465636F726174696F6E3A6E
:102E10006E6F6E6522207469746C653D2241646436
:102E2000223E3C696E70757420747970653D226233
:102E30007574746F6E222076616C75653D226164D5
:102E400064206E65772063726F6E2220636C6173FD
:102E5000733D22616374696F6E42746E223E3C2F33
:102E6000613E3C2F74643E3C2F74723E3C2F746173
:102E7000626C653E0D003C74723E3C746420616C73
:102E800069676E3D226C656674223E25733C2F7423
:102E9000643E3C746420616C69676E3D226C6566BB
:102EA00074223E3C6120687265663D2263726F6EDB
:102EB0002E6367693F64656C3D25642220737479D5
:102EC0006C653D22746578742D6465636F726174FE
:102ED000696F6E3A6E6F6E6522207469746C653D21
:102EE0002244656C223E3C696E7075742074797062
:102EF000653D22627574746F6E222076616C756513
:102F00003D2264656C2220636C6173733D226163B2
:102F100074696F6E42746E223E3C2F613E3C2F748A
:102F2000643E3C2F74723E003C7461626C652062AA
:102F30006F726465723D2230222063656C6C706133
:102F40006464696E673D2235222063656C6C737022
:102F50006163696E673D2230223E0063726F6E2EA0
:102F6000636769003C2F7072653E003C7072653E7D
:102F70000065656D656D203C70726F746563743EAD
:102F80007C3C756E70726F746563743E203C616446
:102F900064205B6E616D652076616C5D3E203C64F3
:102FA000656C205B6E616D655D3E203C7072696E84
:102FB000743E203C636C65616E3E0D0A00636C6577
:102FC000616E007072696E740064656C00616464A7
:102FD00000756E70726F7465637465740D0A0057C6
:102FE000524954455F50524F54454354004F464652
:102FF00000756E70726F7465637400575249544562
:103000005F50524F54454354004F4E0070726F74DE
:103010006563740065656D656D2E63676900656540
:103020006D656D0033333600E4F6FCC4D6DCDF5B3F
:103030005D3C3E7B7D405F232200616F75414F55B3
:1030400073283A282E282D28202B270065656565D2
:103050006565733A292E292D2929202B27004346FF
:10306000475041535300544C4E425543484F4646F7
:10307000454E0050524F544C4556454C0050524F0F
:10308000544C4556454C544C4E53525600484155AD
:1030900050545354454C4C4500454947454E454EC8
:1030A000554D4D45520046455354454850535400E4
:1030B0004D454C445255434B00414C5445524E42B1
:1030C00045494245530044555243485741484C54A2
:1030D0004142004E45545A5255464E520050494EB8
:1030E0000044594E4950414B544956004E45545A9C
:1030F000504F52540053454C425354414E50455248
:10310000005255464E525345525631005255464E86
:10311000525345525632005255464E52534552561E
:10312000330053594E4350494E0054785000546573
:103130006C657850686F6E6520506F7274202575CD
:103140002E0D0A0073646469722E636769007478D7
:10315000702D64656275672E6367690074787063AB
:1031600066672D7370657272656E2E636769007491
:1031700078706366672D65787465726E2E63676913
:10318000007478706366672D696E7465726E2E6365
:103190006769007478702D747769746C6E6C6973EC
:1031A00074652E636769007478702D6D73672D6F79
:1031B00075742E636769007478702D6D73672D695F
:1031C0006E2E636769004572726F7220726561646A
:1031D000696E67206469726563746F727921003C5F
:1031E000612068726566203D2225732F2573223E7B
:1031F00025733C2F613E20256C64203C736D616C0F
:103200006C3E3C612068726566203D22736464698F
:10321000722E6367693F6469723D25732664656C2D
:103220003D25732F2573223E64656C6574653C2FC4
:10323000613E3C2F736D616C6C3E3C62723E003CA3
:10324000612068726566203D222573223E25733C0D
:103250002F613E20256C64203C736D616C6C3E3C9C
:10326000612068726566203D2273646469722E6312
:1032700067693F64656C3D2573223E64656C6574C7
:10328000653C2F613E3C2F736D616C6C3E3C6272FD
:103290003E003C612068726566203D22736464696B
:1032A000722E6367693F6469723D25732F2573220F
:1032B0003E25733C2F613E204449523C62723E00E1
:1032C0003C612068726566203D2273646469722ED9
:1032D0006367693F6469723D2573223E25733C2F05
:1032E000613E204449523C62723E003C2F623E20C7
:1032F00028256C752066726565293C62723E003C2B
:10330000623E436F6E74656E74206F662025733A5B
:1033100000646972003C623E436F6E74656E742097
:103320006F66202F3A006469720046696C6520253B
:1033300073204E4F5420666F756E643C703E00469D
:10334000696C65202573204E4F542064656C65744C
:1033500065643C703E0046696C6520257320646599
:103360006C657465643C703E0064656C0064656CFB
:10337000002B2B2B666572746967004E756D6D6549
:103380007220257320537461747573202530325870
:103390003C62723E005374617475732064657220E0
:1033A000616E67657363686C6F7373656E656E20BD
:1033B0005457492D4D6F64756C653A3C703E00471B
:1033C000656865696D7A61686C20662675756D6CD7
:1033D0003B72205365727665722D53796E63687205
:1033E0006F6E6973696572756E67005465696C6E9E
:1033F00065686D65722D536572766572004E6574F1
:103400007A2D506F727400566572622D5465737414
:1034100020506572696F64650044796E4950416B54
:103420007475616C6973696572756E67004765686C
:1034300065696D7A61686C003C6269673E3C623E1A
:10344000266C743B3D3D3D207A752077656E69673B
:10345000205A69666665726E213C2F623E3C2F627F
:1034600069673E004E65747A2D5275666E756D6D96
:103470006572006E6575652045696E7374656C6C68
:10348000756E67656E3A203C6120687265663D2204
:103490007478706366672D65787465726E2E6367E5
:1034A00069223E7765697465723C2F613E0045690B
:1034B0006E7374656C6C756E67202655756D6C3B0C
:1034C0006265726E65686D656E0047656865696DF9
:1034D0007A61686C20662675756D6C3B7220536549
:1034E000727665722D53796E6368726F6E69736957
:1034F0006572756E670041647265737365206465FB
:1035000073205465696C6E65686D65722D536572C4
:103510007665723A00506F72742D4E756D6D6572DE
:1035200020696D204E65747A3A0056657262696E44
:1035300064756E6773746573742D506572696F641A
:10354000653A0049502D416B7475616C697369650A
:1035500072756E6720616B7469763A0047656865BD
:10356000696D7A61686C3A00656967656E652052BD
:1035700075666E756D6D657220696D2069702D744C
:10358000656C65782D4E65747A3A00747870636660
:10359000672D65787465726E2E636769004B6F6E78
:1035A00066696775726174696F6E73736569746556
:1035B0006E2073696E64206E756E2067657370652A
:1035C0007272742E205A7572204672656967616244
:1035D000652077696564657220646173205061734A
:1035E00073776F72742065696E676562656E206FB0
:1035F0006465722054617374652064657220426151
:103600007567727570706520322078206472267537
:10361000756D6C3B636B656E2E007A756E266175F9
:103620006D6C3B636873742050617373776F727451
:1036300020696E203C6120687265663D2274787056
:103640006366672D696E7465726E2E6367692220EA
:103650007461726765743D226D61696E223E4569D1
:103660006E7374656C6C756E67656E20696D206C29
:103670006F6B616C656E205478502D53797374654F
:103680006D3C2F613E2065696E676562656E210045
:10369000546C6E2D5665727A656963686E69732025
:1036A0006F6666656E003C62723E4B656E6E776F4C
:1036B0007274206767662E2067652661756D6C3BA6
:1036C0006E646572742E004C6576656C2066267596
:1036D000756D6C3B7220447275636B6175736761C5
:1036E00062650050726F746F6B6F6C6C2D4C6576F9
:1036F000656C205275666E722D5365727665720028
:1037000050726F746F6B6F6C6C2D4C6576656C00CE
:103710003C62723E44757263687761686C656E20C6
:10372000756E7665722661756D6C3B6E646572743C
:103730003A202573003C62723E447572636877617B
:10374000686C656E3A202573003C62723E416C7471
:1037500065726E617469762D537563686520626564
:10376000692042657365747A743A202573003C625F
:10377000723E416C7465726E6174697653756368EC
:103780006542656942657365747A7420756E766505
:10379000722661756D6C3B6E646572743A20257596
:1037A000003C62723E4665737465204861757074B2
:1037B0007374656C6C653A202573003C62723E46FA
:1037C0006573746548617570747374656C6C65209D
:1037D000756E7665722661756D6C3B6E646572748C
:1037E0003A202575003C62723E48617570747374AE
:1037F000656C6C653A202573003C62723E486175C9
:1038000070747374656C6C6520756E766572266174
:10381000756D6C3B6E646572743A202573003C6272
:10382000723E4E65747A2D566F727761686C206BAC
:103830006F6E6E7465206E696368742067652661BB
:10384000756D6C3B6E646572742077657264656E2D
:10385000003C62723E4E65747A2D566F72776168D5
:103860006C3A202573003C62723E4E65747A2D5688
:103870006F727761686C20756E7665722661756D02
:103880006C3B6E646572743A202573006E657565D5
:103890002045696E7374656C6C756E67656E3A2051
:1038A0003C6120687265663D227478706366672D9E
:1038B000696E7465726E2E636769223E77656974FE
:1038C00065723C2F613E0045696E7374656C6C7562
:1038D0006E67202655756D6C3B6265726E65686D0E
:1038E000656E005465696C6E65686D65722D566510
:1038F000727A656963686E697320662675756D6C8A
:103900003B7220616C6C65207369636874626172DC
:103910003A0050617373776F727420662675756D07
:103920006C3B72204B6F6E66696775726174696F6C
:103930006E7373656974656E3A004C6576656C20CC
:10394000662675756D6C3B7220447275636B61758C
:10395000736761626520766F6E204D656C64756E6D
:1039600067656E3A0050726F746F6B6F6C6C2D4CA4
:103970006576656C20662675756D6C3B72205465A6
:10398000696C6E2D5365727665723A0050726F7471
:103990006F6B6F6C6C2D4C6576656C3A004475727C
:1039A00063687761686C656E3A3C62723E286D6947
:1039B00074204B6F6D6D61207472656E6E656E293B
:1039C00000416C7465726E617469762D537563681D
:1039D00065206265692062657365747A743A00696E
:1039E0006E7465726E652044757263687761686C89
:1039F000206465722048617570747374656C6C65C1
:103A000020662675756D6C3B72206B6F6D6D656EF3
:103A100064652056657262696E64756E67656E3A9C
:103A20000066657374652048617570747374656CA5
:103A30006C6520662675756D6C3B72206B6F6D6DC5
:103A4000656E64652056657262696E64756E676541
:103A50006E3A004E65747A2D566F727761686C20ED
:103A6000662675756D6C3B7220676568656E64656A
:103A70002056657262696E64756E67656E3A007491
:103A800078706366672D696E7465726E2E63676900
:103A9000003C666F726D20616374696F6E3D2274C5
:103AA00078702D6D73672D696E2E636769223E45B0
:103AB000696E676162653A203C696E707574206E4C
:103AC000616D653D2245696E67616265222074798A
:103AD00070653D2274657874222073697A653D2291
:103AE0003635222076616C75653D2222206D617825
:103AF0006C656E6774683D223635223E3C696E7097
:103B0000757420747970653D227375626D697422D5
:103B10002076616C75653D2220416273656E646537
:103B20006E20223E3C6120687265663D227478708A
:103B30002D6D73672D6F75742E6367692220746114
:103B4000726765743D224D73674F7574223E416BF9
:103B50007475616C6973696572656E3C2F613E3C7A
:103B60002F666F726D3E0048544D4C2D4368617452
:103B7000206265676F6E6E656E2028416E776168A2
:103B80006C20257529202D3E20000D0A0048544D3B
:103B90004C2D436861742045696E676162653A2007
:103BA000000D0A0045696E676162650044757263C5
:103BB000687761686C20696E20546162656C6C6521
:103BC00020676566756E64656E2025750D0A004474
:103BD000757263687761686C2061757320546162E7
:103BE000656C6C6520756D67657365747A742025E6
:103BF000750D0A0044757263687761686C2D416EBB
:103C000066726167652025750D0A0054785020287A
:103C1000253575293A2000446972656B74647275A4
:103C2000636B20416272756620447275636B7370BA
:103C3000696567656C202862656C656774290D0A83
:103C400000496E74657266616365206973742062F1
:103C5000656C6567742C2062697474652077617285
:103C600074656E2E00446972656B74647275636B63
:103C700020416272756620447275636B737069656A
:103C800067656C2028617573290D0A005465787486
:103C900065696E6761626520737461727465742012
:103CA0004665726E7363687265696265720020288A
:103CB0002575290D0A00446972656B746472756319
:103CC0006B20416272756620447275636B73706914
:103CD0006567656C3A00447275636B7370696567FC
:103CE000656C3A3C62723E3C7072653E2573266C90
:103CF000743B266C743B266C743B257325733C2FF8
:103D00007072653E003C48544D4C3E3C4845414431
:103D10003E3C6D65746120687474702D65717569C1
:103D2000763D22657870697265732220636F6E74C8
:103D3000656E743D2231223E3C6D6574612068746D
:103D400074702D65717569763D22707261676D6161
:103D50002220636F6E74656E743D226E6F2D6361F9
:103D6000636865223E3C6D65746120687474702DD3
:103D700065717569763D2272656672657368222089
:103D8000636F6E74656E743D2231303B2055524C2A
:103D90003D7478702D6D73672D6F75742E63676930
:103DA000223E3C2F484541443E3C424F44593E0050
:103DB0003C62723E3C6120687265663D2274787098
:103DC0002D64656275672E6367693F7265736574FC
:103DD000223E53746174696B74696B2D4461746520
:103DE0006E207A75722675756D6C3B636B736574A6
:103DF0007A656E3C2F613E3C62723E457468657226
:103E00006E65743A20256C6420427974657320696C
:103E10006E20256C64205061636B6574656E204C68
:103E20006F636B4572726F727320256C640D0A00AC
:103E30003C62723E5465696C6E65686D657253656F
:103E400072766572416C6C654E6963687445727216
:103E500065696368626172203D202575003C62726D
:103E60003E5465696C6E65686D6572536572766502
:103E7000724665686C65725A6165686C6572282562
:103E80006429203D2025642C205370657272652DB5
:103E900054696D6572202564003C62723E54696D00
:103EA00065723043616C6C6261636B5F4D61782059
:103EB0003D202575003C62723E54696D6572304349
:103EC0006E745F4D6178203D202575003C62723E26
:103ED00054696D657230436E745F4D696E203D208C
:103EE0002575003C62723E54696D65723043616CA9
:103EF0006C6261636B436F756E74203D20257500A5
:103F00003C62723E547870546872656164436F75A8
:103F10006E74203D202575003C62723E54776949DD
:103F20007372436F756E74203D202575003C62727C
:103F30003E46616C7363686572436F6465203D2023
:103F40002575003C62723E53656C627374416E72FB
:103F500075665A65697455656265727761636875DF
:103F60006E673A20003C62723E53656C6273744126
:103F70006E7275664665686C65725A6165686C65D7
:103F800072203D202575003C62723E53656C627361
:103F900074416E727566456D7066616E67507275BC
:103FA000656677657274203D202575003C62723E1F
:103FB00053656C627374416E72756653656E6465A9
:103FC000507275656677657274203D202575003CDA
:103FD00062723E53656C627374416E727566536FA4
:103FE000636B657448616E646C65203D20257500C7
:103FF0003C62723E4B75727A54696D657256616CA3
:10400000282653656C627374416E72756654696DCF
:10401000657229203D202575003C62723E53656C17
:10402000627374416E7275665068617365203D20DD
:104030002575003C62723E44796E4950416B74753F
:10404000616C6973696572756E67456E647A6569DE
:1040500074203D202575003C62723E4C616E6754B1
:10406000696D657256616C282644796E4950416BC2
:104070007475616C6973696572756E6754696D6595
:104080007229203D202575003C62723E4B75727A84
:1040900054696D657256616C282654787054687244
:1040A000656164436865636B54696D657229203D81
:1040B000202575003C62723E4B75727A54696D65BD
:1040C0007256616C2826547870536F636B65744C1C
:1040D0006562656E737A65696368656E54696D655E
:1040E0007229203D202575003C62723E4275734B5B
:1040F0006F6C6C6973696F6E5A6165686C6572206C
:104100003D202575003C62723E54776957617463A7
:1041100068646F67436F756E74203D202575003CA1
:1041200062723E5477694C6562656E737A65696345
:1041300068656E5A6165686C6572203D2025750062
:104140003C62723E4B75727A54696D657256616C51
:104150002826427573517569747454696D657229A6
:10416000203D202575005D005D3C62723E41736319
:104170006969447275636B5075666665723A205B57
:10418000003C62723E48746D6C53656E64655465A4
:1041900078743A205B003C62723E536F636B6574C7
:1041A000416E7A61686C5A65696368656E456D70C9
:1041B00066616E67656E203D202575003C62723E2B
:1041C000536F636B6574416E7A61686C5A6569639D
:1041D00068656E517569747469657274203D202537
:1041E00075003C62723E536F636B6574416E7A6119
:1041F000686C5A65696368656E476573656E64656A
:1042000074203D202575003C62723E50726F746FC1
:104210006B6F6C6C5068617365203D202575003CA8
:1042200062723E547870536F636B657450726F7432
:104230006F6B6F6C6C203D202575003C62723E53A5
:104240006F636B65744F7574427566557365642052
:104250003D202575003C62723E536F636B65744967
:104260006E42756655736564203D202575003C627D
:10427000723E4B75727A54696D657256616C282670
:10428000547870536F636B657441626272756368D2
:1042900054696D657229203D202575003C62723E8F
:1042A000547870536F636B657441626261754765E2
:1042B000706C616E74203D202575003C62723E5426
:1042C0007870536F636B65744950203D2025303200
:1042D00058003C62723E547870536F636B6574484B
:1042E000616E646C65203D202575003C62723E5411
:1042F0007870536F636B65744D6F6465203D202546
:1043000075003C62723E537461747573203D2025C4
:10431000303258003C62723E4D6F647573203D2010
:104320002575003C62723E50726F746F6B6F6C6CDF
:104330007075666665723A202573003C62723E5065
:10434000726F746F6B6F6C6C64617465693A202571
:1043500073003C62723E446961676E6F73655075AD
:10436000666665724C6576656C203D202575004457
:104370006961676E6F73655075666665723A202570
:1043800073007265736574006B656E6E77006661AD
:104390006C7363686573204B6F6E666967757261D5
:1043A00074696F6E732D4B656E6E776F72742065D6
:1043B000696E6765676562656E004B656E6E776FE7
:1043C00072742066616C7363682100467265696768
:1043D0006562656E00536569746520676573706515
:1043E00072727421204B656E6E776F7274203A0082
:1043F0007478706366672D696E7465726E2E63677C
:1044000069000D0A006367692D4175667275663A29
:104410002000536F636B6574207A756D2054656955
:104420006C6E65686D65722D536572766572207766
:104430007572646520766F6E20476567656E73746C
:10444000656C6C652067657363686C6F7373656E0C
:104450000D0A002120756E6572776172746574654E
:1044600020416E74776F727420646573205465699F
:104470006C6E65686D65722D536572766572730D2D
:104480000A000D0A0021204665686C65726D656C36
:1044900064756E6720646573205465696C6E656829
:1044A0006D65722D536572766572733A20000D0A40
:1044B0000044796E616D69736368652049502D41D0
:1044C0006B7475616C6973696572756E673A206E9D
:1044D000657565204950200044796E616D6973638C
:1044E00068652049502D416B7475616C697369650D
:1044F00072756E673A20626573746568656E64658F
:104500002049502067696C74207765697465720D65
:104510000A00696E7465726E6573205275666E75F9
:104520006D6D65726E2D5665727A656963686E6928
:104530007320766F6C6C002120446174656E73612A
:10454000747A20766F6D205465696C6E65686D6550
:10455000722D536572766572206D6974204E7220DB
:10456000256C64206B6F6E6E7465206E6963687471
:10457000206765737065696368657274207765721A
:1045800064656E0D0A002120696D206C6F6B616C93
:10459000656E2054656C65666F6E62756368206138
:1045A0006C732027507269766174272067656B658C
:1045B0006E6E7A656963686E65740D0A0021205419
:1045C00065696C6E65686D65722D5365727665728E
:1045D000206D656C64657420414E44455245204E03
:1045E000756D6D657220616C7320616E67656672B2
:1045F0006167740D0A000D0A005465696C6E656888
:104600006D65722D536572766572206D656C64659B
:10461000742045696E7472616720676566756E64A3
:10462000656E3A20006765776165686C7465204E39
:10463000756D6D6572206E696368742062656B616B
:104640006E6E74005465696C6E65686D65722D538D
:104650006572766572206D656C64657420276E697D
:1046600063687420676566756E64656E270D0A0061
:104670000D0A00256429005465696C6E65686D65D6
:10468000722D53657276657220456D7066616E6736
:104690003A202825642F0053656C6273742D416E97
:1046A0007275662D536F636B6574206475726368F1
:1046B0002054696D656F75742067657363686C6FEE
:1046C0007373656E210D0A0053656C627374616BC0
:1046D0007475616C6973696572756E670053656C9A
:1046E0006273742D416E727566206D6568726661C5
:1046F000636820766572736167742C2066616C73E1
:1047000063686520526F757465722D4B6F6E6669B4
:104710006775726174696F6E3F00212053656C622A
:1047200073742D416E727566204B45494E2045636A
:10473000686F20656D7066616E67656E2E0D0A008C
:10474000212053656C6273742D416E727566204131
:1047500042474542524F4348454E20776567656E54
:10476000204D6F6475732D5765636873656C2E0DEE
:104770000A00212053656C6273742D416E72756658
:104780002046414C5343484520446174656E206582
:104790006D7066616E67656E2E0D0A00212053658F
:1047A0006C6273742D416E727566206572666F6CF3
:1047B00067726569636820616267657363686C6FBF
:1047C0007373656E2E0D0A00212053656C6273743D
:1047D0002D416E72756620446174656E2D53656E51
:1047E00064756E6720564552534147542E0D0A009A
:1047F00053656C6273742D416E72756620446174EA
:10480000656E20676573656E6465742E0D0A002100
:104810002053656C6273742D416E727566206F65EE
:1048200066666E656E2064657320536F636B657496
:1048300020564552534147542E0D0A004772756E5B
:10484000647374656C6C756E6720657272656963FC
:1048500068742028536F636B6574206765736368A1
:104860006C6F7373656E2C205457492067657363B2
:10487000686C6F7373656E290D0A005265737465F9
:10488000206765647275636B74202D2D3E20417521
:1048900073736368616C74756E6720696E7465729A
:1048A0006E0D0A0048544D4C2D436861742D5275AD
:1048B0006865202D2D3E20417573736368616C74AB
:1048C000756E6720696E7465726E0D0A004D656CB9
:1048D00064756E6773647275636B202D3E20000DE6
:1048E0000A0A0A000D0A2F2F2F6D656C64756E671A
:1048F0003A20005461737465206765647275636B58
:1049000074202D2D3E2052657374652D447275639D
:104910006B206162676562726F6368656E0D0A0085
:10492000446174756D3A20253032752E253032750C
:104930002E2530347520253032753A253032753ABF
:10494000253032750D0A000D0A00696E7465726EAD
:10495000652049503A2000416262617520776567A1
:10496000656E203130204D696E7574656E20467518
:104970006E6B7374696C6C65210D0A006572720D43
:104980000A00212054696D656F7574206265696D38
:104990002057617274656E206175662064696520B8
:1049A00045696E736368616C747175697474756E52
:1049B000670D0A00212054696D656F75742062656A
:1049C000696D2057617274656E2061756620646937
:1049D00065205363686C7573737175697474756E53
:1049E000670D0A006F63630D0A0052657365727686
:1049F000696572756E6720667565722045696E73AC
:104A00006368616C74756E67206B6F6E6E74652081
:104A10006E696368742076657273616E6474207762
:104A2000657264656E002120416E7761686C206953
:104A30006E7465726E20616E202575205645525346
:104A40004147540D0A0076657262756E64656E208A
:104A50006D69742025750D0A00416E7761686C20C0
:104A6000696E7465726E2025752000416E676572EF
:104A70007566656E657220686174206765616E7425
:104A8000776F72746574202D3E2045696E7363687C
:104A9000616C74756E6720696E7465726E0D0A00C4
:104AA0002120494C4C4547414C45532050726F746E
:104AB0006F6B6F6C6C0D0A00496E7465726E6520C9
:104AC00056657262696E64756E6720756E74657284
:104AD00062726F6368656E0021205457492D5469D6
:104AE0006D656F7574202D3E204162736368616C43
:104AF00074756E670D0A00545749204175737363CE
:104B000068616C74756E6720696E7465726E0D0AEB
:104B10000021205363686C757373717569747475C3
:104B20006E67206F686E6520417566666F7264659A
:104B300072756E670D0A005457492041757373638F
:104B400068616C74756E67207175697474696572DB
:104B5000740D0A005465696C6E65686D6572202578
:104B60006C7520696D20656967656E656E2054659A
:104B70006C65666F6E6275636820676566756E64E6
:104B8000656E2E0D0A00545749205761686C7A698A
:104B90006666657220257520696E7465726E202FB9
:104BA00020676568656E640D0A0054574920576197
:104BB000686C617566666F72646572756E67206990
:104BC0006E7465726E202F206B6F6D6D656E640D57
:104BD0000A005457492045696E736368616C7471AB
:104BE00075697474756E67206E616368204D656CBD
:104BF00064756E6773647275636B0D0A0054574970
:104C00002045696E736368616C747175697474753D
:104C10006E67206E61636820426567696E6E20482A
:104C2000544D4C2D436861740D0A0054574920457A
:104C3000696E736368616C747175697474756E679D
:104C400020696E7465726E202F206B6F6D6D656EBE
:104C5000640D0A005457492045696E736368616C9E
:104C6000746B6F6D6D616E646F20696E7465726ECA
:104C7000202F20676568656E640D0A00545749202F
:104C8000526573657276696572756E6720696E74B8
:104C900065726E202F20676568656E6420766F6E82
:104CA0002025750D0A00253032752E253032752EDF
:104CB000253034752020253032643A253032640D99
:104CC0000A005A6569747565626572736368726516
:104CD0006974756E672062656920576965646572DD
:104CE0006175666E61686D652064657220566572D7
:104CF00062696E64756E670021205A4549545545B6
:104D000042455253434852454954554E47206265E7
:104D100069205769656465726175666E61686D6565
:104D2000206465722056657262696E64756E670DE7
:104D30000A004D6568726661636865204645484CA7
:104D40004552206265696D2053656E64656E206909
:104D50006E73204E65747A0021204D65687266611D
:104D6000636865204645484C4552206265696D2060
:104D700053656E64656E20696E73204E65747A2C7F
:104D800020536F636B6574207769726420766F724D
:104D90007565626572676568656E642067657363D3
:104DA000686C6F7373656E0D0A002F253032580DD5
:104DB0000A002053756D416E7A202575002C205213
:104DC00065737420257500202D2D3E2052657320BB
:104DD000256400536F636B65742053656E64756E54
:104DE000673A2028257529005769656465722D4F3B
:104DF0006566666E756E672064657320536F636BBE
:104E00006574206572666F6C6772656963682E0DE4
:104E10000A0021205769656465722D4F6566666ECC
:104E2000756E672064657320536F636B65742056DD
:104E30004552534147542E0D0A00202D2D3E20424D
:104E40007566557365642025750D0A002564290073
:104E5000536F636B657420456D7066616E673A20B1
:104E60002825642F006C696D69746965727420610E
:104E700075662025640D0A002120536F636B6574ED
:104E800020456D7066616E672064726F68656E6440
:104E900065722055656265726C6175663A20456D74
:104EA0007066616E6720766F6E2025642000536FF8
:104EB000636B6574207769726420616B7469762016
:104EC00067657363686C6F7373656E0D0A00536F6B
:104ED000636B657420777572646520766F6E20470A
:104EE0006567656E7374656C6C6520657277617259
:104EF0007465742067657363686C6F7373656E0D9A
:104F00000A002120536F636B6574207775726465A6
:104F100020766F6E20476567656E7374656C6C658F
:104F20002047455452454E4E540D0A00536F636B53
:104F3000657420777572646520766F6E20476567AB
:104F4000656E7374656C6C652065727761727465EB
:104F5000742067657363686C6F7373656E0D0A0008
:104F60002120536F636B65742077757264652076BA
:104F70006F6E20476567656E7374656C6C65205550
:104F80004E45525741525445542067657363686CCF
:104F90006F7373656E0D0A005A77656974657220C8
:104FA0006B6F6D6D656E64657220416E7275662003
:104FB0006175662062656C656774656D2054656C0B
:104FC000657870686F6E652D536F636B6574002034
:104FD00021202E2E2E4142474557494553454E0D1F
:104FE0000A0004066F6363200D0A002C20566572C8
:104FF00062696E64756E67206265737465687400BB
:105000002C20616E64657265206B6F6D6D656E64DA
:10501000652056657262696E64756E67206265739D
:10502000746568742100202E2E2E576965646572A0
:1050300076657262696E64756E67206F6B0D0A002B
:105040002C20616E6465727765697469672062659A
:105050006C65677400202E2E2E6E6575206F6B0DAB
:105060000A00202F204D414320005365727665725F
:105070002D536F636B65742067656F6566666E653B
:105080007420766F6E20495020002534640D0A008C
:105090002534640053656E64412025346400253452
:1050A000640D0A0025346400456D70664120253189
:1050B000366400204B656E6E3D25640D0A00466522
:1050C000726E6B6F6E66696720214665686C6572EB
:1050D000204C656E3D2564006665726E6B6F6E6672
:1050E0006572720053656E64652050726F746F6BE9
:1050F0006F6C6C76657273696F6E2D566F72736329
:10510000686C61672025750D0A0050726F746F6BB3
:105110006F6C6C76657273696F6E2D566F72736308
:10512000686C616720257520656D7066616E6765C6
:105130006E0D0A00416262617562656665686C2089
:10514000766F6E20476567656E7374656C6C650D70
:105150000A0053656E64656E42657363686C6575BD
:105160006E6967656E2045494E0D0A0053656E6491
:10517000656E42657363686C65756E6967656E2000
:105180004155530D0A002534640D0A00253464008E
:10519000456D7066422025313664004665726E6B3F
:1051A0006F6E666967204B656E6E3D2564206F6B80
:1051B0000D0A002534640D0A002534640053656E21
:1051C000644220253464005275666E756D6D65729B
:1051D0002D41626672616765004162667261676552
:1051E00020626569205465696C6E65686D65722D15
:1051F0005365727665726E0D0A002120696E7465C2
:10520000726E65722056657262696E64756E677340
:10521000706172746E6572202575206973742053F5
:1052200043484F4E20465245492E0D0A0021206921
:105230006E7465726E65722056657262696E647511
:105240006E6773706172746E6572202575204E49A9
:10525000434854204D454852204552524549434801
:105260004241522E0D0A005265736572766965726D
:10527000756E6720667565722045696E7363686137
:105280006C74756E67206B6F6E6E7465206E6963EB
:1052900068742076657273616E64742077657264D9
:1052A000656E00212045696E736368616C74756E6C
:1052B0006720696E7465726E20564552534147549B
:1052C0000D0A0045696E736368616C74756E6720C2
:1052D000696E7465726E0D0A000D0A002020202090
:1052E0002020676577616E64656C7420696E3A2072
:1052F0000020282B2575290D0A0041736369692D4B
:10530000566572617262656974756E673A20002035
:10531000756E642056657273696F6E2025750D0A6F
:1053200000436C69656E742D536F636B6574205414
:105330007870206572666F6C677265696368206754
:10534000656F6566666E6574202D3E2073656E64BC
:10535000652044757263687761686C202575004329
:105360006C69656E742D536F636B65742041736354
:105370006969206572666F6C67726569636820672A
:10538000656F6566666E6574202D3E2045696E7397
:105390006368616C742D5175697474756E672061F2
:1053A0006E205457490D0A005465696C6E65686D2E
:1053B0006572206E696368742065727265696368DE
:1053C000626172002120536F636B6574206B6F6E96
:1053D0006E7465206E6963687420657273746D61A4
:1053E0006C69672067656F6566666E6574207765B2
:1053F0007264656E0D0A0021205465696C6E6568E3
:105400006D6572206973742047454C4F455343487E
:10541000540D0A004B65696E652056657262696EAF
:1054200064756E67207A756D204D61696C2D5365CA
:105430007276657220667565722041757367616E5C
:105440006700436C69656E742D536F636B657420E0
:10545000534D5450206572666F6C6772656963685E
:105460002067656F6566666E6574202D3E20456910
:105470006E736368616C742D5175697474756E67B1
:1054800020616E205457490D0A00206E69636874CC
:1054900020676566756E64656E0D0A0021204950AF
:1054A000207A752055726C200020506F7274202570
:1054B000750D0A00203D200056657262696E6475A4
:1054C0006E6773617566626175207A752055726CBE
:1054D000200020506F72742025750D0A00566572E9
:1054E00062696E64756E6773617566626175207A54
:1054F0007520495020004B65696E205465696C6EBB
:1055000065686D65722D536572766572206572727D
:105510006569636862617200290D0A0020495020A4
:105520006E696368742062656B616E6E7420284FCB
:105530006566666E756E672066756572200021204F
:105540005465696C6E65686D65722D53657276651C
:10555000722000290D0A002047455343484549540D
:1055600045525420284F6566666E756E67206675D5
:1055700065722000212056657262696E64756E67DF
:10558000737665727375636820616E205465696C0B
:105590006E65686D65722D53657276657220005474
:1055A00065696C6E65686D65722D5365727665729E
:1055B00020776965646572206572726569636874D5
:1055C000002E0D0A002068657267657374656C6C47
:1055D000742066756572200056657262696E647526
:1055E0006E6720616E205465696C6E65686D6572CA
:1055F0002D5365727665722000290D0A00207765AB
:1056000067656E204665686C65726E206E6F6368B4
:105610002067657370657272742120284F65666615
:105620006E756E67206675657220005465696C6ED4
:1056300065686D65722D53657276657220005765D9
:10564000636873656C206E616368204D6F64757369
:1056500020507566666572447275636B556E64534F
:1056600063686C7573732028766F6E202564290D2E
:105670000A005765636873656C206E616368204D2E
:105680006F64757320527568652028766F6E2025CB
:1056900064290D0A002120526573657420776567BF
:1056A000656E206E696368742D417566727566203B
:1056B000766F6E207478705F7468726561642829F3
:1056C0000D0A0053756D6D652F416E7A203D2025C2
:1056D0006C752F257520204D6178203D2025752083
:1056E00020416E7A55656265724772656E7A6520F3
:1056F0003D202575007478702D746C6E7665727A15
:105700002E636769004665686C657220696D205A72
:10571000757361747A2D454550524F4D00202F20EE
:10572000253032580D0A005478503A202120456522
:1057300070726F6D204C6164656665686C6572207F
:105740002564003C62723E5A75722675756D6C3B1D
:10575000636B207A756D203C6120687265663D221E
:105760007478702D746C6E7665727A2E6367692218
:105770003E5465696C6E65686D65722D5665727A0A
:10578000656963686E69733C2F613E004665686CAD
:1057900065723A20756E6775656C7469676572200D
:1057A0004347492D4175667275663A202573006B33
:1057B0006F6D706C6574742067656C266F756D6CA9
:1057C0003B73636874004572666F6C6772656963EA
:1057D000682067656C6164656E20282564204279C5
:1057E00074657329003C623E4665686C6572206290
:1057F00065696D204C6164656E2028436F64657334
:10580000202564202F2025303258293C2F623E006D
:105810004572666F6C67726569636820676573704F
:10582000656963686572742028256420427974650F
:105830007329003C623E4665686C6572206265694A
:105840006D2053706569636865726E2028436F64CC
:105850006573202564202F2025303258293C2F6283
:105860003E003C623E5465696C6E65686D65726CA5
:105870006973746520766F6C6C2C2045696E747248
:105880006167206E6963687420676573706569631A
:10589000686572743C2F623E3C62723E003C623E20
:1058A000416C7465204E756D6D657220256C6420A9
:1058B0006B6F6E6E7465206E696368742067656CCB
:1058C000266F756D6C3B73636874207765726465D1
:1058D0006E213C2F623E3C62723E0045696E7472DE
:1058E000616720756E7665722661756D6C3B6E64BE
:1058F0006572743C62723E0045696E747261672025
:1059000067657370656963686572743C62723E00B6
:105910003C623E5275666E756D6D6572206973747A
:105920002062657265697473207665726765626569
:105930006E2C202641756D6C3B6E646572756E67CA
:10594000206E696368742067657370656963686554
:1059500072743C2F623E3C62723E003C623E6B655C
:10596000696E65202641756D6C3B6E646572756E5F
:10597000673C2F623E3C62723E003C623E556E6266
:10598000656B616E6E74657220547970213C2F6274
:105990003E3C62723E00654D61696C3A2041647222
:1059A000657373652025733C62723E00506F72749C
:1059B0002025753C62723E0041736369693A204953
:1059C00050202573200041736369693A2055726C39
:1059D0002025732000506F72742025752044757245
:1059E00063687761686C20257320282575293C62DF
:1059F000723E0054656C657850686F6E653A204958
:105A000050202573200054656C657850686F6E6572
:105A10003A2055726C202573200067656C266F75DF
:105A20006D6C3B736368743C62723E0067657370B3
:105A3000657272743C62723E006E7572204C6F6BC0
:105A4000616C3C62723E004E616D653A2025733C8C
:105A500062723E003C62723E006568656D2E2025D4
:105A60006C640068696E7A75662675756D6C3B6747
:105A7000656E005465696C6E65686D657265696E0A
:105A8000747261673A3C62723E5275666E756D6DF6
:105A900065723A20256C6420003C623E5275666E49
:105AA000756D6D65722030206E6963687420657253
:105AB0006C61756274213C2F623E3C62723E00262E
:105AC00041756D6C3B6E6465726E0048696E7A75E7
:105AD000662675756D6C3B67656E0044757263680C
