:100000000C948B330C9487340C94B2340C94DD3400
:100010000C9408350C9433350C945E350C9489356A
:100020000C94B4350C94FD330C94FD330C94FD33D7
:100030000C94FD330C94FD330C94FD330C94FD3380
:100040000C94FD330C9468390C94FD330C94FD33FF
:100050000C94FD330C9420410C94FD330C94FD332F
:100060000C94FD330C94B53A0C94743A0C94593AB0
:100070000C94FD330C94FD330C94FD330C94FD3340
:100080000C94FD330C94FD330C94FD330C94FD3330
:100090000C94B93B0C942D3B0C94F03A0C9424D165
:1000A0000C94FD330C94FD330C94FD330C94FD3310
:1000B0000C94FD330C94FD330C94FD330C94FD3300
:1000C0000C94FD330C94FD330C94FD330C0D0E0F8A
:1000D000253032783A253032783A253032783A2550
:1000E0003032783A253032783A253032780025643B
:1000F0002E25642E25642E25640044484350206D2F
:10010000736720747970652035332076616C75656E
:100110002025750D0A0044484350206D73672074F4
:100120007970652035332076616C75652025750DF5
:100130000A004950004D41534B00444E5300474183
:10014000544500444843502D436F6E6669672067ED
:1001500065686F6C740D0A00444843502D436F6E00
:10016000666967204665686C67657363686C61677C
:10017000656E0D0A00207C2D3E20566572737563F6
:10018000686520444843502D436F6E666967207A46
:100190007520686F6C656E2E2000206665686C6740
:1001A000657363686C6167656E0D0A00206665683B
:1001B0006C67657363686C6167656E0D0A00205A31
:1001C0006569743A20253032643A253032643A2524
:1001D0003032642E253032640D0A004E545053459F
:1001E00052564552005554435A4F4E4500207C2DDF
:1001F0003E204E54502D536572766572205A6569C3
:100200007420616B7475616C6973696572656E3AAF
:10021000006F6E004E545000207C202020444E532E
:10022000202020203A2025730D0A00207C20202049
:10023000476174657761793A2025730D0A00207C47
:100240002020204E65746D61736B3A2025730D0A72
:1002500000207C202020495020202020203A2025EA
:10026000730D0A006F6E00444843500044484350E9
:1002700000207C2D3E20544350202848757272691E
:1002800063616E2D656E67696E652920696E69749C
:1002900069616C6973696572740D0A00207C2D3E7A
:1002A000205544502028546F726E61646F2D656E26
:1002B00067696E652920696E697469616C69736923
:1002C0006572740D0A002D2B2D3E2041525020697D
:1002D0006E697469616C6973696572740D0A0020D6
:1002E0004C696E6B2072656164790D0A0020467559
:1002F0006C6C6475706C65783A00454E4332386AB0
:10030000363020285265762E3A2025642920696EE1
:10031000697469616C697369657274202820485733
:100320002D4164643A20253032783A253032783ACB
:10033000253032783A253032783A253032783A25ED
:100340003032782029004D4143004D4143004D4358
:1003500050636F6E666967000D0A000A002563002E
:10036000436F6E6669672069737420256420627923
:100370007465732067726F73732C20256420627913
:1003800074652077657264656E2062656E75747A37
:10039000742E204F66667365742025640D0A0D0A5D
:1003A000004F46460057524954455F50524F5445FE
:1003B00043540020496E697469616C6973696572A0
:1003C000740D0A00204572726F720D0A0054485273
:1003D000454144005348454C4C0046696C6573796F
:1003E0007374656D004D4D432F5344004558544977
:1003F0004E5400436F6E666967004C45445F636FFF
:10040000726500434C4F434B005354444F555400C6
:10041000554152540054656C657850686F6E654E56
:1004200065742E2E2E0D0A003EFFFFFF3F34353639
:100430003738393A3B3C3DFFFFFFFFFFFFFF00012C
:1004400002030405060708090A0B0C0D0E0F101114
:100450001213141516171819FFFFFFFFFFFF1A1BC1
:100460001C1D1E1F202122232425262728292A2B54
:100470002C2D2E2F303132334142434445464748DC
:10048000494A4B4C4D4E4F50515253545556575864
:10049000595A6162636465666768696A6B6C6D6E00
:1004A0006F707172737475767778797A3031323310
:1004B0003435363738392B2F002F6E69632F75701E
:1004C000646174653F686F73746E616D653D25731B
:1004D000006D656D626572732E64796E646E732E45
:1004E0006F726700636865636B69702E64796E6410
:1004F0006E732E6F72670047455420002048545495
:10050000502F312E300D0A557365722D4167656E7F
:10051000743A20576765742F312E31312E340D0A0D
:100520004163636570743A202A2F2A0D0A486F735D
:10053000743A20000D0A417574686F72697A6174AB
:10054000696F6E3A2042617369632025730D0A0D4D
:100550000A000D0A0D0A002F00436F6E74656E7459
:100560002D4C656E6774683A2000485454502F3102
:100570002E000D0A00436F6D6D616E64733A0D0AB3
:100580000D0A0068656C7000485454502F312E30AD
:10059000203430330D0A436F6E74656E742D5479B8
:1005A00070653A20746578742F68746D6C0D0A4B11
:1005B0006565702D416C6976653A20636C6F736573
:1005C0000D0A0D0A3C48544D4C3E3C424F44593EA6
:1005D0003430332046696C65206E6F7420666F7509
:1005E0006E64213C2F424F44593E3C2F48544D4CA1
:1005F0003E0D0A0D0A00504F535400474554006801
:100600007474706400485454502D5365727665724A
:1006100020506F72742025642E0D0A00696E646587
:10062000782E68746D6C003C2F424F44593E3C2F2D
:1006300048544D4C3E0D0A0D0A003C48544D4C3E6A
:100640003C484541443E3C6D65746120687474705B
:100650002D65717569763D226578706972657322C2
:1006600020636F6E74656E743D2230223E3C212DF6
:100670002D20456E61626C652049453920537461B7
:100680006E6461726473206D6F6465202D2D3E3C35
:100690006D65746120687474702D65717569763D3F
:1006A00022582D55412D436F6D70617469626C65E0
:1006B0002220636F6E74656E743D2249453D392278
:1006C000203E3C2F484541443E3C424F44593E0069
:1006D000485454502F312E312032303020446F6333
:1006E000756D656E7420666F6C6C6F77730D0A4361
:1006F0006F6E74656E742D547970653A20746578E8
:10070000742F68746D6C0D0A43616368652D436FC7
:100710006E74726F6C3A206E6F2D63616368650D45
:100720000A436F6E6E656374696F6E3A20636C6F17
:1007300073650D0A0D0A00696E6465782E68746D24
:100740006C003C48544D4C3E3C484541443E3C5472
:1007500049544C453E547850322D4E6574202D201E
:1007600044617320496E7465726E65742D496E74B0
:10077000657266616365207A756D2054656C657875
:1007800050686F6E6520323C2F5449544C453E3CB6
:100790002F484541443E3C6672616D657365742027
:1007A000726F77733D2236342C34302C2A2C34303F
:1007B00022207363726F6C6C696E673D226E6F22CC
:1007C000206672616D65626F726465723D223222CD
:1007D00020626F726465723D223222206672616D02
:1007E0006573706163696E673D22322220626F72A9
:1007F000646572636F6C6F723D222330303030302D
:1008000030223E3C6672616D65207372633D2268E2
:100810006561646C696E652E68746D6C22206E6112
:100820006D653D224E617669676174696F6E312234
:10083000207363726F6C6C696E673D226175746FB3
:10084000223E3C6672616D65207372633D226D616C
:10085000696E6D656E752E68746D6C22206E616DAB
:10086000653D224E617669676174696F6E32222040
:100870007363726F6C6C696E673D226175746F2271
:100880003E3C6672616D65207372633D22696E66DF
:100890006F2E68746D6C22206E616D653D226D61F6
:1008A000696E223E3C6672616D65207372633D2203
:1008B00073746174732E63676922206E616D653D88
:1008C0002275706461746522207363726F6C6C6949
:1008D0006E673D226175746F223E3C6E6F66726179
:1008E0006D65733E3C626F64793E3C703E49687250
:1008F0002042726F7773657220756E7465727374BF
:100900002675756D6C3B747A74206B65696E652015
:100910004672616D6573213C2F703E3C2F626F649F
:10092000793E3C2F6E6F6672616D65733E3C2F663B
:1009300072616D657365743E3C2F48544D4C3E0D9D
:100940000A0D0A00686561646C696E652E68746DD5
:100950006C003C48544D4C3E3C424F445920746519
:1009600078743D2223303030304330222073747944
:100970006C653D226261636B67726F756E642D6991
:100980006D6167653A75726C286C6F636873747219
:10099000656966656E2D68672E706E6729223E3C1C
:1009A0007370616E207374796C653D22666F6E742E
:1009B0003A20626F6C6420343070782027436F7562
:1009C00072696572204E6577272C274C75636964C0
:1009D0006120436F6E736F6C65272C6D6F6E6F7344
:1009E000706163653B20223E3C623E547850322D5C
:1009F0004E6574202D2044617320496E7465726EBB
:100A000065742D496E74657266616365207A756DD3
:100A10002054656C657850686F6E653C2F623E3C73
:100A20002F7370616E3E3C2F424F44593E3C2F481D
:100A3000544D4C3E0D0A0D0A006C6F63687374725E
:100A4000656966656E2D68672E706E670089504E09
:100A5000470D0A1A0A0000000D49484452000002DE
:100A6000250000003F0403000000CD91A50C00000C
:100A70000030504C5445FFFF66C0C0C0FF0000006E
:100A80000000000000000000000000000000000066
:100A90000000000000000000000000000000000056
:100AA000000000000000C3145A1300000009704841
:100AB000597300000B1300000B1301009A9C1800DF
:100AC00000027F4944415478DAED5B5B72C3200C2D
:100AD000B47302ABF73F6CE33CA8C9EAB124D30975
:100AE00069573F558C84F10E428BA0CB22799093AD
:100AF000201026C2E4594CD6EDFCD7968372914E55
:100B0000B934A1B036AD2978C5E23E093A5C466DEC
:100B100082612498AC66DB62663FCAB58FA37269B6
:100B200072DE43DAB4A6E015D8E1ED57FDC18CCDF5
:100B3000EDCD07E3DC6B3A4CB6E36718F1A9C64D7F
:100B40009373CFCDB8F03AEDD6B61B6D4DB9BBFD62
:100B500028E67642DBB426FF15D86133263ED5C899
:100B600069F2300C613288896247987C202653E410
:100B70001D09CFD990DB18C98890CE55EE051B4CC6
:100B8000781DE385542DA7A061ECB4A91E4CEC3868
:100B90004030AC2AF760AA770A36D15E18327EEC74
:100BA000DCBD26C5A42DB690AF9D2785172EADC1FF
:100BB0001A7BF78AF809E6F1351E0CF29380E70CF0
:100BC0004C138EC3305E484B0ABA254C3C4C143B48
:100BD000183BC2E443307973DE9188C70A9327310A
:100BE000D9A368DD034CCA55F1D6D8F72A9705700A
:100BF0007DA7224C3C4C1432183B4EADE09F2BCAD3
:100C00003BCAC5AFD7D9FA529511352BCBBDB00928
:100C1000CB74D861500034D72629A6255E479B7433
:100C2000BFD36F7CB0DA5CEC89D00B9B9CED526734
:100C3000DC27856E0BD3EF6EBA0C126C6A12AFA371
:100C4000CD7C98F49BD67606815BDD6E17DC9E2406
:100C50009BDFC4ABB3496B4A5D5926384A4BEA4E19
:100C6000E8854DC5215D52EC42F7EAB02FF1EA6C00
:100C7000848987896207634798CC8FC90C7947F2CA
:100C80000A67634E4219D265041B2C0E37939359A1
:100C9000FA8437247803B1C354A41363BF58EDC456
:100CA000971F29556D9971C73AB6DBF37C98042BD1
:100CB0006A7106D1DB24F758708D051B9E9F30A703
:100CC0007E0CC1A8384C721C397C3D2C61500999AE
:100CD00011261E268A1D8C1D61323F2633E41D0914
:100CE000C5D982625AC2EB98FF535808363824C3DC
:100CF00017DB98F104B1136C6A92F862EE8B0690E0
:100D00000CDCD4F142A6681ABA96F0073019BE88F6
:100D1000527965FCC42F1C251C86B9931F8FDE9E5B
:100D20009E268397B898F10813C50E1F3BC24479DD
:100D300087C93B1261224C848930F93D4C4CF2202A
:100D40005FDF827D01B9877BC8E300000000494571
:100D50004E44AE4260826D61696E6D656E752E683F
:100D6000746D6C003C48544D4C3E3C484541443EFB
:100D70003C6C696E6B2072656C3D227374796C6596
:100D800073686565742220747970653D2274657896
:100D9000742F6373732220687265663D22737479C1
:100DA0006C652E637373223E3C2F484541443E3CA4
:100DB000424F4459206267636F6C6F723D22234338
:100DC0003046464330223E3C6120687265663D22D3
:100DD000696E666F2E68746D6C22746172676574DB
:100DE0003D226D61696E223E496E666F726D61745F
:100DF000696F6E656E3C2F613E202F203C6120683C
:100E00007265663D227478702D6D656E752E6874FE
:100E10006D6C223E54656C657850686F6E653C2F32
:100E2000613E202F203C6120687265663D226E6520
:100E300074776F726B2E68746D6C223E4E65747A97
:100E40007765726B3C2F613E202F203C61206872D9
:100E500065663D2273797374656D2E68746D6C22BE
:100E60003E53797374656D3C2F613E3C2F424F4475
:100E7000593E3C2F48544D4C3E0D0A0D0A006E65FC
:100E800074776F726B2E68746D6C003C48544D4CD7
:100E90003E3C484541443E3C6C696E6B2072656C3B
:100EA0003D227374796C657368656574222074796A
:100EB00070653D22746578742F63737322206872A5
:100EC00065663D227374796C652E637373223E3CB4
:100ED0002F484541443E3C424F4459206267636F6E
:100EE0006C6F723D2223433046464330223E3C61C4
:100EF00020687265663D226D61696E6D656E752E46
:100F000068746D6C223E7A75727565636B3C2F61F7
:100F10003E202F203C6120687265663D226E65741C
:100F2000776F726B2E6367692220746172676574D4
:100F30003D226D61696E223E496E666F733C2F6182
:100F40003E202F203C6120687265663D226E6574EC
:100F5000776F726B2E6367693F636F6E6669672296
:100F6000207461726765743D226D61696E223E4B2B
:100F70006F6E66696775726174696F6E3C2F613E52
:100F80003C2F424F44593E3C2F48544D4C3E0D0A95
:100F90000D0A0073797374656D2E68746D6C003C76
:100FA00048544D4C3E3C484541443E3C6C696E6B58
:100FB0002072656C3D227374796C65736865657425
:100FC0002220747970653D22746578742F63737381
:100FD0002220687265663D227374796C652E637396
:100FE00073223E3C2F484541443E3C424F445920E9
:100FF0006267636F6C6F723D222343304646433015
:10100000223E3C6120687265663D226D61696E6DAD
:10101000656E752E68746D6C223E7A7572756563A7
:101020006B3C2F613E202F203C6120687265663D3D
:101030002272657365742E6367692220746172671A
:1010400065743D226D61696E223E52657365743C24
:101050002F613E202F203C6120687265663D226E24
:1010600074702E63676922207461726765743D2213
:101070006D61696E223E4E54503C2F613E202F2000
:101080003C6120687265663D2264796E646E732EE1
:1010900063676922207461726765743D226D6169BE
:1010A0006E223E44796E444E533C2F613E202F20E9
:1010B0003C6120687265663D2265656D656D2E63D5
:1010C000676922207461726765743D226D61696E83
:1010D000223E45456D656D3C2F613E202F203C61D1
:1010E00020687265663D2263726F6E2E63676922A7
:1010F000207461726765743D226D61696E223E6382
:10110000726F6E3C2F613E3C2F424F44593E3C2F44
:1011100048544D4C3E0D0A0D0A00696E666F2E68EC
:10112000746D6C003C48544D4C3E3C424F44593E1B
:101130003C7072653E3C703E202057656C636F6D5D
:101140006520746F0D0A5F5F5F5F5F5F5F5F5F5F6A
:101150005F5F5F5F5F5F5F5F5F5F5F5F5F5F5F5F9F
:101160005F5F5F5F5F5F5F5F5F5F5F5F5F5F5F5F8F
:101170005F5F5F5F5F5F5F5F5F5F5F5F5F5F5F5F7F
:101180005F5F5F5F5F5F5F5F5F5F5F5F5F5F5F5F6F
:101190000D0A204F4F4F4F4F20204F4F4F4F4F20A2
:1011A000204F2020202020204F4F4F4F4F20204FF6
:1011B0002020204F202020202020204F4F4F4F2044
:1011C00020204F2020204F2020204F4F4F20202034
:1011D0004F2020204F20204F4F4F4F4F0D0A2020EF
:1011E000204F202020204F2020202020204F202072
:1011F000202020204F202020202020204F204F2062
:10120000202020202020204F2020204F20204F2051
:1012100020204F20204F2020204F20204F4F2020E3
:101220004F20204F202020200D0A202E2E2E2E2E43
:101230002E2E2E2E2E2E2E2E2E2E2E2E2E2E2E2ECE
:101240002E2E2E2E2E2E2E2E2E2E2E2E2E2E2E2EBE
:101250002E2E2E2E2E2E2E2E2E2E2E2E2E2E2E2EAE
:101260002E2E2E2E2E2E2E2E2E2E2E2E2E2E2E2E9E
:101270002E2E2E2E0D0A2020204F202020204F4FD2
:101280004F202020204F2020202020204F4F4F2073
:1012900020202020204F202020204F4F4F20204F63
:1012A0004F4F4F2020204F4F4F4F4F20204F202097
:1012B000204F20204F204F204F20204F4F4F2020E5
:1012C0000D0A2020204F202020204F2020202020E9
:1012D000204F2020202020204F20202020202020B0
:1012E0004F204F20202020202020204F2020202071
:1012F00020204F2020204F20204F2020204F202032
:101300004F20204F4F20204F202020200D0A20204A
:10131000204F202020204F4F4F4F4F20204F4F4F26
:101320004F4F20204F4F4F4F4F20204F2020204F16
:10133000202020202020204F2020202020204F204F
:1013400020204F2020204F4F4F2020204F202020B2
:101350004F20204F4F4F4F4F0D0A5F5F5F5F5F5F22
:101360005F5F5F5F5F5F5F5F5F5F5F5F5F5F5F5F8D
:101370005F5F5F5F5F5F5F5F5F5F5F5F5F5F5F5F7D
:101380005F5F5F5F5F5F5F5F5F5F5F5F5F5F5F5F6D
:101390005F5F5F5F5F5F5F5F5F5F5F5F5F5F5F5F5D
:1013A0005F5F5F5F0D0A0D0A6275696C64206F6E86
:1013B000204156522D6C6962632076657273696FA5
:1013C0006E3A20312E362E372F32303039303730CA
:1013D000322077697468206176722D6763632034E8
:1013E0002E332E332C20446174653A204E6F7620C4
:1013F000203820323031322031303A33343A3537E8
:10140000200D0A0D0A286329323030362D32303152
:1014100032202020536F6674776172653A204672DD
:10142000656420536F6E6E656E7265696E0D0A623B
:1014300061736564206F6E204F70656E4D43502060
:101440006279204469726B2042726F7373776963AB
:101450006B0D0A3C2F7072653E3C2F703E3C2F4254
:101460004F44593E3C2F48544D4C3E0D0A00737476
:10147000796C652E63737300406368617273657481
:10148000202249534F2D383835392D31220D0A206D
:101490002020613A6C696E6B207B20746578742D16
:1014A0006465636F726174696F6E3A6E6F6E653BEF
:1014B00020666F6E742D7765696768743A626F6C29
:1014C000643B20636F6C6F723A23303030304130B0
:1014D0003B207D200D0A202020613A7669736974D3
:1014E0006564207B20746578742D6465636F726118
:1014F00074696F6E3A6E6F6E653B20666F6E742D09
:101500007765696768743A626F6C643B20636F6CDF
:101510006F723A234130303041303B207D200D0A3C
:10152000202020613A686F766572207B2074657890
:10153000742D6465636F726174696F6E3A6E6F6E5D
:10154000653B20666F6E742D7765696768743A62D3
:101550006F6C643B206261636B67726F756E642DA4
:10156000636F6C6F723A234646434343433B207D8F
:10157000200D0A202020613A616374697665207B22
:1015800020746578742D6465636F726174696F6E21
:101590003A6E6F6E653B20666F6E742D7765696776
:1015A00068743A626F6C643B206261636B67726F50
:1015B000756E642D636F6C6F723A234646464643E0
:1015C000433B207D200D0A202020613A666F637521
:1015D00073207B20746578742D6465636F72617409
:1015E000696F6E3A6E6F6E653B20666F6E742D7715
:1015F00065696768743A626F6C643B206261636B13
:1016000067726F756E642D636F6C6F723A2343431C
:10161000434346463B207D200D0A20202070726502
:10162000207B206F766572666C6F773A20736372E9
:101630006F6C6C3B207D0D0A007478702D6D656EAB
:10164000752E68746D6C003C48544D4C3E3C4845CA
:1016500041443E3C6C696E6B2072656C3D22737434
:10166000796C6573686565742220747970653D22B4
:10167000746578742F6373732220687265663D22E7
:101680007374796C652E637373223E3C2F48454119
:10169000443E3C424F4459206267636F6C6F723D19
:1016A0002223433046464330223E3C612068726527
:1016B000663D226D61696E6D656E752E68746D6C28
:1016C000223E7A75722675756D6C3B636B3C2F619B
:1016D0003E202F203C6120687265663D2274787040
:1016E0002D6D73672E68746D6C222074617267654E
:1016F000743D226D61696E223E4E6163687269635A
:1017000068742073656E64656E3C2F613E202F20E7
:101710003C6120687265663D227478702D746C6E31
:101720007665727A2E6367692220746172676574C8
:101730003D226D61696E223E5465696C6E65686D0F
:1017400065722D5665727A656963686E69733C2FA0
:10175000613E202F203C6120687265663D227478CE
:10176000706366672D6D656E752E68746D6C223EB4
:101770005478502D45696E7374656C6C756E676531
:101780006E3C2F613E202F203C6120687265663DD3
:10179000227478702D64656275672E6367692220F4
:1017A0007461726765743D226D61696E223E4465A5
:1017B0006275672D496E666F733C2F613E202F2046
:1017C0003C6120687265663D227478702D7477697B
:1017D000746C6E6C697374652E6367692220746122
:1017E000726765743D226D61696E223E4275732D8C
:1017F000546C6E2D4C697374653C2F613E202F2014
:101800003C6120687265663D2273646469722E6370
:10181000676922207461726765743D226D61696E2B
:10182000223E53442D4B617274653C2F613E3C2F28
:10183000424F44593E3C2F48544D4C3E0D0A0D0A30
:10184000007478706366672D6D656E752E68746DB3
:101850006C003C48544D4C3E3C484541443E3C6C39
:10186000696E6B2072656C3D227374796C65736868
:101870006565742220747970653D22746578742FD3
:101880006373732220687265663D227374796C6598
:101890002E637373223E3C2F484541443E3C424FE9
:1018A0004459206267636F6C6F723D222343304658
:1018B000464330223E3C6120687265663D22747862
:1018C000702D6D656E752E68746D6C223E7A757222
:1018D0002675756D6C3B636B3C2F613E202F203C61
:1018E0006120687265663D227478706366672D6951
:1018F0006E7465726E2E636769222074617267650B
:10190000743D226D61696E223E45696E7374656C2B
:101910006C756E67656E20696D206C6F6B616C65B0
:101920006E205478502D53797374656D3C2F613E51
:10193000202F203C6120687265663D2274787063B8
:1019400066672D65787465726E2E636769222074F0
:1019500061726765743D226D61696E223E45696EF4
:101960007374656C6C756E67656E20696D20697047
:101970002D74656C65782D4E65747A3C2F613E2020
:101980002F203C6120687265663D22747870636622
:10199000672D656D61696C2E6367692220746172C1
:1019A0006765743D226D61696E223E654D61696CAB
:1019B0002D45696E7374656C6C756E67656E3C2F32
:1019C000613E202F203C6120687265663D2274785C
:1019D000706366672D7370657272656E2E636769DA
:1019E00022207461726765743D226D61696E223ECA
:1019F0005370657272656E3C2F613E3C2F424F44BE
:101A0000593E3C2F48544D4C3E0D0A0D0A00747847
:101A1000702D6D73672E68746D6C003C48544D4C8E
:101A20003E3C484541443E3C2F484541443E3C668F
:101A300072616D6573657420726F77733D222A2C15
:101A4000363022207363726F6C6C696E673D226E54
:101A50006F22206672616D65626F726465723D22ED
:101A6000322220626F726465723D223222206672D9
:101A7000616D6573706163696E673D223222206219
:101A80006F72646572636F6C6F723D222330303009
:101A9000303030223E3C6672616D65207372633D6A
:101AA000227478702D6D73672D6F75742E6367695E
:101AB00022206E616D653D224D73674F7574222043
:101AC0007363726F6C6C696E673D226175746F220F
:101AD0003E3C6672616D65207372633D227478705E
:101AE0002D6D73672D696E2E63676922206E616D9F
:101AF000653D224D7367496E22207363726F6C6C73
:101B0000696E673D226E6F223E3C6E6F6672616D3C
:101B100065733E3C626F64793E3C703E496872205A
:101B200042726F7773657220756E7465727374C3D9
:101B3000BC747A74206B65696E65204672616D6550
:101B400073213C2F703E3C2F626F64793E3C2F6EB8
:101B50006F6672616D65733E3C2F6672616D657371
:101B600065743E3C2F48544D4C3E0D0A0D0A00282A
:101B700020256C64204279746520756562657274F5
:101B8000726167656E20285344290D0A0048545439
:101B90005020736F636B657420636C6F7365642092
:101BA000627920636C69656E740D0A004854545064
:101BB0002F312E312032303020446F63756D656EC9
:101BC0007420666F6C6C6F77730D0A436F6E74656B
:101BD0006E742D4C656E6774683A20256C640D0A2E
:101BE000436F6E74656E742D547970653A20257359
:101BF00025730D0A43616368652D436F6E74726FC0
:101C00006C3A206D61782D6167653D333630300D5B
:101C10000A436F6E6E656374696F6E3A20636C6F12
:101C200073650D0A0D0A00746578742F0068746D71
:101C30000068746D6C002820256C642042797465FE
:101C400020756562657274726167656E2028464C06
:101C5000415348290D0A000D0A436F6E74656E7476
:101C60002D4C656E6774683A2025640D0A436163E4
:101C700068652D436F6E74726F6C3A206D61782DBC
:101C80006167653D333630300D0A436F6E6E6563B4
:101C900074696F6E3A20636C6F73650D0A0D0A00EC
:101CA00062696E00746578742F68746D6C006A7078
:101CB000656700706E6700485454502F312E3120F4
:101CC00032303020446F63756D656E7420666F6CC2
:101CD0006C6F77730D0A436F6E74656E742D547953
:101CE00070653A20000D0A002066726F6D20006852
:101CF0007474702D726571756573743A2000687420
:101D000074702D7365727665723A20257320003EDB
:101D1000200051756974696E670D0A0071756974E8
:101D200000556E642C206C6F732067656874277390
:101D30002E2E2E21212120282268656C70222068F9
:101D4000696C6674203A2D29290D0A3E20007465BD
:101D50006C6E65740054656C6E65742D5365727697
:101D6000657220506F72742025642E0D0A00435254
:101D70004F4E5F454E5452595F2530326400256402
:101D80003A206E696368742062656C6567740D0A39
:101D90000025643A2025642025642025730D0A005F
:101DA00063726F6E00666F6F2E6367690025732024
:101DB0002F202573202F2025640D0A0049502F4D18
:101DC00041432F54544C0D0A00617270003C2F4265
:101DD0004F44593E3C2F48544D4C3E0D0A0D0A00CD
:101DE0003C48544D4C3E3C484541443E3C6D657436
:101DF0006120687474702D65717569763D22726515
:101E000066726573682220636F6E74656E743D221E
:101E10003630303B20223E3C5449544C453E5374AE
:101E20007265616D696E673C2F5449544C453E3C68
:101E30002F484541443E3C424F4459206267636FFE
:101E40006C6F723D22233232384232322220746566
:101E500078743D2223464646464646223E5A6569E8
:101E6000743A20253032643A253032643A253032D3
:101E7000642E2530326420282025752F25752F25C6
:101E800030347520290050485354415432207C206E
:101E90003078253034580D0A00504853544154319D
:101EA000207C203078253034580D0A005265762E7B
:101EB000494420207C2020203078253032580D0ADB
:101EC000002D2D2D2D2D2D2D2D2B2D2D2D2D2D2D71
:101ED0002D2D0D0A005265672E202020207C2057D2
:101EE0006572740D0A00454E4332384A36303A0D59
:101EF0000A005443502D5458204572726F72733A41
:101F0000202564205443502D5258204572726F7220
:101F1000733A2025642028756E736F72746564208F
:101F200025642C206F6C64736571202564290D0A6B
:101F30000D0A0045746865726E65743A20256C64FC
:101F400020427974657320696E20256C642050618D
:101F5000636B6574656E204C6F636B4572726F7254
:101F60007320256C640D0A0073746174732E6367AB
:101F700069007374617473005265736574007265EF
:101F800073657400726573657400726573657400BF
:101F90003C666F726D20616374696F6E3D2272657D
:101FA0007365742E63676922206D6574686F643D84
:101FB0002267657422206163636570742D636861B4
:101FC000727365743D2249534F2D383835392D31A0
:101FD000223E3C703E3C696E707574207479706569
:101FE0003D227375626D697422206E616D653D22BC
:101FF0007265736574222076616C75653D22726529
:10200000736574223E3C2F703E3C2F666F726D3EAE
:102010000072657365742E63676900726573657419
:1020200000646E73203C686F73746E616D653E0D65
:102030000A004950207A75202573203D2025730D14
:102040000A00646E730044484350004950004D41FB
:10205000534B004741544500444E53004D4143000B
:1020600045696E7374656C6C756E67656E20756519
:102070006265726E6F6D6D656E210D0A003C747243
:102080003E3C746420616C69676E3D2272696768CA
:1020900074223E48617264776172652D4D41433C04
:1020A0002F74643E3C74643E3C696E707574206E9F
:1020B000616D653D224D41432220747970653D225A
:1020C00074657874222073697A653D223137222045
:1020D00076616C75653D22257322206D61786C6593
:1020E0006E6774683D223137223E3C2F74643E3C5B
:1020F0002F74723E3C74723E3C74643E3C2F746498
:102100003E3C74643E3C696E7075742074797065F1
:102110003D227375626D6974222076616C75653D30
:10212000222045696E7374656C6C756E6720265548
:10213000756D6C3B6265726E65686D656E20223EE2
:102140003C2F74643E3C2F74723E3C2F7461626C71
:10215000653E3C2F666F726D3E004D4143003C74FE
:10216000723E3C746420616C69676E3D22726967DF
:102170006874223E444E532D5365727665723C2F2F
:1021800074643E3C74643E3C696E707574206E618C
:102190006D653D22444E532220747970653D227452
:1021A000657874222073697A653D22313522207664
:1021B000616C75653D22257322206D61786C656EBA
:1021C0006774683D223135223E3C2F74643E3C2FBB
:1021D00074723E00444E53003C74723E3C74642062
:1021E000616C69676E3D227269676874223E47615F
:1021F00074657761793C2F74643E3C74643E3C693D
:102200006E707574206E616D653D224741544522A4
:1022100020747970653D2274657874222073697A20
:10222000653D223135222076616C75653D2225732E
:1022300022206D61786C656E6774683D22313522AD
:102240003E3C2F74643E3C2F74723E00474154451F
:10225000003C74723E3C746420616C69676E3D2280
:102260007269676874223E4E65747A7765726B6D29
:1022700061736B653C2F74643E3C74643E3C696ED4
:10228000707574206E616D653D224D41534B222067
:10229000747970653D2274657874222073697A655B
:1022A0003D223135222076616C75653D22257322F1
:1022B000206D61786C656E6774683D223135223E11
:1022C0003C2F74643E3C2F74723E004D41534B00D2
:1022D0003C74723E3C746420616C69676E3D22728E
:1022E00069676874223E49502D4164726573736555
:1022F0003C2F74643E3C74643E3C696E707574207F
:102300006E616D653D2249502220747970653D22D1
:1023100074657874222073697A653D2231352220F4
:1023200076616C75653D22257322206D61786C6540
:102330006E6774683D223135223E3C2F74643E3C0A
:102340002F74723E004950003E3C2F74643E3C2F77
:1023500074723E00636865636B6564006F6E003C79
:1023600074723E3C746420616C69676E3D227269D0
:10237000676874223E4448435020616B74697669F3
:102380006572656E3C2F74643E3C74643E3C696EBD
:1023900070757420747970653D22636865636B6243
:1023A0006F7822206E616D653D22444843502220A3
:1023B00076616C75653D226F6E2220004448435063
:1023C000003C666F726D20616374696F6E3D226EB2
:1023D0006574776F726B2E636769223E3C7461622D
:1023E0006C6520626F726465723D223022206365E5
:1023F0006C6C70616464696E673D22352220636590
:102400006C6C73706163696E673D2230223E0063BD
:102410006F6E666967003C2F7072653E0D0A00732F
:1024200074617473006966636F6E666967003C70FF
:1024300072653E0D0A000D0A48572D4164723A201C
:10244000253032783A253032783A253032783A25BC
:102450003032783A253032783A253032780D0A0D0C
:102460000A00444E533A25730D0A0047617465779C
:1024700061793A25730D0A004E65746D61736B3A8C
:1024800025730D0A0049503A25730D0A006E6574D4
:10249000776F726B2E636769006966636F6E66693A
:1024A00067004E5450004E5450534552564552000A
:1024B0005554435A4F4E450045696E7374656C6CB4
:1024C000756E67656E2075656265726E6F6D6D65A0
:1024D0006E210D0A003C74723E3C746420616C698C
:1024E000676E3D227269676874223E534E54502DC8
:1024F0005365727665723C2F74643E3C74643E3C56
:10250000696E707574206E616D653D224E54505336
:1025100045525645522220747970653D2274657883
:1025200074222073697A653D223235222076616CEF
:1025300075653D22257322206D61786C656E677428
:10254000683D223235223E3C2F74643E3C2F74722B
:102550003E3C74723E3C746420616C69676E3D223F
:102560007269676874223E5A6569747A6F6E653C59
:102570002F74643E3C74643E3C696E707574206ECA
:10258000616D653D225554435A4F4E452220747962
:1025900070653D2274657874222073697A653D22E6
:1025A00033222076616C75653D22257322206D6192
:1025B000786C656E6774683D2233223E3C2F7464EC
:1025C0003E3C2F74723E3C74723E3C74643E3C2F21
:1025D00074643E3C74643E3C696E7075742074791A
:1025E00070653D227375626D6974222076616C7529
:1025F000653D222045696E7374656C6C756E67204D
:102600002655756D6C3B6265726E65686D656E20F2
:10261000223E3C2F74643E3C2F74723E3C2F74610A
:10262000626C653E3C2F666F726D3E0030007469CF
:102630006D652E66752D6265726C696E2E6465001F
:102640003E3C2F74643E3C2F74723E0063686563A9
:102650006B6564006F6E003C666F726D2061637421
:10266000696F6E3D226E74702E636769223E0D3C69
:102670007461626C6520626F726465723D22302203
:102680002063656C6C70616464696E673D223522FD
:102690002063656C6C73706163696E673D223022E4
:1026A0003E3C74723E3C746420616C69676E3D22EE
:1026B0007269676874223E534E545020616B74698E
:1026C00076696572656E3C2F74643E3C74643E3C72
:1026D000696E70757420747970653D2263686563F6
:1026E0006B626F7822206E616D653D224E545022E0
:1026F0002076616C75653D226F6E2220006E7470CD
:10270000203C6E74707365727665723E0D0A0046E9
:1027100065686C65720D0A004E657565205A6569BD
:10272000743A20253032643A253032643A2530320A
:10273000640D0A00486F6C65205A65697420766FD5
:102740006E2025730D0A004665686C65720D0A00DF
:102750006E74702E636769006E7470002644594E63
:10276000444E535F5553455250570044594E444EC2
:10277000535F444F4D41494E0045696E7374656C1B
:102780006C756E67656E2075656265726E6F6D6DD6
:10279000656E210D0A002D31202D313520226479FE
:1027A0006E646E7320757064617465220044594EC6
:1027B000444E535F4F4E002D31202D313520226481
:1027C000796E646E7320757064617465220044597B
:1027D0004E444E530044594E444E535F4F4E0044B6
:1027E000594E444E5300444F4D41494E0044594EBA
:1027F000444E535F444F4D41494E00444F4D414973
:102800004E004143434F554E54002644594E444ECA
:10281000535F555345525057004143434F554E5413
:10282000004143434F554E54003C666F726D20612A
:102830006374696F6E3D2264796E646E732E636794
:1028400069223E0D203C7461626C6520626F726487
:1028500065723D2230222063656C6C70616464692E
:102860006E673D2235222063656C6C73706163690D
:102870006E673D2230223E20203C74723E0D2020A7
:10288000203C746420616C69676E3D2272696768E0
:1028900074223E44796E444E5320616B74697669AC
:1028A0006572656E3C2F74643E2020203C74643E4B
:1028B0003C696E70757420747970653D226368653B
:1028C000636B626F7822206E616D653D2244594EC4
:1028D000444E53222076616C75653D226F6E222036
:1028E0002573203E20203C2F74643E0D20203C7434
:1028F000723E0D2020203C746420616C69676E3D3F
:10290000227269676874223E64796E444E53204196
:1029100063636F756E74202820757365723A7077E3
:1029200020293C2F74643E2020203C74643E3C6986
:102930006E707574206E616D653D224143434F5545
:102940004E542220747970653D227465787422207B
:1029500073697A653D223331222076616C75653D5D
:102960002222206D61786C656E6774683D22333178
:10297000223E3C2F74643E20203C2F74723E0D207A
:10298000203C74723E0D2020203C746420616C69F0
:10299000676E3D227269676874223E44796E444EC8
:1029A0005320446F6D61696E3C2F74643E2020207B
:1029B0003C74643E3C696E707574206E616D653D5B
:1029C00022444F4D41494E2220747970653D227456
:1029D000657874222073697A653D2233312220762E
:1029E000616C75653D22257322206D61786C656E82
:1029F0006774683D223331223E3C2F74643E2020B0
:102A00003C2F74723E0D20203C74723E0D2020201D
:102A10003C74643E3C2F74643E3C74643E3C696E7E
:102A200070757420747970653D227375626D697478
:102A3000222076616C75653D222045696E73746550
:102A40006C6C756E67202655756D6C3B6265726E99
:102A500065686D656E20223E3C2F74643E20203CEC
:102A60002F74723E0D203C2F7461626C653E0D3CEC
:102A70002F666F726D3E00636865636B6564006FFF
:102A80006E0044594E444E535F4F4E0044594E44DD
:102A90004E535F444F4D41494E0044594E444E53AE
:102AA0005F444F4D41494E0064796E646E73203C23
:102AB0007570646174653E202F203C73657461639A
:102AC000636F756E7420757365723A7077406479C0
:102AD0006E646E732D646F6D61696E3E0D0A004108
:102AE00063636F756E74646174656E20676573707F
:102AF000656963686572742E0D0A0073657461639D
:102B0000636F756E740055706461746520667565D9
:102B100072202573206665686C67657363686C61F5
:102B200067656E0D0A005570646174652066756591
:102B300072202573206572666F6C677265696368C1
:102B40002E0D0A007570646174650064796E646EA0
:102B5000732E6367690064796E646E730064656CDC
:102B60000064656C0045696E7374656C6C756E67A6
:102B7000656E2075656265726E6F6D6D656E210D97
:102B80000A00434D44002564202564202225732239
:102B9000004D4D00484800434D44003C666F726D47
:102BA00020616374696F6E3D2263726F6E2E63677E
:102BB00069223E3C7461626C6520626F726465726A
:102BC0003D2230222063656C6C70616464696E67BD
:102BD0003D2235222063656C6C73706163696E679A
:102BE0003D2230223E3C74723E3C746420616C692C
:102BF000676E3D227269676874223E5374756E6415
:102C0000653C2F74643E3C74643E3C696E70757420
:102C1000206E616D653D2248482220747970653DC3
:102C20002274657874222073697A653D22332220EC
:102C300076616C75653D2230226D61786C656E67DA
:102C400074683D2233223E3C2F74643E3C2F7472E4
:102C50003E3C74723E3C746420616C69676E3D2238
:102C60007269676874223E4D696E7574653C2F7495
:102C7000643E3C74643E3C696E707574206E616D98
:102C8000653D224D4D2220747970653D2274657832
:102C900074222073697A653D2233222076616C7537
:102CA000653D223022206D61786C656E6774683DE9
:102CB0002233223E3C2F74643E3C2F74723E3C749F
:102CC000723E3C746420616C69676E3D2272696774
:102CD0006874223E436F6D6D616E643C2F74643E78
:102CE0003C74643E3C696E707574206E616D653D28
:102CF00022434D442220747970653D2274657874B6
:102D0000222073697A653D22333022206D61786C10
:102D1000656E6774683D223330223E3C2F74643EFA
:102D20003C2F74723E3C74723E3C74643E3C2F7483
:102D3000643E3C74643E3C696E70757420747970B6
:102D4000653D227375626D6974222076616C7565CC
:102D50003D222045696E74726167207369636865FE
:102D6000726E20223E3C2F74643E3C2F74723E3CB7
:102D70002F7461626C653E3C2F666F726D3E0D0074
:102D80006164646E6577003C74723E3C74642061DB
:102D90006C69676E3D226C656674223E3C612068FA
:102DA0007265663D2263726F6E2E6367693F616470
:102DB000646E657722207374796C653D2274657842
:102DC000742D6465636F726174696F6E3A6E6F6EB5
:102DD0006522207469746C653D22416464223E3C26
:102DE000696E70757420747970653D2262757474B3
:102DF0006F6E222076616C75653D22616464206E81
:102E000065772063726F6E2220636C6173733D225D
:102E1000616374696F6E42746E223E3C2F613E3C6A
:102E20002F74643E3C2F74723E3C2F7461626C655B
:102E30003E0D003C74723E3C746420616C69676EA8
:102E40003D226C656674223E25733C2F74643E3CC3
:102E5000746420616C69676E3D226C656674223E05
:102E60003C6120687265663D2263726F6E2E6367F7
:102E7000693F64656C3D256422207374796C653DFF
:102E800022746578742D6465636F726174696F6E06
:102E90003A6E6F6E6522207469746C653D224465DC
:102EA0006C223E3C696E70757420747970653D22A9
:102EB000627574746F6E222076616C75653D226454
:102EC000656C2220636C6173733D22616374696F6A
:102ED0006E42746E223E3C2F613E3C2F74643E3C39
:102EE0002F74723E003C7461626C6520626F726484
:102EF00065723D2230222063656C6C706164646988
:102F00006E673D2235222063656C6C737061636966
:102F10006E673D2230223E0063726F6E2E636769DA
:102F2000003C2F7072653E003C7072653E00656526
:102F30006D656D203C70726F746563743E7C3C758A
:102F40006E70726F746563743E203C616464205BD4
:102F50006E616D652076616C5D3E203C64656C2021
:102F60005B6E616D655D3E203C7072696E743E20E3
:102F70003C636C65616E3E0D0A00636C65616E00BA
:102F80007072696E740064656C0061646400756ED3
:102F900070726F7465637465740D0A0057524954FA
:102FA000455F50524F54454354004F464600756E9E
:102FB00070726F746563740057524954455F505284
:102FC0004F54454354004F4E0070726F74656374E4
:102FD0000065656D656D2E6367690065656D656D7E
:102FE00000E4F6FCC4D6DCDF5B5D3C3E7B7D405FED
:102FF000232200616F75414F5573283A282E282DE2
:1030000028202B2700656565656565733A292E299B
:103010002D2929202B270043464750415353005068
:10302000524F544C4556454C0050524F544C455607
:10303000454C544C4E5352560048415550545354ED
:10304000454C4C4500454947454E454E554D4D452F
:10305000520046455354454850535400414C544542
:10306000524E424549424553004455524348574108
:10307000484C544142004E45545A5255464E520017
:1030800050494E0044594E4950414B544956004E08
:1030900045545A504F5254005255464E5253455281
:1030A0005631005255464E525345525632005255F3
:1030B000464E525345525633005478500054656C76
:1030C000657850686F6E6520506F72742025752E7C
:1030D0000D0A0073646469722E6367690074787006
:1030E0002D64656275672E63676900747870636626
:1030F000672D7370657272656E2E636769007478F0
:10310000706366672D65787465726E2E63676900FB
:103110007478706366672D696E7465726E2E63676E
:1031200069007478702D747769746C6E6C6973744F
:10313000652E636769007478702D6D73672D6F75E8
:10314000742E636769007478702D6D73672D696ED6
:103150002E636769004572726F72207265616469DF
:103160006E67206469726563746F727921003C61D7
:103170002068726566203D2225732F2573223E2527
:10318000733C2F613E20256C643C62723E003C61C2
:103190002068726566203D222573223E25733C2FF0
:1031A000613E20256C643C62723E003C6120687286
:1031B0006566203D2273646469722E6367693F64AB
:1031C00069723D25732F2573223E25733C2F613E86
:1031D000204449523C62723E003C61206872656640
:1031E000203D2273646469722E6367693F6469726B
:1031F0003D2573223E25733C2F613E204449523CBD
:1032000062723E003C623E436F6E74656E74206F66
:10321000662025733A3C2F623E3C703E0064697222
:10322000003C623E436F6E74656E74206F66202FA3
:103230003A3C2F623E3C703E00646972002B2B2B9F
:10324000666572746967004E756D6D6572202573D1
:103250002053746174757320253032583C62723E7D
:10326000005374617475732064657220616E6765C4
:103270007363686C6F7373656E656E205457492D68
:103280004D6F64756C653A3C703E005465696C6EB8
:1032900065686D65722D536572766572004E657452
:1032A0007A2D506F72740044796E4950416B747579
:1032B000616C6973696572756E67004765686569F9
:1032C0006D7A61686C004E65747A2D5275666E7504
:1032D0006D6D6572006E6575652045696E73746508
:1032E0006C6C756E67656E3A203C6120687265662D
:1032F0003D227478706366672D65787465726E2EF2
:10330000636769223E7765697465723C2F613E0090
:1033100045696E7374656C6C756E67202655756DA6
:103320006C3B6265726E65686D656E0041647265C6
:1033300073736520646573205465696C6E65686D90
:1033400065722D5365727665723A00506F72742DF6
:103350004E756D6D657220696D204E65747A3A0008
:1033600049502D416B7475616C6973696572756E36
:103370006720616B7469763A0047656865696D7AA4
:1033800061686C3A00656967656E65205275666EA6
:10339000756D6D657220696D2069702D74656C6541
:1033A000782D4E65747A3A007478706366672D657F
:1033B000787465726E2E636769004B6F6E6669671D
:1033C00075726174696F6E7373656974656E20736D
:1033D000696E64206E756E206765737065727274B5
:1033E0002E205A7572204672656967616265207782
:1033F0006965646572206461732050617373776FCF
:1034000072742065696E676562656E206F646572AF
:10341000205461737465206465722042617567721F
:1034200075707065203220782064722675756D6C19
:103430003B636B656E2E007A756E2661756D6C3B15
:10344000636873742050617373776F727420696E50
:10345000203C6120687265663D22747870636667FF
:103460002D696E7465726E2E6367692220746172B5
:103470006765743D226D61696E223E45696E7374A5
:10348000656C6C756E67656E20696D206C6F6B6125
:103490006C656E205478502D53797374656D3C2F94
:1034A000613E2065696E676562656E210050726FCE
:1034B000746F6B6F6C6C2D4C6576656C2052756605
:1034C0006E722D5365727665720050726F746F6BF9
:1034D0006F6C6C2D4C6576656C003C62723E447579
:1034E0007263687761686C656E20756E76657226AA
:1034F00061756D6C3B6E646572743A202573003C97
:1035000062723E44757263687761686C656E3A20DA
:103510002573003C62723E416C7465726E61746921
:10352000762D537563686520626569204265736511
:10353000747A743A202573003C62723E416C746563
:10354000726E617469765375636865426569426538
:103550007365747A7420756E7665722661756D6C0C
:103560003B6E646572743A202575003C62723E467B
:10357000657374652048617570747374656C6C65EF
:103580003A202573003C62723E466573746548615B
:103590007570747374656C6C6520756E76657226D3
:1035A00061756D6C3B6E646572743A202575003CE4
:1035B00062723E48617570747374656C6C653A2014
:1035C0002573003C62723E48617570747374656C5B
:1035D0006C6520756E7665722661756D6C3B6E64E8
:1035E0006572743A202573003C62723E4E65747AAF
:1035F0002D566F727761686C206B6F6E6E746520EC
:103600006E696368742067652661756D6C3B6E64D6
:103610006572742077657264656E003C62723E4E1E
:1036200065747A2D566F727761686C3A2025730045
:103630003C62723E4E65747A2D566F727761686C8B
:1036400020756E7665722661756D6C3B6E64657271
:10365000743A202573006E6575652045696E737434
:10366000656C6C756E67656E3A203C6120687265AA
:10367000663D227478706366672D696E7465726E3C
:103680002E636769223E7765697465723C2F613EDF
:103690000045696E7374656C6C756E672026557590
:1036A0006D6C3B6265726E65686D656E005061732E
:1036B00073776F727420662675756D6C3B72204B44
:1036C0006F66696775726174696F6E73736569742B
:1036D000656E3A0050726F746F6B6F6C6C2D4C6539
:1036E00076656C20662675756D6C3B722054656935
:1036F0006C6E2D5365727665723A0050726F746FFE
:103700006B6F6C6C2D4C6576656C3A00447572631A
:10371000687761686C656E3A3C62723E286D6974C8
:10372000204B6F6D6D61207472656E6E656E290041
:10373000416C7465726E617469762D53756368654A
:10374000206265692062657365747A743A00696EF7
:103750007465726520447563687761686C20646580
:10376000722048617570747374656C6C6520662690
:1037700075756D6C3B72206B6F6D6D656E64652049
:1037800056657262696E64756E67656E3A0066654D
:103790007374652048617570747374656C6C652012
:1037A000662675756D6C3B72206B6F6D6D656E6412
:1037B000652056657262696E64756E67656E3A0063
:1037C0004E65747A2D566F727761686C2066267527
:1037D000756D6C3B7220676568656E646520566523
:1037E0007262696E64756E67656E3A0074787063B4
:1037F00066672D696E7465726E2E636769003C663C
:103800006F726D20616374696F6E3D227478702DE4
:103810006D73672D696E2E636769223E45696E6719
:103820006162653A203C696E707574206E616D65E9
:103830003D2245696E676162652220747970653D3D
:103840002274657874222073697A653D22363522A8
:103850002076616C75653D2222206D61786C656E05
:103860006774683D223635223E3C696E707574205F
:10387000747970653D227375626D6974222076617A
:103880006C75653D2220416273656E64656E202211
:103890003E3C6120687265663D227478702D6D73C0
:1038A000672D6F75742E6367692220746172676576
:1038B000743D224D73674F7574223E416B74756180
:1038C0006C6973696572656E3C2F613E3C2F666F53
:1038D000726D3E000D0A005478503A2044697265BA
:1038E0006B74647275636B2045696E676162653ADB
:1038F00020000D0A0045696E6761626500547850CA
:103900003A20446972656B74647275636B2041621E
:1039100072756620447275636B7370696567656C58
:10392000202862656C656774290D0A00496E74650C
:103930007266616365206973742062656C65677483
:103940002C2062697474652077617274656E2E0034
:103950005478503A20446972656B74647275636B75
:1039600020416272756620447275636B737069657D
:1039700067656C2028617573290D0A005465787499
:1039800065696E6761626520737461727465742025
:103990004665726E7363687265696265720020289D
:1039A0002575290D0A005478503A20446972656BD8
:1039B00074647275636B204162727566204472751F
:1039C000636B7370696567656C3A00447275636B0D
:1039D0007370696567656C3A3C62723E3C707265F3
:1039E0003E2573266C743B266C743B266C743B2519
:1039F000733C2F7072653E003C48544D4C3E3C4831
:103A00004541443E3C6D65746120687474702D6559
:103A1000717569763D2265787069726573222063DD
:103A20006F6E74656E743D2231223E3C6D6574612B
:103A300020687474702D65717569763D22707261AD
:103A4000676D612220636F6E74656E743D226E6FC8
:103A50002D6361636865223E3C6D65746120687406
:103A600074702D65717569763D2272656672657335
:103A7000682220636F6E74656E743D2231303B2086
:103A800055524C3D7478702D6D73672D6F75742E83
:103A9000636769223E3C2F484541443E3C424F44C7
:103AA000593E005D3C62723E45746865726E657495
:103AB0003A20256C6420427974657320696E202554
:103AC0006C64205061636B6574656E204C6F636B32
:103AD0004572726F727320256C640D0A005D3C6242
:103AE000723E4173636969447275636B50756666B3
:103AF00065723A205B003C62723E48746D6C53659F
:103B00006E6465546578743A205B003C62723E5482
:103B1000696D65723043616C6C6261636B5F4D61AE
:103B200078203D202575003C62723E54696D6572B7
:103B300030436E745F4D6178203D202575003C62F6
:103B4000723E54696D657230436E745F4D696E20CC
:103B50003D202575003C62723E54696D65723043AC
:103B6000616C6C6261636B436F756E74203D2025E0
:103B700075003C62723E54787054687265616443AB
:103B80006F756E74203D202575003C62723E54773F
:103B900069497372436F756E74203D202575003C32
:103BA00062723E46616C7363686572436F64652040
:103BB0003D202575003C62723E44796E4950416B50
:103BC0007475616C6973696572756E67456E647A48
:103BD000656974203D202575003C62723E54696D14
:103BE000657256616C282644796E4950416B747534
:103BF000616C6973696572756E6754696D65722968
:103C0000203D202575003C62723E54696D657256F8
:103C1000616C2826547870546872656164436865E5
:103C2000636B54696D657229203D202575003C62E7
:103C3000723E54696D657256616C282654787053D3
:103C40006F636B65744C6562656E737A65696368F2
:103C5000656E54696D657229203D202575003C62B2
:103C6000723E5477694C6562656E737A6569636804
:103C7000656E5A6165686C6572203D202575003C53
:103C800062723E54696D657256616C282642757386
:103C9000517569747454696D657229203D202575CC
:103CA000003C62723E54696D657256616C28265301
:103CB000636872656962506175736554696D657298
:103CC00029203D202575003C62723E54696D657265
:103CD00056616C28265761686C506175736554692C
:103CE0006D657229203D202575003C62723E536F40
:103CF000636B6574416E7A61686C5A656963686567
:103D00006E456D7066616E67656E203D202575009D
:103D10003C62723E536F636B6574416E7A61686C8E
:103D20005A65696368656E51756974746965727402
:103D3000203D202575003C62723E536F636B6574B5
:103D4000416E7A61686C5A65696368656E47657330
:103D5000656E646574203D202575003C62723E509E
:103D6000726F746F6B6F6C6C5068617365203D206F
:103D70002575003C62723E547870536F636B6574B6
:103D800050726F746F6B6F6C6C203D202575003C1A
:103D900062723E536F636B65744F757442756655FE
:103DA000736564203D202575003C62723E536F634D
:103DB0006B6574496E42756655736564203D2025B8
:103DC00075003C62723E54696D657256616C2826BE
:103DD000547870536F636B65744162627275636887
:103DE00054696D657229203D202575003C62723E44
:103DF000547870536F636B65744162626175476597
:103E0000706C616E74203D202575003C62723E54DA
:103E10007870536F636B65744950203D20255800BE
:103E20003C62723E547870536F636B657448616E88
:103E3000646C65203D202575003C62723E547870AC
:103E4000536F636B65744D6F6465203D202575006D
:103E50002025303258003C62723E507566666572AD
:103E6000416E7A61686C282653656E64655075668C
:103E700066657229203D202575003C62723E5365BF
:103E800072556D53656E64446174656E203D2025E6
:103E900075003C62723E536572556D53656E6442A7
:103EA00069744E72203D202575003C62723E536558
:103EB00072556D5469636B5A6165686C65725365C0
:103EC0006E64203D202575003C62723E53656E6431
:103ED000654D61726B203D202575002025303258DC
:103EE000003C62723E507566666572416E7A61682A
:103EF0006C2826456D706650756666657229203D92
:103F0000202575003C62723E536572556D456D709B
:103F1000664665686C6572203D202575003C6272BE
:103F20003E536572556D456D7066446174656E20D3
:103F30003D202575003C62723E536572556D456D9E
:103F400070664D61726B5A6165686C203D20257505
:103F5000003C62723E536572556D456D70664269F4
:103F6000744E72203D202575003C62723E5365728E
:103F7000556D5469636B5A6165686C6572456D7007
:103F800066203D202575003C62723E427573456D8A
:103F900070664D61726B203D202575003C62723E5B
:103FA0005761686C7A69666665726E203D2025757A
:103FB000003C62723E5761686C6E756D6D65722073
:103FC0003D202575003C62723E5374617475732008
:103FD0003D202575003C62723E4D6F647573203D37
:103FE0002025750050726F746F6B6F6C6C70756606
:103FF0006665723A2025733C62723E0050726F749F
:104000006F6B6F6C6C64617465693A2025733C62F8
:10401000723E0044656275674D73673A2025733CB4
:1040200062723E006B656E6E77004B656E6E776FE9
:1040300072742066616C73636821004672656967FB
:104040006562656E005365697465206765737065A8
:1040500072727421204B656E6E776F7274203A0015
:104060007478706366672D696E7465726E2E63670F
:1040700069005478503A20536F636B6574207A75E9
:104080006D205465696C6E65686D65722D5365723F
:1040900076657220777572646520766F6E2047654D
:1040A00067656E7374656C6C652067657363686CB7
:1040B0006F7373656E0D0A005478503A20756E6503
:1040C000727761727465746520416E74776F727473
:1040D00020646573205465696C6E65686D65722D2A
:1040E000536572766572730D0A000D0A005478509C
:1040F0003A204665686C65726D656C64756E672004
:10410000646573205465696C6E65686D65722D53C6
:104110006572766572733A20000D0A005478503A41
:104120002044796E616D69736368652049502D4143
:104130006B7475616C6973696572756E673A206E30
:1041400065756520495020005478503A2044796EB6
:10415000616D69736368652049502D416B747561A9
:104160006C6973696572756E673A20626573746510
:1041700068656E64652049502067696C74207765B6
:10418000697465720D0A005478503A204461746570
:104190006E7361747A20766F6D205465696C6E65FC
:1041A000686D65722D536572766572206D69742035
:1041B0004E7220256C64206B6F6E6E7465206E6984
:1041C00063687420676573706569636865727420DD
:1041D00077657264656E0D0A005478503A20696DF7
:1041E000206C6F6B616C656E2054656C65666F6EDC
:1041F0006275636820616C73202750726976617400
:10420000272067656B656E6E7A656963686E657495
:104210000D0A005478503A205465696C6E65686DDB
:1042200065722D536572766572206D656C64657478
:1042300020616E64657265204E756D6D65722061DA
:104240006C7320616E676566726167740D0A000D9C
:104250000A005478503A205465696C6E65686D6543
:10426000722D536572766572206D656C646574207D
:10427000495020676566756E64656E3A2000547813
:10428000503A205465696C6E65686D65722D536592
:1042900072766572206D656C64657420276E696343
:1042A000687420676566756E64656E270D0A000D7B
:1042B0000A00256429005478503A205465696C6ED0
:1042C00065686D65722D53657276657220456D70F7
:1042D00066616E673A202825642F005478503A2092
:1042E0004772756E647374656C6C756E6720657269
:1042F0007265696368742028536F636B6574206707
:10430000657363686C6F7373656E2C205457492016
:1043100067657363686C6F7373656E290D0A00546B
:1043200078503A20526573746520676564727563CE
:104330006B74202D2D3E20417573736368616C741E
:10434000756E6720696E7465726E0D0A0054785040
:104350003A20446972656B74647275636B2D527593
:104360006865202D2D3E20417573736368616C7400
:10437000756E6720696E7465726E0D0A0052657302
:10438000657276696572756E672066C3BC7220457A
:10439000696E736368616C74756E67206B6F6E6EA7
:1043A0007465206E696368742076657273616E64EB
:1043B0002077657264656E005478503A20446972C3
:1043C000656B74647275636B202D3E2045696E7356
:1043D0006368616C74756E6720696E7465726E20B7
:1043E000564552534147540D0A005478503A2044E0
:1043F0006972656B74647275636B202D3E2045692C
:104400006E736368616C74756E6720696E74657233
:104410006E0D0A005478503A205461737465206719
:1044200065647275636B74202D2D3E205265737424
:10443000652D447275636B206162676562726F639C
:1044400068656E0D0A000D0A00696E7465726E650E
:104450002049503A20006572720D0A005478503A93
:104460002054696D656F7574206265696D205761B0
:104470007274656E20617566206469652045696E99
:10448000736368616C747175697474756E670D0A15
:10449000005478503A2054696D656F7574206265D8
:1044A000696D2057617274656E206175662064695C
:1044B00065205363686C7573737175697474756E78
:1044C000670D0A006F63630D0A00526573657276AB
:1044D000696572756E6720667565722045696E73D1
:1044E0006368616C74756E67206B6F6E6E746520A7
:1044F0006E696368742076657273616E6420776597
:104500007264656E005478503A20416E7761686C31
:1045100020696E7465726E20616E20257520564587
:1045200052534147540D0A005478503A20416E7757
:1045300061686C20696E7465726E20616E202575ED
:10454000206572666F6C67740D0A005478503A20CB
:10455000416E6765727566656E657220686174206C
:104560006765616E74776F72746574202D3E2045A7
:10457000696E736368616C74756E6720696E7465CB
:10458000726E0D0A005478503A20545749204175F4
:1045900073736368616C74756E6720696E7465729D
:1045A0006E0D0A005478503A205363686C7573732B
:1045B0007175697474756E67206F686E65204175DA
:1045C00066666F72646572756E670D0A0054785086
:1045D0003A2054574920417573736368616C747550
:1045E0006E67207175697474696572740D0A005480
:1045F00078503A205465696C6E65686D6572202547
:104600006C7520696D20656967656E656E205465FF
:104610006C65666F6E6275636820676566756E644B
:10462000656E2E0D0A005478503A20545749205791
:1046300061686C7A696666657220257520696E749A
:1046400065726E202F20676568656E640D0A0054E0
:1046500078503A20545749205761686C61756666F6
:104660006F72646572756E6720696E7465726E2014
:104670002F206B6F6D6D656E640D0A005478503A93
:10468000205457492045696E736368616C74717575
:10469000697474756E67206E616368204469726521
:1046A0006B74647275636B0D0A005478503A205431
:1046B00057492045696E736368616C7471756974DC
:1046C00074756E6720696E7465726E202F206B6F33
:1046D0006D6D656E640D0A005478503A2054574948
:1046E0002045696E736368616C746B6F6D6D616E8C
:1046F000646F20696E7465726E202F20676568652F
:104700006E640D0A005478503A205457492052657F
:1047100073657276696572756E6720696E7465720D
:104720006E202F20676568656E6420766F6E202589
:10473000750D0A005478503A205A4549545545425F
:10474000455253434852454954554E472062656986
:10475000205769656465726175666E61686D652074
:104760006465722056657262696E64756E670D0AC3
:10477000005478503A204D65687266616368652020
:104780004645484C4552206265696D2053656E640C
:10479000656E20696E73204E65747A2C20536F63AA
:1047A0006B6574207769726420766F7275656265D7
:1047B00072676568656E642067657363686C6F73A4
:1047C00073656E0D0A002F253032580D0A002053F4
:1047D000756D416E7A202575002C2052657374200A
:1047E000257500202D2D3E20526573202564005430
:1047F00078503A20536F636B65742053656E64750F
:104800006E673A2028257529005478503A20576958
:10481000656465722D4F6566666E756E67206465AA
:104820007320536F636B6574206572666F6C67727B
:10483000656963682E0D0A005478503A20576965FF
:104840006465722D4F6566666E756E67206465736C
:1048500020536F636B657420564552534147542E65
:104860000D0A00202D2D3E2042756655736564208B
:1048700025750D0A00256429005478503A20536F9D
:10488000636B657420456D7066616E673A202825FC
:10489000642F006C696D6974696572742061756656
:1048A0002025640D0A005478503A20536F636B65DD
:1048B0007420456D7066616E672064726F68656E06
:1048C0006465722055656265726C6175663A204553
:1048D0006D7066616E6720766F6E202564200054CF
:1048E00078503A20536F636B657420776972642047
:1048F000616B7469762067657363686C6F73736549
:104900006E0D0A005478503A20536F636B65742023
:10491000777572646520766F6E20476567656E7384
:1049200074656C6C6520657277617274657420675C
:10493000657363686C6F7373656E0D0A005478500D
:104940003A20536F636B65742077757264652076C7
:104950006F6E20476567656E7374656C6C65204784
:10496000455452454E4E540D0A005478503A205347
:104970006F636B657420777572646520766F6E2047
:10498000476567656E7374656C6C652065727761E9
:10499000727465742067657363686C6F7373656E9A
:1049A0000D0A005478503A20536F636B657420777A
:1049B0007572646520766F6E20476567656E7374E7
:1049C000656C6C6520554E455257415254455420F4
:1049D00067657363686C6F7373656E0D0A00202ED4
:1049E0002E2E4142474557494553454E0D0A000476
:1049F000056F63630D0A002C2056657262696E6450
:104A0000756E672062657374656874002C20616E32
:104A100064657265206B6F6D6D656E6465205665AB
:104A20007262696E64756E6720626573746568741E
:104A300000202E2E2E576965646572766572626954
:104A40006E64756E67206F6B0D0A002C20616E64BA
:104A500065727765697469672062656C6567740063
:104A6000202E2E2E6E6575206F6B0D0A00202F20D4
:104A70004D414320005478503A2053657276657258
:104A80002D536F636B65742067656F6566666E6531
:104A90007420766F6E20495020002534640D0A0082
:104AA000253464005478503A2053656E64412025C3
:104AB0003464002534640D0A0025346400547850B1
:104AC0003A20456D70664120253136640054785097
:104AD0003A2053656E64652050726F746F6B6F6C13
:104AE0006C76657273696F6E2D566F727363686C46
:104AF00061672025750D0A005478503A2050726F76
:104B0000746F6B6F6C6C76657273696F6E2D566F18
:104B1000727363686C616720257520656D706661CE
:104B20006E67656E0D0A005478503A2041626261EA
:104B30007562656665686C20766F6E20476567658F
:104B40006E7374656C6C650D0A005478503A20538E
:104B5000656E64656E42657363686C65756E6967E2
:104B6000656E2045494E0D0A005478503A20536531
:104B70006E64656E42657363686C65756E696765C2
:104B80006E204155530D0A002534640D0A0025346A
:104B900064005478503A20456D70664220253136C5
:104BA00064002534640D0A00253464005478503ABA
:104BB0002053656E644220253464005478503A20B6
:104BC0004162667261676520626569205465696C3F
:104BD0006E65686D65722D5365727665726E0D0A2D
:104BE000000D0A005478503A202020202020206711
:104BF0006577616E64656C7420696E3A20002028C8
:104C00002B2575290D0A005478503A2041736369A9
:104C1000692D566572617262656974756E673A20B6
:104C2000003F6E6963687420647275636B626172C1
:104C300065205A65696368656E3A20005478503A79
:104C400020436C69656E742D536F636B65742054DB
:104C50007870206572666F6C67726569636820673B
:104C6000656F6566666E6574202D3E2073656E64A3
:104C7000652044757263687761686C2025750D0A3C
:104C8000005478503A20436C69656E742D536F63FD
:104C90006B6574204173636969206572666F6C6728
:104CA00072656963682067656F6566666E65742006
:104CB0002D3E2045696E736368616C742D51756972
:104CC0007474756E6720616E205457490D0A005444
:104CD00078503A20536F636B6574206B6F6E6E74FF
:104CE00065206E6963687420657273746D616C69A8
:104CF000672067656F6566666E65742077657264A8
:104D0000656E0D0A005478503A205465696C6E65E2
:104D1000686D6572206973742047454C4F45534355
:104D200048540D0A005478503A20436C69656E74FB
:104D30002D536F636B657420534D5450206572661C
:104D40006F6C6772656963682067656F6566666E1C
:104D50006574202D3E2045696E736368616C742D07
:104D60005175697474756E6720616E205457490DD2
:104D70000A00206E6963687420676566756E6465F5
:104D80006E0D0A005478503A204950207A7520550B
:104D9000726C200020506F72742025750D0A00205F
:104DA0003D20005478503A2056657262696E6475F1
:104DB0006E6773617566626175207A752055726CD5
:104DC000200020506F72742025750D0A0054785011
:104DD0003A2056657262696E64756E6773617566B6
:104DE000626175207A752049502000204950206E5C
:104DF000696368742062656B616E6E740D0A00549D
:104E000078503A205465696C6E65686D65722D53F3
:104E100065727665722000204745534348454954E2
:104E20004552540D0A005478503A20566572626912
:104E30006E64756E67737665727375636820616EF4
:104E4000205465696C6E65686D65722D5365727668
:104E5000657220002068657267657374656C6C7498
:104E60000D0A005478503A2056657262696E647576
:104E70006E6720616E205465696C6E65686D657241
:104E80002D53657276657220005478503A2057652C
:104E9000636873656C206E616368204D6F64757321
:104EA00020507566666572447275636B556E645307
:104EB00063686C7573732028766F6E202564290DE6
:104EC0000A005478503A205765636873656C206E09
:104ED000616368204D6F6475732052756865202882
:104EE000766F6E202564290D0A007478702D746C1D
:104EF0006E7665727A2E636769005478503A204561
:104F00006570726F6D204C6164656665686C657272
:104F1000202564202F2025303258003C62723E5AF2
:104F200075722675756D6C3B636B207A756D203CD0
:104F30006120687265663D227478702D746C6E769F
:104F400065727A2E636769223E5465696C6E656886
:104F50006D65722D5665727A656963686E69733C1A
:104F60002F613E004665686C65723A20756E677504
:104F7000656C7469676572204347492D4175667297
:104F800075663A202573006B6F6D706C65747420C4
:104F900067656C266F756D6C3B7363687400457252
:104FA000666F6C6772656963682067656C616465CC
:104FB0006E2028256420427974657329003C623E86
:104FC0004665686C6572206265696D204C61646538
:104FD0006E2028436F646573202564202F202530C0
:104FE0003258293C2F623E004572666F6C677265CD
:104FF00069636820676573706569636865727420AA
:1050000028256420427974657329003C623E466518
:10501000686C6572206265696D20537065696368AC
:1050200065726E2028436F646573202564202F20ED
:1050300025303258293C2F623E003C623E5465695F
:105040006C6E65686D65726C6973746520766F6CE3
:105050006C2C2045696E74726167206E6963687498
:105060002067657370656963686572743C2F623E82
:105070003C62723E003C623E416C7465204E756D30
:105080006D657220256C64206B6F6E6E7465206E8A
:10509000696368742067656C266F756D6C3B73631C
:1050A00068742077657264656E213C2F623E3C62B5
:1050B000723E0045696E7472616720676573706542
:1050C0006963686572743C62723E003C623E527570
:1050D000666E756D6D6572206973742062657265A8
:1050E00069747320766572676562656E2C2026414F
:1050F000756D6C3B6E646572756E67206E69636872
:10510000742067657370656963686572743C2F62AB
:105110003E3C62723E003C623E6B65696E652026D5
:1051200041756D6C3B6E646572756E673C2F623EB7
:105130003C62723E003C623E556E62656B616E6E13
:1051400074657220547970213C2F623E3C62723E3D
:1051500000654D61696C3A20416472657373652026
:1051600025733C62723E00506F72742025753C625C
:10517000723E0041736369693A20495020257320CB
:105180000041736369693A2055726C2025732000D1
:10519000506F72742025752044757263687761685A
:1051A0006C2025753C62723E0054656C65785068D1
:1051B0006F6E653A204950202573200054656C6558
:1051C0007850686F6E653A2055726C202573200008
:1051D00067656C266F756D6C3B736368743C6272B7
:1051E0003E0067657370657272743C62723E006E59
:1051F0007572204C6F6B616C3C62723E004E616D4B
:10520000653A2025733C62723E003C62723E006546
:1052100068656D2E20256C640068696E7A75662657
:1052200075756D6C3B67656E005465696C6E65687D
:105230006D657265696E747261673A3C62723E5266
:1052400075666E756D6D65723A20256C6420003C44
:10525000623E5275666E756D6D65722030206E69A6
:105260006368742065726C61756274213C2F623EC4
:105270003C62723E002641756D6C3B6E6465726ED9
:105280000048696E7A75662675756D6C3B67656E4C
:105290000044757263687761686C3A00506F72748D
:1052A0003A00416472657373653A005479703A004C
:1052B00067657370657272743A006E7572204C6F18
:1052C0006B616C3A004E616D653A003C696E7075B9
:1052D00074206E616D653D22616C746E756D6D65D7
:1052E000722220747970653D2268696464656E225B
:1052F0002076616C75653D22256C64223E005275F6
:10530000666E756D6D65723A007478702D746C6E92
:105310007665727A2E636769003C2F7461626C65F2
:105320003E4E6F6368206B65696E652045696E74DB
:10533000722661756D6C3B676520766F7268616E71
:1053400064656E3C703E3C6120687265663D227407
:1053500078702D746C6E7665727A2E6367693F651E
:105360006469743D30223E48696E7A7566267575AB
:105370006D6C3B67656E3C2F613E3C2F666F726DB6
:105380003E003C74723E3C74643E26233136303B12
:105390003C2F74643E3C74643E26233136303B3CE3
:1053A0002F74643E3C74643E26233136303B3C2FE0
:1053B00074643E3C74643E26233136303B3C2F748B
:1053C000643E3C74643E26233136303B3C2F74648B
:1053D0003E3C74643E26233136303B3C2F74643EA1
:1053E0003C74643E26233136303B3C2F74643E3C93
:1053F00074643E26233136303B3C2F74643E3C744B
:10540000643E3C6120687265663D227478702D743C
:105410006C6E7665727A2E6367693F656469743D68
:1054200030223E48696E7A75662675756D6C3B67ED
:10543000656E3C2F613E3C2F74643E3C2F7461626C
:105440006C653E3C6120687265663D227478702D03
:10545000746C6E7665727A2E6367693F73617665E8
:10546000223E6E69636874666C2675756D6C3B636D
:10547000687469672073706569636865726E3C2F34
:10548000613E3C62723E3C6120687265663D2274FA
:1054900078702D746C6E7665727A2E6367693F6CD6
:1054A0006F6164223E616C6C65202641756D6C3BBA
:1054B0006E646572756E67656E207665727765726B
:1054C00066656E3C2F613E3C62723E3C61206872B4
:1054D00065663D227478702D746C6E7665727A2ED6
:1054E0006367693F636C656172223E6B6F6D706CC0
:1054F000657474206C266F756D6C3B736368656EA4
:105500003C2F613E3C62723E3C2F666F726D3E00E6
:105510003C74643E3C6120687265663D227478701C
:105520002D746C6E7665727A2E6367693F65646967
:10553000743D256C64223E2641756D6C3B6E64653E
:10554000726E3C2F613E3C2F74643E3C2F74723E61
:10555000003C746420616C69676E3D2263656E7403
:105560006572223E253032752E253032752E25305B
:10557000347520253032643A253032643A25303291
:10558000643C2F74643E003C746420616C69676EF7
:105590003D226C656674223E67656C266F756D6C86
:1055A0003B736368743C2F74643E3C74643E2623F2
:1055B0003136303B3C2F74643E3C74643E262331CC
:1055C00036303B3C2F74643E3C74643E26233136B7
:1055D000303B3C2F74643E003C746420616C69670E
:1055E0006E3D226C656674223E654D61696C3C2F90
:1055F00074643E3C746420616C69676E3D226C6526
:105600006674223E25733C2F74643E3C74642061B2
:105610006C69676E3D2263656E746572223E262357
:105620003136303B3C2F74643E3C74643E2623315B
:1056300036303B3C2F74643E003C746420616C69DE
:10564000676E3D226C656674223E41736369693CF6
:105650002F74643E3C746420616C69676E3D226CFB
:10566000656674223E25733C2F74643E3C7464204E
:10567000616C69676E3D2263656E746572223E25BA
:10568000753C2F74643E3C74643E26233136303BB7
:105690003C2F74643E003C746420616C69676E3D0D
:1056A000226C656674223E54656C657850686F6E36
:1056B000653C2F74643E3C746420616C69676E3D88
:1056C000226C656674223E25733C2F74643E3C74E4
:1056D0006420616C69676E3D2263656E7465722239
:1056E0003E25753C2F74643E3C746420616C696790
:1056F0006E3D2263656E746572223E25753C2F7483
:10570000643E003C2F74643E0044796E4950200092
:10571000676573706572727420004C6F6B616C20EA
:10572000003C746420616C69676E3D226C65667430
:10573000223E25733C2F74643E3C74643E26233124
:1057400036303B003C74723E3C746420616C696787
:105750006E3D227269676874223E256C643C2F742A
:10576000643E003C666F726D20616374696F6E3DCC
:10577000227478702D746C6E7665727A2E63676908
:10578000223E3C68333E5465696C6E65686D657297
:105790007665727A656963686E69733C2F68333E1B
:1057A0003C7461626C6520626F726465723D223187
:1057B000222063656C6C70616464696E673D22329F
:1057C000222063656C6C73706163696E673D223083
:1057D000223E3C74723E3C746820616C69676E3D89
:1057E000227269676874223E5275666E756D6D65CA
:1057F000723C2F74683E3C746820616C69676E3D32
:10580000226C656674223E4E616D653C2F74683E65
:105810003C746820616C69676E3D2263656E7465D7
:1058200072223E4265736F6E642E3C2F74683E3C5C
:10583000746820616C69676E3D226C656674223EF7
:105840005479703C2F74683E3C746820616C6967C1
:105850006E3D226C656674223E41647265737365A9
:105860003C2F74683E3C746820616C69676E3D2211
:1058700063656E746572223E506F72743C2F74685B
:105880003E3C746820616C69676E3D2263656E748E
:105890006572223E44757263687761686C3C2F7450
:1058A000683E3C746820616C69676E3D2263656E7A
:1058B000746572223E6C65747A74653C62723E4116
:1058C0006B7475616C6973696572756E673C2F7472
:1058D000683E3C746820616C69676E3D226C656649
:1058E00074223E416B74696F6E3C2F74683E3C2F8E
:1058F00074723E006C6F616400636C65617200736A
:10590000617665006C6F636B006C6F63616C006542
:105910004D61696C0054656C657850686F6E650008
:1059200041736369690067656C6F657363687400D0
:10593000747970650064757263687761686C007073
:105940006F72740061647265737365006E616D657A
:1059500000616C746E756D6D6572006E756D6D6550
:10596000720065646974002067652661756D6C3B23
:105970006E6465727420696E3A2025750020756E1C
:105980007665722661756D6C3B6E646572743A2043
:105990002575003C62723E002067652661756D6C5E
:1059A0003B6E6465727420696E3A20256C75002028
:1059B000756E7665722661756D6C3B6E646572748A
:1059C0003A20256C75003C62723E002067652661B6
:1059D000756D6C3B6E6465727420696E3A20257338
:1059E0000020756E7665722661756D6C3B6E646520
:1059F00072743A202573003C62723E00223E3C2FB6
:105A000074643E3C2F74723E3C2F7461626C653E40
:105A10003C2F666F726D3E003C74723E3C74643E77
:105A20003C2F74643E3C74643E3C696E7075742017
:105A3000747970653D227375626D69742220766198
:105A40006C75653D22003C2F73656C6563743E3C4C
:105A50002F74643E003C2F6F7074696F6E3E003C83
:105A60006F7074696F6E3E003C6F7074696F6E206A
:105A700073656C65637465643E00222073697A65A2
:105A80003D2231223E003C2F74643E3C74643E3C17
:105A900073656C656374206E616D653D22003C74B6
:105AA000723E3C746420616C69676E3D2272696766
:105AB0006874223E003E3C2F74643E3C2F74723E5C
:105AC0000020636865636B656400222074797065EB
:105AD0003D22636865636B626F78222076616C7526
