:100000000C941F390C941B3A0C94463A0C94713A98
:100010000C949C3A0C94C73A0C94F23A0C941D3B05
:100020000C94483B0C9491390C9491390C9491396F
:100030000C9491390C9491390C9491390C94913918
:100040000C9491390C94FC3E0C9491390C94913998
:100050000C9491390C94B4460C9491390C949139C8
:100060000C9491390C9449400C9408400C94ED3F49
:100070000C9491390C9491390C9491390C949139D8
:100080000C9491390C9491390C9491390C949139C8
:100090000C944D410C94C1400C9484400C94E2E8C3
:1000A0000C9491390C9491390C9491390C949139A8
:1000B0000C9491390C9491390C9491390C94913998
:1000C0000C9491390C9491390C9491390C0D0E0FBC
:1000D000253032783A253032783A253032783A2550
:1000E0003032783A253032783A253032780025643B
:1000F0002E25642E25642E25640044484350206D2F
:10010000736720747970652035332076616C75656E
:100110002025750D0A0044484350206D73672074F4
:100120007970652035332076616C75652025750DF5
:100130000A004950004D41534B00444E5300474183
:10014000544500444843502D436F6E6669672067ED
:1001500065686F6C740D0A00444843502D436F6E00
:10016000666967204665686C67657363686C61677C
:10017000656E0D0A00207C2D3E20566572737563F6
:10018000686520444843502D436F6E666967207A46
:100190007520686F6C656E2E2000206665686C6740
:1001A000657363686C6167656E0D0A00206665683B
:1001B0006C67657363686C6167656E0D0A00205A31
:1001C0006569743A20253032643A253032643A2524
:1001D0003032642E253032640D0A004E545053459F
:1001E00052564552005554435A4F4E4500207C2DDF
:1001F0003E204E54502D536572766572205A6569C3
:100200007420616B7475616C6973696572656E3AAF
:10021000006F6E004E545000207C202020444E532E
:10022000202020203A2025730D0A00207C20202049
:10023000476174657761793A2025730D0A00207C47
:100240002020204E65746D61736B3A2025730D0A72
:1002500000207C202020495020202020203A2025EA
:10026000730D0A006F6E00444843500044484350E9
:1002700000207C2D3E20544350202848757272691E
:1002800063616E2D656E67696E652920696E69749C
:1002900069616C6973696572740D0A00207C2D3E7A
:1002A000205544502028546F726E61646F2D656E26
:1002B00067696E652920696E697469616C69736923
:1002C0006572740D0A002D2B2D3E2041525020697D
:1002D0006E697469616C6973696572740D0A0020D6
:1002E0004C696E6B2072656164790D0A0020467559
:1002F0006C6C6475706C65783A00454E4332386AB0
:10030000363020285265762E3A2025642920696EE1
:10031000697469616C697369657274202820485733
:100320002D4164643A20253032783A253032783ACB
:10033000253032783A253032783A253032783A25ED
:100340003032782029004D4143004D4143004D4358
:1003500050636F6E666967000D0A000A002563002E
:10036000436F6E6669672069737420256420627923
:100370007465732067726F73732C20256420627913
:1003800074652077657264656E2062656E75747A37
:10039000742E204F66667365742025640D0A0D0A5D
:1003A000004F46460057524954455F50524F5445FE
:1003B00043540020496E697469616C6973696572A0
:1003C000740D0A00204572726F720D0A0054485273
:1003D000454144005348454C4C0046696C6573796F
:1003E0007374656D004D4D432F5344004558544977
:1003F0004E5400436F6E666967004C45445F636FFF
:10040000726500434C4F434B005354444F555400C6
:10041000554152540054656C657850686F6E654E56
:1004200065742E2E2E0D0A003EFFFFFF3F34353639
:100430003738393A3B3C3DFFFFFFFFFFFFFF00012C
:1004400002030405060708090A0B0C0D0E0F101114
:100450001213141516171819FFFFFFFFFFFF1A1BC1
:100460001C1D1E1F202122232425262728292A2B54
:100470002C2D2E2F303132334142434445464748DC
:10048000494A4B4C4D4E4F50515253545556575864
:10049000595A6162636465666768696A6B6C6D6E00
:1004A0006F707172737475767778797A3031323310
:1004B0003435363738392B2F002F6E69632F75701E
:1004C000646174653F686F73746E616D653D25731B
:1004D000006D656D626572732E64796E646E732E45
:1004E0006F726700636865636B69702E64796E6410
:1004F0006E732E6F72670047455420002048545495
:10050000502F312E300D0A557365722D4167656E7F
:10051000743A20576765742F312E31312E340D0A0D
:100520004163636570743A202A2F2A0D0A486F735D
:10053000743A20000D0A417574686F72697A6174AB
:10054000696F6E3A2042617369632025730D0A0D4D
:100550000A000D0A0D0A002F00436F6E74656E7459
:100560002D4C656E6774683A2000485454502F3102
:100570002E000D0A00436F6D6D616E64733A0D0AB3
:100580000D0A0068656C7000485454502F312E30AD
:10059000203430330D0A436F6E74656E742D5479B8
:1005A00070653A20746578742F68746D6C0D0A4B11
:1005B0006565702D416C6976653A20636C6F736573
:1005C0000D0A0D0A3C48544D4C3E3C424F44593EA6
:1005D0003430332046696C65206E6F7420666F7509
:1005E0006E64213C2F424F44593E3C2F48544D4CA1
:1005F0003E0D0A0D0A00504F535400474554006801
:100600007474706400485454502D5365727665724A
:1006100020506F72742025642E0D0A00696E646587
:10062000782E68746D6C003C2F424F44593E3C2F2D
:1006300048544D4C3E0D0A0D0A003C48544D4C3E6A
:100640003C484541443E3C6D65746120687474705B
:100650002D65717569763D226578706972657322C2
:1006600020636F6E74656E743D2230223E3C212DF6
:100670002D20456E61626C652049453920537461B7
:100680006E6461726473206D6F6465202D2D3E3C35
:100690006D65746120687474702D65717569763D3F
:1006A00022582D55412D436F6D70617469626C65E0
:1006B0002220636F6E74656E743D2249453D392278
:1006C000203E3C2F484541443E3C424F44593E0069
:1006D000485454502F312E312032303020446F6333
:1006E000756D656E7420666F6C6C6F77730D0A4361
:1006F0006F6E74656E742D547970653A20746578E8
:10070000742F68746D6C0D0A43616368652D436FC7
:100710006E74726F6C3A206E6F2D63616368650D45
:100720000A436F6E6E656374696F6E3A20636C6F17
:1007300073650D0A0D0A00696E6465782E68746D24
:100740006C003C48544D4C3E3C484541443E3C5472
:1007500049544C453E547850322D4E6574202D201E
:1007600044617320496E7465726E65742D496E74B0
:10077000657266616365207A756D2054656C657875
:1007800050686F6E6520323C2F5449544C453E3CB6
:100790002F484541443E3C6672616D657365742027
:1007A000726F77733D2236342C34302C2A2C34303F
:1007B00022207363726F6C6C696E673D226E6F22CC
:1007C000206672616D65626F726465723D223222CD
:1007D00020626F726465723D223222206672616D02
:1007E0006573706163696E673D22322220626F72A9
:1007F000646572636F6C6F723D222330303030302D
:1008000030223E3C6672616D65207372633D2268E2
:100810006561646C696E652E68746D6C22206E6112
:100820006D653D224E617669676174696F6E312234
:10083000207363726F6C6C696E673D226175746FB3
:10084000223E3C6672616D65207372633D226D616C
:10085000696E6D656E752E68746D6C22206E616DAB
:10086000653D224E617669676174696F6E32222040
:100870007363726F6C6C696E673D226175746F2271
:100880003E3C6672616D65207372633D22696E66DF
:100890006F2E68746D6C22206E616D653D226D61F6
:1008A000696E223E3C6672616D65207372633D2203
:1008B00073746174732E63676922206E616D653D88
:1008C0002275706461746522207363726F6C6C6949
:1008D0006E673D226175746F223E3C6E6F66726179
:1008E0006D65733E3C626F64793E3C703E49687250
:1008F0002042726F7773657220756E7465727374BF
:100900002675756D6C3B747A74206B65696E652015
:100910004672616D6573213C2F703E3C2F626F649F
:10092000793E3C2F6E6F6672616D65733E3C2F663B
:1009300072616D657365743E3C2F48544D4C3E0D9D
:100940000A0D0A00686561646C696E652E68746DD5
:100950006C003C48544D4C3E3C424F445920746519
:1009600078743D2223303030304330222073747944
:100970006C653D226261636B67726F756E642D6991
:100980006D6167653A75726C286C6F636873747219
:10099000656966656E2D68672E706E6729223E3C1C
:1009A0007370616E207374796C653D22666F6E742E
:1009B0003A20626F6C6420343070782027436F7562
:1009C00072696572204E6577272C274C75636964C0
:1009D0006120436F6E736F6C65272C6D6F6E6F7344
:1009E000706163653B20223E3C623E547850322D5C
:1009F0004E6574202D2044617320496E7465726EBB
:100A000065742D496E74657266616365207A756DD3
:100A10002054656C657850686F6E653C2F623E3C73
:100A20002F7370616E3E3C2F424F44593E3C2F481D
:100A3000544D4C3E0D0A0D0A006C6F63687374725E
:100A4000656966656E2D68672E706E670089504E09
:100A5000470D0A1A0A0000000D49484452000002DE
:100A6000250000003F0403000000CD91A50C00000C
:100A70000030504C5445FFFF66C0C0C0FF0000006E
:100A80000000000000000000000000000000000066
:100A90000000000000000000000000000000000056
:100AA000000000000000C3145A1300000009704841
:100AB000597300000B1300000B1301009A9C1800DF
:100AC00000027F4944415478DAED5B5B72C3200C2D
:100AD000B47302ABF73F6CE33CA8C9EAB124D30975
:100AE00069573F558C84F10E428BA0CB22799093AD
:100AF000201026C2E4594CD6EDFCD7968372914E55
:100B0000B934A1B036AD2978C5E23E093A5C466DEC
:100B100082612498AC66DB62663FCAB58FA37269B6
:100B200072DE43DAB4A6E015D8E1ED57FDC18CCDF5
:100B3000EDCD07E3DC6B3A4CB6E36718F1A9C64D7F
:100B40009373CFCDB8F03AEDD6B61B6D4DB9BBFD62
:100B500028E67642DBB426FF15D86133263ED5C899
:100B600069F2300C613288896247987C202653E410
:100B70001D09CFD990DB18C98890CE55EE051B4CC6
:100B8000781DE385542DA7A061ECB4A91E4CEC3868
:100B90004030AC2AF760AA770A36D15E18327EEC74
:100BA000DCBD26C5A42DB690AF9D2785172EADC1FF
:100BB0001A7BF78AF809E6F1351E0CF29380E70CF0
:100BC0004C138EC3305E484B0ABA254C3C4C143B48
:100BD000183BC2E443307973DE9188C70A9327310A
:100BE000D9A368DD034CCA55F1D6D8F72A9705700A
:100BF0007DA7224C3C4C1432183B4EADE09F2BCAD3
:100C00003BCAC5AFD7D9FA529511352BCBBDB00928
:100C1000CB74D861500034D72629A6255E479B7433
:100C2000BFD36F7CB0DA5CEC89D00B9B9CED526734
:100C3000DC27856E0BD3EF6EBA0C126C6A12AFA371
:100C4000CD7C98F49BD67606815BDD6E17DC9E2406
:100C50009BDFC4ABB3496B4A5D5926384A4BEA4E19
:100C6000E8854DC5215D52EC42F7EAB02FF1EA6C00
:100C7000848987896207634798CC8FC90C7947F2CA
:100C80000A67634E4219D265041B2C0E37939359A1
:100C9000FA8437247803B1C354A41363BF58EDC456
:100CA000971F29556D9971C73AB6DBF37C98042BD1
:100CB0006A7106D1DB24F758708D051B9E9F30A703
:100CC0007E0CC1A8384C721C397C3D2C61500999AE
:100CD00011261E268A1D8C1D61323F2633E41D0914
:100CE000C5D982625AC2EB98FF535808363824C3DC
:100CF00017DB98F104B1136C6A92F862EE8B0690E0
:100D00000CDCD4F142A6681ABA96F0073019BE88F6
:100D1000527965FCC42F1C251C86B9931F8FDE9E5B
:100D20009E268397B898F10813C50E1F3BC24479DD
:100D300087C93B1261224C848930F93D4C4CF2202A
:100D40005FDF827D01B9877BC8E300000000494571
:100D50004E44AE4260826D61696E6D656E752E683F
:100D6000746D6C003C48544D4C3E3C484541443EFB
:100D70003C6C696E6B2072656C3D227374796C6596
:100D800073686565742220747970653D2274657896
:100D9000742F6373732220687265663D22737479C1
:100DA0006C652E637373223E3C2F484541443E3CA4
:100DB000424F4459206267636F6C6F723D22234338
:100DC0003046464330223E3C6120687265663D22D3
:100DD000696E666F2E68746D6C22746172676574DB
:100DE0003D226D61696E223E496E666F726D61745F
:100DF000696F6E656E3C2F613E202F203C6120683C
:100E00007265663D227478702D6D656E752E6874FE
:100E10006D6C223E54656C657850686F6E653C2F32
:100E2000613E202F203C6120687265663D226E6520
:100E300074776F726B2E68746D6C223E4E65747A97
:100E40007765726B3C2F613E202F203C61206872D9
:100E500065663D2273797374656D2E68746D6C22BE
:100E60003E53797374656D3C2F613E3C2F424F4475
:100E7000593E3C2F48544D4C3E0D0A0D0A006E65FC
:100E800074776F726B2E68746D6C003C48544D4CD7
:100E90003E3C484541443E3C6C696E6B2072656C3B
:100EA0003D227374796C657368656574222074796A
:100EB00070653D22746578742F63737322206872A5
:100EC00065663D227374796C652E637373223E3CB4
:100ED0002F484541443E3C424F4459206267636F6E
:100EE0006C6F723D2223433046464330223E3C61C4
:100EF00020687265663D226D61696E6D656E752E46
:100F000068746D6C223E7A75727565636B3C2F61F7
:100F10003E202F203C6120687265663D226E65741C
:100F2000776F726B2E6367692220746172676574D4
:100F30003D226D61696E223E496E666F733C2F6182
:100F40003E202F203C6120687265663D226E6574EC
:100F5000776F726B2E6367693F636F6E6669672296
:100F6000207461726765743D226D61696E223E4B2B
:100F70006F6E66696775726174696F6E3C2F613E52
:100F80003C2F424F44593E3C2F48544D4C3E0D0A95
:100F90000D0A0073797374656D2E68746D6C003C76
:100FA00048544D4C3E3C484541443E3C6C696E6B58
:100FB0002072656C3D227374796C65736865657425
:100FC0002220747970653D22746578742F63737381
:100FD0002220687265663D227374796C652E637396
:100FE00073223E3C2F484541443E3C424F445920E9
:100FF0006267636F6C6F723D222343304646433015
:10100000223E3C6120687265663D226D61696E6DAD
:10101000656E752E68746D6C223E7A7572756563A7
:101020006B3C2F613E202F203C6120687265663D3D
:101030002272657365742E6367692220746172671A
:1010400065743D226D61696E223E52657365743C24
:101050002F613E202F203C6120687265663D226E24
:1010600074702E63676922207461726765743D2213
:101070006D61696E223E4E54503C2F613E202F2000
:101080003C6120687265663D2264796E646E732EE1
:1010900063676922207461726765743D226D6169BE
:1010A0006E223E44796E444E533C2F613E202F20E9
:1010B0003C6120687265663D2265656D656D2E63D5
:1010C000676922207461726765743D226D61696E83
:1010D000223E45456D656D3C2F613E202F203C61D1
:1010E00020687265663D2263726F6E2E63676922A7
:1010F000207461726765743D226D61696E223E6382
:10110000726F6E3C2F613E3C2F424F44593E3C2F44
:1011100048544D4C3E0D0A0D0A00696E666F2E68EC
:10112000746D6C003C48544D4C3E3C424F44593E1B
:101130003C7072653E3C703E202057656C636F6D5D
:101140006520746F0D0A5F5F5F5F5F5F5F5F5F5F6A
:101150005F5F5F5F5F5F5F5F5F5F5F5F5F5F5F5F9F
:101160005F5F5F5F5F5F5F5F5F5F5F5F5F5F5F5F8F
:101170005F5F5F5F5F5F5F5F5F5F5F5F5F5F5F5F7F
:101180005F5F5F5F5F5F5F5F5F5F5F5F5F5F5F5F6F
:101190000D0A204F4F4F4F4F20204F4F4F4F4F20A2
:1011A000204F2020202020204F4F4F4F4F20204FF6
:1011B0002020204F202020202020204F4F4F4F2044
:1011C00020204F2020204F2020204F4F4F20202034
:1011D0004F2020204F20204F4F4F4F4F0D0A2020EF
:1011E000204F202020204F2020202020204F202072
:1011F000202020204F202020202020204F204F2062
:10120000202020202020204F2020204F20204F2051
:1012100020204F20204F2020204F20204F4F2020E3
:101220004F20204F202020200D0A202E2E2E2E2E43
:101230002E2E2E2E2E2E2E2E2E2E2E2E2E2E2E2ECE
:101240002E2E2E2E2E2E2E2E2E2E2E2E2E2E2E2EBE
:101250002E2E2E2E2E2E2E2E2E2E2E2E2E2E2E2EAE
:101260002E2E2E2E2E2E2E2E2E2E2E2E2E2E2E2E9E
:101270002E2E2E2E0D0A2020204F202020204F4FD2
:101280004F202020204F2020202020204F4F4F2073
:1012900020202020204F202020204F4F4F20204F63
:1012A0004F4F4F2020204F4F4F4F4F20204F202097
:1012B000204F20204F204F204F20204F4F4F2020E5
:1012C0000D0A2020204F202020204F2020202020E9
:1012D000204F2020202020204F20202020202020B0
:1012E0004F204F20202020202020204F2020202071
:1012F00020204F2020204F20204F2020204F202032
:101300004F20204F4F20204F202020200D0A20204A
:10131000204F202020204F4F4F4F4F20204F4F4F26
:101320004F4F20204F4F4F4F4F20204F2020204F16
:10133000202020202020204F2020202020204F204F
:1013400020204F2020204F4F4F2020204F202020B2
:101350004F20204F4F4F4F4F0D0A5F5F5F5F5F5F22
:101360005F5F5F5F5F5F5F5F5F5F5F5F5F5F5F5F8D
:101370005F5F5F5F5F5F5F5F5F5F5F5F5F5F5F5F7D
:101380005F5F5F5F5F5F5F5F5F5F5F5F5F5F5F5F6D
:101390005F5F5F5F5F5F5F5F5F5F5F5F5F5F5F5F5D
:1013A0005F5F5F5F0D0A56657273696F6E20312E45
:1013B00030204275696C64203330392061742044D8
:1013C0006174653A204A616E203139203230313300
:1013D0002031363A31323A35350D0A4D6F64756C2D
:1013E00065733A205478702D416E7363686C757321
:1013F00073205275666E722D536572766572204544
:101400006D61696C0D0A0D0A6275696C64206F6EFE
:10141000204156522D6C6962632076657273696F44
:101420006E3A20312E362E372F3230303930373069
:10143000322077697468206176722D676363203487
:101440002E332E330D0A0D0A286329323030362D03
:1014500032303132202020536F6674776172653AE2
:10146000204672656420536F6E6E656E7265696E9C
:101470000D0A6261736564206F6E204F70656E4D5A
:101480004350206279204469726B2042726F7373FB
:101490007769636B0D0A3C2F7072653E3C2F703E7E
:1014A0003C2F424F44593E3C2F48544D4C3E0D0A70
:1014B000007374796C652E637373004063686172A6
:1014C000736574202249534F2D383835392D312218
:1014D0000D0A202020613A6C696E6B207B207465B8
:1014E00078742D6465636F726174696F6E3A6E6FA4
:1014F0006E653B20666F6E742D7765696768743A18
:10150000626F6C643B20636F6C6F723A23303030D3
:101510003041303B207D200D0A202020613A766941
:101520007369746564207B20746578742D646563C9
:101530006F726174696F6E3A6E6F6E653B20666F95
:101540006E742D7765696768743A626F6C643B20CE
:10155000636F6C6F723A234130303041303B207DF5
:10156000200D0A202020613A686F766572207B206A
:10157000746578742D6465636F726174696F6E3A17
:101580006E6F6E653B20666F6E742D776569676858
:10159000743A626F6C643B206261636B67726F7553
:1015A0006E642D636F6C6F723A2346464343434328
:1015B0003B207D200D0A202020613A61637469760A
:1015C00065207B20746578742D6465636F72617427
:1015D000696F6E3A6E6F6E653B20666F6E742D7725
:1015E00065696768743A626F6C643B206261636B23
:1015F00067726F756E642D636F6C6F723A23464627
:10160000464643433B207D200D0A202020613A6658
:101610006F637573207B20746578742D6465636FC8
:10162000726174696F6E3A6E6F6E653B20666F6EA5
:10163000742D7765696768743A626F6C643B2062E9
:1016400061636B67726F756E642D636F6C6F723A56
:10165000234343434346463B207D200D0A20202060
:10166000707265207B206F766572666C6F773A20AA
:101670007363726F6C6C3B207D0D0A007478702D63
:101680006D656E752E68746D6C003C48544D4C3E13
:101690003C484541443E3C6C696E6B2072656C3D34
:1016A000227374796C65736865657422207479702F
:1016B000653D22746578742F6373732220687265A8
:1016C000663D227374796C652E637373223E3C2FE2
:1016D000484541443E3C424F4459206267636F6C29
:1016E0006F723D2223433046464330223E3C612008
:1016F000687265663D226D61696E6D656E752E68F6
:10170000746D6C223E7A75722675756D6C3B636BD9
:101710003C2F613E202F203C6120687265663D228F
:101720007478702D6D73672E68746D6C22207461EF
:10173000726765743D226D61696E223E4E61636819
:1017400072696368742073656E64656E3C2F613ED8
:10175000202F203C6120687265663D227478702DD0
:10176000746C6E7665727A2E63676922207461727A
:101770006765743D226D61696E223E5465696C6EC9
:1017800065686D65722D5665727A656963686E6904
:10179000733C2F613E202F203C6120687265663DBE
:1017A000227478706366672D6D656E752E68746D32
:1017B0006C223E5478502D45696E7374656C6C755F
:1017C0006E67656E3C2F613E202F203C6120687261
:1017D00065663D227478702D64656275672E636757
:1017E0006922207461726765743D226D61696E22A1
:1017F0003E44656275672D496E666F733C2F613E8E
:10180000202F203C6120687265663D227478702D1F
:10181000747769746C6E6C697374652E6367692282
:10182000207461726765743D226D61696E223E426B
:1018300075732D546C6E2D4C697374653C2F613E2D
:10184000202F203C6120687265663D2273646469C4
:10185000722E63676922207461726765743D226D20
:1018600061696E223E53442D4B617274653C2F6159
:101870003E3C2F424F44593E3C2F48544D4C3E0D68
:101880000A0D0A007478706366672D6D656E752E9B
:1018900068746D6C003C48544D4C3E3C4845414496
:1018A0003E3C6C696E6B2072656C3D227374796C82
:1018B0006573686565742220747970653D2274656E
:1018C00078742F6373732220687265663D22737487
:1018D000796C652E637373223E3C2F484541443E2C
:1018E0003C424F4459206267636F6C6F723D222304
:1018F000433046464330223E3C6120687265663D77
:10190000227478702D6D656E752E68746D6C223E34
:101910007A75722675756D6C3B636B3C2F613E204A
:101920002F203C6120687265663D22747870636682
:10193000672D696E7465726E2E636769222074610B
:10194000726765743D226D61696E223E45696E73F2
:1019500074656C6C756E67656E20696D206C6F6B5D
:10196000616C656E205478502D53797374656D3CAD
:101970002F613E202F203C6120687265663D2274F5
:1019800078706366672D65787465726E2E6367691B
:1019900022207461726765743D226D61696E223E1A
:1019A00045696E7374656C6C756E67656E20696DE4
:1019B0002069702D74656C65782D4E65747A3C2FA6
:1019C000613E202F203C6120687265663D2274785C
:1019D000706366672D656D61696C2E63676922208F
:1019E0007461726765743D226D61696E223E654D5A
:1019F00061696C2D45696E7374656C6C756E676595
:101A00006E3C2F613E202F203C6120687265663D50
:101A1000227478706366672D7370657272656E2EBE
:101A200063676922207461726765743D226D616924
:101A30006E223E5370657272656E3C2F613E3C2F84
:101A4000424F44593E3C2F48544D4C3E0D0A0D0A1E
:101A5000007478702D6D73672E68746D6C003C484F
:101A6000544D4C3E3C484541443E3C2F4845414442
:101A70003E3C6672616D6573657420726F77733D6D
:101A8000222A2C363022207363726F6C6C696E6769
:101A90003D226E6F22206672616D65626F726465B1
:101AA000723D22322220626F726465723D223222C0
:101AB000206672616D6573706163696E673D223285
:101AC0002220626F72646572636F6C6F723D2223B5
:101AD000303030303030223E3C6672616D652073AC
:101AE00072633D227478702D6D73672D6F75742E3F
:101AF00063676922206E616D653D224D73674F7586
:101B00007422207363726F6C6C696E673D2261751D
:101B1000746F223E3C6672616D65207372633D2274
:101B20007478702D6D73672D696E2E63676922203E
:101B30006E616D653D224D7367496E22207363723D
:101B40006F6C6C696E673D226E6F223E3C6E6F66F5
:101B500072616D65733E3C626F64793E3C703E49D4
:101B600068722042726F7773657220756E74657249
:101B70007374C3BC747A74206B65696E6520467299
:101B8000616D6573213C2F703E3C2F626F64793E1E
:101B90003C2F6E6F6672616D65733E3C2F6672619D
:101BA0006D657365743E3C2F48544D4C3E0D0A0DD7
:101BB0000A002820256C64204279746520756562CE
:101BC000657274726167656E20285344290D0A009E
:101BD0004854545020736F636B657420636C6F734B
:101BE000656420627920636C69656E740D0A004833
:101BF0005454502F312E312032303020446F6375D1
:101C00006D656E7420666F6C6C6F77730D0A436F31
:101C10006E74656E742D4C656E6774683A20256C21
:101C2000640D0A436F6E74656E742D547970653A55
:101C300020257325730D0A43616368652D436F6E1C
:101C400074726F6C3A206D61782D6167653D333633
:101C500030300D0A436F6E6E656374696F6E3A20A3
:101C6000636C6F73650D0A0D0A00746578742F003C
:101C700068746D0068746D6C002820256C642042C7
:101C800079746520756562657274726167656E202E
:101C900028464C415348290D0A000D0A436F6E74C3
:101CA000656E742D4C656E6774683A2025640D0A64
:101CB00043616368652D436F6E74726F6C3A206D7B
:101CC00061782D6167653D333630300D0A436F6EA4
:101CD0006E656374696F6E3A20636C6F73650D0A8D
:101CE0000D0A0062696E00746578742F68746D6CFB
:101CF000006A70656700706E6700485454502F3159
:101D00002E312032303020446F63756D656E742043
:101D1000666F6C6C6F77730D0A436F6E74656E74CB
:101D20002D547970653A20000D0A002066726F6D9F
:101D30002000687474702D726571756573743A2033
:101D400000687474702D7365727665723A2025731D
:101D500020003E200051756974696E670D0A00719C
:101D600075697400556E642C206C6F73206765680C
:101D70007427732E2E2E21212120282268656C7055
:101D8000222068696C6674203A2D29290D0A3E20AC
:101D90000074656C6E65740054656C6E65742D53CB
:101DA000657276657220506F72742025642E0D0A5C
:101DB0000043524F4E5F454E5452595F25303264B6
:101DC0000025643A206E696368742062656C6567FB
:101DD000740D0A0025643A202564202564202573AB
:101DE0000D0A0063726F6E00666F6F2E6367690085
:101DF0002573202F202573202F2025640D0A0049EC
:101E0000502F4D41432F54544C0D0A006172700005
:101E10003C2F424F44593E3C2F48544D4C3E0D0AF6
:101E20000D0A003C48544D4C3E3C484541443E3C24
:101E30006D65746120687474702D65717569763D87
:101E400022726566726573682220636F6E74656EB8
:101E5000743D223630303B20223E3C5449544C45A0
:101E60003E53747265616D696E673C2F5449544CE2
:101E7000453E3C2F484541443E3C424F4459206238
:101E800067636F6C6F723D222332323842323222E6
:101E900020746578743D2223464646464646223ED7
:101EA0005A6569743A20253032643A253032643AF2
:101EB000253032642E2530326420282025752F25C8
:101EC000752F253034752029005048535441543221
:101ED000207C203078253034580D0A005048535467
:101EE000415431207C203078253034580D0A00527E
:101EF00065762E494420207C202020307825303201
:101F0000580D0A002D2D2D2D2D2D2D2D2B2D2D2D48
:101F10002D2D2D2D2D0D0A005265672E20202020FD
:101F20007C20576572740D0A00454E4332384A369C
:101F3000303A0D0A005443502D5458204572726FA8
:101F400072733A202564205443502D525820457214
:101F5000726F72733A2025642028756E736F7274E5
:101F600065642025642C206F6C6473657120256482
:101F7000290D0A0D0A0045746865726E65743A2071
:101F8000256C6420427974657320696E20256C6429
:101F9000205061636B6574656E204C6F636B457296
:101FA000726F727320256C640D0A00737461747310
:101FB0002E6367690073746174730052657365748E
:101FC0000072657365740072657365740072657381
:101FD0006574003C666F726D20616374696F6E3D5D
:101FE0002272657365742E63676922206D6574685B
:101FF0006F643D2267657422206163636570742D90
:10200000636861727365743D2249534F2D383835CA
:10201000392D31223E3C703E3C696E7075742074DF
:102020007970653D227375626D697422206E616DF1
:10203000653D227265736574222076616C75653D1D
:10204000227265736574223E3C2F703E3C2F666F92
:10205000726D3E0072657365742E63676900726508
:1020600073657400646E73203C686F73746E616D89
:10207000653E0D0A004950207A75202573203D20C9
:1020800025730D0A00646E730044484350004950A4
:10209000004D41534B004741544500444E53004DC1
:1020A00041430045696E7374656C6C756E67656E4F
:1020B0002075656265726E6F6D6D656E210D0A002B
:1020C0003C74723E3C746420616C69676E3D2272A0
:1020D00069676874223E48617264776172652D4D4C
:1020E00041433C2F74643E3C74643E3C696E7075A1
:1020F00074206E616D653D224D41432220747970DC
:10210000653D2274657874222073697A653D2231B9
:1021100037222076616C75653D22257322206D6122
:10212000786C656E6774683D223137223E3C2F74AF
:10213000643E3C2F74723E3C74723E3C74643E3C80
:102140002F74643E3C74643E3C696E7075742074F8
:102150007970653D227375626D6974222076616CB9
:1021600075653D222045696E7374656C6C756E678C
:10217000202655756D6C3B6265726E65686D656E87
:1021800020223E3C2F74643E3C2F74723E3C2F74E0
:1021900061626C653E3C2F666F726D3E004D41433F
:1021A000003C74723E3C746420616C69676E3D2231
:1021B0007269676874223E444E532D53657276658A
:1021C000723C2F74643E3C74643E3C696E7075745E
:1021D000206E616D653D22444E53222074797065F6
:1021E0003D2274657874222073697A653D22313509
:1021F000222076616C75653D22257322206D617801
:102200006C656E6774683D223135223E3C2F7464E4
:102210003E3C2F74723E00444E53003C74723E3C70
:10222000746420616C69676E3D227269676874220C
:102230003E476174657761793C2F74643E3C7464F9
:102240003E3C696E707574206E616D653D2247413C
:1022500054452220747970653D227465787422207B
:1022600073697A653D223135222076616C75653D52
:1022700022257322206D61786C656E6774683D223B
:102280003135223E3C2F74643E3C2F74723E004731
:10229000415445003C74723E3C746420616C696733
:1022A0006E3D227269676874223E4E65747A776566
:1022B000726B6D61736B653C2F74643E3C74643E5D
:1022C0003C696E707574206E616D653D224D4153A1
:1022D0004B2220747970653D2274657874222073D6
:1022E000697A653D223135222076616C75653D2223
:1022F000257322206D61786C656E6774683D2231AC
:1023000035223E3C2F74643E3C2F74723E004D419A
:10231000534B003C74723E3C746420616C69676E80
:102320003D227269676874223E49502D416472658E
:102330007373653C2F74643E3C74643E3C696E70FC
:102340007574206E616D653D22495022207479704C
:10235000653D2274657874222073697A653D223167
:1023600035222076616C75653D22257322206D61D2
:10237000786C656E6774683D223135223E3C2F745F
:10238000643E3C2F74723E004950003E3C2F746402
:102390003E3C2F74723E00636865636B6564006F3A
:1023A0006E003C74723E3C746420616C69676E3DE3
:1023B000227269676874223E4448435020616B74FE
:1023C0006976696572656E3C2F74643E3C74643E48
:1023D0003C696E70757420747970653D2263686520
:1023E000636B626F7822206E616D653D22444843C5
:1023F00050222076616C75653D226F6E222000446C
:10240000484350003C666F726D20616374696F6E63
:102410003D226E6574776F726B2E636769223E3C56
:102420007461626C6520626F726465723D22302255
:102430002063656C6C70616464696E673D2235224F
:102440002063656C6C73706163696E673D22302236
:102450003E00636F6E666967003C2F7072653E0DCB
:102460000A007374617473006966636F6E666967EE
:10247000003C7072653E0D0A000D0A48572D4164FC
:10248000723A20253032783A253032783A25303287
:10249000783A253032783A253032783A2530327819
:1024A0000D0A0D0A00444E533A25730D0A00476188
:1024B00074657761793A25730D0A004E65746D6114
:1024C000736B3A25730D0A0049503A25730D0A00C3
:1024D0006E6574776F726B2E636769006966636FF0
:1024E0006E666967004E5450004E54505345525624
:1024F0004552005554435A4F4E450045696E73741A
:10250000656C6C756E67656E2075656265726E6F61
:102510006D6D656E210D0A003C74723E3C74642042
:10252000616C69676E3D227269676874223E534E22
:1025300054502D5365727665723C2F74643E3C7422
:10254000643E3C696E707574206E616D653D224E0F
:1025500054505345525645522220747970653D229D
:1025600074657874222073697A653D2232352220A1
:1025700076616C75653D22257322206D61786C65EE
:102580006E6774683D223235223E3C2F74643E3CB7
:102590002F74723E3C74723E3C746420616C6967B7
:1025A0006E3D227269676874223E5A6569747A6F5B
:1025B0006E653C2F74643E3C74643E3C696E70757D
:1025C00074206E616D653D225554435A4F4E45222D
:1025D00020747970653D2274657874222073697A5D
:1025E000653D2233222076616C75653D222573227C
:1025F000206D61786C656E6774683D2233223E3CC5
:102600002F74643E3C2F74723E3C74723E3C746482
:102610003E3C2F74643E3C74643E3C696E7075743D
:1026200020747970653D227375626D69742220761D
:10263000616C75653D222045696E7374656C6C75BF
:102640006E67202655756D6C3B6265726E65686DB0
:10265000656E20223E3C2F74643E3C2F74723E3CDB
:102660002F7461626C653E3C2F666F726D3E003068
:102670000074696D652E66752D6265726C696E2ECB
:102680006465003E3C2F74643E3C2F74723E0063D0
:102690006865636B6564006F6E003C666F726D20E9
:1026A000616374696F6E3D226E74702E6367692278
:1026B0003E0D3C7461626C6520626F726465723DB0
:1026C0002230222063656C6C70616464696E673DC2
:1026D0002235222063656C6C73706163696E673D9F
:1026E0002230223E3C74723E3C746420616C696707
:1026F0006E3D227269676874223E534E54502061C9
:102700006B746976696572656E3C2F74643E3C74C7
:10271000643E3C696E70757420747970653D226307
:102720006865636B626F7822206E616D653D224E35
:102730005450222076616C75653D226F6E22200018
:102740006E7470203C6E74707365727665723E0DA7
:102750000A004665686C65720D0A004E6575652055
:102760005A6569743A20253032643A253032643A29
:10277000253032640D0A00486F6C65205A65697413
:1027800020766F6E2025730D0A004665686C6572B1
:102790000D0A006E74702E636769006E74700026F7
:1027A00044594E444E535F55534552505700445977
:1027B0004E444E535F444F4D41494E0045696E7340
:1027C00074656C6C756E67656E2075656265726E9A
:1027D0006F6D6D656E210D0A002D31202D31352074
:1027E0002264796E646E7320757064617465220072
:1027F00044594E444E535F4F4E002D31202D3135FC
:10280000202264796E646E73207570646174652231
:102810000044594E444E530044594E444E535F4F6A
:102820004E0044594E444E5300444F4D41494E00D2
:1028300044594E444E535F444F4D41494E00444F1E
:102840004D41494E004143434F554E540026445993
:102850004E444E535F555345525057004143434FEA
:10286000554E54004143434F554E54003C666F72E1
:102870006D20616374696F6E3D2264796E646E735E
:102880002E636769223E0D203C7461626C65206294
:102890006F726465723D2230222063656C6C7061DA
:1028A0006464696E673D2235222063656C6C7370C9
:1028B0006163696E673D2230223E20203C74723E87
:1028C0000D2020203C746420616C69676E3D22728B
:1028D00069676874223E44796E444E5320616B747C
:1028E0006976696572656E3C2F74643E2020203CD9
:1028F00074643E3C696E70757420747970653D2215
:10290000636865636B626F7822206E616D653D223E
:1029100044594E444E53222076616C75653D226FBA
:102920006E22202573203E20203C2F74643E0D2013
:10293000203C74723E0D2020203C746420616C6940
:10294000676E3D227269676874223E64796E444EF8
:1029500053204163636F756E742028207573657210
:102960003A707720293C2F74643E2020203C746408
:102970003E3C696E707574206E616D653D22414309
:10298000434F554E542220747970653D227465780A
:1029900074222073697A653D223331222076616C7E
:1029A00075653D2222206D61786C656E6774683DA7
:1029B000223331223E3C2F74643E20203C2F74721F
:1029C0003E0D20203C74723E0D2020203C7464207B
:1029D000616C69676E3D227269676874223E447952
:1029E0006E444E5320446F6D61696E3C2F74643E9B
:1029F0002020203C74643E3C696E707574206E61CA
:102A00006D653D22444F4D41494E222074797065D9
:102A10003D2274657874222073697A653D223331D2
:102A2000222076616C75653D22257322206D6178C8
:102A30006C656E6774683D223331223E3C2F7464AE
:102A40003E20203C2F74723E0D20203C74723E0DBF
:102A50002020203C74643E3C2F74643E3C74643EF1
:102A60003C696E70757420747970653D227375626F
:102A70006D6974222076616C75653D222045696E12
:102A80007374656C6C756E67202655756D6C3B6252
:102A900065726E65686D656E20223E3C2F74643EE3
:102AA00020203C2F74723E0D203C2F7461626C65B7
:102AB0003E0D3C2F666F726D3E00636865636B650B
:102AC00064006F6E0044594E444E535F4F4E0044B5
:102AD000594E444E535F444F4D41494E0044594E68
:102AE000444E535F444F4D41494E0064796E646ECD
:102AF00073203C7570646174653E202F203C7365C3
:102B0000746163636F756E7420757365723A707764
:102B10004064796E646E732D646F6D61696E3E0DF5
:102B20000A004163636F756E74646174656E20673B
:102B3000657370656963686572742E0D0A0073654C
:102B4000746163636F756E740055706461746520A1
:102B500066756572202573206665686C67657363AA
:102B6000686C6167656E0D0A00557064617465205C
:102B700066756572202573206572666F6C67726575
:102B80006963682E0D0A007570646174650064796C
:102B90006E646E732E6367690064796E646E730091
:102BA00064656C0064656C0045696E7374656C6C7B
:102BB000756E67656E2075656265726E6F6D6D65A9
:102BC0006E210D0A00434D44002564202564202217
:102BD000257322004D4D00484800434D44003C669B
:102BE0006F726D20616374696F6E3D2263726F6EE8
:102BF0002E636769223E3C7461626C6520626F726D
:102C00006465723D2230222063656C6C706164647F
:102C1000696E673D2235222063656C6C7370616359
:102C2000696E673D2230223E3C74723E3C746420E3
:102C3000616C69676E3D227269676874223E5374E5
:102C4000756E64653C2F74643E3C74643E3C696EF2
:102C5000707574206E616D653D224848222074793C
:102C600070653D2274657874222073697A653D220F
:102C700033222076616C75653D2230226D61786C5F
:102C8000656E6774683D2233223E3C2F74643E3C7F
:102C90002F74723E3C74723E3C746420616C6967B0
:102CA0006E3D227269676874223E4D696E75746567
:102CB0003C2F74643E3C74643E3C696E70757420B5
:102CC0006E616D653D224D4D2220747970653D2207
:102CD00074657874222073697A653D2233222076E8
:102CE000616C75653D223022206D61786C656E6780
:102CF00074683D2233223E3C2F74643E3C2F747234
:102D00003E3C74723E3C746420616C69676E3D2287
:102D10007269676874223E436F6D6D616E643C2F0B
:102D200074643E3C74643E3C696E707574206E61E0
:102D30006D653D22434D442220747970653D2274B7
:102D4000657874222073697A653D22333022206DC4
:102D500061786C656E6774683D223330223E3C2F8B
:102D600074643E3C2F74723E3C74723E3C74643E0C
:102D70003C2F74643E3C74643E3C696E70757420F4
:102D8000747970653D227375626D69742220766175
:102D90006C75653D222045696E74726167207369A8
:102DA000636865726E20223E3C2F74643E3C2F7433
:102DB000723E3C2F7461626C653E3C2F666F726D93
:102DC0003E0D006164646E6577003C74723E3C7435
:102DD0006420616C69676E3D226C656674223E3CBE
:102DE0006120687265663D2263726F6E2E6367694B
:102DF0003F6164646E657722207374796C653D224F
:102E0000746578742D6465636F726174696F6E3A6E
:102E10006E6F6E6522207469746C653D2241646436
:102E2000223E3C696E70757420747970653D226233
:102E30007574746F6E222076616C75653D226164D5
:102E400064206E65772063726F6E2220636C6173FD
:102E5000733D22616374696F6E42746E223E3C2F33
:102E6000613E3C2F74643E3C2F74723E3C2F746173
:102E7000626C653E0D003C74723E3C746420616C73
:102E800069676E3D226C656674223E25733C2F7423
:102E9000643E3C746420616C69676E3D226C6566BB
:102EA00074223E3C6120687265663D2263726F6EDB
:102EB0002E6367693F64656C3D25642220737479D5
:102EC0006C653D22746578742D6465636F726174FE
:102ED000696F6E3A6E6F6E6522207469746C653D21
:102EE0002244656C223E3C696E7075742074797062
:102EF000653D22627574746F6E222076616C756513
:102F00003D2264656C2220636C6173733D226163B2
:102F100074696F6E42746E223E3C2F613E3C2F748A
:102F2000643E3C2F74723E003C7461626C652062AA
:102F30006F726465723D2230222063656C6C706133
:102F40006464696E673D2235222063656C6C737022
:102F50006163696E673D2230223E0063726F6E2EA0
:102F6000636769003C2F7072653E003C7072653E7D
:102F70000065656D656D203C70726F746563743EAD
:102F80007C3C756E70726F746563743E203C616446
:102F900064205B6E616D652076616C5D3E203C64F3
:102FA000656C205B6E616D655D3E203C7072696E84
:102FB000743E203C636C65616E3E0D0A00636C6577
:102FC000616E007072696E740064656C00616464A7
:102FD00000756E70726F7465637465740D0A0057C6
:102FE000524954455F50524F54454354004F464652
:102FF00000756E70726F7465637400575249544562
:103000005F50524F54454354004F4E0070726F74DE
:103010006563740065656D656D2E63676900656540
:103020006D656D00E4F6FCC4D6DCDF5B5D3C3E7B89
:103030007D405F232200616F75414F5573283A2808
:103040002E282D28202B2700656565656565733A58
:10305000292E292D2929202B27004346475041534B
:10306000530050524F544C4556454C0050524F540B
:103070004C4556454C544C4E5352560048415550C1
:10308000545354454C4C4500454947454E454E55D3
:103090004D4D455200464553544548505354004DFC
:1030A000454C445255434B00414C5445524E4245C9
:1030B000494245530044555243485741484C5441B6
:1030C00042004E45545A5255464E520050494E0009
:1030D00044594E4950414B544956004E45545A505C
:1030E0004F52540053454C425354414E50455200A8
:1030F0005255464E525345525631005255464E5245
:103100005345525632005255464E5253455256334D
:103110000053594E4350494E005478500054656C4A
:10312000657850686F6E6520506F72742025752E1B
:103130000D0A0073646469722E63676900747870A5
:103140002D64656275672E636769007478706366C5
:10315000672D7370657272656E2E6367690074788F
:10316000706366672D65787465726E2E636769009B
:103170007478706366672D696E7465726E2E63670E
:1031800069007478702D747769746C6E6C697374EF
:10319000652E636769007478702D6D73672D6F7588
:1031A000742E636769007478702D6D73672D696E76
:1031B0002E636769004572726F722072656164697F
:1031C0006E67206469726563746F727921003C6177
:1031D0002068726566203D2225732F2573223E25C7
:1031E000733C2F613E20256C64203C736D616C6CD8
:1031F0003E3C612068726566203D2273646469729A
:103200002E6367693F6469723D25732664656C3D72
:1032100025732F2573223E64656C6574653C2F61B0
:103220003E3C2F736D616C6C3E3C62723E003C61B3
:103230002068726566203D222573223E25733C2F4F
:10324000613E20256C64203C736D616C6C3E3C617A
:103250002068726566203D2273646469722E63671C
:10326000693F64656C3D2573223E64656C657465D9
:103270003C2F613E3C2F736D616C6C3E3C62723E34
:10328000003C612068726566203D22736464697247
:103290002E6367693F6469723D25732F2573223E53
:1032A00025733C2F613E204449523C62723E003CF3
:1032B000612068726566203D2273646469722E63C2
:1032C00067693F6469723D2573223E25733C2F6117
:1032D0003E204449523C62723E003C2F623E202810
:1032E000256C752066726565293C62723E003C6201
:1032F0003E436F6E74656E74206F662025733A00CE
:10330000646972003C623E436F6E74656E74206F38
:1033100066202F3A006469720046696C6520257347
:10332000204E4F5420666F756E643C703E004669B7
:103330006C65202573204E4F542064656C65746560
:10334000643C703E0046696C652025732064656CA2
:10335000657465643C703E0064656C0064656C0077
:103360002B2B2B666572746967004E756D6D6572E7
:103370002025732053746174757320253032583CB6
:1033800062723E00537461747573206465722061CB
:103390006E67657363686C6F7373656E656E2054DA
:1033A00057492D4D6F64756C653A3C703E0047651A
:1033B0006865696D7A61686C20662675756D6C3B11
:1033C00072205365727665722D53796E6368726FE1
:1033D0006E6973696572756E67005465696C6E65B8
:1033E000686D65722D536572766572004E65747AEC
:1033F0002D506F727400566572622D54657374207F
:10340000506572696F64650044796E4950416B7410
:1034100075616C6973696572756E6700476568658B
:10342000696D7A61686C004E65747A2D5275666EAE
:10343000756D6D6572006E6575652045696E737496
:10344000656C6C756E67656E3A203C6120687265CC
:10345000663D227478706366672D65787465726E58
:103460002E636769223E7765697465723C2F613E01
:103470000045696E7374656C6C756E6720265575B2
:103480006D6C3B6265726E65686D656E0047656860
:1034900065696D7A61686C20662675756D6C3B7226
:1034A000205365727665722D53796E6368726F6E04
:1034B0006973696572756E670041647265737365DF
:1034C00020646573205465696C6E65686D65722D46
:1034D0005365727665723A00506F72742D4E756D39
:1034E0006D657220696D204E65747A3A005665727A
:1034F00062696E64756E6773746573742D5065725E
:10350000696F64653A0049502D416B7475616C694F
:1035100073696572756E6720616B7469763A0047EE
:10352000656865696D7A61686C3A00656967656EA2
:1035300065205275666E756D6D657220696D2069C6
:10354000702D74656C65782D4E65747A3A007478C8
:10355000706366672D65787465726E2E63676900A7
:103560004B6F6E66696775726174696F6E737365B0
:103570006974656E2073696E64206E756E20676570
:103580007370657272742E205A7572204672656966
:103590006761626520776965646572206461732084
:1035A00050617373776F72742065696E67656265C9
:1035B0006E206F6465722054617374652064657257
:1035C00020426175677275707065203220782064C2
:1035D000722675756D6C3B636B656E2E007A756E29
:1035E0002661756D6C3B63687374205061737377EB
:1035F0006F727420696E203C6120687265663D229E
:103600007478706366672D696E7465726E2E636779
:103610006922207461726765743D226D61696E2252
:103620003E45696E7374656C6C756E67656E206976
:103630006D206C6F6B616C656E205478502D5379E2
:103640007374656D3C2F613E2065696E67656265C8
:103650006E21003C62723E4B656E6E776F72742015
:103660006767662E2067652661756D6C3B6E6465C5
:1036700072742E004C6576656C20662675756D6CCF
:103680003B7220447275636B61757367616265009C
:1036900050726F746F6B6F6C6C2D4C6576656C201F
:1036A0005275666E722D5365727665720050726F38
:1036B000746F6B6F6C6C2D4C6576656C003C627240
:1036C0003E44757263687761686C656E20756E76CE
:1036D00065722661756D6C3B6E646572743A202567
:1036E00073003C62723E44757263687761686C6512
:1036F0006E3A202573003C62723E416C7465726EB6
:10370000617469762D53756368652062656920422E
:10371000657365747A743A202573003C62723E4189
:103720006C7465726E617469765375636865426521
:103730006942657365747A7420756E766572266168
:10374000756D6C3B6E646572743A202575003C6241
:10375000723E466573746520486175707473746554
:103760006C6C653A202573003C62723E466573744A
:103770006548617570747374656C6C6520756E76E0
:1037800065722661756D6C3B6E646572743A2025B6
:1037900075003C62723E48617570747374656C6C40
:1037A000653A202573003C62723E486175707473FF
:1037B00074656C6C6520756E7665722661756D6CCE
:1037C0003B6E646572743A202573003C62723E4E13
:1037D00065747A2D566F727761686C206B6F6E6EB0
:1037E0007465206E696368742067652661756D6C09
:1037F0003B6E646572742077657264656E003C622E
:10380000723E4E65747A2D566F727761686C3A20FD
:103810002573003C62723E4E65747A2D566F727746
:1038200061686C20756E7665722661756D6C3B6E95
:10383000646572743A202573006E6575652045696C
:103840006E7374656C6C756E67656E3A203C6120B2
:10385000687265663D227478706366672D696E7460
:1038600065726E2E636769223E7765697465723C86
:103870002F613E0045696E7374656C6C756E6720D0
:103880002655756D6C3B6265726E65686D656E0080
:1038900050617373776F727420662675756D6C3B1B
:1038A00072204B6F6E66696775726174696F6E73B3
:1038B00073656974656E3A004C6576656C206626A2
:1038C00075756D6C3B7220447275636B61757367BF
:1038D00061626520766F6E204D656C64756E6765FC
:1038E0006E3A0050726F746F6B6F6C6C2D4C657616
:1038F000656C20662675756D6C3B72205465696C2D
:103900006E2D5365727665723A0050726F746F6BEC
:103910006F6C6C2D4C6576656C3A0044757263680B
:103920007761686C656E3A3C62723E286D697420FE
:103930004B6F6D6D61207472656E6E656E2900410E
:103940006C7465726E617469762D53756368652059
:103950006265692062657365747A743A00696E7491
:1039600065726E652044757263687761686C206467
:1039700065722048617570747374656C6C6520663F
:103980002675756D6C3B72206B6F6D6D656E646531
:103990002056657262696E64756E67656E3A006680
:1039A000657374652048617570747374656C6C65BB
:1039B00020662675756D6C3B72206B6F6D6D656E44
:1039C00064652056657262696E64756E67656E3AED
:1039D000004E65747A2D566F727761686C2066268A
:1039E00075756D6C3B7220676568656E6465205601
:1039F000657262696E64756E67656E3A00747870A0
:103A00006366672D696E7465726E2E636769003C2C
:103A1000666F726D20616374696F6E3D2274787099
:103A20002D6D73672D696E2E636769223E45696E41
:103A3000676162653A203C696E707574206E616DD5
:103A4000653D2245696E6761626522207479706503
:103A50003D2274657874222073697A653D2236357B
:103A6000222076616C75653D2222206D61786C653F
:103A70006E6774683D223635223E3C696E707574FF
:103A800020747970653D227375626D6974222076A9
:103A9000616C75653D2220416273656E64656E20C0
:103AA000223E3C6120687265663D227478702D6DFF
:103AB00073672D6F75742E63676922207461726756
:103AC00065743D224D73674F7574223E416B74756A
:103AD000616C6973696572656E3C2F613E3C2F664F
:103AE0006F726D3E0048544D4C2D436861742062E6
:103AF00065676F6E6E656E2028416E7761686C2019
:103B0000257529202D3E20000D0A0048544D4C2DCE
:103B1000436861742045696E676162653A20000DF3
:103B20000A0045696E676162650044757263687773
:103B300061686C20696E20546162656C6C652067F9
:103B40006566756E64656E2025750D0A0044757294
:103B500063687761686C2061757320546162656C7D
:103B60006C6520756D67657365747A742025750DB5
:103B70000A0044757263687761686C2D416E6672E5
:103B80006167652025750D0A005478502028253579
:103B900075293A2000446972656B74647275636BB1
:103BA00020416272756620447275636B737069653B
:103BB00067656C202862656C656774290D0A004989
:103BC0006E74657266616365206973742062656CEA
:103BD0006567742C206269747465207761727465FE
:103BE0006E2E00446972656B74647275636B20415C
:103BF0006272756620447275636B73706965676580
:103C00006C2028617573290D0A0054657874656904
:103C10006E676162652073746172746574204665B5
:103C2000726E73636872656962657200202825751B
:103C3000290D0A00446972656B74647275636B20A8
:103C4000416272756620447275636B737069656753
:103C5000656C3A00447275636B7370696567656C77
:103C60003A3C62723E3C7072653E2573266C743B32
:103C7000266C743B266C743B257325733C2F707245
:103C8000653E003C48544D4C3E3C484541443E3C1A
:103C90006D65746120687474702D65717569763D09
:103CA00022657870697265732220636F6E74656E29
:103CB000743D2231223E3C6D6574612068747470DD
:103CC0002D65717569763D22707261676D61222084
:103CD000636F6E74656E743D226E6F2D63616368F1
:103CE00065223E3C6D65746120687474702D657149
:103CF0007569763D22726566726573682220636F0E
:103D00006E74656E743D2231303B2055524C3D74CB
:103D100078702D6D73672D6F75742E636769223E01
:103D20003C2F484541443E3C424F44593E003C6292
:103D3000723E3C6120687265663D227478702D6425
:103D4000656275672E6367693F7265736574223EAD
:103D500053746174696B74696B2D446174656E2072
:103D60007A75722675756D6C3B636B7365747A65D5
:103D70006E3C2F613E3C62723E45746865726E65B2
:103D8000743A20256C6420427974657320696E2032
:103D9000256C64205061636B6574656E204C6F63A5
:103DA0006B4572726F727320256C640D0A003C6261
:103DB000723E54696D65723043616C6C6261636B15
:103DC0005F4D6178203D202575003C62723E54694C
:103DD0006D657230436E745F4D6178203D202575AE
:103DE000003C62723E54696D657230436E745F4D83
:103DF000696E203D202575003C62723E54696D65F8
:103E0000723043616C6C6261636B436F756E7420DA
:103E10003D202575003C62723E547870546872658E
:103E20006164436F756E74203D202575003C62729D
:103E30003E547769497372436F756E74203D202537
:103E400075003C62723E46616C7363686572436FD5
:103E50006465203D202575003C62723E53656C62AE
:103E60007374416E7275665A6569745565626572E0
:103E700077616368756E673A20003C62723E5365F5
:103E80006C627374416E7275664665686C65725AD1
:103E90006165686C6572203D202575003C62723E4C
:103EA00053656C627374416E727566456D706661C0
:103EB0006E67507275656677657274203D20257552
:103EC000003C62723E53656C627374416E7275663B
:103ED00053656E6465507275656677657274203DD2
:103EE000202575003C62723E53656C627374416EAE
:103EF000727566536F636B657448616E646C6520A0
:103F00003D202575003C62723E4B75727A54696D96
:103F1000657256616C282653656C627374416E72CB
:103F2000756654696D657229203D202575003C62D7
:103F3000723E53656C627374416E7275665068614F
:103F40007365203D202575003C62723E44796E49C0
:103F500050416B7475616C6973696572756E674504
:103F60006E647A656974203D202575003C62723E5E
:103F70004C616E6754696D657256616C2826447990
:103F80006E4950416B7475616C6973696572756EC9
:103F90006754696D657229203D202575003C627269
:103FA0003E4B75727A54696D657256616C28265461
:103FB0007870546872656164436865636B54696DB9
:103FC000657229203D202575003C62723E4B75725A
:103FD0007A54696D657256616C2826547870536FF7
:103FE000636B65744C6562656E737A656963686559
:103FF0006E54696D657229203D202575003C627202
:104000003E4275734B6F6C6C6973696F6E5A616574
:10401000686C6572203D202575003C62723E5477C5
:10402000695761746368646F67436F756E74203D90
:10403000202575003C62723E5477694C6562656E5E
:10404000737A65696368656E5A6165686C6572202C
:104050003D202575003C62723E4B75727A54696D45
:10406000657256616C282642757351756974745473
:10407000696D657229203D202575005D005D3C62FB
:10408000723E4173636969447275636B507566660D
:1040900065723A205B003C62723E48746D6C5365F9
:1040A0006E6465546578743A205B003C62723E53DE
:1040B0006F636B6574416E7A61686C5A6569636899
:1040C000656E456D7066616E67656E203D20257575
:1040D000003C62723E536F636B6574416E7A616837
:1040E0006C5A65696368656E517569747469657247
:1040F00074203D202575003C62723E536F636B65F2
:1041000074416E7A61686C5A65696368656E47656B
:1041100073656E646574203D202575003C62723EB7
:1041200050726F746F6B6F6C6C5068617365203D7B
:10413000202575003C62723E547870536F636B6546
:104140007450726F746F6B6F6C6C203D202575001E
:104150003C62723E536F636B65744F757442756653
:1041600055736564203D202575003C62723E536F97
:10417000636B6574496E42756655736564203D20B6
:104180002575003C62723E4B75727A54696D65729A
:1041900056616C2826547870536F636B6574416266
:1041A000627275636854696D657229203D202575BA
:1041B000003C62723E547870536F636B6574416269
:1041C0006261754765706C616E74203D20257500D5
:1041D0003C62723E547870536F636B657449502033
:1041E0003D2025303258003C62723E547870536F47
:1041F000636B657448616E646C65203D20257500B5
:104200003C62723E547870536F636B65744D6F649B
:1042100065203D202575003C62723E5374617475C3
:1042200073203D2025303258003C62723E4D6F6451
:104230007573203D202575003C62723E50726F748C
:104240006F6B6F6C6C7075666665723A20257300D3
:104250003C62723E50726F746F6B6F6C6C64617411
:1042600065693A202573003C62723E446961676E5D
:104270006F73655075666665724C6576656C203D3A
:1042800020257500446961676E6F736550756666B9
:1042900065723A202573007265736574006B656EF4
:1042A0006E770066616C7363686573204B6F6E6632
:1042B000696775726174696F6E732D4B656E6E7789
:1042C0006F72742065696E6765676562656E004B25
:1042D000656E6E776F72742066616C73636821001F
:1042E00046726569676562656E005365697465202D
:1042F000676573706572727421204B656E6E776F9F
:104300007274203A007478706366672D696E746504
:10431000726E2E636769000D0A006367692D41752F
:10432000667275663A2000536F636B6574207A7508
:104330006D205465696C6E65686D65722D5365728C
:1043400076657220777572646520766F6E2047659A
:1043500067656E7374656C6C652067657363686C04
:104360006F7373656E0D0A002120756E657277613B
:10437000727465746520416E74776F727420646521
:1043800073205465696C6E65686D65722D53657236
:10439000766572730D0A000D0A0021204665686C6F
:1043A00065726D656C64756E672064657320546515
:1043B000696C6E65686D65722D5365727665727392
:1043C0003A20000D0A0044796E616D697363686577
:1043D0002049502D416B7475616C69736965727504
:1043E0006E673A206E657565204950200044796EED
:1043F000616D69736368652049502D416B74756107
:104400006C6973696572756E673A2062657374656D
:1044100068656E64652049502067696C7420776513
:10442000697465720D0A00696E7465726E65732039
:104430005275666E756D6D65726E2D5665727A6514
:104440006963686E697320766F6C6C00212044612B
:1044500074656E7361747A20766F6D205465696C33
:104460006E65686D65722D536572766572206D6933
:1044700074204E7220256C64206B6F6E6E74652004
:104480006E696368742067657370656963686572D7
:10449000742077657264656E0D0A002120696D20B5
:1044A0006C6F6B616C656E2054656C65666F6E62D7
:1044B00075636820616C7320275072697661742778
:1044C0002067656B656E6E7A656963686E65740DED
:1044D0000A0021205465696C6E65686D65722D5304
:1044E0006572766572206D656C64657420414E441A
:1044F000455245204E756D6D657220616C7320616B
:104500006E676566726167740D0A000D0A00546576
:10451000696C6E65686D65722D5365727665722083
:104520006D656C6465742045696E7472616720679F
:104530006566756E64656E3A2000676577616568CB
:104540006C7465204E756D6D6572206E696368745C
:104550002062656B616E6E74005465696C6E65688F
:104560006D65722D536572766572206D656C64653C
:104570007420276E6963687420676566756E64656C
:104580006E270D0A000D0A00256429005465696C28
:104590006E65686D65722D53657276657220456D26
:1045A0007066616E673A202825642F0053656C623F
:1045B00073742D416E727566206D656872666163F5
:1045C0006820766572736167742C2066616C736312
:1045D000686520526F757465722D4B6F6E666967E2
:1045E00075726174696F6E3F00212053656C627350
:1045F000742D416E727566204B45494E20456368A7
:104600006F20656D7066616E67656E2E0D0A002104
:104610002053656C6273742D416E72756620414241
:10462000474542524F4348454E20776567656E20A7
:104630004D6F6475732D5765636873656C2E0D0A35
:1046400000212053656C6273742D416E7275662073
:1046500046414C5343484520446174656E20656D66
:104660007066616E67656E2E0D0A00212053656CC1
:104670006273742D416E727566206572666F6C6729
:10468000726569636820616267657363686C6F73E4
:1046900073656E2E0D0A00212053656C6273742DB4
:1046A000416E72756620446174656E2D53656E644B
:1046B000756E6720564552534147542E0D0A0053DC
:1046C000656C6273742D416E727566204461746509
:1046D0006E20676573656E6465742E0D0A00212077
:1046E00053656C6273742D416E727566206F6566DA
:1046F000666E656E2064657320536F636B6574200E
:10470000564552534147542E0D0A004772756E6448
:104710007374656C6C756E67206572726569636829
:10472000742028536F636B65742067657363686CCE
:104730006F7373656E2C20545749206765736368E7
:104740006C6F7373656E290D0A0052657374652072
:104750006765647275636B74202D2D3E20417573FF
:10476000736368616C74756E6720696E7465726ED0
:104770000D0A0048544D4C2D436861742D527568E4
:1047800065202D2D3E20417573736368616C7475CF
:104790006E6720696E7465726E0D0A004D656C64FB
:1047A000756E6773647275636B202D3E20000D0A71
:1047B0000A0A000D0A2F2F2F6D656C64756E673A1B
:1047C00020005461737465206765647275636B744F
:1047D000202D2D3E2052657374652D447275636BD8
:1047E000206162676562726F6368656E0D0A0044DE
:1047F0006174756D3A20253032752E253032752E54
:104800002530347520253032753A253032753A25F9
:104810003032750D0A000D0A00696E7465726E659E
:104820002049503A200041626261752077656765D2
:104830006E203130204D696E7574656E2046756E40
:104840006B7374696C6C65210D0A006572720D0AD8
:1048500000212054696D656F7574206265696D2053
:1048600057617274656E20617566206469652045C4
:10487000696E736368616C747175697474756E6761
:104880000D0A00212054696D656F75742062656999
:104890006D2057617274656E20617566206469656C
:1048A000205363686C7573737175697474756E6782
:1048B0000D0A006F63630D0A0052657365727669B5
:1048C0006572756E6720667565722045696E7363E3
:1048D00068616C74756E67206B6F6E6E7465206EA8
:1048E000696368742076657273616E64742077659D
:1048F0007264656E002120416E7761686C20696E7C
:104900007465726E20616E202575205645525341A4
:1049100047540D0A0076657262756E64656E206D8F
:1049200069742025750D0A00416E7761686C2069F5
:104930006E7465726E2025752000416E6765727514
:1049400066656E657220686174206765616E747754
:104950006F72746574202D3E2045696E73636861C3
:104960006C74756E6720696E7465726E0D0A002135
:1049700020494C4C4547414C45532050726F746F51
:104980006B6F6C6C0D0A00496E7465726E65205613
:10499000657262696E64756E6720756E74657262A9
:1049A000726F6368656E0021205457492D54696DFC
:1049B000656F7574202D3E204162736368616C746D
:1049C000756E670D0A00545749204175737363680B
:1049D000616C74756E6720696E7465726E0D0A0085
:1049E00021205363686C7573737175697474756E87
:1049F00067206F686E6520417566666F72646572C8
:104A0000756E670D0A0054574920417573736368CA
:104A1000616C74756E672071756974746965727400
:104A20000D0A005465696C6E65686D657220256CB1
:104A30007520696D20656967656E656E2054656CCB
:104A400065666F6E6275636820676566756E64651E
:104A50006E2E0D0A00545749205761686C7A6966BA
:104A600066657220257520696E7465726E202F2030
:104A7000676568656E640D0A005457492057616880
:104A80006C617566666F72646572756E6720696EBB
:104A90007465726E202F206B6F6D6D656E640D0AEC
:104AA000005457492045696E736368616C74717571
:104AB000697474756E67206E616368204D656C64FF
:104AC000756E6773647275636B0D0A0054574920E5
:104AD00045696E736368616C747175697474756E21
:104AE00067206E61636820426567696E6E20485476
:104AF0004D4C2D436861740D0A0054574920456997
:104B00006E736368616C747175697474756E672017
:104B1000696E7465726E202F206B6F6D6D656E64AB
:104B20000D0A005457492045696E736368616C74BF
:104B30006B6F6D6D616E646F20696E7465726E204F
:104B40002F20676568656E640D0A0054574920522E
:104B50006573657276696572756E6720696E7465D6
:104B6000726E202F20676568656E6420766F6E20F8
:104B700025750D0A005A65697475656265727363FF
:104B80006872656974756E6720626569205769652A
:104B90006465726175666E61686D6520646572201A
:104BA00056657262696E64756E670021205A4549C8
:104BB00054554542455253434852454954554E4732
:104BC00020626569205769656465726175666E610A
:104BD000686D65206465722056657262696E6475E1
:104BE0006E670D0A004D65687266616368652046F0
:104BF00045484C4552206265696D2053656E646579
:104C00006E20696E73204E65747A0021204D6568B0
:104C1000726661636865204645484C45522062656E
:104C2000696D2053656E64656E20696E73204E65F4
:104C3000747A2C20536F636B6574207769726420DB
:104C4000766F727565626572676568656E64206708
:104C5000657363686C6F7373656E0D0A002F253082
:104C600032580D0A002053756D416E7A202575006B
:104C70002C205265737420257500202D2D3E205266
:104C8000657320256400536F636B65742053656EF4
:104C900064756E673A202825752900576965646533
:104CA000722D4F6566666E756E672064657320535E
:104CB0006F636B6574206572666F6C67726569639C
:104CC000682E0D0A0021205769656465722D4F65B5
:104CD00066666E756E672064657320536F636B65DF
:104CE0007420564552534147542E0D0A00202D2D55
:104CF0003E20427566557365642025750D0A0025B2
:104D0000642900536F636B657420456D7066616E36
:104D1000673A202825642F006C696D697469657293
:104D200074206175662025640D0A002120536F638D
:104D30006B657420456D7066616E672064726F6884
:104D4000656E6465722055656265726C6175663A60
:104D500020456D7066616E6720766F6E2025642039
:104D600000536F636B6574207769726420616B74A4
:104D700069762067657363686C6F7373656E0D0A7F
:104D800000536F636B657420777572646520766F6E
:104D90006E20476567656E7374656C6C652065721F
:104DA0007761727465742067657363686C6F737381
:104DB000656E0D0A002120536F636B657420777553
:104DC00072646520766F6E20476567656E737465E3
:104DD0006C6C652047455452454E4E540D0A0053A5
:104DE0006F636B657420777572646520766F6E20D3
:104DF000476567656E7374656C6C65206572776175
:104E0000727465742067657363686C6F7373656E25
:104E10000D0A002120536F636B65742077757264EF
:104E20006520766F6E20476567656E7374656C6C80
:104E30006520554E4552574152544554206765737D
:104E400063686C6F7373656E0D0A005A77656974D9
:104E50006572206B6F6D6D656E64657220416E7258
:104E60007566206175662062656C656774656D2086
:104E700054656C657870686F6E652D536F636B65F4
:104E800074002021202E2E2E41424745574945537C
:104E9000454E0D0A0004066F6363200D0A002C20A6
:104EA00056657262696E64756E67206265737465BB
:104EB0006874002C20616E64657265206B6F6D6D87
:104EC000656E64652056657262696E64756E6720F2
:104ED000626573746568742100202E2E2E576965F3
:104EE00064657276657262696E64756E67206F6B59
:104EF0000D0A002C20616E646572776569746967BC
:104F00002062656C65677400202E2E2E6E657520FC
:104F10006F6B0D0A00202F204D4143200053657216
:104F20007665722D536F636B65742067656F656678
:104F3000666E657420766F6E2049502000253464BB
:104F40000D0A002534640053656E644120253464E5
:104F5000002534640D0A0025346400456D706641F7
:104F600020253136640053656E64652050726F747D
:104F70006F6B6F6C6C76657273696F6E2D566F72A6
:104F80007363686C61672025750D0A0050726F7439
:104F90006F6B6F6C6C76657273696F6E2D566F7286
:104FA0007363686C616720257520656D7066616E3E
:104FB00067656E0D0A0041626261756265666568CB
:104FC0006C20766F6E20476567656E7374656C6CD8
:104FD000650D0A0053656E64656E42657363686CA7
:104FE00065756E6967656E2045494E0D0A0053650B
:104FF0006E64656E42657363686C65756E6967653E
:105000006E204155530D0A002534640D0A002534E5
:105010006400456D70664220253136640025346495
:105020000D0A002534640053656E64422025346403
:105030000041626672616765206265692054656936
:105040006C6E65686D65722D5365727665726E0D56
:105050000A002120696E7465726E65722056657251
:1050600062696E64756E6773706172746E657220CA
:10507000257520697374205343484F4E204652458E
:10508000492E0D0A002120696E7465726E657220CA
:1050900056657262696E64756E6773706172746E64
:1050A0006572202575204E49434854204D4548528D
:1050B00020455252454943484241522E0D0A005262
:1050C0006573657276696572756E6720667565725F
:1050D0002045696E736368616C74756E67206B6FD1
:1050E0006E6E7465206E6963687420766572736194
:1050F0006E64742077657264656E00212045696E68
:10510000736368616C74756E6720696E7465726E26
:1051100020564552534147540D0A0045696E73634A
:1051200068616C74756E6720696E7465726E0D0AC5
:10513000000D0A00202020202020676577616E6422
:10514000656C7420696E3A200020282B2575290D86
:105150000A0041736369692D5665726172626569FF
:1051600074756E673A200020756E64205665727300
:10517000696F6E2025750D0A00436C69656E742D8C
:10518000536F636B657420547870206572666F6C22
:105190006772656963682067656F6566666E6574CA
:1051A000202D3E2073656E646520447572636877B8
:1051B00061686C20257500436C69656E742D536FB2
:1051C000636B6574204173636969206572666F6CF7
:1051D0006772656963682067656F6566666E65748A
:1051E000202D3E2045696E736368616C742D517586
:1051F000697474756E6720616E205457490D0A00FA
:105200005465696C6E65686D6572206E696368745B
:105210002065727265696368626172002120536F54
:10522000636B6574206B6F6E6E7465206E69636866
:105230007420657273746D616C69672067656F6552
:1052400066666E65742077657264656E0D0A00216E
:10525000205465696C6E65686D6572206973742091
:1052600047454C4F45534348540D0A004B65696E02
:10527000652056657262696E64756E67207A756D19
:10528000204D61696C2D5365727665722066756577
:10529000722041757367616E6700436C69656E7457
:1052A0002D536F636B657420534D545020657266A7
:1052B0006F6C6772656963682067656F6566666EA7
:1052C0006574202D3E2045696E736368616C742D92
:1052D0005175697474756E6720616E205457490D5D
:1052E0000A00206E6963687420676566756E646580
:1052F0006E0D0A0021204950207A752055726C20CD
:105300000020506F72742025750D0A00203D20008A
:1053100056657262696E64756E6773617566626107
:1053200075207A752055726C200020506F727420A1
:1053300025750D0A0056657262696E64756E677335
:10534000617566626175207A7520495020004B6551
:10535000696E652056657262696E64756E67207A43
:105360007520616C6C656E205465696C6E65686D46
:1053700065722D5365727665726E00204950206EFD
:10538000696368742062656B616E6E740D0A00213A
:10539000205465696C6E65686D65722D5365727613
:1053A00065722000204745534348454954455254AF
:1053B0000D0A00212056657262696E64756E67730E
:1053C0007665727375636820616E205465696C6ED2
:1053D00065686D65722D5365727665722000206870
:1053E000657267657374656C6C740D0A005665723E
:1053F00062696E64756E6720616E205465696C6EBB
:1054000065686D65722D536572766572200057650B
:10541000636873656C206E616368204D6F6475739B
:1054200020507566666572447275636B556E645381
:1054300063686C7573732028766F6E202564290D60
:105440000A005765636873656C206E616368204D60
:105450006F64757320527568652028766F6E2025FD
:1054600064290D0A002120526573657420776567F1
:10547000656E206E696368742D417566727566206D
:10548000766F6E207478705F746872656164282925
:105490000D0A0053756D6D652F416E7A203D2025F4
:1054A0006C752F257520204D6178203D20257520B5
:1054B00020416E7A55656265724772656E7A652025
:1054C0003D202575007478702D746C6E7665727A47
:1054D0002E636769004665686C657220696D205AA5
:1054E000757361747A2D454550524F4D00202F2021
:1054F000253032580D0A005478503A202120456555
:1055000070726F6D204C6164656665686C657220B1
:105510002564003C62723E5A75722675756D6C3B4F
:10552000636B207A756D203C6120687265663D2250
:105530007478702D746C6E7665727A2E636769224A
:105540003E5465696C6E65686D65722D5665727A3C
:10555000656963686E69733C2F613E004665686CDF
:1055600065723A20756E6775656C7469676572203F
:105570004347492D4175667275663A202573006B65
:105580006F6D706C6574742067656C266F756D6CDB
:105590003B73636874004572666F6C67726569631C
:1055A000682067656C6164656E20282564204279F7
:1055B00074657329003C623E4665686C65722062C2
:1055C00065696D204C6164656E2028436F64657366
:1055D000202564202F2025303258293C2F623E00A0
:1055E0004572666F6C677265696368206765737082
:1055F0006569636865727420282564204279746542
:105600007329003C623E4665686C6572206265697C
:105610006D2053706569636865726E2028436F64FE
:105620006573202564202F2025303258293C2F62B5
:105630003E003C623E5465696C6E65686D65726CD7
:105640006973746520766F6C6C2C2045696E74727A
:105650006167206E6963687420676573706569634C
:10566000686572743C2F623E3C62723E003C623E52
:10567000416C7465204E756D6D657220256C6420DB
:105680006B6F6E6E7465206E696368742067656CFD
:10569000266F756D6C3B7363687420776572646503
:1056A0006E213C2F623E3C62723E0045696E747210
:1056B000616720756E7665722661756D6C3B6E64F0
:1056C0006572743C62723E0045696E747261672057
:1056D00067657370656963686572743C62723E00E9
:1056E0003C623E5275666E756D6D657220697374AD
:1056F000206265726569747320766572676562659C
:105700006E2C202641756D6C3B6E646572756E67FC
:10571000206E696368742067657370656963686586
:1057200072743C2F623E3C62723E003C623E6B658E
:10573000696E65202641756D6C3B6E646572756E91
:10574000673C2F623E3C62723E003C623E556E6298
:10575000656B616E6E74657220547970213C2F62A6
:105760003E3C62723E00654D61696C3A2041647254
:10577000657373652025733C62723E00506F7274CE
:105780002025753C62723E0041736369693A204985
:1057900050202573200041736369693A2055726C6B
:1057A0002025732000506F72742025752044757277
:1057B00063687761686C20257320282575293C6211
:1057C000723E0054656C657850686F6E653A20498A
:1057D00050202573200054656C657850686F6E65A5
:1057E0003A2055726C202573200067656C266F7512
:1057F0006D6C3B736368743C62723E0067657370E6
:10580000657272743C62723E006E7572204C6F6BF2
:10581000616C3C62723E004E616D653A2025733CBE
:1058200062723E003C62723E006568656D2E202506
:105830006C640068696E7A75662675756D6C3B6779
:10584000656E005465696C6E65686D657265696E3C
:10585000747261673A3C62723E5275666E756D6D28
:1058600065723A20256C6420003C623E5275666E7B
:10587000756D6D65722030206E6963687420657285
:105880006C61756274213C2F623E3C62723E002660
:1058900041756D6C3B6E6465726E0048696E7A7519
:1058A000662675756D6C3B67656E0044757263683E
:1058B0007761686C3A00506F72743A0041647265A7
:1058C0007373653A005479703A0067657370657256
:1058D00072743A006E7572204C6F6B616C3A004EB8
:1058E000616D653A003C696E707574206E616D651E
:1058F0003D22616C746E756D6D65722220747970D5
:10590000653D2268696464656E222076616C756508
:105910003D22256C64223E005275666E756D6D6584
:10592000723A007478702D746C6E7665727A2E639C
:105930006769003C2F7461626C653E4E6F6368203E
:105940006B65696E652045696E74722661756D6C54
:105950003B676520766F7268616E64656E3C703E71
:105960003C6120687265663D227478702D746C6E9F
:105970007665727A2E6367693F6C6F6164223E6759
:1059800065737065696368657274652044617465E8
:105990006E207769656465726865727374656C6C96
:1059A000656E3C2F613E3C62723E3C6120687265D0
:1059B000663D227478702D746C6E7665727A2E63F3
:1059C00067693F656469743D30223E48696E7A7547
:1059D000662675756D6C3B67656E3C2F613E3C2F8E
:1059E000666F726D3E003C74723E3C74643E2623CA
:1059F0003136303B3C2F74643E3C74643E26233188
:105A000036303B3C2F74643E3C74643E2623313672
:105A1000303B3C2F74643E3C74643E262331363068
:105A20003B3C2F74643E3C74643E26233136303B4D
:105A30003C2F74643E3C74643E26233136303B3C3C
:105A40002F74643E3C74643E26233136303B3C2F39
:105A500074643E3C74643E26233136303B3C2F74E4
:105A6000643E3C74643E3C6120687265663D22740D
:105A700078702D746C6E7665727A2E6367693F65F7
:105A80006469743D30223E48696E7A756626757584
:105A90006D6C3B67656E3C2F613E3C2F74643E3CF1
:105AA0002F7461626C653E3C6120687265663D22C0
:105AB0007478702D746C6E7665727A2E6367693FA8
:105AC00073617665223E6E69636874666C267575CF
:105AD0006D6C3B63687469672073706569636865A2
