:100000000C94864F0C9488500C94B3500C94DE5092
:100010000C9409510C9434510C945F510C948A51F6
:100020000C94B5510C94FE4F0C94FE4F0C94FE4F63
:100030000C9442AE0C94FE4F0C94FE4F0C94FE4F69
:100040000C94FE4F0C9471550C94FE4F0C94FE4F83
:100050000C94FE4F0C94295D0C94FE4F0C94FE4FB3
:100060000C94FE4F0C94BE560C947D560C94625624
:100070000C94FE4F0C94FE4F0C94FE4F0C94FE4FCC
:100080000C94FE4F0C94FE4F0C94FE4F0C94FE4FBC
:100090000C94C2570C9436570C94F9560D94161CB8
:1000A0000C94FE4F0C94FE4F0C94FE4F0C94FE4F9C
:1000B0000C94FE4F0C94FE4F0C94FE4F0C94FE4F8C
:1000C0000C94FE4F0C94FE4F0C94FE4F0C0D0E0F33
:1000D000253032783A253032783A253032783A2550
:1000E0003032783A253032783A253032780025643B
:1000F0002E25642E25642E25640044484350206D2F
:10010000736720747970652035332076616C75656E
:100110002025750D0A0044484350206D73672074F4
:100120007970652035332076616C75652025750DF5
:100130000A004950004D41534B00444E5300474183
:10014000544500444843502D436F6E6669672067ED
:1001500065686F6C740D0A00444843502D436F6E00
:10016000666967204665686C67657363686C61677C
:10017000656E0D0A00207C2D3E20566572737563F6
:10018000686520444843502D436F6E666967207A46
:100190007520686F6C656E2E2000206665686C6740
:1001A000657363686C6167656E0D0A00206665683B
:1001B0006C67657363686C6167656E0D0A00205A31
:1001C0006569743A20253032643A253032643A2524
:1001D0003032642E253032640D0A004E545053459F
:1001E00052564552005554435A4F4E4500207C2DDF
:1001F0003E204E54502D536572766572205A6569C3
:100200007420616B7475616C6973696572656E3AAF
:10021000006F6E004E545000207C202020444E532E
:10022000202020203A2025730D0A00207C20202049
:10023000476174657761793A2025730D0A00207C47
:100240002020204E65746D61736B3A2025730D0A72
:1002500000207C202020495020202020203A2025EA
:10026000730D0A006F6E00444843500044484350E9
:1002700000207C2D3E20544350202848757272691E
:1002800063616E2D656E67696E652920696E69749C
:1002900069616C6973696572740D0A00207C2D3E7A
:1002A000205544502028546F726E61646F2D656E26
:1002B00067696E652920696E697469616C69736923
:1002C0006572740D0A002D2B2D3E2041525020697D
:1002D0006E697469616C6973696572740D0A0020D6
:1002E0004C696E6B2072656164790D0A0020467559
:1002F0006C6C6475706C65783A00454E4332386AB0
:10030000363020285265762E3A2025642920696EE1
:10031000697469616C697369657274202820485733
:100320002D4164643A20253032783A253032783ACB
:10033000253032783A253032783A253032783A25ED
:100340003032782029004D4143004D4143004D4358
:1003500050636F6E666967000D0A000A002563002E
:10036000436F6E6669672069737420256420627923
:100370007465732067726F73732C20256420627913
:1003800074652077657264656E2062656E75747A37
:10039000742E204F66667365742025640D0A0D0A5D
:1003A000004F46460057524954455F50524F5445FE
:1003B00043540020496E697469616C6973696572A0
:1003C000740D0A00204572726F720D0A0054485273
:1003D000454144005348454C4C0046696C6573796F
:1003E0007374656D004D4D432F5344004558544977
:1003F0004E5400436F6E666967004C45445F636FFF
:10040000726500434C4F434B005354444F555400C6
:1004100055415254006954656C65782E2E2E0D0A94
:10042000003EFFFFFF3F3435363738393A3B3C3D1D
:10043000FFFFFFFFFFFFFF0001020304050607089F
:10044000090A0B0C0D0E0F101112131415161718A4
:1004500019FFFFFFFFFFFF1A1B1C1D1E1F2021227B
:10046000232425262728292A2B2C2D2E2F303132E4
:10047000334142434445464748494A4B4C4D4E4F11
:10048000505152535455565758595A6162636465D6
:10049000666768696A6B6C6D6E6F70717273747584
:1004A000767778797A303132333435363738392BBC
:1004B0002F002F6E69632F7570646174653F686FDC
:1004C00073746E616D653D2573006D656D62657257
:1004D000732E64796E646E732E6F72670063686545
:1004E000636B69702E64796E646E732E6F72670031
:1004F000474554200020485454502F312E300D0AC7
:10050000557365722D4167656E743A20576765743F
:100510002F312E31312E340D0A4163636570743AE8
:10052000202A2F2A0D0A486F73743A20000D0A41C1
:100530007574686F72697A6174696F6E3A2042618E
:100540007369632025730D0A0D0A000D0A0D0A0058
:100550002F00436F6E74656E742D4C656E67746802
:100560003A2000485454502F312E000D0A00436F9A
:100570006D6D616E64733A0D0A0D0A0068656C70EA
:1005800000485454502F312E30203430330D0A435C
:100590006F6E74656E742D547970653A2074657849
:1005A000742F68746D6C0D0A4B6565702D416C6914
:1005B00076653A20636C6F73650D0A0D0A3C4854EA
:1005C0004D4C3E3C424F44593E3430332046696CDA
:1005D00065206E6F7420666F756E64213C2F424FEC
:1005E00044593E3C2F48544D4C3E0D0A0D0A0050D4
:1005F0004F53540047455400687474706400485465
:1006000054502D53657276657220506F7274202598
:10061000642E0D0A00696E6465782E68746D6C0036
:100620003C2F424F44593E3C2F48544D4C3E0D0AFE
:100630000D0A003C48544D4C3E3C484541443E3C2C
:100640006D65746120687474702D65717569763D8F
:1006500022657870697265732220636F6E74656EAF
:10066000743D2230223E3C212D2D20456E61626C6E
:100670006520494539205374616E6461726473204A
:100680006D6F6465202D2D3E3C6D6574612068742E
:1006900074702D65717569763D22582D55412D4335
:1006A0006F6D70617469626C652220636F6E746532
:1006B0006E743D2249453D3922203E3C2F4845413C
:1006C000443E3C424F44593E00485454502F312E32
:1006D000312032303020446F63756D656E74206652
:1006E0006F6C6C6F77730D0A436F6E74656E742D4B
:1006F000547970653A20746578742F68746D6C0D48
:100700000A43616368652D436F6E74726F6C3A20A3
:100710006E6F2D63616368650D0A436F6E6E65636E
:1007200074696F6E3A20636C6F73650D0A0D0A0071
:10073000696E6465782E68746D6C003C48544D4C4D
:100740003E3C484541443E3C5449544C453E692D4D
:1007500054656C65783C2F5449544C453E3C2F48B9
:100760004541443E3C6672616D6573657420726FED
:1007700077733D2236342C34302C2A2C343022200E
:100780007363726F6C6C696E673D226E6F222066B8
:1007900072616D65626F726465723D223222206201
:1007A0006F726465723D223222206672616D6573DC
:1007B000706163696E673D22322220626F726465E8
:1007C00072636F6C6F723D222330303030303022D4
:1007D0003E3C6672616D65207372633D226865619F
:1007E000646C696E652E68746D6C22206E616D6537
:1007F0003D224E617669676174696F6E31222073A4
:1008000063726F6C6C696E673D226175746F223E16
:100810003C6672616D65207372633D226D61696E25
:100820006D656E752E68746D6C22206E616D653D10
:10083000224E617669676174696F6E32222073633C
:10084000726F6C6C696E673D226175746F223E3CFD
:100850006672616D65207372633D22696E666F2EEC
:1008600068746D6C22206E616D653D226D61696EEC
:10087000223E3C6672616D65207372633D22737423
:100880006174732E63676922206E616D653D227508
:10089000706461746522207363726F6C6C696E673B
:1008A0003D226175746F223E3C6E6F6672616D65AC
:1008B000733E3C626F64793E3C703E4968722042F0
:1008C000726F7773657220756E74657273742675B6
:1008D000756D6C3B747A74206B65696E6520467229
:1008E000616D6573213C2F703E3C2F626F64793ED1
:1008F0003C2F6E6F6672616D65733E3C2F66726150
:100900006D657365743E3C2F48544D4C3E0D0A0D89
:100910000A00686561646C696E652E68746D6C00B0
:100920003C48544D4C3E3C424F44592074657874C9
:100930003D222330303030433022207374796C658F
:100940003D226261636B67726F756E642D696D61C4
:1009500067653A75726C286C6F6368737472656949
:1009600066656E2D68672E706E6729223E3C737037
:10097000616E207374796C653D22666F6E743A20E7
:10098000626F6C6420343070782027436F75726911
:100990006572204E6577272C274C7563696461204A
:1009A000436F6E736F6C65272C6D6F6E6F73706124
:1009B00063653B20223E3C623E692D54656C657840
:1009C000202D20546F4950202D2074656C657820AF
:1009D0006F76657220696E7465726E65743C2F6205
:1009E0003E3C2F7370616E3E3C2F424F44593E3C5B
:1009F0002F48544D4C3E0D0A0D0A006C6F6368730E
:100A00007472656966656E2D68672E706E67008901
:100A1000504E470D0A1A0A0000000D494844520082
:100A20000002250000003F0403000000CD91A50C4A
:100A300000000030504C5445FFFF66C0C0C0FF00AE
:100A400000000000000000000000000000000000A6
:100A50000000000000000000000000000000000096
:100A60000000000000000000C3145A130000000939
:100A70007048597300000B1300000B1301009A9C7F
:100A8000180000027F4944415478DAED5B5B72C381
:100A9000200CB47302ABF73F6CE33CA8C9EAB12465
:100AA000D30969573F558C84F10E428BA0CB227934
:100AB0009093201026C2E4594CD6EDFCD796837251
:100AC000914EB934A1B036AD2978C5E23E093A5C01
:100AD000466D82612498AC66DB62663FCAB58FA31F
:100AE000726972DE43DAB4A6E015D8E1ED57FDC1B4
:100AF0008CCDEDCD07E3DC6B3A4CB6E36718F1A97A
:100B0000C64D9373CFCDB8F03AEDD6B61B6D4DB947
:100B1000BBFD28E67642DBB426FF15D86133263EBE
:100B2000D5C869F2300C613288896247987C2026EA
:100B300053E41D09CFD990DB18C98890CE55EE0536
:100B40001B4C781DE385542DA7A061ECB4A91E4C65
:100B5000EC384030AC2AF760AA770A36D15E1832FA
:100B60007EECDCBD26C5A42DB690AF9D2785172E43
:100B7000ADC11A7BF78AF809E6F1351E0CF29380B5
:100B8000E70C4C138EC3305E484B0ABA254C3C4CE4
:100B9000143B183BC2E443307973DE9188C70A9353
:100BA0002731D9A368DD034CCA55F1D6D8F72A9767
:100BB00005707DA7224C3C4C1432183B4EADE09F93
:100BC0002BCA3BCAC5AFD7D9FA529511352BCBBD2D
:100BD000B009CB74D861500034D72629A6255E47CA
:100BE0009B74BFD36F7CB0DA5CEC89D00B9B9CED1F
:100BF0005267DC27856E0BD3EF6EBA0C126C6A124B
:100C0000AFA3CD7C98F49BD67606815BDD6E17DCB6
:100C10009E249BDFC4ABB3496B4A5D5926384A4BCF
:100C2000EA4EE8854DC5215D52EC42F7EAB02FF15E
:100C3000EA6C848987896207634798CC8FC90C79ED
:100C400047F20A67634E4219D265041B2C0E379394
:100C50009359FA8437247803B1C354A41363BF585B
:100C6000EDC4971F29556D9971C73AB6DBF37C988F
:100C7000042B6A7106D1DB24F758708D051B9E9FEB
:100C800030A77E0CC1A8384C721C397C3D2C6150B9
:100C9000099911261E268A1D8C1D61323F2633E4D8
:100CA0001D09C5D982625AC2EB98FF5358083638DD
:100CB00024C317DB98F104B1136C6A92F862EE8BCF
:100CC00006900CDCD4F142A6681ABA96F0073019E7
:100CD000BE88527965FCC42F1C251C86B9931F8FD2
:100CE000DE9E9E268397B898F10813C50E1F3BC25F
:100CF000447987C93B1261224C848930F93D4C4CC0
:100D0000F2205FDF827D01B9877BC8E3000000002D
:100D100049454E44AE4260826D61696E6D656E7587
:100D20002E68746D6C003C48544D4C3E3C48454127
:100D3000443E3C6C696E6B2072656C3D2273747925
:100D40006C6573686565742220747970653D2274E2
:100D50006578742F6373732220687265663D227311
:100D600074796C652E637373223E3C2F4845414471
:100D70003E3C424F4459206267636F6C6F723D2264
:100D800023433046464330223E3C6120687265660C
:100D90003D22696E666F2E68746D6C227461726795
:100DA00065743D226D61696E223E496E666F3C2F0F
:100DB000613E202F203C6120687265663D22697487
:100DC000656C65782D6D656E752D64652E68746D26
:100DD0006C223E692D54656C6578202844657574D5
:100DE000736368293C2F613E202F203C612068728C
:100DF00065663D226974656C65782D6D656E752D2F
:100E0000656E2E68746D6C223E692D54656C657834
:100E10002028456E676C697368293C2F613E3C2F22
:100E2000424F44593E3C2F48544D4C3E0D0A0D0A4A
:100E3000006E6574776F726B2D64652E68746D6CCF
:100E4000003C48544D4C3E3C484541443E3C6C6956
:100E50006E6B2072656C3D227374796C6573686586
:100E600065742220747970653D22746578742F63EF
:100E700073732220687265663D227374796C652EE7
:100E8000637373223E3C2F484541443E3C424F44ED
:100E900059206267636F6C6F723D22234330464670
:100EA0004330223E3C6120687265663D226974656C
:100EB0006C65786366672D6D656E752D64652E684B
:100EC000746D6C223E7A75722675756D6C3B636B22
:100ED0003C2F613E202F203C6120687265663D22D8
:100EE0006E6574776F726B2E6367693F7370723DC6
:100EF000646522207461726765743D226D61696E5C
:100F0000223E496E666F733C2F613E202F203C616C
:100F100020687265663D226E6574776F726B2E6312
:100F200067693F7370723D646526636F6E666967BB
:100F300022207461726765743D226D61696E223E84
:100F40004B6F6E66696775726174696F6E3C2F6175
:100F50003E3C2F424F44593E3C2F48544D4C3E0D91
:100F60000A0D0A006E6574776F726B2D656E2E68C0
:100F7000746D6C003C48544D4C3E3C484541443EE9
:100F80003C6C696E6B2072656C3D227374796C6584
:100F900073686565742220747970653D2274657884
:100FA000742F6373732220687265663D22737479AF
:100FB0006C652E637373223E3C2F484541443E3C92
:100FC000424F4459206267636F6C6F723D22234326
:100FD0003046464330223E3C6120687265663D22C1
:100FE0006974656C65786366672D6D656E752D65D2
:100FF0006E2E68746D6C223E6261636B3C2F613EA5
:10100000202F203C6120687265663D226E657477F2
:101010006F726B2E6367693F7370723D656E22203D
:101020007461726765743D226D61696E223E496E1E
:10103000666F733C2F613E202F203C6120687265F3
:10104000663D226E6574776F726B2E6367693F73BE
:1010500070723D656E26636F6E66696722207461EB
:10106000726765743D226D61696E223E436F6E66E4
:10107000696775726174696F6E3C2F613E3C2F42E7
:101080004F44593E3C2F48544D4C3E0D0A0D0A002A
:1010900073797374656D2D64652E68746D6C003C96
:1010A00048544D4C3E3C484541443E3C6C696E6B57
:1010B0002072656C3D227374796C65736865657424
:1010C0002220747970653D22746578742F63737380
:1010D0002220687265663D227374796C652E637395
:1010E00073223E3C2F484541443E3C424F445920E8
:1010F0006267636F6C6F723D222343304646433014
:10110000223E3C6120687265663D226974656C65AB
:10111000786366672D6D656E752D64652E68746DD8
:101120006C223E7A75722675756D6C3B636B3C2F35
:10113000613E202F203C6120687265663D22726509
:101140007365742E6367693F7370723D6465222016
:101150007461726765743D226D61696E223E5265ED
:101160007365743C2F613E202F203C6120687265BE
:10117000663D226E74702E6367693F7370723D64C2
:101180006522207461726765743D226D61696E220B
:101190003E4E54503C2F613E202F203C612068720F
:1011A00065663D2264796E646E732E6367693F7372
:1011B00070723D646522207461726765743D226DB2
:1011C00061696E223E44796E444E533C2F613E204D
:1011D0002F203C6120687265663D2265656D656DF6
:1011E0002E6367693F7370723D646522207461727B
:1011F0006765743D226D61696E223E45456D656D82
:101200003C2F613E202F203C6120687265663D22A4
:1012100063726F6E2E6367693F7370723D646522FF
:10122000207461726765743D226D61696E223E6350
:10123000726F6E3C2F613E3C2F424F44593E3C2F13
:1012400048544D4C3E0D0A0D0A0073797374656D58
:101250002D656E2E68746D6C003C48544D4C3E3CC0
:10126000484541443E3C6C696E6B2072656C3D2282
:101270007374796C65736865657422207479706520
:101280003D22746578742F637373222068726566DB
:101290003D227374796C652E637373223E3C2F4834
:1012A0004541443E3C424F4459206267636F6C6F36
:1012B000723D2223433046464330223E3C61206843
:1012C0007265663D226974656C65786366672D6D2D
:1012D000656E752D656E2E68746D6C223E6261635D
:1012E0006B3C2F613E202F203C6120687265663D7B
:1012F0002272657365742E6367693F7370723D6512
:101300006E22207461726765743D226D61696E2280
:101310003E52657365743C2F613E202F203C612056
:10132000687265663D226E74702E6367693F7370E4
:10133000723D656E22207461726765743D226D6135
:10134000696E223E4E54503C2F613E202F203C615E
:1013500020687265663D2264796E646E732E6367E1
:10136000693F7370723D656E2220746172676574A7
:101370003D226D61696E223E44796E444E533C2F8E
:10138000613E202F203C6120687265663D226565C4
:101390006D656D2E6367693F7370723D656E2220C7
:1013A0007461726765743D226D61696E223E4545C8
:1013B0006D656D3C2F613E202F203C612068726579
:1013C000663D2263726F6E2E6367693F7370723D74
:1013D000656E22207461726765743D226D61696E6D
:1013E000223E63726F6E3C2F613E3C2F424F445948
:1013F0003E3C2F48544D4C3E0D0A0D0A00696E6666
:101400006F2E68746D6C003C48544D4C3E3C424F0E
:1014100044593E3C7072653E3C703E202057656CDE
:10142000636F6D6520746F0D0A5F5F5F5F5F5F5F65
:101430005F5F5F5F5F5F5F5F5F5F5F5F5F5F5F5FBC
:101440005F5F5F5F5F5F5F5F5F5F5F5F5F5F5F5FAC
:101450005F5F5F5F5F5F5F0D0A20204F4F4F20206F
:10146000202020204F4F4F4F4F20204F4F4F4F4FA6
:1014700020204F2020202020204F4F4F4F4F202052
:101480004F2020204F20200D0A2020204F202020F8
:101490002020202020204F202020204F20202020EE
:1014A00020204F2020202020204F202020202020DE
:1014B000204F204F2020200D0A202E2E2E2E2E2EA3
:1014C0002E2E2E2E2E2E2E2E2E2E2E2E2E2E2E2E3C
:1014D0002E2E2E2E2E2E2E2E2E2E2E2E2E2E2E2E2C
:1014E0002E2E2E2E2E2E2E0D0A2020204F20202094
:1014F0004F4F4F2020204F202020204F4F4F2020A3
:1015000020204F2020202020204F4F4F202020201F
:1015100020204F202020200D0A2020204F20202096
:101520002020202020204F202020204F202020205D
:1015300020204F2020202020204F2020202020204D
:10154000204F204F2020200D0A20204F4F4F2020D9
:101550002020202020204F202020204F4F4F4F4F71
:1015600020204F4F4F4F4F20204F4F4F4F4F2020A5
:101570004F2020204F20200D0A5F5F5F5F5F5F5F7D
:101580005F5F5F5F5F5F5F5F5F5F5F5F5F5F5F5F6B
:101590005F5F5F5F5F5F5F5F5F5F5F5F5F5F5F5F5B
:1015A0005F5F5F5F5F5F5F0D0A4275696C64203447
:1015B000393520617420446174653A204E6F76207D
:1015C000323420323031332030303A31353A31350F
:1015D0000D0A4D6F64756C65733A20692D54656C06
:1015E0006578204E616D6573657276657220456D14
:1015F00061696C0D0A0D0A6275696C64206F6E205A
:101600004156522D6C6962632076657273696F6E04
:101610003A20312E362E372F3230303930373032B3
:101620002077697468206176722D67636320342E99
:10163000332E330D0A0D0A286329323030362D320D
:10164000303133202020536F6674776172653A2001
:101650004672656420536F6E6E656E7265696E0DBD
:101660000A6261736564206F6E204F70656E4D4332
:1016700050206279204469726B2042726F737377D5
:1016800069636B0D0A3C2F7072653E3C2F703E3CC7
:101690002F424F44593E3C2F48544D4C3E0D0A00BA
:1016A0007374796C652E6373730040636861727341
:1016B0006574202249534F2D383835392D31220D8C
:1016C0000A202020613A6C696E6B207B207465785B
:1016D000742D6465636F726174696F6E3A6E6F6EBC
:1016E000653B20666F6E742D7765696768743A6232
:1016F0006F6C643B20636F6C6F723A233030303014
:1017000041303B207D200D0A202020613A7669730C
:1017100069746564207B20746578742D6465636FDB
:10172000726174696F6E3A6E6F6E653B20666F6EA4
:10173000742D7765696768743A626F6C643B2063E7
:101740006F6C6F723A234130303041303B207D2046
:101750000D0A202020613A686F766572207B207424
:101760006578742D6465636F726174696F6E3A6E2B
:101770006F6E653B20666F6E742D77656967687460
:101780003A626F6C643B206261636B67726F756E67
:10179000642D636F6C6F723A234646434343433B69
:1017A000207D200D0A202020613A616374697665EE
:1017B000207B20746578742D6465636F7261746931
:1017C0006F6E3A6E6F6E653B20666F6E742D776537
:1017D000696768743A626F6C643B206261636B672F
:1017E000726F756E642D636F6C6F723A2346464656
:1017F0004643433B207D200D0A202020613A666F3E
:10180000637573207B20746578742D6465636F72D3
:101810006174696F6E3A6E6F6E653B20666F6E74B1
:101820002D7765696768743A626F6C643B2062610A
:10183000636B67726F756E642D636F6C6F723A23A2
:101840004343434346463B207D200D0A2020207021
:101850007265207B206F766572666C6F773A2073B5
:1018600063726F6C6C3B207D0D0A006974656C655A
:10187000782D6D656E752D64652E68746D6C003CF9
:1018800048544D4C3E3C484541443E3C6C696E6B6F
:101890002072656C3D227374796C6573686565743C
:1018A0002220747970653D22746578742F63737398
:1018B0002220687265663D227374796C652E6373AD
:1018C00073223E3C2F484541443E3C424F44592000
:1018D0006267636F6C6F723D22234330464643302C
:1018E000223E3C6120687265663D226D61696E6DC5
:1018F000656E752E68746D6C223E7A7572267575EC
:101900006D6C3B636B3C2F613E202F203C61206857
:101910007265663D226974656C65782D6D73672DFF
:1019200064652E68746D6C22207461726765743D05
:10193000226D61696E223E4E6163687269636874EC
:101940002073656E64656E3C2F613E202F203C61E4
:1019500020687265663D226974656C65782D746CCB
:101960006E7665727A2E6367693F7370723D646547
:1019700022207461726765743D226D61696E223E3A
:101980005465696C6E65686D65722D5665727A6511
:101990006963686E69733C2F613E202F203C612093
:1019A000687265663D226974656C65786366672D4B
:1019B0006D656E752D64652E68746D6C223E692DA3
:1019C00054656C65782D45696E7374656C6C756EC5
:1019D00067656E3C2F613E202F203C612068726558
:1019E000663D226974656C65782D64656275672E45
:1019F00063676922207461726765743D226D616955
:101A00006E223E44656275672D496E666F733C2F8A
:101A1000613E202F203C6120687265663D2269741A
:101A2000656C65782D747769746C6E6C6973746518
:101A30002E6367693F7370723D6465222074617222
:101A40006765743D226D61696E223E4275732D5447
:101A50006C6E2D4C697374653C2F613E202F203CC9
:101A60006120687265663D2273646469722E6367E3
:101A70006922207461726765743D226D61696E220E
:101A80003E53442D4B617274653C2F613E3C2F42A6
:101A90004F44593E3C2F48544D4C3E0D0A0D0A0010
:101AA0006974656C65782D6D656E752D656E2E6833
:101AB000746D6C003C48544D4C3E3C484541443E9E
:101AC0003C6C696E6B2072656C3D227374796C6539
:101AD00073686565742220747970653D2274657839
:101AE000742F6373732220687265663D2273747964
:101AF0006C652E637373223E3C2F484541443E3C47
:101B0000424F4459206267636F6C6F723D222343DA
:101B10003046464330223E3C6120687265663D2275
:101B20006D61696E6D656E752E68746D6C223E62B6
:101B300061636B3C2F613E202F203C612068726501
:101B4000663D226974656C65782D6D73672D656ED1
:101B50002E68746D6C22207461726765743D226D0D
:101B600061696E223E53656E64206D6573736167B3
:101B7000653C2F613E202F203C6120687265663DE8
:101B8000226974656C65782D746C6E7665727A2E38
:101B90006367693F7370723D656E2220746172677E
:101BA00065743D226D61696E223E53756273637286
:101BB00069626572206469726563746F72793C2F23
:101BC000613E202F203C6120687265663D22697469
:101BD000656C65786366672D6D656E752D656E2E17
:101BE00068746D6C223E692D54656C657820736550
:101BF0007474696E67733C2F613E202F203C612016
:101C0000687265663D226974656C65782D646562ED
:101C100075672E63676922207461726765743D225F
:101C20006D61696E223E646562756720696E666FDC
:101C30003C2F613E202F203C6120687265663D226A
:101C40006974656C65782D747769746C6E6C6973F2
:101C500074652E6367693F7370723D656E222074F0
:101C600061726765743D226D61696E223E6C6973B5
:101C700074206F66206D6F64756C65733C2F613ED8
:101C8000202F203C6120687265663D227364646980
:101C9000722E63676922207461726765743D226DDC
:101CA00061696E223E534420636172643C2F613E41
:101CB0003C2F424F44593E3C2F48544D4C3E0D0A58
:101CC0000D0A006974656C65786366672D6D656ED5
:101CD000752D64652E68746D6C003C48544D4C3E07
:101CE0003C484541443E3C6C696E6B2072656C3DDE
:101CF000227374796C6573686565742220747970D9
:101D0000653D22746578742F637373222068726551
:101D1000663D227374796C652E637373223E3C2F8B
:101D2000484541443E3C424F4459206267636F6CD2
:101D30006F723D2223433046464330223E3C6120B1
:101D4000687265663D226974656C65782D6D656E97
:101D5000752D64652E68746D6C223E7A75722675D9
:101D6000756D6C3B636B3C2F613E202F203C6120E6
:101D7000687265663D226974656C65786366672D77
:101D8000696E7465726E2E6367693F7370723D642D
:101D90006522207461726765743D226D61696E22EF
:101DA0003E45696E7374656C6C756E67656E20690F
:101DB0006D206C6F6B616C656E205478502D53797B
:101DC0007374656D3C2F613E202F203C612068724A
:101DD00065663D226974656C65786366672D657814
:101DE0007465726E2E6367693F7370723D6465221D
:101DF000207461726765743D226D61696E223E4593
:101E0000696E7374656C6C756E67656E20696D20A4
:101E1000692D54656C65782D4E65747A3C2F613E52
:101E2000202F203C6120687265663D226974656CD4
:101E300065786366672D656D61696C2E6367693FC0
:101E40007370723D646522207461726765743D220F
:101E50006D61696E223E654D61696C2D45696E73D9
:101E600074656C6C756E67656E3C2F613E202F202B
:101E70003C6120687265663D226E6574776F726B97
:101E80002D64652E68746D6C223E4E65747A77659C
:101E9000726B3C2F613E202F203C6120687265668A
:101EA0003D2273797374656D2D64652E68746D6C55
:101EB000223E53797374656D3C2F613E202F203C88
:101EC0006120687265663D226974656C6578636639
:101ED000672D7370657272656E2E6367693F7370EC
:101EE000723D646522207461726765743D226D6184
:101EF000696E223E5370657272656E3C2F613E3C86
:101F00002F424F44593E3C2F48544D4C3E0D0A0D34
:101F10000A006974656C65786366672D6D656E751A
:101F20002D656E2E68746D6C003C48544D4C3E3CE3
:101F3000484541443E3C6C696E6B2072656C3D22A5
:101F40007374796C65736865657422207479706543
:101F50003D22746578742F637373222068726566FE
:101F60003D227374796C652E637373223E3C2F4857
:101F70004541443E3C424F4459206267636F6C6F59
:101F8000723D2223433046464330223E3C61206866
:101F90007265663D226974656C65782D6D656E7538
:101FA0002D656E2E68746D6C223E6261636B3C2FF2
:101FB000613E202F203C6120687265663D22697475
:101FC000656C65786366672D696E7465726E2E63E5
:101FD00067693F7370723D656E2220746172676538
:101FE000743D226D61696E223E6C6F63616C20737B
:101FF000657474696E67733C2F613E202F203C61CD
:1020000020687265663D226974656C6578636667F1
:102010002D65787465726E2E6367693F7370723DCB
:10202000656E22207461726765743D226D61696E10
:10203000223E692D54656C6578206E6574776F72E9
:102040006B2073657474696E67733C2F613E202F3B
:10205000203C6120687265663D226974656C657814
:102060006366672D656D61696C2E6367693F737088
:10207000723D656E22207461726765743D226D61E8
:10208000696E223E654D61696C2073657474696E7A
:1020900067733C2F613E202F203C6120687265668B
:1020A0003D226E6574776F726B2D656E2E68746D50
:1020B0006C223E4E6574776F726B3C2F613E202F11
:1020C000203C6120687265663D2273797374656D8A
:1020D0002D656E2E68746D6C223E53797374656D38
:1020E0003C2F613E202F203C6120687265663D22B6
:1020F0006974656C65786366672D73706572726567
:102100006E2E6367693F7370723D656E2220746145
:10211000726765743D226D61696E223E6C6F636B00
:102120003C2F613E3C2F424F44593E3C2F48544D7A
:102130004C3E0D0A0D0A006974656C65782D6D734F
:10214000672D64652E68746D6C003C48544D4C3EA0
:102150003C484541443E3C2F484541443E3C667224
:10216000616D6573657420726F77733D222A2C361A
:102170003022207363726F6C6C696E673D226E6FE4
:1021800022206672616D65626F726465723D2232F3
:102190002220626F726465723D2232222066726173
:1021A0006D6573706163696E673D22322220626FD4
:1021B00072646572636F6C6F723D22233030303011
:1021C0003030223E3C6672616D65207372633D2241
:1021D0006974656C65782D6D73672D6F75742E63EA
:1021E00067693F7370723D646522206E616D653D65
:1021F000224D73674F757422207363726F6C6C6924
:102200006E673D226175746F223E3C6672616D653A
:10221000207372633D226974656C65782D6D7367F8
:102220002D696E2E6367693F7370723D646522206D
:102230006E616D653D224D7367496E222073637236
:102240006F6C6C696E673D226E6F223E3C6E6F66EE
:1022500072616D65733E3C626F64793E3C703E49CD
:1022600068722042726F7773657220756E74657242
:102270007374C3BC747A74206B65696E6520467292
:10228000616D6573213C2F703E3C2F626F64793E17
:102290003C2F6E6F6672616D65733E3C2F66726196
:1022A0006D657365743E3C2F48544D4C3E0D0A0DD0
:1022B0000A006974656C65782D6D73672D656E2EE7
:1022C00068746D6C003C48544D4C3E3C484541445C
:1022D0003E3C2F484541443E3C6672616D657365E6
:1022E0007420726F77733D222A2C3630222073635C
:1022F000726F6C6C696E673D226E6F222066726130
:102300006D65626F726465723D22322220626F7267
:102310006465723D223222206672616D6573706160
:1023200063696E673D22322220626F726465726358
:102330006F6C6F723D2223303030303030223E3CA3
:102340006672616D65207372633D226974656C65A8
:10235000782D6D73672D6F75742E6367693F737089
:10236000723D656E22206E616D653D224D73674F33
:10237000757422207363726F6C6C696E673D2261A5
:1023800075746F223E3C6672616D65207372633DA9
:10239000226974656C65782D6D73672D696E2E6387
:1023A00067693F7370723D656E22206E616D653D99
:1023B000224D7367496E22207363726F6C6C696E75
:1023C000673D226E6F223E3C6E6F6672616D657373
:1023D0003E3C626F64793E3C703E496872204272B6
:1023E0006F7773657220756E7465727374C3BC7495
:1023F0007A74206B65696E65204672616D65732124
:102400003C2F703E3C2F626F64793E3C2F6E6F66AE
:1024100072616D65733E3C2F6672616D65736574A4
:102420003E3C2F48544D4C3E0D0A0D0A00282025F5
:102430006C6420427974652075656265727472619E
:1024400067656E20285344290D0A004854545020D3
:10245000736F636B657420636C6F7365642062795E
:1024600020636C69656E740D0A00485454502F3116
:102470002E312032303020446F63756D656E7420CC
:10248000666F6C6C6F77730D0A436F6E74656E7454
:102490002D4C656E6774683A20256C640D0A436F95
:1024A0006E74656E742D547970653A2025732573AA
:1024B0000D0A43616368652D436F6E74726F6C3AE9
:1024C000206D61782D6167653D333630300D0A43EC
:1024D0006F6E6E656374696F6E3A20636C6F7365BF
:1024E0000D0A0D0A00746578742F0068746D006819
:1024F000746D6C002820256C642042797465207509
:102500006562657274726167656E2028464C41533E
:1025100048290D0A000D0A436F6E74656E742D4CC8
:10252000656E6774683A2025640D0A4361636865C7
:102530002D436F6E74726F6C3A206D61782D6167F8
:10254000653D333630300D0A436F6E6E65637469D6
:102550006F6E3A20636C6F73650D0A0D0A00626935
:102560006E00746578742F68746D6C006A706567AE
:1025700000706E6700485454502F312E3120323095
:102580003020446F63756D656E7420666F6C6C6F80
:1025900077730D0A436F6E74656E742D5479706590
:1025A0003A20000D0A002066726F6D200068747476
:1025B000702D726571756573743A2000687474705B
:1025C0002D7365727665723A20257320003E2000D7
:1025D00051756974696E670D0A00717569740055EB
:1025E0006E642C206C6F73206765687427732E2EC1
:1025F0002E21212120282268656C70222068696CB8
:102600006674203A2D29290D0A3E200074656C6EEF
:1026100065740054656C6E65742D536572766572D1
:1026200020506F72742025642E0D0A0043524F4EC5
:102630005F454E5452595F253032640025643A207C
:102640006E696368742062656C6567740D0A0025A5
:10265000643A2025642025642025730D0A006372E6
:102660006F6E00666F6F2E636769002573202F20E1
:102670002573202F2025640D0A0049502F4D41431A
:102680002F54544C0D0A00617270003C2F424F448D
:10269000593E3C2F48544D4C3E0D0A0D0A003C4813
:1026A000544D4C3E3C484541443E3C6D6574612070
:1026B000687474702D65717569763D2272656672F5
:1026C0006573682220636F6E74656E743D223630C8
:1026D000303B20223E3C5449544C453E5374726575
:1026E000616D696E673C2F5449544C453E3C2F4800
:1026F0004541443E3C424F4459206267636F6C6FD2
:10270000723D22233232384232322220746578748C
:102710003D2223464646464646223E5A6569743A5D
:1027200020253032643A253032643A253032642E26
:102730002530326420282025752F25752F2530342B
:102740007520290050485354415432207C20307861
:10275000253034580D0A0050485354415431207CE0
:10276000203078253034580D0A005265762E4944C1
:1027700020207C2020203078253032580D0A002D72
:102780002D2D2D2D2D2D2D2B2D2D2D2D2D2D2D2D7B
:102790000D0A005265672E202020207C205765728C
:1027A000740D0A00454E4332384A36303A0D0A005D
:1027B0005443502D5458204572726F72733A20253D
:1027C00064205443502D5258204572726F72733AF0
:1027D0002025642028756E736F72746564202564EB
:1027E0002C206F6C64736571202564290D0A0D0A15
:1027F0000045746865726E65743A20256C642042E9
:102800007974657320696E20256C64205061636B58
:102810006574656E204C6F636B4572726F727320C6
:10282000256C640D0A0073746174732E636769000C
:1028300073746174730052657365740072657365B7
:1028400074007265736574007265736574003C662C
:102850006F726D20616374696F6E3D22726573657E
:10286000742E63676922206D6574686F643D22670A
:10287000657422206163636570742D63686172738F
:1028800065743D2249534F2D383835392D31223E5C
:102890003C703E3C696E70757420747970653D22A1
:1028A0007375626D697422206E616D653D2272657B
:1028B000736574222076616C75653D22726573655F
:1028C00074223E3C2F703E3C2F666F726D3E00724C
:1028D000657365742E63676900726573657400645F
:1028E0006E73203C686F73746E616D653E0D0A00F7
:1028F0004950207A75202573203D2025730D0A004C
:10290000646E730044484350004950004D41534B9E
:10291000004741544500444E53004D414300536528
:102920007474696E67732073617665642C207265B8
:10293000626F6F74206E6563657373617279207462
:102940006F2074616B6520656666656374210D0A8E
:10295000003C74723E3C746420616C69676E3D2279
:102960007269676874223E48617264776172652D8E
:102970004D41433C2F74643E3C74643E3C696E7030
:102980007574206E616D653D224D4143222074793E
:1029900070653D2274657874222073697A653D22E2
:1029A0003137222076616C75653D22257322206DBA
:1029B00061786C656E6774683D223137223E3C2F2A
:1029C00074643E3C2F74723E3C74723E3C74643EB0
:1029D0003C2F74643E3C74643E3C696E7075742098
:1029E000747970653D227375626D69742220766119
:1029F0006C75653D222053617665206368616E6762
:102A0000657320223E3C2F74643E3C2F74723E3C22
:102A10002F7461626C653E3C2F666F726D3E004D97
:102A20004143003C74723E3C746420616C69676E83
:102A30003D227269676874223E444E532D5365727D
:102A40007665723C2F74643E3C74643E3C696E70E3
:102A50007574206E616D653D22444E532220747959
:102A600070653D2274657874222073697A653D2211
:102A70003135222076616C75653D22257322206DEB
:102A800061786C656E6774683D223135223E3C2F5B
:102A900074643E3C2F74723E00444E53003C74728A
:102AA0003E3C746420616C69676E3D2272696768A0
:102AB00074223E476174657761793C2F74643E3CB3
:102AC00074643E3C696E707574206E616D653D2264
:102AD000474154452220747970653D2274657874AD
:102AE000222073697A653D223135222076616C752A
:102AF000653D22257322206D61786C656E67746870
:102B00003D223135223E3C2F74643E3C2F74723E90
:102B10000047415445003C74723E3C746420616C33
:102B200069676E3D227269676874223E4E65746DF6
:102B300061736B3C2F74643E3C74643E3C696E7000
:102B40007574206E616D653D224D41534B2220749A
:102B50007970653D2274657874222073697A653DC9
:102B6000223135222076616C75653D222573222045
:102B70006D61786C656E6774683D223135223E3C2C
:102B80002F74643E3C2F74723E004D41534B003C09
:102B900074723E3C746420616C69676E3D22726998
:102BA000676874223E495020616464726573733CA7
:102BB0002F74643E3C74643E3C696E707574206E84
:102BC000616D653D2249502220747970653D227403
:102BD000657874222073697A653D2231352220762A
:102BE000616C75653D22257322206D61786C656E80
:102BF0006774683D223135223E3C2F74643E3C2F81
:102C000074723E004950003E3C2F74643E3C2F7469
:102C1000723E00636865636B6564006F6E003C74B0
:102C2000723E3C746420616C69676E3D2272696714
:102C30006874223E44484350206163746976653C61
:102C40002F74643E3C74643E3C696E7075742074ED
:102C50007970653D22636865636B626F7822206ED0
:102C6000616D653D2244484350222076616C756554
:102C70003D226F6E22200044484350003C666F7234
:102C80006D20616374696F6E3D226E6574776F723B
:102C90006B2E636769223E3C7461626C6520626FD3
:102CA000726465723D2230222063656C6C706164D1
:102CB00064696E673D2235222063656C6C737061B8
:102CC00063696E673D2230223E00636F6E666967FE
:102CD000003C2F7072653E0D0A00737461747300BE
:102CE0006966636F6E666967003C7072653E0D0AC7
:102CF000000D0A48572D4164723A20253032783A47
:102D0000253032783A253032783A253032783A25F3
:102D10003032783A253032780D0A0D0A00444E538D
:102D20003A25730D0A00476174657761793A257316
:102D30000D0A004E65746D61736B3A25730D0A00C0
:102D400049503A25730D0A006E6574776F726B2EC9
:102D5000636769006966636F6E666967004E545009
:102D6000004E5450534552564552005554435A4F05
:102D70004E450045696E7374656C6C756E67656E63
:102D80002075656265726E6F6D6D656E210D0A004E
:102D90003C74723E3C746420616C69676E3D2272C3
:102DA00069676874223E534E54502D5365727665A0
:102DB000723C2F74643E3C74643E3C696E70757462
:102DC000206E616D653D224E54505345525645521A
:102DD0002220747970653D227465787422207369AD
:102DE0007A653D223235222076616C75653D22255B
:102DF0007322206D61786C656E6774683D22323590
:102E0000223E3C2F74643E3C2F74723E3C74723EF2
:102E10003C746420616C69676E3D227269676874F6
:102E2000223E5A6569747A6F6E653C2F74643E3C2D
:102E300074643E3C696E707574206E616D653D22F0
:102E40005554435A4F4E452220747970653D227483
:102E5000657874222073697A653D22332220766179
:102E60006C75653D22257322206D61786C656E67F7
:102E700074683D2233223E3C2F74643E3C2F7472B2
:102E80003E3C74723E3C74643E3C2F74643E3C7421
:102E9000643E3C696E70757420747970653D227370
:102EA00075626D6974222076616C75653D222045DE
:102EB000696E7374656C6C756E67202655756D6CE4
:102EC0003B6265726E65686D656E20223E3C2F74B4
:102ED000643E3C2F74723E3C2F7461626C653E3CD4
:102EE0002F666F726D3E00300074696D652E6675D9
:102EF0002D6265726C696E2E6465003E3C2F7464B1
:102F00003E3C2F74723E00636865636B6564006FBE
:102F10006E003C666F726D20616374696F6E3D2256
:102F20006E74702E636769223E0D3C7461626C653D
:102F300020626F726465723D2230222063656C6C82
:102F400070616464696E673D2235222063656C6C34
:102F500073706163696E673D2230223E3C74723E3D
:102F60003C746420616C69676E3D227269676874A5
:102F7000223E534E545020616B74697669657265C8
:102F80006E3C2F74643E3C74643E3C696E70757494
:102F900020747970653D22636865636B626F782287
:102FA000206E616D653D224E5450222076616C7515
:102FB000653D226F6E2220006E7470203C6E74702E
:102FC0007365727665723E0D0A004665686C6572BF
:102FD0000D0A004E657565205A6569743A202530E2
:102FE00032643A253032643A253032640D0A0048A2
:102FF0006F6C65205A65697420766F6E2025730D9D
:103000000A004665686C65720D0A006E74700026D1
:1030100044594E444E535F555345525057004459FE
:103020004E444E535F444F4D41494E0045696E73C7
:1030300074656C6C756E67656E2075656265726E21
:103040006F6D6D656E210D0A002D31202D313520FB
:103050002264796E646E73207570646174652200F9
:1030600044594E444E535F4F4E002D31202D313583
:10307000202264796E646E732075706461746522B9
:103080000044594E444E530044594E444E535F4FF2
:103090004E0044594E444E5300444F4D41494E005A
:1030A00044594E444E535F444F4D41494E00444FA6
:1030B0004D41494E004143434F554E54002644591B
:1030C0004E444E535F555345525057004143434F72
:1030D000554E54004143434F554E54003C666F7269
:1030E0006D20616374696F6E3D2264796E646E73E6
:1030F0002E636769223E0D203C7461626C6520621C
:103100006F726465723D2230222063656C6C706161
:103110006464696E673D2235222063656C6C737050
:103120006163696E673D2230223E20203C74723E0E
:103130000D2020203C746420616C69676E3D227212
:1031400069676874223E44796E444E5320616B7403
:103150006976696572656E3C2F74643E2020203C60
:1031600074643E3C696E70757420747970653D229C
:10317000636865636B626F7822206E616D653D22C6
:1031800044594E444E53222076616C75653D226F42
:103190006E22202573203E20203C2F74643E0D209B
:1031A000203C74723E0D2020203C746420616C69C8
:1031B000676E3D227269676874223E64796E444E80
:1031C00053204163636F756E742028207573657298
:1031D0003A707720293C2F74643E2020203C746490
:1031E0003E3C696E707574206E616D653D22414391
:1031F000434F554E542220747970653D2274657892
:1032000074222073697A653D223331222076616C05
:1032100075653D2222206D61786C656E6774683D2E
:10322000223331223E3C2F74643E20203C2F7472A6
:103230003E0D20203C74723E0D2020203C74642002
:10324000616C69676E3D227269676874223E4479D9
:103250006E444E5320446F6D61696E3C2F74643E22
:103260002020203C74643E3C696E707574206E6151
:103270006D653D22444F4D41494E22207479706561
:103280003D2274657874222073697A653D2233315A
:10329000222076616C75653D22257322206D617850
:1032A0006C656E6774683D223531223E3C2F746434
:1032B0003E20203C2F74723E0D20203C74723E0D47
:1032C0002020203C74643E3C2F74643E3C74643E79
:1032D0003C696E70757420747970653D22737562F7
:1032E0006D6974222076616C75653D222045696E9A
:1032F0007374656C6C756E67202655756D6C3B62DA
:1033000065726E65686D656E20223E3C2F74643E6A
:1033100020203C2F74723E0D203C2F7461626C653E
:103320003E0D3C2F666F726D3E00636865636B6592
:1033300064006F6E0044594E444E535F4F4E00443C
:10334000594E444E535F444F4D41494E0044594EEF
:10335000444E535F444F4D41494E0064796E646E54
:1033600073203C7570646174653E202F203C73654A
:10337000746163636F756E7420757365723A7077EC
:103380004064796E646E732D646F6D61696E3E0D7D
:103390000A004163636F756E74646174656E2067C3
:1033A000657370656963686572742E0D0A007365D4
:1033B000746163636F756E74005570646174652029
:1033C00066756572202573206665686C6765736332
:1033D000686C6167656E0D0A0055706461746520E4
:1033E00066756572202573206572666F6C677265FD
:1033F0006963682E0D0A00757064617465006479F4
:103400006E646E732E6367690064796E646E730018
:1034100064656C0064656C0045696E7374656C6C02
:10342000756E67656E2075656265726E6F6D6D6530
:103430006E210D0A00434D4400256420256420229E
:10344000257322004D4D00484800434D44003C6622
:103450006F726D20616374696F6E3D2263726F6E6F
:103460002E636769223E3C7461626C6520626F72F4
:103470006465723D2230222063656C6C7061646407
:10348000696E673D2235222063656C6C73706163E1
:10349000696E673D2230223E3C74723E3C7464206B
:1034A000616C69676E3D227269676874223E53746D
:1034B000756E64653C2F74643E3C74643E3C696E7A
:1034C000707574206E616D653D22484822207479C4
:1034D00070653D2274657874222073697A653D2297
:1034E00033222076616C75653D2230226D61786CE7
:1034F000656E6774683D2233223E3C2F74643E3C07
:103500002F74723E3C74723E3C746420616C696737
:103510006E3D227269676874223E4D696E757465EE
:103520003C2F74643E3C74643E3C696E707574203C
:103530006E616D653D224D4D2220747970653D228E
:1035400074657874222073697A653D22332220766F
:10355000616C75653D223022206D61786C656E6707
:1035600074683D2233223E3C2F74643E3C2F7472BB
:103570003E3C74723E3C746420616C69676E3D220F
:103580007269676874223E436F6D6D616E643C2F93
:1035900074643E3C74643E3C696E707574206E6168
:1035A0006D653D22434D442220747970653D22743F
:1035B000657874222073697A653D22333022206D4C
:1035C00061786C656E6774683D223330223E3C2F13
:1035D00074643E3C2F74723E3C74723E3C74643E94
:1035E0003C2F74643E3C74643E3C696E707574207C
:1035F000747970653D227375626D697422207661FD
:103600006C75653D222045696E747261672073692F
:10361000636865726E20223E3C2F74643E3C2F74BA
:10362000723E3C2F7461626C653E3C2F666F726D1A
:103630003E0D006164646E6577003C74723E3C74BC
:103640006420616C69676E3D226C656674223E3C45
:103650006120687265663D2263726F6E2E636769D2
:103660003F6164646E657722207374796C653D22D6
:10367000746578742D6465636F726174696F6E3AF6
:103680006E6F6E6522207469746C653D22416464BE
:10369000223E3C696E70757420747970653D2262BB
:1036A0007574746F6E222076616C75653D2261645D
:1036B00064206E65772063726F6E2220636C617385
:1036C000733D22616374696F6E42746E223E3C2FBB
:1036D000613E3C2F74643E3C2F74723E3C2F7461FB
:1036E000626C653E0D003C74723E3C746420616CFB
:1036F00069676E3D226C656674223E25733C2F74AB
:10370000643E3C746420616C69676E3D226C656642
:1037100074223E3C6120687265663D2263726F6E62
:103720002E6367693F64656C3D256422207374795C
:103730006C653D22746578742D6465636F72617485
:10374000696F6E3A6E6F6E6522207469746C653DA8
:103750002244656C223E3C696E70757420747970E9
:10376000653D22627574746F6E222076616C75659A
:103770003D2264656C2220636C6173733D2261633A
:1037800074696F6E42746E223E3C2F613E3C2F7412
:10379000643E3C2F74723E003C7461626C65206232
:1037A0006F726465723D2230222063656C6C7061BB
:1037B0006464696E673D2235222063656C6C7370AA
:1037C0006163696E673D2230223E0063726F6E2E28
:1037D000636769003C2F7072653E003C7072653E05
:1037E0000065656D656D203C70726F746563743E35
:1037F0007C3C756E70726F746563743E203C6164CE
:1038000064205B6E616D652076616C5D3E203C647A
:10381000656C205B6E616D655D3E203C7072696E0B
:10382000743E203C636C65616E3E0D0A00636C65FE
:10383000616E007072696E740064656C006164642E
:1038400000756E70726F7465637465740D0A00574D
:10385000524954455F50524F54454354004F4646D9
:1038600000756E70726F74656374005752495445E9
:103870005F50524F54454354004F4E0070726F7466
:103880006563740065656D656D2E636769006565C8
:103890006D656D0034393500E4F6FCC4D6DCDF5BC1
:1038A0005D3C3E7B7D405F232200616F75414F553B
:1038B00073283A282E282D28202B2700656565655A
:1038C0006565733A292E292D2929202B270053506D
:1038D0005241434845004346475041535300544CDE
:1038E0004E425543484F4646454E0050524F544C69
:1038F0004556454C0050524F544C4556454C544C3F
:103900004E535256004C414E474449454E53544D38
:10391000454C440048415550545354454C4C450087
:10392000454947454E454E554D4D45520046455338
:10393000544548505354004D454C445255434B0058
:10394000414C5445524E424549424553004455521C
:1039500043485741484C544142004155544F44411B
:1039600054554D004E45545A5255464E52005049FA
:103970004E0044594E4950414B544956004E45540F
:103980005A504F52540053454C425354414E5045A7
:1039900052005255464E52534552563100525546EA
:1039A0004E525345525632005255464E525345528E
:1039B00056330053594E4350494E006954656C6567
:1039C00078006954656C657820506F727420257595
:1039D0002E0D0A006E74702E63676900736464694B
:1039E000722E636769006D656D64756D702E686514
:1039F00078006974656C65782D64656275672E63FF
:103A00006769006974656C65786366672D737065B6
:103A10007272656E2E636769006974656C657863A0
:103A200066672D65787465726E2E636769006974C8
:103A3000656C65786366672D696E7465726E2E635A
:103A40006769006974656C65782D747769746C6E4C
:103A50006C697374652E636769006974656C657859
:103A60002D6D73672D6F75742E63676900697465BA
:103A70006C65782D6D73672D696E2E636769004ED6
:103A800065757374617274203439352052657365BD
:103A9000742D466C61677320253032580D0A00631F
:103AA000757200253032580D0A0025303258003A20
:103AB000253032582530345825303258004572723E
:103AC0006F722072656164696E67206469726563F4
:103AD000746F727921003C612068726566203D2216
:103AE00025732F2573223E25733C2F613E20256CC4
:103AF00064203C736D616C6C3E3C6120687265664D
:103B0000203D2273646469722E6367693F64697241
:103B10003D25732664656C3D25732F2573223E6415
:103B2000656C6574653C2F613E3C2F736D616C6CF8
:103B30003E3C62723E003C612068726566203D2218
:103B40002573223E25733C2F613E20256C64203C6A
:103B5000736D616C6C3E3C612068726566203D222D
:103B600073646469722E6367693F64656C3D257395
:103B7000223E64656C6574653C2F613E3C2F736D1D
:103B8000616C6C3E3C62723E003C6120687265660E
:103B9000203D2273646469722E6367693F646972B1
:103BA0003D25732F2573223E25733C2F613E204413
:103BB00049523C62723E003C612068726566203D5D
:103BC0002273646469722E6367693F6469723D257C
:103BD00073223E25733C2F613E204449523C627261
:103BE0003E003C2F623E2028256C7520667265657C
:103BF000293C62723E003C623E436F6E74656E7497
:103C0000206F662025733A00646972003C623E436F
:103C10006F6E74656E74206F66202F3A006469724F
:103C20000046696C65202573204E4F5420666F75E1
:103C30006E643C703E0046696C65202573204E4FD3
:103C4000542064656C657465643C703E0046696C24
:103C5000652025732064656C657465643C703E0066
:103C600064656C0064656C003C2F613E003C612023
:103C7000687265663D226974656C65786366672D58
:103C800065787465726E2E636769223E006974659B
:103C90006C65786366672D65787465726E2E6367F0
:103CA00069003A2025732028256429003C62723E71
:103CB000003C62723E003A202573003C62723E0076
:103CC0003A202573003A202573003C62723E003A88
:103CD000202573003A202573003C62723E003C2F81
:103CE000613E003C6120687265663D226974656CC6
:103CF00065786366672D696E7465726E2E63676999
:103D0000223E006974656C65786366672D696E7420
:103D100065726E2E636769003C2F613E3C2F666FB3
:103D2000726D3E0020223E3C6120687265663D2235
:103D30006974656C65782D6D73672D6F75742E636E
:103D4000676922207461726765743D224D73674F05
:103D50007574223E003C696E707574206E616D65ED
:103D60003D2245696E676162652220747970653D08
:103D70002274657874222073697A653D2236352273
:103D80002076616C75653D2222206D61786C656ED0
:103D90006774683D223635223E3C696E707574202A
:103DA000747970653D227375626D69742220766145
:103DB0006C75653D22003C666F726D2061637469AD
:103DC0006F6E3D226974656C65782D6D73672D6922
:103DD0006E2E636769223E0048544D4C2D43686146
:103DE00074206265676F6E6E656E2028416E776124
:103DF000686C20257529202D3E20000D0A004854AE
:103E00004D4C2D436861742045696E676162653A67
:103E100020000D0A0045696E676162650044757295
:103E200063687761686C20696E20546162656C6CB0
:103E30006520676566756E64656E2025750D0A00E0
:103E400044757263687761686C2061757320546192
:103E500062656C6C6520756D67657365747A742036
:103E600025750D0A0044757263687761686C2D4191
:103E70006E66726167652025750D0A006954656C70
:103E8000657828253575293A2000446972656B7478
:103E9000647275636B20416272756620447275634B
:103EA0006B7370696567656C202862656C65677403
:103EB000290D0A00446972656B74647275636B2026
:103EC000416272756620447275636B7370696567D1
:103ED000656C2028617573290D0A00202825752935
:103EE0000D0A00446972656B74647275636B2041DE
:103EF0006272756620447275636B7370696567657D
:103F00006C3A003C62723E3C7072653E2573266CD2
:103F1000743B266C743B266C743B257325733C2FD5
:103F20007072653E003C48544D4C3E3C484541440F
:103F30003E3C6D65746120687474702D657175699F
:103F4000763D22657870697265732220636F6E74A6
:103F5000656E743D2231223E3C6D6574612068744B
:103F600074702D65717569763D22707261676D613F
:103F70002220636F6E74656E743D226E6F2D6361D7
:103F8000636865223E3C6D65746120687474702DB1
:103F900065717569763D2272656672657368222067
:103FA000636F6E74656E743D2231303B2055524C08
:103FB0003D6974656C65782D6D73672D6F75742E12
:103FC000636769223E3C2F484541443E3C424F4492
:103FD000593E003C62723E3C6120687265663D223B
:103FE0006D656D64756D702E686578223E52414D29
:103FF0002D496E68616C7420766F722064656D2047
:104000006C65747A74656E2052657365743C2F61BB
:104010003E203C6120687265663D226D656D647569
:104020006D702E6865783F637572223E616B7475A2
:10403000656C6C656E2052414D2D496E68616C74E3
:104040003C2F613E003C62723E5350203D202530A3
:104050003258003C62723E3C6120687265663D22C7
:104060006974656C65782D64656275672E63676930
:104070003F7265736574223E53746174696B746931
:104080006B2D446174656E207A75722675756D6C42
:104090003B636B7365747A656E3C2F613E3C627264
:1040A0003E45746865726E65743A20256C642042E2
:1040B0007974657320696E20256C64205061636B90
:1040C0006574656E204C6F636B4572726F727320FE
:1040D000256C640020256C75003C62723E205643BE
:1040E00043205B6D565D203D003C62723E53797308
:1040F00074656D53746172745A656974203D20252E
:104100003032752E253032752E253034752025300D
:1041100032643A253032643A253032642C205265BC
:10412000736574466C6167203D2025303258003C31
:1041300062723E5443505F736F636B65745B2564BA
:104140005D3A20636C6F736564003C62723E544359
:10415000505F736F636B65745B25645D3A20436FDA
:104160006E6E656374696F6E53746174653D257519
:104170002C2053656E6453746174653D25752C2045
:10418000536F75726365506F72743D25752C2044B2
:10419000657374696E6174696F6E506F72743D25DA
:1041A000752C20536F7572636549503D256C582CF2
:1041B0002054696D656F7574636F756E7465723DBB
:1041C0002564003C62723E54696D65723043616CD7
:1041D0006C6261636B5F4D6178203D202575003C0A
:1041E00062723E54696D657230436E745F4D6178E2
:1041F000203D202575003C62723E54696D65723029
:10420000436E745F4D696E203D202575003C6272DF
:104210003E54696D65723043616C6C6261636B43DF
:104220006F756E74203D202575003C62723E4954C6
:10423000656C6578546872656164436F756E74204F
:104240003D202575003C62723E5477694973724384
:104250006F756E74203D202575003C62723E46618C
:104260006C7363686572436F6465203D202575003B
:104270003C62723E4B75727A54696D657256616C20
:1042800028264954656C6578546872656164436892
:1042900065636B54696D657229203D202575003C6E
:1042A00062723E4B75727A54696D657256616C2804
:1042B000266954656C6578536F636B65744C6562F1
:1042C000656E737A65696368656E54696D65722998
:1042D000203D202575003C62723E4275734B6F6C29
:1042E0006C6973696F6E5A6165686C6572203D20F8
:1042F0002575003C62723E54776957617463686447
:104300006F67436F756E74203D202575003C6272A7
:104310003E5477694C6562656E737A65696368655A
:104320006E5A6165686C6572203D202575003C629F
:10433000723E4B75727A54696D657256616C2826AF
:10434000427573517569747454696D657229203DA5
:10435000202575005D005D3C62723E4173636969B2
:10436000447275636B5075666665723A205B003CFB
:1043700062723E48746D6C53656E64655465787402
:104380003A205B003C62723E5465696C6E65686DF4
:104390006572536572766572536F636B6574203D09
:1043A000202575003C62723E536F636B6574416EED
:1043B0007A61686C5A65696368656E456D7066619F
:1043C0006E67656E203D202575003C62723E536F1E
:1043D000636B6574416E7A61686C5A656963686580
:1043E0006E517569747469657274203D202575007D
:1043F0003C62723E536F636B6574416E7A61686CA8
:104400005A65696368656E476573656E6465742097
:104410003D202575003C62723E50726F746F6B6F69
:104420006C6C5068617365203D202575003C62729C
:104430003E6954656C6578536F636B657450726F39
:10444000746F6B6F6C6C203D202575003C62723E72
:10445000536F636B65744F7574427566557365640D
:10446000203D202575003C62723E536F636B65747E
:10447000496E42756655736564203D202575003C84
:1044800062723E4B75727A54696D657256616C2822
:10449000266954656C6578536F636B65744162621D
:1044A0007275636854696D657229203D2025750019
:1044B0003C62723E6954656C6578536F636B6574DA
:1044C00041626261754765706C616E74203D2025A4
:1044D00075003C62723E6954656C6578536F636B1E
:1044E00065744950203D2025303258003C62723EB0
:1044F0006954656C6578536F636B657448616E646D
:104500006C65203D202575003C62723E6954656CE7
:104510006578536F636B65744D6F6465203D20252E
:1045200075003C62723E53656C627374416E7275C5
:10453000665A656974556562657277616368756E00
:10454000673A20003C62723E53656C627374416E40
:10455000727566456D7066616E67507275656677D7
:10456000657274203D202575003C62723E53656C77
:10457000627374416E72756653656E6465507275D0
:10458000656677657274203D202575003C62723E39
:1045900053656C627374416E727566536F636B65BD
:1045A0007448616E646C65203D202575003C627224
:1045B0003E53656C627374416E727566456E647AC3
:1045C000656974203D202575003C62723E4B757212
:1045D0007A54696D657256616C282653656C6273F6
:1045E00074416E72756654696D657229203D20258F
:1045F00075003C62723E53656C627374416E7275F5
:10460000664665686C65725A6165686C6572203DC6
:10461000202575003C62723E53656C627374416E76
:104620007275665068617365203D202575003C6297
:10463000723E44796E4950416B7475616C6973695F
:104640006572756E67456E647A656974203D2025D4
:1046500075003C62723E4C616E6754696D657256BE
:10466000616C282644796E4950416B7475616C69A0
:1046700073696572756E6754696D657229203D2096
:104680002575003C62723E44796E49505F50686106
:104690007365203D202575003C62723E4B75727A31
:1046A00054696D657256616C28265363687265693A
:1046B00062506175736554696D657229203D2025CE
:1046C00075003C62723E4B75727A54696D65725624
:1046D000616C28265761686C506175736554696D0B
:1046E000657229203D202575003C62723E57616845
:1046F0006C7A69666665726E203D202575003C62A5
:10470000723E5761686C6E756D6D6572203D202537
:1047100075002025303258003C62723E5075666646
:104720006572416E7A61686C282653656E646550C7
:10473000756666657229203D202575003C62723ED3
:10474000536572556D53656E64446174656E203DAA
:10475000202575003C62723E536572556D53656E3F
:10476000644269744E72203D202575003C62723EA1
:10477000536572556D5469636B5A6165686C6572F7
:1047800053656E64203D202575003C62723E536582
:104790006E64654D61726B203D20257500202530CB
:1047A0003258003C62723E507566666572416E7AA0
:1047B00061686C2826456D7066507566666572295D
:1047C000203D202575003C62723E536572556D4553
:1047D0006D70664665686C6572203D202575003CED
:1047E00062723E536572556D456D706644617465C5
:1047F0006E203D202575003C62723E536572556DFA
:10480000456D70664D61726B5A6165686C203D2024
:104810002575003C62723E536572556D456D70663C
:104820004269744E72203D202575003C62723E53F1
:104830006572556D5469636B5A6165686C65724544
:104840006D7066203D202575003C62723E42757396
:10485000456D70664D61726B203D202575003C6290
:10486000723E537461747573203D202530325800B8
:104870003C62723E4D6F647573203D202575003C8F
:1048800062723E5465696C6E65686D6572536572DF
:104890007665724665686C65725A6165686C6572AA
:1048A00028257329203D2025642C205370657272C1
:1048B000652D54696D6572202564003C62723E541A
:1048C00065696C6E65686D65725365727665724177
:1048D0006C6C654E69636874457272656963686281
:1048E0006172203D202575003C62723E5465696C02
:1048F0006E65686D65722D53657276657220696E9E
:10490000616B746976003C62723E446961676E6FE8
:1049100073655075666665724C6576656C203D20E2
:10492000257500446961676E6F73655075666665CD
:10493000723A202573007761746368646F677465E9
:10494000737400726573657400656E006465000DB4
:104950000A003A006367692D4175667275662076B4
:104960006F6E200073707200006B656E6E7700537F
:104970006F636B6574207A756D205465696C6E6524
:10498000686D65722D5365727665722077757264F5
:104990006520766F6E20476567656E7374656C6C15
:1049A000652067657363686C6F7373656E0D0A00CD
:1049B0002120756E65727761727465746520416E31
:1049C00074776F727420646573205465696C6E65CA
:1049D000686D65722D536572766572730D0A000DF0
:1049E0000A0021204665686C65726D656C64756EA1
:1049F0006720646573205465696C6E65686D6572C7
:104A00002D536572766572733A2000546C6E53654F
:104A100072766572206D656C646574204C69737480
:104A2000656E656E64650D0A000D0A0044796E615D
:104A30006D69736368652049502D416B7475616CB5
:104A40006973696572756E673A206E657565204990
:104A500050200044796E616D697363686520495028
:104A60002D416B7475616C6973696572756E673A17
:104A700020626573746568656E64652049502067BF
:104A8000696C74207765697465720D0A0021204491
:104A90006174656E7361747A20766F6D20546569F8
:104AA0006C6E65686D65722D536572766572206DEA
:104AB0006974204E7220256C64206B6F6E6E746575
:104AC000206E6963687420676573706569636865E3
:104AD00072742077657264656E0D0A002120696D1D
:104AE000206C6F6B616C656E2054656C65666F6ED3
:104AF0006275636820616C732027507269766174F7
:104B0000272067656B656E6E7A656963686E65748C
:104B10000D0A0021205465696C6E65686D65722D03
:104B2000536572766572206D656C64657420414EC4
:104B300044455245204E756D6D657220616C732041
:104B4000616E676566726167740D0A000D0A005434
:104B500065696C6E65686D65722D536572766572F8
:104B6000206D656C6465742045696E7472616720A0
:104B7000676566756E64656E3A20005465696C6E93
:104B800065686D65722D536572766572206D656C12
:104B900064657420276E6963687420676566756E46
:104BA00064656E270D0A000D0A002564290054650E
:104BB000696C6E65686D65722D53657276657220DD
:104BC000456D7066616E673A202825642F00202DA0
:104BD0003E20766572776F7266656E2C20536F6328
:104BE0006B65742067657363686C6F7373656E0DB6
:104BF0000A0021205465696C6E65686D65722D53DD
:104C0000657276657220456D7066616E67205545E8
:104C10004245524C415546207A75207669656C654F
:104C200020446174656E20282564206279746529AA
:104C3000002A2053656C6273742D416E7275662D67
:104C4000536F636B65742064757263682054696D7B
:104C5000656F75742067657363686C6F7373656ED9
:104C6000210D0A00212053656C6273742D416E7210
:104C70007566204B45494E204563686F20656D7011
:104C800066616E67656E2E0D0A00212053656C62A9
:104C900073742D416E727566204142474542524FF2
:104CA0004348454E20776567656E204D6F64757388
:104CB0002D5765636873656C2E0D0A0021205365BE
:104CC0006C6273742D416E7275662046414C53437D
:104CD000484520446174656E20656D7066616E673D
:104CE000656E2E0D0A002A2053656C6273742D4187
:104CF0006E727566206572666F6C6772656963684F
:104D000020616267657363686C6F7373656E2E0DE7
:104D10000A00212053656C6273742D416E727566B2
:104D200020446174656E2D53656E64756E67205600
:104D30004552534147542E0D0A0053656C627374FB
:104D40002D416E72756620446174656E20676573CF
:104D5000656E6465742E0D0A00212053656C6273C4
:104D6000742D416E727566206F6566666E656E2085
:104D700064657320536F636B6574205645525341CD
:104D800047542E0D0A0053656C627374616B747521
:104D9000616C6973696572756E67004772756E64E0
:104DA0007374656C6C756E67206572726569636893
:104DB000742028536F636B65742067657363686C38
:104DC0006F7373656E2C2054574920676573636851
:104DD0006C6F7373656E290D0A00526573746520DC
:104DE0006765647275636B74202D2D3E2041757369
:104DF000736368616C74756E6720696E7465726E3A
:104E00000D0A0048544D4C2D436861742D5275684D
:104E100065202D2D3E20417573736368616C747538
:104E20006E6720696E7465726E0D0A004D656C6464
:104E3000756E6773647275636B202D3E20000D0ADA
:104E400000446961676E6F7365647275636B3A20C5
:104E5000000D0A0A0A002A205461737465206765F0
:104E6000647275636B74202D2D3E205265737465DA
:104E70002D447275636B206162676562726F63684F
:104E8000656E0D0A003A20253032752E25303275B8
:104E90002E2530347520253032753A253032753A5A
:104EA000253032750D0A000D0A002A204162626128
:104EB0007520776567656E203130204D696E757499
:104EC000656E2046756E6B7374696C6C652E0D0A89
:104ED0000064657200212054696D656F75742062ED
:104EE00065696D2057617274656E20617566206416
:104EF00069652045696E736368616C747175697466
:104F000074756E670D0A002A2054696D656F75749B
:104F1000206265696D2057617274656E20617566E7
:104F200020646965205363686C7573737175697467
:104F300074756E670D0A002A2031352053656B7534
:104F40006E64656E206E696368742067657761655D
:104F5000686C742C20416262727563680D0A000DE2
:104F60000A0028256429200025396C64202D20257D
:104F700073202D20004E616D656E7375636865004A
:104F80000D0A003E0D0A00537461727465204E6173
:104F90006D656E737375636865206D6974203C0080
:104FA0006F6363002120416E7761686C20696E74C5
:104FB00065726E20616E202575205645525341471B
:104FC000540D0A0076657262756E64656E206D69B7
:104FD000742025750D0A00416E7761686C20696E3A
:104FE0007465726E2025752000416E676572756666
:104FF000656E657220686174206765616E74776F95
:1050000072746574202D3E2045696E736368616C0F
:1050100074756E6720696E7465726E0D0A002120CA
:10502000494C4C4547414C45532050726F746F6B4F
:105030006F6C6C0D0A0021205457492D54696D6521
:105040006F7574202D3E204162736368616C7475C6
:105050006E670D0A00545749204175737363686188
:105060006C74756E6720696E7465726E0D0A00212E
:10507000205363686C7573737175697474756E67AA
:10508000206F686E6520417566666F726465727523
:105090006E670D0A00545749204175737363686148
:1050A0006C74756E67207175697474696572740DBE
:1050B0000A005465696C6E65686D657220256C75B3
:1050C00020696D20656967656E656E2054656C6545
:1050D000666F6E6275636820676566756E64656E7F
:1050E0002E0D0A004E616D656E73737563686520E1
:1050F000676573746172746574202D3E2045696E16
:10510000736368616C742D5175697474756E672072
:10511000616E205457490D0A005457492057616861
:105120006C7A696666657220257520696E74657291
:105130006E202F20676568656E640D0A005457491C
:10514000205761686C617566666F72646572756E12
:105150006720696E7465726E202F206B6F6D6D65B0
:105160006E640D0A005457492045696E7363686187
:105170006C747175697474756E67206675657220DC
:105180004D656C64756E6773647275636B0D0A00B0
:105190005457492045696E736368616C7471756911
:1051A0007474756E67206E61636820426567696E0E
:1051B0006E2048544D4C2D436861740D0A005457BD
:1051C000492045696E736368616C747175697474A4
:1051D000756E6720696E7465726E202F206B6F6D1F
:1051E0006D656E640D0A005457492045696E7363FE
:1051F00068616C746B6F6D6D616E646F20696E7445
:1052000065726E202F20676568656E640D0A005414
:10521000574920526573657276696572756E6720AD
:10522000696E7465726E202F20676568656E6420F4
:10523000766F6E2025750D0A00253032752E2530CB
:1052400032752E253034752020253032643A2530D1
:1052500032640D0A002A20692D54656C65782D4250
:105260006C696E64736F636B65742073656C6273D5
:10527000742067657472656E6E740D0A002A206969
:1052800054656C65782D426C696E64736F636B65F1
:105290007420777572646520766F6E204765676548
:1052A0006E7374656C6C652067657472656E6E7480
:1052B0000D0A0021205A4549545545424552534351
:1052C0004852454954554E472062656920576965E3
:1052D0006465726175666E61686D652064657220D3
:1052E00056657262696E64756E670D0A0021204D05
:1052F0006568726661636865204645484C45522082
:105300006265696D2053656E64656E20696E7320F9
:105310004E65747A2C20536F636B657420776972C5
:105320006420766F727565626572676568656E6424
:105330002067657363686C6F7373656E0D0A002F69
:10534000253032580D0A002053756D416E7A2025A4
:1053500075002C205265737420257500202D2D3E7C
:105360002052657320256400536F636B657420536E
:10537000656E64756E673A20282575290057696542
:105380006465722D4F6566666E756E672064657321
:1053900020536F636B6574206572666F6C6772650E
:1053A0006963682E0D0A0021205769656465722DB6
:1053B0004F6566666E756E672064657320536F6314
:1053C0006B657420564552534147542E0D0A0020F8
:1053D0002D2D3E20427566557365642025750D0A96
:1053E0000025642900536F636B657420456D7066FA
:1053F000616E673A202825642F006C696D697469B5
:10540000657274206175662025640D0A002A205398
:105410006F636B657420456D7066616E67206472A2
:105420006F68656E6465722055656265726C617542
:10543000663A20456D7066616E6720766F6E202536
:10544000642000536F636B65742077697264206118
:105450006B7469762067657363686C6F7373656ED0
:105460000D0A00536F636B65742077757264652055
:10547000766F6E20476567656E7374656C6C65202A
:1054800065727761727465742067657363686C6FA9
:105490007373656E0D0A002120536F636B65742072
:1054A000777572646520766F6E20476567656E73E9
:1054B00074656C6C652047455452454E4E540D0A38
:1054C00000536F636B657420777572646520766F27
:1054D0006E20476567656E7374656C6C65206572D8
:1054E0007761727465742067657363686C6F73733A
:1054F000656E0D0A002120536F636B65742077750C
:1055000072646520766F6E20476567656E7374659B
:105510006C6C6520554E4552574152544554206796
:10552000657363686C6F7373656E0D0A0004036FB7
:105530006363000403616273002021202E2E2E413C
:105540006277656973756E67206175662062657242
:105550006569747320626573746568656E64656DF2
:1055600020426C696E642D536F636B65742E0D0A57
:1055700000202A202E2E2E414247455749455345AB
:105580004E2C2061756620426C696E642D536F63EA
:105590006B65742067656C6567740D0A002C205676
:1055A000657262696E64756E6720626573746568A2
:1055B00074002C20616E64657265206B6F6D6D6583
:1055C0006E64652056657262696E64756E672062EE
:1055D0006573746568742100202E2E2E57696564EA
:1055E000657276657262696E64756E67206F6B0DA9
:1055F0000A002C20616E64657277656974696720A2
:1056000062656C65677400202E2E2E6E6575206FA6
:105610006B0D0A00202F204D414320005365727608
:1056200065722D536F636B65742067656F65666681
:105630006E657420766F6E20495020002534640D0D
:105640000A002534640053656E64412025346400EB
:105650002534640D0A0025346400456D70664120D0
:105660002531366400204B656E6E3D253032580D75
:105670000A00204C656E3D2564004665726E6B6FB6
:105680006E66696720214665686C657220436F64A9
:10569000653D2564006665726E6B6F6E666572723D
:1056A0000053656E64652050726F746F6B6F6C6C25
:1056B00076657273696F6E2D566F727363686C6175
:1056C000672025750D0A0050726F746F6B6F6C6CDC
:1056D00076657273696F6E2D566F727363686C6155
:1056E0006720257520656D7066616E67656E0D0AB1
:1056F000006F63630076657262756E64656E206D1F
:1057000069742025750D0A00212073706F6E746115
:105710006E65203F3F3F20416E7761686C20696E67
:105720007465726E20257520004162626175626544
:105730006665686C20766F6E20476567656E73746A
:10574000656C6C650D0A000D0A002A2041626261D9
:105750007562656665686C20766F6E204765676563
:105760006E7374656C6C653A0053656E64656E4269
:10577000657363686C65756E6967656E2045494E33
:105780000D0A0053656E64656E42657363686C65EF
:10579000756E6967656E204155530D0A00253464A6
:1057A0000D0A0025346400456D70664220253136AF
:1057B00064006E61006E61004665726E6B6F6E66AE
:1057C0006967204B656E6E3D2564206F6B0D0A0086
:1057D0002534640D0A002534640053656E6442204C
:1057E000253464005275666E756D6D65722D41626B
:1057F0006672616765004162667261676520626515
:1058000069205465696C6E65686D65722D536572AB
:105810007665726E0D0A002120696E7465726E6580
:10582000722056657262696E64756E67737061721C
:10583000746E657220257520697374205343484F38
:105840004E20465245492E0D0A002120696E74658E
:10585000726E65722056657262696E64756E6773EA
:10586000706172746E6572202575204E49434854EC
:10587000204D4548522045525245494348424152E5
:105880002E0D0A000D0A000D0D0D0A00626B00615D
:10589000627300646572006E61006E63006F636323
:1058A000003E0D0A005761686C4162627275636860
:1058B0004D656C64756E67203C000D0A0020282D34
:1058C00025752053656B756E64656E290D0A002D74
:1058D0003E25337520202049503A002053746174CE
:1058E000653A253375002020202000536F636B65D7
:1058F000744368616E67653A2048616E646C653A0E
:10590000256400212045696E736368616C74756E4F
:105910006720696E7465726E205645525341475434
:105920000D0A0045696E736368616C74756E67205B
:10593000696E7465726E0D0A000D0A002020202029
:105940002020676577616E64656C7420696E3A200B
:105950000020282B2575290D0A0041736369692DE4
:10596000566572617262656974756E673A200020CF
:10597000756E642056657273696F6E2025750D0A09
:1059800000436C69656E742D536F636B6574206999
:1059900054656C6578206572666F6C6772656963C3
:1059A000682067656F6566666E6574202D3E20739E
:1059B000656E64652044757263687761686C202544
:1059C0007500436C69656E742D536F636B6574204D
:1059D0004173636969206572666F6C67726569639C
:1059E000682067656F6566666E6574202D3E20458C
:1059F000696E736368616C742D5175697474756E2A
:105A00006720616E205457490D0A002120436C69BC
:105A1000656E742D536F636B6574206B6F6E6E745F
:105A200065206E6963687420657273746D616C695A
:105A3000672067656F6566666E657420776572645A
:105A4000656E0D0A002A205465696C6E65686D6587
:105A500072206973742047454C4F45534348540D99
:105A60000A00436C69656E742D536F636B65742017
:105A7000534D5450206572666F6C67726569636838
:105A80002067656F6566666E6574202D3E204569EA
:105A90006E736368616C742D5175697474756E678B
:105AA00020616E205457490D0A00206E69636874A6
:105AB00020676566756E64656E0D0A002120495089
:105AC000207A7520486F73746E616D6520002050D8
:105AD0006F72742025750D0A00203D2000566572F6
