:100000000C9422560C9449570C9474570C949F5797
:100010000C94CA570C94F5570C9420580C944B58D8
:100020000C9476580C94BB560C94BB560C94BB564F
:100030000C9496B80C94BB560C94BB560C94BB56BF
:100040000C94BB560C94375C0C94BB560C94BB566A
:100050000C94BB560C9404640C94BB560C94BB5685
:100060000C94BB560C94845D0C94435D0C94285DF9
:100070000C94BB560C94BB560C94BB560C94BB56BC
:100080000C94BB560C94BB560C94BB560C94BB56AC
:100090000C94885E0C94FC5D0C94BF5D0D940F373E
:1000A0000C94BB560C94BB560C94BB560C94BB568C
:1000B0000C94BB560C94BB560C94BB560C94BB567C
:1000C0000C94BB560C94BB560C94BB560C0D0E0FE7
:1000D000253032783A253032783A253032783A2550
:1000E0003032783A253032783A253032780025643B
:1000F0002E25642E25642E25640044484350206D2F
:10010000736720747970652035332076616C75656E
:100110002025750D0A0044484350206D73672074F4
:100120007970652035332076616C75652025750DF5
:100130000A004950004D41534B00444E5300474183
:10014000544500444843502D436F6E6669672067ED
:1001500065686F6C740D0A00444843502D436F6E00
:10016000666967204665686C67657363686C61677C
:10017000656E0D0A00207C2D3E20566572737563F6
:10018000686520444843502D436F6E666967207A46
:100190007520686F6C656E2E2000206665686C6740
:1001A000657363686C6167656E0D0A00206665683B
:1001B0006C67657363686C6167656E0D0A00205A31
:1001C0006569743A20253032643A253032643A2524
:1001D0003032642E253032640D0A004E545053459F
:1001E00052564552005554435A4F4E4500207C2DDF
:1001F0003E204E54502D536572766572205A6569C3
:100200007420616B7475616C6973696572656E3AAF
:10021000006F6E004E545000207C202020444E532E
:10022000202020203A2025730D0A00207C20202049
:10023000476174657761793A2025730D0A00207C47
:100240002020204E65746D61736B3A2025730D0A72
:1002500000207C202020495020202020203A2025EA
:10026000730D0A006F6E00444843500044484350E9
:1002700000207C2D3E20544350202848757272691E
:1002800063616E2D656E67696E652920696E69749C
:1002900069616C6973696572740D0A00207C2D3E7A
:1002A000205544502028546F726E61646F2D656E26
:1002B00067696E652920696E697469616C69736923
:1002C0006572740D0A002D2B2D3E2041525020697D
:1002D0006E697469616C6973696572740D0A0020D6
:1002E0004C696E6B2072656164790D0A0020467559
:1002F0006C6C6475706C65783A00454E4332386AB0
:10030000363020285265762E3A2025642920696EE1
:10031000697469616C697369657274202820485733
:100320002D4164643A20253032783A253032783ACB
:10033000253032783A253032783A253032783A25ED
:100340003032782029004D4143004D4143004D4358
:1003500050636F6E666967000D0A000A002563002E
:10036000436F6E6669672069737420256420627923
:100370007465732067726F73732C20256420627913
:1003800074652077657264656E2062656E75747A37
:10039000742E204F66667365742025640D0A0D0A5D
:1003A000004F46460057524954455F50524F5445FE
:1003B00043540020496E697469616C6973696572A0
:1003C000740D0A00204572726F720D0A0054485273
:1003D000454144005348454C4C0046696C6573796F
:1003E0007374656D004D4D432F5344004558544977
:1003F0004E5400436F6E666967004C45445F636FFF
:10040000726500434C4F434B005354444F555400C6
:1004100055415254006954656C65782E2E2E0D0A94
:10042000003EFFFFFF3F3435363738393A3B3C3D1D
:10043000FFFFFFFFFFFFFF0001020304050607089F
:10044000090A0B0C0D0E0F101112131415161718A4
:1004500019FFFFFFFFFFFF1A1B1C1D1E1F2021227B
:10046000232425262728292A2B2C2D2E2F303132E4
:10047000334142434445464748494A4B4C4D4E4F11
:10048000505152535455565758595A6162636465D6
:10049000666768696A6B6C6D6E6F70717273747584
:1004A000767778797A303132333435363738392BBC
:1004B0002F002F6E69632F7570646174653F686FDC
:1004C00073746E616D653D2573006D656D62657257
:1004D000732E64796E646E732E6F72670063686545
:1004E000636B69702E64796E646E732E6F72670031
:1004F000474554200020485454502F312E300D0AC7
:10050000557365722D4167656E743A20576765743F
:100510002F312E31312E340D0A4163636570743AE8
:10052000202A2F2A0D0A486F73743A20000D0A41C1
:100530007574686F72697A6174696F6E3A2042618E
:100540007369632025730D0A0D0A000D0A0D0A0058
:100550002F00436F6E74656E742D4C656E67746802
:100560003A2000485454502F312E000D0A00436F9A
:100570006D6D616E64733A0D0A0D0A0068656C70EA
:1005800000485454502F312E30203430330D0A435C
:100590006F6E74656E742D547970653A2074657849
:1005A000742F68746D6C0D0A4B6565702D416C6914
:1005B00076653A20636C6F73650D0A0D0A3C4854EA
:1005C0004D4C3E3C424F44593E3430332046696CDA
:1005D00065206E6F7420666F756E64213C2F424FEC
:1005E00044593E3C2F48544D4C3E0D0A0D0A0050D4
:1005F0004F53540047455400687474706400485465
:1006000054502D53657276657220506F7274202598
:10061000642E0D0A00696E6465782E68746D6C0036
:100620003C2F424F44593E3C2F48544D4C3E0D0AFE
:100630000D0A003C48544D4C3E3C484541443E3C2C
:100640006D65746120687474702D65717569763D8F
:1006500022657870697265732220636F6E74656EAF
:10066000743D2230223E3C212D2D20456E61626C6E
:100670006520494539205374616E6461726473204A
:100680006D6F6465202D2D3E3C6D6574612068742E
:1006900074702D65717569763D22582D55412D4335
:1006A0006F6D70617469626C652220636F6E746532
:1006B0006E743D2249453D3922203E3C2F4845413C
:1006C000443E3C424F44593E00485454502F312E32
:1006D000312032303020446F63756D656E74206652
:1006E0006F6C6C6F77730D0A436F6E74656E742D4B
:1006F000547970653A20746578742F68746D6C0D48
:100700000A43616368652D436F6E74726F6C3A20A3
:100710006E6F2D63616368650D0A436F6E6E65636E
:1007200074696F6E3A20636C6F73650D0A0D0A0071
:10073000696E6465782E68746D6C003C48544D4C4D
:100740003E3C484541443E3C5449544C453E692D4D
:1007500054656C65783C2F5449544C453E3C2F48B9
:100760004541443E3C6672616D6573657420726FED
:1007700077733D2236342C34302C2A2C343022200E
:100780007363726F6C6C696E673D226E6F222066B8
:1007900072616D65626F726465723D223222206201
:1007A0006F726465723D223222206672616D6573DC
:1007B000706163696E673D22322220626F726465E8
:1007C00072636F6C6F723D222330303030303022D4
:1007D0003E3C6672616D65207372633D226865619F
:1007E000646C696E652E68746D6C22206E616D6537
:1007F0003D224E617669676174696F6E31222073A4
:1008000063726F6C6C696E673D226175746F223E16
:100810003C6672616D65207372633D226D61696E25
:100820006D656E752E68746D6C22206E616D653D10
:10083000224E617669676174696F6E32222073633C
:10084000726F6C6C696E673D226175746F223E3CFD
:100850006672616D65207372633D22696E666F2EEC
:1008600068746D6C22206E616D653D226D61696EEC
:10087000223E3C6672616D65207372633D22737423
:100880006174732E63676922206E616D653D227508
:10089000706461746522207363726F6C6C696E673B
:1008A0003D226175746F223E3C6E6F6672616D65AC
:1008B000733E3C626F64793E3C703E4968722042F0
:1008C000726F7773657220756E74657273742675B6
:1008D000756D6C3B747A74206B65696E6520467229
:1008E000616D6573213C2F703E3C2F626F64793ED1
:1008F0003C2F6E6F6672616D65733E3C2F66726150
:100900006D657365743E3C2F48544D4C3E0D0A0D89
:100910000A00686561646C696E652E68746D6C00B0
:100920003C48544D4C3E3C424F44592074657874C9
:100930003D222330303030433022207374796C658F
:100940003D226261636B67726F756E642D696D61C4
:1009500067653A75726C286C6F6368737472656949
:1009600066656E2D68672E706E6729223E3C737037
:10097000616E207374796C653D22666F6E743A20E7
:10098000626F6C6420343070782027436F75726911
:100990006572204E6577272C274C7563696461204A
:1009A000436F6E736F6C65272C6D6F6E6F73706124
:1009B00063653B20223E3C623E692D54656C657840
:1009C000202D20546F4950202D2074656C657820AF
:1009D0006F76657220696E7465726E65743C2F6205
:1009E0003E3C2F7370616E3E3C2F424F44593E3C5B
:1009F0002F48544D4C3E0D0A0D0A006C6F6368730E
:100A00007472656966656E2D68672E706E67008901
:100A1000504E470D0A1A0A0000000D494844520082
:100A20000002250000003F0403000000CD91A50C4A
:100A300000000030504C5445FFFF66C0C0C0FF00AE
:100A400000000000000000000000000000000000A6
:100A50000000000000000000000000000000000096
:100A60000000000000000000C3145A130000000939
:100A70007048597300000B1300000B1301009A9C7F
:100A8000180000027F4944415478DAED5B5B72C381
:100A9000200CB47302ABF73F6CE33CA8C9EAB12465
:100AA000D30969573F558C84F10E428BA0CB227934
:100AB0009093201026C2E4594CD6EDFCD796837251
:100AC000914EB934A1B036AD2978C5E23E093A5C01
:100AD000466D82612498AC66DB62663FCAB58FA31F
:100AE000726972DE43DAB4A6E015D8E1ED57FDC1B4
:100AF0008CCDEDCD07E3DC6B3A4CB6E36718F1A97A
:100B0000C64D9373CFCDB8F03AEDD6B61B6D4DB947
:100B1000BBFD28E67642DBB426FF15D86133263EBE
:100B2000D5C869F2300C613288896247987C2026EA
:100B300053E41D09CFD990DB18C98890CE55EE0536
:100B40001B4C781DE385542DA7A061ECB4A91E4C65
:100B5000EC384030AC2AF760AA770A36D15E1832FA
:100B60007EECDCBD26C5A42DB690AF9D2785172E43
:100B7000ADC11A7BF78AF809E6F1351E0CF29380B5
:100B8000E70C4C138EC3305E484B0ABA254C3C4CE4
:100B9000143B183BC2E443307973DE9188C70A9353
:100BA0002731D9A368DD034CCA55F1D6D8F72A9767
:100BB00005707DA7224C3C4C1432183B4EADE09F93
:100BC0002BCA3BCAC5AFD7D9FA529511352BCBBD2D
:100BD000B009CB74D861500034D72629A6255E47CA
:100BE0009B74BFD36F7CB0DA5CEC89D00B9B9CED1F
:100BF0005267DC27856E0BD3EF6EBA0C126C6A124B
:100C0000AFA3CD7C98F49BD67606815BDD6E17DCB6
:100C10009E249BDFC4ABB3496B4A5D5926384A4BCF
:100C2000EA4EE8854DC5215D52EC42F7EAB02FF15E
:100C3000EA6C848987896207634798CC8FC90C79ED
:100C400047F20A67634E4219D265041B2C0E379394
:100C50009359FA8437247803B1C354A41363BF585B
:100C6000EDC4971F29556D9971C73AB6DBF37C988F
:100C7000042B6A7106D1DB24F758708D051B9E9FEB
:100C800030A77E0CC1A8384C721C397C3D2C6150B9
:100C9000099911261E268A1D8C1D61323F2633E4D8
:100CA0001D09C5D982625AC2EB98FF5358083638DD
:100CB00024C317DB98F104B1136C6A92F862EE8BCF
:100CC00006900CDCD4F142A6681ABA96F0073019E7
:100CD000BE88527965FCC42F1C251C86B9931F8FD2
:100CE000DE9E9E268397B898F10813C50E1F3BC25F
:100CF000447987C93B1261224C848930F93D4C4CC0
:100D0000F2205FDF827D01B9877BC8E3000000002D
:100D100049454E44AE4260826D61696E6D656E7587
:100D20002E68746D6C003C48544D4C3E3C48454127
:100D3000443E3C6C696E6B2072656C3D2273747925
:100D40006C6573686565742220747970653D2274E2
:100D50006578742F6373732220687265663D227311
:100D600074796C652E637373223E3C2F4845414471
:100D70003E3C424F4459206267636F6C6F723D2264
:100D800023433046464330223E3C6120687265660C
:100D90003D22696E666F2E68746D6C227461726795
:100DA00065743D226D61696E223E496E666F3C2F0F
:100DB000613E202F203C6120687265663D22697487
:100DC000656C65782D6D656E752D64652E68746D26
:100DD0006C223E692D54656C6578202844657574D5
:100DE000736368293C2F613E202F203C612068728C
:100DF00065663D226974656C65782D6D656E752D2F
:100E0000656E2E68746D6C223E692D54656C657834
:100E10002028456E676C697368293C2F613E3C2F22
:100E2000424F44593E3C2F48544D4C3E0D0A0D0A4A
:100E3000006E6574776F726B2D64652E68746D6CCF
:100E4000003C48544D4C3E3C484541443E3C6C6956
:100E50006E6B2072656C3D227374796C6573686586
:100E600065742220747970653D22746578742F63EF
:100E700073732220687265663D227374796C652EE7
:100E8000637373223E3C2F484541443E3C424F44ED
:100E900059206267636F6C6F723D22234330464670
:100EA0004330223E3C6120687265663D226974656C
:100EB0006C65786366672D6D656E752D64652E684B
:100EC000746D6C223E7A75722675756D6C3B636B22
:100ED0003C2F613E202F203C6120687265663D22D8
:100EE0006E6574776F726B2E6367693F7370723DC6
:100EF000646522207461726765743D226D61696E5C
:100F0000223E496E666F733C2F613E202F203C616C
:100F100020687265663D226E6574776F726B2E6312
:100F200067693F7370723D646526636F6E666967BB
:100F300022207461726765743D226D61696E223E84
:100F40004B6F6E66696775726174696F6E3C2F6175
:100F50003E3C2F424F44593E3C2F48544D4C3E0D91
:100F60000A0D0A006E6574776F726B2D656E2E68C0
:100F7000746D6C003C48544D4C3E3C484541443EE9
:100F80003C6C696E6B2072656C3D227374796C6584
:100F900073686565742220747970653D2274657884
:100FA000742F6373732220687265663D22737479AF
:100FB0006C652E637373223E3C2F484541443E3C92
:100FC000424F4459206267636F6C6F723D22234326
:100FD0003046464330223E3C6120687265663D22C1
:100FE0006974656C65786366672D6D656E752D65D2
:100FF0006E2E68746D6C223E6261636B3C2F613EA5
:10100000202F203C6120687265663D226E657477F2
:101010006F726B2E6367693F7370723D656E22203D
:101020007461726765743D226D61696E223E496E1E
:10103000666F733C2F613E202F203C6120687265F3
:10104000663D226E6574776F726B2E6367693F73BE
:1010500070723D656E26636F6E66696722207461EB
:10106000726765743D226D61696E223E436F6E66E4
:10107000696775726174696F6E3C2F613E3C2F42E7
:101080004F44593E3C2F48544D4C3E0D0A0D0A002A
:1010900073797374656D2D64652E68746D6C003C96
:1010A00048544D4C3E3C484541443E3C6C696E6B57
:1010B0002072656C3D227374796C65736865657424
:1010C0002220747970653D22746578742F63737380
:1010D0002220687265663D227374796C652E637395
:1010E00073223E3C2F484541443E3C424F445920E8
:1010F0006267636F6C6F723D222343304646433014
:10110000223E3C6120687265663D226974656C65AB
:10111000786366672D6D656E752D64652E68746DD8
:101120006C223E7A75722675756D6C3B636B3C2F35
:10113000613E202F203C6120687265663D22726509
:101140007365742E6367693F7370723D6465222016
:101150007461726765743D226D61696E223E5265ED
:101160007365743C2F613E202F203C6120687265BE
:10117000663D226E74702E6367693F7370723D64C2
:101180006522207461726765743D226D61696E220B
:101190003E4E54503C2F613E202F203C612068720F
:1011A00065663D2264796E646E732E6367693F7372
:1011B00070723D646522207461726765743D226DB2
:1011C00061696E223E44796E444E533C2F613E204D
:1011D0002F203C6120687265663D2265656D656DF6
:1011E0002E6367693F7370723D646522207461727B
:1011F0006765743D226D61696E223E45456D656D82
:101200003C2F613E202F203C6120687265663D22A4
:1012100063726F6E2E6367693F7370723D646522FF
:10122000207461726765743D226D61696E223E6350
:10123000726F6E3C2F613E3C2F424F44593E3C2F13
:1012400048544D4C3E0D0A0D0A0073797374656D58
:101250002D656E2E68746D6C003C48544D4C3E3CC0
:10126000484541443E3C6C696E6B2072656C3D2282
:101270007374796C65736865657422207479706520
:101280003D22746578742F637373222068726566DB
:101290003D227374796C652E637373223E3C2F4834
:1012A0004541443E3C424F4459206267636F6C6F36
:1012B000723D2223433046464330223E3C61206843
:1012C0007265663D226974656C65786366672D6D2D
:1012D000656E752D656E2E68746D6C223E6261635D
:1012E0006B3C2F613E202F203C6120687265663D7B
:1012F0002272657365742E6367693F7370723D6512
:101300006E22207461726765743D226D61696E2280
:101310003E52657365743C2F613E202F203C612056
:10132000687265663D226E74702E6367693F7370E4
:10133000723D656E22207461726765743D226D6135
:10134000696E223E4E54503C2F613E202F203C615E
:1013500020687265663D2264796E646E732E6367E1
:10136000693F7370723D656E2220746172676574A7
:101370003D226D61696E223E44796E444E533C2F8E
:10138000613E202F203C6120687265663D226565C4
:101390006D656D2E6367693F7370723D656E2220C7
:1013A0007461726765743D226D61696E223E4545C8
:1013B0006D656D3C2F613E202F203C612068726579
:1013C000663D2263726F6E2E6367693F7370723D74
:1013D000656E22207461726765743D226D61696E6D
:1013E000223E63726F6E3C2F613E3C2F424F445948
:1013F0003E3C2F48544D4C3E0D0A0D0A00696E6666
:101400006F2E68746D6C003C48544D4C3E3C424F0E
:1014100044593E3C7072653E3C703E202057656CDE
:10142000636F6D6520746F0D0A5F5F5F5F5F5F5F65
:101430005F5F5F5F5F5F5F5F5F5F5F5F5F5F5F5FBC
:101440005F5F5F5F5F5F5F5F5F5F5F5F5F5F5F5FAC
:101450005F5F5F5F5F5F5F0D0A20204F4F4F20206F
:10146000202020204F4F4F4F4F20204F4F4F4F4FA6
:1014700020204F2020202020204F4F4F4F4F202052
:101480004F2020204F20200D0A2020204F202020F8
:101490002020202020204F202020204F20202020EE
:1014A00020204F2020202020204F202020202020DE
:1014B000204F204F2020200D0A202E2E2E2E2E2EA3
:1014C0002E2E2E2E2E2E2E2E2E2E2E2E2E2E2E2E3C
:1014D0002E2E2E2E2E2E2E2E2E2E2E2E2E2E2E2E2C
:1014E0002E2E2E2E2E2E2E0D0A2020204F20202094
:1014F0004F4F4F2020204F202020204F4F4F2020A3
:1015000020204F2020202020204F4F4F202020201F
:1015100020204F202020200D0A2020204F20202096
:101520002020202020204F202020204F202020205D
:1015300020204F2020202020204F2020202020204D
:10154000204F204F2020200D0A20204F4F4F2020D9
:101550002020202020204F202020204F4F4F4F4F71
:1015600020204F4F4F4F4F20204F4F4F4F4F2020A5
:101570004F2020204F20200D0A5F5F5F5F5F5F5F7D
:101580005F5F5F5F5F5F5F5F5F5F5F5F5F5F5F5F6B
:101590005F5F5F5F5F5F5F5F5F5F5F5F5F5F5F5F5B
:1015A0005F5F5F5F5F5F5F0D0A4275696C64203744
:1015B0003230204954413220203530204261756458
:1015C00020617420446174653A204D617220203797
:1015D00020323031372031383A31303A30330D0A49
:1015E0004D6F64756C65733A20416E7363686C75FA
:1015F0007373204E616D6573657276657220456DFB
:1016000061696C0D0A0D0A6275696C64206F6E2049
:101610004156522D6C6962632076657273696F6EF4
:101620003A20312E362E372F3230303930373032A3
:101630002077697468206176722D67636320342E89
:10164000332E330D0A0D0A286329323030362D32FD
:10165000303137202020536F6674776172653A20ED
:101660004672656420536F6E6E656E7265696E0DAD
:101670000A6261736564206F6E204F70656E4D4322
:1016800050206279204469726B2042726F737377C5
:1016900069636B0D0A3C2F7072653E3C2F703E3CB7
:1016A00062723E3C703E4F757220686F6D6570616E
:1016B00067653A203C6120687265663D22687474F3
:1016C000703A2F2F7777772E692D74656C65782E99
:1016D0006E65742F22207461726765743D22626C9E
:1016E000616E6B223E7777772E692D74656C657815
:1016F0002E6E65743C2F613E3C703E5468697320C9
:1017000070726F6A656374206F6E203C612068722E
:1017100065663D22687474703A2F2F736F7572631B
:1017200065666F7267652E6E65742F70726F6A657D
:101730006374732F6974656C65782F2220746172ED
:101740006765743D225F626C616E6B223E536F75FC
:10175000726365466F7267652E6E65743C2F613EDD
:101760003C2F424F44593E3C2F48544D4C3E0D0AAD
:10177000007374796C652E637373004063686172E3
:10178000736574202249534F2D383835392D312255
:101790000D0A202020613A6C696E6B207B207465F5
:1017A00078742D6465636F726174696F6E3A6E6FE1
:1017B0006E653B20666F6E742D7765696768743A55
:1017C000626F6C643B20636F6C6F723A2330303011
:1017D0003041303B207D200D0A202020613A76697F
:1017E0007369746564207B20746578742D64656307
:1017F0006F726174696F6E3A6E6F6E653B20666FD3
:101800006E742D7765696768743A626F6C643B200B
:10181000636F6C6F723A234130303041303B207D32
:10182000200D0A202020613A686F766572207B20A7
:10183000746578742D6465636F726174696F6E3A54
:101840006E6F6E653B20666F6E742D776569676895
:10185000743A626F6C643B206261636B67726F7590
:101860006E642D636F6C6F723A2346464343434365
:101870003B207D200D0A202020613A616374697647
:1018800065207B20746578742D6465636F72617464
:10189000696F6E3A6E6F6E653B20666F6E742D7762
:1018A00065696768743A626F6C643B206261636B60
:1018B00067726F756E642D636F6C6F723A23464664
:1018C000464643433B207D200D0A202020613A6696
:1018D0006F637573207B20746578742D6465636F06
:1018E000726174696F6E3A6E6F6E653B20666F6EE3
:1018F000742D7765696768743A626F6C643B206227
:1019000061636B67726F756E642D636F6C6F723A93
:10191000234343434346463B207D200D0A2020209D
:10192000707265207B206F766572666C6F773A20E7
:101930007363726F6C6C3B207D0D0A006974656C7B
:1019400065782D6D656E752D64652E68746D6C00FF
:101950003C48544D4C3E3C484541443E3C6C696ECD
:101960006B2072656C3D227374796C657368656574
:10197000742220747970653D22746578742F6373C6
:10198000732220687265663D227374796C652E63DC
:101990007373223E3C2F484541443E3C424F4459DC
:1019A000206267636F6C6F723D222343304646436B
:1019B00030223E3C6120687265663D226D61696E31
:1019C0006D656E752E68746D6C223E7A7572267523
:1019D000756D6C3B636B3C2F613E202F203C61207A
:1019E000687265663D226974656C65782D6D7367F4
:1019F0002D64652E68746D6C222074617267657445
:101A00003D226D61696E223E4E6163687269636852
:101A1000742073656E64656E3C2F613E202F203C00
:101A20006120687265663D226974656C65782D7405
:101A30006C6E7665727A2E6367693F7370723D646F
:101A40006522207461726765743D226D61696E2242
:101A50003E5465696C6E65686D65722D5665727A67
:101A6000656963686E69733C2F613E202F203C617D
:101A700020687265663D226974656C657863666787
:101A80002D6D656E752D64652E68746D6C223E69D2
:101A90002D54656C65782D45696E7374656C6C7535
:101AA0006E67656E3C2F613E202F203C612068727E
:101AB00065663D226974656C65782D64656275673D
:101AC0002E63676922207461726765743D226D61BF
:101AD000696E223E44656275672D496E666F733C80
:101AE0002F613E202F203C6120687265663D22698F
:101AF00074656C65782D747769746C6E6C69737439
:101B0000652E6367693F7370723D6465222074615E
:101B1000726765743D226D61696E223E4275732D58
:101B2000546C6E2D4C697374653C2F613E202F20E0
:101B30003C6120687265663D2273646469722E633D
:101B4000676922207461726765743D226D61696EF8
:101B5000223E53442D4B617274653C2F613E3C2FF5
:101B6000424F44593E3C2F48544D4C3E0D0A0D0AFD
:101B7000006974656C65782D6D656E752D656E2ECA
:101B800068746D6C003C48544D4C3E3C48454144A3
:101B90003E3C6C696E6B2072656C3D227374796C8F
:101BA0006573686565742220747970653D2274657B
:101BB00078742F6373732220687265663D22737494
:101BC000796C652E637373223E3C2F484541443E39
:101BD0003C424F4459206267636F6C6F723D222311
:101BE000433046464330223E3C6120687265663D84
:101BF000226D61696E6D656E752E68746D6C223E26
:101C00006261636B3C2F613E202F203C6120687233
:101C100065663D226974656C65782D6D73672D6509
:101C20006E2E68746D6C22207461726765743D223B
:101C30006D61696E223E53656E64206D65737361DC
:101C400067653C2F613E202F203C612068726566ED
:101C50003D226974656C65782D746C6E7665727A58
:101C60002E6367693F7370723D656E2220746172E6
:101C70006765743D226D61696E223E5375627363C0
:101C80007269626572206469726563746F72793C0F
:101C90002F613E202F203C6120687265663D2269DD
:101CA00074656C65786366672D6D656E752D656E00
:101CB0002E68746D6C223E692D54656C65782073B6
:101CC000657474696E67733C2F613E202F203C6100
:101CD00020687265663D226974656C65782D64655F
:101CE0006275672E63676922207461726765743D4F
:101CF000226D61696E223E646562756720696E6659
:101D00006F3C2F613E202F203C6120687265663D4C
:101D1000226974656C65782D747769746C6E6C6972
:101D20007374652E6367693F7370723D656E222020
:101D30007461726765743D226D61696E223E6C69E3
:101D40007374206F66206D6F64756C65733C2F61D2
:101D50003E202F203C6120687265663D22736464DA
:101D600069722E63676922207461726765743D220F
:101D70006D61696E223E534420636172643C2F6141
:101D80003E3C2F424F44593E3C2F48544D4C3E0D53
:101D90000A0D0A006974656C65786366672D6D6568
:101DA0006E752D64652E68746D6C003C48544D4C06
:101DB0003E3C484541443E3C6C696E6B2072656C0C
:101DC0003D227374796C657368656574222074793B
:101DD00070653D22746578742F6373732220687276
:101DE00065663D227374796C652E637373223E3C85
:101DF0002F484541443E3C424F4459206267636F3F
:101E00006C6F723D2223433046464330223E3C6194
:101E100020687265663D226974656C65782D6D6514
:101E20006E752D64652E68746D6C223E7A7572260F
:101E300075756D6C3B636B3C2F613E202F203C61C0
:101E400020687265663D226974656C6578636667B3
:101E50002D696E7465726E2E6367693F7370723D93
:101E6000646522207461726765743D226D61696EDC
:101E7000223E45696E7374656C6C756E67656E2085
:101E8000696D206C6F6B616C656E205478502D53BA
:101E9000797374656D3C2F613E202F203C61206872
:101EA0007265663D226974656C65786366672D6549
:101EB000787465726E2E6367693F7370723D6465F6
:101EC00022207461726765743D226D61696E223EE5
:101ED00045696E7374656C6C756E67656E20696DAF
:101EE00020692D54656C65782D4E65747A3C2F61A0
:101EF0003E202F203C6120687265663D2269746532
:101F00006C65786366672D656D61696C2E636769C2
:101F10003F7370723D646522207461726765743D21
:101F2000226D61696E223E654D61696C2D45696E59
:101F30007374656C6C756E67656E3C2F613E202F07
:101F4000203C6120687265663D226E6574776F7211
:101F50006B2D64652E68746D6C223E4E65747A77C5
:101F600065726B3C2F613E202F203C6120687265BA
:101F7000663D2273797374656D2D64652E68746D8A
:101F80006C223E53797374656D3C2F613E202F2087
:101F90003C6120687265663D226974656C65786392
:101FA00066672D7370657272656E2E6367693F7325
:101FB00070723D646522207461726765743D226DA4
:101FC00061696E223E5370657272656E3C2F613E90
:101FD0003C2F424F44593E3C2F48544D4C3E0D0A35
:101FE0000D0A006974656C65786366672D6D656EB2
:101FF000752D656E2E68746D6C003C48544D4C3EDA
:102000003C484541443E3C6C696E6B2072656C3DBA
:10201000227374796C6573686565742220747970B5
:10202000653D22746578742F63737322206872652E
:10203000663D227374796C652E637373223E3C2F68
:10204000484541443E3C424F4459206267636F6CAF
:102050006F723D2223433046464330223E3C61208E
:10206000687265663D226974656C65782D6D656E74
:10207000752D656E2E68746D6C223E6261636B3CDB
:102080002F613E202F203C6120687265663D2269E9
:1020900074656C65786366672D696E7465726E2E03
:1020A0006367693F7370723D656E22207461726769
:1020B00065743D226D61696E223E6C6F63616C20B8
:1020C00073657474696E67733C2F613E202F203CEA
:1020D0006120687265663D226974656C6578636627
:1020E000672D65787465726E2E6367693F737072D1
:1020F0003D656E22207461726765743D226D616971
:102100006E223E692D54656C6578206E6574776F1C
:10211000726B2073657474696E67733C2F613E2027
:102120002F203C6120687265663D226974656C658C
:10213000786366672D656D61696C2E6367693F73AF
:1021400070723D656E22207461726765743D226D08
:1021500061696E223E654D61696C207365747469B6
:102160006E67733C2F613E202F203C6120687265B2
:10217000663D226E6574776F726B2D656E2E687486
:102180006D6C223E4E6574776F726B3C2F613E2002
:102190002F203C6120687265663D227379737465F7
:1021A0006D2D656E2E68746D6C223E537973746567
:1021B0006D3C2F613E202F203C6120687265663D9A
:1021C000226974656C65786366672D7370657272D9
:1021D000656E2E6367693F7370723D656E22207471
:1021E00061726765743D226D61696E223E6C6F633A
:1021F0006B3C2F613E3C2F424F44593E3C2F48548C
:102200004D4C3E0D0A0D0A006974656C65782D6DA4
:1022100073672D64652E68746D6C003C48544D4C9A
:102220003E3C484541443E3C2F484541443E3C6687
:1022300072616D6573657420726F77733D222A2C0D
:10224000363022207363726F6C6C696E673D226E4C
:102250006F22206672616D65626F726465723D22E5
:10226000322220626F726465723D223222206672D1
:10227000616D6573706163696E673D223222206211
:102280006F72646572636F6C6F723D222330303001
:10229000303030223E3C6672616D65207372633D62
:1022A000226974656C65782D6D73672D6F75742E5A
:1022B0006367693F7370723D646522206E616D656E
:1022C0003D224D73674F757422207363726F6C6C7F
:1022D000696E673D226175746F223E3C6672616D66
:1022E00065207372633D226974656C65782D6D732A
:1022F000672D696E2E6367693F7370723D64652256
:10230000206E616D653D224D7367496E22207363B7
:10231000726F6C6C696E673D226E6F223E3C6E6F11
:102320006672616D65733E3C626F64793E3C703EDF
:102330004968722042726F7773657220756E74659A
:10234000727374C3BC747A74206B65696E652046C1
:1023500072616D6573213C2F703E3C2F626F647912
:102360003E3C2F6E6F6672616D65733E3C2F6672E8
:10237000616D657365743E3C2F48544D4C3E0D0AAB
:102380000D0A006974656C65782D6D73672D656E37
:102390002E68746D6C003C48544D4C3E3C484541A1
:1023A000443E3C2F484541443E3C6672616D657336
:1023B000657420726F77733D222A2C363022207389
:1023C00063726F6C6C696E673D226E6F222066725D
:1023D000616D65626F726465723D22322220626FA8
:1023E000726465723D223222206672616D6573707F
:1023F0006163696E673D22322220626F726465728A
:10240000636F6C6F723D2223303030303030223EAB
:102410003C6672616D65207372633D226974656C00
:1024200065782D6D73672D6F75742E6367693F73C3
:1024300070723D656E22206E616D653D224D736741
:102440004F757422207363726F6C6C696E673D22E6
:102450006175746F223E3C6672616D6520737263B4
:102460003D226974656C65782D6D73672D696E2EDC
:102470006367693F7370723D656E22206E616D65A2
:102480003D224D7367496E22207363726F6C6C69D5
:102490006E673D226E6F223E3C6E6F6672616D65A7
:1024A000733E3C626F64793E3C703E4968722042E4
:1024B000726F7773657220756E7465727374C3BCC6
:1024C000747A74206B65696E65204672616D657300
:1024D000213C2F703E3C2F626F64793E3C2F6E6F23
:1024E0006672616D65733E3C2F6672616D657365E2
:1024F000743E3C2F48544D4C3E0D0A0D0A002820D6
:10250000256C642042797465207565626572747209
:102510006167656E20285344290D0A0048545450C1
:1025200020736F636B657420636C6F7365642062E6
:102530007920636C69656E740D0A00485454502FFD
:10254000312E312032303020446F63756D656E74EA
:1025500020666F6C6C6F77730D0A436F6E74656ED7
:10256000742D4C656E6774683A20256C640D0A43BF
:102570006F6E74656E742D547970653A20257325DD
:10258000730D0A43616368652D436F6E74726F6CDF
:102590003A206D61782D6167653D333630300D0A24
:1025A000436F6E6E656374696F6E3A20636C6F7310
:1025B000650D0A0D0A00746578742F0068746D004B
:1025C00068746D6C002820256C6420427974652045
:1025D000756562657274726167656E2028464C414C
:1025E0005348290D0A000D0A436F6E74656E742DF1
:1025F0004C656E6774683A2025640D0A4361636810
:10260000652D436F6E74726F6C3A206D61782D6129
:1026100067653D333630300D0A436F6E6E65637407
:10262000696F6E3A20636C6F73650D0A0D0A006264
:10263000696E00746578742F68746D6C006A7065DB
:102640006700706E6700485454502F312E3120328D
:10265000303020446F63756D656E7420666F6C6CEE
:102660006F77730D0A436F6E74656E742D547970B5
:10267000653A20000D0A002066726F6D20006874B4
:1026800074702D726571756573743A200068747486
:10269000702D7365727665723A20257320003E2096
:1026A0000051756974696E670D0A0071756974006F
:1026B000556E642C206C6F73206765687427732EC9
:1026C0002E2E21212120282268656C702220686925
:1026D0006C6674203A2D29290D0A3E200074656C21
:1026E0006E65740054656C6E65742D536572766505
:1026F0007220506F72742025642E0D0A0043524FD1
:102700004E5F454E5452595F253032640025643A7D
:10271000206E696368742062656C6567740D0A00D9
:1027200025643A2025642025642025730D0A006362
:10273000726F6E00666F6F2E636769002573202FBE
:10274000202573202F2025640D0A0049502F4D416C
:10275000432F54544C0D0A00617270003C2F424FBD
:1027600044593E3C2F48544D4C3E0D0A0D0A003C46
:1027700048544D4C3E3C484541443E3C6D65746177
:1027800020687474702D65717569763D2272656676
:10279000726573682220636F6E74656E743D2236B5
:1027A00030303B20223E3C5449544C453E537472D9
:1027B00065616D696E673C2F5449544C453E3C2F12
:1027C000484541443E3C424F4459206267636F6C28
:1027D0006F723D22233232384232322220746578C1
:1027E000743D2223464646464646223E5A65697453
:1027F0003A20253032643A253032643A253032644A
:102800002E2530326420282025752F25752F253060
:10281000347520290050485354415432207C2030D4
:1028200078253034580D0A00504853544154312013
:102830007C203078253034580D0A005265762E49B8
:102840004420207C2020203078253032580D0A008A
:102850002D2D2D2D2D2D2D2D2B2D2D2D2D2D2D2DAA
:102860002D0D0A005265672E202020207C20576500
:1028700072740D0A00454E4332384A36303A0D0A1A
:10288000005443502D5458204572726F72733A2091
:102890002564205443502D5258204572726F727334
:1028A0003A2025642028756E736F72746564202544
:1028B000642C206F6C64736571202564290D0A0DEA
:1028C0000A0045746865726E65743A20256C642050
:1028D000427974657320696E20256C6420506163B1
:1028E0006B6574656E204C6F636B4572726F7273AB
:1028F00020256C640D0A0073746174732E6367691C
:10290000007374617473005265736574007265734B
:102910006574007265736574007265736574003C5C
:10292000666F726D20616374696F6E3D22726573AC
:1029300065742E63676922206D6574686F643D223B
:1029400067657422206163636570742D63686172CA
:102950007365743D2249534F2D383835392D312256
:102960003E3C703E3C696E70757420747970653DB4
:10297000227375626D697422206E616D653D2272ED
:1029800065736574222076616C75653D227265738E
:102990006574223E3C2F703E3C2F666F726D3E0088
:1029A00072657365742E6367690072657365740080
:1029B000646E73203C686F73746E616D653E0D0AC2
:1029C000004950207A75202573203D2025730D0A7B
:1029D00000646E730044484350004950004D415319
:1029E0004B004741544500444E53004D4143005372
:1029F000657474696E67732073617665642C2072E8
:102A000065626F6F74206E656365737361727920A0
:102A1000746F2074616B6520656666656374210D53
:102A20000A003C74723E3C746420616C69676E3DC0
:102A3000227269676874223E4861726477617265C8
:102A40002D4D41433C2F74643E3C74643E3C696EA2
:102A5000707574206E616D653D224D414322207476
:102A60007970653D2274657874222073697A653DBA
:102A7000223137222076616C75653D222573222034
:102A80006D61786C656E6774683D223137223E3C1B
:102A90002F74643E3C2F74723E3C74723E3C7464EE
:102AA0003E3C2F74643E3C74643E3C696E707574A9
:102AB00020747970653D227375626D697422207689
:102AC000616C75653D222053617665206368616E97
:102AD00067657320223E3C2F74643E3C2F74723E27
:102AE0003C2F7461626C653E3C2F666F726D3E00D8
:102AF0004D4143003C74723E3C746420616C6967D4
:102B00006E3D227269676874223E444E532D5365B0
:102B1000727665723C2F74643E3C74643E3C696E10
:102B2000707574206E616D653D22444E5322207491
:102B30007970653D2274657874222073697A653DE9
:102B4000223135222076616C75653D222573222065
:102B50006D61786C656E6774683D223135223E3C4C
:102B60002F74643E3C2F74723E00444E53003C74FC
:102B7000723E3C746420616C69676E3D22726967C5
:102B80006874223E476174657761793C2F74643EB6
:102B90003C74643E3C696E707574206E616D653D79
:102BA00022474154452220747970653D227465782E
:102BB00074222073697A653D223135222076616C5A
:102BC00075653D22257322206D61786C656E677492
:102BD000683D223135223E3C2F74643E3C2F747296
:102BE0003E0047415445003C74723E3C7464206191
:102BF0006C69676E3D227269676874223E4E657427
:102C00006D61736B3C2F74643E3C74643E3C696E32
:102C1000707574206E616D653D224D41534B2220CD
:102C2000747970653D2274657874222073697A65C1
:102C30003D223135222076616C75653D2225732257
:102C4000206D61786C656E6774683D223135223E77
:102C50003C2F74643E3C2F74723E004D41534B0038
:102C60003C74723E3C746420616C69676E3D2272F4
:102C700069676874223E49502061646472657373A9
:102C80003C2F74643E3C74643E3C696E70757420E5
:102C90006E616D653D2249502220747970653D2238
:102CA00074657874222073697A653D22313522205B
:102CB00076616C75653D22257322206D61786C65A7
:102CC0006E6774683D223135223E3C2F74643E3C71
:102CD0002F74723E004950003E3C2F74643E3C2FDE
:102CE00074723E00636865636B6564006F6E003CE0
:102CF00074723E3C746420616C69676E3D22726937
:102D0000676874223E444843502061637469766565
:102D10003C2F74643E3C74643E3C696E7075742054
:102D2000747970653D22636865636B626F782220F9
:102D30006E616D653D2244484350222076616C757A
:102D4000653D226F6E22200044484350003C666F70
:102D5000726D20616374696F6E3D226E6574776F6A
:102D6000726B2E636769223E3C7461626C652062FF
:102D70006F726465723D2230222063656C6C7061F5
:102D80006464696E673D2235222063656C6C7370E4
:102D90006163696E673D2230223E00636F6E666933
:102DA00067003C2F7072653E0D0A00737461747386
:102DB000006966636F6E666967003C7072653E0D00
:102DC0000A000D0A48572D4164723A2025303278A6
:102DD0003A253032783A253032783A253032783A0E
:102DE000253032783A253032780D0A0D0A00444EEB
:102DF000533A25730D0A00476174657761793A2566
:102E0000730D0A004E65746D61736B3A25730D0A7C
:102E10000049503A25730D0A006E6574776F726B26
:102E20002E636769006966636F6E666967004E545A
:102E300050004E5450534552564552005554435A33
:102E40004F4E450045696E7374656C6C756E6765B1
:102E50006E2075656265726E6F6D6D656E210D0A0F
:102E6000003C74723E3C746420616C69676E3D2264
:102E70007269676874223E534E54502D53657276C2
:102E800065723C2F74643E3C74643E3C696E7075A0
:102E900074206E616D653D224E5450534552564527
:102EA000522220747970653D2274657874222073F3
:102EB000697A653D223235222076616C75653D2246
:102EC000257322206D61786C656E6774683D2232CF
:102ED00035223E3C2F74643E3C2F74723E3C74722B
:102EE0003E3C746420616C69676E3D22726967685C
:102EF00074223E5A6569747A6F6E653C2F74643E25
:102F00003C74643E3C696E707574206E616D653D05
:102F1000225554435A4F4E452220747970653D2204
:102F200074657874222073697A653D223322207695
:102F3000616C75653D22257322206D61786C656E2C
:102F40006774683D2233223E3C2F74643E3C2F74EC
:102F5000723E3C74723E3C74643E3C2F74643E3C52
:102F600074643E3C696E70757420747970653D229E
:102F70007375626D6974222076616C75653D2220DF
:102F800045696E7374656C6C756E67202655756D3A
:102F90006C3B6265726E65686D656E20223E3C2FEB
:102FA00074643E3C2F74723E3C2F7461626C653ECB
:102FB0003C2F666F726D3E00300074696D652E6641
:102FC000752D6265726C696E2E6465003E3C2F74CF
:102FD000643E3C2F74723E00636865636B656400F9
:102FE0006F6E003C666F726D20616374696F6E3D39
:102FF000226E74702E636769223E0D3C7461626CB0
:103000006520626F726465723D2230222063656CB8
:103010006C70616464696E673D2235222063656C63
:103020006C73706163696E673D2230223E3C74723E
:103030003E3C746420616C69676E3D22726967680A
:1030400074223E534E545020616B746976696572E8
:10305000656E3C2F74643E3C74643E3C696E7075D2
:103060007420747970653D22636865636B626F7864
:1030700022206E616D653D224E5450222076616C97
:1030800075653D226F6E2220006E7470203C6E7458
:10309000707365727665723E0D0A004665686C65F0
:1030A000720D0A004E657565205A6569743A2025CF
:1030B0003032643A253032643A253032640D0A00E9
:1030C000486F6C65205A65697420766F6E20257391
:1030D0000D0A004665686C65720D0A006E7470001A
:1030E0002644594E444E535F555345525057004461
:1030F000594E444E535F444F4D41494E0045696E11
:103100007374656C6C756E67656E2075656265724B
:103110006E6F6D6D656E210D0A002D31202D3135DC
:10312000202264796E646E73207570646174652208
:103130000044594E444E535F4F4E002D31202D31E7
:1031400035202264796E646E7320757064617465D5
:10315000220044594E444E530044594E444E535F4E
:103160004F4E0044594E444E5300444F4D41494E3A
:103170000044594E444E535F444F4D41494E004424
:103180004F4D41494E004143434F554E5400264454
:10319000594E444E535F5553455250570041434397
:1031A0004F554E54004143434F554E54003C666FBB
:1031B000726D20616374696F6E3D2264796E646E16
:1031C000732E636769223E0D203C7461626C65203A
:1031D000626F726465723D2230222063656C6C7090
:1031E000616464696E673D2235222063656C6C738F
:1031F000706163696E673D2230223E20203C74720C
:103200003E0D2020203C746420616C69676E3D2275
:103210007269676874223E44796E444E5320616B34
:10322000746976696572656E3C2F74643E20202057
:103230003C74643E3C696E70757420747970653DB1
:1032400022636865636B626F7822206E616D653DF5
:103250002244594E444E53222076616C75653D22BE
:103260006F6E22202573203E20203C2F74643E0D7B
:1032700020203C74723E0D2020203C746420616C40
:1032800069676E3D227269676874223E64796E4494
:103290004E53204163636F756E74202820757365EB
:1032A000723A707720293C2F74643E2020203C74B1
:1032B000643E3C696E707574206E616D653D22419F
:1032C00043434F554E542220747970653D227465F6
:1032D0007874222073697A653D2233312220766129
:1032E0006C75653D2222206D61786C656E6774682F
:1032F0003D223331223E3C2F74643E20203C2F740B
:10330000723E0D20203C74723E0D2020203C7464DF
:1033100020616C69676E3D227269676874223E4461
:10332000796E444E5320446F6D61696E3C2F746416
:103330003E2020203C74643E3C696E707574206EA3
:10334000616D653D22444F4D41494E222074797094
:10335000653D2274657874222073697A653D223355
:1033600031222076616C75653D22257322206D61C6
:10337000786C656E6774683D223531223E3C2F744F
:10338000643E20203C2F74723E0D20203C74723E1F
:103390000D2020203C74643E3C2F74643E3C7464D9
:1033A0003E3C696E70757420747970653D2273754A
:1033B000626D6974222076616C75653D22204569D5
:1033C0006E7374656C6C756E67202655756D6C3BFD
:1033D0006265726E65686D656E20223E3C2F746476
:1033E0003E20203C2F74723E0D203C2F7461626C95
:1033F000653E0D3C2F666F726D3E00636865636BC2
:103400006564006F6E0044594E444E535F4F4E004A
:1034100044594E444E535F444F4D41494E00445928
:103420004E444E535F444F4D41494E0064796E64A3
:103430006E73203C7570646174653E202F203C7370
:1034400065746163636F756E7420757365723A702D
:10345000774064796E646E732D646F6D61696E3E42
:103460000D0A004163636F756E74646174656E204C
:1034700067657370656963686572742E0D0A007301
:1034800065746163636F756E740055706461746513
:103490002066756572202573206665686C676573A4
:1034A00063686C6167656E0D0A00557064617465D0
:1034B0002066756572202573206572666F6C677271
:1034C000656963682E0D0A00757064617465006437
:1034D000796E646E732E6367690064796E646E73CF
:1034E0000064656C0064656C0045696E7374656C9E
:1034F0006C756E67656E2075656265726E6F6D6D59
:10350000656E210D0A00434D44002564202564208A
:1035100022257322004D4D00484800434D44003C95
:10352000666F726D20616374696F6E3D2263726FA6
:103530006E2E636769223E3C7461626C6520626F27
:10354000726465723D2230222063656C6C70616428
:1035500064696E673D2235222063656C6C7370610F
:1035600063696E673D2230223E3C74723E3C746457
:1035700020616C69676E3D227269676874223E53F0
:1035800074756E64653C2F74643E3C74643E3C69A3
:103590006E707574206E616D653D224848222074FE
:1035A0007970653D2274657874222073697A653D6F
:1035B0002233222076616C75653D2230226D617860
:1035C0006C656E6774683D2233223E3C2F74643E06
:1035D0003C2F74723E3C74723E3C746420616C6992
:1035E000676E3D227269676874223E4D696E75741C
:1035F000653C2F74643E3C74643E3C696E70757427
:10360000206E616D653D224D4D2220747970653DBF
:103610002274657874222073697A653D22332220F2
:1036200076616C75653D223022206D61786C656E27
:103630006774683D2233223E3C2F74643E3C2F74F5
:10364000723E3C74723E3C746420616C69676E3DEE
:10365000227269676874223E436F6D6D616E643CCF
:103660002F74643E3C74643E3C696E707574206EC9
:10367000616D653D22434D442220747970653D2281
:1036800074657874222073697A653D223330222074
:103690006D61786C656E6774683D223330223E3C04
:1036A0002F74643E3C2F74723E3C74723E3C7464D2
:1036B0003E3C2F74643E3C74643E3C696E7075748D
:1036C00020747970653D227375626D69742220766D
:1036D000616C75653D222045696E74726167207367
:1036E00069636865726E20223E3C2F74643E3C2FF5
:1036F00074723E3C2F7461626C653E3C2F666F7243
:103700006D3E0D006164646E6577003C74723E3CF2
:10371000746420616C69676E3D226C656674223E3C
:103720003C6120687265663D2263726F6E2E63672E
:10373000693F6164646E657722207374796C653DBE
:1037400022746578742D6465636F726174696F6E3D
:103750003A6E6F6E6522207469746C653D22416417
:1037600064223E3C696E70757420747970653D22E8
:10377000627574746F6E222076616C75653D22618E
:103780006464206E65772063726F6E2220636C61C3
:1037900073733D22616374696F6E42746E223E3CA6
:1037A0002F613E3C2F74643E3C2F74723E3C2F745C
:1037B00061626C653E0D003C74723E3C7464206135
:1037C0006C69676E3D226C656674223E25733C2FE2
:1037D00074643E3C746420616C69676E3D226C6564
:1037E0006674223E3C6120687265663D2263726F9A
:1037F0006E2E6367693F64656C3D25642220737497
:10380000796C653D22746578742D6465636F7261AF
:1038100074696F6E3A6E6F6E6522207469746C65A0
:103820003D2244656C223E3C696E7075742074794B
:1038300070653D22627574746F6E222076616C75BE
:10384000653D2264656C2220636C6173733D226167
:103850006374696F6E42746E223E3C2F613E3C2F52
:1038600074643E3C2F74723E003C7461626C65204F
:10387000626F726465723D2230222063656C6C70E9
:10388000616464696E673D2235222063656C6C73E8
:10389000706163696E673D2230223E0063726F6E15
:1038A0002E636769003C2F7072653E003C70726544
:1038B0003E0065656D656D203C70726F7465637464
:1038C0003E7C3C756E70726F746563743E203C6123
:1038D0006464205B6E616D652076616C5D3E203CAA
:1038E00064656C205B6E616D655D3E203C70726945
:1038F0006E743E203C636C65616E3E0D0A00636C25
:1039000065616E007072696E740064656C0061645C
:103910006400756E70726F7465637465740D0A006F
:1039200057524954455F50524F54454354004F46F7
:103930004600756E70726F74656374005752495417
:10394000455F50524F54454354004F4E0070726FC4
:10395000746563740065656D656D2E6367690065E8
:10396000656D656D0037323000E4F6FCC4D6DCDFEF
:103970005B5D3C3E7B7D405F232200616F75414F64
:103980005573283A282E282D28202B270065656599
:10399000656565733A292E292D2929202B27005387
:1039A0005052414348450043464750415353005409
:1039B0004C4E425543484F4646454E0050524F5498
:1039C0004C4556454C0050524F544C4556454C546E
:1039D0004C4E535256004C414E474449454E535469
:1039E0004D454C4400534F434B45544C4F470048C2
:1039F000415550545354454C4C4500454947454E5C
:103A0000454E554D4D45520046455354454850533B
:103A100054004D454C445255434B00414C54455283
:103A20004E42454942455300445552434857414848
:103A30004C544142004155544F444154554D005A55
:103A400045494C454E4C41454E4745005A45495421
:103A500052554E4453454E44004E45545A525546D5
:103A60004E520050494E0044594E4950414B544922
:103A700056004E45545A504F52540053454C4253F1
:103A800054414E504552005255464E52534552569F
:103A900031005255464E5253455256320052554609
:103AA0004E5253455256330053594E4350494E00DF
:103AB0002E2E2E5465696C6E65686D65722D53658A
:103AC00072766572206F6B0D0A002E2E2E546C6E6E
:103AD00042756368206F6B0D0A002E2E2E456D61B6
:103AE000696C206F6B0D0A006954656C657800691C
:103AF00054656C657820506F72742025752E0D0A00
:103B0000002E2E2E436769206F6B0D0A006E7470B5
:103B10002E6367690073646469722E636769006D60
:103B2000656D64756D702E686578006974656C6587
:103B3000782D64656275672E636769006974656CCA
:103B400065786366672D7370657272656E2E636744
:103B500069006974656C65786366672D657874655E
:103B6000726E2E636769006974656C657863666759
:103B70002D696E7465726E2E636769006974656C79
:103B800065782D747769746C6E6C697374652E63D7
:103B90006769006974656C65782D6D73672D6F7545
:103BA000742E636769006974656C65782D6D736741
:103BB0002D696E2E636769002E2E2E54696D657215
:103BC0002D43616C6C6261636B2D46756E6B74691D
:103BD0006F6E206F6B0D0A006974656C65785F69A4
:103BE0006E6974323A0D0A002E2E2E436F6E66698E
:103BF00067206F6B0D0A002E2E2E53656E64655084
:103C000075666665722C20456D70665075666665D2
:103C100072206F6B0D0A006974656C65785F696E60
:103C20006974313A0D0A005852414D5741495400C8
:103C30004E6575737461727420373230205265732B
:103C400065742D466C61677320253032580D0A006B
:103C5000444843500063757200253032580D0A0005
:103C600025303258003A2530325825303458253026
:103C70003258004572726F722072656164696E67B6
:103C8000206469726563746F727921003C612068F9
:103C9000726566203D2225732F2573223E25733CD5
:103CA0002F613E20256C64203C736D616C6C3E3C42
:103CB000612068726566203D2273646469722E63B8
:103CC00067693F6469723D25732664656C3D2573A1
:103CD0002F2573223E64656C6574653C2F613E3C04
:103CE0002F736D616C6C3E3C62723E003C612068DB
:103CF000726566203D222573223E25733C2F613E6E
:103D000020256C64203C736D616C6C3E3C612068C6
:103D1000726566203D2273646469722E6367693F31
:103D200064656C3D2573223E64656C6574653C2F4B
:103D3000613E3C2F736D616C6C3E3C62723E003C98
:103D4000612068726566203D2273646469722E6327
:103D500067693F6469723D25732F2573223E257381
:103D60003C2F613E204449523C62723E003C61203F
:103D700068726566203D2273646469722E636769A8
:103D80003F6469723D2573223E25733C2F613E20BE
:103D90004449523C62723E003C2F623E2028256C12
:103DA000752066726565293C62723E003C623E4346
:103DB0006F6E74656E74206F662025733A006469B7
:103DC00072003C623E436F6E74656E74206F6620B5
:103DD0002F3A006469720046696C65202573204E95
:103DE0004F5420666F756E643C703E0046696C658A
:103DF000202573204E4F542064656C657465643CC7
:103E0000703E0046696C652025732064656C65749E
:103E100065643C703E0064656C0064656C003C2F1A
:103E2000613E003C6120687265663D226974656C84
:103E300065786366672D65787465726E2E63676951
:103E4000223E006974656C65786366672D657874D9
:103E500065726E2E636769003A2025730031300069
:103E60003A202573003C62723E003A2025732028D8
:103E7000256429003C62723E003C62723E003A209A
:103E80002573003C62723E003A202573003A2025DB
:103E900073003C62723E003A202573003A2025737D
:103EA000003C62723E003C2F613E003C6120687223
:103EB00065663D226974656C65786366672D696E19
:103EC0007465726E2E636769223E006974656C6565
:103ED000786366672D696E7465726E2E636769001C
:103EE0003C2F613E3C2F666F726D3E0020223E3CAF
:103EF0006120687265663D226974656C65782D6D18
:103F000073672D6F75742E63676922207461726701
:103F100065743D224D73674F7574223E003C696E97
:103F2000707574206E616D653D2245696E676162D2
:103F3000652220747970653D22746578742220733F
:103F4000697A653D223635222076616C75653D22A1
:103F500022206D61786C656E6774683D223635226B
:103F60003E3C696E70757420747970653D2273757E
:103F7000626D6974222076616C75653D22003C6635
:103F80006F726D20616374696F6E3D226974656C38
:103F900065782D6D73672D696E2E636769223E000B
:103FA00048544D4C2D43686174206265676F6E6E96
:103FB000656E2028416E7761686C20257529202D5B
:103FC0003E20000D0A0048544D4C2D43686174207A
:103FD00045696E676162653A20000D0A0045696EA9
:103FE000676162650044757263687761686C206917
:103FF0006E20546162656C6C6520676566756E64E1
:10400000656E2025750D0A004475726368776168D6
:104010006C2061757320546162656C6C6520756DF0
:1040200067657365747A742025750D0A004475728E
:1040300063687761686C2D416E66726167652025E3
:10404000750D0A006954656C657828253575293A1F
:104050002000446972656B74647275636B20416201
:1040600072756620447275636B7370696567656C01
:10407000202862656C656774290D0A0044697265C1
:104080006B74647275636B20416272756620447252
:1040900075636B7370696567656C2028617573293A
:1040A0000D0A0020282575290D0A00446972656BE8
:1040B00074647275636B2041627275662044727518
:1040C000636B7370696567656C3A003C62723E3C75
:1040D0007072653E2573266C743B266C743B266CAF
:1040E000743B257325733C2F7072653E003C485429
:1040F0004D4C3E3C484541443E3C6D6574612068F2
:104100007474702D65717569763D22657870697279
:1041100065732220636F6E74656E743D2231223E9A
:104120003C6D65746120687474702D657175697675
:104130003D22707261676D612220636F6E74656EDF
:10414000743D226E6F2D6361636865223E3C6D6530
:10415000746120687474702D65717569763D227282
:104160006566726573682220636F6E74656E743D58
:104170002231303B2055524C3D6974656C65782D79
:104180006D73672D6F75742E636769223E3C2F48EF
:104190004541443E3C424F44593E003C62723E3CE5
:1041A0006120687265663D226974656C65782D646E
:1041B000656275672E6367693F7265736574223E39
:1041C00053746174697374696B2D446174656E20F6
:1041D0007A75722675756D6C3B636B7365747A6561
:1041E0006E3C2F613E3C62723E45746865726E653E
:1041F000743A20256C6420427974657320696E20BE
:10420000256C642050616B6574656E204C6F636B28
:104210004572726F727320256C640020256C7500E6
:104220003C62723E20564343205B6D565D203D004C
:104230003C62723E53797374656D53746172745A43
:10424000656974203D20253032752E253032752E5B
:104250002530347520253032643A253032643A25D1
:104260003032642C205265736574466C6167203D62
:104270002025303258003C62723E584D4352412056
:104280003D2025303258003C62723E4465627567BD
:104290005F4C6F776573745350203D202530325842
:1042A000003C62723E4E54505570646174654469BE
:1042B00066665365636F6E6473203D202564003C21
:1042C00062723E5A656974536572766572416266C0
:1042D0007261676554696D6572456E6465203D2045
:1042E0002575003C62723E4C616E6754696D657263
:1042F00056616C28265A65697453657276657241F9
:1043000062667261676554696D657229203D20257A
:1043100075003C62723E4E65747A456967656E65EC
:104320004950203D2025303258003C62723E4E6597
:10433000747A506F7274203D202575003C62723E85
:104340005443505F736F636B65745B25645D3A2003
:10435000636C6F736564003C62723E5443505F73DC
:104360006F636B65745B25645D3A20436F6E6E65A9
:104370006374696F6E53746174653D25752C2053A9
:10438000656E6453746174653D25752C20536F759B
:10439000726365506F72743D25752C20446573748B
:1043A000696E6174696F6E506F72743D25752C2053
:1043B000536F7572636549503D256C582C205469C4
:1043C0006D656F7574636F756E7465723D256400FD
:1043D0003C62723E54696D65723043616C6C62611F
:1043E000636B5F4D6178203D202575003C62723E15
:1043F00054696D657230436E745F4D6178203D2065
:104400002575003C62723E54696D657230436E746E
:104410005F4D696E203D202575003C62723E5469F7
:104420006D65723043616C6C6261636B436F756E76
:1044300074203D202575003C62723E4954656C65D0
:1044400078546872656164436F756E74203D2025F1
:1044500075003C62723E547769497372436F756EA2
:1044600074203D202575003C62723E46616C73638A
:10447000686572436F6465203D202575003C62725B
:104480003E4B75727A54696D657256616C28266967
:1044900054656C6578546872656164436865636BE4
:1044A00054696D657229203D202575003C62723E7D
:1044B0004B75727A54696D657256616C2826695421
:1044C000656C6578536F636B65744C6562656E737C
:1044D0007A65696368656E54696D657229203D204F
:1044E0002575003C62723E4275734B6F6C6C69734C
:1044F000696F6E5A6165686C6572203D2025750094
:104500003C62723E5477695761746368646F6743B5
:104510006F756E74203D202575003C62723E5477A5
:10452000694C6562656E737A65696368656E5A6128
:1045300065686C6572203D202575003C62723E4BBB
:1045400075727A54696D657256616C28264275736E
:10455000517569747454696D657229203D20257503
:10456000003C62723E4C616E6754696D65725661C3
:104570006C28264265696465527568696754696D7F
:10458000657229203D202575003C62723E546569A4
:104590006C6E65686D6572536572766572466568A6
:1045A0006C65725A6165686C657228257329203DB7
:1045B0002025642C205370657272652D54696D65D9
:1045C00072202564003C62723E416B74546C6E53E1
:1045D000657276657254616249203D202575003C04
:1045E00062723E5465696C6E65686D657253657282
:1045F000766572416C6C654E69636874457272656C
:10460000696368626172203D202575003C62723EDC
:104610005465696C6E65686D657253657276657216
:10462000536F636B6574203D202564003C62723ECD
:104630005465696C6E65686D65722D53657276653B
:104640007220696E616B746976003C62723E5365DC
:104650006C627374416E7275665A656974556562F1
:10466000657277616368756E673A20003C62723EDE
:1046700053656C627374416E727566456D706661E8
:104680006E67507275656677657274203D2025757A
:10469000003C62723E53656C627374416E72756663
:1046A00053656E6465507275656677657274203DFA
:1046B000202575003C62723E53656C627374416ED6
:1046C000727566536F636B657448616E646C6520C8
:1046D0003D202564003C62723E53656C62737441F8
:1046E0006E727566456E647A656974203D20257525
:1046F000003C62723E4B75727A54696D6572566108
:104700006C282653656C627374416E7275665469C9
:104710006D657229203D202575003C62723E53650F
:104720006C627374416E7275664665686C65725A28
:104730006165686C6572203D202575003C62723EA3
:1047400053656C627374416E72756650686173650F
:10475000203D202575003C62723E44796E495041EF
:104760006B7475616C6973696572756E67456E64AB
:104770007A656974203D202575003C62723E4C616B
:104780006E6754696D657256616C282644796E496E
:1047900050416B7475616C6973696572756E6754AD
:1047A000696D657229203D202575003C62723E448A
:1047B000796E49505F5068617365203D2025750012
:1047C0003C62723E536F636B6574416E7A61686CD4
:1047D0005A65696368656E456D7066616E67656E82
:1047E000203D202575003C62723E536F636B6574FB
:1047F000416E7A61686C5A65696368656E51756966
:10480000747469657274203D202575003C62723EA7
:10481000536F636B6574416E7A61686C5A65696346
:1048200068656E476573656E646574203D20257507
:10483000003C62723E50726F746F6B6F6C6C5068AC
:10484000617365203D202575003C62723E536F63A5
:104850006B65744F757442756655736564203D20B1
:104860002575003C62723E536F636B6574496E42FE
:10487000756655736564203D202575003C62723E67
:104880004B75727A54696D657256616C282669544D
:10489000656C6578536F636B6574416262727563B2
:1048A0006854696D657229203D202575003C62724F
:1048B0003E6954656C6578536F636B6574416262E1
:1048C00061754765706C616E74203D202575003CF4
:1048D00062723E6954656C6578536F636B657450A2
:1048E000726F7456657273696F6E203D2025750076
:1048F0003C62723E6954656C6578536F636B657496
:1049000050726F746F6B6F6C6C203D202575003C8E
:1049100062723E6954656C6578536F636B65745061
:104920006F7274203D202575003C62723E695465AB
:104930006C6578536F636B65744950203D2025305A
:104940003258003C62723E6954656C6578536F63FF
:104950006B657448616E646C65203D202564003C85
:1049600062723E6954656C6578536F636B65744D14
:104970006F6465203D202575003C62723E53746172
:10498000747573203D2025303258003C62723E4DD4
:104990006F647573203D202575003C62723E44694A
:1049A00061676E6F73655075666665724C65766596
:1049B0006C203D20257500446961676E6F736550FA
:1049C00075666665723A202573004C65747A746565
:1049D0007220416E7275663A20253032752E253070
:1049E00032752E2530347520253032643A25303228
:1049F000643A253032643C62723E007761746368C9
:104A0000646F677465737400726573657400656EB6
:104A1000006465000D0A003A006367692D41756600
:104A200072756620766F6E200073707200006B6581
:104A30006E6E770021536F636B6574207A756D20FD
:104A40005465696C6E65686D65722D536572766527
:104A5000722067657363686C6F7373656E2C204496
:104A6000796E49505F506861736520776172206E7E
:104A70006F63682027616B746976272E0D0A0053D7
:104A80006F636B6574207A756D205465696C6E6513
:104A9000686D65722D5365727665722077757264E4
:104AA0006520766F6E20476567656E7374656C6C04
:104AB000652067657363686C6F7373656E0D0A00BC
:104AC0002120756E65727761727465746520416E20
:104AD00074776F727420646573205465696C6E65B9
:104AE000686D65722D536572766572730D0A000DDF
:104AF0000A0021204665686C65726D656C64756E90
:104B00006720646573205465696C6E65686D6572B5
:104B10002D536572766572733A2000546C6E53653E
:104B200072766572206D656C646574204C6973746F
:104B3000656E656E64650D0A000D0A0044796E614C
:104B40006D69736368652049502D416B7475616CA4
:104B50006973696572756E673A206E65756520497F
:104B600050200044796E616D697363686520495017
:104B70002D416B7475616C6973696572756E673A06
:104B800020626573746568656E64652049502067AE
:104B9000696C74207765697465720D0A0021204480
:104BA0006174656E7361747A20766F6D20546569E7
:104BB0006C6E65686D65722D536572766572206DD9
:104BC0006974204E7220256C64206B6F6E6E746564
:104BD000206E6963687420676573706569636865D2
:104BE00072742077657264656E0D0A002120696D0C
:104BF000206C6F6B616C656E2054656C65666F6EC2
:104C00006275636820616C732027507269766174E5
:104C1000272067656B656E6E7A656963686E65747B
:104C20000D0A0021205465696C6E65686D65722DF2
:104C3000536572766572206D656C64657420414EB3
:104C400044455245204E756D6D657220616C732030
:104C5000616E676566726167740D0A000D0A005423
:104C600065696C6E65686D65722D536572766572E7
:104C7000206D656C6465742045696E74726167208F
:104C8000676566756E64656E3A20005465696C6E82
:104C900065686D65722D536572766572206D656C01
:104CA00064657420276E6963687420676566756E35
:104CB00064656E270D0A000D0A00256429005465FD
:104CC000696C6E65686D65722D53657276657220CC
:104CD000456D7066616E673A202825642F00202D8F
:104CE0003E20766572776F7266656E2C20536F6317
:104CF0006B65742067657363686C6F7373656E0DA5
:104D00000A0021205465696C6E65686D65722D53CB
:104D1000657276657220456D7066616E67205545D7
:104D20004245524C415546207A75207669656C653E
:104D300020446174656E2028256420627974652999
:104D4000002A2053656C6273742D416E7275662D56
:104D5000536F636B65742064757263682054696D6A
:104D6000656F75742067657363686C6F7373656EC8
:104D7000210D0A00212053656C6273742D416E72FF
:104D80007566204B45494E204563686F20656D7000
:104D900066616E67656E2E0D0A00212053656C6298
:104DA00073742D416E727566204142474542524FE1
:104DB0004348454E20776567656E204D6F64757377
:104DC0002D5765636873656C2E0D0A0021205365AD
:104DD0006C6273742D416E7275662046414C53436C
:104DE000484520446174656E20656D7066616E672C
:104DF000656E2E0D0A0053656C6273742D416E72E0
:104E000075662062657374616574696774204950C2
:104E100020416472657373652E0D0A002A20536564
:104E20006C6273742D416E727566206572666F6C6C
:104E300067726569636820616267657363686C6F38
:104E40007373656E2E0D0A00212053656C627374B6
:104E50002D416E72756620446174656E2D53656ECA
:104E600064756E6720564552534147542E0D0A0013
:104E700053656C6273742D416E7275662044617463
:104E8000656E20756562657220536F636B65742073
:104E900023256420676573656E6465742E0D0A00B2
:104EA000212053656C6273742D416E727566206F9C
:104EB0006566666E656E2064657320536F636B650F
:104EC0007420564552534147542E0D0A0053656CC9
:104ED000627374616B7475616C6973696572756E08
:104EE00067004772756E647374656C6C756E6720CD
:104EF00065727265696368742028536F636B6574AB
:104F00002067657363686C6F7373656E2C205457EC
:104F1000492067657363686C6F7373656E290D0A4A
:104F2000005265737465206765647275636B7420E5
:104F30002D2D3E20417573736368616C74756E67C7
:104F400020696E7465726E0D0A0048544D4C2D43F5
:104F50006861742D52756865202D2D3E2041757352
:104F6000736368616C74756E6720696E7465726EC8
:104F70000D0A000D0A004D656C64756E67736472EE
:104F800075636B202D3E20000D0A00446961676E39
:104F90006F7365647275636B3A20000D0A0A0A002C
:104FA0003A20002A20546173746520676564727525
:104FB000636B74202D2D3E2052657374652D4472F1
:104FC00075636B206162676562726F6368656E0D01
:104FD0000A0072797279727972797279727972795A
:104FE0007279727972797279727972797279727969
:104FF0007279727972797279727972797279727959
:10500000727972790D0A003A20253032752E2530DA
:1050100032752E2530347520253032753A253032E0
:10502000753A253032750D0A000D0A004772756E0B
:10503000647374656C6C756E6720676573746F65F7
:105040007274002A20416262617520776567656E1F
:10505000203130204D696E7574656E2046756E6B1B
:105060007374696C6C652E0D0A00646572002120F2
:1050700054696D656F7574206265696D2057617242
:1050800074656E20617566206469652045696E737C
:105090006368616C747175697474756E670D0A006C
:1050A0002A2054696D656F7574206265696D20579B
:1050B000617274656E206175662064696520536352
:1050C000686C7573737175697474756E670D0A0019
:1050D0002A2031352053656B756E64656E206E69CC
:1050E000636874206765776165686C742C20416221
:1050F00062727563680D0A000D0A00282564292074
:105100000025396C64202D202573202D20004E6150
:105110006D656E7375636865000D0A003E0D0A00CB
:10512000537461727465204E616D656E737375633F
:105130006865206D6974203C006F63630021204125
:105140006E7761686C20696E7465726E20616E2086
:10515000257520564552534147540D0A0076657215
:1051600062756E64656E206D69742025750D0A0088
:10517000416E7761686C20696E7465726E2025756A
:105180002000416E6765727566656E6572206861A4
:1051900074206765616E74776F72746574202D3E3C
:1051A0002045696E736368616C74756E6720696E03
:1051B0007465726E0D0A002120494C4C4547414CE4
:1051C00045532050726F746F6B6F6C6C0D0A002129
:1051D000205457492D54696D656F7574202D3E20FC
:1051E0004162736368616C74756E670D0A00545791
:1051F0004920417573736368616C74756E672069CB
:105200006E7465726E0D0A0021205363686C7573AD
:10521000737175697474756E67206F686E6520416F
:105220007566666F72646572756E670D0A00545715
:105230004920417573736368616C74756E67207182
:1052400075697474696572740D0A005465696C6ED1
:1052500065686D657220256C7520696D20656967CC
:10526000656E656E2054656C65666F6E6275636809
:1052700020676566756E64656E2E0D0A004E616D61
:10528000656E7373756368652067657374617274A6
:105290006574202D3E2045696E736368616C742DC2
:1052A0005175697474756E6720616E205457490D8D
:1052B0000A00545749205761686C7A6966666572BE
:1052C00020257520696E7465726E202F20676568D1
:1052D000656E640D0A00545749205761686C61750A
:1052E00066666F72646572756E6720696E7465724A
:1052F0006E202F206B6F6D6D656E640D0A00545724
:10530000492045696E736368616C74717569747462
:10531000756E67206675657220652D4D61696C2D0F
:10532000447275636B0D0A005457492045696E73CA
:105330006368616C747175697474756E67206675E5
:105340006572204D656C64756E6773647275636B0E
:105350000D0A005457492045696E736368616C7487
:105360007175697474756E67206E6163682042653B
:1053700067696E6E2048544D4C2D436861740D0A68
:10538000005457492045696E736368616C74717588
:10539000697474756E6720696E7465726E202F2053
:1053A0006B6F6D6D656E640D0A0054574920456939
:1053B0006E736368616C746B6F6D6D616E646F208A
:1053C000696E7465726E202F20676568656E640D66
:1053D0000A00545749205265736572766965727583
:1053E0006E6720696E7465726E202F206765686530
:1053F0006E6420766F6E2025750D0A00253032759B
:105400002E253032752E253034752020253032641B
:105410003A253032640D0A002A20692D54656C65E6
:10542000782D426C696E64736F636B65742073656D
:105430006C6273742067657472656E6E740D0A0019
:105440002A206954656C65782D426C696E64736FAF
:10545000636B657420777572646520766F6E204784
:105460006567656E7374656C6C65206765747265DD
:105470006E6E740D0A0021205A4549545545424527
:105480005253434852454954554E4720626569205E
:105490005769656465726175666E61686D652064E3
:1054A00065722056657262696E64756E670D0A00DA
:1054B00021204D6568726661636865204645484CE9
:1054C0004552206265696D2053656E64656E206982
:1054D0006E73204E65747A2C20536F636B65742055
:1054E0007769726420766F72756562657267656848
:1054F000656E642067657363686C6F7373656E0DAA
:105500000A0021204D656872666163686520464522
:10551000484C4552206265696D2053656E64656E26
:1055200020696E73204E65747A2061626572205620
:10553000657262696E64756E67736162626175201F
:105540006765706C616E740D0A002F253032580D3E
:105550000A002053756D416E7A202575002C20526B
:1055600065737420257500202D2D3E205265732013
:10557000256400536F636B65742053656E64756EAC
:10558000673A2028257529005769656465722D4F93
:105590006566666E756E672064657320536F636B16
:1055A000657420232564206572666F6C6772656977
:1055B00063682E0D0A0021205769656465722D4FBE
:1055C0006566666E756E672064657320536F636BE6
:1055D000657420564552534147542E0D0A00202D24
:1055E0002D3E20427566557365642025750D0A00B1
:1055F00025642900536F636B657420456D70666187
:105600006E673A202825642F006C696D697469659E
:105610007274206175662025640D0A002A20536F7C
:10562000636B657420456D7066616E672064726F90
:1056300068656E6465722055656265726C61756639
:105640003A20456D7066616E6720766F6E20256426
:105650002000536F636B6574207769726420616BFF
:105660007469762067657363686C6F7373656E0D1C
:105670000A00536F636B65742077757264652076DA
:105680006F6E20476567656E7374656C6C65206529
:10569000727761727465742067657363686C6F7389
:1056A00073656E0D0A002120536F636B657420775C
:1056B0007572646520766F6E20476567656E7374DA
:1056C000656C6C652047455452454E4E540D0A009A
:1056D000536F636B657420777572646520766F6EA7
:1056E00020476567656E7374656C6C6520657277BD
:1056F00061727465742067657363686C6F7373653A
:105700006E0D0A002120536F636B657420777572EC
:10571000646520766F6E20476567656E7374656C8F
:105720006C6520554E45525741525445542067658B
:105730007363686C6F7373656E0D0A0004036F63A7
:1057400063000403616273002021202E2E2E41622B
:1057500077656973756E672061756620626572652D
:1057600069747320626573746568656E64656D2025
:10577000426C696E642D536F636B65742E0D0A0065
:10578000202A202E2E2E4142474557494553454E4B
:105790002C2061756620426C696E642D536F636BBB
:1057A00065742067656C6567740D0A002C2056656A
:1057B0007262696E64756E67206265737465687481
:1057C000002C20616E64657265206B6F6D6D656E77
:1057D00064652056657262696E64756E67206265E5
:1057E00073746568742100202E2E2E5769656465D8
:1057F0007276657262696E64756E67206F6B0D0AF2
:10580000002C20616E646572776569746967206237
:10581000656C65677400202E2E2E6E6575206F6B8B
:105820000D0A00202F204D414320005365727665FC
:10583000722D536F636B6574202325642067656F39
:105840006566666E657420766F6E2049502000256F
:1058500034640D0A002534640053656E64412025CC
:105860003464002534640D0A0025346400456D70ED
:105870006641202531366400204B656E6E3D253033
:1058800032580D0A00204C656E3D25640046657255
:105890006E6B6F6E66696720214665686C65722065
:1058A000436F64653D2564006665726E6B6F6E665E
:1058B0006572720053656E64652050726F746F6B11
:1058C0006F6C6C76657273696F6E2D566F72736351
:1058D000686C61672025750D0A0050726F746F6BDC
:1058E0006F6C6C76657273696F6E2D566F72736331
:1058F000686C616720257520656D7066616E6765EF
:105900006E0D0A006F63630076657262756E646582
:105910006E206D69742025750D0A00212073706F4B
:105920006E74616E65203F3F3F20416E7761686C09
:1059300020696E7465726E20257520004162626177
:105940007562656665686C20766F6E204765676571
:105950006E7374656C6C650D0A000D0A002A204197
:105960006262617562656665686C20766F6E20475D
:105970006567656E7374656C6C653A0053656E643B
:10598000656E42657363686C65756E6967656E20E8
:1059900045494E0D0A002A20766572737061657460
:1059A0006574652045696E736368616C74756E67B4
:1059B0000D0A0053656E64656E42657363686C65BD
:1059C000756E6967656E204155530D0A0025346474
:1059D0000D0A0025346400456D706642202531367D
:1059E00064006E61006E61004665726E6B6F6E667C
:1059F0006967204B656E6E3D2564206F6B0D0A0054
:105A00002534640D0A002534640053656E64422019
:105A1000253464005275666E756D6D65722D416238
:105A200066726167650041626672616765206265E2
:105A300069205465696C6E65686D65722D53657279
:105A40007665726E0D0A002120696E7465726E654E
:105A5000722056657262696E64756E6773706172EA
:105A6000746E657220257520697374205343484F06
:105A70004E20465245492E0D0A002120696E74655C
:105A8000726E65722056657262696E64756E6773B8
:105A9000706172746E6572202575204E49434854BA
:105AA000204D4548522045525245494348424152B3
:105AB0002E0D0A000D0A000D0D0D0A00626B00612B
:105AC000627300646572006E61006E63006F6363F1
:105AD000003E0D0A005761686C416262727563682E
