:100000000C945E7B0C94857C0C94B07C0C94DB7C13
:100010000C94067D0C94317D0C945C7D0C94877D52
:100020000C94B27D0C94F77B0C94F77B0C94F77BCB
:100030000C94E1DF0C94F77B0C94F77B0C94F77B2A
:100040000C94F77B0C946F810C94F77B0C94F77BEA
:100050000C94F77B0C943C890C94F77B0C94F77B05
:100060000C94F77B0C94BC820C947B820C94608281
:100070000C94F77B0C94F77B0C94F77B0C94F77B38
:100080000C94F77B0C94F77B0C94F77B0C94F77B28
:100090000C94C0830C9434830C94F7820D945A5FB3
:1000A0000C94F77B0C94F77B0C94F77B0C94F77B08
:1000B0000C94F77B0C94F77B0C94F77B0C94F77BF8
:1000C0000C94F77B0C94F77B0C94F77B0C0D0E0FC4
:1000D000253032783A253032783A253032783A2550
:1000E0003032783A253032783A253032780025643B
:1000F0002E25642E25642E25640044484350206D2F
:10010000736720747970652035332076616C75656E
:100110002025750D0A0044484350206D73672074F4
:100120007970652035332076616C75652025750DF5
:100130000A005544502D536F636B657420676573D7
:1001400063686C6F7373656E2E0D0A0054696D657C
:100150006F7574206265696D2077617274656E20B9
:1001600061756620416E74776F72742E0D0A0046B9
:10017000616C736368657320466F726D617420648F
:10018000657220416E74776F72742E0D0A00416E95
:1001900074776F727420657268616C74656E2E0D71
:1001A0000A0057617274652061756620416E74772C
:1001B0006F72742E005544502D5061636B6574202E
:1001C000676573656E6465742E0D0A005544502D85
:1001D000536F636B65742061756667656D616368F5
:1001E00074207A75722025732E0D0A004F6566669D
:1001F0006E65206E6575657320536F636B65742E35
:100200000D0A004950004D41534B00444E530047E6
:1002100041544500444843502D436F6E6669672042
:100220006765686F6C740D0A00444843502D436F36
:100230006E666967204665686C67657363686C61A4
:1002400067656E0D0A00207C2D3E20566572737521
:1002500063686520444843502D436F6E666967208C
:100260007A7520686F6C656E2E2000206665686C5C
:1002700067657363686C6167656E0D0A002066656B
:10028000686C67657363686C6167656E0D0A002052
:100290005A6569743A20253032643A253032643A1E
:1002A000253032642E253032640D0A004E545053EE
:1002B0004552564552005554435A4F4E4500207CF6
:1002C0002D3E204E54502D536572766572205A652E
:1002D000697420616B7475616C6973696572656EB0
:1002E0003A006F6E004E545000207C202020444E77
:1002F00053202020203A2025730D0A00207C202046
:1003000020476174657761793A2025730D0A0020D2
:100310007C2020204E65746D61736B3A2025730D2F
:100320000A00207C202020495020202020203A2034
:1003300025730D0A006F6E00444843500044484343
:100340005000207C2D3E2054435020284875727266
:100350006963616E2D656E67696E652920696E69D6
:100360007469616C6973696572740D0A00207C2D73
:100370003E205544502028546F726E61646F2D6585
:100380006E67696E652920696E697469616C69734D
:10039000696572740D0A002D2B2D3E2041525020AC
:1003A000696E697469616C6973696572740D0A00BC
:1003B000204C696E6B2072656164790D0A002046DD
:1003C000756C6C6475706C65783A00454E433238D4
:1003D0006A363020285265762E3A20256429206915
:1003E0006E697469616C697369657274202820484C
:1003F000572D4164643A20253032783A25303278DE
:100400003A253032783A253032783A253032783A07
:10041000253032782029004D4143004D4143004DA5
:100420004350636F6E666967000D0A000A0025631A
:1004300000436F6E666967206973742025642062CB
:10044000797465732067726F73732C202564206242
:100450007974652077657264656E2062656E757467
:100460007A742E204F66667365742025640D0A0D1C
:100470000A004F46460057524954455F50524F5468
:100480004543540020496E697469616C69736965FC
:1004900072740D0A00204572726F720D0A00544882
:1004A00052454144005348454C4C0046696C6573C5
:1004B000797374656D004D4D432F53440045585476
:1004C000494E5400436F6E666967004C45445F6354
:1004D0006F726500434C4F434B005354444F555487
:1004E0000055415254006954656C65782E2E2E0DCE
:1004F0000A003EFFFFFF3F3435363738393A3B3C80
:100500003DFFFFFFFFFFFFFF000102030405060799
:1005100008090A0B0C0D0E0F1011121314151617E3
:100520001819FFFFFFFFFFFF1A1B1C1D1E1F2021B4
:1005300022232425262728292A2B2C2D2E2F303123
:1005400032334142434445464748494A4B4C4D4E5D
:100550004F505152535455565758595A616263641B
:1005600065666768696A6B6C6D6E6F7071727374C3
:1005700075767778797A30313233343536373839A1
:100580002B2F002F6E69632F7570646174653F684F
:100590006F73746E616D653D2573006D656D626589
:1005A00072732E64796E646E732E6F726700636867
:1005B00065636B69702E64796E646E732E6F7267FB
:1005C00000474554200020485454502F312E300D00
:1005D0000A557365722D4167656E743A20576765D9
:1005E000742F312E31312E340D0A416363657074DE
:1005F0003A202A2F2A0D0A486F73743A20000D0AF8
:10060000417574686F72697A6174696F6E3A2042DD
:10061000617369632025730D0A0D0A000D0A0D0A26
:10062000002F00436F6E74656E742D4C656E677499
:10063000683A2000485454502F312E000D0A0043D0
:100640006F6D6D616E64733A0D0A0D0A0068656C1A
:100650007000485454502F312E30203430330D0A5E
:10066000436F6E74656E742D547970653A207465AD
:1006700078742F68746D6C0D0A4B6565702D416C34
:100680006976653A20636C6F73650D0A0D0A3C4804
:10069000544D4C3E3C424F44593E34303320466921
:1006A0006C65206E6F7420666F756E64213C2F42FE
:1006B0004F44593E3C2F48544D4C3E0D0A0D0A0004
:1006C000504F535400474554006874747064004898
:1006D0005454502D53657276657220506F72742099
:1006E00025642E0D0A00696E6465782E68746D6C41
:1006F000003C2F424F44593E3C2F48544D4C3E0D38
:100700000A0D0A003C48544D4C3E3C484541443E8D
:100710003C6D65746120687474702D6571756976BF
:100720003D22657870697265732220636F6E74650F
:100730006E743D2230223E3C212D2D20456E61629B
:100740006C6520494539205374616E64617264732D
:10075000206D6F6465202D2D3E3C6D6574612068B1
:100760007474702D65717569763D22582D55412D33
:10077000436F6D70617469626C652220636F6E7483
:10078000656E743D2249453D3922203E3C2F484547
:1007900041443E3C424F44593E00485454502F314E
:1007A0002E312032303020446F63756D656E7420B9
:1007B000666F6C6C6F77730D0A436F6E74656E7441
:1007C0002D547970653A20746578742F68746D6C57
:1007D0000D0A43616368652D436F6E74726F6C3AE6
:1007E000206E6F2D63616368650D0A436F6E6E65E1
:1007F0006374696F6E3A20636C6F73650D0A0D0A3E
:1008000000696E6465782E68746D6C003C48544DC8
:100810004C3E3C484541443E3C5449544C453E695D
:100820002D54656C65783C2F5449544C453E3C2F03
:10083000484541443E3C6672616D65736574207243
:100840006F77733D2236342C34302C2A2C343022EE
:10085000207363726F6C6C696E673D226E6F22202D
:100860006672616D65626F726465723D223222202C
:10087000626F726465723D223222206672616D651C
:1008800073706163696E673D22322220626F726409
:100890006572636F6C6F723D2223303030303030C0
:1008A000223E3C6672616D65207372633D2268650D
:1008B00061646C696E652E68746D6C22206E616D6A
:1008C000653D224E617669676174696F6E312220E1
:1008D0007363726F6C6C696E673D226175746F2211
:1008E0003E3C6672616D65207372633D226D616985
:1008F0006E6D656E752E68746D6C22206E616D650F
:100900003D224E617669676174696F6E3222207391
:1009100063726F6C6C696E673D226175746F223E05
:100920003C6672616D65207372633D22696E666F0D
:100930002E68746D6C22206E616D653D226D61695B
:100940006E223E3C6672616D65207372633D227358
:10095000746174732E63676922206E616D653D2238
:1009600075706461746522207363726F6C6C696E5C
:10097000673D226175746F223E3C6E6F6672616DD9
:1009800065733E3C626F64793E3C703E49687220FC
:1009900042726F7773657220756E74657273742618
:1009A00075756D6C3B747A74206B65696E65204655
:1009B00072616D6573213C2F703E3C2F626F6479CC
:1009C0003E3C2F6E6F6672616D65733E3C2F6672A2
:1009D000616D657365743E3C2F48544D4C3E0D0A65
:1009E0000D0A00686561646C696E652E68746D6CD3
:1009F000003C48544D4C3E3C424F4459207465786D
:100A0000743D222330303030433022207374796CAF
:100A1000653D226261636B67726F756E642D696DEF
:100A20006167653A75726C286C6F63687374726580
:100A30006966656E2D68672E706E6729223E3C736D
:100A400070616E207374796C653D22666F6E743AC6
:100A500020626F6C6420343070782027436F757289
:100A6000696572204E6577272C274C756369646130
:100A700020436F6E736F6C65272C6D6F6E6F737094
:100A80006163653B20223E3C623E692D54656C6586
:100A900078202D20546F4950202D20657468657290
:100AA0006E657420696E746572666163653C2F6261
:100AB0003E3C2F7370616E3E3C2F424F44593E3C8A
:100AC0002F48544D4C3E0D0A0D0A006C6F6368733D
:100AD0007472656966656E2D68672E706E67008931
:100AE000504E470D0A1A0A0000000D4948445200B2
:100AF0000002250000003F0403000000CD91A50C7A
:100B000000000030504C5445FFFF66C0C0C0FF00DD
:100B100000000000000000000000000000000000D5
:100B200000000000000000000000000000000000C5
:100B30000000000000000000C3145A130000000968
:100B40007048597300000B1300000B1301009A9CAE
:100B5000180000027F4944415478DAED5B5B72C3B0
:100B6000200CB47302ABF73F6CE33CA8C9EAB12494
:100B7000D30969573F558C84F10E428BA0CB227963
:100B80009093201026C2E4594CD6EDFCD796837280
:100B9000914EB934A1B036AD2978C5E23E093A5C30
:100BA000466D82612498AC66DB62663FCAB58FA34E
:100BB000726972DE43DAB4A6E015D8E1ED57FDC1E3
:100BC0008CCDEDCD07E3DC6B3A4CB6E36718F1A9A9
:100BD000C64D9373CFCDB8F03AEDD6B61B6D4DB977
:100BE000BBFD28E67642DBB426FF15D86133263EEE
:100BF000D5C869F2300C613288896247987C20261A
:100C000053E41D09CFD990DB18C98890CE55EE0565
:100C10001B4C781DE385542DA7A061ECB4A91E4C94
:100C2000EC384030AC2AF760AA770A36D15E183229
:100C30007EECDCBD26C5A42DB690AF9D2785172E72
:100C4000ADC11A7BF78AF809E6F1351E0CF29380E4
:100C5000E70C4C138EC3305E484B0ABA254C3C4C13
:100C6000143B183BC2E443307973DE9188C70A9382
:100C70002731D9A368DD034CCA55F1D6D8F72A9796
:100C800005707DA7224C3C4C1432183B4EADE09FC2
:100C90002BCA3BCAC5AFD7D9FA529511352BCBBD5C
:100CA000B009CB74D861500034D72629A6255E47F9
:100CB0009B74BFD36F7CB0DA5CEC89D00B9B9CED4E
:100CC0005267DC27856E0BD3EF6EBA0C126C6A127A
:100CD000AFA3CD7C98F49BD67606815BDD6E17DCE6
:100CE0009E249BDFC4ABB3496B4A5D5926384A4BFF
:100CF000EA4EE8854DC5215D52EC42F7EAB02FF18E
:100D0000EA6C848987896207634798CC8FC90C791C
:100D100047F20A67634E4219D265041B2C0E3793C3
:100D20009359FA8437247803B1C354A41363BF588A
:100D3000EDC4971F29556D9971C73AB6DBF37C98BE
:100D4000042B6A7106D1DB24F758708D051B9E9F1A
:100D500030A77E0CC1A8384C721C397C3D2C6150E8
:100D6000099911261E268A1D8C1D61323F2633E407
:100D70001D09C5D982625AC2EB98FF53580836380C
:100D800024C317DB98F104B1136C6A92F862EE8BFE
:100D900006900CDCD4F142A6681ABA96F007301916
:100DA000BE88527965FCC42F1C251C86B9931F8F01
:100DB000DE9E9E268397B898F10813C50E1F3BC28E
:100DC000447987C93B1261224C848930F93D4C4CEF
:100DD000F2205FDF827D01B9877BC8E3000000005D
:100DE00049454E44AE4260826D61696E6D656E75B7
:100DF0002E68746D6C003C48544D4C3E3C48454157
:100E0000443E3C6C696E6B2072656C3D2273747954
:100E10006C6573686565742220747970653D227411
:100E20006578742F6373732220687265663D227340
:100E300074796C652E637373223E3C2F48454144A0
:100E40003E3C424F4459206267636F6C6F723D2293
:100E500023433046464330223E3C6120687265663B
:100E60003D22696E666F2E68746D6C22207461720B
:100E70006765743D226D61696E223E496E666F3C06
:100E80002F613E202F203C6120687265663D2269FB
:100E900074656C65782D6D656E752D64652E68744E
:100EA0006D6C223E692D54656C657820284465750B
:100EB00074736368293C2F613E202F203C612068B9
:100EC0007265663D226974656C65782D6D656E7519
:100ED0002D656E2E68746D6C223E692D54656C65AF
:100EE000782028456E676C697368293C2F613E2025
:100EF0002F203C6120687265663D226974656C65CF
:100F0000782D6D656E752D69742E68746D6C223E3A
:100F1000692D54656C657820284974616C69616E2F
:100F20006F293C2F613E202F203C6120687265664E
:100F30003D226974656C65782D6D656E752D6E6CDE
:100F40002E68746D6C223E692D54656C657820287E
:100F50004E656465726C616E6473293C2F613E203E
:100F60002F203C6120687265663D226974656C655E
:100F7000782D637265646974732E636769222074C7
:100F800061726765743D226D61696E223E496D70C4
:100F900072657373756D202F206372656469747355
:100FA0003C2F613E3C2F424F44593E3C2F48544D0C
:100FB0004C3E0D0A0D0A006E6574776F726B2D64DE
:100FC000652E68746D6C003C48544D4C3E3C484561
:100FD00041443E3C6C696E6B2072656C3D227374BB
:100FE000796C6573686565742220747970653D223B
:100FF000746578742F6373732220687265663D226E
:101000007374796C652E637373223E3C2F4845419F
:10101000443E3C424F4459206267636F6C6F723D9F
:101020002223433046464330223E3C6120687265AD
:10103000663D226974656C65786366672D6D656EC3
:10104000752D64652E68746D6C223E7A75722675F6
:10105000756D6C3B636B3C2F613E202F203C612003
:10106000687265663D226E6574776F726B2E63677A
:10107000693F7370723D64652220746172676574A4
:101080003D226D61696E223E496E666F733C2F6131
:101090003E202F203C6120687265663D226E65749B
:1010A000776F726B2E6367693F7370723D6465265C
:1010B000636F6E66696722207461726765743D2292
:1010C0006D61696E223E4B6F6E6669677572617401
:1010D000696F6E3C2F613E3C2F424F44593E3C2F7E
:1010E00048544D4C3E0D0A0D0A006E6574776F72C0
:1010F0006B2D656E2E68746D6C003C48544D4C3EF3
:101100003C484541443E3C6C696E6B2072656C3DC9
:10111000227374796C6573686565742220747970C4
:10112000653D22746578742F63737322206872653D
:10113000663D227374796C652E637373223E3C2F77
:10114000484541443E3C424F4459206267636F6CBE
:101150006F723D2223433046464330223E3C61209D
:10116000687265663D226974656C65786366672D93
:101170006D656E752D656E2E68746D6C223E6261B4
:10118000636B3C2F613E202F203C612068726566B6
:101190003D226E6574776F726B2E6367693F737063
:1011A000723D656E22207461726765743D226D61C7
:1011B000696E223E496E666F733C2F613E202F2080
:1011C0003C6120687265663D226E6574776F726B54
:1011D0002E6367693F7370723D656E26636F6E663E
:1011E000696722207461726765743D226D61696E62
:1011F000223E436F6E66696775726174696F6E3CFB
:101200002F613E3C2F424F44593E3C2F48544D4C99
:101210003E0D0A0D0A006E6574776F726B2D69744E
:101220002E68746D6C003C48544D4C3E3C48454122
:10123000443E3C6C696E6B2072656C3D2273747920
:101240006C6573686565742220747970653D2274DD
:101250006578742F6373732220687265663D22730C
:1012600074796C652E637373223E3C2F484541446C
:101270003E3C424F4459206267636F6C6F723D225F
:1012800023433046464330223E3C61206872656607
:101290003D226974656C65786366672D6D656E7552
:1012A0002D69742E68746D6C223E696E6469657474
:1012B000726F3C2F613E202F203C61206872656672
:1012C0003D226E6574776F726B2E6367693F737032
:1012D000723D697422207461726765743D226D618C
:1012E000696E223E496E666F3C2F613E202F203C86
:1012F0006120687265663D226E6574776F726B2E31
:101300006367693F7370723D697426636F6E6669C7
:101310006722207461726765743D226D61696E2277
:101320003E436F6E6669677572617A696F6E653C80
:101330002F613E3C2F424F44593E3C2F48544D4C68
:101340003E0D0A0D0A006E6574776F726B2D6E6C20
:101350002E68746D6C003C48544D4C3E3C484541F1
:10136000443E3C6C696E6B2072656C3D22737479EF
:101370006C6573686565742220747970653D2274AC
:101380006578742F6373732220687265663D2273DB
:1013900074796C652E637373223E3C2F484541443B
:1013A0003E3C424F4459206267636F6C6F723D222E
:1013B00023433046464330223E3C612068726566D6
:1013C0003D226974656C65786366672D6D656E7521
:1013D0002D6E6C2E68746D6C223E74657275673C60
:1013E0002F613E202F203C6120687265663D226E91
:1013F0006574776F726B2E6367693F7370723D6EB1
:101400006C22207461726765743D226D61696E2281
:101410003E496E666F27733C2F613E202F203C6152
:1014200020687265663D226E6574776F726B2E63FD
:1014300067693F7370723D6E6C26636F6E66696795
:1014400022207461726765743D226D61696E223E6F
:10145000436F6E6669677572617469653C2F613EA2
:101460003C2F424F44593E3C2F48544D4C3E0D0AB0
:101470000D0A0073797374656D2D64652E68746D43
:101480006C003C48544D4C3E3C484541443E3C6C0D
:10149000696E6B2072656C3D227374796C6573683C
:1014A0006565742220747970653D22746578742FA7
:1014B0006373732220687265663D227374796C656C
:1014C0002E637373223E3C2F484541443E3C424FBD
:1014D0004459206267636F6C6F723D22234330462C
:1014E000464330223E3C6120687265663D22697445
:1014F000656C65786366672D6D656E752D64652E08
:1015000068746D6C223E7A75722675756D6C3B63DE
:101510006B3C2F613E202F203C6120687265663D48
:101520002272657365742E6367693F7370723D64E0
:101530006522207461726765743D226D61696E2257
:101540003E52657365743C2F613E202F203C612024
:10155000687265663D226E74702E6367693F7370B2
:10156000723D646522207461726765743D226D610D
:10157000696E223E4E54503C2F613E202F203C612C
:1015800020687265663D2264796E646E732E6367AF
:10159000693F7370723D646522207461726765747F
:1015A0003D226D61696E223E44796E444E533C2F5C
:1015B000613E202F203C6120687265663D22656592
:1015C0006D656D2E6367693F7370723D646522209F
:1015D0007461726765743D226D61696E223E454596
:1015E0006D656D3C2F613E202F203C612068726547
:1015F000663D2263726F6E2E6367693F7370723D42
:10160000646522207461726765743D226D61696E44
:10161000223E63726F6E3C2F613E3C2F424F445915
:101620003E3C2F48544D4C3E0D0A0D0A0073797311
:1016300074656D2D656E2E68746D6C003C48544D5C
:101640004C3E3C484541443E3C6C696E6B207265A3
:101650006C3D227374796C657368656574222074BF
:101660007970653D22746578742F637373222068E6
:101670007265663D227374796C652E637373223EC6
:101680003C2F484541443E3C424F445920626763E9
:101690006F6C6F723D2223433046464330223E3CFE
:1016A0006120687265663D226974656C6578636661
:1016B000672D6D656E752D656E2E68746D6C223E9E
:1016C0006261636B3C2F613E202F203C6120687279
:1016D00065663D2272657365742E6367693F73703A
:1016E000723D656E22207461726765743D226D6182
:1016F000696E223E52657365743C2F613E202F2037
:101700003C6120687265663D226E74702E63676965
:101710003F7370723D656E22207461726765743D1F
:10172000226D61696E223E4E54503C2F613E202F47
:10173000203C6120687265663D2264796E646E7338
:101740002E6367693F7370723D656E22207461720B
:101750006765743D226D61696E223E44796E444E28
:10176000533C2F613E202F203C6120687265663D0E
:101770002265656D656D2E6367693F7370723D65A7
:101780006E22207461726765743D226D61696E22FC
:101790003E45456D656D3C2F613E202F203C61200C
:1017A000687265663D2263726F6E2E6367693F7370
:1017B00070723D656E22207461726765743D226DA2
:1017C00061696E223E63726F6E3C2F613E3C2F4218
:1017D0004F44593E3C2F48544D4C3E0D0A0D0A00D3
:1017E00073797374656D2D69742E68746D6C003C2B
:1017F00048544D4C3E3C484541443E3C6C696E6B00
:101800002072656C3D227374796C657368656574CC
:101810002220747970653D22746578742F63737328
:101820002220687265663D227374796C652E63733D
:1018300073223E3C2F484541443E3C424F44592090
:101840006267636F6C6F723D2223433046464330BC
:10185000223E3C6120687265663D226974656C6554
:10186000786366672D6D656E752D69742E68746D6D
:101870006C223E696E64696574726F3C2F613E2014
:101880002F203C6120687265663D22726573657425
:101890002E6367693F7370723D69742220746172B0
:1018A0006765743D226D61696E223E52697072698E
:1018B0007374696E6F3C2F613E202F203C6120685D
:1018C0007265663D226E74702E6367693F73707235
:1018D0003D697422207461726765743D226D61698F
:1018E0006E223E4E54503C2F613E202F203C612002
:1018F000687265663D2264796E646E732E636769F3
:101900003F7370723D697422207461726765743D23
:10191000226D61696E223E44796E444E533C2F61C4
:101920003E202F203C6120687265663D2265656D12
:10193000656D2E6367693F7370723D697422207410
:1019400061726765743D226D61696E223E45456D29
:10195000656D6F7269613C2F613E202F203C6120D4
:10196000687265663D2263726F6E2E6367693F73AE
:1019700070723D697422207461726765743D226DD6
:1019800061696E223E63726F6E3C2F613E3C2F4256
:101990004F44593E3C2F48544D4C3E0D0A0D0A0011
:1019A00073797374656D2D6E6C2E68746D6C003C6C
:1019B00048544D4C3E3C484541443E3C6C696E6B3E
:1019C0002072656C3D227374796C6573686565740B
:1019D0002220747970653D22746578742F63737367
:1019E0002220687265663D227374796C652E63737C
:1019F00073223E3C2F484541443E3C424F445920CF
:101A00006267636F6C6F723D2223433046464330FA
:101A1000223E3C6120687265663D226974656C6592
:101A2000786366672D6D656E752D6E6C2E68746DAE
:101A30006C223E74657275673C2F613E202F203CFE
:101A40006120687265663D2272657365742E6367F6
:101A5000693F7370723D6E6C2220746172676574A9
:101A60003D226D61696E223E52657365743C2F6143
:101A70003E202F203C6120687265663D226E7470A6
:101A80002E6367693F7370723D6E6C2220746172C1
:101A90006765743D226D61696E223E4E54503C2F45
:101AA000613E202F203C6120687265663D2264798A
:101AB0006E646E732E6367693F7370723D6E6C2245
:101AC000207461726765743D226D61696E223E44C7
:101AD000796E444E533C2F613E202F203C6120689C
:101AE0007265663D2265656D656D2E6367693F733E
:101AF00070723D6E6C22207461726765743D226D58
:101B000061696E223E4545676568657567656E3C2F
:101B10002F613E202F203C6120687265663D226364
:101B2000726F6E2E6367693F7370723D6E6C222018
:101B30007461726765743D226D61696E223E6372E5
:101B40006F6E3C2F613E3C2F424F44593E3C2F4824
:101B5000544D4C3E0D0A0D0A00696E666F2E687476
:101B60006D6C003C48544D4C3E3C424F44593E3C09
:101B70007072653E3C703E202057656C636F6D65EA
:101B800020746F0D0A5F5F5F5F5F5F5F5F5F5F5F26
:101B90005F5F5F5F5F5F5F5F5F5F5F5F5F5F5F5F55
:101BA0005F5F5F5F5F5F5F5F5F5F5F5F5F5F5F5F45
:101BB0005F5F5F0D0A202020202020202020202091
:101BC0002020202020202020202020202020202015
:101BD0002020202020202020202020202020202005
:101BE0002020200D0A20204F4F4F20202020202091
:101BF0004F4F4F4F4F20204F4F4F4F4F20204F20E0
:101C000020202020204F4F4F4F4F20204F202020BA
:101C10004F20200D0A2020204F202020202020208F
:101C200020204F202020204F2020202020204F2027
:101C300020202020204F202020202020204F204F17
:101C40002020200D0A202E2E2E2E2E2E2E2E2E2E31
:101C50002E2E2E2E2E2E2E2E2E2E2E2E2E2E2E2EA4
:101C60002E2E2E2E2E2E2E2E2E2E2E2E2E2E2E2E94
:101C70002E2E2E0D0A2020204F2020204F4F4F20A7
:101C800020204F202020204F4F4F202020204F2069
:101C900020202020204F4F4F2020202020204F2088
:101CA0002020200D0A2020204F202020202020202E
:101CB00020204F202020204F2020202020204F2097
:101CC00020202020204F202020202020204F204F87
:101CD0002020200D0A20204F4F4F202020202020A0
:101CE00020204F202020204F4F4F4F4F20204F4F7C
:101CF0004F4F4F20204F4F4F4F4F20204F2020203D
:101D00004F20200D0A5F5F5F5F5F5F5F5F5F5F5F18
:101D10005F5F5F5F5F5F5F5F5F5F5F5F5F5F5F5FD3
:101D20005F5F5F5F5F5F5F5F5F5F5F5F5F5F5F5FC3
:101D30005F5F5F0D0A4275696C642039313020495C
:101D40005441322020617420446174653A204A6114
:101D50006E20203220323032312031393A33383A55
:101D600035330D0A4D6F64756C65733A20416E739F
:101D700063686C75737320456D61696C0D0A0D0A9B
:101D80006275696C64206F6E204156522D6C6962D9
:101D9000632076657273696F6E3A20312E362E3766
:101DA0002F32303039303730322077697468206113
:101DB00076722D67636320342E332E330D0A0D0A9D
:101DC000286329323030362D3230323120202053F2
:101DD0006F6674776172653A204672656420536F4E
:101DE0006E6E656E7265696E0D0A62617365642060
:101DF0006F6E204F70656E4D4350206279204469AC
:101E0000726B2042726F73737769636B0D0A3C2F9C
:101E10007072653E3C2F703E3C62723E3C703E4F9D
:101E2000757220686F6D65706167653A203C61204E
:101E3000687265663D22687474703A2F2F777777E1
:101E40002E692D74656C65782E6E65742F22207452
:101E500061726765743D22626C616E6B223E7777BA
:101E6000772E692D74656C65782E6E65743C2F61D4
:101E70003E3C703E546869732070726F6A6563748B
:101E8000206F6E203C6120687265663D2268747424
:101E9000703A2F2F736F75726365666F7267652E68
:101EA0006E65742F70726F6A656374732F697465E1
:101EB0006C65782F22207461726765743D225F62C1
:101EC0006C616E6B223E536F75726365466F72670D
:101ED000652E6E65743C2F613E3C2F424F44593E47
:101EE0003C2F48544D4C3E0D0A007374796C652E9E
:101EF0006373730040636861727365742022495391
:101F00004F2D383835392D31220D0A202020613AE5
:101F10006C696E6B207B20746578742D6465636FCB
:101F2000726174696F6E3A6E6F6E653B20666F6E9C
:101F3000742D7765696768743A626F6C643B2063DF
:101F40006F6C6F723A233030303041303B207D204F
:101F50000D0A202020613A76697369746564207BDC
:101F600020746578742D6465636F726174696F6E37
:101F70003A6E6F6E653B20666F6E742D776569678C
:101F800068743A626F6C643B20636F6C6F723A23C3
:101F90004130303041303B207D200D0A202020612F
:101FA0003A686F766572207B20746578742D64655D
:101FB000636F726174696F6E3A6E6F6E653B206617
:101FC0006F6E742D7765696768743A626F6C643BF5
:101FD000206261636B67726F756E642D636F6C6FE7
:101FE000723A234646434343433B207D200D0A205B
:101FF0002020613A616374697665207B207465787E
:10200000742D6465636F726174696F6E3A6E6F6E82
:10201000653B20666F6E742D7765696768743A62F8
:102020006F6C643B206261636B67726F756E642DC9
:10203000636F6C6F723A234646464643433B207DAE
:10204000200D0A202020613A666F637573207B2083
:10205000746578742D6465636F726174696F6E3A2C
:102060006E6F6E653B20666F6E742D77656967686D
:10207000743A626F6C643B206261636B67726F7568
:102080006E642D636F6C6F723A234343434346463D
:102090003B207D200D0A202020707265207B206F60
:1020A000766572666C6F773A207363726F6C6C3B07
:1020B000207D0D0A006974656C65782D6D656E75FF
:1020C0002D64652E68746D6C003C48544D4C3E3C4C
:1020D000484541443E3C6C696E6B2072656C3D2204
:1020E0007374796C657368656574222074797065A2
:1020F0003D22746578742F6373732220687265665D
:102100003D227374796C652E637373223E3C2F48B5
:102110004541443E3C424F4459206267636F6C6FB7
:10212000723D2223433046464330223E3C612068C4
:102130007265663D226D61696E6D656E752E68749F
:102140006D6C223E7A75722675756D6C3B636B3CC7
:102150002F613E202F203C6120687265663D226918
:1021600074656C65782D6D73672D64652E68746D6C
:102170006C22207461726765743D226D61696E2204
:102180003E4E61636872696368742073656E64654E
:102190006E3C2F613E202F203C6120687265663DB9
:1021A000226974656C65782D746C6E7665727A2E12
:1021B0006367693F7370723D646522207461726762
:1021C00065743D226D61696E223E5465696C6E6571
:1021D000686D65722D5665727A656963686E69739C
:1021E0003C2F613E202F203C6120687265663D22B5
:1021F0006974656C65786366672D6D656E752D64B1
:10220000652E68746D6C223E692D54656C65782D61
:1022100045696E7374656C6C756E67656E3C2F6195
:102220003E202F203C6120687265663D22697465FE
:102230006C65782D64656275672E6367692220740A
:1022400061726765743D226D61696E223E4465620C
:1022500075672D496E666F733C2F613E202F203CC1
:102260006120687265663D226974656C65782D74BD
:102270007769746C6E6C697374652E6367693F73FC
:1022800070723D646522207461726765743D226DD1
:1022900061696E223E4D6F64756C2D4C6973746577
:1022A0003C2F613E202F203C6120687265663D22F4
:1022B00073646469722E6367692220746172676552
:1022C000743D226D61696E223E53442D4B617274E0
:1022D000653C2F613E3C2F424F44593E3C2F4854B1
:1022E0004D4C3E0D0A0D0A006974656C65782D6DC4
:1022F000656E752D656E2E68746D6C003C48544D8E
:102300004C3E3C484541443E3C6C696E6B207265D6
:102310006C3D227374796C657368656574222074F2
:102320007970653D22746578742F63737322206819
:102330007265663D227374796C652E637373223EF9
:102340003C2F484541443E3C424F4459206267631C
:102350006F6C6F723D2223433046464330223E3C31
:102360006120687265663D226D61696E6D656E758E
:102370002E68746D6C223E6261636B3C2F613E205F
:102380002F203C6120687265663D226974656C652A
:10239000782D6D73672D656E2E68746D6C222074B8
:1023A00061726765743D226D61696E223E53656E90
:1023B00064206D6573736167653C2F613E202F203B
:1023C0003C6120687265663D226974656C65782D94
:1023D000746C6E7665727A2E6367693F7370723DB6
:1023E000656E22207461726765743D226D61696E4D
:1023F000223E53756273637269626572206469720A
:102400006563746F72793C2F613E202F203C612000
:10241000687265663D226974656C65786366672DD0
:102420006D656E752D656E2E68746D6C223E692D1E
:1024300054656C65782073657474696E67733C2F9E
:10244000613E202F203C6120687265663D226974E0
:10245000656C65782D64656275672E6367692220F7
:102460007461726765743D226D61696E223E6465B8
:1024700062756720696E666F3C2F613E202F203C9D
:102480006120687265663D226974656C65782D749B
:102490007769746C6E6C697374652E6367693F73DA
:1024A00070723D656E22207461726765743D226DA5
:1024B00061696E223E6C697374206F66206D6F6473
:1024C000756C65733C2F613E202F203C6120687243
:1024D00065663D2273646469722E636769222074A5
:1024E00061726765743D226D61696E223E534420BE
:1024F000636172643C2F613E3C2F424F44593E3C25
:102500002F48544D4C3E0D0A0D0A006974656C65E8
:10251000782D6D656E752D69742E68746D6C003C38
:1025200048544D4C3E3C484541443E3C6C696E6BC2
:102530002072656C3D227374796C6573686565748F
:102540002220747970653D22746578742F637373EB
:102550002220687265663D227374796C652E637300
:1025600073223E3C2F484541443E3C424F44592053
:102570006267636F6C6F723D22234330464643307F
:10258000223E3C6120687265663D226D61696E6D18
:10259000656E752E68746D6C223E696E6469657433
:1025A000726F3C2F613E202F203C6120687265666F
:1025B0003D226974656C65782D6D73672D69742E85
:1025C00068746D6C22207461726765743D226D6160
:1025D000696E223E547261736D6574746572652014
:1025E0006D657373616767696F3C2F613E202F20B3
:1025F0003C6120687265663D226974656C65782D62
:10260000746C6E7665727A2E6367693F7370723D83
:10261000697422207461726765743D226D61696E10
:10262000223E456C656E636F206162626F6E6174FD
:10263000693C2F613E202F203C6120687265663D19
:10264000226974656C65786366672D6D656E752D9E
:1026500069742E68746D6C223E506172616D657490
:10266000726920692D54656C65783C2F613E202F7E
:10267000203C6120687265663D226974656C6578EE
:102680002D64656275672E636769222074617267C5
:1026900065743D226D61696E223E44656275672DE9
:1026A000496E666F3C2F613E202F203C612068728E
:1026B00065663D226974656C65782D747769746C04
:1026C0006E6C697374652E6367693F7370723D69E0
:1026D0007422207461726765743D226D61696E2297
:1026E0003E456C656E636F205363686564653C2F7F
:1026F000613E202F203C6120687265663D22736434
:102700006469722E63676922207461726765743D23
:10271000226D61696E223E53636865646120534493
:102720003C2F613E3C2F424F44593E3C2F48544D74
:102730004C3E0D0A0D0A006974656C65782D6D6557
:102740006E752D6E6C2E68746D6C003C48544D4C4B
:102750003E3C484541443E3C6C696E6B2072656C62
:102760003D227374796C6573686565742220747991
:1027700070653D22746578742F63737322206872CC
:1027800065663D227374796C652E637373223E3CDB
:102790002F484541443E3C424F4459206267636F95
:1027A0006C6F723D2223433046464330223E3C61EB
:1027B00020687265663D226D61696E6D656E752E6D
:1027C00068746D6C223E74657275673C2F613E20A3
:1027D0002F203C6120687265663D226974656C65D6
:1027E000782D6D73672D6E6C2E68746D6C2220745D
:1027F00061726765743D226D61696E223E42657249
:1028000069636874207665727A656E64656E3C2FC4
:10281000613E202F203C6120687265663D2269740C
:10282000656C65782D746C6E7665727A2E63676957
:102830003F7370723D6E6C22207461726765743DE7
:10284000226D61696E223E41626F6E6E6565206C1D
:10285000696A73743C2F613E202F203C61206872AE
:1028600065663D226974656C65786366672D6D6584
:102870006E752D6E6C2E68746D6C223E50617261A7
:102880006D657465727320692D54656C65783C2F95
:10289000613E202F203C6120687265663D2269748C
:1028A000656C65782D64656275672E6367692220A3
:1028B0007461726765743D226D61696E223E446584
:1028C0006275672D496E666F27733C2F613E202F1E
:1028D000203C6120687265663D226974656C65788C
:1028E0002D747769746C6E6C697374652E63676997
:1028F0003F7370723D6E6C22207461726765743D27
:10290000226D61696E223E4B61617274656E204C6E
:10291000696A73743C2F613E202F203C61206872ED
:1029200065663D2273646469722E63676922207450
:1029300061726765743D226D61696E223E53442069
:102940004B616172743C2F613E3C2F424F44593EB3
:102950003C2F48544D4C3E0D0A0D0A006974656CBD
:1029600065786366672D6D656E752D64652E687478
:102970006D6C003C48544D4C3E3C484541443E3C07
:102980006C696E6B2072656C3D227374796C657333
:10299000686565742220747970653D227465787469
:1029A0002F6373732220687265663D227374796C9D
:1029B000652E637373223E3C2F484541443E3C42A2
:1029C0004F4459206267636F6C6F723D222343301E
:1029D00046464330223E3C6120687265663D22696E
:1029E00074656C65782D6D656E752D64652E6874E3
:1029F0006D6C223E7A75722675756D6C3B636B3C0F
:102A00002F613E202F203C6120687265663D22695F
:102A100074656C65786366672D696E746B6F6E663E
:102A20002E6367693F7370723D6465222074617222
:102A30006765743D226D61696E223E4C6F6B616CFF
:102A400065204765722661756D6C3B74652D4B6F13
:102A50006E66696775726174696F6E3C2F613E20A6
:102A60002F203C6120687265663D226974656C6543
:102A7000786366672D696E74626574722E63676928
:102A80003F7370723D646522207461726765743DA6
:102A9000226D61696E223E4C6F6B616C65204265F0
:102AA00074726965627365696E7374656C6C756E5A
:102AB00067656E3C2F613E202F203C612068726567
:102AC000663D226974656C65786366672D65787408
:102AD00065726E2E6367693F7370723D6465222074
:102AE0007461726765743D226D61696E223E45694D
:102AF0006E7374656C6C756E67656E20696D2069A8
:102B00002D54656C65782D4E65747A3C2F613E209E
:102B10002F203C6120687265663D226974656C6592
:102B2000782D637265646974732E6367693F73708F
:102B3000723D646522207461726765743D226D6127
:102B4000696E223E496D7072657373756D3C2F61BD
:102B50003E202F203C6120687265663D22697465C5
:102B60006C65786366672D656D61696C2E63676956
:102B70003F7370723D646522207461726765743DB5
:102B8000226D61696E223E654D61696C2D45696EED
:102B90007374656C6C756E67656E3C2F613E202F9B
:102BA000203C6120687265663D226E6574776F72A5
:102BB0006B2D64652E68746D6C223E4E65747A7759
:102BC00065726B3C2F613E202F203C61206872654E
:102BD000663D2273797374656D2D64652E68746D1E
:102BE0006C223E53797374656D3C2F613E202F201B
:102BF0003C6120687265663D226974656C65786326
:102C000066672D7370657272656E2E6367693F73B8
:102C100070723D646522207461726765743D226D37
:102C200061696E223E5370657272656E3C2F613E23
:102C30003C2F424F44593E3C2F48544D4C3E0D0AC8
:102C40000D0A006974656C65786366672D6D656E45
:102C5000752D656E2E68746D6C003C48544D4C3E6D
:102C60003C484541443E3C6C696E6B2072656C3D4E
:102C7000227374796C657368656574222074797049
:102C8000653D22746578742F6373732220687265C2
:102C9000663D227374796C652E637373223E3C2FFC
:102CA000484541443E3C424F4459206267636F6C43
:102CB0006F723D2223433046464330223E3C612022
:102CC000687265663D226974656C65782D6D656E08
:102CD000752D656E2E68746D6C223E6261636B3C6F
:102CE0002F613E202F203C6120687265663D22697D
:102CF00074656C65786366672D696E746B6F6E665C
:102D00002E6367693F7370723D656E222074617235
:102D10006765743D226D61696E223E6C6F63616C04
:102D2000206D6F64756C6520636F6E666967757280
:102D30006174696F6E3C2F613E202F203C612068DA
:102D40007265663D226974656C65786366672D6996
:102D50006E74626574722E6367693F7370723D654D
:102D60006E22207461726765743D226D61696E2206
:102D70003E6C6F63616C2066756E6374696F6E6123
:102D80006C6974793C2F613E202F203C6120687271
:102D900065663D226974656C65786366672D657844
:102DA0007465726E2E6367693F7370723D656E2243
:102DB000207461726765743D226D61696E223E699F
:102DC0002D54656C6578206E6574776F726B207317
:102DD000657474696E67733C2F613E202F203C61DF
:102DE00020687265663D226974656C65782D637232
:102DF00065646974732E6367693F7370723D656EB5
:102E000022207461726765743D226D61696E223E95
:102E1000637265646974733C2F613E202F203C61AE
:102E200020687265663D226974656C6578636667C3
:102E30002D656D61696C2E6367693F7370723D65C6
:102E40006E22207461726765743D226D61696E2225
:102E50003E654D61696C2073657474696E67733C7F
:102E60002F613E202F203C6120687265663D226EF6
:102E70006574776F726B2D656E2E68746D6C223E73
:102E80004E6574776F726B3C2F613E202F203C6142
:102E900020687265663D2273797374656D2D656E69
:102EA0002E68746D6C223E53797374656D3C2F618E
:102EB0003E202F203C6120687265663D2269746562
:102EC0006C65786366672D7370657272656E2E63CC
:102ED00067693F7370723D656E2220746172676529
:102EE000743D226D61696E223E6C6F636B3C2F6195
:102EF0003E3C2F424F44593E3C2F48544D4C3E0DD2
:102F00000A0D0A006974656C65786366672D6D65E6
:102F10006E752D69742E68746D6C003C48544D4C70
:102F20003E3C484541443E3C6C696E6B2072656C8A
:102F30003D227374796C65736865657422207479B9
:102F400070653D22746578742F63737322206872F4
:102F500065663D227374796C652E637373223E3C03
:102F60002F484541443E3C424F4459206267636FBD
:102F70006C6F723D2223433046464330223E3C6113
:102F800020687265663D226974656C65782D6D6593
:102F90006E752D69742E68746D6C223E696E64695D
:102FA0006574726F3C2F613E202F203C6120687257
:102FB00065663D226974656C65786366672D696E28
:102FC000746B6F6E662E6367693F7370723D6974D0
:102FD00022207461726765743D226D61696E223EC4
:102FE000436F6E6669677572617A696F6E65206D91
:102FF0006F64756C6F206C6F63616C653C2F613E14
:10300000202F203C6120687265663D226974656CE2
:1030100065786366672D696E74626574722E636786
:10302000693F7370723D69742220746172676574C0
:103030003D226D61696E223E506172616D657472F0
:10304000692066756E7A696F6E616D656E746F204A
:103050006C6F63616C653C2F613E202F203C6120CA
:10306000687265663D226974656C65786366672D74
:1030700065787465726E2E6367693F7370723D691F
:103080007422207461726765743D226D61696E22DD
:103090003E506172616D657472692072657465205D
:1030A000692D54656C65783C2F613E202F203C6172
:1030B00020687265663D226974656C65782D63725F
:1030C00065646974732E6367693F7370723D6974D8
:1030D00022207461726765743D226D61696E223EC3
:1030E000496D7072657373756D3C2F613E202F20A2
:1030F0003C6120687265663D226974656C65786321
:1031000066672D656D61696C2E6367693F737072C8
:103110003D697422207461726765743D226D616936
:103120006E223E506172616D65746920654D616902
:103130006C3C2F613E202F203C6120687265663D0B
:10314000226E6574776F726B2D69742E68746D6C66
:10315000223E526574653C2F613E202F203C612049
:10316000687265663D2273797374656D2D69742E7E
:1031700068746D6C223E53697374656D613C2F6198
:103180003E202F203C6120687265663D226974658F
:103190006C65786366672D7370657272656E2E63F9
:1031A00067693F7370723D6974222074617267654C
:1031B000743D226D61696E223E426C6F6363617281
:1031C000653C2F613E3C2F424F44593E3C2F4854B2
:1031D0004D4C3E0D0A0D0A006974656C6578636696
:1031E000672D6D656E752D6E6C2E68746D6C003C70
:1031F00048544D4C3E3C484541443E3C6C696E6BE6
:103200002072656C3D227374796C657368656574B2
:103210002220747970653D22746578742F6373730E
:103220002220687265663D227374796C652E637323
:1032300073223E3C2F484541443E3C424F44592076
:103240006267636F6C6F723D2223433046464330A2
:10325000223E3C6120687265663D226974656C653A
:10326000782D6D656E752D6E6C2E68746D6C223EBA
:1032700074657275673C2F613E202F203C61206889
:103280007265663D226974656C65786366672D6951
:103290006E746B6F6E662E6367693F7370723D6EFE
:1032A0006C22207461726765743D226D61696E22C3
:1032B0003E4C6F6B616C65206D6F6475756C206B37
:1032C0006F6E6669677572617469653C2F613E2037
:1032D0002F203C6120687265663D226974656C65CB
:1032E000786366672D696E74626574722E636769B0
:1032F0003F7370723D6E6C22207461726765743D1D
:10330000226D61696E223E4C6F6B616C6520626557
:103310006472696A6673696E7374656C6C696E67F2
:10332000656E3C2F613E202F203C612068726566EF
:103330003D226974656C65786366672D6578746590
:10334000726E2E6367693F7370723D6E6C222074DB
:1033500061726765743D226D61696E223E506172D3
:10336000616D657465727320692D54656C65782094
:103370006E65743C2F613E202F203C612068726591
:10338000663D226974656C65782D63726564697445
:10339000732E6367693F7370723D6E6C2220746197
:1033A000726765743D226D61696E223E496D70726F
:1033B000657373756D3C2F613E202F203C61206842
:1033C0007265663D226974656C65786366672D6514
:1033D0006D61696C2E6367693F7370723D6E6C221C
:1033E000207461726765743D226D61696E223E656D
:1033F0004D61696C20506172616D65746572733CDA
:103400002F613E202F203C6120687265663D226E50
:103410006574776F726B2D6E6C2E68746D6C223EC6
:103420004E65747765726B3C2F613E202F203C61A6
:1034300020687265663D2273797374656D2D6E6CBC
:103440002E68746D6C223E53797374656D3C2F61E8
:103450003E202F203C6120687265663D22697465BC
:103460006C65786366672D7370657272656E2E6326
:1034700067693F7370723D6E6C222074617267657C
:10348000743D226D61696E223E426C6F6B6B65729A
:10349000656E3C2F613E3C2F424F44593E3C2F48C5
:1034A000544D4C3E0D0A0D0A006974656C65782D0B
:1034B0006D73672D64652E68746D6C003C48544DC7
:1034C0004C3E3C484541443E3C2F484541443E3CEF
:1034D0006672616D6573657420726F77733D222A21
:1034E0002C363022207363726F6C6C696E673D22DC
:1034F0006E6F22206672616D65626F726465723DE7
:1035000022322220626F726465723D22322220666E
:1035100072616D6573706163696E673D223222204E
:10352000626F72646572636F6C6F723D222330301C
:1035300030303030223E3C6672616D6520737263BC
:103540003D226974656C65782D6D73672D6F757498
:103550002E6367693F7370723D646522206E616DF2
:10356000653D224D73674F757422207363726F6CD3
:103570006C696E673D226175746F223E3C667261B4
:103580006D65207372633D226974656C65782D6D7D
:1035900073672D696E2E6367693F7370723D646552
:1035A00022206E616D653D224D7367496E22207346
:1035B00063726F6C6C696E673D226E6F223E3C6E6B
:1035C0006F6672616D65733E3C626F64793E3C70FC
:1035D0003E4968722042726F7773657220756E740F
:1035E00065727374C3BC747A74206B65696E6520F0
:1035F0004672616D6573213C2F703E3C2F626F6493
:10360000793E3C2F6E6F6672616D65733E3C2F662E
:1036100072616D657365743E3C2F48544D4C3E0D90
:103620000A0D0A006974656C65782D6D73672D65E8
:103630006E2E68746D6C003C48544D4C3E3C4845C1
:1036400041443E3C2F484541443E3C6672616D65B5
:1036500073657420726F77733D222A2C36302220D6
:103660007363726F6C6C696E673D226E6F222066A9
:1036700072616D65626F726465723D2232222062F2
:103680006F726465723D223222206672616D6573CD
:10369000706163696E673D22322220626F726465D9
:1036A00072636F6C6F723D222330303030303022C5
:1036B0003E3C6672616D65207372633D226974657C
:1036C0006C65782D6D73672D6F75742E6367693F18
:1036D0007370723D656E22206E616D653D224D7383
:1036E000674F757422207363726F6C6C696E673DEF
:1036F000226175746F223E3C6672616D6520737243
:10370000633D226974656C65782D6D73672D696EF4
:103710002E6367693F7370723D656E22206E616D26
:10372000653D224D7367496E22207363726F6C6C26
:10373000696E673D226E6F223E3C6E6F6672616DF0
:1037400065733E3C626F64793E3C703E496872200E
:1037500042726F7773657220756E7465727374C38D
:10376000BC747A74206B65696E65204672616D6504
:1037700073213C2F703E3C2F626F64793E3C2F6E6C
:103780006F6672616D65733E3C2F6672616D657325
:1037900065743E3C2F48544D4C3E0D0A0D0A00699D
:1037A00074656C65782D6D73672D69742E68746D02
:1037B0006C003C48544D4C3E3C484541443E3C2FF7
:1037C000484541443E3C6672616D65736574207284
:1037D0006F77733D222A2C363022207363726F6C10
:1037E0006C696E673D226E6F22206672616D656244
:1037F0006F726465723D22322220626F726465725C
:103800003D223222206672616D6573706163696E5C
:10381000673D22322220626F72646572636F6C6F43
:10382000723D2223303030303030223E3C667261AF
:103830006D65207372633D226974656C65782D6DCA
:1038400073672D6F75742E6367693F7370723D697E
:103850007422206E616D653D224D73674F75742231
:10386000207363726F6C6C696E673D226175746F53
:10387000223E3C6672616D65207372633D226974FD
:10388000656C65782D6D73672D696E2E6367693F72
:103890007370723D697422206E616D653D224D73B7
:1038A00067496E22207363726F6C6C696E673D228C
:1038B0006E6F223E3C6E6F6672616D65733E3C6258
:1038C0006F64793E3C703E53756F2062726F777300
:1038D0006572206E6F6E20737570706F72746120E8
:1038E0004672616D6573213C2F703E3C2F626F64A0
:1038F000793E3C2F6E6F6672616D65733E3C2F663C
:1039000072616D657365743E3C2F48544D4C3E0D9D
:103910000A0D0A006974656C65782D6D73672D6EEC
:103920006C2E68746D6C003C48544D4C3E3C4845D0
:1039300041443E3C2F484541443E3C6672616D65C2
:1039400073657420726F77733D222A2C36302220E3
:103950007363726F6C6C696E673D226E6F222066B6
:1039600072616D65626F726465723D2232222062FF
:103970006F726465723D223222206672616D6573DA
:10398000706163696E673D22322220626F726465E6
:1039900072636F6C6F723D222330303030303022D2
:1039A0003E3C6672616D65207372633D2269746589
:1039B0006C65782D6D73672D6F75742E6367693F25
:1039C0007370723D6E6C22206E616D653D224D7389
:1039D000674F757422207363726F6C6C696E673DFC
:1039E000226175746F223E3C6672616D6520737250
:1039F000633D226974656C65782D6D73672D696E02
:103A00002E6367693F7370723D6E6C22206E616D2C
:103A1000653D224D7367496E22207363726F6C6C33
:103A2000696E673D226E6F223E3C6E6F6672616DFD
:103A300065733E3C626F64793E3C703E5577206210
:103A4000726F777365722073746161742067656546
:103A50006E206672616D657320746F65213C2F70F6
:103A60003E3C2F626F64793E3C2F6E6F6672616DD3
:103A700065733E3C2F6672616D657365743E3C2FC5
:103A800048544D4C3E0D0A0D0A00726F626F7473FC
:103A90002E747874002320726F626F74732E7478A2
:103AA00074207A756D20692D74656C657820576572
:103AB000622D496E746572666163650D0A557365A2
:103AC000722D6167656E743A202A0D0A446973612C
:103AD0006C6C6F773A202F0D0A002820256C64202B
:103AE0004279746520756562657274726167656E8E
:103AF00020285344290D0A004854545020736F6302
:103B00006B657420636C6F73656420627920636CED
:103B100069656E740D0A00485454502F312E3120BF
:103B200032303020446F63756D656E7420666F6C43
:103B30006C6F77730D0A436F6E74656E742D4C65F0
:103B40006E6774683A20256C640D0A436F6E746565
:103B50006E742D547970653A20257325730D0A43D0
:103B6000616368652D436F6E74726F6C3A206D618E
:103B7000782D6167653D333630300D0A436F6E6EC8
:103B8000656374696F6E3A20636C6F73650D0A0D1F
:103B90000A00746578742F0068746D0068746D6C29
:103BA000002820256C642042797465207565626563
:103BB0007274726167656E2028464C415348290D26
:103BC0000A000D0A436F6E74656E742D4C656E6746
:103BD00074683A2025640D0A43616368652D436F5C
:103BE0006E74726F6C3A206D61782D6167653D333C
:103BF0003630300D0A436F6E6E656374696F6E3ACE
:103C000020636C6F73650D0A0D0A0062696E0074A3
:103C10006578742F68746D6C006A70656700706EEB
:103C20006700485454502F312E3120323030204418
:103C30006F63756D656E7420666F6C6C6F77730D56
:103C40000A436F6E74656E742D547970653A200066
:103C50000D0A002066726F6D2000687474702D72FA
:103C60006571756573743A2000687474702D73659E
:103C7000727665723A20257320003E2000517569E6
:103C800074696E670D0A007175697400556E642C55
:103C9000206C6F73206765687427732E2E2E212188
:103CA0002120282268656C70222068696C66742067
:103CB0003A2D29290D0A3E200074656C6E6574004A
:103CC00054656C6E65742D53657276657220506F05
:103CD00072742025642E0D0A0043524F4E5F454EEC
:103CE0005452595F253032640025643A206E69636E
:103CF00068742062656C6567740D0A0025643A205B
:103D000025642025642025730D0A0063726F6E0000
:103D1000666F6F2E636769002573202F202573203F
:103D20002F2025640D0A0049502F4D41432F545434
:103D30004C0D0A00617270003C2F424F44593E3CCA
:103D40002F48544D4C3E0D0A0D0A003C48544D4C32
:103D50003E3C484541443E3C6D6574612068747446
:103D6000702D65717569763D22726566726573683E
:103D70002220636F6E74656E743D223630303B20B6
:103D8000223E3C5449544C453E53747265616D6902
:103D90006E673C2F5449544C453E3C2F48454144A6
:103DA0003E3C424F4459206267636F6C6F723D2204
:103DB000233232384232322220746578743D222315
:103DC000464646464646223E5A6569743A202530A4
:103DD00032643A253032643A253032642E2530324E
:103DE0006420282025752F25752F2530347520292E
:103DF0000050485354415432207C203078253034D0
:103E0000580D0A0050485354415431207C203078DA
:103E1000253034580D0A005265762E494420207C06
:103E20002020203078253032580D0A002D2D2D2DE0
:103E30002D2D2D2D2B2D2D2D2D2D2D2D2D0D0A0024
:103E40005265672E202020207C20576572740D0A51
:103E500000454E4332384A36303A0D0A005443503A
:103E60002D5458204572726F72733A202564205485
:103E700043502D5258204572726F72733A20256458
:103E80002028756E736F727465642025642C206F12
:103E90006C64736571202564290D0A0D0A00457450
:103EA0006865726E65743A20256C64204279746589
:103EB0007320696E20256C64205061636B657465A6
:103EC0006E204C6F636B4572726F727320256C6449
:103ED0000D0A0073746174732E63676900737461F3
:103EE0007473005265736574007265736574007253
:103EF00065736574007265736574003C666F726DFE
:103F000020616374696F6E3D2272657365742E6300
:103F1000676922206D6574686F643D22676574224D
:103F2000206163636570742D636861727365743DAD
:103F30002249534F2D383835392D31223E3C703EC1
:103F40003C696E70757420747970653D227375627A
:103F50006D697422206E616D653D227265736574B2
:103F6000222076616C75653D227265736574223E10
:103F70003C2F703E3C2F666F726D3E00726573651C
:103F8000742E63676900726573657400646E7320D4
:103F90003C686F73746E616D653E0D0A0049502078
:103FA0007A75202573203D2025730D0A00646E73F9
:103FB0000044484350004950004D41534B00474195
:103FC000544500444E53004D414300536574746999
:103FD0006E67732073617665642C207265626F6F03
:103FE00074206E656365737361727920746F2074D9
:103FF000616B6520656666656374210D0A003C741B
:10400000723E3C746420616C69676E3D2272696720
:104010006874223E48617264776172652D4D414338
:104020003C2F74643E3C74643E3C696E7075742031
:104030006E616D653D224D41432220747970653D6E
:104040002274657874222073697A653D22313722A3
:104050002076616C75653D22257322206D61786C38
:10406000656E6774683D223137223E3C2F74643E92
:104070003C2F74723E3C74723E3C74643E3C2F7420
:10408000643E3C74643E3C696E7075742074797053
:10409000653D227375626D6974222076616C756569
:1040A0003D222053617665206368616E67657320E9
:1040B000223E3C2F74643E3C2F74723E3C2F746150
:1040C000626C653E3C2F666F726D3E004D41430051
:1040D0003C74723E3C746420616C69676E3D227270
:1040E00069676874223E444E532D5365727665723B
:1040F0003C2F74643E3C74643E3C696E7075742061
:104100006E616D653D22444E532220747970653D89
:104110002274657874222073697A653D22313522D4
:104120002076616C75653D22257322206D61786C67
:10413000656E6774683D223135223E3C2F74643EC3
:104140003C2F74723E00444E53003C74723E3C74EB
:104150006420616C69676E3D227269676874223EF3
:10416000476174657761793C2F74643E3C74643EAA
:104170003C696E707574206E616D653D22474154D7
:10418000452220747970653D22746578742220730D
:10419000697A653D223135222076616C75653D2254
:1041A000257322206D61786C656E6774683D2231DD
:1041B00035223E3C2F74643E3C2F74723E004741D2
:1041C0005445003C74723E3C746420616C69676EB7
:1041D0003D227269676874223E4E65746D61736B2F
:1041E0003C2F74643E3C74643E3C696E7075742070
:1041F0006E616D653D224D41534B2220747970658F
:104200003D2274657874222073697A653D223135C8
:10421000222076616C75653D22257322206D6178C0
:104220006C656E6774683D223135223E3C2F7464A4
:104230003E3C2F74723E004D41534B003C74723E25
:104240003C746420616C69676E3D227269676874B2
:10425000223E495020616464726573733C2F74641C
:104260003E3C74643E3C696E707574206E616D6591
:104270003D2249502220747970653D22746578741E
:10428000222073697A653D223135222076616C7572
:10429000653D22257322206D61786C656E677468B8
:1042A0003D223135223E3C2F74643E3C2F74723ED9
:1042B000004950003E3C2F74643E3C2F74723E0017
:1042C000636865636B6564006F6E0044484350002B
:1042D0003C74723E3C746420616C69676E3D22726E
:1042E00069676874223E444843502061637469766C
:1042F000653C2F74643E3C74643E3C696E7075741A
:1043000020747970653D22636865636B626F782203
:10431000206E616D653D2244484350222076616CD9
:1043200075653D226F6E22200044484350003C6674
:104330006F726D20616374696F6E3D226E65747774
:104340006F726B2E636769223E3C7461626C6520FC
:10435000626F726465723D2230222063656C6C70FE
:10436000616464696E673D2235222063656C6C73FD
:10437000706163696E673D2230223E00636F6E6636
:104380006967003C2F7072653E0D0A00737461749A
:1043900073006966636F6E666967003C7072653EA4
:1043A0000D0A000D0A48572D4164723A202530321B
:1043B000783A253032783A253032783A25303278DA
:1043C0003A253032783A253032780D0A0D0A004409
:1043D0004E533A25730D0A00476174657761793A47
:1043E00025730D0A004E65746D61736B3A25730D6C
:1043F0000A0049503A25730D0A006E6574776F7292
:104400006B2E636769006966636F6E666967004E4D
:104410005450004E54505345525645520055544343
:104420005A4F4E450045696E7374656C6C756E67C6
:10443000656E2075656265726E6F6D6D656E210DBE
:104440000A003C74723E3C746420616C69676E3D86
:10445000227269676874223E534E54502D53657220
:104460007665723C2F74643E3C74643E3C696E70A9
:104470007574206E616D653D224E54505345525601
:1044800045522220747970653D227465787422202B
:1044900073697A653D223235222076616C75653DFF
:1044A00022257322206D61786C656E6774683D22E9
:1044B0003235223E3C2F74643E3C2F74723E3C7475
:1044C000723E3C746420616C69676E3D227269675C
:1044D0006874223E5A6569747A6F6E653C2F746405
:1044E0003E3C74643E3C696E707574206E616D650F
:1044F0003D225554435A4F4E452220747970653DF4
:104500002274657874222073697A653D22332220F3
:1045100076616C75653D22257322206D61786C652E
:104520006E6774683D2233223E3C2F74643E3C2FFC
:1045300074723E3C74723E3C74643E3C2F74643E24
:104540003C74643E3C696E70757420747970653D8E
:10455000227375626D6974222076616C75653D22E7
:104560002045696E7374656C6C756E672026557591
:104570006D6C3B6265726E65686D656E20223E3CB7
:104580002F74643E3C2F74723E3C2F7461626C65E4
:104590003E3C2F666F726D3E00300074696D652E73
:1045A00066752D6265726C696E2E6465003E3C2FE7
:1045B00074643E3C2F74723E00636865636B65648F
:1045C000006F6E003C666F726D20616374696F6E80
:1045D0003D226E74702E636769223E0D3C746162E9
:1045E0006C6520626F726465723D223022206365C3
:1045F0006C6C70616464696E673D2235222063656E
:104600006C6C73706163696E673D2230223E3C744E
:10461000723E3C746420616C69676E3D227269670A
:104620006874223E534E545020616B7469766965FC
:1046300072656E3C2F74643E3C74643E3C696E70DF
:10464000757420747970653D22636865636B626F71
:104650007822206E616D653D224E54502220766195
:104660006C75653D226F6E2220006E7470203C6E6A
:1046700074707365727665723E0D0A004665686CEB
:1046800065720D0A004E657565205A6569743A2099
:10469000253032643A253032643A253032640D0ACE
:1046A00000486F6C65205A65697420766F6E20250E
:1046B000730D0A004665686C65720D0A006E7470B1
:1046C000002644594E444E535F55534552505700AF
:1046D00044594E444E535F444F4D41494E00456945
:1046E0006E7374656C6C756E67656E20756562655A
:1046F000726E6F6D6D656E210D0A002D31202D31AA
:1047000035202264796E646E7320757064617465FF
:10471000220044594E444E535F4F4E002D31202D00
:104720003135202264796E646E7320757064617413
:1047300065220044594E444E530044594E444E5352
:104740005F4F4E0044594E444E5300444F4D414933
:104750004E0044594E444E535F444F4D41494E0024
:10476000444F4D41494E004143434F554E5400265E
:1047700044594E444E535F555345525057004143A0
:10478000434F554E54004143434F554E54003C66F1
:104790006F726D20616374696F6E3D2264796E641F
:1047A0006E732E636769223E0D203C7461626C65F6
:1047B00020626F726465723D2230222063656C6CEA
:1047C00070616464696E673D2235222063656C6C9C
:1047D00073706163696E673D2230223E20203C7415
:1047E000723E0D2020203C746420616C69676E3D30
:1047F000227269676874223E44796E444E53206188
:104800006B746976696572656E3C2F74643E202016
:10481000203C74643E3C696E7075742074797065D8
:104820003D22636865636B626F7822206E616D65FF
:104830003D2244594E444E53222076616C75653DAD
:10484000226F6E22202573203E20203C2F74643E70
:104850000D20203C74723E0D2020203C74642061A9
:104860006C69676E3D227269676874223E64796E76
:10487000444E53204163636F756E74202820757316
:1048800065723A707720293C2F74643E2020203CCA
:1048900074643E3C696E707574206E616D653D2276
:1048A0004143434F554E542220747970653D227424
:1048B000657874222073697A653D2233312220762F
:1048C000616C75653D2222206D61786C656E677440
:1048D000683D223331223E3C2F74643E20203C2F21
:1048E00074723E0D20203C74723E0D2020203C74DA
:1048F0006420616C69676E3D227269676874223E4C
:1049000044796E444E5320446F6D61696E3C2F7440
:10491000643E2020203C74643E3C696E70757420B7
:104920006E616D653D22444F4D41494E22207479A0
:1049300070653D2274657874222073697A653D2222
:104940003331222076616C75653D22257322206DFE
:1049500061786C656E6774683D223531223E3C2F6C
:1049600074643E20203C2F74723E0D20203C7472F3
:104970003E0D2020203C74643E3C2F74643E3C7409
:10498000643E3C696E70757420747970653D227365
:1049900075626D6974222076616C75653D222045D3
:1049A000696E7374656C6C756E67202655756D6CD9
:1049B0003B6265726E65686D656E20223E3C2F74A9
:1049C000643E20203C2F74723E0D203C2F746162A7
:1049D0006C653E0D3C2F666F726D3E0063686563CB
:1049E0006B6564006F6E0044594E444E535F4F4EEA
:1049F0000044594E444E535F444F4D41494E00448C
:104A0000594E444E535F444F4D41494E0064796EB8
:104A1000646E73203C7570646174653E202F203C89
:104A20007365746163636F756E7420757365723A34
:104A300070774064796E646E732D646F6D61696E1A
:104A40003E0D0A004163636F756E74646174656E38
:104A50002067657370656963686572742E0D0A005E
:104A60007365746163636F756E740055706461740F
:104A7000652066756572202573206665686C6765BC
:104A80007363686C6167656E0D0A005570646174CC
:104A9000652066756572202573206572666F6C6788
:104AA00072656963682E0D0A007570646174650033
:104AB00064796E646E732E6367690064796E646EE8
:104AC000730064656C0064656C0045696E737465A1
:104AD0006C6C756E67656E2075656265726E6F6D64
:104AE0006D656E210D0A00434D4400256420256448
:104AF0002022257322004D4D00484800434D4400BC
:104B00003C666F726D20616374696F6E3D226372E3
:104B10006F6E2E636769223E3C7461626C65206231
:104B20006F726465723D2230222063656C6C706127
:104B30006464696E673D2235222063656C6C737016
:104B40006163696E673D2230223E3C74723E3C7464
:104B50006420616C69676E3D227269676874223EE9
:104B60005374756E64653C2F74643E3C74643E3CC3
:104B7000696E707574206E616D653D224848222013
:104B8000747970653D2274657874222073697A6542
:104B90003D2233222076616C75653D2230226D61A5
:104BA000786C656E6774683D2233223E3C2F7464D6
:104BB0003E3C2F74723E3C74723E3C746420616CC7
:104BC00069676E3D227269676874223E4D696E7531
:104BD00074653C2F74643E3C74643E3C696E707531
:104BE00074206E616D653D224D4D22207479706593
:104BF0003D2274657874222073697A653D223322E0
:104C00002076616C75653D223022206D61786C657F
:104C10006E6774683D2233223E3C2F74643E3C2F05
:104C200074723E3C74723E3C746420616C69676EC1
:104C30003D227269676874223E436F6D6D616E64D8
:104C40003C2F74643E3C74643E3C696E7075742005
:104C50006E616D653D22434D442220747970653D3F
:104C60002274657874222073697A653D223330227C
:104C7000206D61786C656E6774683D223330223E2A
:104C80003C2F74643E3C2F74723E3C74723E3C7404
:104C9000643E3C2F74643E3C74643E3C696E7075A7
:104CA0007420747970653D227375626D6974222079
:104CB00076616C75653D222045696E74726167206E
:104CC0007369636865726E20223E3C2F74643E3CBB
:104CD0002F74723E3C2F7461626C653E3C2F666F90
:104CE000726D3E0D006164646E6577003C74723EC7
:104CF0003C746420616C69676E3D226C6566742249
:104D00003E3C6120687265663D2263726F6E2E6361
:104D100067693F6164646E657722207374796C659E
:104D20003D22746578742D6465636F726174696F78
:104D30006E3A6E6F6E6522207469746C653D224117
:104D40006464223E3C696E70757420747970653DB0
:104D500022627574746F6E222076616C75653D22D7
:104D6000616464206E65772063726F6E2220636CCD
:104D70006173733D22616374696F6E42746E223E8B
:104D80003C2F613E3C2F74643E3C2F74723E3C2F9E
:104D90007461626C653E0D003C74723E3C7464202C
:104DA000616C69676E3D226C656674223E25733CBA
:104DB0002F74643E3C746420616C69676E3D226CA4
:104DC000656674223E3C6120687265663D226372AE
:104DD0006F6E2E6367693F64656C3D2564222073A6
:104DE00074796C653D22746578742D6465636F72A7
:104DF0006174696F6E3A6E6F6E6522207469746CAF
:104E0000653D2244656C223E3C696E707574207469
:104E10007970653D22627574746F6E222076616CC4
:104E200075653D2264656C2220636C6173733D225D
:104E3000616374696F6E42746E223E3C2F613E3C2A
:104E40002F74643E3C2F74723E003C7461626C654A
:104E500020626F726465723D2230222063656C6C43
:104E600070616464696E673D2235222063656C6CF5
:104E700073706163696E673D2230223E0063726F1A
:104E80006E2E636769003C2F7072653E003C707245
:104E9000653E0065656D656D203C70726F7465637D
:104EA000743E7C3C756E70726F746563743E203C1A
:104EB000616464205B6E616D652076616C5D3E208F
:104EC0003C64656C205B6E616D655D3E203C70727C
:104ED000696E743E203C636C65616E3E0D0A006332
:104EE0006C65616E007072696E740064656C00615F
:104EF000646400756E70726F7465637465740D0A16
:104F00000057524954455F50524F54454354004F47
:104F1000464600756E70726F74656374005752492F
:104F200054455F50524F54454354004F4E007072E9
:104F30006F746563740065656D656D2E63676900E8
:104F400065656D656D0039313000E4F6FCC4D6DC72
:104F5000DF5B5D3C3E7B7D405F232200616F7541DE
:104F60004F5573283A282E282D28202B27006565B9
:104F700065656565733A292E292D2929202B27007F
:104F80005A45494C450054455854005350524143EA
:104F90004845004346475041535300544C4E4255F8
:104FA00043484F4646454E0050524F544C45564597
:104FB0004C0050524F544C4556454C544C4E535255
:104FC00056004C414E474449454E53544D454C4480
:104FD00000534F434B45544C4F47004841555054A4
:104FE0005354454C4C4500454947454E454E554D5B
:104FF0004D455200464553544548505354004D4585
:105000004C445255434B00414C5445524E42454945
:105010004245530044555243485741484C5441423D
:105020000042415544544142005457494E455500B1
:105030004155544F444154554D004153434949450E
:105040004D5046005A45494C454E4C41454E47450A
:10505000005A45495452554E4453454E44004E451E
:10506000545A5255464E520050494E0044594E49EA
:1050700050414B544956004E45545A504F525400DB
:1050800053454C425354414E5045520052454D53A6
:10509000455256414B544956005255464E5253457F
:1050A000525631005255464E5253455256320052D6
:1050B00055464E5253455256330053594E4350496C
:1050C0004E002E2E2E546C6E42756368206F6B0D51
:1050D0000A002E2E2E456D61696C206F6B0D0A0043
:1050E0006954656C6578006954656C657820506F0B
:1050F00072742025752E0D0A002E2E2E436769200E
:105100006F6B0D0A006E74702E63676900736464C0
:1051100069722E636769006D656D64756D702E68C8
:105120006578006974656C65782D6372656469746F
:10513000732E636769006974656C65782D646562B8
:1051400075672E636769006974656C657863666767
:105150002D7370657272656E2E6367690069746580
:105160006C65786366672D65787465726E2E63670B
:1051700069006974656C65786366672D696E746231
:105180006574722E636769006974656C657863661F
:10519000672D696E746B6F6E662E63676900697444
:1051A000656C65782D747769746C6E6C6973746561
:1051B0002E636769006974656C65782D6D73672D62
:1051C0006F75742E636769006974656C65782D6D01
:1051D00073672D696E2E636769006974656C657805
:1051E0005F696E6974323A0D0A002E2E2E54696D75
:1051F00065722D43616C6C6261636B2D46756E6BDD
:1052000074696F6E206F6B0D0A002E2E2E436F6E29
:10521000666967206F6B0D0A002A3A3530002E2E22
:105220002E53656E64655075666665722C20456DFB
:105230007066507566666572206F6B0D0A00697442
:10524000656C65785F696E6974313A0D0A00585271
:10525000414D57414954004E657573746172742015
:105260003931302052657365742D466C6167732047
:10527000253032580D0A002C20536572556D546943
:10528000636B7350726F426974203D2025750D0A5F
:105290000053657269656C6C556D7365747A496EFF
:1052A00069743A2042757356657262506172746E09
:1052B0006572203D202575006954656C6578282548
:1052C0003575293A20004448435000637572002523
:1052D0003032580D0A0025303258003A2530325805
:1052E0002530345825303258004572726F72207262
:1052F000656164696E67206469726563746F727951
:1053000021003C612068726566203D2225732F25AF
:1053100073223E25733C2F613E20256C64203C7334
:105320006D616C6C3E3C612068726566203D227345
:10533000646469722E6367693F6469723D257326F0
:1053400064656C3D25732F2573223E64656C65741E
:10535000653C2F613E3C2F736D616C6C3E3C62720C
:105360003E003C612068726566203D222573223E26
:1053700025733C2F613E20256C64203C736D616C6D
:105380006C3E3C612068726566203D2273646469EE
:10539000722E6367693F64656C3D2573223E6465C8
:1053A0006C6574653C2F613E3C2F736D616C6C3E87
:1053B0003C62723E003C612068726566203D22734B
:1053C000646469722E6367693F6469723D25732F57
:1053D0002573223E25733C2F613E204449523C6296
:1053E000723E003C612068726566203D22736464F1
:1053F00069722E6367693F6469723D2573223E2599
:10540000733C2F613E204449523C62723E003C2F67
:10541000623E2028256C752066726565293C6272A3
:105420003E003C623E436F6E74656E74206F662072
:1054300025733A00646972003C623E436F6E746586
:105440006E74206F66202F3A006469720046696CA2
:1054500065202573204E4F5420666F756E643C7036
:105460003E0046696C65202573204E4F54206465CC
:105470006C657465643C703E0046696C65202573FC
:105480002064656C657465643C703E0064656C0006
:1054900064656C003C2F613E003C6120687265666B
:1054A0003D226974656C65786366672D65787465FF
:1054B000726E2E636769223E006974656C6578635D
:1054C00066672D65787465726E2E636769003C2F80
:1054D000613E003C6120687265663D226974656CBE
:1054E00065786366672D696E74626574722E636792
:1054F00069223E006974656C65786366672D696E24
:1055000074626574722E636769003A202573002502
:10551000732667743B2667743B2667743B256325B7
:10552000733C2F623E003A203C623E003A202573D5
:10553000003C62723E003C62723E003A20257300DD
:105540003C62723E003A202573003A202573003CED
:1055500062723E003A202573003A202573003C62B7
:10556000723E003C2F613E003C6120687265663DE2
:10557000226974656C65786366672D696E746B6FFC
:105580006E662E636769223E006974656C65786398
:1055900066672D696E746B6F6E662E636769003C7B
:1055A0002F613E3C2F666F726D3E0020223E3C61B3
:1055B00020687265663D226974656C65782D6D732F
:1055C000672D6F75742E6367692220746172676539
:1055D000743D224D73674F7574223E003C696E70B6
:1055E0007574206E616D653D2245696E6761626507
:1055F0002220747970653D22746578742220736965
:105600007A653D223635222076616C75653D222211
:10561000206D61786C656E6774683D223635223E78
:105620003C696E70757420747970653D2273756283
:105630006D6974222076616C75653D22003C666F51
:10564000726D20616374696F6E3D226974656C656B
:10565000782D6D73672D696E2E636769223E004851
:10566000544D4C2D436861742D41626272756368BC
:10567000202D2D3E20417573736368616C74756EC7
:105680006720696E7465726E0D0A00260048544DDD
:105690004C2D43686174206265676F6E6E656E2085
:1056A00028416E7761686C20257529202D3E2000E9
:1056B0000D0A0048544D4C2D436861742045696EB5
:1056C000676162653A20000D0A0045696E67616294
:1056D000650044757263687761686C20696E205458
:1056E0006162656C6C6520676566756E64656E20C9
:1056F00025750D0A0044757263687761686C2061D6
:10570000757320546162656C6C6520756D67657397
:1057100065747A742025750D0A0044757263687784
:1057200061686C2D416E66726167652025750D0A92
:1057300000446972656B74647275636B20416272B8
:10574000756620447275636B7370696567656C205C
:105750002862656C656774290D0A00446972656B7F
:1057600074647275636B2041627275662044727551
:10577000636B7370696567656C2028617573290DAB
:105780000A0020282575290D0A00446972656B748A
:10579000647275636B204162727566204472756332
:1057A0006B7370696567656C3A003C62723E3C7071
:1057B00072653E2573266C743B266C743B266C74B4
:1057C0003B257325733C2F7072653E003C48544D59
:1057D0004C3E3C484541443E3C6D657461206874D4
:1057E00074702D65717569763D2265787069726592
:1057F000732220636F6E74656E743D2231223E3CCD
:105800006D65746120687474702D65717569763D7D
:1058100022707261676D612220636F6E74656E74B1
:105820003D226E6F2D6361636865223E3C6D657439
:105830006120687474702D65717569763D2272659A
:1058400066726573682220636F6E74656E743D22A4
:1058500031303B2055524C3D6974656C65782D6D37
:1058600073672D6F75742E636769223E3C2F484520
:1058700041443E3C424F44593E006974656C657832
:105880002D637265646974732E63676900696E764F
:10589000616C6964206C696E65206E722E202564CF
:1058A0003C62723E005B25645D202D2D3E202573F9
:1058B0003A20256400494D50524553535F002573EB
:1058C0003C62723E002532643A20003C62723E3CEB
:1058D0006120687265663D226974656C65782D6427
:1058E000656275672E6367693F7265736574223EF2
:1058F00053746174697374696B2D446174656E20AF
:105900007A75722675756D6C3B636B7365747A6519
:105910006E3C2F613E3C62723E45746865726E65F6
:10592000743A20256C6420427974657320696E2076
:10593000256C642050616B6574656E204C6F636BE1
:105940004572726F727320256C640020256C75009F
:105950003C62723E20564343205B6D565D203D0005
:105960003C62723E53797374656D53746172745AFC
:10597000656974203D20253032752E253032752E14
:105980002530347520253032643A253032643A258A
:105990003032642C205265736574466C6167203D1B
:1059A0002025303258003C62723E584D435241200F
:1059B0003D2025303258003C62723E446562756776
:1059C0005F4C6F776573745350203D2025303258FB
:1059D000003C62723E4E5450557064617465446977
:1059E00066665365636F6E6473203D202564003CDA
:1059F00062723E5A65697453657276657241626679
:105A00007261676554696D6572456E6465203D20FD
:105A10002575003C62723E4C616E6754696D65721B
:105A200056616C28265A65697453657276657241B1
:105A300062667261676554696D657229203D202533
:105A400075003C62723E4E65747A456967656E65A5
:105A50004950203D2025303258003C62723E4E6550
:105A6000747A506F7274203D202575003C62723E3E
:105A70005443505F736F636B65745B25645D3A20BC
:105A8000636C6F736564003C62723E5443505F7395
:105A90006F636B65745B25645D3A20436F6E6E6562
:105AA0006374696F6E53746174653D25752C205362
:105AB000656E6453746174653D25752C20536F7554
:105AC000726365506F72743D25752C204465737444
:105AD000696E6174696F6E506F72743D25752C200C
