:100000000C9464590C948B5A0C94B65A0C94E15A83
:100010000C940C5B0C94375B0C94625B0C948D5BC2
:100020000C94B85B0C94FD590C94FD590C94FD593B
:100030000C947ABB0C94FD590C94FD590C94FD5909
:100040000C94FD590C94795F0C94FD590C94FD5956
:100050000C94FD590C9446670C94FD590C94FD5971
:100060000C94FD590C94C6600C9485600C946A60E5
:100070000C94FD590C94FD590C94FD590C94FD59A8
:100080000C94FD590C94FD590C94FD590C94FD5998
:100090000C94CA610C943E610C9401610D94D33EA2
:1000A0000C94FD590C94FD590C94FD590C94FD5978
:1000B0000C94FD590C94FD590C94FD590C94FD5968
:1000C0000C94FD590C94FD590C94FD590C0D0E0F18
:1000D000253032783A253032783A253032783A2550
:1000E0003032783A253032783A253032780025643B
:1000F0002E25642E25642E25640044484350206D2F
:10010000736720747970652035332076616C75656E
:100110002025750D0A0044484350206D73672074F4
:100120007970652035332076616C75652025750DF5
:100130000A005544502D536F636B657420676573D7
:1001400063686C6F7373656E2E0D0A0054696D657C
:100150006F7574206265756E2077617274656E20AC
:1001600061756620416E74776F72742E0D0A0046B9
:10017000616C736368657320466F726D617420648F
:10018000657220416E74776F72742E0D0A00416E95
:1001900074776F727420657268616C74656E2E0D71
:1001A0000A0057617274652061756620416E74772C
:1001B0006F72742E005544502D5061636B6574202E
:1001C000676573656E6465742E0D0A005544502D85
:1001D000536F636B65742061756667656D616368F5
:1001E00074207A75722025732E0D0A004F6566669D
:1001F0006E65206E6575657320536F636B65742E35
:100200000D0A004950004D41534B00444E530047E6
:1002100041544500444843502D436F6E6669672042
:100220006765686F6C740D0A00444843502D436F36
:100230006E666967204665686C67657363686C61A4
:1002400067656E0D0A00207C2D3E20566572737521
:1002500063686520444843502D436F6E666967208C
:100260007A7520686F6C656E2E2000206665686C5C
:1002700067657363686C6167656E0D0A002066656B
:10028000686C67657363686C6167656E0D0A002052
:100290005A6569743A20253032643A253032643A1E
:1002A000253032642E253032640D0A004E545053EE
:1002B0004552564552005554435A4F4E4500207CF6
:1002C0002D3E204E54502D536572766572205A652E
:1002D000697420616B7475616C6973696572656EB0
:1002E0003A006F6E004E545000207C202020444E77
:1002F00053202020203A2025730D0A00207C202046
:1003000020476174657761793A2025730D0A0020D2
:100310007C2020204E65746D61736B3A2025730D2F
:100320000A00207C202020495020202020203A2034
:1003300025730D0A006F6E00444843500044484343
:100340005000207C2D3E2054435020284875727266
:100350006963616E2D656E67696E652920696E69D6
:100360007469616C6973696572740D0A00207C2D73
:100370003E205544502028546F726E61646F2D6585
:100380006E67696E652920696E697469616C69734D
:10039000696572740D0A002D2B2D3E2041525020AC
:1003A000696E697469616C6973696572740D0A00BC
:1003B000204C696E6B2072656164790D0A002046DD
:1003C000756C6C6475706C65783A00454E433238D4
:1003D0006A363020285265762E3A20256429206915
:1003E0006E697469616C697369657274202820484C
:1003F000572D4164643A20253032783A25303278DE
:100400003A253032783A253032783A253032783A07
:10041000253032782029004D4143004D4143004DA5
:100420004350636F6E666967000D0A000A0025631A
:1004300000436F6E666967206973742025642062CB
:10044000797465732067726F73732C202564206242
:100450007974652077657264656E2062656E757467
:100460007A742E204F66667365742025640D0A0D1C
:100470000A004F46460057524954455F50524F5468
:100480004543540020496E697469616C69736965FC
:1004900072740D0A00204572726F720D0A00544882
:1004A00052454144005348454C4C0046696C6573C5
:1004B000797374656D004D4D432F53440045585476
:1004C000494E5400436F6E666967004C45445F6354
:1004D0006F726500434C4F434B005354444F555487
:1004E0000055415254006954656C65782E2E2E0DCE
:1004F0000A003EFFFFFF3F3435363738393A3B3C80
:100500003DFFFFFFFFFFFFFF000102030405060799
:1005100008090A0B0C0D0E0F1011121314151617E3
:100520001819FFFFFFFFFFFF1A1B1C1D1E1F2021B4
:1005300022232425262728292A2B2C2D2E2F303123
:1005400032334142434445464748494A4B4C4D4E5D
:100550004F505152535455565758595A616263641B
:1005600065666768696A6B6C6D6E6F7071727374C3
:1005700075767778797A30313233343536373839A1
:100580002B2F002F6E69632F7570646174653F684F
:100590006F73746E616D653D2573006D656D626589
:1005A00072732E64796E646E732E6F726700636867
:1005B00065636B69702E64796E646E732E6F7267FB
:1005C00000474554200020485454502F312E300D00
:1005D0000A557365722D4167656E743A20576765D9
:1005E000742F312E31312E340D0A416363657074DE
:1005F0003A202A2F2A0D0A486F73743A20000D0AF8
:10060000417574686F72697A6174696F6E3A2042DD
:10061000617369632025730D0A0D0A000D0A0D0A26
:10062000002F00436F6E74656E742D4C656E677499
:10063000683A2000485454502F312E000D0A0043D0
:100640006F6D6D616E64733A0D0A0D0A0068656C1A
:100650007000485454502F312E30203430330D0A5E
:10066000436F6E74656E742D547970653A207465AD
:1006700078742F68746D6C0D0A4B6565702D416C34
:100680006976653A20636C6F73650D0A0D0A3C4804
:10069000544D4C3E3C424F44593E34303320466921
:1006A0006C65206E6F7420666F756E64213C2F42FE
:1006B0004F44593E3C2F48544D4C3E0D0A0D0A0004
:1006C000504F535400474554006874747064004898
:1006D0005454502D53657276657220506F72742099
:1006E00025642E0D0A00696E6465782E68746D6C41
:1006F000003C2F424F44593E3C2F48544D4C3E0D38
:100700000A0D0A003C48544D4C3E3C484541443E8D
:100710003C6D65746120687474702D6571756976BF
:100720003D22657870697265732220636F6E74650F
:100730006E743D2230223E3C212D2D20456E61629B
:100740006C6520494539205374616E64617264732D
:10075000206D6F6465202D2D3E3C6D6574612068B1
:100760007474702D65717569763D22582D55412D33
:10077000436F6D70617469626C652220636F6E7483
:10078000656E743D2249453D3922203E3C2F484547
:1007900041443E3C424F44593E00485454502F314E
:1007A0002E312032303020446F63756D656E7420B9
:1007B000666F6C6C6F77730D0A436F6E74656E7441
:1007C0002D547970653A20746578742F68746D6C57
:1007D0000D0A43616368652D436F6E74726F6C3AE6
:1007E000206E6F2D63616368650D0A436F6E6E65E1
:1007F0006374696F6E3A20636C6F73650D0A0D0A3E
:1008000000696E6465782E68746D6C003C48544DC8
:100810004C3E3C484541443E3C5449544C453E695D
:100820002D54656C65783C2F5449544C453E3C2F03
:10083000484541443E3C6672616D65736574207243
:100840006F77733D2236342C34302C2A2C343022EE
:10085000207363726F6C6C696E673D226E6F22202D
:100860006672616D65626F726465723D223222202C
:10087000626F726465723D223222206672616D651C
:1008800073706163696E673D22322220626F726409
:100890006572636F6C6F723D2223303030303030C0
:1008A000223E3C6672616D65207372633D2268650D
:1008B00061646C696E652E68746D6C22206E616D6A
:1008C000653D224E617669676174696F6E312220E1
:1008D0007363726F6C6C696E673D226175746F2211
:1008E0003E3C6672616D65207372633D226D616985
:1008F0006E6D656E752E68746D6C22206E616D650F
:100900003D224E617669676174696F6E3222207391
:1009100063726F6C6C696E673D226175746F223E05
:100920003C6672616D65207372633D22696E666F0D
:100930002E68746D6C22206E616D653D226D61695B
:100940006E223E3C6672616D65207372633D227358
:10095000746174732E63676922206E616D653D2238
:1009600075706461746522207363726F6C6C696E5C
:10097000673D226175746F223E3C6E6F6672616DD9
:1009800065733E3C626F64793E3C703E49687220FC
:1009900042726F7773657220756E74657273742618
:1009A00075756D6C3B747A74206B65696E65204655
:1009B00072616D6573213C2F703E3C2F626F6479CC
:1009C0003E3C2F6E6F6672616D65733E3C2F6672A2
:1009D000616D657365743E3C2F48544D4C3E0D0A65
:1009E0000D0A00686561646C696E652E68746D6CD3
:1009F000003C48544D4C3E3C424F4459207465786D
:100A0000743D222330303030433022207374796CAF
:100A1000653D226261636B67726F756E642D696DEF
:100A20006167653A75726C286C6F63687374726580
:100A30006966656E2D68672E706E6729223E3C736D
:100A400070616E207374796C653D22666F6E743AC6
:100A500020626F6C6420343070782027436F757289
:100A6000696572204E6577272C274C756369646130
:100A700020436F6E736F6C65272C6D6F6E6F737094
:100A80006163653B20223E3C623E692D54656C6586
:100A900078202D20546F4950202D20657468657290
:100AA0006E657420696E746572666163653C2F6261
:100AB0003E3C2F7370616E3E3C2F424F44593E3C8A
:100AC0002F48544D4C3E0D0A0D0A006C6F6368733D
:100AD0007472656966656E2D68672E706E67008931
:100AE000504E470D0A1A0A0000000D4948445200B2
:100AF0000002250000003F0403000000CD91A50C7A
:100B000000000030504C5445FFFF66C0C0C0FF00DD
:100B100000000000000000000000000000000000D5
:100B200000000000000000000000000000000000C5
:100B30000000000000000000C3145A130000000968
:100B40007048597300000B1300000B1301009A9CAE
:100B5000180000027F4944415478DAED5B5B72C3B0
:100B6000200CB47302ABF73F6CE33CA8C9EAB12494
:100B7000D30969573F558C84F10E428BA0CB227963
:100B80009093201026C2E4594CD6EDFCD796837280
:100B9000914EB934A1B036AD2978C5E23E093A5C30
:100BA000466D82612498AC66DB62663FCAB58FA34E
:100BB000726972DE43DAB4A6E015D8E1ED57FDC1E3
:100BC0008CCDEDCD07E3DC6B3A4CB6E36718F1A9A9
:100BD000C64D9373CFCDB8F03AEDD6B61B6D4DB977
:100BE000BBFD28E67642DBB426FF15D86133263EEE
:100BF000D5C869F2300C613288896247987C20261A
:100C000053E41D09CFD990DB18C98890CE55EE0565
:100C10001B4C781DE385542DA7A061ECB4A91E4C94
:100C2000EC384030AC2AF760AA770A36D15E183229
:100C30007EECDCBD26C5A42DB690AF9D2785172E72
:100C4000ADC11A7BF78AF809E6F1351E0CF29380E4
:100C5000E70C4C138EC3305E484B0ABA254C3C4C13
:100C6000143B183BC2E443307973DE9188C70A9382
:100C70002731D9A368DD034CCA55F1D6D8F72A9796
:100C800005707DA7224C3C4C1432183B4EADE09FC2
:100C90002BCA3BCAC5AFD7D9FA529511352BCBBD5C
:100CA000B009CB74D861500034D72629A6255E47F9
:100CB0009B74BFD36F7CB0DA5CEC89D00B9B9CED4E
:100CC0005267DC27856E0BD3EF6EBA0C126C6A127A
:100CD000AFA3CD7C98F49BD67606815BDD6E17DCE6
:100CE0009E249BDFC4ABB3496B4A5D5926384A4BFF
:100CF000EA4EE8854DC5215D52EC42F7EAB02FF18E
:100D0000EA6C848987896207634798CC8FC90C791C
:100D100047F20A67634E4219D265041B2C0E3793C3
:100D20009359FA8437247803B1C354A41363BF588A
:100D3000EDC4971F29556D9971C73AB6DBF37C98BE
:100D4000042B6A7106D1DB24F758708D051B9E9F1A
:100D500030A77E0CC1A8384C721C397C3D2C6150E8
:100D6000099911261E268A1D8C1D61323F2633E407
:100D70001D09C5D982625AC2EB98FF53580836380C
:100D800024C317DB98F104B1136C6A92F862EE8BFE
:100D900006900CDCD4F142A6681ABA96F007301916
:100DA000BE88527965FCC42F1C251C86B9931F8F01
:100DB000DE9E9E268397B898F10813C50E1F3BC28E
:100DC000447987C93B1261224C848930F93D4C4CEF
:100DD000F2205FDF827D01B9877BC8E3000000005D
:100DE00049454E44AE4260826D61696E6D656E75B7
:100DF0002E68746D6C003C48544D4C3E3C48454157
:100E0000443E3C6C696E6B2072656C3D2273747954
:100E10006C6573686565742220747970653D227411
:100E20006578742F6373732220687265663D227340
:100E300074796C652E637373223E3C2F48454144A0
:100E40003E3C424F4459206267636F6C6F723D2293
:100E500023433046464330223E3C6120687265663B
:100E60003D22696E666F2E68746D6C22207461720B
:100E70006765743D226D61696E223E496E666F3C06
:100E80002F613E202F203C6120687265663D2269FB
:100E900074656C65782D6D656E752D64652E68744E
:100EA0006D6C223E692D54656C657820284465750B
:100EB00074736368293C2F613E202F203C612068B9
:100EC0007265663D226974656C65782D6D656E7519
:100ED0002D656E2E68746D6C223E692D54656C65AF
:100EE000782028456E676C697368293C2F613E2025
:100EF0002F203C6120687265663D226974656C65CF
:100F0000782D637265646974732E63676922207437
:100F100061726765743D226D61696E223E496D7034
:100F200072657373756D202F2063726564697473C5
:100F30003C2F613E3C2F424F44593E3C2F48544D7C
:100F40004C3E0D0A0D0A006E6574776F726B2D644E
:100F5000652E68746D6C003C48544D4C3E3C4845D1
:100F600041443E3C6C696E6B2072656C3D2273742B
:100F7000796C6573686565742220747970653D22AB
:100F8000746578742F6373732220687265663D22DE
:100F90007374796C652E637373223E3C2F48454110
:100FA000443E3C424F4459206267636F6C6F723D10
:100FB0002223433046464330223E3C61206872651E
:100FC000663D226974656C65786366672D6D656E34
:100FD000752D64652E68746D6C223E7A7572267567
:100FE000756D6C3B636B3C2F613E202F203C612074
:100FF000687265663D226E6574776F726B2E6367EB
:10100000693F7370723D6465222074617267657414
:101010003D226D61696E223E496E666F733C2F61A1
:101020003E202F203C6120687265663D226E65740B
:10103000776F726B2E6367693F7370723D646526CC
:10104000636F6E66696722207461726765743D2202
:101050006D61696E223E4B6F6E6669677572617471
:10106000696F6E3C2F613E3C2F424F44593E3C2FEE
:1010700048544D4C3E0D0A0D0A006E6574776F7230
:101080006B2D656E2E68746D6C003C48544D4C3E63
:101090003C484541443E3C6C696E6B2072656C3D3A
:1010A000227374796C657368656574222074797035
:1010B000653D22746578742F6373732220687265AE
:1010C000663D227374796C652E637373223E3C2FE8
:1010D000484541443E3C424F4459206267636F6C2F
:1010E0006F723D2223433046464330223E3C61200E
:1010F000687265663D226974656C65786366672D04
:101100006D656E752D656E2E68746D6C223E626124
:10111000636B3C2F613E202F203C61206872656626
:101120003D226E6574776F726B2E6367693F7370D3
:10113000723D656E22207461726765743D226D6137
:10114000696E223E496E666F733C2F613E202F20F0
:101150003C6120687265663D226E6574776F726BC4
:101160002E6367693F7370723D656E26636F6E66AE
:10117000696722207461726765743D226D61696ED2
:10118000223E436F6E66696775726174696F6E3C6B
:101190002F613E3C2F424F44593E3C2F48544D4C0A
:1011A0003E0D0A0D0A0073797374656D2D64652E0A
:1011B00068746D6C003C48544D4C3E3C484541447D
:1011C0003E3C6C696E6B2072656C3D227374796C69
:1011D0006573686565742220747970653D22746555
:1011E00078742F6373732220687265663D2273746E
:1011F000796C652E637373223E3C2F484541443E13
:101200003C424F4459206267636F6C6F723D2223EA
:10121000433046464330223E3C6120687265663D5D
:10122000226974656C65786366672D6D656E752DD2
:1012300064652E68746D6C223E7A75722675756DC4
:101240006C3B636B3C2F613E202F203C6120687219
:1012500065663D2272657365742E6367693F7370BE
:10126000723D646522207461726765743D226D6110
:10127000696E223E52657365743C2F613E202F20BB
:101280003C6120687265663D226E74702E636769EA
:101290003F7370723D646522207461726765743DAE
:1012A000226D61696E223E4E54503C2F613E202FCC
:1012B000203C6120687265663D2264796E646E73BD
:1012C0002E6367693F7370723D646522207461729A
:1012D0006765743D226D61696E223E44796E444EAD
:1012E000533C2F613E202F203C6120687265663D93
:1012F0002265656D656D2E6367693F7370723D642D
:101300006522207461726765743D226D61696E2289
:101310003E45456D656D3C2F613E202F203C612090
:10132000687265663D2263726F6E2E6367693F73F4
:1013300070723D646522207461726765743D226D30
:1013400061696E223E63726F6E3C2F613E3C2F429C
:101350004F44593E3C2F48544D4C3E0D0A0D0A0057
:1013600073797374656D2D656E2E68746D6C003CB9
:1013700048544D4C3E3C484541443E3C6C696E6B84
:101380002072656C3D227374796C65736865657451
:101390002220747970653D22746578742F637373AD
:1013A0002220687265663D227374796C652E6373C2
:1013B00073223E3C2F484541443E3C424F44592015
:1013C0006267636F6C6F723D222343304646433041
:1013D000223E3C6120687265663D226974656C65D9
:1013E000786366672D6D656E752D656E2E68746DFC
:1013F0006C223E6261636B3C2F613E202F203C617A
:1014000020687265663D2272657365742E63676934
:101410003F7370723D656E22207461726765743D22
:10142000226D61696E223E52657365743C2F613E88
:10143000202F203C6120687265663D226E74702EFC
:101440006367693F7370723D656E222074617267D5
:1014500065743D226D61696E223E4E54503C2F6191
:101460003E202F203C6120687265663D2264796EC3
:10147000646E732E6367693F7370723D656E2220E0
:101480007461726765743D226D61696E223E4479B4
:101490006E444E533C2F613E202F203C61206872E9
:1014A00065663D2265656D656D2E6367693F737086
:1014B000723D656E22207461726765743D226D61B4
:1014C000696E223E45456D656D3C2F613E202F20A3
:1014D0003C6120687265663D2263726F6E2E6367A1
:1014E000693F7370723D656E222074617267657426
:1014F0003D226D61696E223E63726F6E3C2F613ECC
:101500003C2F424F44593E3C2F48544D4C3E0D0A0F
:101510000D0A00696E666F2E68746D6C003C48544D
:101520004D4C3E3C424F44593E3C7072653E3C70CF
:101530003E202057656C636F6D6520746F0D0A5FE8
:101540005F5F5F5F5F5F5F5F5F5F5F5F5F5F5F5FAB
:101550005F5F5F5F5F5F5F5F5F5F5F5F5F5F5F5F9B
:101560005F5F5F5F5F5F5F5F5F5F5F5F5F0D0A2071
:10157000202020202020202020202020202020206B
:10158000202020202020202020202020202020205B
:10159000202020202020202020202020200D0A2074
:1015A000204F4F4F2020202020204F4F4F4F4F20C3
:1015B000204F4F4F4F4F20204F2020202020204FE2
:1015C0004F4F4F4F20204F2020204F20200D0A202A
:1015D00020204F2020202020202020204F202020AD
:1015E000204F2020202020204F2020202020204F6E
:1015F000202020202020204F204F2020200D0A20B6
:101600002E2E2E2E2E2E2E2E2E2E2E2E2E2E2E2EFA
:101610002E2E2E2E2E2E2E2E2E2E2E2E2E2E2E2EEA
:101620002E2E2E2E2E2E2E2E2E2E2E2E2E0D0A202D
:1016300020204F2020204F4F4F2020204F202020BF
:10164000204F4F4F202020204F2020202020204FAF
:101650004F4F2020202020204F202020200D0A2026
:1016600020204F2020202020202020204F2020201C
:10167000204F2020202020204F2020202020204FDD
:10168000202020202020204F204F2020200D0A2025
:10169000204F4F4F20202020202020204F2020208E
:1016A000204F4F4F4F4F20204F4F4F4F4F20204F35
:1016B0004F4F4F4F20204F2020204F20200D0A5FFA
:1016C0005F5F5F5F5F5F5F5F5F5F5F5F5F5F5F5F2A
:1016D0005F5F5F5F5F5F5F5F5F5F5F5F5F5F5F5F1A
:1016E0005F5F5F5F5F5F5F5F5F5F5F5F5F0D0A42CE
:1016F00075696C64203830312049544132203530CE
:1017000020426175642020617420446174653A2030
:101710004F637420323920323031382030363A3439
:10172000333A33320D0A4D6F64756C65733A20415C
:101730006E7363686C757373204E616D657365724B
:1017400076657220456D61696C0D0A0D0A627569D6
:101750006C64206F6E204156522D6C696263207656
:10176000657273696F6E3A20312E362E372F323004
:101770003039303730322077697468206176722DC5
:1017800067636320342E332E330D0A0D0A28632934
:10179000323030362D32303138202020536F66748D
:1017A000776172653A204672656420536F6E6E658C
:1017B0006E7265696E0D0A6261736564206F6E20DA
:1017C0004F70656E4D4350206279204469726B20E2
:1017D00042726F73737769636B0D0A3C2F70726589
:1017E0003E3C2F703E3C62723E3C703E4F75722014
:1017F000686F6D65706167653A203C61206872654D
:10180000663D22687474703A2F2F7777772E692D92
:1018100074656C65782E6E65742F22207461726712
:1018200065743D22626C616E6B223E7777772E691C
:101830002D74656C65782E6E65743C2F613E3C702E
:101840003E546869732070726F6A656374206F6EAE
:10185000203C6120687265663D22687474703A2F7E
:101860002F736F75726365666F7267652E6E657430
:101870002F70726F6A656374732F6974656C657815
:101880002F22207461726765743D225F626C616E05
:101890006B223E536F75726365466F7267652E6E7D
:1018A00065743C2F613E3C2F424F44593E3C2F48CB
:1018B000544D4C3E0D0A007374796C652E6373733E
:1018C000004063686172736574202249534F2D385C
:1018D0003835392D31220D0A202020613A6C696E8D
:1018E0006B207B20746578742D6465636F726174FE
:1018F000696F6E3A6E6F6E653B20666F6E742D7702
:1019000065696768743A626F6C643B20636F6C6FE3
:10191000723A233030303041303B207D200D0A2098
:101920002020613A76697369746564207B20746550
:1019300078742D6465636F726174696F6E3A6E6F4F
:101940006E653B20666F6E742D7765696768743AC3
:10195000626F6C643B20636F6C6F723A234130306E
:101960003041303B207D200D0A202020613A686FF5
:10197000766572207B20746578742D6465636F7260
:101980006174696F6E3A6E6F6E653B20666F6E7440
:101990002D7765696768743A626F6C643B20626199
:1019A000636B67726F756E642D636F6C6F723A2331
:1019B0004646434343433B207D200D0A20202061BF
:1019C0003A616374697665207B20746578742D6450
:1019D00065636F726174696F6E3A6E6F6E653B20FE
:1019E000666F6E742D7765696768743A626F6C64B0
:1019F0003B206261636B67726F756E642D636F6C01
:101A00006F723A234646464643433B207D200D0AEB
:101A1000202020613A666F637573207B207465789F
:101A2000742D6465636F726174696F6E3A6E6F6E68
:101A3000653B20666F6E742D7765696768743A62DE
:101A40006F6C643B206261636B67726F756E642DAF
:101A5000636F6C6F723A234343434346463B207D9A
:101A6000200D0A202020707265207B206F76657221
:101A7000666C6F773A207363726F6C6C3B207D0DE0
:101A80000A006974656C65782D6D656E752D6465E9
:101A90002E68746D6C003C48544D4C3E3C484541AA
:101AA000443E3C6C696E6B2072656C3D22737479A8
:101AB0006C6573686565742220747970653D227465
:101AC0006578742F6373732220687265663D227394
:101AD00074796C652E637373223E3C2F48454144F4
:101AE0003E3C424F4459206267636F6C6F723D22E7
:101AF00023433046464330223E3C6120687265668F
:101B00003D226D61696E6D656E752E68746D6C2217
:101B10003E7A75722675756D6C3B636B3C2F613E2A
:101B2000202F203C6120687265663D226974656CD7
:101B300065782D6D73672D64652E68746D6C222039
:101B40007461726765743D226D61696E223E4E61FB
:101B5000636872696368742073656E64656E3C2F98
:101B6000613E202F203C6120687265663D226974C9
:101B7000656C65782D746C6E7665727A2E63676914
:101B80003F7370723D646522207461726765743DB5
:101B9000226D61696E223E5465696C6E65686D6583
:101BA000722D5665727A656963686E69733C2F6140
:101BB0003E202F203C6120687265663D2269746575
:101BC0006C65786366672D6D656E752D64652E682E
:101BD000746D6C223E692D54656C65782D45696E77
:101BE0007374656C6C756E67656E3C2F613E202F5B
:101BF000203C6120687265663D226974656C657879
:101C00002D64656275672E6367692220746172674F
:101C100065743D226D61696E223E44656275672D73
:101C2000496E666F733C2F613E202F203C61206817
:101C30007265663D226974656C65782D7477697488
:101C40006C6E6C697374652E6367693F7370723D67
:101C5000646522207461726765743D226D61696EEE
:101C6000223E4275732D546C6E2D4C697374653C25
:101C70002F613E202F203C6120687265663D2273F3
:101C8000646469722E636769222074617267657487
:101C90003D226D61696E223E53442D4B6172746525
:101CA0003C2F613E3C2F424F44593E3C2F48544DFF
:101CB0004C3E0D0A0D0A006974656C65782D6D65E2
:101CC0006E752D656E2E68746D6C003C48544D4CDD
:101CD0003E3C484541443E3C6C696E6B2072656CED
:101CE0003D227374796C657368656574222074791C
:101CF00070653D22746578742F6373732220687257
:101D000065663D227374796C652E637373223E3C65
:101D10002F484541443E3C424F4459206267636F1F
:101D20006C6F723D2223433046464330223E3C6175
:101D300020687265663D226D61696E6D656E752EF7
:101D400068746D6C223E6261636B3C2F613E202F94
:101D5000203C6120687265663D226974656C657817
:101D60002D6D73672D656E2E68746D6C2220746105
:101D7000726765743D226D61696E223E53656E64C3
:101D8000206D6573736167653C2F613E202F203C99
:101D90006120687265663D226974656C65782D7492
:101DA0006C6E7665727A2E6367693F7370723D65FB
:101DB0006E22207461726765743D226D61696E22C6
:101DC0003E537562736372696265722064697265FD
:101DD00063746F72793C2F613E202F203C61206834
:101DE0007265663D226974656C65786366672D6D02
:101DF000656E752D656E2E68746D6C223E692D546E
:101E0000656C65782073657474696E67733C2F61C7
:101E10003E202F203C6120687265663D2269746512
:101E20006C65782D64656275672E6367692220741E
:101E300061726765743D226D61696E223E64656200
:101E4000756720696E666F3C2F613E202F203C61D4
:101E500020687265663D226974656C65782D7477BB
:101E600069746C6E6C697374652E6367693F737017
:101E7000723D656E22207461726765743D226D61EA
:101E8000696E223E6C697374206F66206D6F647595
:101E90006C65733C2F613E202F203C612068726589
:101EA000663D2273646469722E63676922207461DF
:101EB000726765743D226D61696E223E53442063F2
:101EC0006172643C2F613E3C2F424F44593E3C2F8F
:101ED00048544D4C3E0D0A0D0A006974656C6578D6
:101EE0006366672D6D656E752D64652E68746D6C07
:101EF000003C48544D4C3E3C484541443E3C6C6996
:101F00006E6B2072656C3D227374796C65736865C5
:101F100065742220747970653D22746578742F632E
:101F200073732220687265663D227374796C652E26
:101F3000637373223E3C2F484541443E3C424F442C
:101F400059206267636F6C6F723D222343304646AF
:101F50004330223E3C6120687265663D22697465AB
:101F60006C65782D6D656E752D64652E68746D6C6D
:101F7000223E7A75722675756D6C3B636B3C2F61E2
:101F80003E202F203C6120687265663D22697465A1
:101F90006C65786366672D696E7465726E2E636713
:101FA000693F7370723D6465222074617267657465
:101FB0003D226D61696E223E45696E7374656C6C7D
:101FC000756E67656E20696D206C6F6B616C656EF8
:101FD0002053797374656D3C2F613E202F203C6146
:101FE00020687265663D226974656C657863666712
:101FF0002D65787465726E2E6367693F7370723DEC
:10200000646522207461726765743D226D61696E3A
:10201000223E45696E7374656C6C756E67656E20E3
:10202000696D20692D54656C65782D4E65747A3C18
:102030002F613E202F203C6120687265663D226939
:1020400074656C65782D637265646974732E63675B
:10205000693F7370723D64652220746172676574B4
:102060003D226D61696E223E496D707265737375B4
:102070006D3C2F613E202F203C6120687265663DDB
:10208000226974656C65786366672D656D61696C3E
:102090002E6367693F7370723D64652220746172BC
:1020A0006765743D226D61696E223E654D61696CA4
:1020B0002D45696E7374656C6C756E67656E3C2F2B
:1020C000613E202F203C6120687265663D226E656E
:1020D00074776F726B2D64652E68746D6C223E4E42
:1020E00065747A7765726B3C2F613E202F203C61CE
:1020F00020687265663D2273797374656D2D646521
:102100002E68746D6C223E53797374656D3C2F613B
:102110003E202F203C6120687265663D226974650F
:102120006C65786366672D7370657272656E2E6379
:1021300067693F7370723D646522207461726765E0
:10214000743D226D61696E223E5370657272656ED8
:102150003C2F613E3C2F424F44593E3C2F48544D4A
:102160004C3E0D0A0D0A006974656C6578636667FC
:102170002D6D656E752D656E2E68746D6C003C4816
:10218000544D4C3E3C484541443E3C6C696E6B208E
:1021900072656C3D227374796C6573686565742231
:1021A00020747970653D22746578742F637373228F
:1021B00020687265663D227374796C652E63737353
:1021C000223E3C2F484541443E3C424F4459206208
:1021D00067636F6C6F723D22234330464643302263
:1021E0003E3C6120687265663D226974656C657865
:1021F0002D6D656E752D656E2E68746D6C223E6258
:1022000061636B3C2F613E202F203C61206872652A
:10221000663D226974656C65786366672D696E74C6
:1022200065726E2E6367693F7370723D656E222022
:102230007461726765743D226D61696E223E6C6FD8
:1022400063616C2073657474696E67733C2F613EC3
:10225000202F203C6120687265663D226974656CA0
:1022600065786366672D65787465726E2E6367693D
:102270003F7370723D656E22207461726765743DB4
:10228000226D61696E223E692D54656C6578206E01
:102290006574776F726B2073657474696E67733CD5
:1022A0002F613E202F203C6120687265663D2269C7
:1022B00074656C65782D637265646974732E6367E9
:1022C000693F7370723D656E222074617267657438
:1022D0003D226D61696E223E637265646974733C70
:1022E0002F613E202F203C6120687265663D226987
:1022F00074656C65786366672D656D61696C2E63C6
:1023000067693F7370723D656E2220746172676504
:10231000743D226D61696E223E654D61696C20736A
:10232000657474696E67733C2F613E202F203C6199
:1023300020687265663D226E6574776F726B2D65DD
:102340006E2E68746D6C223E4E6574776F726B3CB6
:102350002F613E202F203C6120687265663D22730C
:10236000797374656D2D656E2E68746D6C223E53A5
:10237000797374656D3C2F613E202F203C6120688D
:102380007265663D226974656C65786366672D7356
:1023900070657272656E2E6367693F7370723D651A
:1023A0006E22207461726765743D226D61696E22D0
:1023B0003E6C6F636B3C2F613E3C2F424F44593E55
:1023C0003C2F48544D4C3E0D0A0D0A006974656C53
:1023D00065782D6D73672D64652E68746D6C003C97
:1023E00048544D4C3E3C484541443E3C2F484541B5
:1023F000443E3C6672616D6573657420726F7773DD
:102400003D222A2C363022207363726F6C6C696E09
:10241000673D226E6F22206672616D65626F726425
:1024200065723D22322220626F726465723D2232F3
:1024300022206672616D6573706163696E673D220B
:10244000322220626F72646572636F6C6F723D221C
:1024500023303030303030223E3C6672616D652072
:102460007372633D226974656C65782D6D73672D99
:102470006F75742E6367693F7370723D64652220C7
:102480006E616D653D224D73674F757422207363D5
:10249000726F6C6C696E673D226175746F223E3C91
:1024A0006672616D65207372633D226974656C6547
:1024B000782D6D73672D696E2E6367693F73707237
:1024C0003D646522206E616D653D224D7367496EE6
:1024D00022207363726F6C6C696E673D226E6F228F
:1024E0003E3C6E6F6672616D65733E3C626F6479EF
:1024F0003E3C703E4968722042726F77736572206D
:10250000756E7465727374C3BC747A74206B65697C
:102510006E65204672616D6573213C2F703E3C2FC5
:10252000626F64793E3C2F6E6F6672616D65733EBB
:102530003C2F6672616D657365743E3C2F48544D47
:102540004C3E0D0A0D0A006974656C65782D6D733B
:10255000672D656E2E68746D6C003C48544D4C3E82
:102560003C484541443E3C2F484541443E3C667210
:10257000616D6573657420726F77733D222A2C3606
:102580003022207363726F6C6C696E673D226E6FD0
:1025900022206672616D65626F726465723D2232DF
:1025A0002220626F726465723D223222206672615F
:1025B0006D6573706163696E673D22322220626FC0
:1025C00072646572636F6C6F723D222330303030FD
:1025D0003030223E3C6672616D65207372633D222D
:1025E0006974656C65782D6D73672D6F75742E63D6
:1025F00067693F7370723D656E22206E616D653D47
:10260000224D73674F757422207363726F6C6C690F
:102610006E673D226175746F223E3C6672616D6526
:10262000207372633D226974656C65782D6D7367E4
:102630002D696E2E6367693F7370723D656E22204F
:102640006E616D653D224D7367496E222073637222
:102650006F6C6C696E673D226E6F223E3C6E6F66DA
:1026600072616D65733E3C626F64793E3C703E49B9
:1026700068722042726F7773657220756E7465722E
:102680007374C3BC747A74206B65696E652046727E
:10269000616D6573213C2F703E3C2F626F64793E03
:1026A0003C2F6E6F6672616D65733E3C2F66726182
:1026B0006D657365743E3C2F48544D4C3E0D0A0DBC
:1026C0000A00726F626F74732E7478740023207224
:1026D0006F626F74732E747874207A756D20692D13
:1026E00074656C6578205765622D496E74657266F5
:1026F0006163650D0A557365722D6167656E743A85
:10270000202A0D0A446973616C6C6F773A202F0D93
:102710000A002820256C6420427974652075656262
:10272000657274726167656E20285344290D0A0032
:102730004854545020736F636B657420636C6F73DF
:10274000656420627920636C69656E740D0A0048C7
:102750005454502F312E312032303020446F637565
:102760006D656E7420666F6C6C6F77730D0A436FC6
:102770006E74656E742D4C656E6774683A20256CB6
:10278000640D0A436F6E74656E742D547970653AEA
:1027900020257325730D0A43616368652D436F6EB1
:1027A00074726F6C3A206D61782D6167653D3336C8
:1027B00030300D0A436F6E6E656374696F6E3A2038
:1027C000636C6F73650D0A0D0A00746578742F00D1
:1027D00068746D0068746D6C002820256C6420425C
:1027E00079746520756562657274726167656E20C3
:1027F00028464C415348290D0A000D0A436F6E7458
:10280000656E742D4C656E6774683A2025640D0AF8
:1028100043616368652D436F6E74726F6C3A206D0F
:1028200061782D6167653D333630300D0A436F6E38
:102830006E656374696F6E3A20636C6F73650D0A21
:102840000D0A0062696E00746578742F68746D6C8F
:10285000006A70656700706E6700485454502F31ED
:102860002E312032303020446F63756D656E7420D8
:10287000666F6C6C6F77730D0A436F6E74656E7460
:102880002D547970653A20000D0A002066726F6D34
:102890002000687474702D726571756573743A20C8
:1028A00000687474702D7365727665723A202573B2
:1028B00020003E200051756974696E670D0A007131
:1028C00075697400556E642C206C6F7320676568A1
:1028D0007427732E2E2E21212120282268656C70EA
:1028E000222068696C6674203A2D29290D0A3E2041
:1028F0000074656C6E65740054656C6E65742D5360
:10290000657276657220506F72742025642E0D0AF0
:102910000043524F4E5F454E5452595F253032644A
:102920000025643A206E696368742062656C65678F
:10293000740D0A0025643A2025642025642025733F
:102940000D0A0063726F6E00666F6F2E6367690019
:102950002573202F202573202F2025640D0A004980
:10296000502F4D41432F54544C0D0A00617270009A
:102970003C2F424F44593E3C2F48544D4C3E0D0A8B
:102980000D0A003C48544D4C3E3C484541443E3CB9
:102990006D65746120687474702D65717569763D1C
:1029A00022726566726573682220636F6E74656E4D
:1029B000743D223630303B20223E3C5449544C4535
:1029C0003E53747265616D696E673C2F5449544C77
:1029D000453E3C2F484541443E3C424F44592062CD
:1029E00067636F6C6F723D2223323238423232227B
:1029F00020746578743D2223464646464646223E6C
:102A00005A6569743A20253032643A253032643A86
:102A1000253032642E2530326420282025752F255C
:102A2000752F2530347520290050485354415432B5
:102A3000207C203078253034580D0A0050485354FB
:102A4000415431207C203078253034580D0A005212
:102A500065762E494420207C202020307825303295
:102A6000580D0A002D2D2D2D2D2D2D2D2B2D2D2DDD
:102A70002D2D2D2D2D0D0A005265672E2020202092
:102A80007C20576572740D0A00454E4332384A3631
:102A9000303A0D0A005443502D5458204572726F3D
:102AA00072733A202564205443502D5258204572A9
:102AB000726F72733A2025642028756E736F72747A
:102AC00065642025642C206F6C6473657120256417
:102AD000290D0A0D0A0045746865726E65743A2006
:102AE000256C6420427974657320696E20256C64BE
:102AF000205061636B6574656E204C6F636B45722B
:102B0000726F727320256C640D0A007374617473A4
:102B10002E63676900737461747300526573657422
:102B20000072657365740072657365740072657315
:102B30006574003C666F726D20616374696F6E3DF1
:102B40002272657365742E63676922206D657468EF
:102B50006F643D2267657422206163636570742D24
:102B6000636861727365743D2249534F2D3838355F
:102B7000392D31223E3C703E3C696E707574207474
:102B80007970653D227375626D697422206E616D86
:102B9000653D227265736574222076616C75653DB2
:102BA000227265736574223E3C2F703E3C2F666F27
:102BB000726D3E0072657365742E6367690072659D
:102BC00073657400646E73203C686F73746E616D1E
:102BD000653E0D0A004950207A75202573203D205E
:102BE00025730D0A00646E73004448435000495039
:102BF000004D41534B004741544500444E53004D56
:102C000041430053657474696E6773207361766520
:102C1000642C207265626F6F74206E6563657373D8
:102C200061727920746F2074616B652065666665DA
:102C30006374210D0A003C74723E3C746420616C24
:102C400069676E3D227269676874223E48617264EA
:102C5000776172652D4D41433C2F74643E3C746432
:102C60003E3C696E707574206E616D653D224D410C
:102C7000432220747970653D227465787422207334
:102C8000697A653D223137222076616C75653D2277
:102C9000257322206D61786C656E6774683D223102
:102CA00037223E3C2F74643E3C2F74723E3C74725B
:102CB0003E3C74643E3C2F74643E3C74643E3C690C
:102CC0006E70757420747970653D227375626D69DC
:102CD00074222076616C75653D22205361766520F3
:102CE0006368616E67657320223E3C2F74643E3CCE
:102CF0002F74723E3C2F7461626C653E3C2F666F90
:102D0000726D3E004D4143003C74723E3C74642041
:102D1000616C69676E3D227269676874223E444E39
:102D2000532D5365727665723C2F74643E3C746417
:102D30003E3C696E707574206E616D653D22444E37
:102D4000532220747970653D227465787422207353
:102D5000697A653D223135222076616C75653D22A8
:102D6000257322206D61786C656E6774683D223131
:102D700035223E3C2F74643E3C2F74723E00444E1C
:102D800053003C74723E3C746420616C69676E3D14
:102D9000227269676874223E476174657761793C85
:102DA0002F74643E3C74643E3C696E707574206E92
:102DB000616D653D22474154452220747970653D1F
:102DC0002274657874222073697A653D2231352238
:102DD0002076616C75653D22257322206D61786CCB
:102DE000656E6774683D223135223E3C2F74643E27
:102DF0003C2F74723E0047415445003C74723E3C87
:102E0000746420616C69676E3D2272696768742220
:102E10003E4E65746D61736B3C2F74643E3C74640C
:102E20003E3C696E707574206E616D653D224D414A
:102E3000534B2220747970653D227465787422208A
:102E400073697A653D223135222076616C75653D66
:102E500022257322206D61786C656E6774683D224F
:102E60003135223E3C2F74643E3C2F74723E004D3F
:102E700041534B003C74723E3C746420616C696742
:102E80006E3D227269676874223E49502061646415
:102E9000726573733C2F74643E3C74643E3C696E8F
:102EA000707574206E616D653D22495022207479E1
:102EB00070653D2274657874222073697A653D22BD
:102EC0003135222076616C75653D22257322206D97
:102ED00061786C656E6774683D223135223E3C2F07
:102EE00074643E3C2F74723E004950003E3C2F7487
:102EF000643E3C2F74723E00636865636B656400DA
:102F00006F6E003C74723E3C746420616C69676E45
:102F10003D227269676874223E44484350206163D1
:102F2000746976653C2F74643E3C74643E3C696E03
:102F300070757420747970653D22636865636B6297
:102F40006F7822206E616D653D22444843502220F7
:102F500076616C75653D226F6E22200044484350B7
:102F6000003C666F726D20616374696F6E3D226E06
:102F70006574776F726B2E636769223E3C74616281
:102F80006C6520626F726465723D22302220636539
:102F90006C6C70616464696E673D223522206365E4
:102FA0006C6C73706163696E673D2230223E006312
:102FB0006F6E666967003C2F7072653E0D0A007384
:102FC00074617473006966636F6E666967003C7054
:102FD00072653E0D0A000D0A48572D4164723A2071
:102FE000253032783A253032783A253032783A2511
:102FF0003032783A253032783A253032780D0A0D61
:103000000A00444E533A25730D0A004761746577F0
:1030100061793A25730D0A004E65746D61736B3AE0
:1030200025730D0A0049503A25730D0A006E657428
:10303000776F726B2E636769006966636F6E66698E
:1030400067004E5450004E5450534552564552005E
:103050005554435A4F4E450045696E7374656C6C08
:10306000756E67656E2075656265726E6F6D6D65F4
:103070006E210D0A003C74723E3C746420616C69E0
:10308000676E3D227269676874223E534E54502D1C
:103090005365727665723C2F74643E3C74643E3CAA
:1030A000696E707574206E616D653D224E5450538B
:1030B00045525645522220747970653D22746578D8
:1030C00074222073697A653D223235222076616C44
:1030D00075653D22257322206D61786C656E67747D
:1030E000683D223235223E3C2F74643E3C2F747280
:1030F0003E3C74723E3C746420616C69676E3D2294
:103100007269676874223E5A6569747A6F6E653CAD
:103110002F74643E3C74643E3C696E707574206E1E
:10312000616D653D225554435A4F4E4522207479B6
:1031300070653D2274657874222073697A653D223A
:1031400033222076616C75653D22257322206D61E6
:10315000786C656E6774683D2233223E3C2F746440
:103160003E3C2F74723E3C74723E3C74643E3C2F75
:1031700074643E3C74643E3C696E7075742074796E
:1031800070653D227375626D6974222076616C757D
:10319000653D222045696E7374656C6C756E6720A1
:1031A0002655756D6C3B6265726E65686D656E2047
:1031B000223E3C2F74643E3C2F74723E3C2F74615F
:1031C000626C653E3C2F666F726D3E003000746924
:1031D0006D652E66752D6265726C696E2E64650074
:1031E0003E3C2F74643E3C2F74723E0063686563FE
:1031F0006B6564006F6E003C666F726D2061637476
:10320000696F6E3D226E74702E636769223E0D3CBD
:103210007461626C6520626F726465723D22302257
:103220002063656C6C70616464696E673D22352251
:103230002063656C6C73706163696E673D22302238
:103240003E3C74723E3C746420616C69676E3D2242
:103250007269676874223E534E545020616B7469E2
:1032600076696572656E3C2F74643E3C74643E3CC6
:10327000696E70757420747970653D22636865634A
:103280006B626F7822206E616D653D224E54502234
:103290002076616C75653D226F6E2220006E747021
:1032A000203C6E74707365727665723E0D0A00463E
:1032B00065686C65720D0A004E657565205A656912
:1032C000743A20253032643A253032643A2530325F
:1032D000640D0A00486F6C65205A65697420766F2A
:1032E0006E2025730D0A004665686C65720D0A0034
:1032F0006E7470002644594E444E535F55534552E8
:1033000050570044594E444E535F444F4D41494E2F
:103310000045696E7374656C6C756E67656E2075BB
:10332000656265726E6F6D6D656E210D0A002D31DF
:10333000202D3135202264796E646E73207570649F
:10334000617465220044594E444E535F4F4E002D28
:1033500031202D3135202264796E646E73207570B2
:1033600064617465220044594E444E530044594EE2
:10337000444E535F4F4E0044594E444E5300444F09
:103380004D41494E0044594E444E535F444F4D41C8
:10339000494E00444F4D41494E004143434F554E25
:1033A00054002644594E444E535F5553455250578E
:1033B000004143434F554E54004143434F554E54F3
:1033C000003C666F726D20616374696F6E3D2264AC
:1033D000796E646E732E636769223E0D203C7461C2
:1033E000626C6520626F726465723D2230222063D8
:1033F000656C6C70616464696E673D223522206380
:10340000656C6C73706163696E673D2230223E208B
:10341000203C74723E0D2020203C746420616C6955
:10342000676E3D227269676874223E44796E444E2D
:103430005320616B746976696572656E3C2F7464A4
:103440003E2020203C74643E3C696E70757420748C
:103450007970653D22636865636B626F7822206EC8
:10346000616D653D2244594E444E53222076616C75
:1034700075653D226F6E22202573203E20203C2F53
:1034800074643E0D20203C74723E0D2020203C745C
:103490006420616C69676E3D227269676874223EC0
:1034A00064796E444E53204163636F756E742028B7
:1034B00020757365723A707720293C2F74643E2022
:1034C00020203C74643E3C696E707574206E616DA2
:1034D000653D224143434F554E5422207479706517
:1034E0003D2274657874222073697A653D223331F8
:1034F000222076616C75653D2222206D61786C65B5
:103500006E6774683D223331223E3C2F74643E2046
:10351000203C2F74723E0D20203C74723E0D202002
:10352000203C746420616C69676E3D227269676833
:1035300074223E44796E444E5320446F6D61696E2F
:103540003C2F74643E2020203C74643E3C696E70C5
:103550007574206E616D653D22444F4D41494E2288
:1035600020747970653D2274657874222073697ABD
:10357000653D223331222076616C75653D222573CD
:1035800022206D61786C656E6774683D223531224A
:103590003E3C2F74643E20203C2F74723E0D202050
:1035A0003C74723E0D2020203C74643E3C2F7464B9
:1035B0003E3C74643E3C696E70757420747970652D
:1035C0003D227375626D6974222076616C75653D6C
:1035D000222045696E7374656C6C756E6720265584
:1035E000756D6C3B6265726E65686D656E20223E1E
:1035F0003C2F74643E20203C2F74723E0D203C2FE3
:103600007461626C653E0D3C2F666F726D3E0063A7
:103610006865636B6564006F6E0044594E444E5399
:103620005F4F4E0044594E444E535F444F4D414905
:103630004E0044594E444E535F444F4D41494E0055
:1036400064796E646E73203C7570646174653E20AD
:103650002F203C7365746163636F756E742075739E
:1036600065723A70774064796E646E732D646F6D25
:1036700061696E3E0D0A004163636F756E7464612B
:1036800074656E2067657370656963686572742E12
:103690000D0A007365746163636F756E7400557015
:1036A000646174652066756572202573206665689F
:1036B0006C67657363686C6167656E0D0A005570B1
:1036C0006461746520667565722025732065726675
:1036D0006F6C6772656963682E0D0A0075706461AE
:1036E00074650064796E646E732E63676900647933
:1036F0006E646E730064656C0064656C0045696E91
:103700007374656C6C756E67656E20756562657245
:103710006E6F6D6D656E210D0A00434D440025648A
:103720002025642022257322004D4D004848004387
:103730004D44003C666F726D20616374696F6E3D2D
:103740002263726F6E2E636769223E3C7461626C05
:103750006520626F726465723D2230222063656C61
:103760006C70616464696E673D2235222063656C0C
:103770006C73706163696E673D2230223E3C7472E7
:103780003E3C746420616C69676E3D2272696768B3
:1037900074223E5374756E64653C2F74643E3C74B1
:1037A000643E3C696E707574206E616D653D2248A3
:1037B000482220747970653D2274657874222073E4
:1037C000697A653D2233222076616C75653D223031
:1037D000226D61786C656E6774683D2233223E3CD1
:1037E0002F74643E3C2F74723E3C74723E3C746491
:1037F00020616C69676E3D227269676874223E4D74
:10380000696E7574653C2F74643E3C74643E3C691B
:103810006E707574206E616D653D224D4D22207471
:103820007970653D2274657874222073697A653DEC
:103830002233222076616C75653D223022206D6135
:10384000786C656E6774683D2233223E3C2F746449
:103850003E3C2F74723E3C74723E3C746420616C3A
:1038600069676E3D227269676874223E436F6D6DB1
:10387000616E643C2F74643E3C74643E3C696E70BF
:103880007574206E616D653D22434D44222074792C
:1038900070653D2274657874222073697A653D22D3
:1038A000333022206D61786C656E6774683D223319
:1038B00030223E3C2F74643E3C2F74723E3C747246
:1038C0003E3C74643E3C2F74643E3C74643E3C69F0
:1038D0006E70757420747970653D227375626D69C0
:1038E00074222076616C75653D222045696E747284
:1038F0006167207369636865726E20223E3C2F7495
:10390000643E3C2F74723E3C2F7461626C653E3C99
:103910002F666F726D3E0D006164646E6577003CCA
:1039200074723E3C746420616C69676E3D226C6504
:103930006674223E3C6120687265663D2263726F48
:103940006E2E6367693F6164646E657722207374CD
:10395000796C653D22746578742D6465636F72615E
:1039600074696F6E3A6E6F6E6522207469746C654F
:103970003D22416464223E3C696E70757420747906
:1039800070653D22627574746F6E222076616C756D
:10399000653D22616464206E65772063726F6E22DC
:1039A00020636C6173733D22616374696F6E42744E
:1039B0006E223E3C2F613E3C2F74643E3C2F74725D
:1039C0003E3C2F7461626C653E0D003C74723E3C5F
:1039D000746420616C69676E3D226C656674223E7A
:1039E00025733C2F74643E3C746420616C69676E7F
:1039F0003D226C656674223E3C6120687265663DBE
:103A00002263726F6E2E6367693F64656C3D256447
:103A100022207374796C653D22746578742D646519
:103A2000636F726174696F6E3A6E6F6E6522207497
:103A300069746C653D2244656C223E3C696E70750C
:103A40007420747970653D22627574746F6E2220E3
:103A500076616C75653D2264656C2220636C6173D0
:103A6000733D22616374696F6E42746E223E3C2F17
:103A7000613E3C2F74643E3C2F74723E003C746186
:103A8000626C6520626F726465723D223022206331
:103A9000656C6C70616464696E673D2235222063D9
:103AA000656C6C73706163696E673D2230223E0005
:103AB00063726F6E2E636769003C2F7072653E0003
:103AC0003C7072653E0065656D656D203C70726F7F
:103AD000746563743E7C3C756E70726F746563745C
:103AE0003E203C616464205B6E616D652076616C94
:103AF0005D3E203C64656C205B6E616D655D3E20C3
:103B00003C7072696E743E203C636C65616E3E0D64
:103B10000A00636C65616E007072696E74006465A2
:103B20006C0061646400756E70726F7465637465B7
:103B3000740D0A0057524954455F50524F54454343
:103B400054004F464600756E70726F746563740062
:103B500057524954455F50524F54454354004F4EBD
:103B60000070726F746563740065656D656D2E63BA
:103B700067690065656D656D0038303100E4F6FCFD
:103B8000C4D6DCDF5B5D3C3E7B7D405F2322006171
:103B90006F75414F5573283A282E282D28202B2742
:103BA00000656565656565733A292E292D292920EB
:103BB0002B27005A45494C45005445585400535052
:103BC0005241434845004346475041535300544CEB
:103BD0004E425543484F4646454E0050524F544C76
:103BE0004556454C0050524F544C4556454C544C4C
:103BF0004E535256004C414E474449454E53544D46
:103C0000454C4400534F434B45544C4F47004841AB
:103C10005550545354454C4C4500454947454E4535
:103C20004E554D4D4552004645535445485053540A
:103C3000004D454C445255434B00414C5445524E67
:103C40004245494245530044555243485741484C28
:103C5000544142004155544F444154554D005A453A
:103C6000494C454E4C41454E4745005A45495452F2
:103C7000554E4453454E44004E45545A5255464EB7
:103C8000520050494E0044594E4950414B544956F8
:103C9000004E45545A504F52540053454C425354D1
:103CA000414E5045520052454D53455256414B549A
:103CB0004956005255464E525345525631005255C0
:103CC000464E525345525632005255464E52534577
:103CD0005256330053594E4350494E002E2E2E5407
:103CE00065696C6E65686D65722D53657276657277
:103CF000206F6B0D0A002E2E2E546C6E4275636879
:103D0000206F6B0D0A002E2E2E456D61696C206FA1
:103D10006B0D0A006954656C6578006954656C65C3
:103D20007820506F72742025752E0D0A002E2E2ECD
:103D3000436769206F6B0D0A006E74702E636769AC
:103D40000073646469722E636769006D656D6475E4
:103D50006D702E686578006974656C65782D637286
:103D600065646974732E636769006974656C65784E
:103D70002D64656275672E636769006974656C659B
:103D8000786366672D7370657272656E2E636769FE
:103D9000006974656C65786366672D657874657213
:103DA0006E2E636769006974656C65786366672D5C
:103DB000696E7465726E2E636769006974656C65FF
:103DC000782D747769746C6E6C697374652E636793
:103DD00069006974656C65782D6D73672D6F7574F6
:103DE0002E636769006974656C65782D6D73672D46
:103DF000696E2E636769006974656C65785F696ECA
:103E00006974323A0D0A002E2E2E54696D65722D9A
:103E100043616C6C6261636B2D46756E6B74696F88
:103E20006E206F6B0D0A002E2E2E436F6E66696733
:103E3000206F6B0D0A002E2E2E53656E6465507533
:103E4000666665722C20456D706650756666657293
:103E5000206F6B0D0A006974656C65785F696E6927
:103E600074313A0D0A005852414D57414954004EA1
:103E700065757374617274203830312052657365D2
:103E8000742D466C61677320253032580D0A00444A
:103E90004843500063757200253032580D0A0025E2
:103EA000303258003A2530325825303458253032D7
:103EB00058004572726F722072656164696E672086
:103EC0006469726563746F727921003C6120687265
:103ED0006566203D2225732F2573223E25733C2FD6
:103EE000613E20256C64203C736D616C6C3E3C61CE
:103EF0002068726566203D2273646469722E636770
:103F0000693F6469723D25732664656C3D25732F96
:103F10002573223E64656C6574653C2F613E3C2FC1
:103F2000736D616C6C3E3C62723E003C6120687255
:103F30006566203D222573223E25733C2F613E207D
:103F4000256C64203C736D616C6C3E3C6120687232
:103F50006566203D2273646469722E6367693F64FD
:103F6000656C3D2573223E64656C6574653C2F610C
:103F70003E3C2F736D616C6C3E3C62723E003C6156
:103F80002068726566203D2273646469722E6367DF
:103F9000693F6469723D25732F2573223E25733C6A
:103FA0002F613E204449523C62723E003C612068D1
:103FB000726566203D2273646469722E6367693F8F
:103FC0006469723D2573223E25733C2F613E204477
:103FD00049523C62723E003C2F623E2028256C759F
:103FE0002066726565293C62723E003C623E436F0A
:103FF0006E74656E74206F662025733A0064697272
:10400000003C623E436F6E74656E74206F66202FB5
:104010003A006469720046696C65202573204E4F32
:104020005420666F756E643C703E0046696C652076
:104030002573204E4F542064656C657465643C7034
:104040003E0046696C652025732064656C65746567
:10405000643C703E0064656C0064656C003C2F61DC
:104060003E003C6120687265663D226974656C653E
:10407000786366672D65787465726E2E6367692252
:104080003E006974656C65786366672D6578746554
:10409000726E2E636769003C62723E003A2025739F
:1040A000003C62723E003A202573003A20257300DE
:1040B0003C62723E003A202573003A202573003C92
:1040C00062723E003C2F613E003C61206872656672
:1040D0003D226974656C65786366672D696E7465E9
:1040E000726E2E636769223E006974656C65786341
:1040F00066672D696E7465726E2E636769003C2F6A
:10410000613E3C2F666F726D3E0020223E3C612076
:10411000687265663D226974656C65782D6D73679C
:104120002D6F75742E6367692220746172676574E0
:104130003D224D73674F7574223E003C696E707569
:1041400074206E616D653D2245696E67616265220E
:1041500020747970653D2274657874222073697AC1
:10416000653D223635222076616C75653D22222020
:104170006D61786C656E6774683D223635223E3C11
:10418000696E70757420747970653D227375626D07
:104190006974222076616C75653D22003C666F7201
:1041A0006D20616374696F6E3D226974656C65781A
:1041B0002D6D73672D696E2E636769223E0048542A
:1041C0004D4C2D436861742D4162627275636820A5
:1041D0002D2D3E20417573736368616C74756E6735
:1041E00020696E7465726E0D0A00260048544D4CAD
:1041F0002D43686174206265676F6E6E656E20285E
:10420000416E7761686C20257529202D3E20000DB8
:104210000A0048544D4C2D436861742045696E670F
:104220006162653A20000D0A0045696E676162654A
:104230000044757263687761686C20696E20546110
:1042400062656C6C6520676566756E64656E2025B9
:10425000750D0A0044757263687761686C2061753A
:104260007320546162656C6C6520756D676573655C
:10427000747A742025750D0A00447572636877613D
:10428000686C2D416E66726167652025750D0A00A8
:104290006954656C657828253575293A200044698C
:1042A00072656B74647275636B204162727566200F
:1042B000447275636B7370696567656C202862650D
:1042C0006C656774290D0A00446972656B746472C9
:1042D00075636B20416272756620447275636B73FF
:1042E00070696567656C2028617573290D0A002067
:1042F000282575290D0A00446972656B746472750E
:10430000636B20416272756620447275636B7370D3
:10431000696567656C3A003C62723E3C7072653E4E
:104320002573266C743B266C743B266C743B25739A
:1043300025733C2F7072653E003C48544D4C3E3C0A
:10434000484541443E3C6D65746120687474702D2D
:1043500065717569763D2265787069726573222092
:10436000636F6E74656E743D2231223E3C6D6574E0
:104370006120687474702D65717569763D22707264
:1043800061676D612220636F6E74656E743D226E8D
:104390006F2D6361636865223E3C6D6574612068C2
:1043A0007474702D65717569763D227265667265EB
:1043B00073682220636F6E74656E743D2231303BEA
:1043C0002055524C3D6974656C65782D6D73672D71
:1043D0006F75742E636769223E3C2F484541443E09
:1043E0003C424F44593E006974656C65782D637298
:1043F00065646974732E63676900696E76616C69C0
:1044000064206C696E65206E722E2025643C627299
:104410003E005B25645D202D2D3E2025733A20252E
:104420006400494D50524553535F0025733C6272FE
:104430003E002532643A20003C62723E3C612068B6
:104440007265663D226974656C65782D6465627578
:10445000672E6367693F7265736574223E537461AA
:1044600074697374696B2D446174656E207A75721A
:104470002675756D6C3B636B7365747A656E3C2F46
:10448000613E3C62723E45746865726E65743A20A6
:10449000256C6420427974657320696E20256C64F4
:1044A0002050616B6574656E204C6F636B45727252
:1044B0006F727320256C640020256C75003C62725D
:1044C0003E20564343205B6D565D203D003C6272AA
:1044D0003E53797374656D53746172745A6569746F
:1044E000203D20253032752E253032752E25303472
:1044F0007520253032643A253032643A25303264F2
:104500002C205265736574466C6167203D20253010
:104510003258003C62723E584D435241203D2025A6
:10452000303258003C62723E44656275675F4C6F82
:10453000776573745350203D2025303258003C621B
:10454000723E4E545055706461746544696666539A
:1045500065636F6E6473203D202564003C62723E8B
:104560005A656974536572766572416266726167F5
:104570006554696D6572456E6465203D2025750042
:104580003C62723E4C616E6754696D657256616C37
:1045900028265A656974536572766572416266723F
:1045A00061676554696D657229203D202575003C61
:1045B00062723E4E65747A456967656E6549502042
:1045C0003D2025303258003C62723E4E65747A5070
:1045D0006F7274203D202575003C62723E5443503A
:1045E0005F736F636B65745B25645D3A20636C6F0A
:1045F000736564003C62723E5443505F736F636B3B
:1046000065745B25645D3A20436F6E6E6563746903
:104610006F6E53746174653D25752C2053656E640F
:1046200053746174653D25752C20536F75726365F5
:10463000506F72743D25752C2044657374696E61EA
:1046400074696F6E506F72743D25752C20536F75B1
:1046500072636549503D256C582C2054696D656F17
:104660007574636F756E7465723D2564003C62728B
:104670003E54696D65723043616C6C6261636B5F5F
:104680004D6178203D202575003C62723E54696D75
:10469000657230436E745F4D6178203D2025750052
:1046A0003C62723E54696D657230436E745F4D6951
:1046B0006E203D202575003C62723E54696D657226
:1046C0003043616C6C6261636B436F756E74203D47
:1046D000202575003C62723E4954656C65785468CB
:1046E00072656164436F756E74203D202575003CD2
:1046F00062723E547769497372436F756E74203DE0
:10470000202575003C62723E46616C736368657279
:10471000436F6465203D202575003C62723E4B75F9
:10472000727A54696D657256616C28266954656C9D
:104730006578546872656164436865636B54696D3C
:10474000657229203D202575003C62723E4B7572D2
:104750007A54696D657256616C28266954656C657A
:1047600078536F636B65744C6562656E737A6569C7
:104770006368656E54696D657229203D202575005A
:104780003C62723E4275734B6F6C6C6973696F6EFD
:104790005A6165686C6572203D202575003C627227
:1047A0003E5477695761746368646F67436F756ED1
:1047B00074203D202575003C62723E5477694C653B
:1047C00062656E737A65696368656E5A6165686C67
:1047D0006572203D202575003C62723E4B75727AF1
:1047E00054696D657256616C2826427573517569FE
:1047F000747454696D657229203D202575003C62F2
:10480000723E4C616E6754696D657256616C282604
:104810004265696465527568696754696D65722996
:10482000203D202575003C62723E5465696C6E65C2
:10483000686D65725365727665724665686C6572FF
:104840005A6165686C657228257329203D202564AE
:104850002C205370657272652D54696D6572202528
:1048600064003C62723E416B74546C6E53657276A8
:10487000657254616249203D202575003C62723E9C
:104880005465696C6E65686D6572536572766572A4
:10489000416C6C654E6963687445727265696368E2
:1048A000626172203D202575003C62723E5465694C
:1048B0006C6E65686D6572536572766572536F6371
:1048C0006B6574203D202564003C62723E5465692E
:1048D0006C6E65686D65722D5365727665722069C0
:1048E0006E616B746976003C62723E53656C6273F4
:1048F00074416E7275665A65697455656265727742
:10490000616368756E673A20003C62723E53656C65
:10491000627374416E727566456D7066616E675044
:104920007275656677657274203D202575003C625E
:10493000723E53656C627374416E72756653656E38
:104940006465507275656677657274203D202575C3
:10495000003C62723E53656C627374416E727566A0
:10496000536F636B657448616E646C65203D2025F0
:1049700064003C62723E53656C627374416E727582
:1049800066456E647A656974203D202575003C6239
:10499000723E4B75727A54696D657256616C282649
:1049A00053656C627374416E72756654696D65729D
:1049B00029203D202575003C62723E53656C627370
:1049C00074416E7275664665686C65725A61656899
:1049D0006C6572203D202575003C62723E53656C0B
:1049E000627374416E7275665068617365203D2014
:1049F0002575003C62723E44796E4950416B747576
:104A0000616C6973696572756E67456E647A656914
:104A100074203D202575003C62723E4C616E6754E7
:104A2000696D657256616C282644796E4950416BF8
:104A30007475616C6973696572756E6754696D65CB
:104A40007229203D202575003C62723E44796E49F2
:104A5000505F5068617365203D202575003C62728F
:104A60003E536F636B6574416E7A61686C5A656919
:104A70006368656E456D7066616E67656E203D208A
:104A80002575003C62723E536F636B6574416E7AAC
:104A900061686C5A65696368656E5175697474699B
:104AA000657274203D202575003C62723E536F6331
:104AB0006B6574416E7A61686C5A65696368656E8E
:104AC000476573656E646574203D202575003C6202
:104AD000723E50726F746F6B6F6C6C50686173656F
:104AE000203D202575003C62723E536F636B6574F8
:104AF0004F757442756655736564203D20257500B9
:104B00003C62723E536F636B6574496E42756655C5
:104B1000736564203D202575003C62723E4B7572C2
:104B20007A54696D657256616C28266954656C65A6
:104B300078536F636B657441626272756368546920
:104B40006D657229203D202575003C62723E6954D6
:104B5000656C6578536F636B65744162626175471C
:104B600065706C616E74203D202575003C62723E5C
:104B70006954656C6578536F636B657450726F74BC
:104B800056657273696F6E203D202575003C627218
:104B90003E6954656C6578536F636B657450726FD2
:104BA000746F6B6F6C6C203D202575003C62723E0B
:104BB0006954656C6578536F636B6574506F72747C
:104BC000203D202575003C62723E6954656C657815
:104BD000536F636B65744950203D20253032580077
:104BE0003C62723E6954656C6578536F636B6574A3
:104BF00048616E646C65203D202564003C62723E15
:104C00006954656C6578536F636B65744D6F64654B
:104C1000203D202575003C62723E537461747573AB
:104C2000203D2025303258003C62723E4D6F647545
:104C300073203D202575003C62723E446961676EB9
:104C40006F73655075666665724C6576656C203D60
:104C500020257500446961676E6F736550756666DF
:104C600065723A202573004C65747A746572204130
:104C70006E7275663A20253032752E253032752ECB
:104C80002530347520253032643A253032643A2597
:104C90003032643C62723E007761746368646F67AF
:104CA0007465737400726573657400656E00646585
:104CB000000D0A003A006367692D417566727566DA
:104CC00020766F6E200073707200006B656E6E77D9
:104CD0000021536F636B6574207A756D205465698C
:104CE0006C6E65686D65722D5365727665722067AE
:104CF000657363686C6F7373656E2C2044796E49BD
:104D0000505F506861736520776172206E6F6368D1
:104D10002027616B746976272E0D0A00536F636B31
:104D20006574207A756D205465696C6E65686D6573
:104D3000722D536572766572207775726465207680
:104D40006F6E20476567656E7374656C6C65206770
:104D5000657363686C6F7373656E0D0A002120754F
:104D60006E65727761727465746520416E74776FD9
:104D7000727420646573205465696C6E65686D6536
:104D8000722D536572766572730D0A000D0A00214B
:104D9000204665686C65726D656C64756E6720642D
:104DA0006573205465696C6E65686D65722D536519
:104DB00072766572733A2000546C6E536572766534
:104DC00072206D656C646574204C697374656E65E2
:104DD0006E64650D0A000D0A0044796E616D697399
:104DE0006368652049502D416B7475616C69736906
:104DF0006572756E673A206E6575652049502000B2
:104E000044796E616D69736368652049502D416B0B
:104E10007475616C6973696572756E673A20626555
:104E200073746568656E64652049502067696C74A9
:104E3000207765697465720D0A00212044617465EC
:104E40006E7361747A20766F6D205465696C6E653F
:104E5000686D65722D536572766572206D69742078
:104E60004E7220256C64206B6F6E6E7465206E69C7
:104E70006368742067657370656963686572742020
:104E800077657264656E0D0A002120696D206C6F74
:104E90006B616C656E2054656C65666F6E627563E0
:104EA0006820616C732027507269766174272067CF
:104EB000656B656E6E7A656963686E65740D0A0070
:104EC00021205465696C6E65686D65722D5365723D
:104ED000766572206D656C64657420414E44455260
:104EE00045204E756D6D657220616C7320616E6733
:104EF0006566726167740D0A000D0A005465696C7D
:104F00006E65686D65722D536572766572206D658C
:104F10006C6465742045696E7472616720676566AC
:104F2000756E64656E3A20005465696C6E65686DD7
:104F300065722D536572766572206D656C6465745B
:104F400020276E6963687420676566756E64656E98
:104F5000270D0A000D0A00256429005465696C6E4E
:104F600065686D65722D53657276657220456D704A
:104F700066616E673A202825642F00202D3E20763A
:104F80006572776F7266656E2C20536F636B657404
:104F90002067657363686C6F7373656E0D0A00211B
:104FA000205465696C6E65686D65722D5365727607
:104FB000657220456D7066616E67205545424552A9
:104FC0004C415546207A75207669656C65204461B0
:104FD00074656E20282564206279746529002A2072
:104FE00053656C6273742D416E7275662D536F63D9
:104FF0006B65742064757263682054696D656F75A4
:10500000742067657363686C6F7373656E210D0A36
:1050100000212053656C6273742D416E7275662099
:105020004B45494E204563686F20656D7066616E23
:1050300067656E2E0D0A00212053656C6273742D16
:10504000416E727566204142474542524F43484582
:105050004E20776567656E204D6F6475732D5765BB
:10506000636873656C2E0D0A00212053656C6273B2
:10507000742D416E7275662046414C53434845205D
:10508000446174656E20656D7066616E67656E2E35
:105090000D0A0053656C6273742D416E7275662043
:1050A0006265737461657469677420495020416456
:1050B00072657373652E0D0A002A2053656C627346
:1050C000742D416E727566206572666F6C677265CD
:1050D00069636820616267657363686C6F73736589
:1050E0006E2E0D0A00212053656C6273742D416E83
:1050F00072756620446174656E2D53656E64756EBD
:105100006720564552534147542E0D0A0053656C93
:105110006273742D416E72756620446174656E20F1
:10512000756562657220536F636B65742023256417
:1051300020676573656E6465742E0D0A0021205327
:10514000656C6273742D416E727566206F6566665C
:105150006E656E2064657320536F636B65742056B3
:105160004552534147542E0D0A0053656C627374C7
:10517000616B7475616C6973696572756E67004700
:1051800072756E647374656C6C756E67206572728F
:1051900065696368742028536F636B657420676565
:1051A0007363686C6F7373656E2C20545749206766
:1051B000657363686C6F7373656E290D0A005265C1
:1051C000737465206765647275636B74202D2D3E62
:1051D00020417573736368616C74756E6720696EC6
:1051E0007465726E0D0A0048544D4C2D436861740D
:1051F0002D52756865202D2D3E20417573736368AF
:10520000616C74756E6720696E7465726E0D0A004C
:105210000D0A004D656C64756E6773647275636B1F
:10522000202D3E20000D0A00446961676E6F736592
:10523000647275636B3A20000D0A0A0A003A200076
:105240002A205461737465206765647275636B749A
:10525000202D2D3E2052657374652D447275636B4D
:10526000206162676562726F6368656E0D0A007225
:1052700079727972797279727972797279727972D6
:1052800079727972797279727972797279727972C6
:1052900079727972797279727972797279727972B6
:1052A000790D0A003A20253032752E253032752EC0
:1052B0002530347520253032753A253032753A253F
:1052C0003032750D0A000D0A002A204162626175B4
:1052D00020776567656E203130204D696E75746585
:1052E0006E2046756E6B7374696C6C652E0D0A00CA
:1052F00064657200212054696D656F757420626564
:10530000696D2057617274656E20617566206469ED
:10531000652045696E736368616C74717569747436
:10532000756E670D0A002A2054696D656F757420CB
:105330006265696D2057617274656E2061756620C3
:10534000646965205363686C7573737175697474EF
:10535000756E670D0A002A2031352053656B756E16
:1053600064656E206E69636874206765776165683F
:105370006C742C20416262727563680D0A000D0A1C
:105380000028256429200025396C64202D202573F0
:10539000202D20004E616D656E7375636865000D8C
:1053A0000A003E0D0A00537461727465204E616DEF
:1053B000656E737375636865206D6974203C006F5A
:1053C0006363002120416E7761686C20696E7465AB
:1053D000726E20616E202575205645525341475408
:1053E0000D0A0076657262756E64656E206D697473
:1053F0002025750D0A00416E7761686C20696E7416
:1054000065726E2025752000416E67657275666550
:105410006E657220686174206765616E74776F7263
:10542000746574202D3E2045696E736368616C74E9
:10543000756E6720696E7465726E0D0A00212049D1
:105440004C4C4547414C45532050726F746F6B6F05
:105450006C6C0D0A0021205457492D54696D656FFD
:105460007574202D3E204162736368616C74756EA3
:10547000670D0A0054574920417573736368616C66
:1054800074756E6720696E7465726E0D0A00212056
:105490005363686C7573737175697474756E672086
:1054A0006F686E6520417566666F72646572756EB1
:1054B000670D0A0054574920417573736368616C26
:1054C00074756E67207175697474696572740D0AFC
:1054D000005465696C6E65686D657220256C752079
:1054E000696D20656967656E656E2054656C6566DB
:1054F0006F6E6275636820676566756E64656E2E93
:105500000D0A004E616D656E737375636865206783
:105510006573746172746574202D3E2045696E73E5
:105520006368616C742D5175697474756E67206160
:105530006E205457490D0A00545749205761686C32
:105540007A696666657220257520696E7465726E6B
:10555000202F20676568656E640D0A005457492046
:105560005761686C617566666F72646572756E67A7
:1055700020696E7465726E202F206B6F6D6D656E85
:10558000640D0A005457492045696E736368616C65
:10559000747175697474756E6720667565722065BF
:1055A0002D4D61696C2D447275636B0D0A00545763
:1055B000492045696E736368616C747175697474B0
:1055C000756E672066756572204D656C64756E67D3
:1055D00073647275636B0D0A005457492045696EF8
:1055E000736368616C747175697474756E67206E2D
:1055F00061636820426567696E6E2048544D4C2D8A
:10560000436861740D0A005457492045696E7363FD
:1056100068616C747175697474756E6720696E74F5
:1056200065726E202F206B6F6D6D656E640D0A00C4
:105630005457492045696E736368616C746B6F6D74
:105640006D616E646F20696E7465726E202F2067C5
:105650006568656E640D0A0054574920526573658C
:105660007276696572756E6720696E7465726E20F8
:105670002F20676568656E6420766F6E2025750D36
:105680000A00253032752E253032752E25303475BE
:105690002020253032643A253032640D0A002A2059
:1056A0006954656C65782D426C696E64736F636BC9
:1056B00065742073656C6273742067657472656EBF
:1056C0006E740D0A002A206954656C65782D426C51
:1056D000696E64736F636B6574207775726465209F
:1056E000766F6E20476567656E7374656C6C6520B8
:1056F00067657472656E6E740D0A0021205A454903
:1057000054554542455253434852454954554E47D6
:1057100020626569205769656465726175666E61AE
:10572000686D65206465722056657262696E647585
:105730006E670D0A0021204D6568726661636865B9
:10574000204645484C4552206265696D2053656E80
:1057500064656E20696E73204E65747A2C20536FD9
:10576000636B6574207769726420766F7275656209
:105770006572676568656E642067657363686C6FE2
:105780007373656E0D0A0021204D65687266616352
:105790006865204645484C4552206265696D205336
:1057A000656E64656E20696E73204E65747A206143
:1057B0006265722056657262696E64756E677361A8
:1057C00062626175206765706C616E740D0A002FEE
:1057D000253032580D0A002053756D416E7A202510
:1057E00075002C205265737420257500202D2D3EE8
:1057F0002052657320256400536F636B65742053DA
:10580000656E64756E673A202825752900576965AD
:105810006465722D4F6566666E756E67206465738C
:1058200020536F636B657420232564206572666F57
:105830006C6772656963682E0D0A002120576965DF
:105840006465722D4F6566666E756E67206465735C
:1058500020536F636B657420564552534147542E55
:105860000D0A00202D2D3E2042756655736564207B
:1058700025750D0A0025642900536F636B6574203C
:10588000456D7066616E673A202825642F006C694B
:105890006D697469657274206175662025640D0AEE
:1058A000002A20536F636B657420456D7066616ECE
:1058B000672064726F68656E646572205565626505
:1058C000726C6175663A20456D7066616E67207610
:1058D0006F6E2025642000536F636B6574207769B9
:1058E000726420616B7469762067657363686C6F9E
:1058F0007373656E0D0A00536F636B657420777563
:1059000072646520766F6E20476567656E73746597
:105910006C6C65206572776172746574206765735D
:1059200063686C6F7373656E0D0A002120536F639B
:105930006B657420777572646520766F6E2047659D
:1059400067656E7374656C6C652047455452454EAF
:105950004E540D0A00536F636B6574207775726443
:105960006520766F6E20476567656E7374656C6C35
:10597000652065727761727465742067657363680A
:105980006C6F7373656E0D0A002120536F636B6536
:105990007420777572646520766F6E204765676541
:1059A0006E7374656C6C6520554E45525741525468
:1059B00045542067657363686C6F7373656E0D0A79
:1059C000002A20536F636B6574496E4275662067C9
:1059D000656C6F65736368742C206461206E7572EA
:1059E000206E6F636820617566204772756E647300
:1059F00074656C6C756E6720676577617274657429
:105A000020776972640D0A0004036F636300040366
:105A1000616273002021202E2E2E4162776569730A
:105A2000756E6720617566206265726569747320A2
:105A3000626573746568656E64656D20426C696E3D
:105A4000642D536F636B65742E0D0A00202A202E7F
:105A50002E2E4142474557494553454E2C206175EE
:105A60006620426C696E642D536F636B65742067AA
:105A7000656C6567740D0A002C2056657262696E4C
:105A800064756E672062657374656874002C2061AC
:105A90006E64657265206B6F6D6D656E6465205612
:105AA000657262696E64756E67206265737465689D
:105AB000742100202E2E2E576965646572766572FA
:105AC00062696E64756E67206F6B0D0A002C206131
:105AD0006E6465727765697469672062656C656775
