:100000000C94823E0C947E3F0C94A93F0C94D43FF8
:100010000C94FF3F0C942A400C9455400C94804063
:100020000C94AB400C94F43E0C94F43E0C94F43ECF
:100030000C94F43E0C94F43E0C94F43E0C94F43E78
:100040000C94F43E0C9467440C94F43E0C94F43EEF
:100050000C94F43E0C941F4C0C94F43E0C94F43E1F
:100060000C94F43E0C94B4450C9473450C94584590
:100070000C94F43E0C94F43E0C94F43E0C94F43E38
:100080000C94F43E0C94F43E0C94F43E0C94F43E28
:100090000C94B8460C942C460C94EF450C94E3FC5D
:1000A0000C94F43E0C94F43E0C94F43E0C94F43E08
:1000B0000C94F43E0C94F43E0C94F43E0C94F43EF8
:1000C0000C94F43E0C94F43E0C94F43E0C0D0E0F84
:1000D000253032783A253032783A253032783A2550
:1000E0003032783A253032783A253032780025643B
:1000F0002E25642E25642E25640044484350206D2F
:10010000736720747970652035332076616C75656E
:100110002025750D0A0044484350206D73672074F4
:100120007970652035332076616C75652025750DF5
:100130000A004950004D41534B00444E5300474183
:10014000544500444843502D436F6E6669672067ED
:1001500065686F6C740D0A00444843502D436F6E00
:10016000666967204665686C67657363686C61677C
:10017000656E0D0A00207C2D3E20566572737563F6
:10018000686520444843502D436F6E666967207A46
:100190007520686F6C656E2E2000206665686C6740
:1001A000657363686C6167656E0D0A00206665683B
:1001B0006C67657363686C6167656E0D0A00205A31
:1001C0006569743A20253032643A253032643A2524
:1001D0003032642E253032640D0A004E545053459F
:1001E00052564552005554435A4F4E4500207C2DDF
:1001F0003E204E54502D536572766572205A6569C3
:100200007420616B7475616C6973696572656E3AAF
:10021000006F6E004E545000207C202020444E532E
:10022000202020203A2025730D0A00207C20202049
:10023000476174657761793A2025730D0A00207C47
:100240002020204E65746D61736B3A2025730D0A72
:1002500000207C202020495020202020203A2025EA
:10026000730D0A006F6E00444843500044484350E9
:1002700000207C2D3E20544350202848757272691E
:1002800063616E2D656E67696E652920696E69749C
:1002900069616C6973696572740D0A00207C2D3E7A
:1002A000205544502028546F726E61646F2D656E26
:1002B00067696E652920696E697469616C69736923
:1002C0006572740D0A002D2B2D3E2041525020697D
:1002D0006E697469616C6973696572740D0A0020D6
:1002E0004C696E6B2072656164790D0A0020467559
:1002F0006C6C6475706C65783A00454E4332386AB0
:10030000363020285265762E3A2025642920696EE1
:10031000697469616C697369657274202820485733
:100320002D4164643A20253032783A253032783ACB
:10033000253032783A253032783A253032783A25ED
:100340003032782029004D4143004D4143004D4358
:1003500050636F6E666967000D0A000A002563002E
:10036000436F6E6669672069737420256420627923
:100370007465732067726F73732C20256420627913
:1003800074652077657264656E2062656E75747A37
:10039000742E204F66667365742025640D0A0D0A5D
:1003A000004F46460057524954455F50524F5445FE
:1003B00043540020496E697469616C6973696572A0
:1003C000740D0A00204572726F720D0A0054485273
:1003D000454144005348454C4C0046696C6573796F
:1003E0007374656D004D4D432F5344004558544977
:1003F0004E5400436F6E666967004C45445F636FFF
:10040000726500434C4F434B005354444F555400C6
:10041000554152540054656C657850686F6E654E56
:1004200065742E2E2E0D0A003EFFFFFF3F34353639
:100430003738393A3B3C3DFFFFFFFFFFFFFF00012C
:1004400002030405060708090A0B0C0D0E0F101114
:100450001213141516171819FFFFFFFFFFFF1A1BC1
:100460001C1D1E1F202122232425262728292A2B54
:100470002C2D2E2F303132334142434445464748DC
:10048000494A4B4C4D4E4F50515253545556575864
:10049000595A6162636465666768696A6B6C6D6E00
:1004A0006F707172737475767778797A3031323310
:1004B0003435363738392B2F002F6E69632F75701E
:1004C000646174653F686F73746E616D653D25731B
:1004D000006D656D626572732E64796E646E732E45
:1004E0006F726700636865636B69702E64796E6410
:1004F0006E732E6F72670047455420002048545495
:10050000502F312E300D0A557365722D4167656E7F
:10051000743A20576765742F312E31312E340D0A0D
:100520004163636570743A202A2F2A0D0A486F735D
:10053000743A20000D0A417574686F72697A6174AB
:10054000696F6E3A2042617369632025730D0A0D4D
:100550000A000D0A0D0A002F00436F6E74656E7459
:100560002D4C656E6774683A2000485454502F3102
:100570002E000D0A00436F6D6D616E64733A0D0AB3
:100580000D0A0068656C7000485454502F312E30AD
:10059000203430330D0A436F6E74656E742D5479B8
:1005A00070653A20746578742F68746D6C0D0A4B11
:1005B0006565702D416C6976653A20636C6F736573
:1005C0000D0A0D0A3C48544D4C3E3C424F44593EA6
:1005D0003430332046696C65206E6F7420666F7509
:1005E0006E64213C2F424F44593E3C2F48544D4CA1
:1005F0003E0D0A0D0A00504F535400474554006801
:100600007474706400485454502D5365727665724A
:1006100020506F72742025642E0D0A00696E646587
:10062000782E68746D6C003C2F424F44593E3C2F2D
:1006300048544D4C3E0D0A0D0A003C48544D4C3E6A
:100640003C484541443E3C6D65746120687474705B
:100650002D65717569763D226578706972657322C2
:1006600020636F6E74656E743D2230223E3C212DF6
:100670002D20456E61626C652049453920537461B7
:100680006E6461726473206D6F6465202D2D3E3C35
:100690006D65746120687474702D65717569763D3F
:1006A00022582D55412D436F6D70617469626C65E0
:1006B0002220636F6E74656E743D2249453D392278
:1006C000203E3C2F484541443E3C424F44593E0069
:1006D000485454502F312E312032303020446F6333
:1006E000756D656E7420666F6C6C6F77730D0A4361
:1006F0006F6E74656E742D547970653A20746578E8
:10070000742F68746D6C0D0A43616368652D436FC7
:100710006E74726F6C3A206E6F2D63616368650D45
:100720000A436F6E6E656374696F6E3A20636C6F17
:1007300073650D0A0D0A00696E6465782E68746D24
:100740006C003C48544D4C3E3C484541443E3C5472
:1007500049544C453E692D54656C65783C2F54498D
:10076000544C453E3C2F484541443E3C6672616DC9
:100770006573657420726F77733D2236342C343084
:100780002C2A2C343022207363726F6C6C696E6774
:100790003D226E6F22206672616D65626F726465C4
:1007A000723D22322220626F726465723D223222D3
:1007B000206672616D6573706163696E673D223298
:1007C0002220626F72646572636F6C6F723D2223C8
:1007D000303030303030223E3C6672616D652073BF
:1007E00072633D22686561646C696E652E68746D24
:1007F0006C22206E616D653D224E61766967617481
:10080000696F6E3122207363726F6C6C696E673D25
:10081000226175746F223E3C6672616D6520737251
:10082000633D226D61696E6D656E752E68746D6CC9
:1008300022206E616D653D224E6176696761746943
:100840006F6E3222207363726F6C6C696E673D222B
:100850006175746F223E3C6672616D6520737263D0
:100860003D22696E666F2E68746D6C22206E616D1C
:10087000653D226D61696E223E3C6672616D652048
:100880007372633D2273746174732E6367692220EF
:100890006E616D653D2275706461746522207363BD
:1008A000726F6C6C696E673D226175746F223E3C9D
:1008B0006E6F6672616D65733E3C626F64793E3C3B
:1008C000703E4968722042726F7773657220756E50
:1008D00074657273742675756D6C3B747A74206BD5
:1008E00065696E65204672616D6573213C2F703EAF
:1008F0003C2F626F64793E3C2F6E6F6672616D654E
:10090000733E3C2F6672616D657365743E3C2F4883
:10091000544D4C3E0D0A0D0A00686561646C696EA9
:10092000652E68746D6C003C48544D4C3E3C424F03
:10093000445920746578743D222330303030433080
:1009400022207374796C653D226261636B67726FFC
:10095000756E642D696D6167653A75726C286C6F90
:100960006368737472656966656E2D68672E706E54
:100970006729223E3C7370616E207374796C653D0B
:1009800022666F6E743A20626F6C64203430707827
:100990002027436F7572696572204E6577272C2773
:1009A0004C756369646120436F6E736F6C65272CAF
:1009B0006D6F6E6F73706163653B20223E3C623EDB
:1009C000692D54656C6578202D20546F4950202D79
:1009D0002074656C6578206F76657220696E746529
:1009E000726E65743C2F623E3C2F7370616E3E3CAC
:1009F0002F424F44593E3C2F48544D4C3E0D0A0D5A
:100A00000A006C6F6368737472656966656E2D6841
:100A1000672E706E670089504E470D0A1A0A000053
:100A2000000D49484452000002250000003F040325
:100A3000000000CD91A50C00000030504C5445FF43
:100A4000FF66C0C0C0FF0000000000000000000002
:100A50000000000000000000000000000000000096
:100A6000000000000000000000000000000000C3C3
:100A7000145A13000000097048597300000B13004A
:100A8000000B1301009A9C180000027F4944415456
:100A900078DAED5B5B72C3200CB47302ABF73F6C8A
:100AA000E33CA8C9EAB124D30969573F558C84F1C6
:100AB0000E428BA0CB22799093201026C2E4594C91
:100AC000D6EDFCD7968372914EB934A1B036AD29DC
:100AD00078C5E23E093A5C466D82612498AC66DBDB
:100AE00062663FCAB58FA3726972DE43DAB4A6E0CC
:100AF00015D8E1ED57FDC18CCDEDCD07E3DC6B3AA8
:100B00004CB6E36718F1A9C64D9373CFCDB8F03A50
:100B1000EDD6B61B6D4DB9BBFD28E67642DBB4269B
:100B2000FF15D86133263ED5C869F2300C61328892
:100B3000896247987C202653E41D09CFD990DB18A1
:100B4000C98890CE55EE051B4C781DE385542DA722
:100B5000A061ECB4A91E4CEC384030AC2AF760AA76
:100B6000770A36D15E18327EECDCBD26C5A42DB6E0
:100B700090AF9D2785172EADC11A7BF78AF809E63D
:100B8000F1351E0CF29380E70C4C138EC3305E4897
:100B90004B0ABA254C3C4C143B183BC2E443307919
:100BA00073DE9188C70A932731D9A368DD034CCA45
:100BB00055F1D6D8F72A9705707DA7224C3C4C14E6
:100BC00032183B4EADE09F2BCA3BCAC5AFD7D9FA0E
:100BD000529511352BCBBDB009CB74D86150003480
:100BE000D72629A6255E479B74BFD36F7CB0DA5CFD
:100BF000EC89D00B9B9CED5267DC27856E0BD3EF05
:100C00006EBA0C126C6A12AFA3CD7C98F49BD676A8
:100C100006815BDD6E17DC9E249BDFC4ABB3496BA2
:100C20004A5D5926384A4BEA4EE8854DC5215D524A
:100C3000EC42F7EAB02FF1EA6C8489878962076396
:100C40004798CC8FC90C7947F20A67634E4219D294
:100C500065041B2C0E37939359FA8437247803B11B
:100C6000C354A41363BF58EDC4971F29556D9971E0
:100C7000C73AB6DBF37C98042B6A7106D1DB24F704
:100C800058708D051B9E9F30A77E0CC1A8384C72F2
:100C90001C397C3D2C6150099911261E268A1D8C19
:100CA0001D61323F2633E41D09C5D982625AC2EB69
:100CB00098FF535808363824C317DB98F104B11352
:100CC0006C6A92F862EE8B06900CDCD4F142A66856
:100CD0001ABA96F0073019BE88527965FCC42F1CE9
:100CE000251C86B9931F8FDE9E9E268397B898F1A8
:100CF0000813C50E1F3BC2447987C93B1261224CC1
:100D0000848930F93D4C4CF2205FDF827D01B98748
:100D10007BC8E30000000049454E44AE4260826D4E
:100D200061696E6D656E752E68746D6C003C48541B
:100D30004D4C3E3C484541443E3C6C696E6B2072D4
:100D4000656C3D227374796C6573686565742220E7
:100D5000747970653D22746578742F6373732220F3
:100D6000687265663D227374796C652E63737322B5
:100D70003E3C2F484541443E3C424F445920626727
:100D8000636F6C6F723D2223433046464330223EF0
:100D90003C6120687265663D22696E666F2E6874DC
:100DA0006D6C227461726765743D226D61696E229B
:100DB0003E496E666F3C2F613E202F203C612068CB
:100DC0007265663D227478702D6D656E752D646553
:100DD0002E68746D6C223E692D54656C65782028F0
:100DE00044657574736368293C2F613E202F203C55
:100DF0006120687265663D227478702D6D656E7530
:100E00002D656E2E68746D6C223E692D54656C657F
:100E1000782028456E676C697368293C2F613E20F5
:100E20002F203C6120687265663D226E6574776F85
:100E3000726B2E68746D6C223E4E65747A776572A3
:100E40006B3C2F613E202F203C6120687265663D1F
:100E50002273797374656D2E68746D6C223E5379BC
:100E60007374656D3C2F613E3C2F424F44593E3CAC
:100E70002F48544D4C3E0D0A0D0A006E6574776F75
:100E8000726B2E68746D6C003C48544D4C3E3C486F
:100E90004541443E3C6C696E6B2072656C3D22732B
:100EA00074796C6573686565742220747970653D2A
:100EB00022746578742F6373732220687265663DAF
:100EC000227374796C652E637373223E3C2F484500
:100ED00041443E3C424F4459206267636F6C6F72DD
:100EE0003D2223433046464330223E3C6120687217
:100EF00065663D226D61696E6D656E752E68746DF7
:100F00006C223E7A75727565636B3C2F613E202FB3
:100F1000203C6120687265663D226E6574776F7251
:100F20006B2E63676922207461726765743D226D60
:100F300061696E223E496E666F733C2F613E202FC1
:100F4000203C6120687265663D226E6574776F7221
:100F50006B2E6367693F636F6E66696722207461F9
:100F6000726765743D226D61696E223E4B6F6E66DD
:100F7000696775726174696F6E3C2F613E3C2F42E8
:100F80004F44593E3C2F48544D4C3E0D0A0D0A002B
:100F900073797374656D2E68746D6C003C48544DA4
:100FA0004C3E3C484541443E3C6C696E6B2072654A
:100FB0006C3D227374796C65736865657422207466
:100FC0007970653D22746578742F6373732220688D
:100FD0007265663D227374796C652E637373223E6D
:100FE0003C2F484541443E3C424F44592062676390
:100FF0006F6C6F723D2223433046464330223E3CA5
:101000006120687265663D226D61696E6D656E7501
:101010002E68746D6C223E7A75727565636B3C2F19
:10102000613E202F203C6120687265663D2272651A
:101030007365742E63676922207461726765743DFD
:10104000226D61696E223E52657365743C2F613E6C
:10105000202F203C6120687265663D226E74702EE0
:1010600063676922207461726765743D226D6169EE
:101070006E223E4E54503C2F613E202F203C61207A
:10108000687265663D2264796E646E732E6367696B
:1010900022207461726765743D226D61696E223E23
:1010A00044796E444E533C2F613E202F203C6120FA
:1010B000687265663D2265656D656D2E63676922A0
:1010C000207461726765743D226D61696E223E45D0
:1010D000456D656D3C2F613E202F203C612068727C
:1010E00065663D2263726F6E2E63676922207461AC
:1010F000726765743D226D61696E223E63726F6E28
:101100003C2F613E3C2F424F44593E3C2F48544DAA
:101110004C3E0D0A0D0A00696E666F2E68746D6C88
:10112000003C48544D4C3E3C424F44593E3C70724A
:10113000653E3C703E202057656C636F6D65207482
:101140006F0D0A5F5F5F5F5F5F5F5F5F5F5F5F5F46
:101150005F5F5F5F5F5F5F5F5F5F5F5F5F5F5F5F9F
:101160005F5F5F5F5F5F5F5F5F5F5F5F5F5F5F5F8F
:101170005F0D0A20204F4F4F2020202020204F4F6E
:101180004F4F4F20204F4F4F4F4F20204F202020B8
:101190002020204F4F4F4F4F20204F2020204F2006
:1011A000200D0A2020204F20202020202020202039
:1011B0004F202020204F2020202020204F202020A2
:1011C0002020204F202020202020204F204F202092
:1011D000200D0A202E2E2E2E2E2E2E2E2E2E2E2E90
:1011E0002E2E2E2E2E2E2E2E2E2E2E2E2E2E2E2E1F
:1011F0002E2E2E2E2E2E2E2E2E2E2E2E2E2E2E2E0F
:101200002E0D0A2020204F2020204F4F4F2020203D
:101210004F202020204F4F4F202020204F202020E3
:101220002020204F4F4F2020202020204F20202002
:10123000200D0A2020204F202020202020202020A8
:101240004F202020204F2020202020204F20202011
:101250002020204F202020202020204F204F202001
:10126000200D0A20204F4F4F20202020202020201A
:101270004F202020204F4F4F4F4F20204F4F4F4F98
:101280004F20204F4F4F4F4F20204F2020204F20E6
:10129000200D0A5F5F5F5F5F5F5F5F5F5F5F5F5F44
:1012A0005F5F5F5F5F5F5F5F5F5F5F5F5F5F5F5F4E
:1012B0005F5F5F5F5F5F5F5F5F5F5F5F5F5F5F5F3E
:1012C0005F0D0A4275696C642033343920617420E3
:1012D000446174653A2041756720323920323031DB
:1012E000332031393A32303A34340D0A4D6F647557
:1012F0006C65733A20692D54656C6578204E616D7C
:101300006573657276657220456D61696C0D0A0DB5
:101310000A6275696C64206F6E204156522D6C69AB
:1013200062632076657273696F6E3A20312E362EB5
:10133000372F3230303930373032207769746820B7
:101340006176722D67636320342E332E330D0A0DC0
:101350000A286329323030362D32303133202020B4
:10136000536F6674776172653A20467265642053E4
:101370006F6E6E656E7265696E0D0A62617365648B
:10138000206F6E204F70656E4D435020627920446F
:1013900069726B2042726F73737769636B0D0A3CDD
:1013A0002F7072653E3C2F703E3C2F424F44593E99
:1013B0003C2F48544D4C3E0D0A007374796C652ED9
:1013C00063737300406368617273657420224953CC
:1013D0004F2D383835392D31220D0A202020613A21
:1013E0006C696E6B207B20746578742D6465636F07
:1013F000726174696F6E3A6E6F6E653B20666F6ED8
:10140000742D7765696768743A626F6C643B20631A
:101410006F6C6F723A233030303041303B207D208A
:101420000D0A202020613A76697369746564207B17
:1014300020746578742D6465636F726174696F6E72
:101440003A6E6F6E653B20666F6E742D77656967C7
:1014500068743A626F6C643B20636F6C6F723A23FE
:101460004130303041303B207D200D0A202020616A
:101470003A686F766572207B20746578742D646598
:10148000636F726174696F6E3A6E6F6E653B206652
:101490006F6E742D7765696768743A626F6C643B30
:1014A000206261636B67726F756E642D636F6C6F22
:1014B000723A234646434343433B207D200D0A2096
:1014C0002020613A616374697665207B20746578B9
:1014D000742D6465636F726174696F6E3A6E6F6EBE
:1014E000653B20666F6E742D7765696768743A6234
:1014F0006F6C643B206261636B67726F756E642D05
:10150000636F6C6F723A234646464643433B207DE9
:10151000200D0A202020613A666F637573207B20BE
:10152000746578742D6465636F726174696F6E3A67
:101530006E6F6E653B20666F6E742D7765696768A8
:10154000743A626F6C643B206261636B67726F75A3
:101550006E642D636F6C6F723A2343434343464678
:101560003B207D200D0A202020707265207B206F9B
:10157000766572666C6F773A207363726F6C6C3B42
:10158000207D0D0A007478702D6D656E752D646573
:101590002E68746D6C003C48544D4C3E3C484541AF
:1015A000443E3C6C696E6B2072656C3D22737479AD
:1015B0006C6573686565742220747970653D22746A
:1015C0006578742F6373732220687265663D227399
:1015D00074796C652E637373223E3C2F48454144F9
:1015E0003E3C424F4459206267636F6C6F723D22EC
:1015F00023433046464330223E3C61206872656694
:101600003D226D61696E6D656E752E68746D6C221C
:101610003E7A75722675756D6C3B636B3C2F613E2F
:10162000202F203C6120687265663D227478702D01
:101630006D73672D64652E68746D6C222074617201
:101640006765743D226D61696E223E4E616368720A
:10165000696368742073656E64656E3C2F613E201B
:101660002F203C6120687265663D227478702D746D
:101670006C6E7665727A2E6367693F7370723D6433
:101680006522207461726765743D226D61696E2206
:101690003E5465696C6E65686D65722D5665727A2B
:1016A000656963686E69733C2F613E202F203C6141
:1016B00020687265663D227478706366672D6D657B
:1016C0006E752D64652E68746D6C223E6954656C70
:1016D00065782D45696E7374656C6C756E67656EA3
:1016E0003C2F613E202F203C6120687265663D22C0
:1016F0007478702D64656275672E63676922207443
:1017000061726765743D226D61696E223E44656257
:1017100075672D496E666F733C2F613E202F203C0C
:101720006120687265663D227478702D74776974E3
:101730006C6E6C697374652E6367693F7370723D7C
:10174000646522207461726765743D226D61696E03
:10175000223E4275732D546C6E2D4C697374653C3A
:101760002F613E202F203C6120687265663D227308
:10177000646469722E63676922207461726765749C
:101780003D226D61696E223E53442D4B617274653A
:101790003C2F613E3C2F424F44593E3C2F48544D14
:1017A0004C3E0D0A0D0A007478702D6D656E752D16
:1017B000656E2E68746D6C003C48544D4C3E3C4840
:1017C0004541443E3C6C696E6B2072656C3D2273F2
:1017D00074796C6573686565742220747970653DF1
:1017E00022746578742F6373732220687265663D76
:1017F000227374796C652E637373223E3C2F4845C7
:1018000041443E3C424F4459206267636F6C6F72A3
:101810003D2223433046464330223E3C61206872DD
:1018200065663D226D61696E6D656E752E68746DBD
:101830006C223E6261636B3C2F613E202F203C6135
:1018400020687265663D227478702D6D73672D6512
:101850006E2E68746D6C22207461726765743D220F
:101860006D61696E223E53656E64206D65737361B0
:1018700067653C2F613E202F203C612068726566C1
:101880003D227478702D746C6E7665727A2E636763
:10189000693F7370723D656E222074617267657472
:1018A0003D226D61696E223E537562736372696297
:1018B0006572206469726563746F72793C2F613E52
:1018C000202F203C6120687265663D227478706329
:1018D00066672D6D656E752D656E2E68746D6C2254
:1018E0003E692D54656C65782073657474696E6704
:1018F000733C2F613E202F203C6120687265663D5D
:10190000227478702D64656275672E636769222082
:101910007461726765743D226D61696E223E646513
:1019200062756720696E666F3C2F613E202F203CF8
:101930006120687265663D227478702D74776974D1
:101940006C6E6C697374652E6367693F7370723D6A
:10195000656E22207461726765743D226D61696EE7
:10196000223E6C697374206F66206D6F64756C65C0
:10197000733C2F613E202F203C6120687265663DDC
:101980002273646469722E636769222074617267CE
:1019900065743D226D61696E223E5344206361721D
:1019A000643C2F613E3C2F424F44593E3C2F4854EB
:1019B0004D4C3E0D0A0D0A007478706366672D6DFC
:1019C000656E752D64652E68746D6C003C48544DD1
:1019D0004C3E3C484541443E3C6C696E6B20726510
:1019E0006C3D227374796C6573686565742220742C
:1019F0007970653D22746578742F63737322206853
:101A00007265663D227374796C652E637373223E32
:101A10003C2F484541443E3C424F44592062676355
:101A20006F6C6F723D2223433046464330223E3C6A
:101A30006120687265663D227478702D6D656E75E3
:101A40002D64652E68746D6C223E7A7572267575EC
:101A50006D6C3B636B3C2F613E202F203C61206806
:101A60007265663D227478706366672D696E746571
:101A7000726E2E6367693F7370723D6465222074D5
:101A800061726765743D226D61696E223E45696EC3
:101A90007374656C6C756E67656E20696D206C6F14
:101AA0006B616C656E205478502D53797374656D3D
:101AB0003C2F613E202F203C6120687265663D22EC
:101AC0007478706366672D65787465726E2E6367CF
:101AD000693F7370723D646522207461726765743A
:101AE0003D226D61696E223E45696E7374656C6C52
:101AF000756E67656E20696D20692D54656C65781B
:101B00002D4E65747A3C2F613E202F203C61206869
:101B10007265663D227478706366672D656D6169D4
:101B20006C2E6367693F7370723D64652220746137
:101B3000726765743D226D61696E223E654D616913
:101B40006C2D45696E7374656C6C756E67656E3C63
:101B50002F613E202F203C6120687265663D227413
:101B600078706366672D7370657272656E2E636739
:101B7000693F7370723D6465222074617267657499
:101B80003D226D61696E223E5370657272656E3CD6
:101B90002F613E3C2F424F44593E3C2F48544D4C00
:101BA0003E0D0A0D0A007478706366672D6D656ED0
:101BB000752D656E2E68746D6C003C48544D4C3E1E
:101BC0003C484541443E3C6C696E6B2072656C3DFF
:101BD000227374796C6573686565742220747970FA
:101BE000653D22746578742F637373222068726573
:101BF000663D227374796C652E637373223E3C2FAD
:101C0000484541443E3C424F4459206267636F6CF3
:101C10006F723D2223433046464330223E3C6120D2
:101C2000687265663D227478702D6D656E752D65E0
:101C30006E2E68746D6C223E6261636B3C2F613E58
:101C4000202F203C6120687265663D2274787063A5
:101C500066672D696E7465726E2E6367693F737077
:101C6000723D656E22207461726765743D226D61FC
:101C7000696E223E6C6F63616C2073657474696E6B
:101C800067733C2F613E202F203C6120687265669F
:101C90003D227478706366672D65787465726E2E68
:101CA0006367693F7370723D656E2220746172676D
:101CB00065743D226D61696E223E692D54656C65C7
:101CC00078206E6574776F726B2073657474696EBB
:101CD00067733C2F613E202F203C6120687265664F
:101CE0003D227478706366672D656D61696C2E6343
:101CF00067693F7370723D656E222074617267651B
:101D0000743D226D61696E223E654D61696C207380
:101D1000657474696E67733C2F613E202F203C61AF
:101D200020687265663D227478706366672D7370F3
:101D3000657272656E2E6367693F7370723D656E82
:101D400022207461726765743D226D61696E223E66
:101D50006C6F636B3C2F613E3C2F424F44593E3CBD
:101D60002F48544D4C3E0D0A0D0A007478702D6DAD
:101D700073672D64652E68746D6C003C48544D4C3F
:101D80003E3C484541443E3C2F484541443E3C662C
:101D900072616D6573657420726F77733D222A2CB2
:101DA000363022207363726F6C6C696E673D226EF1
:101DB0006F22206672616D65626F726465723D228A
:101DC000322220626F726465723D22322220667276
:101DD000616D6573706163696E673D2232222062B6
:101DE0006F72646572636F6C6F723D2223303030A6
:101DF000303030223E3C6672616D65207372633D07
:101E0000227478702D6D73672D6F75742E636769FA
:101E10003F7370723D646522206E616D653D224D99
:101E200073674F757422207363726F6C6C696E6791
:101E30003D226175746F223E3C6672616D65207350
:101E400072633D227478702D6D73672D696E2E63F9
:101E500067693F7370723D646522206E616D653DF8
:101E6000224D7367496E22207363726F6C6C696ECA
:101E7000673D226E6F223E3C6E6F6672616D6573C8
:101E80003E3C626F64793E3C703E4968722042720B
:101E90006F7773657220756E7465727374C3BC74EA
:101EA0007A74206B65696E65204672616D65732179
:101EB0003C2F703E3C2F626F64793E3C2F6E6F6604
:101EC00072616D65733E3C2F6672616D65736574FA
:101ED0003E3C2F48544D4C3E0D0A0D0A007478705C
:101EE0002D6D73672D656E2E68746D6C003C4854C3
:101EF0004D4C3E3C484541443E3C2F484541443EC4
:101F00003C6672616D6573657420726F77733D22F4
:101F10002A2C363022207363726F6C6C696E673DB9
:101F2000226E6F22206672616D65626F72646572E7
:101F30003D22322220626F726465723D223222207D
:101F40006672616D6573706163696E673D223222EE
:101F500020626F72646572636F6C6F723D22233012
:101F60003030303030223E3C6672616D65207372D5
:101F7000633D227478702D6D73672D6F75742E63B9
:101F800067693F7370723D656E22206E616D653DBD
:101F9000224D73674F757422207363726F6C6C6986
:101FA0006E673D226175746F223E3C6672616D659D
:101FB000207372633D227478702D6D73672D696E86
:101FC0002E6367693F7370723D656E22206E616D8E
:101FD000653D224D7367496E22207363726F6C6C8E
:101FE000696E673D226E6F223E3C6E6F6672616D58
:101FF00065733E3C626F64793E3C703E4968722076
:1020000042726F7773657220756E7465727374C3F4
:10201000BC747A74206B65696E65204672616D656B
:1020200073213C2F703E3C2F626F64793E3C2F6ED3
:102030006F6672616D65733E3C2F6672616D65738C
:1020400065743E3C2F48544D4C3E0D0A0D0A002845
:1020500020256C6420427974652075656265727410
:10206000726167656E20285344290D0A0048545454
:102070005020736F636B657420636C6F73656420AD
:10208000627920636C69656E740D0A00485454507F
:102090002F312E312032303020446F63756D656EE4
:1020A0007420666F6C6C6F77730D0A436F6E746586
:1020B0006E742D4C656E6774683A20256C640D0A49
:1020C000436F6E74656E742D547970653A20257374
:1020D00025730D0A43616368652D436F6E74726FDB
:1020E0006C3A206D61782D6167653D333630300D77
:1020F0000A436F6E6E656374696F6E3A20636C6F2E
:1021000073650D0A0D0A00746578742F0068746D8C
:102110000068746D6C002820256C64204279746519
:1021200020756562657274726167656E2028464C21
:10213000415348290D0A000D0A436F6E74656E7491
:102140002D4C656E6774683A2025640D0A436163FF
:1021500068652D436F6E74726F6C3A206D61782DD7
:102160006167653D333630300D0A436F6E6E6563CF
:1021700074696F6E3A20636C6F73650D0A0D0A0007
:1021800062696E00746578742F68746D6C006A7093
:10219000656700706E6700485454502F312E31200F
:1021A00032303020446F63756D656E7420666F6CDD
:1021B0006C6F77730D0A436F6E74656E742D54796E
:1021C00070653A20000D0A002066726F6D2000686D
:1021D0007474702D726571756573743A200068743B
:1021E00074702D7365727665723A20257320003EF7
:1021F000200051756974696E670D0A007175697404
:1022000000556E642C206C6F7320676568742773AB
:102210002E2E2E21212120282268656C7022206814
:10222000696C6674203A2D29290D0A3E20007465D8
:102230006C6E65740054656C6E65742D53657276B2
:10224000657220506F72742025642E0D0A0043526F
:102250004F4E5F454E5452595F253032640025641D
:102260003A206E696368742062656C6567740D0A54
:102270000025643A2025642025642025730D0A007A
:1022800063726F6E00666F6F2E636769002573203F
:102290002F202573202F2025640D0A0049502F4D33
:1022A00041432F54544C0D0A00617270003C2F4280
:1022B0004F44593E3C2F48544D4C3E0D0A0D0A00E8
:1022C0003C48544D4C3E3C484541443E3C6D657451
:1022D0006120687474702D65717569763D22726530
:1022E00066726573682220636F6E74656E743D223A
:1022F0003630303B20223E3C5449544C453E5374CA
:102300007265616D696E673C2F5449544C453E3C83
:102310002F484541443E3C424F4459206267636F19
:102320006C6F723D22233232384232322220746581
:1023300078743D2223464646464646223E5A656903
:10234000743A20253032643A253032643A253032EE
:10235000642E2530326420282025752F25752F25E1
:1023600030347520290050485354415432207C2089
:102370003078253034580D0A0050485354415431B8
:10238000207C203078253034580D0A005265762E96
:10239000494420207C2020203078253032580D0AF6
:1023A000002D2D2D2D2D2D2D2D2B2D2D2D2D2D2D8C
:1023B0002D2D0D0A005265672E202020207C2057ED
:1023C0006572740D0A00454E4332384A36303A0D74
:1023D0000A005443502D5458204572726F72733A5C
:1023E000202564205443502D5258204572726F723C
:1023F000733A2025642028756E736F7274656420AB
:1024000025642C206F6C64736571202564290D0A86
:102410000D0A0045746865726E65743A20256C6417
:1024200020427974657320696E20256C64205061A8
:10243000636B6574656E204C6F636B4572726F726F
:102440007320256C640D0A0073746174732E6367C6
:10245000690073746174730052657365740072650A
:1024600073657400726573657400726573657400DA
:102470003C666F726D20616374696F6E3D22726598
:102480007365742E63676922206D6574686F643D9F
:102490002267657422206163636570742D636861CF
:1024A000727365743D2249534F2D383835392D31BB
:1024B000223E3C703E3C696E707574207479706584
:1024C0003D227375626D697422206E616D653D22D7
:1024D0007265736574222076616C75653D22726544
:1024E000736574223E3C2F703E3C2F666F726D3ECA
:1024F0000072657365742E63676900726573657435
:1025000000646E73203C686F73746E616D653E0D80
:102510000A004950207A75202573203D2025730D2F
:102520000A00646E730044484350004950004D4116
:10253000534B004741544500444E53004D41430026
:1025400053657474696E67732073617665642C20BB
:102550007265626F6F74206E656365737361727903
:1025600020746F2074616B652065666665637421F5
:102570000D0A003C74723E3C746420616C69676EA5
:102580003D227269676874223E48617264776172A5
:10259000652D4D41433C2F74643E3C74643E3C6960
:1025A0006E707574206E616D653D224D4143222031
:1025B000747970653D2274657874222073697A6538
:1025C0003D223137222076616C75653D22257322CC
:1025D000206D61786C656E6774683D223137223EEC
:1025E0003C2F74643E3C2F74723E3C74723E3C74CB
:1025F000643E3C2F74643E3C74643E3C696E70756E
:102600007420747970653D227375626D697422203F
:1026100076616C75653D2220536176652063686143
:102620006E67657320223E3C2F74643E3C2F7472AB
:102630003E3C2F7461626C653E3C2F666F726D3E4E
:10264000004D4143003C74723E3C746420616C69EF
:10265000676E3D227269676874223E444E532D5363
:1026600065727665723C2F74643E3C74643E3C69CE
:102670006E707574206E616D653D22444E5322204C
:10268000747970653D2274657874222073697A6567
:102690003D223135222076616C75653D22257322FD
:1026A000206D61786C656E6774683D223135223E1D
:1026B0003C2F74643E3C2F74723E00444E53003CE9
:1026C00074723E3C746420616C69676E3D2272696D
:1026D000676874223E476174657761793C2F746442
:1026E0003E3C74643E3C696E707574206E616D652D
:1026F0003D22474154452220747970653D2274651E
:102700007874222073697A653D2231352220766102
:102710006C75653D22257322206D61786C656E674E
:1027200074683D223135223E3C2F74643E3C2F7448
:10273000723E0047415445003C74723E3C74642034
:10274000616C69676E3D227269676874223E4E65EE
:10275000746D61736B3C2F74643E3C74643E3C69E1
:102760006E707574206E616D653D224D41534B2234
:1027700020747970653D2274657874222073697ABB
:10278000653D223135222076616C75653D222573C9
:1027900022206D61786C656E6774683D2231352248
:1027A0003E3C2F74643E3C2F74723E004D41534BAF
:1027B000003C74723E3C746420616C69676E3D221B
:1027C0007269676874223E4950206164647265735F
:1027D000733C2F74643E3C74643E3C696E70757447
:1027E000206E616D653D2249502220747970653DEF
:1027F0002274657874222073697A653D223135220E
:102800002076616C75653D22257322206D61786CA0
:10281000656E6774683D223135223E3C2F74643EFC
:102820003C2F74723E004950003E3C2F74643E3C85
:102830002F74723E00636865636B6564006F6E00A1
:102840003C74723E3C746420616C69676E3D227218
:1028500069676874223E4448435020616374697616
:10286000653C2F74643E3C74643E3C696E707574C4
:1028700020747970653D22636865636B626F7822AE
:10288000206E616D653D2244484350222076616C84
:1028900075653D226F6E22200044484350003C661F
:1028A0006F726D20616374696F6E3D226E6574771F
:1028B0006F726B2E636769223E3C7461626C6520A7
:1028C000626F726465723D2230222063656C6C70A9
:1028D000616464696E673D2235222063656C6C73A8
:1028E000706163696E673D2230223E00636F6E66E1
:1028F0006967003C2F7072653E0D0A007374617445
:1029000073006966636F6E666967003C7072653E4E
:102910000D0A000D0A48572D4164723A20253032C5
:10292000783A253032783A253032783A2530327884
:102930003A253032783A253032780D0A0D0A0044B3
:102940004E533A25730D0A00476174657761793AF1
:1029500025730D0A004E65746D61736B3A25730D16
:102960000A0049503A25730D0A006E6574776F723C
:102970006B2E636769006966636F6E666967004EF8
:102980005450004E545053455256455200555443EE
:102990005A4F4E450045696E7374656C6C756E6771
:1029A000656E2075656265726E6F6D6D656E210D69
:1029B0000A003C74723E3C746420616C69676E3D31
:1029C000227269676874223E534E54502D536572CB
:1029D0007665723C2F74643E3C74643E3C696E7054
:1029E0007574206E616D653D224E545053455256AC
:1029F00045522220747970653D22746578742220D6
:102A000073697A653D223235222076616C75653DA9
:102A100022257322206D61786C656E6774683D2293
:102A20003235223E3C2F74643E3C2F74723E3C741F
:102A3000723E3C746420616C69676E3D2272696706
:102A40006874223E5A6569747A6F6E653C2F7464AF
:102A50003E3C74643E3C696E707574206E616D65B9
:102A60003D225554435A4F4E452220747970653D9E
:102A70002274657874222073697A653D223322209E
:102A800076616C75653D22257322206D61786C65D9
:102A90006E6774683D2233223E3C2F74643E3C2FA7
:102AA00074723E3C74723E3C74643E3C2F74643ECF
:102AB0003C74643E3C696E70757420747970653D39
:102AC000227375626D6974222076616C75653D2292
:102AD0002045696E7374656C6C756E67202655753C
:102AE0006D6C3B6265726E65686D656E20223E3C62
:102AF0002F74643E3C2F74723E3C2F7461626C658F
:102B00003E3C2F666F726D3E00300074696D652E1D
:102B100066752D6265726C696E2E6465003E3C2F91
:102B200074643E3C2F74723E00636865636B656439
:102B3000006F6E003C666F726D20616374696F6E2A
:102B40003D226E74702E636769223E0D3C74616293
:102B50006C6520626F726465723D2230222063656D
:102B60006C6C70616464696E673D22352220636518
:102B70006C6C73706163696E673D2230223E3C74F9
:102B8000723E3C746420616C69676E3D22726967B5
:102B90006874223E534E545020616B7469766965A7
:102BA00072656E3C2F74643E3C74643E3C696E708A
:102BB000757420747970653D22636865636B626F1C
:102BC0007822206E616D653D224E54502220766140
:102BD0006C75653D226F6E2220006E7470203C6E15
:102BE00074707365727665723E0D0A004665686C96
:102BF00065720D0A004E657565205A6569743A2044
:102C0000253032643A253032643A253032640D0A78
:102C100000486F6C65205A65697420766F6E2025B8
:102C2000730D0A004665686C65720D0A006E74705B
:102C30002E636769006E7470002644594E444E53EB
:102C40005F5553455250570044594E444E535F44CC
:102C50004F4D41494E0045696E7374656C6C756EDD
:102C600067656E2075656265726E6F6D6D656E214C
:102C70000D0A002D31202D3135202264796E646ECD
:102C80007320757064617465220044594E444E533C
:102C90005F4F4E002D31202D3135202264796E6436
:102CA0006E7320757064617465220044594E444E01
:102CB000530044594E444E535F4F4E0044594E44C6
:102CC0004E5300444F4D41494E0044594E444E53DB
:102CD0005F444F4D41494E00444F4D41494E0041E4
:102CE00043434F554E54002644594E444E535F556E
:102CF0005345525057004143434F554E54004143B2
:102D0000434F554E54003C666F726D206163746989
:102D10006F6E3D2264796E646E732E636769223E26
:102D20000D203C7461626C6520626F726465723D57
:102D30002230222063656C6C70616464696E673D4B
:102D40002235222063656C6C73706163696E673D28
:102D50002230223E20203C74723E0D2020203C7404
:102D60006420616C69676E3D227269676874223EF7
:102D700044796E444E5320616B746976696572655F
:102D80006E3C2F74643E2020203C74643E3C696E8F
:102D900070757420747970653D22636865636B6239
:102DA0006F7822206E616D653D2244594E444E532A
:102DB000222076616C75653D226F6E22202573207E
:102DC0003E20203C2F74643E0D20203C74723E0D4A
:102DD0002020203C746420616C69676E3D2272691A
:102DE000676874223E64796E444E53204163636F7A
:102DF000756E74202820757365723A707720293CAF
:102E00002F74643E2020203C74643E3C696E7075D3
:102E100074206E616D653D224143434F554E5422EF
:102E200020747970653D2274657874222073697A04
:102E3000653D223331222076616C75653D2222206A
:102E40006D61786C656E6774683D223331223E3C5B
:102E50002F74643E20203C2F74723E0D20203C7461
:102E6000723E0D2020203C746420616C69676E3DC9
:102E7000227269676874223E44796E444E5320443E
:102E80006F6D61696E3C2F74643E2020203C746439
:102E90003E3C696E707574206E616D653D22444FD5
:102EA0004D41494E2220747970653D2274657874D5
:102EB000222073697A653D223331222076616C7558
:102EC000653D22257322206D61786C656E6774689C
:102ED0003D223531223E3C2F74643E20203C2F742D
:102EE000723E0D20203C74723E0D2020203C746404
:102EF0003E3C2F74643E3C74643E3C696E70757455
:102F000020747970653D227375626D697422207634
:102F1000616C75653D222045696E7374656C6C75D6
:102F20006E67202655756D6C3B6265726E65686DC7
:102F3000656E20223E3C2F74643E20203C2F74722C
:102F40003E0D203C2F7461626C653E0D3C2F666F18
:102F5000726D3E00636865636B6564006F6E00446C
:102F6000594E444E535F4F4E0044594E444E535FAA
:102F7000444F4D41494E0044594E444E535F444FD7
:102F80004D41494E0064796E646E73203C757064E7
:102F90006174653E202F203C7365746163636F75B7
:102FA0006E7420757365723A70774064796E646EE2
:102FB000732D646F6D61696E3E0D0A004163636F2E
:102FC000756E74646174656E20676573706569639E
:102FD000686572742E0D0A007365746163636F75A2
:102FE0006E74005570646174652066756572202585
:102FF00073206665686C67657363686C6167656E8E
:103000000D0A00557064617465206675657220252F
:1030100073206572666F6C6772656963682E0D0A4E
:10302000007570646174650064796E646E732E63FC
:1030300067690064796E646E730064656C00646532
:103040006C0045696E7374656C6C756E67656E2097
:1030500075656265726E6F6D6D656E210D0A004358
:103060004D440025642025642022257322004D4D07
:1030700000484800434D44003C666F726D20616318
:1030800074696F6E3D2263726F6E2E636769223EB4
:103090003C7461626C6520626F726465723D2230BF
:1030A000222063656C6C70616464696E673D2235D3
:1030B000222063656C6C73706163696E673D2230BA
:1030C000223E3C74723E3C746420616C69676E3DC4
:1030D000227269676874223E5374756E64653C2F72
:1030E00074643E3C74643E3C696E707574206E611D
:1030F0006D653D2248482220747970653D227465D3
:103100007874222073697A653D2233222076616CBF
:1031100075653D2230226D61786C656E6774683D1F
:103120002233223E3C2F74643E3C2F74723E3C742A
:10313000723E3C746420616C69676E3D22726967FF
:103140006874223E4D696E7574653C2F74643E3C14
:1031500074643E3C696E707574206E616D653D22CD
:103160004D4D2220747970653D227465787422205B
:1031700073697A653D2233222076616C75653D2244
:103180003022206D61786C656E6774683D22332251
:103190003E3C2F74643E3C2F74723E3C74723E3C45
:1031A000746420616C69676E3D227269676874227D
:1031B0003E436F6D6D616E643C2F74643E3C74647D
:1031C0003E3C696E707574206E616D653D22434DA5
:1031D000442220747970653D2274657874222073CE
:1031E000697A653D22333022206D61786C656E67A7
:1031F00074683D223330223E3C2F74643E3C2F7471
:10320000723E3C74723E3C74643E3C2F74643E3C9F
:1032100074643E3C696E70757420747970653D22EB
:103220007375626D6974222076616C75653D22202C
:1032300045696E74726167207369636865726E2098
:10324000223E3C2F74643E3C2F74723E3C2F7461CE
:10325000626C653E3C2F666F726D3E0D006164646A
:103260006E6577003C74723E3C746420616C6967E3
:103270006E3D226C656674223E3C61206872656614
:103280003D2263726F6E2E6367693F6164646E6591
:103290007722207374796C653D22746578742D648F
:1032A00065636F726174696F6E3A6E6F6E6522202E
:1032B0007469746C653D22416464223E3C696E70A1
:1032C000757420747970653D22627574746F6E2216
:1032D0002076616C75653D22616464206E6577209F
:1032E00063726F6E2220636C6173733D226163743D
:1032F000696F6E42746E223E3C2F613E3C2F7464B7
:103300003E3C2F74723E3C2F7461626C653E0D0032
:103310003C74723E3C746420616C69676E3D226C43
:10332000656674223E25733C2F74643E3C746420B1
:10333000616C69676E3D226C656674223E3C61205B
:10334000687265663D2263726F6E2E6367693F64C3
:10335000656C3D256422207374796C653D2274652B
:1033600078742D6465636F726174696F6E3A6E6F05
:103370006E6522207469746C653D2244656C223E42
:103380003C696E70757420747970653D2262757445
:10339000746F6E222076616C75653D2264656C22C7
:1033A00020636C6173733D22616374696F6E427454
:1033B0006E223E3C2F613E3C2F74643E3C2F747263
:1033C0003E003C7461626C6520626F726465723DA0
:1033D0002230222063656C6C70616464696E673DA5
:1033E0002235222063656C6C73706163696E673D82
:1033F0002230223E0063726F6E2E636769003C2F9D
:103400007072653E003C7072653E0065656D656D6D
:10341000203C70726F746563743E7C3C756E707294
:103420006F746563743E203C616464205B6E616D03
:10343000652076616C5D3E203C64656C205B6E614E
:103440006D655D3E203C7072696E743E203C636C1D
:1034500065616E3E0D0A00636C65616E0070726995
:103460006E740064656C0061646400756E70726FE8
:103470007465637465740D0A0057524954455F5072
:10348000524F54454354004F464600756E70726F5C
:10349000746563740057524954455F50524F544508
:1034A0004354004F4E0070726F746563740065651D
:1034B0006D656D2E6367690065656D656D003334FC
:1034C0003900E4F6FCC4D6DCDF5B5D3C3E7B7D402E
:1034D0005F232200616F75414F5573283A282E28CB
:1034E0002D28202B2700656565656565733A292EB3
:1034F000292D2929202B27004346475041535300AB
:10350000544C4E425543484F4646454E0050524F4C
:10351000544C4556454C0050524F544C4556454C22
:10352000544C4E5352560048415550545354454CF8
:103530004C4500454947454E454E554D4D45520079
:10354000464553544548505354004D454C445255FC
:10355000434B00414C5445524E424549424553006D
:1035600044555243485741484C54414200415554F8
:103570004F444154554D004E45545A5255464E52B3
:103580000050494E0044594E4950414B5449560051
:103590004E45545A504F52540053454C4253544197
:1035A0004E504552005350524143484500525546F3
:1035B0004E525345525631005255464E5253455283
:1035C0005632005255464E525345525633005359C7
:1035D0004E4350494E005478500054656C65785005
:1035E000686F6E6520506F72742025752E0D0A006D
:1035F00073646469722E636769007478702D646502
:103600006275672E636769007478706366672D73EF
:1036100070657272656E2E63676900747870636698
:10362000672D65787465726E2E63676900747870B3
:103630006366672D696E7465726E2E6367690074C8
:1036400078702D747769746C6E6C697374652E6311
:103650006769007478702D6D73672D6F75742E63B4
:103660006769007478702D6D73672D696E2E6367BE
:1036700069004572726F722072656164696E6720BD
:103680006469726563746F727921003C61206872AD
:103690006566203D2225732F2573223E25733C2F1E
:1036A000613E20256C64203C736D616C6C3E3C6116
:1036B0002068726566203D2273646469722E6367B8
:1036C000693F6469723D25732664656C3D25732FDF
:1036D0002573223E64656C6574653C2F613E3C2F0A
:1036E000736D616C6C3E3C62723E003C612068729E
:1036F0006566203D222573223E25733C2F613E20C6
:10370000256C64203C736D616C6C3E3C612068727A
:103710006566203D2273646469722E6367693F6445
:10372000656C3D2573223E64656C6574653C2F6154
:103730003E3C2F736D616C6C3E3C62723E003C619E
:103740002068726566203D2273646469722E636727
:10375000693F6469723D25732F2573223E25733CB2
:103760002F613E204449523C62723E003C61206819
:10377000726566203D2273646469722E6367693FD7
:103780006469723D2573223E25733C2F613E2044BF
:1037900049523C62723E003C2F623E2028256C75E7
:1037A0002066726565293C62723E003C623E436F52
:1037B0006E74656E74206F662025733A00646972BA
:1037C000003C623E436F6E74656E74206F66202FFE
:1037D0003A006469720046696C65202573204E4F7B
:1037E0005420666F756E643C703E0046696C6520BF
:1037F0002573204E4F542064656C657465643C707D
:103800003E0046696C652025732064656C657465AF
:10381000643C703E0064656C0064656C003C2F6124
:103820003E003C6120687265663D22747870636674
:10383000672D65787465726E2E636769223E007429
:1038400078706366672D65787465726E2E6367693C
:10385000003A2025732028256429003C62723E002E
:103860003C62723E003A202573003C62723E003A90
:10387000202573003A202573003C62723E003A20F6
:103880002573003A202573003C62723E003C2F6194
:103890003E003C6120687265663D22747870636604
:1038A000672D696E7465726E2E636769223E0074BF
:1038B00078706366672D696E7465726E2E636769D2
:1038C000003C2F613E3C2F666F726D3E0020223E11
:1038D0003C6120687265663D227478702D6D736757
:1038E0002D6F75742E636769222074617267657429
:1038F0003D224D73674F7574223E003C696E7075B2
:1039000074206E616D653D2245696E676162652256
:1039100020747970653D2274657874222073697A09
:10392000653D223635222076616C75653D22222068
:103930006D61786C656E6774683D223635223E3C59
:10394000696E70757420747970653D227375626D4F
:103950006974222076616C75653D22003C666F7249
:103960006D20616374696F6E3D227478702D6D7384
:10397000672D696E2E636769223E0048544D4C2DB9
:1039800043686174206265676F6E6E656E202841C2
:103990006E7761686C20257529202D3E20000D0A68
:1039A0000048544D4C2D436861742045696E676131
:1039B00062653A20000D0A0045696E676162650024
:1039C00044757263687761686C20696E2054616227
:1039D000656C6C6520676566756E64656E2025751F
:1039E0000D0A0044757263687761686C20617573B5
:1039F00020546162656C6C6520756D6765736574D4
:103A00007A742025750D0A004475726368776168C1
:103A10006C2D416E66726167652025750D0A005434
:103A200078502028253575293A2000446972656B45
:103A300074647275636B204162727566204472759E
:103A4000636B7370696567656C202862656C656778
:103A500074290D0A00446972656B74647275636B36
:103A600020416272756620447275636B737069657C
:103A700067656C2028617573290D0A00202825755B
:103A8000290D0A00446972656B74647275636B205A
:103A9000416272756620447275636B737069656705
:103AA000656C3A003C62723E3C7072653E2573263E
:103AB0006C743B266C743B266C743B257325733CFD
:103AC0002F7072653E003C48544D4C3E3C48454189
:103AD000443E3C6D65746120687474702D65717529
:103AE00069763D22657870697265732220636F6E16
:103AF00074656E743D2231223E3C6D6574612068B0
:103B00007474702D65717569763D22707261676D90
:103B1000612220636F6E74656E743D226E6F2D633B
:103B200061636865223E3C6D6574612068747470E1
:103B30002D65717569763D227265667265736822BE
:103B400020636F6E74656E743D2231303B20555298
:103B50004C3D7478702D6D73672D6F75742E63678F
:103B600069223E3C2F484541443E3C424F44593E29
:103B7000003C62723E3C6120687265663D2274784A
:103B8000702D64656275672E6367693F7265736542
:103B900074223E53746174696B74696B2D44617453
:103BA000656E207A75722675756D6C3B636B7365F7
:103BB000747A656E3C2F613E3C62723E4574686566
:103BC000726E65743A20256C6420427974657320A6
:103BD000696E20256C64205061636B6574656E208E
:103BE0004C6F636B4572726F727320256C640D0AA3
:103BF000003C62723E5465696C6E65686D65725317
:103C00006572766572416C6C654E69636874457265
:103C10007265696368626172203D202575003C62AF
:103C2000723E5465696C6E65686D65725365727637
:103C300065724665686C65725A6165686C65722864
:103C4000257329203D2025642C20537065727265F0
:103C50002D54696D6572202564003C62723E546982
:103C60006D65723043616C6C6261636B5F4D61784E
:103C7000203D202575003C62723E54696D657230AE
:103C8000436E745F4D6178203D202575003C627263
:103C90003E54696D657230436E745F4D696E203DB0
:103CA000202575003C62723E54696D657230436137
:103CB0006C6C6261636B436F756E74203D2025757B
:103CC000003C62723E547870546872656164436F60
:103CD000756E74203D202575003C62723E547769F4
:103CE000497372436F756E74203D202575003C62E8
:103CF000723E46616C7363686572436F6465203D14
:103D0000202575003C62723E53656C627374416E8F
:103D10007275665A65697455656265727761636824
:103D2000756E673A20003C62723E53656C62737434
:103D3000416E7275664665686C65725A6165686C3D
:103D40006572203D202575003C62723E53656C62B1
:103D50007374416E727566456D7066616E67507200
:103D600075656677657274203D202575003C62722A
:103D70003E53656C627374416E72756653656E6412
:103D800065507275656677657274203D20257500F3
:103D90003C62723E53656C627374416E7275665319
:103DA0006F636B657448616E646C65203D2025759A
:103DB000003C62723E4B75727A54696D6572566151
:103DC0006C282653656C627374416E727566546913
:103DD0006D657229203D202575003C62723E536559
:103DE0006C627374416E7275665068617365203DD4
:103DF000202575003C62723E44796E4950416B74D7
:103E000075616C6973696572756E67456E647A6514
:103E10006974203D202575003C62723E4C616E67DE
:103E200054696D657256616C282644796E4950411B
:103E30006B7475616C6973696572756E6754696DD1
:103E4000657229203D202575003C62723E4B7572DB
:103E50007A54696D657256616C282654787054687E
:103E600072656164436865636B54696D657229208E
:103E70003D202575003C62723E4B75727A54696D27
:103E8000657256616C2826547870536F636B657445
:103E90004C6562656E737A65696368656E54696DB9
:103EA000657229203D202575003C62723E42757383
:103EB0004B6F6C6C6973696F6E5A6165686C657283
:103EC000203D202575003C62723E5477695761742D
:103ED0006368646F67436F756E74203D20257500BD
:103EE0003C62723E5477694C6562656E737A6569AF
:103EF0006368656E5A6165686C6572203D20257542
:103F0000003C62723E4B75727A54696D65725661FF
:103F10006C2826427573517569747454696D6572A5
:103F200029203D202575005D005D3C62723E417395
:103F3000636969447275636B5075666665723A2091
:103F40005B003C62723E48746D6C53656E646554F0
:103F50006578743A205B003C62723E536F636B6518
:103F600074416E7A61686C5A65696368656E456D07
:103F70007066616E67656E203D202575003C62723B
:103F80003E536F636B6574416E7A61686C5A656904
:103F90006368656E517569747469657274203D203B
:103FA0002575003C62723E536F636B6574416E7A97
:103FB00061686C5A65696368656E476573656E64B0
:103FC0006574203D202575003C62723E50726F740E
:103FD0006F6B6F6C6C5068617365203D20257500B8
:103FE0003C62723E547870536F636B657450726FAD
:103FF000746F6B6F6C6C203D202575003C62723EC7
:10400000536F636B65744F75744275665573656461
:10401000203D202575003C62723E536F636B6574D2
:10402000496E42756655736564203D202575003CD8
:1040300062723E4B75727A54696D657256616C2876
:1040400026547870536F636B657441626272756356
:104050006854696D657229203D202575003C6272A7
:104060003E547870536F636B65744162626175474B
:1040700065706C616E74203D202575003C62723E57
:10408000547870536F636B65744950203D20253020
:104090003258003C62723E547870536F636B6574A3
:1040A00048616E646C65203D202575003C62723E5F
:1040B000547870536F636B65744D6F6465203D2059
:1040C0002575003C62723E537461747573203D2007
:1040D00025303258003C62723E4D6F647573203D4E
:1040E000202575003C62723E50726F746F6B6F6C6E
:1040F0006C7075666665723A202573003C62723E8C
:1041000050726F746F6B6F6C6C64617465693A2088
:104110002573003C62723E446961676E6F7365503F
:1041200075666665724C6576656C203D2025750068
:10413000446961676E6F73655075666665723A2093
:10414000257300726573657400656E006465000D0B
:104150000A006367692D4175667275663A200073BF
:10416000707200006B656E6E7700536F636B6574E1
:10417000207A756D205465696C6E65686D65722D69
:1041800053657276657220777572646520766F6EFE
:1041900020476567656E7374656C6C652067657331
:1041A00063686C6F7373656E0D0A002120756E6510
:1041B000727761727465746520416E74776F727482
:1041C00020646573205465696C6E65686D65722D39
:1041D000536572766572730D0A000D0A0021204640
:1041E00065686C65726D656C64756E672064657377
:1041F000205465696C6E65686D65722D53657276C5
:104200006572733A20000D0A0044796E616D69731E
:104210006368652049502D416B7475616C697369E1
:104220006572756E673A206E65756520495020008D
:1042300044796E616D69736368652049502D416BE7
:104240007475616C6973696572756E673A20626531
:1042500073746568656E64652049502067696C7485
:10426000207765697465720D0A00212044617465C8
:104270006E7361747A20766F6D205465696C6E651B
:10428000686D65722D536572766572206D69742054
:104290004E7220256C64206B6F6E6E7465206E69A3
:1042A00063687420676573706569636865727420FC
:1042B00077657264656E0D0A002120696D206C6F50
:1042C0006B616C656E2054656C65666F6E627563BC
:1042D0006820616C732027507269766174272067AB
:1042E000656B656E6E7A656963686E65740D0A004C
:1042F00021205465696C6E65686D65722D53657219
:10430000766572206D656C64657420414E4445523B
:1043100045204E756D6D657220616C7320616E670E
:104320006566726167740D0A000D0A005465696C58
:104330006E65686D65722D536572766572206D6568
:104340006C6465742045696E747261672067656688
:10435000756E64656E3A20005465696C6E65686DB3
:1043600065722D536572766572206D656C64657437
:1043700020276E6963687420676566756E64656E74
:10438000270D0A000D0A00256429005465696C6E2A
:1043900065686D65722D53657276657220456D7026
:1043A00066616E673A202825642F0053656C62733E
:1043B000742D416E7275662D536F636B6574206446
:1043C000757263682054696D656F757420676573D5
:1043D00063686C6F7373656E210D0A0053656C62C0
:1043E0007374616B7475616C6973696572756E67FE
:1043F00000212053656C6273742D416E72756620C6
:104400004B45494E204563686F20656D7066616E4F
:1044100067656E2E0D0A00212053656C6273742D42
:10442000416E727566204142474542524F434845AE
:104430004E20776567656E204D6F6475732D5765E7
:10444000636873656C2E0D0A00212053656C6273DE
:10445000742D416E7275662046414C534348452089
:10446000446174656E20656D7066616E67656E2E61
:104470000D0A00212053656C6273742D416E7275B4
:1044800066206572666F6C67726569636820616239
:1044900067657363686C6F7373656E2E0D0A002118
:1044A0002053656C6273742D416E72756620446191
:1044B00074656E2D53656E64756E67205645525354
:1044C0004147542E0D0A0053656C6273742D416E82
:1044D00072756620446174656E20676573656E64ED
:1044E00065742E0D0A00212053656C6273742D4192
:1044F0006E727566206F6566666E656E20646573A4
:1045000020536F636B657420564552534147542EB8
:104510000D0A004772756E647374656C6C756E6716
:104520002065727265696368742028536F636B65D8
:10453000742067657363686C6F7373656E2C2054A9
:1045400057492067657363686C6F7373656E290DD7
:104550000A005265737465206765647275636B74D5
:10456000202D2D3E20417573736368616C74756EE8
:104570006720696E7465726E0D0A0048544D4C2DAB
:10458000436861742D52756865202D2D3E2041755C
:1045900073736368616C74756E6720696E7465729D
:1045A0006E0D0A004D656C64756E67736472756399
:1045B0006B202D3E20000D0A0A0A005461737465B9
:1045C000206765647275636B74202D2D3E205265E3
:1045D0007374652D447275636B20616267656272E6
:1045E0006F6368656E0D0A003A20253032752E25FE
:1045F0003032752E2530347520253032753A25300D
:1046000032753A253032750D0A000D0A004162629A
:10461000617520776567656E203130204D696E7554
:1046200074656E2046756E6B7374696C6C65210DD4
:104630000A006572720D0A00212054696D656F755C
:1046400074206265696D2057617274656E206175B2
:1046500066206469652045696E736368616C747176
:1046600075697474756E670D0A00212054696D6553
:104670006F7574206265696D2057617274656E2074
:1046800061756620646965205363686C7573737126
:1046900075697474756E670D0A006F63630D0A00A7
:1046A0002120416E7761686C20696E7465726E209E
:1046B000616E20257520564552534147540D0A001E
:1046C00076657262756E64656E206D6974202575FD
:1046D0000D0A00416E7761686C20696E7465726EB8
:1046E0002025752000416E6765727566656E65727E
:1046F00020686174206765616E74776F7274657489
:10470000202D3E2045696E736368616C74756E6719
:1047100020696E7465726E0D0A002120494C4C456B
:1047200047414C45532050726F746F6B6F6C6C0D2A
:104730000A0021205457492D54696D656F75742006
:104740002D3E204162736368616C74756E670D0A5B
:104750000054574920417573736368616C74756EBA
:104760006720696E7465726E0D0A002120536368BC
:104770006C7573737175697474756E67206F686E8C
:104780006520417566666F72646572756E670D0AA5
:104790000054574920417573736368616C74756E7A
:1047A00067207175697474696572740D0A005465C7
:1047B000696C6E65686D657220256C7520696D2069
:1047C000656967656E656E2054656C65666F6E62BF
:1047D00075636820676566756E64656E2E0D0A00E8
:1047E000545749205761686C7A696666657220255E
:1047F0007520696E7465726E202F20676568656E1E
:10480000640D0A00545749205761686C61756666EB
:104810006F72646572756E6720696E7465726E2062
:104820002F206B6F6D6D656E640D0A005457492023
:1048300045696E736368616C747175697474756EC3
:1048400067206E616368204D656C64756E67736484
:104850007275636B0D0A005457492045696E736386
:1048600068616C747175697474756E67206E6163CC
:104870006820426567696E6E2048544D4C2D436830
:1048800061740D0A005457492045696E736368616D
:104890006C747175697474756E6720696E74657275
:1048A0006E202F206B6F6D6D656E640D0A0054577E
:1048B000492045696E736368616C746B6F6D6D61DF
:1048C0006E646F20696E7465726E202F2067656854
:1048D000656E640D0A0054574920526573657276FF
:1048E000696572756E6720696E7465726E202F201F
:1048F000676568656E6420766F6E2025750D0A0009
:10490000253032752E253032752E25303475202015
:10491000253032643A253032640D0A0021205A4590
:104920004954554542455253434852454954554EC2
:104930004720626569205769656465726175666EB6
:1049400061686D65206465722056657262696E6487
:10495000756E670D0A0021204D6568726661636897
:1049600065204645484C4552206265696D20536577
:104970006E64656E20696E73204E65747A2C2053C8
:104980006F636B6574207769726420766F727565EA
:10499000626572676568656E642067657363686CDD
:1049A0006F7373656E0D0A002F253032580D0A00A3
:1049B0002053756D416E7A202575002C2052657349
:1049C0007420257500202D2D3E205265732025640E
:1049D00000536F636B65742053656E64756E673A40
:1049E0002028257529005769656465722D4F656615
:1049F000666E756E672064657320536F636B6574B4
:104A0000206572666F6C6772656963682E0D0A00B7
:104A100021205769656465722D4F6566666E756EF7
:104A2000672064657320536F636B6574205645522D
:104A3000534147542E0D0A00202D2D3E204275660D
:104A4000557365642025750D0A0025642900536F90
:104A5000636B657420456D7066616E673A2028252A
:104A6000642F006C696D6974696572742061756684
:104A70002025640D0A002120536F636B6574204567
:104A80006D7066616E672064726F68656E646572D2
:104A90002055656265726C6175663A20456D706679
:104AA000616E6720766F6E2025642000536F636B04
:104AB0006574207769726420616B7469762067651C
:104AC0007363686C6F7373656E0D0A00536F636B6D
:104AD000657420777572646520766F6E2047656710
:104AE000656E7374656C6C65206572776172746550
:104AF000742067657363686C6F7373656E0D0A006D
:104B00002120536F636B657420777572646520761E
:104B10006F6E20476567656E7374656C6C652047C2
:104B2000455452454E4E540D0A00536F636B6574E5
:104B300020777572646520766F6E20476567656EB5
:104B40007374656C6C65206572776172746574202E
:104B500067657363686C6F7373656E0D0A0021205F
:104B6000536F636B657420777572646520766F6E22
:104B700020476567656E7374656C6C6520554E459E
:104B8000525741525445542067657363686C6F7384
:104B900073656E0D0A002021202E2E2E41424745BE
:104BA00057494553454E0D0A0004066F6363200DB7
:104BB0000A002C2056657262696E64756E67206209
:104BC000657374656874002C20616E64657265207D
:104BD0006B6F6D6D656E64652056657262696E649B
:104BE000756E6720626573746568742100202E2ECF
:104BF0002E57696564657276657262696E64756E5A
:104C000067206F6B0D0A002C20616E6465727765FA
:104C1000697469672062656C65677400202E2E2EAA
:104C20006E6575206F6B0D0A00202F204D414320CB
:104C3000005365727665722D536F636B65742067E0
:104C4000656F6566666E657420766F6E20495020CC
:104C5000002534640D0A002534640053656E6441F8
:104C600020253464002534640D0A00253464004591
:104C70006D706641202531366400204B656E6E3DB7
:104C8000253032580D0A00204C656E3D25640046E3
:104C900065726E6B6F6E66696720214665686C652C
:104CA0007220436F64653D2564006665726E6B6FAC
:104CB0006E666572720053656E64652050726F7423
:104CC0006F6B6F6C6C76657273696F6E2D566F7259
:104CD0007363686C61672025750D0A0050726F74EC
:104CE0006F6B6F6C6C76657273696F6E2D566F7239
:104CF0007363686C616720257520656D7066616EF1
:104D000067656E0D0A00416262617562656665687D
:104D10006C20766F6E20476567656E7374656C6C8A
:104D2000650D0A0053656E64656E42657363686C59
:104D300065756E6967656E2045494E0D0A005365BD
:104D40006E64656E42657363686C65756E696765F0
:104D50006E204155530D0A002534640D0A00253498
:104D60006400456D706642202531366400466572E8
:104D70006E6B6F6E666967204B656E6E3D256420B5
:104D80006F6B0D0A002534640D0A0025346400534E
:104D9000656E644220253464005275666E756D6DD3
:104DA00065722D416266726167650041626672617B
:104DB000676520626569205465696C6E65686D651C
:104DC000722D5365727665726E0D0A002120696E30
:104DD0007465726E65722056657262696E64756E76
:104DE0006773706172746E657220257520697374C3
:104DF000205343484F4E20465245492E0D0A00216C
:104E000020696E7465726E65722056657262696E95
:104E100064756E6773706172746E6572202575209B
:104E20004E49434854204D45485220455252454929
:104E300043484241522E0D0A00212045696E73639A
:104E400068616C74756E6720696E7465726E205649
:104E50004552534147540D0A0045696E73636861BA
:104E60006C74756E6720696E7465726E0D0A000D44
:104E70000A00202020202020676577616E64656C21
:104E80007420696E3A200020282B2575290D0A0010
:104E900041736369692D56657261726265697475E3
:104EA0006E673A200020756E642056657273696FD4
:104EB0006E2025750D0A00436C69656E742D536F65
:104EC000636B657420547870206572666F6C6772CE
:104ED000656963682067656F6566666E6574202D19
:104EE0003E2073656E6465204475726368776168FF
:104EF0006C20257500436C69656E742D536F636B70
:104F00006574204173636969206572666F6C6772AE
:104F1000656963682067656F6566666E6574202DD8
:104F20003E2045696E736368616C742D51756974B8
:104F300074756E6720616E205457490D0A00212058
:104F4000536F636B6574206B6F6E6E7465206E6952
:104F500063687420657273746D616C69672067653E
:104F60006F6566666E65742077657264656E0D0A9E
:104F70000021205465696C6E65686D6572206973E7
:104F8000742047454C4F45534348540D0A00436C29
:104F900069656E742D536F636B657420534D545067
:104FA000206572666F6C6772656963682067656FFC
:104FB0006566666E6574202D3E2045696E73636874
:104FC000616C742D5175697474756E6720616E2003
:104FD0005457490D0A00206E69636874206765663E
:104FE000756E64656E0D0A0021204950207A752087
:104FF00055726C200020506F72742025750D0A00C8
:10500000203D200056657262696E64756E6773613B
:105010007566626175207A752055726C200020508B
:105020006F72742025750D0A0056657262696E6490
:10503000756E6773617566626175207A7520495077
:105040002000290D0A00204950206E6963687420F1
:1050500062656B616E6E7420284F6566666E756E54
:10506000672066756572200021205465696C6E6545
:10507000686D65722D5365727665722000290D0A80
:105080000020474553434845495445525420284F32
:105090006566666E756E67206675657220002120F4
:1050A00056657262696E64756E6773766572737544
:1050B000636820616E205465696C6E65686D657209
:1050C0002D53657276657220002E0D0A00206865EA
:1050D0007267657374656C6C742066756572200008
:1050E00056657262696E64756E6720616E205465E4
:1050F000696C6E65686D65722D5365727665722098
:1051000000290D0A0020776567656E204665686C8A
:1051100065726E206E6F636820676573706572726A
:10512000742120284F6566666E756E67206675650A
:105130007220005465696C6E65686D65722D5365EB
:105140007276657220005765636873656C206E61C6
:105150006368204D6F647573205075666665724490
:105160007275636B556E645363686C757373202836
:10517000766F6E202564290D0A0057656368736594
:105180006C206E616368204D6F6475732052756882
:10519000652028766F6E202564290D0A0021205293
:1051A0006573657420776567656E206E69636874E2
:1051B0002D41756672756620766F6E207478705F0B
:1051C00074687265616428290D0A0053756D6D65F8
:1051D0002F416E7A203D20256C752F257520204D9E
:1051E0006178203D2025752020416E7A55656265E5
:1051F000724772656E7A65203D202575007478705F
:105200002D746C6E7665727A2E63676900202F208C
:10521000253032580D0A005478503A202120456537
:1052200070726F6D204C6164656665686C65722094
:105230002564003C2F623E3C62723E003C623E00B0
:105240002025733C62723E003A20002025753C62A6
:10525000723E0020257320282575293C62723E008D
:1052600020257520003C62723E003C62723E003C8C
:1052700062723E003A2025733C62723E003C6272CC
:105280003E003C696E707574206E616D653D2261F3
:105290006C746E756D6D65722220747970653D2237
:1052A00068696464656E222076616C75653D2225AF
:1052B0006C64223E007478702D746C6E7665727A20
:1052C0002E636769003C2F7461626C653E003C2F61
:1052D0007461626C653E3C2F666F726D3E003C2FC0
:1052E000666F726D3E003C2F613E3C2F74643E3C05
:1052F0002F74723E3C2F7461626C653E003C747288
:105300003E3C74643E26233136303B3C2F74643E71
:105310003C74643E26233136303B3C2F74643E3C63
:1053200074643E26233136303B3C2F74643E3C741B
:10533000643E26233136303B3C2F74643E3C74641B
:105340003E26233136303B3C2F74643E3C74643E31
:1053500026233136303B3C2F74643E3C74643E2639
:10536000233136303B3C2F74643E3C74643E26232C
:105370003136303B3C2F74643E3C74643E3C6120CB
:10538000687265663D227478702D746C6E766572F5
:105390007A2E6367693F656469743D30223E003C44
:1053A00074643E26233136303B3C2F74643E3C2FE0
:1053B00074723E003C2F613E3C2F74643E3C2F745F
:1053C000723E003C74643E3C6120687265663D221A
:1053D0007478702D746C6E7665727A2E6367693F8F
:1053E000656469743D256C64223E003C74642061F0
:1053F0006C69676E3D2263656E746572223E25306E
:1054000032752E253032752E2530347520253032F8
:10541000643A253032643A253032643C2F74643E5D
:10542000003C2F74643E3C74643E26233136303B8E
:105430003C2F74643E3C74643E26233136303B3C42
:105440002F74643E3C74643E26233136303B3C2F3F
:1054500074643E003C2F74643E3C746420616C694B
:10546000676E3D226C656674223E25733C2F746422
:105470003E3C746420616C69676E3D2263656E74A6
:105480006572223E26233136303B3C2F74643E3C0D
:1054900074643E26233136303B3C2F74643E003C1E
:1054A0002F74643E3C746420616C69676E3D226CAD
:1054B000656674223E25733C2F74643E3C74642000
:1054C000616C69676E3D2263656E746572223E256C
:1054D000753C2F74643E3C74643E26233136303B69
:1054E0003C2F74643E003C2F74643E3C7464206125
:1054F0006C69676E3D226C656674223E3C61206873
:105500007265663D22687474703A2F2F25732220CD
:105510007461726765743D225F626C616E6B223EDE
:1055200025733C2F613E3C2F74643E3C74642061C3
:105530006C69676E3D2263656E746572223E2575E7
:105540003C2F74643E3C746420616C69676E3D223C
:1055500063656E746572223E25733C2F74643E0051
:105560003C2F74643E3C746420616C69676E3D221C
:105570006C656674223E002000200020003C7464AC
:1055800020616C69676E3D226C656674223E2573EE
:105590003C2F74643E3C74643E26233136303B001D
:1055A0003C74723E3C746420616C69676E3D22728B
:1055B00069676874223E256C643C2F74643E003C2D
:1055C0002F613E3C62723E003C6120687265663D20
:1055D000227478702D746C6E7665727A2E636769AA
:1055E0003F616C6C657A656967656E223E003C665A
:1055F0006F726D20616374696F6E3D227478702DD7
:10560000746C6E7665727A2E636769223E006C6FE9
:10561000616400636C6561720073617665006C6F34
:10562000636B006C6F63616C007479706500647506
:105630007263687761686C00706F72740061647285
:1056400065737365006E616D6500616C746E756D78
:105650006D6572006E756D6D6572006564697400CC
:10566000616C6C657A656967656E003A2025750026
:105670003A202575003C62723E003A20256C750088
:105680003A20256C75003C62723E003A202573007A
:105690003A202573003C62723E00223E3C2F746427
:1056A0003E3C2F74723E3C2F7461626C653E3C2F11
:1056B000666F726D3E003C74723E3C74643E3C2FDB
:1056C00074643E3C74643E3C696E707574207479F9
:1056D00070653D227375626D6974222076616C7508
:1056E000653D22003C2F73656C6563743E3C2F74EE
:1056F000643E003C2F6F7074696F6E3E003C6F70AB
:1057000074696F6E3E003C6F7074696F6E207365D4
:105710006C65637465643E00222073697A653D227E
:1057200031223E003A3C2F74643E3C74643E3C732C
:10573000656C656374206E616D653D22003C74721A
:105740003E3C746420616C69676E3D2272696768D3
:1057500074223E003E3C2F74643E3C2F74723E0027
:1057600020636865636B6564002220747970653D11
:1057700022636865636B626F78222076616C756561
:105780003D223122002220747970653D22746578B3
:1057900074222073697A653D222564222076616C2B
:1057A00075653D22257322206D61786C656E677486
:1057B000683D222564223E3C2F74643E3C2F747267
:1057C0003E002220747970653D2274657874222031
:1057D00073697A653D222564222076616C75653D8A
:1057E00022256C7522206D61786C656E6774683D4A
:1057F000222564223E3C2F74643E3C2F74723E008E
:105800003A3C2F74643E3C74643E3C696E7075741F
:10581000206E616D653D22003C74723E3C746420D4
:10582000616C69676E3D227269676874223E00226E
:105830003E3C7461626C6520626F726465723D22E9
:1058400030222063656C6C70616464696E673D2210
:1058500035222063656C6C73706163696E673D22ED
:1058600030223E003C666F726D20616374696F6E1A
:105870003D2200202530325800253032643A253050
:1058800032643A253032642C253032643A20006686
:1058900061745F77726974655F66696C65207665AF
:1058A0007273616774006661745F77726974655FB3
:1058B00066696C652076657273616774000D0A2BEA
:1058C0002B2B2B2B2B20253032752E253032752E8D
:1058D00025303475202B2B2B2B2B2B0D0A006661CA
:1058E000745F6F70656E5F66696C652064657220B9
:1058F0006E6575656E2044617465692076657273A6
:10590000616774206675657220006661745F6372FA
:10591000656174655F66696C652076657273616741
:1059200074206675657220006661745F6F70656EC5
:105930005F64697220646573204861757074766570
:10594000727A656963686E697320766572736167E0
:1059500074006661745F6765745F6469725F656E29
:105960007472795F6F665F7061746820646573201C
:1059700048617570747665727A656963686E69737B
:1059800020766572736167740070726F745F253082
:1059900034752D253032752D253032755F25303226
:1059A000642D253032642E747874006661745F73E0
:1059B00065656B5F66696C65207665727361677497
:1059C00000546C6E5372760054787020546C6E5391
:1059D000657276657220506F72742025752E0D0ADF
:1059E000003C62723E566F6C6C4162667261676524
:1059F000536572766572496E646578203D20257521
:105A0000003C62723E566F6C6C4162667261676503
:105A100054696D6572456E6465203D202575003CB6
:105A200062723E4C616E6754696D657256616C2896
:105A300026566F6C6C4162667261676554696D656C
:105A40007229203D202575003C62723E53796E63B9
:105A50005761727465456E6465203D202575003C74
:105A600062723E4B75727A54696D657256616C282C
:105A70002653796E63576172746554696D65722936
:105A8000203D202575003C62723E546C6E42756369
:105A9000684C65747A746541656E646572756E678D
:105AA000203D20253032752E253032752E2530349C
:105AB0007520253032643A253032643A253032641C
:105AC000003C62723E546C6E5365727665724B6137
:105AD0006E616C20256420777572646520256C7575
