:100000000C94762D0C94722E0C949D2E0C94C82E6C
:100010000C94F32E0C941E2F0C94492F0C94742FD7
:100020000C949F2F0C94E82D0C94E82D0C94E82D43
:100030000C94E82D0C94E82D0C94E82D0C94E82DEC
:100040000C94E82D0C9453330C94E82D0C94E82D6B
:100050000C94E82D0C940B3B0C94E82D0C94E82D9B
:100060000C94E82D0C94A0340C945F340C9444341C
:100070000C94E82D0C94E82D0C94E82D0C94E82DAC
:100080000C94E82D0C94E82D0C94E82D0C94E82D9C
:100090000C94A4350C9418350C94DB340C94FEBAF3
:1000A0000C94E82D0C94E82D0C94E82D0C94E82D7C
:1000B0000C94E82D0C94E82D0C94E82D0C94E82D6C
:1000C0000C94E82D0C94E82D0C94E82D0C0D0E0FDB
:1000D000253032783A253032783A253032783A2550
:1000E0003032783A253032783A253032780025643B
:1000F0002E25642E25642E25640044484350206D2F
:10010000736720747970652035332076616C75656E
:100110002025750D0A0044484350206D73672074F4
:100120007970652035332076616C75652025750DF5
:100130000A004950004D41534B00444E5300474183
:10014000544500444843502D436F6E6669672067ED
:1001500065686F6C740D0A00444843502D436F6E00
:10016000666967204665686C67657363686C61677C
:10017000656E0D0A00207C2D3E20566572737563F6
:10018000686520444843502D436F6E666967207A46
:100190007520686F6C656E2E2000206665686C6740
:1001A000657363686C6167656E0D0A00206665683B
:1001B0006C67657363686C6167656E0D0A00205A31
:1001C0006569743A20253032643A253032643A2524
:1001D0003032642E253032640D0A004E545053459F
:1001E00052564552005554435A4F4E4500207C2DDF
:1001F0003E204E54502D536572766572205A6569C3
:100200007420616B7475616C6973696572656E3AAF
:10021000006F6E004E545000207C202020444E532E
:10022000202020203A2025730D0A00207C20202049
:10023000476174657761793A2025730D0A00207C47
:100240002020204E65746D61736B3A2025730D0A72
:1002500000207C202020495020202020203A2025EA
:10026000730D0A006F6E00444843500044484350E9
:1002700000207C2D3E20544350202848757272691E
:1002800063616E2D656E67696E652920696E69749C
:1002900069616C6973696572740D0A00207C2D3E7A
:1002A000205544502028546F726E61646F2D656E26
:1002B00067696E652920696E697469616C69736923
:1002C0006572740D0A002D2B2D3E2041525020697D
:1002D0006E697469616C6973696572740D0A0020D6
:1002E0004C696E6B2072656164790D0A0020467559
:1002F0006C6C6475706C65783A00454E4332386AB0
:10030000363020285265762E3A2025642920696EE1
:10031000697469616C697369657274202820485733
:100320002D4164643A20253032783A253032783ACB
:10033000253032783A253032783A253032783A25ED
:100340003032782029004D4143004D4143004D4358
:1003500050636F6E666967000D0A000A002563002E
:10036000436F6E6669672069737420256420627923
:100370007465732067726F73732C20256420627913
:1003800074652077657264656E2062656E75747A37
:10039000742E204F66667365742025640D0A0D0A5D
:1003A000004F46460057524954455F50524F5445FE
:1003B00043540020496E697469616C6973696572A0
:1003C000740D0A00204572726F720D0A0054485273
:1003D000454144005348454C4C0046696C6573796F
:1003E0007374656D004D4D432F5344004558544977
:1003F0004E5400436F6E666967004C45445F636FFF
:10040000726500434C4F434B005354444F555400C6
:10041000554152540054656C657850686F6E654E56
:1004200065742E2E2E0D0A003EFFFFFF3F34353639
:100430003738393A3B3C3DFFFFFFFFFFFFFF00012C
:1004400002030405060708090A0B0C0D0E0F101114
:100450001213141516171819FFFFFFFFFFFF1A1BC1
:100460001C1D1E1F202122232425262728292A2B54
:100470002C2D2E2F303132334142434445464748DC
:10048000494A4B4C4D4E4F50515253545556575864
:10049000595A6162636465666768696A6B6C6D6E00
:1004A0006F707172737475767778797A3031323310
:1004B0003435363738392B2F002F6E69632F75701E
:1004C000646174653F686F73746E616D653D25731B
:1004D000006D656D626572732E64796E646E732E45
:1004E0006F726700636865636B69702E64796E6410
:1004F0006E732E6F72670047455420002048545495
:10050000502F312E300D0A557365722D4167656E7F
:10051000743A20576765742F312E31312E340D0A0D
:100520004163636570743A202A2F2A0D0A486F735D
:10053000743A20000D0A417574686F72697A6174AB
:10054000696F6E3A2042617369632025730D0A0D4D
:100550000A000D0A0D0A002F00436F6E74656E7459
:100560002D4C656E6774683A2000485454502F3102
:100570002E000D0A00436F6D6D616E64733A0D0AB3
:100580000D0A0068656C7000485454502F312E30AD
:10059000203430330D0A436F6E74656E742D5479B8
:1005A00070653A20746578742F68746D6C0D0A4B11
:1005B0006565702D416C6976653A20636C6F736573
:1005C0000D0A0D0A3C48544D4C3E3C424F44593EA6
:1005D0003430332046696C65206E6F7420666F7509
:1005E0006E64213C2F424F44593E3C2F48544D4CA1
:1005F0003E0D0A0D0A00504F535400474554006801
:100600007474706400485454502D5365727665724A
:1006100020506F72742025642E0D0A00696E646587
:10062000782E68746D6C003C2F424F44593E3C2F2D
:1006300048544D4C3E0D0A0D0A003C48544D4C3E6A
:100640003C484541443E3C6D65746120687474705B
:100650002D65717569763D226578706972657322C2
:1006600020636F6E74656E743D2230223E3C2F48CD
:100670004541443E3C424F44593E00485454502F5B
:10068000312E302032303020446F63756D656E74CA
:1006900020666F6C6C6F77730D0A436F6E74656EB6
:1006A000742D547970653A20746578742F68746D70
:1006B0006C0D0A43616368652D436F6E74726F6CD5
:1006C0003A206E6F2D63616368650D0A436F6E6E2D
:1006D000656374696F6E3A20636C6F73650D0A0D04
:1006E0000A00696E6465782E68746D6C003C48542D
:1006F0004D4C3E3C484541443E3C5449544C453E9B
:10070000547850322D4E6574202D20446173204959
:100710006E7465726E65742D496E74657266616380
:1007200065207A756D2054656C657850686F6E65CC
:1007300020323C2F5449544C453E3C2F48454144BF
:100740003E3C6672616D6573657420726F77733DB0
:100750002236342C34302C2A2C343022207363720D
:100760006F6C6C696E673D226E6F22206672616DE0
:1007700065626F726465723D22322220626F72641C
:1007800065723D223222206672616D65737061630D
:10079000696E673D22322220626F72646572636FF8
:1007A0006C6F723D2223303030303030223E3C6658
:1007B00072616D65207372633D22686561646C6966
:1007C0006E652E68746D6C22206E616D653D224EE3
:1007D000617669676174696F6E3122207363726F2D
:1007E0006C6C696E673D226175746F223E3C667267
:1007F000616D65207372633D226D61696E6D656E1A
:10080000752E68746D6C22206E616D653D224E619F
:100810007669676174696F6E3222207363726F6CE0
:100820006C696E673D226175746F223E3C66726131
:100830006D65207372633D22696E666F2E68746DFC
:100840006C22206E616D653D226D61696E223E3CB9
:100850006672616D65207372633D22737461747397
:100860002E63676922206E616D653D22757064613B
:10087000746522207363726F6C6C696E673D2261D0
:1008800075746F223E3C6E6F6672616D65733E3C9F
:10089000626F64793E3C703E4968722042726F77A5
:1008A00073657220756E74657273742675756D6CE0
:1008B0003B747A74206B65696E65204672616D6564
:1008C00073213C2F703E3C2F626F64793E3C2F6E4B
:1008D0006F6672616D65733E3C2F6672616D657304
:1008E00065743E3C2F48544D4C3E0D0A0D0A00687D
:1008F0006561646C696E652E68746D6C003C48546B
:100900004D4C3E3C424F445920746578743D22233F
:1009100030303030433022207374796C653D226270
:1009200061636B67726F756E642D696D6167653A9F
:1009300075726C286C6F6368737472656966656E36
:100940002D68672E706E6729223E3C7370616E20A1
:100950007374796C653D22666F6E743A20626F6CB9
:100960006420343070782027436F75726965722077
:100970004E6577272C274C756369646120436F6E41
:10098000736F6C65272C6D6F6E6F73706163653B61
:1009900020223E3C623E547850322D4E6574202D0C
:1009A0002044617320496E7465726E65742D496EC2
:1009B00074657266616365207A756D2054656C6537
:1009C0007850686F6E653C2F623E3C2F7370616E8D
:1009D0003E3C2F424F44593E3C2F48544D4C3E0D17
:1009E0000A0D0A006C6F6368737472656966656EE0
:1009F0002D68672E706E670089504E470D0A1A0ADF
:100A00000000000D49484452000002250000003F4C
:100A10000403000000CD91A50C00000030504C54A0
:100A200045FFFF66C0C0C0FF0000000000000000DE
:100A300000000000000000000000000000000000B6
:100A400000000000000000000000000000000000A6
:100A500000C3145A13000000097048597300000BBA
:100A60001300000B1301009A9C180000027F4944F8
:100A7000415478DAED5B5B72C3200CB47302ABF7C0
:100A80003F6CE33CA8C9EAB124D30969573F558CB0
:100A900084F10E428BA0CB22799093201026C2E4E1
:100AA000594CD6EDFCD7968372914EB934A1B0362D
:100AB000AD2978C5E23E093A5C466D82612498AC66
:100AC00066DB62663FCAB58FA3726972DE43DAB431
:100AD000A6E015D8E1ED57FDC18CCDEDCD07E3DCE7
:100AE0006B3A4CB6E36718F1A9C64D9373CFCDB8F6
:100AF000F03AEDD6B61B6D4DB9BBFD28E67642DB6C
:100B0000B426FF15D86133263ED5C869F2300C6192
:100B10003288896247987C202653E41D09CFD990FA
:100B2000DB18C98890CE55EE051B4C781DE3855423
:100B30002DA7A061ECB4A91E4CEC384030AC2AF7CC
:100B400060AA770A36D15E18327EECDCBD26C5A4D9
:100B50002DB690AF9D2785172EADC11A7BF78AF869
:100B600009E6F1351E0CF29380E70C4C138EC3306E
:100B70005E484B0ABA254C3C4C143B183BC2E4433C
:100B8000307973DE9188C70A932731D9A368DD03D2
:100B90004CCA55F1D6D8F72A9705707DA7224C3C50
:100BA0004C1432183B4EADE09F2BCA3BCAC5AFD7A1
:100BB000D9FA529511352BCBBDB009CB74D8615001
:100BC0000034D72629A6255E479B74BFD36F7CB01F
:100BD000DA5CEC89D00B9B9CED5267DC27856E0BB1
:100BE000D3EF6EBA0C126C6A12AFA3CD7C98F49B53
:100BF000D67606815BDD6E17DC9E249BDFC4ABB32B
:100C0000496B4A5D5926384A4BEA4EE8854DC52165
:100C10005D52EC42F7EAB02FF1EA6C848987896271
:100C200007634798CC8FC90C7947F20A67634E4235
:100C300019D265041B2C0E37939359FA8437247804
:100C400003B1C354A41363BF58EDC4971F29556D56
:100C50009971C73AB6DBF37C98042B6A7106D1DB35
:100C600024F758708D051B9E9F30A77E0CC1A838B5
:100C70004C721C397C3D2C6150099911261E268A24
:100C80001D8C1D61323F2633E41D09C5D982625A8D
:100C9000C2EB98FF535808363824C317DB98F10489
:100CA000B1136C6A92F862EE8B06900CDCD4F142C0
:100CB000A6681ABA96F0073019BE88527965FCC446
:100CC0002F1C251C86B9931F8FDE9E9E268397B806
:100CD00098F10813C50E1F3BC2447987C93B1261C6
:100CE000224C848930F93D4C4CF2205FDF827D013B
:100CF000B9877BC8E30000000049454E44AE42601E
:100D0000826D61696E6D656E752E68746D6C003CE8
:100D100048544D4C3E3C484541443E3C6C696E6BEA
:100D20002072656C3D227374796C657368656574B7
:100D30002220747970653D22746578742F63737313
:100D40002220687265663D227374796C652E637328
:100D500073223E3C2F484541443E3C424F4459207B
:100D60006267636F6C6F723D2223433046464330A7
:100D7000223E3C6120687265663D22696E666F2E78
:100D800068746D6C227461726765743D226D61696F
:100D90006E223E496E666F726D6174696F6E656E2C
:100DA0003C2F613E202F203C6120687265663D2209
:100DB0007478702D6D656E752E68746D6C223E545E
:100DC000656C657850686F6E653C2F613E202F2002
:100DD0003C6120687265663D226E6574776F726B48
:100DE0002E68746D6C223E4E65747A7765726B3C2A
:100DF0002F613E202F203C6120687265663D227382
:100E0000797374656D2E68746D6C223E53797374BA
:100E1000656D3C2F613E3C2F424F44593E3C2F486C
:100E2000544D4C3E0D0A0D0A006E6574776F726B5F
:100E30002E68746D6C003C48544D4C3E3C48454116
:100E4000443E3C6C696E6B2072656C3D2273747914
:100E50006C6573686565742220747970653D2274D1
:100E60006578742F6373732220687265663D227300
:100E700074796C652E637373223E3C2F4845414460
:100E80003E3C424F4459206267636F6C6F723D2253
:100E900023433046464330223E3C612068726566FB
:100EA0003D226D61696E6D656E752E68746D6C2284
:100EB0003E7A75727565636B3C2F613E202F203C36
:100EC0006120687265663D226E6574776F726B2E65
:100ED00063676922207461726765743D226D616980
:100EE0006E223E496E666F733C2F613E202F203C80
:100EF0006120687265663D226E6574776F726B2E35
:100F00006367693F636F6E66696722207461726709
:100F100065743D226D61696E223E4B6F6E66696736
:100F200075726174696F6E3C2F613E3C2F424F4475
:100F3000593E3C2F48544D4C3E0D0A0D0A00737922
:100F40007374656D2E68746D6C003C48544D4C3E56
:100F50003C484541443E3C6C696E6B2072656C3D7B
:100F6000227374796C657368656574222074797076
:100F7000653D22746578742F6373732220687265EF
:100F8000663D227374796C652E637373223E3C2F29
:100F9000484541443E3C424F4459206267636F6C70
:100FA0006F723D2223433046464330223E3C61204F
:100FB000687265663D226D61696E6D656E752E683D
:100FC000746D6C223E7A75727565636B3C2F613E61
:100FD000202F203C6120687265663D227265736532
:100FE000742E63676922207461726765743D226D97
:100FF00061696E223E52657365743C2F613E202FFD
:10100000203C6120687265663D226E74702E6367B5
:101010006922207461726765743D226D61696E2278
:101020003E4E54503C2F613E202F203C6120687280
:1010300065663D2264796E646E732E636769222053
:101040007461726765743D226D61696E223E4479F8
:101050006E444E533C2F613E202F203C612068722D
:1010600065663D2265656D656D2E63676922207436
:1010700061726765743D226D61696E223E45456D02
:10108000656D3C2F613E202F203C612068726566B3
:101090003D2263726F6E2E636769222074617267EE
:1010A00065743D226D61696E223E63726F6E3C2FE6
:1010B000613E3C2F424F44593E3C2F48544D4C3EDC
:1010C0000D0A0D0A00696E666F2E68746D6C003C27
:1010D00048544D4C3E3C424F44593E3C7072653E34
:1010E0003C703E202057656C636F6D65206F6E0D00
:1010F0000A5F5F5F5F5F5F5F5F5F5F5F5F5F5F5F55
:101100005F5F5F5F5F5F5F5F5F5F5F5F5F5F5F5FEF
:101110005F5F5F5F5F5F5F5F5F5F5F5F5F5F5F5FDF
:101120005F5F5F5F5F5F5F5F5F5F5F5F5F5F5F5FCF
:101130005F5F5F5F5F5F5F5F5F5F5F0D0A204F4FC5
:101140004F4F4F20204F4F4F4F4F20204F202020F8
:101150002020204F4F4F4F4F20204F2020204F2046
:101160002020202020204F4F4F4F2020204F202094
:10117000204F2020204F4F4F2020204F2020204F55
:1011800020204F4F4F4F4F0D0A2020204F2020206E
:10119000204F2020202020204F2020202020204FC2
:1011A000202020202020204F204F202020202020E1
:1011B00020204F2020204F20204F2020204F202073
:1011C0004F2020204F20204F4F20204F20204F2005
:1011D0002020200D0A202E2E2E2E2E2E2E2E2E2EAC
:1011E0002E2E2E2E2E2E2E2E2E2E2E2E2E2E2E2E1F
:1011F0002E2E2E2E2E2E2E2E2E2E2E2E2E2E2E2E0F
:101200002E2E2E2E2E2E2E2E2E2E2E2E2E2E2E2EFE
:101210002E2E2E2E2E2E2E2E2E2E2E2E2E2E2E0D0F
:101220000A2020204F202020204F4F4F2020202018
:101230004F2020202020204F4F4F202020202020F2
:101240004F202020204F4F4F20204F4F4F4F202026
:10125000204F4F4F4F4F20204F2020204F20204F16
:10126000204F204F20204F4F4F20200D0A202020BC
:101270004F202020204F2020202020204F202020E1
:101280002020204F202020202020204F204F2020D1
:101290002020202020204F2020202020204F2020F0
:1012A000204F20204F2020204F20204F20204F4F24
:1012B00020204F202020200D0A2020204F202020F9
:1012C000204F4F4F4F4F20204F4F4F4F4F20204F19
:1012D0004F4F4F4F20204F2020204F2020202020F4
:1012E00020204F2020202020204F2020204F202071
:1012F000204F4F4F2020204F2020204F20204F4FA5
:101300004F4F4F0D0A5F5F5F5F5F5F5F5F5F5F5FC4
:101310005F5F5F5F5F5F5F5F5F5F5F5F5F5F5F5FDD
:101320005F5F5F5F5F5F5F5F5F5F5F5F5F5F5F5FCD
:101330005F5F5F5F5F5F5F5F5F5F5F5F5F5F5F5FBD
:101340005F5F5F5F5F5F5F5F5F5F5F5F5F5F5F0DFF
:101350000A0D0A6275696C64206F6E204156522D29
:101360006C6962632076657273696F6E3A20312E04
:10137000362E372F3230303930373032207769749B
:1013800068206176722D67636320342E332E332CF0
:1013900020446174653A204A756C20203220323036
:1013A00031322031373A32363A3130200D0A0D0AC7
:1013B000286329323030362D32303132202020530C
:1013C0006F6674776172653A204672656420536F68
:1013D0006E6E656E7265696E0D0A6261736564207A
:1013E0006F6E204F70656E4D4350206279204469C6
:1013F000726B2042726F73737769636B0D0A3C2FB7
:101400007072653E3C2F703E3C2F424F44593E3C2B
:101410002F48544D4C3E0D0A007374796C652E6351
:101420007373004063686172736574202249534F7F
:101430002D383835392D31220D0A202020613A6CA3
:10144000696E6B207B20746578742D6465636F72A0
:101450006174696F6E3A6E6F6E653B20666F6E7475
:101460002D7765696768743A626F6C643B20636FBF
:101470006C6F723A233030303041303B207D200D8C
:101480000A202020613A76697369746564207B20A4
:10149000746578742D6465636F726174696F6E3AF8
:1014A0006E6F6E653B20666F6E742D776569676839
:1014B000743A626F6C643B20636F6C6F723A2341C5
:1014C00030303041303B207D200D0A202020613A11
:1014D000686F766572207B20746578742D6465630F
:1014E0006F726174696F6E3A6E6F6E653B20666FE6
:1014F0006E742D7765696768743A626F6C643B201F
:101500006261636B67726F756E642D636F6C6F726F
:101510003A234646434343433B207D200D0A202087
:1015200020613A616374697665207B207465787404
:101530002D6465636F726174696F6E3A6E6F6E656C
:101540003B20666F6E742D7765696768743A626FC9
:101550006C643B206261636B67726F756E642D63B0
:101560006F6C6F723A234646464643433B207D20CC
:101570000D0A202020613A666F637573207B20740A
:101580006578742D6465636F726174696F6E3A6E0D
:101590006F6E653B20666F6E742D77656967687442
:1015A0003A626F6C643B206261636B67726F756E49
:1015B000642D636F6C6F723A234343434346463B4B
:1015C000207D200D0A202020707265207B206F7600
:1015D0006572666C6F773A207363726F6C6C3B2038
:1015E0007D0D0A007478702D6D656E752E68746DB2
:1015F0006C003C48544D4C3E3C484541443E3C6C9C
:10160000696E6B2072656C3D227374796C657368CA
:101610006565742220747970653D22746578742F35
:101620006373732220687265663D227374796C65FA
:101630002E637373223E3C2F484541443E3C424F4B
:101640004459206267636F6C6F723D2223433046BA
:10165000464330223E3C6120687265663D226D61E2
:10166000696E6D656E752E68746D6C223E7A75724A
:101670002675756D6C3B636B3C2F613E202F203CC3
:101680006120687265663D227478702D6D73672ED7
:1016900068746D6C22207461726765743D226D619F
:1016A000696E223E4E616368726963687420736577
:1016B0006E64656E3C2F613E202F203C6120687275
:1016C00065663D227478702D746C6E7665727A2E24
:1016D00063676922207461726765743D226D616978
:1016E0006E223E5465696C6E65686D65722D566537
:1016F000727A656963686E69733C2F613E202F20A2
:101700003C6120687265663D227478706366672D5F
:101710006D656E752E68746D6C223E5478502D4543
:10172000696E7374656C6C756E67656E3C2F613E97
:10173000202F203C6120687265663D227478702DF0
:1017400064656275672E63676922207461726765DC
:10175000743D226D61696E223E44656275672D4954
:101760006E666F733C2F613E202F203C61206872B3
:1017700065663D227478702D747769746C6E6C693F
:101780007374652E63676922207461726765743DA6
:10179000226D61696E223E4275732D546C6E2D4C24
:1017A000697374653C2F613E202F203C6120687274
:1017B00065663D2273646469722E636769222074D2
:1017C00061726765743D226D61696E223E53442DDE
:1017D0004B617274653C2F613E3C2F424F44593E31
:1017E0003C2F48544D4C3E0D0A0D0A00747870632E
:1017F00066672D6D656E752E68746D6C003C48547F
:101800004D4C3E3C484541443E3C6C696E6B2072F9
:10181000656C3D227374796C65736865657422200C
:10182000747970653D22746578742F637373222018
:10183000687265663D227374796C652E63737322DA
:101840003E3C2F484541443E3C424F44592062674C
:10185000636F6C6F723D2223433046464330223E15
:101860003C6120687265663D227478702D6D656EEE
:10187000752E68746D6C223E7A75722675756D6C66
:101880003B636B3C2F613E202F203C6120687265DA
:10189000663D227478706366672D696E7465726E3A
:1018A0002E63676922207461726765743D226D61E1
:1018B000696E223E45696E7374656C6C756E676502
:1018C0006E20696D206C6F6B616C656E2054785072
:1018D0002D53797374656D3C2F613E202F203C6140
:1018E00020687265663D227478706366672D65783E
:1018F0007465726E2E636769222074617267657405
:101900003D226D61696E223E45696E7374656C6C33
:10191000756E67656E20696D2069702D74656C65E4
:10192000782D4E65747A3C2F613E3C2F424F4459CE
:101930003E3C2F48544D4C3E0D0A0D0A0074787001
:101940002D6D73672E68746D6C003C48544D4C3E91
:101950003C484541443E3C2F484541443E3C66722C
:10196000616D6573657420726F77733D222A2C3622
:101970003022207363726F6C6C696E673D226E6FEC
:1019800022206672616D65626F726465723D2232FB
:101990002220626F726465723D223222206672617B
:1019A0006D6573706163696E673D22322220626FDC
:1019B00072646572636F6C6F723D22233030303019
:1019C0003030223E3C6672616D65207372633D2249
:1019D0007478702D6D73672D6F75742E636769222F
:1019E000206E616D653D224D73674F7574222073C3
:1019F00063726F6C6C696E673D226175746F223E15
:101A00003C6672616D65207372633D227478702D3F
:101A10006D73672D696E2E63676922206E616D6537
:101A20003D224D7367496E22207363726F6C6C693F
:101A30006E673D226E6F223E3C6E6F6672616D6511
:101A4000733E3C626F64793E3C703E49687220424E
:101A5000726F7773657220756E7465727374C3BC30
:101A6000747A74206B65696E65204672616D65736A
:101A7000213C2F703E3C2F626F64793E3C2F6E6F8D
:101A80006672616D65733E3C2F6672616D6573654C
:101A9000743E3C2F48544D4C3E0D0A0D0A00282040
:101AA000256C642042797465207565626572747274
:101AB0006167656E20285344290D0A00485454502C
:101AC00020736F636B657420636C6F736564206251
:101AD0007920636C69656E740D0A00485454502F68
:101AE000312E302032303020446F63756D656E7456
:101AF00020666F6C6C6F77730D0A436F6E74656E42
:101B0000742D4C656E6774683A20256C640D0A4329
:101B10006F6E74656E742D547970653A2025732547
:101B2000730D0A43616368652D436F6E74726F6C49
:101B30003A206D61782D6167653D333630300D0A8E
:101B4000436F6E6E656374696F6E3A20636C6F737A
:101B5000650D0A0D0A00746578742F0068746D00B5
:101B600068746D6C002820256C64204279746520AF
:101B7000756562657274726167656E2028464C41B6
:101B80005348290D0A000D0A436F6E74656E742D5B
:101B90004C656E6774683A2025640D0A436163687A
:101BA000652D436F6E74726F6C3A206D61782D6194
:101BB00067653D333630300D0A436F6E6E65637472
:101BC000696F6E3A20636C6F73650D0A0D0A0062CF
:101BD000696E00746578742F68746D6C006A706546
:101BE0006700706E6700485454502F312E302032F9
:101BF000303020446F63756D656E7420666F6C6C59
:101C00006F77730D0A436F6E74656E742D5479701F
:101C1000653A20000D0A002066726F6D200068741E
:101C200074702D726571756573743A2000687474F0
:101C3000702D7365727665723A20257320003E2000
:101C40000051756974696E670D0A007175697400D9
:101C5000556E642C206C6F73206765687427732E33
:101C60002E2E21212120282268656C70222068698F
:101C70006C6674203A2D29290D0A3E200074656C8B
:101C80006E65740054656C6E65742D53657276656F
:101C90007220506F72742025642E0D0A0043524F3B
:101CA0004E5F454E5452595F253032640025643AE8
:101CB000206E696368742062656C6567740D0A0044
:101CC00025643A2025642025642025730D0A0063CD
:101CD000726F6E00666F6F2E636769002573202F29
:101CE000202573202F2025640D0A0049502F4D41D7
:101CF000432F54544C0D0A00617270003C2F424F28
:101D000044593E3C2F48544D4C3E0D0A0D0A003CB0
:101D100048544D4C3E3C484541443E3C6D657461E1
:101D200020687474702D65717569763D22726566E0
:101D3000726573682220636F6E74656E743D22361F
:101D400030303B20223E3C5449544C453E53747243
:101D500065616D696E673C2F5449544C453E3C2F7C
:101D6000484541443E3C424F4459206267636F6C92
:101D70006F723D222332323842323222207465782B
:101D8000743D2223464646464646223E5A656974BD
:101D90003A20253032643A253032643A25303264B4
:101DA0002E2530326420282025752F25752F2530CB
:101DB000347520290050485354415432207C20303F
:101DC00078253034580D0A0050485354415431207E
:101DD0007C203078253034580D0A005265762E4923
:101DE0004420207C2020203078253032580D0A00F5
:101DF0002D2D2D2D2D2D2D2D2B2D2D2D2D2D2D2D15
:101E00002D0D0A005265672E202020207C2057656A
:101E100072740D0A00454E4332384A36303A0D0A84
:101E2000005443502D5458204572726F72733A20FB
:101E30002564205443502D5258204572726F72739E
:101E40003A2025642028756E736F727465642025AE
:101E5000642C206F6C64736571202564290D0A0D54
:101E60000A0045746865726E65743A20256C6420BA
:101E7000427974657320696E20256C64205061631B
:101E80006B6574656E204C6F636B4572726F727315
:101E900020256C640D0A0073746174732E63676986
:101EA00000737461747300526573657400726573B6
:101EB0006574007265736574007265736574003CC7
:101EC000666F726D20616374696F6E3D2272657317
:101ED00065742E63676922206D6574686F643D22A6
:101EE00067657422206163636570742D6368617235
:101EF0007365743D2249534F2D383835392D3122C1
:101F00003E3C703E3C696E70757420747970653D1E
:101F1000227375626D697422206E616D653D227257
:101F200065736574222076616C75653D22726573F8
:101F30006574223E3C2F703E3C2F666F726D3E00F2
:101F400072657365742E63676900726573657400EA
:101F5000646E73203C686F73746E616D653E0D0A2C
:101F6000004950207A75202573203D2025730D0AE5
:101F700000646E730044484350004950004D415383
:101F80004B004741544500444E53004D41430045EA
:101F9000696E7374656C6C756E67656E20756562CD
:101FA00065726E6F6D6D656E210D0A003C74723E38
:101FB0003C746420616C69676E3D22726967687465
:101FC000223E48617264776172652D4D41433C2F1A
:101FD00074643E3C74643E3C696E707574206E613E
:101FE0006D653D224D41432220747970653D227418
:101FF000657874222073697A653D22313722207614
:10200000616C75653D22257322206D61786C656E6B
:102010006774683D223137223E3C2F74643E3C2F6A
:1020200074723E3C74723E3C74643E3C2F74643E59
:102030003C74643E3C696E70757420747970653DC3
:10204000227375626D6974222076616C75653D221C
:102050002045696E7374656C6C756E6720265575C6
:102060006D6C3B6265726E65686D656E20223E3CEC
:102070002F74643E3C2F74723E3C2F7461626C6519
:102080003E3C2F666F726D3E004D4143003C7472C2
:102090003E3C746420616C69676E3D2272696768BA
:1020A00074223E444E532D5365727665723C2F74F4
:1020B000643E3C74643E3C696E707574206E616D64
:1020C000653D22444E532220747970653D2274652B
:1020D0007874222073697A653D2231352220766139
:1020E0006C75653D22257322206D61786C656E6785
:1020F00074683D223135223E3C2F74643E3C2F747F
:10210000723E00444E53003C74723E3C7464206145
:102110006C69676E3D227269676874223E4761741C
:10212000657761793C2F74643E3C74643E3C696E13
:10213000707574206E616D653D22474154452220C3
:10214000747970653D2274657874222073697A65AC
:102150003D223135222076616C75653D2225732242
:10216000206D61786C656E6774683D223135223E62
:102170003C2F74643E3C2F74723E0047415445002E
:102180003C74723E3C746420616C69676E3D2272DF
:1021900069676874223E4E65747A7765726B6D610B
:1021A000736B653C2F74643E3C74643E3C696E7096
:1021B0007574206E616D653D224D41534B22207434
:1021C0007970653D2274657874222073697A653D63
:1021D000223135222076616C75653D2225732220DF
:1021E0006D61786C656E6774683D223135223E3CC6
:1021F0002F74643E3C2F74723E004D41534B003CA3
:1022000074723E3C746420616C69676E3D22726931
:10221000676874223E49502D416472657373653C52
:102220002F74643E3C74643E3C696E707574206E1D
:10223000616D653D2249502220747970653D22749C
:10224000657874222073697A653D223135222076C3
:10225000616C75653D22257322206D61786C656E19
:102260006774683D223135223E3C2F74643E3C2F1A
:1022700074723E004950003E3C2F74643E3C2F7403
:10228000723E00636865636B6564006F6E003C744A
:10229000723E3C746420616C69676E3D22726967AE
:1022A0006874223E4448435020616B7469766965C6
:1022B00072656E3C2F74643E3C74643E3C696E7083
:1022C000757420747970653D22636865636B626F15
:1022D0007822206E616D653D22444843502220766D
:1022E000616C75653D226F6E2220004448435000AA
:1022F0003C666F726D20616374696F6E3D226E651E
:1023000074776F726B2E636769223E3C7461626CF6
:102310006520626F726465723D2230222063656CB5
:102320006C70616464696E673D2235222063656C60
:102330006C73706163696E673D2230223E00636F8B
:102340006E666967003C2F7072653E0D0A007374FB
:10235000617473006966636F6E666967003C7072D2
:10236000653E0D0A000D0A48572D4164723A20253A
:102370003032783A253032783A253032783A253082
:1023800032783A253032783A253032780D0A0D0A03
:1023900000444E533A25730D0A0047617465776116
:1023A000793A25730D0A004E65746D61736B3A2599
:1023B000730D0A0049503A25730D0A006E65747753
:1023C0006F726B2E636769006966636F6E6669671B
:1023D000004E5450004E54505345525645520055ED
:1023E00054435A4F4E450045696E7374656C6C7565
:1023F0006E67656E2075656265726E6F6D6D656E78
:10240000210D0A003C74723E3C746420616C696763
:102410006E3D227269676874223E534E54502D53AC
:1024200065727665723C2F74643E3C74643E3C6910
:102430006E707574206E616D653D224E545053452B
:10244000525645522220747970653D227465787425
:10245000222073697A653D223235222076616C75BF
:10246000653D22257322206D61786C656E67746806
:102470003D223235223E3C2F74643E3C2F74723E26
:102480003C74723E3C746420616C69676E3D2272DC
:1024900069676874223E5A6569747A6F6E653C2F6D
:1024A00074643E3C74643E3C696E707574206E6169
:1024B0006D653D225554435A4F4E45222074797024
:1024C000653D2274657874222073697A653D2233F4
:1024D000222076616C75653D22257322206D61781E
:1024E0006C656E6774683D2233223E3C2F74643EF7
:1024F0003C2F74723E3C74723E3C74643E3C2F74BC
:10250000643E3C74643E3C696E70757420747970EE
:10251000653D227375626D6974222076616C756504
:102520003D222045696E7374656C6C756E6720265C
:1025300055756D6C3B6265726E65686D656E2022C7
:102540003E3C2F74643E3C2F74723E3C2F7461629B
:102550006C653E3C2F666F726D3E00300074696D95
:10256000652E66752D6265726C696E2E6465003E1F
:102570003C2F74643E3C2F74723E00636865636B4D
:102580006564006F6E003C666F726D2061637469F4
:102590006F6E3D226E74702E636769223E0D3C742F
:1025A00061626C6520626F726465723D2230222028
:1025B00063656C6C70616464696E673D22352220CE
:1025C00063656C6C73706163696E673D2230223E97
:1025D0003C74723E3C746420616C69676E3D22728B
:1025E00069676874223E534E545020616B7469765B
:1025F000696572656E3C2F74643E3C74643E3C6950
:102600006E70757420747970653D22636865636BC4
:10261000626F7822206E616D653D224E54502220FB
:1026200076616C75653D226F6E2220006E7470209D
:102630003C6E74707365727665723E0D0A00466575
:10264000686C65720D0A004E657565205A6569747F
:102650003A20253032643A253032643A25303264EB
:102660000D0A00486F6C65205A65697420766F6E9C
:102670002025730D0A004665686C65720D0A006EB0
:1026800074702E636769006E7470002644594E445E
:102690004E535F5553455250570044594E444E5384
:1026A0005F444F4D41494E0045696E7374656C6CD3
:1026B000756E67656E2075656265726E6F6D6D65AE
:1026C0006E210D0A002D31202D3135202264796EC6
:1026D000646E7320757064617465220044594E44C1
:1026E0004E535F4F4E002D31202D3135202264791D
:1026F0006E646E7320757064617465220044594E77
:10270000444E530044594E444E535F4F4E0044597B
:102710004E444E5300444F4D41494E0044594E449F
:102720004E535F444F4D41494E00444F4D41494E39
:10273000004143434F554E54002644594E444E5396
:102740005F555345525057004143434F554E540037
:102750004143434F554E54003C666F726D20616398
:1027600074696F6E3D2264796E646E732E6367695F
:10277000223E0D203C7461626C6520626F7264655C
:10278000723D2230222063656C6C70616464696EF6
:10279000673D2235222063656C6C73706163696EDE
:1027A000673D2230223E20203C74723E0D202020C6
:1027B0003C746420616C69676E3D2272696768745D
:1027C000223E44796E444E5320616B74697669658C
:1027D00072656E3C2F74643E2020203C74643E3C45
:1027E000696E70757420747970653D2263686563E5
:1027F0006B626F7822206E616D653D2244594E44B4
:102800004E53222076616C75653D226F6E22202525
:1028100073203E20203C2F74643E0D20203C7472B7
:102820003E0D2020203C746420616C69676E3D225F
:102830007269676874223E64796E444E5320416326
:10284000636F756E74202820757365723A707720F7
:10285000293C2F74643E2020203C74643E3C696E09
:10286000707574206E616D653D224143434F554E36
:10287000542220747970653D227465787422207327
:10288000697A653D223331222076616C75653D227F
:1028900022206D61786C656E6774683D2233312249
:1028A0003E3C2F74643E20203C2F74723E0D20204D
:1028B0003C74723E0D2020203C746420616C69677A
:1028C0006E3D227269676874223E44796E444E53AD
:1028D00020446F6D61696E3C2F74643E2020203C63
:1028E00074643E3C696E707574206E616D653D2246
:1028F000444F4D41494E2220747970653D227465E4
:102900007874222073697A653D2233312220766102
:102910006C75653D22257322206D61786C656E674C
:1029200074683D223331223E3C2F74643E20203CAB
:102930002F74723E0D20203C74723E0D2020203CEE
:1029400074643E3C2F74643E3C74643E3C696E701B
:10295000757420747970653D227375626D69742297
:102960002076616C75653D222045696E7374656CD7
:102970006C756E67202655756D6C3B6265726E6571
:10298000686D656E20223E3C2F74643E20203C2FF3
:1029900074723E0D203C2F7461626C653E0D3C2FBD
:1029A000666F726D3E00636865636B6564006F6E91
:1029B0000044594E444E535F4F4E0044594E444ECE
:1029C000535F444F4D41494E0044594E444E535F6E
:1029D000444F4D41494E0064796E646E73203C75DE
:1029E00070646174653E202F203C7365746163637D
:1029F0006F756E7420757365723A70774064796E86
:102A0000646E732D646F6D61696E3E0D0A004163E3
:102A1000636F756E74646174656E2067657370654D
:102A20006963686572742E0D0A007365746163636F
:102A30006F756E740055706461746520667565729B
:102A4000202573206665686C67657363686C6167D1
:102A5000656E0D0A00557064617465206675657257
:102A6000202573206572666F6C6772656963682ED6
:102A70000D0A007570646174650064796E646E732C
:102A80002E6367690064796E646E730064656C0020
:102A900064656C0045696E7374656C6C756E676512
:102AA0006E2075656265726E6F6D6D656E210D0AC3
:102AB00000434D4400256420256420222573220014
:102AC0004D4D00484800434D44003C666F726D20F8
:102AD000616374696F6E3D2263726F6E2E63676906
:102AE000223E3C7461626C6520626F726465723D67
:102AF0002230222063656C6C70616464696E673D8E
:102B00002235222063656C6C73706163696E673D6A
:102B10002230223E3C74723E3C746420616C6967D2
:102B20006E3D227269676874223E5374756E6465E7
:102B30003C2F74643E3C74643E3C696E7075742036
:102B40006E616D653D2248482220747970653D2292
:102B500074657874222073697A653D223322207669
:102B6000616C75653D2230226D61786C656E6774AD
:102B7000683D2233223E3C2F74643E3C2F74723EEB
:102B80003C74723E3C746420616C69676E3D2272D5
:102B900069676874223E4D696E7574653C2F746474
:102BA0003E3C74643E3C696E707574206E616D6568
:102BB0003D224D4D2220747970653D2274657874F4
:102BC000222073697A653D2233222076616C756517
:102BD0003D223022206D61786C656E6774683D22FD
:102BE00033223E3C2F74643E3C2F74723E3C747220
:102BF0003E3C746420616C69676E3D22726967684F
:102C000074223E436F6D6D616E643C2F74643E3C74
:102C100074643E3C696E707574206E616D653D2212
:102C2000434D442220747970653D22746578742286
:102C30002073697A653D22333022206D61786C659E
:102C40006E6774683D223330223E3C2F74643E3CF4
:102C50002F74723E3C74723E3C74643E3C2F74642C
:102C60003E3C74643E3C696E707574207479706586
:102C70003D227375626D6974222076616C75653DC5
:102C8000222045696E74726167207369636865729A
:102C90006E20223E3C2F74643E3C2F74723E3C2FCB
:102CA0007461626C653E3C2F666F726D3E0D006113
:102CB00064646E6577003C74723E3C746420616CA1
:102CC00069676E3D226C656674223E3C61206872C5
:102CD00065663D2263726F6E2E6367693F6164644F
:102CE0006E657722207374796C653D227465787403
:102CF0002D6465636F726174696F6E3A6E6F6E6595
:102D000022207469746C653D22416464223E3C69F2
:102D10006E70757420747970653D22627574746F7D
:102D20006E222076616C75653D22616464206E655B
:102D3000772063726F6E2220636C6173733D226132
:102D40006374696F6E42746E223E3C2F613E3C2F6D
:102D500074643E3C2F74723E3C2F7461626C653E1D
:102D60000D003C74723E3C746420616C69676E3D7A
:102D7000226C656674223E25733C2F74643E3C745D
:102D80006420616C69676E3D226C656674223E3C0E
:102D90006120687265663D2263726F6E2E6367699B
:102DA0003F64656C3D256422207374796C653D2217
:102DB000746578742D6465636F726174696F6E3ABF
:102DC0006E6F6E6522207469746C653D2244656C7B
:102DD000223E3C696E70757420747970653D226284
:102DE0007574746F6E222076616C75653D22646522
:102DF0006C2220636C6173733D22616374696F6E32
:102E000042746E223E3C2F613E3C2F74643E3C2F48
:102E100074723E003C7461626C6520626F7264651E
:102E2000723D2230222063656C6C70616464696E4F
:102E3000673D2235222063656C6C73706163696E37
:102E4000673D2230223E0063726F6E2E6367690019
:102E50003C2F7072653E003C7072653E0065656D8A
:102E6000656D203C70726F746563743E7C3C756E5A
:102E700070726F746563743E203C616464205B6EA5
:102E8000616D652076616C5D3E203C64656C205B05
:102E90006E616D655D3E203C7072696E743E203CD3
:102EA000636C65616E3E0D0A00636C65616E007057
:102EB00072696E740064656C0061646400756E70A4
:102EC000726F7465637465740D0A005752495445F6
:102ED0005F50524F54454354004F464600756E7044
:102EE000726F746563740057524954455F50524F76
:102EF00054454354004F4E0070726F746563740004
:102F000065656D656D2E6367690065656D656D004E
:102F100048415550545354454C4C4500454947454C
:102F20004E454E554D4D455200464553544548502B
:102F3000535400414C5445524E424549424553007A
:102F400044555243485741484C5441420050524F17
:102F5000544C4556454C0043464750415353004E50
:102F600045545A5255464E520050494E0044594E0F
:102F70004950414B544956004E45545A504F5254B3
:102F8000005255464E525345525631005255464E08
:102F9000525345525632005255464E5253455256A0
:102FA00033005478500054656C657850686F6E65D6
:102FB00020506F72742025642E0D0A0073646469BA
:102FC000722E636769007478702D747769746C6E03
:102FD0006C697374652E636769007478702D64651D
:102FE0006275672E636769007478706366672D6524
:102FF000787465726E2E63676900747870636667B3
:103000002D696E7465726E2E636769007478702D19
:103010006D73672D6F75742E636769007478702DFA
:103020006D73672D696E2E636769004572726F72EA
:103030002072656164696E67206469726563746F8C
:10304000727921003C612068726566203D222573FB
:103050002F2573223E25733C2F613E20256C643C56
:1030600062723E003C612068726566203D222573D5
:10307000223E25733C2F613E20256C643C62723EEB
:10308000003C612068726566203D22736464697249
:103090002E6367693F6469723D25732F2573223E55
:1030A00025733C2F613E204449523C62723E003CF5
:1030B000612068726566203D2273646469722E63C4
:1030C00067693F6469723D2573223E25733C2F6119
:1030D0003E204449523C62723E003C623E436F6E69
:1030E00074656E74206F662025733A3C2F623E3CF7
:1030F000703E00646972003C623E436F6E74656EA0
:1031000074206F66202F3A3C2F623E3C703E006474
:103110006972002B2B2B666572746967004E756DA2
:103120006D6572202573205374617475732025308A
:1031300032583C62723E005374617475732064654A
:103140007220616E67657363686C6F7373656E651B
:103150006E205457492D4D6F64756C653A3C703E36
:10316000003C62723E5465696C6E65686D65722DD7
:103170005365727665722023256420676526617524
:103180006D6C3B6E6465727420696E3A2025730025
:103190003C62723E5465696C6E65686D65722D5354
:1031A00065727665722023256420756E76657226B9
:1031B00061756D6C3B6E646572743A202573003CDA
:1031C00062723E4E65747A2D506F72742067652668
:1031D00061756D6C3B6E6465727420696E3A202572
:1031E00073003C62723E4E65747A2D506F7274208B
:1031F000756E7665722661756D6C3B6E6465727472
:103200003A202573003C62723E44796E4950416B0E
:103210007475616C6973696572756E673A202573A0
:10322000003C62723E44796E4950416B7475616C2A
:103230006973696572756E6720756E766572266151
:10324000756D6C3B6E646572743A202564003C6257
:10325000723E47656865696D7A61686C20676526AE
:1032600061756D6C3B6E6465727420696E3A2025E1
:1032700073003C62723E47656865696D7A61686C8F
:1032800020756E7665722661756D6C3B6E64657235
:10329000743A202573003C62723E4E65747A2D525A
:1032A00075666E756D6D65722067652661756D6CEE
:1032B0003B6E6465727420696E3A202573003C622F
:1032C000723E4E65747A2D5275666E756D6D6572BF
:1032D00020756E7665722661756D6C3B6E646572E5
:1032E000743A202573006E6575652045696E7374A8
:1032F000656C6C756E67656E3A203C61206872651E
:10330000663D227478706366672D65787465726EA9
:103310002E636769223E7765697465723C2F613E52
:103320000045696E7374656C6C756E672026557503
:103330006D6C3B6265726E65686D656E00416472AE
:103340006573736520646573205465696C6E656888
:103350006D65722D5365727665723A00506F7274A6
:103360002D4E756D6D657220696D204E65747A3ACB
:103370000049502D416B7475616C69736965727594
:103380006E6720616B7469763A0047656865696DA0
:103390007A61686C3A00656967656E65205275668A
:1033A0006E756D6D657220696D2069702D74656C28
:1033B00065782D4E65747A3A007478706366672D6F
:1033C00065787465726E2E636769003C62723E5068
:1033D000726F746F6B6F6C6C2D4C6576656C3A20F8
:1033E0002573003C62723E50726F746F6B6F6C6C31
:1033F0004C6576656C20756E7665722661756D6CB0
:103400003B6E646572743A202564003C62723E44EF
:10341000757263687761686C656E20756E7665722B
:103420002661756D6C3B6E646572743A202573007D
:103430003C62723E44757263687761686C656E3A8F
:10344000202573003C62723E416C7465726E61743B
:1034500069762D53756368652062656920426573DE
:1034600065747A743A202573003C62723E416C7434
:1034700065726E6174697653756368654265694209
:10348000657365747A7420756E7665722661756DE4
:103490006C3B6E646572743A202564003C62723E37
:1034A00046657374652048617570747374656C6CDF
:1034B000653A202573003C62723E46657374654828
:1034C000617570747374656C6C6520756E76657269
:1034D0002661756D6C3B6E646572743A20256400DC
:1034E0003C62723E48617570747374656C6C653AC9
:1034F000202573003C62723E486175707473746578
:103500006C6C6520756E7665722661756D6C3B6EB0
:10351000646572743A202573003C62723E4E657495
:103520007A2D566F727761686C206B6F6E6E746562
:10353000206E696368742067652661756D6C3B6EEB
:10354000646572742077657264656E003C62723ED9
:103550004E65747A2D566F727761686C3A202573C8
:10356000003C62723E4E65747A2D566F72776168C8
:103570006C20756E7665722661756D6C3B6E646548
:1035800072743A202573006E6575652045696E7307
:1035900074656C6C756E67656E3A203C612068726C
:1035A00065663D227478706366672D696E74657216
:1035B0006E2E636769223E7765697465723C2F6180
:1035C0003E0045696E7374656C6C756E6720265598
:1035D000756D6C3B6265726E65686D656E005061FD
:1035E0007373776F727420662675756D6C3B7220ED
:1035F0004B6F66696775726174696F6E7373656925
:1036000074656E3A0050726F746F6B6F6C6C2D4CFA
:103610006576656C3A0044757263687761686C65BD
:103620006E3A3C62723E286D6974204B6F6D6D611D
:10363000207472656E6E656E2900416C7465726EE1
:10364000617469762D5375636865206265692062CF
:10365000657365747A743A00696E746572652044A6
:103660007563687761686C20646572204861757065
:10367000747374656C6C6520662675756D6C3B7231
:10368000206B6F6D6D656E64652056657262696E44
:1036900064756E67656E3A0066657374652048618F
:1036A0007570747374656C6C6520662675756D6CC9
:1036B0003B72206B6F6D6D656E646520566572623E
:1036C000696E64756E67656E3A004E65747A2D5644
:1036D0006F727761686C20662675756D6C3B722021
:1036E000676568656E64652056657262696E6475AB
:1036F0006E67656E3A007478706366672D696E74E4
:1037000065726E2E636769003C666F726D2061633F
:1037100074696F6E3D227478702D6D73672D696EBC
:103720002E636769223E45696E676162653A203C97
:10373000696E707574206E616D653D2245696E67B6
:103740006162652220747970653D22746578742207
:103750002073697A653D223635222076616C756565
:103760003D2222206D61786C656E6774683D22365B
:1037700035223E3C696E70757420747970653D2207
:103780007375626D6974222076616C75653D2220C7
:10379000416273656E64656E20223E3C61206872F2
:1037A00065663D227478702D6D73672D6F75742E6C
:1037B00063676922207461726765743D224D736787
:1037C0004F7574223E416B7475616C6973696572E3
:1037D000656E3C2F613E3C2F666F726D3E000D0A98
:1037E000005478503A204347492D447275636B204A
:1037F000000D0A0045696E6761626500496E746577
:103800007266616365206973742062656C656774B4
:103810002C2062697474652077617274656E2E0065
:103820005465787465696E6761626520737461724E
:10383000746574204665726E73636872656962654B
:103840007200447275636B7370696567656C3A3CAE
:1038500062723E3C7072653E2573266C743B266C2A
:10386000743B266C743B25733C2F7072653E003CA4
:1038700048544D4C3E3C484541443E3C6D65746166
:1038800020687474702D65717569763D2265787055
:10389000697265732220636F6E74656E743D2231A8
:1038A000223E3C6D65746120687474702D6571757D
:1038B00069763D22707261676D612220636F6E745C
:1038C000656E743D226E6F2D6361636865223E3CB8
:1038D0006D65746120687474702D65717569763DCD
:1038E00022726566726573682220636F6E74656EFE
:1038F000743D2231303B2055524C3D7478702D6D13
:1039000073672D6F75742E636769223E3C2F48459F
:1039100041443E3C424F44593E005D3C62723E454C
:10392000746865726E65743A20256C6420427974FF
:10393000657320696E20256C64205061636B65742B
:10394000656E204C6F636B4572726F727320256CCD
:10395000640D0A005D3C62723E41736369694472A2
:1039600075636B5075666665723A205B003C6272E7
:103970003E48746D6C53656E6465546578743A2086
:103980005B003C62723E54696D65723043616C6CE1
:103990006261636B5F4D6178203D202564003C626D
:1039A000723E54696D657230436E745F4D6178206C
:1039B0003D202564003C62723E54696D657230435F
:1039C0006E745F4D696E203D202564003C62723E3E
:1039D00054696D65723043616C6C6261636B436FF7
:1039E000756E74203D202564003C62723E547870F0
:1039F000546872656164436F756E74203D20256460
:103A0000003C62723E547769497372436F756E74FD
:103A1000203D202564003C62723E46616C73636801
:103A20006572436F6465203D202564003C62723EF0
:103A300044796E4950416B745A6569745A6165687E
:103A40006C6572202F2054787054696D65724672CF
:103A50006571203D202564003C62723E54787054AC
:103A60006872656164436865636B436F756E74204B
:103A70003D202564003C62723E536F636B65744C5D
:103A80006562656E737A65696368656E5A616568BB
:103A90006C6572203D202564003C62723E5477695B
:103AA0004C6562656E737A65696368656E5A6165B7
:103AB000686C6572203D202564003C62723E527540
:103AC00068655A6165686C6572203D202564003C1C
:103AD00062723E536F636B6574416E7A61686C5AB3
:103AE00065696368656E456D7066616E67656E20B9
:103AF0003D202564003C62723E536F636B657441E8
:103B00006E7A61686C5A65696368656E517569742F
:103B10007469657274203D202564003C62723E53D6
:103B20006F636B6574416E7A61686C5A656963682E
:103B3000656E476573656E646574203D202564007D
:103B40003C62723E536F636B65744D6F6465417385
:103B5000636969203D202564003C62723E536F63B7
:103B60006B65744F757442756655736564203D20AE
:103B70002564003C62723E536F636B6574496E420C
:103B8000756655736564203D20256400202530321C
:103B900058003C62723E507566666572416E7A618D
:103BA000686C282653656E64655075666665722973
:103BB000203D202564003C62723E536572556D5372
:103BC000656E64446174656E203D202564003C622E
:103BD000723E536572556D53656E644269744E72E0
:103BE000203D202564003C62723E536572556D5441
:103BF00069636B5A6165686C657253656E64203DDC
:103C0000202564003C62723E53656E64654D6172AE
:103C10006B203D202564002025303258003C627224
:103C20003E507566666572416E7A61686C282645FD
:103C30006D706650756666657229203D20256400AA
:103C40003C62723E536572556D456D70664665689F
:103C50006C6572203D202564003C62723E536572A3
:103C6000556D456D7066446174656E203D20256418
:103C7000003C62723E536572556D456D70664D61D4
:103C8000726B5A6165686C203D202564003C62724D
:103C90003E536572556D456D70664269744E722073
:103CA0003D202564003C62723E536572556D546937
:103CB000636B5A6165686C6572456D7066203D2066
:103CC0002564003C62723E427573456D70664D61BD
:103CD000726B203D202564003C62723E5761686C27
:103CE0007A69666665726E203D202564003C6272CA
:103CF0003E5761686C6E756D6D6572203D20256460
:103D0000003C62723E537461747573203D202564DB
:103D1000003C62723E4D6F647573203D2025640047
:103D200050726F746F6B6F6C6C7075666665723A0B
:103D30002025733C62723E0050726F746F6B6F6C23
:103D40006C64617465693A2025733C62723E00447C
:103D5000656275674D73673A2025733C62723E0059
:103D60006B656E6E77004B656E6E776F7274206652
:103D7000616C736368210046726569676562656E90
:103D8000005365697465206765737065727274218C
:103D9000204B656E6E776F7274203A007478706392
:103DA00066672D696E7465726E2E6367690054785C
:103DB000503A20536F636B6574207A756D2054659B
:103DC000696C6E65686D65722D53657276657220DB
:103DD000777572646520766F6E20476567656E73D0
:103DE00074656C6C652067657363686C6F7373656D
:103DF0006E0D0A005478503A20756E6572776172C4
:103E00007465746520416E74776F72742064657395
:103E1000205465696C6E65686D65722D53657276A8
:103E20006572730D0A000D0A005478503A204665F9
:103E3000686C65726D656C64756E6720646573206F
:103E40005465696C6E65686D65722D536572766533
:103E500072733A20000D0A005478503A2044796E6B
:103E6000616D69736368652049502D416B7475619C
:103E70006C6973696572756E673A206E6575652049
:103E8000495020005478503A2044796E616D69732E
:103E90006368652049502D416B7475616C69736965
:103EA0006572756E673A20626573746568656E64E5
:103EB000652049502067696C742077656974657264
:103EC0000D0A005478503A20446174656E73617431
:103ED0007A20766F6D205465696C6E65686D6572C9
:103EE0002D536572766572206D6974204E7220259F
:103EF0006C64206B6F6E6E7465206E6963687420ED
:103F0000676573706569636865727420776572644C
:103F1000656E0D0A005478503A20696D206C6F6B05
:103F2000616C656E2054656C65666F6E627573209A
:103F3000616C732027507269766174272067656B06
:103F4000656E6E7A656963686E65740D0A005478F3
:103F5000503A205465696C6E65686D65722D5365C5
:103F600072766572206D656C64657420616E64653F
:103F70007265204E756D6D657220616C7320616E87
:103F8000676566726167740D0A000D0A0054785007
:103F90003A205465696C6E65686D65722D53657263
:103FA000766572206D656C64657420495020676584
:103FB00066756E64656E3A20005478503A205465F8
:103FC000696C6E65686D65722D53657276657220D9
:103FD0006D656C64657420616E64657265204E75F4
:103FE0006D6D657220616C7320676577C3A4686C22
:103FF000740D0A005478503A205465696C6E6568F7
:104000006D65722D536572766572206C69656665A3
:104010007274205465696C6E65686D65722D4461BB
:1040200074656E7361747A206F62776F686C206E4E
:104030006963687420696D205761686C7A75737460
:10404000616E640D0A005478503A205465696C6EB4
:1040500065686D65722D536572766572206D656C4D
:1040600064657420276E6963687420676566756E81
:1040700064656E270D0A000D0A00202530325800B5
:10408000256429005478503A205465696C6E65683F
:104090006D65722D53657276657220456D7066612F
:1040A0006E673A202825642F005478503A205265D4
:1040B000737465206765647275636B74202D2D3E83
:1040C00020417573736368616C74756E6720696EE7
:1040D0007465726E0D0A005478503A204469726516
:1040E0006B74647275636B2D52756865202D2D3E5F
:1040F00020417573736368616C74756E6720696EB7
:104100007465726E0D0A002534640D0A002534644E
:10411000005478503A20456D706641202531366450
:1041200000526573657276696572756E672066C345
:10413000BC722045696E736368616C74756E67202C
:104140006B6F6E6E7465206E69636874207665723D
:1041500073616E642077657264656E005478503ABE
:1041600020446972656B74647275636B202D3E2008
:1041700045696E736368616C74756E6720696E74EF
:1041800065726E20564552534147540D0A005478CB
:10419000503A20446972656B74647275636B202DAC
:1041A0003E2045696E736368616C74756E67206943
:1041B0006E7465726E0D0A005478503A2054617323
:1041C0007465206765647275636B74202D2D3E20C5
:1041D00052657374652D447275636B206162676507
:1041E00062726F6368656E0D0A000D0A00696E7475
:1041F00065726E652049503A20005478503A205438
:10420000696D656F7574206265696D2057617274A0
:10421000656E20617566206469652045696E73630B
:1042200068616C747175697474756E670D0A0054F9
:1042300078503A2054696D656F7574206265696DB8
:104240002057617274656E2061756620646965200F
:104250005363686C7573737175697474756E670DEB
:104260000A005478503A20416266726167652062A4
:104270006569205465696C6E65686D65722D53655E
:10428000727665726E0D0A00202E2E2E4142474531
:1042900057494553454E0D0A0004056F63630D0AE7
:1042A00000202E2E2E6F6B0D0A00202F204D414333
:1042B00020005478503A205365727665722D536F02
:1042C000636B65742067656F6566666E65742076DE
:1042D0006F6E204950200052657365727669657271
:1042E000756E6720667565722045696E73636861D7
:1042F0006C74756E67206B6F6E6E7465206E69638B
:1043000068742076657273616E6420776572646587
:104310006E005478503A20416E7761686C20696E67
:104320007465726E20616E2025642056455253419B
:1043300047540D0A005478503A20416E7761686CFA
:1043400020696E7465726E20616E2025642065722E
:10435000666F6C67740D0A005478503A20416E679E
:1043600065727566656E6572206861742067656147
:104370006E74776F72746574202D3E2045696E737C
:104380006368616C74756E6720696E7465726E0D1A
:104390000A005478503A205363686C7573737175D2
:1043A000697474756E67206F686E65204175666606
:1043B0006F72646572756E670D0A005478503A200A
:1043C00054574920417573736368616C74756E67E7
:1043D00020696E7465726E0D0A005478503A20544C
:1043E000574920417573736368616C74756E6720FB
:1043F0007175697474696572740D0A005478503A65
:10440000205465696C6E65686D657220256C64204A
:10441000696D20656967656E656E2054656C6566BB
:104420006F6E6275636820676566756E64656E2E73
:104430000D0A005478503A20545749205761686C4F
:104440007A696666657220256420696E7465726E8D
:10445000202F20676568656E640D0A005478503A15
:1044600020545749205761686C617566666F7264A5
:104470006572756E6720696E7465726E202F206B91
:104480006F6D6D656E640D0A005478503A20545774
:10449000492045696E736368616C747175697474E1
:1044A000756E67206E61636820446972656B746421
:1044B0007275636B0D0A005478503A2054574920A6
:1044C00045696E736368616C747175697474756E37
:1044D0006720696E7465726E202F206B6F6D6D653D
:1044E0006E640D0A005478503A20545749204569AB
:1044F0006E736368616C746B6F6D6D616E646F2059
:10450000696E7465726E202F20676568656E640D34
:104510000A005478503A2054574920526573657206
:1045200076696572756E6720696E7465726E202F8C
:1045300020676568656E6420766F6E2025640D0ABD
:10454000005478503A20436C69656E742D536F6344
:104550006B65742028617573676568656E642920D2
:10456000776972642067657363686C6F7373656ED7
:104570000D0A005478503A204D6568726661636890
:1045800065204665686C6572206265696D205365BB
:104590006E64656E20696E73204E65747A2C2053AC
:1045A0006F636B65742077697264206765736368F5
:1045B0006C6F7373656E0D0A002053756D20256452
:1045C0000D0A00202D2D3E20526573202564002009
:1045D00025303258005478503A20536F636B65741D
:1045E0002053656E64756E673A202825642900544F
:1045F00078503A20536F636B6574207775726465E9
:1046000020766F6E20476567656E7374656C6C65A8
:104610002067657363686C6F7373656E0D0A0025A0
:1046200034640D0A00253464005478503A205365F0
:104630006E644220253464002534640D0A0025345C
:1046400064005478503A2053656E644120253464E8
:10465000005478503A20416262617562656665680F
:104660006C20766F6E20476567656E7374656C6C41
:10467000650D0A005478503A2053656E64656E42A9
:10468000657363686C65756E6967656E2045494E34
:104690000D0A005478503A2053656E64656E426589
:1046A0007363686C65756E6967656E204155530D5F
:1046B0000A002534640D0A00253464005478503A09
:1046C00020456D706642202531366400202D2D3E38
:1046D000206E6575204765732025640D0A0020252E
:1046E00030325800256429005478503A20536F63C3
:1046F0006B657420456D7066616E673A202825648D
:104700002F005478503A205365727665722D536F9E
:10471000636B6574202865696E676568656E6429DA
:1047200020776972642067657363686C6F73736563
:104730006E0D0A003F6E6963687420647275636B66
:1047400062617265205A65696368656E3A2000543B
:1047500078503A20436C69656E742D536F636B65B6
:104760007420547870206572666F6C677265696337
:10477000682067656F6566666E6574202D3E2073E0
:10478000656E64652044757263687761686C202586
:10479000640D0A005478503A20436C69656E742D9C
:1047A000536F636B6574204173636969206572663A
:1047B0006F6C6772656963682067656F6566666EB2
:1047C0006574202D3E2045696E736368616C742D9D
:1047D0005175697474756E6720616E205457490D68
:1047E0000A005478503A20436C69656E742D536FFB
:1047F000636B6574206B6F6E6E7465206E696368A1
:10480000742067656F6566666E657420776572648F
:10481000656E0D0A005478503A205465696C6E65D7
:10482000686D6572206973742047454C4F4553434A
:1048300048540D0A00206E696368742067656675C8
:104840006E64656E0D0A005478503A204950207A03
:10485000752055726C200020506F72742025640DF5
:104860000A00203D20005478503A20566572626953
:104870006E64756E6773617566626175207A752006
:1048800055726C200020506F72742025640D0A0050
:104890005478503A2056657262696E64756E67731B
:1048A000617566626175207A7520495020007478C0
:1048B000702D746C6E7665727A2E63676900547819
:1048C000503A20456570726F6D204C616465666575
:1048D000686C6572202564202F202564003C62727C
:1048E0003E5A75722675756D6C3B636B207A756DDB
:1048F000203C6120687265663D227478702D746C6E
:104900006E7665727A2E636769223E5465696C6EB5
:1049100065686D65722D5665727A656963686E6942
:10492000733C2F613E004665686C65723A20756E77
:104930006775656C7469676572204347492D4175D9
:10494000667275663A202573006B6F6D706C6574C6
:10495000742067656C266F756D6C3B7363687400BB
:104960004572666F6C6772656963682067656C6124
:1049700064656E2028256420427974657329003CA3
:10498000623E4665686C6572206265696D204C61A7
:1049900064656E2028436F646573202564202F2092
:1049A0002564293C2F623E004572666F6C67726514
:1049B00069636820676573706569636865727420F0
:1049C00028256420427974657329003C623E46655F
:1049D000686C6572206265696D20537065696368F3
:1049E00065726E2028436F646573202564202F2034
:1049F0002564293C2F623E003C623E5465696C6E22
:104A000065686D65726C6973746520766F6C6C2C6B
:104A10002045696E74726167206E696368742067EF
:104A2000657370656963686572743C2F623E3C62B1
:104A3000723E003C623E416C7465204E756D6D6542
:104A40007220256C64206B6F6E6E7465206E6963D6
:104A500068742067656C266F756D6C3B7363687452
:104A60002077657264656E213C2F623E3C62723E27
:104A70000045696E7472616720676573706569636C
:104A8000686572743C62723E003C623E5275666EAE
:104A9000756D6D65722069737420626572656974E5
:104AA0007320766572676562656E2C202641756D90
:104AB0006C3B6E646572756E67206E696368742006
:104AC00067657370656963686572743C2F623E3C0C
:104AD00062723E003C623E6B65696E6520264175E0
:104AE0006D6C3B6E646572756E673C2F623E3C6216
:104AF000723E003C623E556E62656B616E6E74651F
:104B00007220547970213C2F623E3C62723E00500C
:104B10006F72742025643C62723E00417363696960
:104B20003A204950202573200041736369693A2077
:104B300055726C2025732000506F727420256420FC
:104B400044757263687761686C2025643C62723ECC
:104B50000054656C657850686F6E653A2049502046
:104B60002573200054656C657850686F6E653A2037
:104B700055726C202573200067656C266F756D6C0F
:104B80003B736368743C62723E0067657370657264
:104B900072743C62723E006E7572204C6F6B616C79
:104BA0003C62723E004E616D653A2025733C627234
:104BB0003E003C62723E006568656D2E20256C6487
:104BC0000068696E7A75662675756D6C3B67656EF3
:104BD000005465696C6E65686D657265696E7472A6
:104BE00061673A3C62723E5275666E756D6D6572B4
:104BF0003A20256C6420003C623E5275666E756DED
:104C00006D65722030206E696368742065726C6116
:104C1000756274213C2F623E3C62723E00264175F3
:104C20006D6C3B6E6465726E0048696E7A756626BF
:104C300075756D6C3B67656E00447572636877616E
:104C4000686C3A00506F72743A0041647265737315
:104C5000653A005479703A006765737065727274D2
:104C60003A006E7572204C6F6B616C3A004E616D4C
:104C7000653A003C696E707574206E616D653D2209
:104C8000616C746E756D6D65722220747970653D0E
:104C90002268696464656E222076616C75653D22C8
:104CA000256C64223E005275666E756D6D65723AB4
:104CB000007478702D746C6E7665727A2E636769F5
:104CC000003C2F7461626C653E4E6F6368206B65BB
:104CD000696E652045696E74722661756D6C3B67FF
:104CE0006520766F7268616E64656E3C703E3C61F3
:104CF00020687265663D227478702D746C6E7665DE
:104D0000727A2E6367693F656469743D30223E485C
:104D1000696E7A75662675756D6C3B67656E3C2F9E
:104D2000613E3C2F666F726D3E003C74723E3C7477
:104D3000643E26233136303B3C2F74643E3C746421
:104D40003E26233136303B3C2F74643E3C74643E37
:104D500026233136303B3C2F74643E3C74643E263F
:104D6000233136303B3C2F74643E3C74643E262332
:104D70003136303B3C2F74643E3C74643E26233114
:104D800036303B3C2F74643E3C74643E26233136FF
:104D9000303B3C2F74643E3C74643E2623313630F5
:104DA0003B3C2F74643E3C74643E3C6120687265F9
:104DB000663D227478702D746C6E7665727A2E63FF
:104DC00067693F656469743D30223E48696E7A7553
:104DD000662675756D6C3B67656E3C2F613E3C2F9A
:104DE00074643E3C2F7461626C653E3C6120687265
:104DF00065663D227478702D746C6E7665727A2EBD
:104E00006367693F73617665223E6E6963687466A5
:104E10006C2675756D6C3B6368746967207370658B
:104E200069636865726E3C2F613E3C62723E3C6114
:104E300020687265663D227478702D746C6E76659C
:104E4000727A2E6367693F6C6F6164223E616C6C9D
:104E500065202641756D6C3B6E646572756E676585
:104E60006E2076657277657266656E3C2F613E3C9A
:104E700062723E3C6120687265663D227478702DD6
:104E8000746C6E7665727A2E6367693F636C6561D8
:104E900072223E6B6F6D706C657474206C266F753A
:104EA0006D6C3B736368656E3C2F613E3C62723E85
:104EB0003C2F666F726D3E003C74643E3C6120681E
:104EC0007265663D227478702D746C6E7665727AA8
:104ED0002E6367693F656469743D256C64223E26D4
:104EE00041756D6C3B6E6465726E3C2F613E3C2F6C
:104EF00074643E3C2F74723E003C746420616C69A3
:104F0000676E3D2263656E746572223E2530327590
:104F10002E253032752E2530347520253032643AF6
:104F2000253032643A253032643C2F74643E003CB4
:104F3000746420616C69676E3D226C656674223E04
:104F400067656C266F756D6C3B736368743C2F747A
:104F5000643E3C74643E26233136303B3C2F7464FF
:104F60003E3C74643E26233136303B3C2F74643E15
:104F70003C74643E26233136303B3C2F74643E0043
:104F80003C746420616C69676E3D226C65667422B6
:104F90003E41736369693C2F74643E3C74642061D4
:104FA0006C69676E3D226C656674223E25733C2FEA
:104FB00074643E3C746420616C69676E3D22636575
:104FC0006E746572223E25643C2F74643E3C7464AA
:104FD0003E26233136303B3C2F74643E003C7464E3
:104FE00020616C69676E3D226C656674223E546573
:104FF0006C657850686F6E653C2F74643E3C7464D9
:1050000020616C69676E3D226C656674223E257373
:105010003C2F74643E3C746420616C69676E3D2271
:1050200063656E746572223E25643C2F74643E3C59
:10503000746420616C69676E3D2263656E7465728D
:10504000223E25643C2F74643E003C2F74643E0075
:1050500044796E49502000676573706572727420E0
:10506000004C6F6B616C20003C746420616C69675C
:105070006E3D226C656674223E25733C2F74643E3F
:105080003C74643E26233136303B003C74723E3C17
:10509000746420616C69676E3D227269676874226E
:1050A0003E256C643C2F74643E003C666F726D203C
:1050B000616374696F6E3D227478702D746C6E76C6
:1050C00065727A2E636769223E3C68333E54656997
:1050D0006C6E65686D65727665727A656963686E17
:1050E00069733C2F68333E3C7461626C6520626F6B
:1050F000726465723D2231222063656C6C7061645C
:1051000064696E673D2232222063656C6C73706146
:1051100063696E673D2230223E3C74723E3C746887
:1051200020616C69676E3D227269676874223E5225
:1051300075666E756D6D65723C2F74683E3C746863
:1051400020616C69676E3D226C656674223E4E611B
:105150006D653C2F74683E3C746820616C69676EB5
:105160003D2263656E746572223E4265736F6E64A4
:105170002E3C2F74683E3C746820616C69676E3DFC
:10518000226C656674223E5479703C2F74683E3CF4
:10519000746820616C69676E3D226C656674223E9E
:1051A000416472657373653C2F74683E3C7468207B
:1051B000616C69676E3D2263656E746572223E5054
:1051C0006F72743C2F74683E3C746820616C696730
:1051D0006E3D2263656E746572223E44757263682B
:1051E0007761686C3C2F74683E3C746820616C6920
:1051F000676E3D2263656E746572223E6C65747ADB
:1052000074653C62723E416B7475616C697369656B
:1052100072756E673C2F74683E3C746820616C69DF
:10522000676E3D226C656674223E416B74696F6ED9
:105230003C2F74683E3C2F74723E006C6F616400BA
:10524000636C6561720073617665006C6F636B00FF
:105250006C6F63616C0054656C657850686F6E6547
:105260000041736369690067656C6F657363687497
:1052700000747970650064757263687761686C00AA
:10528000706F72740061647265737365006E616D36
:105290006500616C746E756D6D6572006E756D6D17
:1052A0006572006564697400223E3C2F74643E3C64
:1052B0002F74723E3C2F7461626C653E3C2F666FAA
:1052C000726D3E003C74723E3C74643E3C2F7464CC
:1052D0003E3C74643E3C696E7075742074797065F0
:1052E0003D227375626D6974222076616C75653D2F
:1052F00022003C2F73656C6563743E3C2F74643EE2
:10530000003C2F6F7074696F6E3E003C6F70746963
:105310006F6E3E003C6F7074696F6E2073656C65D4
:10532000637465643E00222073697A653D223122F0
:105330003E003C2F74643E3C74643E3C73656C6577
:105340006374206E616D653D22003C74723E3C7456
:105350006420616C69676E3D227269676874223EE1
:10536000003E3C2F74643E3C2F74723E0020636804
:1053700065636B6564002220747970653D22636803
:1053800065636B626F78222076616C75653D2231B2
:1053900022002220747970653D2274657874222081
:1053A00073697A653D222564222076616C75653DBE
:1053B00022257322206D61786C656E6774683D22CA
:1053C0002564223E3C2F74643E3C2F74723E0022C2
:1053D00020747970653D2274657874222073697A2F
:1053E000653D222564222076616C75653D22256C21
:1053F0006422206D61786C656E6774683D22256457
:10540000223E3C2F74643E3C2F74723E003C2F744D
:10541000643E3C74643E3C696E707574206E616DD0
:10542000653D22003C74723E3C746420616C696787
:105430006E3D227269676874223E003E3C74616270
:105440006C6520626F726465723D22302220636554
:105450006C6C70616464696E673D223522206365FF
:105460006C6C73706163696E673D2230223E003C54
:10547000666F726D20616374696F6E3D2222002534
:105480003032642C253032643A20000D0A2B2B2B4D
:105490002B2B2B20253032752E253032752E2530C2
:1054A0003475202B2B2B2B2B2B20253032643A25C7
:1054B000303264202B2B2B2B2B2B0D0A2530326402
:1054C0002C253032643A20006661745F777269740B
:1054D000655F66696C6520766572736167740066E6
:1054E00061745F6F70656E5F66696C65206465727C
:1054F000206E6575656E2044617465692025732092
:1055000076657273616774006661745F637265616A
:1055100074655F66696C65282573292076657273EA
:10552000616774006661745F6F70656E5F64697255
:10553000206465732048617570747665727A656958
:1055400063686E6973207665727361677400666163
:10555000745F6765745F6469725F656E7472795FAA
:105560006F665F7061746820646573204861757050
:10557000747665727A656963686E697320766572A0
:10558000736167740070726F745F253034752D25F8
:105590003032752D253032755F253032642D25303F
:1055A00032642E747874006661745F7365656B5F36
:1055B00066696C65207665727361677400546C6E01
:1055C0005372760054787020546C6E536572766511
:1055D0007220506F72742025642E0D0A006F636371
:1055E000757069656400202E2E2E4142474557494B
:1055F0004553454E0D0A00202E2E2E6F6B0D0A00CE
:10560000202F204D41432000546C6E5372763A2077
:105610005365727665722D536F636B657420676591
:105620006F6566666E657420766F6E204950200047
:10563000546C6E5372763A204645484C45523A2097
:1056400053656E64756E6720776172206E6963685A
:105650007420766F6C6C7374C3A46E6469670D0AF2
:1056600000546C6E5372763A204D656872666163C1
:105670006865204665686C6572206265696D2053B7
:10568000656E64656E20696E73204E65747A2C2099
:10569000536F636B65742077697264206765736309
:1056A000686C6F7373656E0D0A00202D2D3E2052BD
:1056B00065732025640D0A00202530325800546C93
:1056C0006E5372763A20536F636B65742053656E28
:1056D00064756E673A202825642900546C6E5372F5
:1056E000763A20536F636B6574207775726465201A
:1056F000766F6E20476567656E7374656C6C6520A8
:1057000067657363686C6F7373656E0D0A000D0ACD
:1057100000546C6E5372763A204572726F7220009C
:10572000756E6B6E6F776E20636F64652025303207
:105730005800202E2E2E6E6963687420676566758A
:105740006E64656E206F6465722067657370657244
:1057500072740D0A00202E2E2E676566756E6465C4
:105760006E0D0A00546C6E5372763A204162667276
:1057700061676520656D7066616E67656E2E204E8F
:10578000756D6D657220256C643A200072657175C7
:10579000657374206E6F7420656E6F756768206422
:1057A0006174613A202564000D0A00546C6E5372D6
:1057B000763A206162676577696573656E65204139
:1057C0006E66726167652077617220766F6E204920
:1057D000502000666F7262696464656E00506F727B
:1057E000742025640D0A004175746820256420002A
:1057F000546C6E5372763A20416B7475616C6973A8
:10580000696572756E6720656D7066616E67656E3D
:105810002E204E756D6D657220256C6420007570AC
:1058200064617465206E6F7420656E6F75676820A3
:10583000646174613A202564000D0A00202530322D
:10584000580025642900546C6E5372763A20536FC9
:10585000636B657420456D7066616E673A2028251C
:10586000642F00546C6E5372763A204E65756572E3
:10587000205465696C6E65686D6572202564206BC7
:105880006F6E6E7465206E696368742067657370EF
:10589000656963686572742077657264656E0D0A68
:1058A0000020506F727420256420286E6F6368207A
:1058B000676573706572727421290D0A00546C6EED
:1058C0005372763A205465696C6E65686D65722016
:1058D0002564206572666F6C677265696368206114
:1058E0006E67656C6567743A2049502000546C6E91
:1058F0005372763A2041656E646572756E67205406
:1059000065696C6E65686D6572202564206B6F6ECD
:105910006E7465206E69636874206765737065696D
:1059200063686572742077657264656E0D0A002085
:10593000506F72742025640D0A00546C6E53727699
:105940003A205465696C6E65686D65722025642027
:105950006572666F6C67726569636820616B7475E8
:10596000616C6973696572743A2049502000546C07
:105970006E5372763A205465696C6E65686D657217
:10598000202564207363686F6E20766F7268616E85
:1059900064656E2C20756E76657261656E646572E5
:1059A000746520446174656E0D0A00546C6E537208
:1059B000763A205465696C6E65686D657220256461
:1059C000207363686F6E20766F7268616E64656EB7
:1059D0002C20616265722066616C73636865204982
:1059E0005020676573656E6465740D0A00546C6EB3
:1059F0005372763A205465696C6E65686D657220E5
:105A00002564207363686F6E20766F7268616E64C0
:105A1000656E2C2061626572206E69636874205423
:105A20007970202764796E616D69736368270D0A48
:105A300000546C6E5372763A205465696C6E6568DA
:105A40006D6572202564207363686F6E20766F72B7
:105A500068616E64656E2C2061626572206E6F6392
:105A600068206E696368742066726569676567653A
:105A700062656E0D0A00546C6E5372763A2054655E
:105A8000696C6E65686D6572202564207363686F4C
:105A90006E20766F7268616E64656E2C206162653F
:105AA00072204C4F4B414C0D0A0023740D6F20683F
:105AB0006E6D0A6C726769706376657A6462737979
:105AC000667861776A2375716B230023350D392061
:105AD000232C2E0A29342338303A3D332B233F27F9
