:100000000C94AF1D0C94971E0C94C21E0C94ED1E04
:100010000C94181F0C94431F0C946E1F0C94991F82
:100020000C94C41F0C940D1E0C940D1E0C940D1EEC
:100030000C940D1E0C940D1E0C940D1E0C940D1E94
:100040000C940D1E0C9478230C940D1E0C940D1E14
:100050000C940D1E0C94472B0C940D1E0C940D1E2D
:100060000C940D1E0C949B240C945A240C943F2445
:100070000C940D1E0C940D1E0C940D1E0C940D1E54
:100080000C940D1E0C940D1E0C940D1E0C940D1E44
:100090000C949F250C9413250C94D6240C946C7B03
:1000A0000C940D1E0C940D1E0C940D1E0C940D1E24
:1000B0000C940D1E0C940D1E0C940D1E0C940D1E14
:1000C0000C940D1E0C940D1E0C940D1E0C0D0E0F99
:1000D000253032783A253032783A253032783A2550
:1000E0003032783A253032783A253032780025643B
:1000F0002E25642E25642E25640044484350206D2F
:10010000736720747970652035332076616C75656E
:100110002025750D0A0044484350206D73672074F4
:100120007970652035332076616C75652025750DF5
:100130000A004950004D41534B00444E5300474183
:10014000544500444843502D436F6E6669672067ED
:1001500065686F6C740D0A00444843502D436F6E00
:10016000666967204665686C67657363686C61677C
:10017000656E0D0A00207C2D3E20566572737563F6
:10018000686520444843502D436F6E666967207A46
:100190007520686F6C656E2E2000206665686C6740
:1001A000657363686C6167656E0D0A00206665683B
:1001B0006C67657363686C6167656E0D0A00205A31
:1001C0006569743A20253032643A253032643A2524
:1001D0003032642E253032640D0A004E545053459F
:1001E00052564552005554435A4F4E4500207C2DDF
:1001F0003E204E54502D536572766572205A6569C3
:100200007420616B7475616C6973696572656E3AAF
:10021000006F6E004E545000207C202020444E532E
:10022000202020203A2025730D0A00207C20202049
:10023000476174657761793A2025730D0A00207C47
:100240002020204E65746D61736B3A2025730D0A72
:1002500000207C202020495020202020203A2025EA
:10026000730D0A006F6E00444843500044484350E9
:1002700000207C2D3E20544350202848757272691E
:1002800063616E2D656E67696E652920696E69749C
:1002900069616C6973696572740D0A00207C2D3E7A
:1002A000205544502028546F726E61646F2D656E26
:1002B00067696E652920696E697469616C69736923
:1002C0006572740D0A002D2B2D3E2041525020697D
:1002D0006E697469616C6973696572740D0A0020D6
:1002E0004C696E6B2072656164790D0A0020467559
:1002F0006C6C6475706C65783A00454E4332386AB0
:10030000363020285265762E3A2025642920696EE1
:10031000697469616C697369657274202820485733
:100320002D4164643A20253032783A253032783ACB
:10033000253032783A253032783A253032783A25ED
:100340003032782029004D4143004D4143004D4358
:1003500050636F6E666967000D0A000A002563002E
:10036000436F6E6669672069737420256420627923
:100370007465732067726F73732C20256420627913
:1003800074652077657264656E2062656E75747A37
:10039000742E204F66667365742025640D0A0D0A5D
:1003A000004F46460057524954455F50524F5445FE
:1003B00043540020496E697469616C6973696572A0
:1003C000740D0A00204572726F720D0A0054485273
:1003D000454144005348454C4C0046696C6573796F
:1003E0007374656D004D4D432F5344004558544977
:1003F0004E5400436F6E666967004C45445F636FFF
:10040000726500434C4F434B005354444F555400C6
:1004100055415254004F70656E4D4350202E2E2E84
:100420000D0A003EFFFFFF3F3435363738393A3B7F
:100430003C3DFFFFFFFFFFFFFF0001020304050635
:100440000708090A0B0C0D0E0F10111213141516C4
:10045000171819FFFFFFFFFFFF1A1B1C1D1E1F208F
:100460002122232425262728292A2B2C2D2E2F3004
:100470003132334142434445464748494A4B4C4D4B
:100480004E4F505152535455565758595A61626302
:100490006465666768696A6B6C6D6E6F70717273A4
:1004A0007475767778797A30313233343536373837
:1004B000392B2F002F6E69632F7570646174653F4F
:1004C000686F73746E616D653D2573006D656D6257
:1004D0006572732E64796E646E732E6F726700633B
:1004E0006865636B69702E64796E646E732E6F72CB
:1004F0006700474554200020485454502F312E3077
:100500000D0A557365722D4167656E743A20576701
:1005100065742F312E31312E340D0A4163636570BD
:10052000743A202A2F2A0D0A486F73743A20000D5E
:100530000A417574686F72697A6174696F6E3A20E6
:1005400042617369632025730D0A0D0A000D0A0DBF
:100550000A002F00436F6E74656E742D4C656E67D4
:1005600074683A2000485454502F312E000D0A0070
:10057000436F6D6D616E64733A0D0A0D0A00686514
:100580006C7000485454502F312E30203430330DCD
:100590000A436F6E74656E742D547970653A2074D9
:1005A0006578742F68746D6C0D0A4B6565702D410C
:1005B0006C6976653A20636C6F73650D0A0D0A3CB1
:1005C00048544D4C3E3C424F44593E343033204613
:1005D000696C65206E6F7420666F756E64213C2FA8
:1005E000424F44593E3C2F48544D4C3E0D0A0D0A93
:1005F00000504F53540047455400687474706400B1
:10060000485454502D53657276657220506F727441
:100610002025642E0D0A00696E6465782E68746D5D
:100620006C003C2F424F44593E3C2F48544D4C3EA9
:100630000D0A0D0A003C48544D4C3E3C484541448F
:100640003E3C6D65746120687474702D65717569C8
:10065000763D22657870697265732220636F6E74CF
:10066000656E743D2231223E3C6D65746120687474
:1006700074702D65717569763D22707261676D6168
:100680002220636F6E74656E743D226E6F2D636100
:10069000636865223E3C2F484541443E3C424F44FE
:1006A000593E00485454502F312E302032303020E3
:1006B000446F63756D656E7420666F6C6C6F7773D5
:1006C0000D0A436F6E74656E742D547970653A200F
:1006D000746578742F68746D6C0D0A436F6E6E6567
:1006E0006374696F6E3A20636C6F73650D0A0D0A4F
:1006F00000696E6465782E68746D6C003C48544DDA
:100700004C3E3C484541443E3C5449544C453E5483
:100710007850322D4E6574202D2044617320496E2F
:100720007465726E65742D496E7465726661636579
:10073000207A756D2054656C657850686F6E652001
:10074000323C2F5449544C453E3C2F484541443E91
:100750003C6672616D6573657420726F77733D22BC
:1007600038342C33352C2A2C343022207363726FAA
:100770006C6C696E673D226E6F22206672616D65DA
:10078000626F726465723D22322220626F7264650C
:10079000723D223222206672616D657370616369F9
:1007A0006E673D22322220626F72646572636F6CE5
:1007B0006F723D2223303030303030223E3C667242
:1007C000616D65207372633D22686561646C696E5A
:1007D000652E68746D6C22206E616D653D224E61E0
:1007E0007669676174696F6E3122207363726F6C12
:1007F0006C696E673D226E6F223E3C6672616D656C
:10080000207372633D226D61696E6D656E752E6831
:10081000746D6C22206E616D653D224E6176696754
:100820006174696F6E3222207363726F6C6C696ED3
:10083000673D226E6F223E3C6672616D6520737269
:10084000633D22696E666F2E68746D6C22206E6146
:100850006D653D226D61696E223E3C6672616D651B
:10086000207372633D2273746174732E636769220F
:10087000206E616D653D2275706461746522207320
:1008800063726F6C6C696E673D226E6F223E3C6EC8
:100890006F6672616D65733E3C626F64793E3C7059
:1008A0003E4968722042726F7773657220756E746C
:1008B00065727374C3BC747A74206B65696E65204D
:1008C0004672616D6573213C2F703E3C2F626F64F0
:1008D000793E3C2F6E6F6672616D65733E3C2F668C
:1008E00072616D657365743E3C2F48544D4C3E0DEE
:1008F0000A0D0A00686561646C696E652E68746D26
:100900006C003C48544D4C3E3C424F445920746569
:1009100078743D22233030303030302220737479A7
:100920006C653D226261636B67726F756E642D69E1
:100930006D6167653A75726C286C6F636873747269
:10094000656966656E2D68672E706E6729223E3C6C
:1009500068313E547850322D4E6574202D2044610C
:100960007320496E7465726E65742D496E7465727C
:1009700066616365207A756D2054656C6578506892
:100980006F6E653C2F68313E3C2F424F44593E3CD0
:100990002F48544D4C3E0D0A0D0A0089504E470D0C
:1009A0000A1A0A0000000D49484452000002E800FB
:1009B00000005408020000005FAF55E0000000098D
:1009C0007048597300000EC400000EC401952B0E30
:1009D0001B000005E54944415478DAEDDD4172E33E
:1009E000460C05505A9563E92AB3CDC57C14CDBD9C
:1009F000661676A53C8ECD9165AA850FBCB74AE8F0
:100A00000E69A0C14E8B2513DB060010E2E9D7AFBB
:100A10007F6501008870920200C0C60500C0C6054F
:100A200000B071010028EE9FB7FFF2F3E78F977FC8
:100A3000389F9F3FFB0F568EB9C6CAF31C75AD9504
:100A4000E4A74E5C89F745B53A4C8CBDEB9A2087FC
:100A500033EFE50A797EFDABA2FF7EFCD6BBA12B6E
:100A6000C77C29A405E739EA5A0F9972F979785CAD
:100A700089F745B53A4C8CBDEB9A208733EFE53AC0
:100A8000793E7D36E2DDF195636E8EEA4EE739EA16
:100A90005A0F9F75F9295BABD5EE8B6A7598187B59
:100AA000D735410E67DECBA5F2EC3B2E00408CA77C
:100AB000CBE5B23FE27C7EFEEB16EFC031DFD98E94
:100AC000DDE33C475DABC276557ED6C795785F5473
:100AD000ABC3C4D8BBAE097238F35EAE96674F5C49
:100AE000008018362E0040CEC665FF89D3CB4F5705
:100AF0008EB9C6CAF31C75AD95E4A74E5C89F7455F
:100B0000B53A4C8CBDEB9A208733EFE56A79F6C491
:100B100005008871DAD9E0BC3DBE72CC773665F746
:100B200038CF51D7AAB069959F9AB55AEDBEA8564D
:100B30008789B1775D13E470E6BD5C2ACFAF2FA043
:100B40007BE1CDB99B37E7CA4F8B1C7A73AEFF258B
:100B5000CBCF9C75635A9EFFD8B800005416DFAB0C
:100B6000C8A7BD7E9F3056E6D9A7A2994F0B263F56
:100B700091325FD696F41C06F72AFA52D8CDAEF51C
:100B800090126C36A7FA89F4ABC3C4F99ABC6E74A0
:100B90005DC327AF2D6B624FED557473E49B3E2907
:100BA00047C7959867FD44FAD561E27C4D5E37BA38
:100BB000AEE193D79665B1FB736800204664AFA29F
:100BC000EF6CD9D2AF5561FB9C3EA7FA89F4ABC359
:100BD000C4F99ABC6E745DC327AF2D2B63F7C405AF
:100BE000008861E30200E46C5C127B155D439F9416
:100BF000357125E6593F917E7598385F93D78DAE54
:100C00006BF8E4B56565EC9EB8000031527B157D4C
:100C100067E3A64FCAB17125E6593F917E759838B2
:100C20005F93D78DAE6BF8E4B56559ECF1BD8AAE34
:100C3000E1CDB96BE2F2764B5B9669F36EDDE83796
:100C40005FD696FA39D4AB080088E13B2E00808D40
:100C50000B00C0D14A778736C618638C31C618633B
:100C60008CF9F889CBA35A2A1A638C31C618638C85
:100C700031C65C39E6F4D97FE988238E38E28823CF
:100C80008E3852ED88EFB80000316C5C0080B48D76
:100C9000CBFFBF1DE388238E38E288238E3852EDC8
:100CA000C8E9C3A3D59A0018638C31C618638C3188
:100CB000C66CDE9C0B0004F11D1700C0C60500E0E9
:100CC00068A5DF9C5B4DB5D827775E4D9CAF6A71F8
:100CD000255E6B726D24CE7BD7FA993C5F15F2F3DB
:100CE000FA1D970F5F5DF76EE8CA3165B72C456254
:100CF000AF769EC46B25D66AB51AEB5A87D56A23A0
:100D000071DEBBD6CFE4F9AA939FD356EFE5BE11AF
:100D1000BB9607C65EED3C89D74AACD56A35D6B5D9
:100D20000EABD546E2BC77AD9FC9F3552A3FBEE373
:100D30000200C478BA5C2EFB23CEE7E7BF6EBB0E81
:100D40001C532D41D562AF769EC46B25D66AB51A69
:100D5000EB5A87D56A2371DEBBD6CFE4F9AA961F7A
:100D60004F5C008018362E0040CEC665FF29D0CBE0
:100D70004F578EA9A65AECD5CE9378ADC45AAD562E
:100D8000635DEBB05A6D24CE7BD7FA993C5FD5F208
:100D9000E3890B0010E3B4D56BA7544DB5D8AB9DD8
:100DA00027F15A89B55AADC6BAD661B5DA489CF76B
:100DB000AEF53379BE4AE5E78F268BDE9CBBCF9B31
:100DC00073D7E4B0EB7C558B2BF15A936BC39B73B9
:100DD000EBD4CFE4F9AA901FDDA10180187A153574
:100DE000FF44D835F6AE9FBCC5DEAFE6273F5DB603
:100DF000D6D5A9B14E6B945E455F4BDF82DF39B12A
:100E0000AFC4E43CEBD7B326F6C43A9CDC97CD5A8A
:100E100057A7C6FAAD517A15DD98C12DBF2F49628B
:100E2000ECD5F2AC5FCF9AD813EB70725F366B5D86
:100E30009D1A6BB946F973680020865E45376EFDD2
:100E4000EEF13B27F695989C67FD7AD6C49E5887AD
:100E500093FBB259EBEAD458D735CA131700208652
:100E60008D0B0090B371D1AB685FD7BE2489B157A9
:100E7000CBB37E3D6B624FACC3C97DD9AC75756A8F
:100E8000ACEB1AE5890B001043AFA2DB3780E97D9C
:100E9000491263AF9667FD7AD6C49E588793FBB21A
:100EA00059EBEAD458CB354AAFA22FF0E6DCCD9B04
:100EB00073EFFC3B8B7DF3E6DC90B5CEBC67D55879
:100EC000C337E70200D457BA57516217651D8937F7
:100ED0004FD1C48E398D7D3261BEEACF7BD15E4564
:100EE000D57A2B4CEEE5A4FF54E3E56060ECE674A4
:100EF000665C89EBAA7AFE2C3F157B1555EBAD306D
:100F0000B99793FE5343568421B19BD3997125AE73
:100F1000ABEA79E7B83F8706006294EB5554ADB76A
:100F20004262ECF7DEF656FE9D57D646A78F321387
:100F30006237A733E34A5C57D5F37E7E3C710100EC
:100F400062D8B80000391B976ABD8AAAF55698DCAA
:100F5000CB49FFA97E26C76E4E67C695B8AEAAE7F5
:100F6000FD9F7AE20200C4A8D8ABA85A6F85C9BD1C
:100F70009CF49F9AF381C6473D73DA35AEC475552C
:100F80003DEF1C2FDDABC89B73376FCE2D1057572D
:100F9000DEDA694EA7C5E5CDB93DE65DAF2200209A
:100FA00086EFB80000362E0000362E00808D0B0034
:100FB000808D0B000000C034BF01A890D4C0DC6F4E
:100FC0005A800000000049454E44AE426082696F7D
:100FD0002E68746D6C006D61696E6D656E752E683E
:100FE000746D6C003C48544D4C3E3C484541443E79
:100FF0003C6C696E6B2072656C3D227374796C6514
:1010000073686565742220747970653D2274657813
:10101000742F6373732220687265663D227374793E
:101020006C652E637373223E3C2F484541443E3C21
:10103000424F4459206267636F6C6F723D222332C6
:1010400032384232322220746578743D222346467B
:1010500046464646223E3C6120687265663D2269EE
:101060006E666F2E68746D6C227461726765743D74
:10107000226D61696E223E496E666F726D617469A0
:101080006F6E656E3C2F613E202F203C61206872A0
:1010900065663D227478702D6D73672E63676922D3
:1010A0007461726765743D226D61696E223E4E61A6
:1010B000636872696368742073656E64656E3C2F43
:1010C000613E202F203C6120687265663D22747865
:1010D000702D636F6E6669672E6367692274617233
:1010E0006765743D226D61696E223E5478502D45CE
:1010F000696E7374656C6C756E67656E3C2F613ECE
:10110000202F203C6120687265663D227478702D26
:1011100064656275672E63676922746172676574BE
:101120003D226D61696E223E44656275672D496E90
:10113000666F733C2F613E202F203C6120687265F2
:10114000663D226E6574776F726B2E68746D6C22CB
:101150003E4E65747A7765726B3C2F613E202F207E
:101160003C6120687265663D2273797374656D2EEB
:1011700068746D6C223E53797374656D3C2F613ECB
:101180003C2F424F44593E3C2F48544D4C3E0D0A93
:101190000D0A006E6574776F726B2E68746D6C004B
:1011A0003C48544D4C3E3C484541443E3C6C696E85
:1011B0006B2072656C3D227374796C65736865652C
:1011C000742220747970653D22746578742F63737E
:1011D000732220687265663D227374796C652E6394
:1011E0007373223E3C2F484541443E3C424F445994
:1011F000206267636F6C6F723D2223323238423255
:10120000322220746578743D22234646464646467F
:10121000223E3C6120687265663D226D61696E6D9B
:10122000656E752E68746D6C223E7A757275656395
:101230006B3C2F613E202F203C6120687265663D2B
:10124000226E6574776F726B2E63676922207461FA
:10125000726765743D226D61696E223E496E666FEC
:10126000733C2F613E202F203C6120687265663DF3
:10127000226E6574776F726B2E6367693F636F6E62
:1012800066696722207461726765743D226D6169C9
:101290006E223E4B6F6E66696775726174696F6E20
:1012A0003C2F613E3C2F424F44593E3C2F48544D09
:1012B0004C3E0D0A0D0A0073797374656D2E6874C7
:1012C0006D6C003C48544D4C3E3C484541443E3CCE
:1012D0006C696E6B2072656C3D227374796C6573FA
:1012E000686565742220747970653D227465787430
:1012F0002F6373732220687265663D227374796C64
:10130000652E637373223E3C2F484541443E3C4268
:101310004F4459206267636F6C6F723D22233232F3
:10132000384232322220746578743D222346464684
:10133000464646223E3C6120687265663D226D61EC
:10134000696E6D656E752E68746D6C223E7A75726D
:101350007565636B3C2F613E202F203C61206872D5
:1013600065663D2272657365742E63676922207419
:1013700061726765743D226D61696E223E526573CC
:1013800065743C2F613E202F203C612068726566A9
:101390003D226E74702E63676922207461726765E6
:1013A000743D226D61696E223E4E54503C2F613E69
:1013B000202F203C6120687265663D2264796E644E
:1013C0006E732E63676922207461726765743D22B3
:1013D0006D61696E223E44796E444E533C2F613EEE
:1013E000202F203C6120687265663D2265656D6531
:1013F0006D2E63676922207461726765743D226D8A
:1014000061696E223E45456D656D3C2F613E202F22
:10141000203C6120687265663D2263726F6E2E63A8
:10142000676922207461726765743D226D61696E1F
:10143000223E63726F6E3C2F613E3C2F424F4459F7
:101440003E3C2F48544D4C3E0D0A0D0A00696E6615
:101450006F2E68746D6C003C48544D4C3E3C424FBE
:1014600044593E3C7072653E3C703E202057656C8E
:10147000636F6D65206F6E0D0A5F5F5F5F5F5F5F1B
:101480005F5F5F5F5F5F5F5F5F5F5F5F5F5F5F5F6C
:101490005F5F5F5F5F5F5F5F5F5F5F5F5F5F5F5F5C
:1014A0005F5F5F5F5F5F5F5F5F5F5F5F5F5F5F5F4C
:1014B0005F5F5F5F5F5F5F5F5F5F5F5F5F5F5F5F3C
:1014C0005F5F5F0D0A204F4F4F4F4F20204F4F4F10
:1014D0004F4F20204F2020202020204F4F4F4F4F94
:1014E00020204F2020204F202020202020204F4F40
:1014F0004F4F2020204F2020204F2020204F4F4FA3
:101500002020204F2020204F20204F4F4F4F4F0DA5
:101510000A2020204F202020204F20202020202083
:101520004F2020202020204F202020202020204F2E
:10153000204F20202020202020204F2020204F201E
:10154000204F2020204F20204F2020204F20204FB0
:101550004F20204F20204F202020200D0A202E2E0B
:101560002E2E2E2E2E2E2E2E2E2E2E2E2E2E2E2E9B
:101570002E2E2E2E2E2E2E2E2E2E2E2E2E2E2E2E8B
:101580002E2E2E2E2E2E2E2E2E2E2E2E2E2E2E2E7B
:101590002E2E2E2E2E2E2E2E2E2E2E2E2E2E2E2E6B
:1015A0002E2E2E2E2E2E2E0D0A2020204F202020D3
:1015B000204F4F4F202020204F2020202020204F40
:1015C0004F4F2020202020204F202020204F4F4F01
:1015D00020204F4F4F4F2020204F4F4F4F4F202064
:1015E0004F2020204F20204F204F204F20204F4FB2
:1015F0004F20200D0A2020204F202020204F202087
:10160000202020204F2020202020204F202020207C
:101610002020204F204F20202020202020204F203D
:1016200020202020204F2020204F20204F2020202D
:101630004F20204F20204F4F20204F202020200DD2
:101640000A2020204F202020204F4F4F4F4F202096
:101650004F4F4F4F4F20204F4F4F4F4F20204F2085
:1016600020204F202020202020204F20202020201C
:10167000204F2020204F2020204F4F4F2020204F50
:101680002020204F20204F4F4F4F4F0D0A5F5F5FAC
:101690005F5F5F5F5F5F5F5F5F5F5F5F5F5F5F5F5A
:1016A0005F5F5F5F5F5F5F5F5F5F5F5F5F5F5F5F4A
:1016B0005F5F5F5F5F5F5F5F5F5F5F5F5F5F5F5F3A
:1016C0005F5F5F5F5F5F5F5F5F5F5F5F5F5F5F5F2A
:1016D0005F5F5F5F5F5F5F0D0A0D0A6275696C6433
:1016E000206F6E204156522D6C69626320766572C0
:1016F00073696F6E3A20312E362E372F32303039E3
:10170000303730322077697468206176722D6763D4
:101710006320342E332E332C20446174653A2046E6
:10172000656220323220323031322031313A323863
:101730003A3339200D0A0D0A286329323030362D0C
:1017400032303132202020536F6674776172653AEF
:10175000204672656420536F6E6E656E7265696EA9
:101760000D0A6261736564206F6E204F70656E4D67
:101770004350206279204469726B2042726F737308
:101780007769636B0D0A3C2F7072653E3C2F703E8B
:101790003C2F424F44593E3C2F48544D4C3E0D0A7D
:1017A000007374796C652E637373004063686172B3
:1017B000736574202249534F2D383835392D312225
:1017C0000D0A202020613A6C696E6B207B207465C5
:1017D00078742D6465636F726174696F6E3A6E6FB1
:1017E0006E653B20666F6E742D7765696768743A25
:1017F000626F6C643B20636F6C6F723A234646469F
:101800004646463B207D0D0A202020613A766973CA
:1018100069746564207B20746578742D6465636FDA
:10182000726174696F6E3A6E6F6E653B20666F6EA3
:10183000742D7765696768743A626F6C643B2063E6
:101840006F6C6F723A234646464646463B207D0DF6
:101850000A202020613A686F766572207B207465CB
:1018600078742D6465636F726174696F6E3A6E6F20
:101870006E653B20666F6E742D7765696768743A94
:10188000626F6C643B206261636B67726F756E643C
:101890002D636F6C6F723A233431363945313B20FA
:1018A0007D0D0A202020613A616374697665207B92
:1018B00020746578742D6465636F726174696F6EEE
:1018C0003A6E6F6E653B20666F6E742D7765696743
:1018D00068743A626F6C643B206261636B67726F1D
:1018E000756E642D636F6C6F723A234646464646AA
:1018F000463B207D0D0A202020613A666F63757398
:10190000207B20746578742D6465636F72617469DF
:101910006F6E3A6E6F6E653B20666F6E742D7765E5
:10192000696768743A626F6C643B206261636B67DD
:10193000726F756E642D636F6C6F723A234444410D
:101940003044443B207D0D0A202020707265207BAE
:10195000206F766572666C6F773A207363726F6C76
:101960006C3B207D0D0A00485454502F312E3020FE
:1019700032303020446F63756D656E7420666F6C15
:101980006C6F77730D0A436F6E74656E742D4C65C2
:101990006E6774683A20256C640D0A436F6E746537
:1019A0006E742D547970653A20257325730D0A43A2
:1019B000616368652D436F6E74726F6C3A206D6160
:1019C000782D6167653D333630300D0A436F6E6E9A
:1019D000656374696F6E3A20636C6F73650D0A0DF1
:1019E0000A00746578742F0068746D0068746D6CFB
:1019F000000D0A436F6E74656E742D4C656E6774CE
:101A0000683A2025640D0A43616368652D436F6E53
:101A100074726F6C3A206D61782D6167653D333665
:101A200030300D0A436F6E6E656374696F6E3A20D5
:101A3000636C6F73650D0A0D0A0062696E00746550
:101A400078742F68746D6C006A70656700706E67DB
:101A500000485454502F312E302032303020446F03
:101A600063756D656E7420666F6C6C6F77730D0AAD
:101A7000436F6E74656E742D547970653A20003E24
:101A8000200051756974696E670D0A00717569747B
:101A900000556E642C206C6F732067656874277323
:101AA0002E2E2E21212120282268656C702220688C
:101AB000696C6674203A2D29290D0A3E2000746550
:101AC0006C6E65740054656C6E65742D536572762A
:101AD000657220506F72742025642E0D0A004352E7
:101AE0004F4E5F454E5452595F2530326400256495
:101AF0003A206E696368742062656C6567740D0ACC
:101B00000025643A2025642025642025730D0A00F1
:101B100063726F6E00666F6F2E63676900257320B6
:101B20002F202573202F2025640D0A0049502F4DAA
:101B300041432F54544C0D0A00617270003C2F42F7
:101B40004F44593E3C2F48544D4C3E0D0A0D0A005F
:101B50003C48544D4C3E3C484541443E3C6D6574C8
:101B60006120687474702D65717569763D227265A7
:101B700066726573682220636F6E74656E743D22B1
:101B80003630303B20223E3C5449544C453E537441
:101B90007265616D696E673C2F5449544C453E3CFB
:101BA0002F484541443E3C424F4459206267636F91
:101BB0006C6F723D222332323842323222207465F9
:101BC00078743D2223464646464646223E5A65697B
:101BD000743A20253032643A253032643A25303266
:101BE000642E2530326420282025752F25752F2559
:101BF00030347520290050485354415432207C2001
:101C00003078253034580D0A00504853544154312F
:101C1000207C203078253034580D0A005265762E0D
:101C2000494420207C2020203078253032580D0A6D
:101C3000002D2D2D2D2D2D2D2D2B2D2D2D2D2D2D03
:101C40002D2D0D0A005265672E202020207C205764
:101C50006572740D0A00454E4332384A36303A0DEB
:101C60000A005443502D5458204572726F72733AD3
:101C7000202564205443502D5258204572726F72B3
:101C8000733A2025642028756E736F727465642022
:101C900025642C206F6C64736571202564290D0AFE
:101CA0000D0A0045746865726E65743A20256C648F
:101CB00020427974657320696E20256C6420506120
:101CC000636B6574656E204C6F636B4572726F72E7
:101CD0007320256C640D0A0073746174732E63673E
:101CE0006900737461747300526573657400726582
:101CF0007365740072657365740072657365740052
:101D00003C666F726D20616374696F6E3D2272650F
:101D10007365742E63676922206D6574686F643D16
:101D20002267657422206163636570742D63686146
:101D3000727365743D2249534F2D383835392D3132
:101D4000223E3C703E3C696E7075742074797065FB
:101D50003D227375626D697422206E616D653D224E
:101D60007265736574222076616C75653D227265BB
:101D7000736574223E3C2F703E3C2F666F726D3E41
:101D80000072657365742E636769007265736574AC
:101D900000646E73203C686F73746E616D653E0DF8
:101DA0000A004950207A75202573203D2025730DA7
:101DB0000A00646E730044484350004950004D418E
:101DC000534B004741544500444E53004D4143009E
:101DD00045696E7374656C6C756E67656E207565AC
:101DE0006265726E6F6D6D656E210D0A003C7472D6
:101DF0003E3C746420616C69676E3D22726967685D
:101E000074223E48617264776172652D4D41433C96
:101E10002F74643E3C74643E3C696E707574206E31
:101E2000616D653D224D41432220747970653D22EC
:101E300074657874222073697A653D2231372220D7
:101E400076616C75653D22257322206D61786C6525
:101E50006E6774683D223137223E3C2F74643E3CED
:101E60002F74723E3C74723E3C74643E3C2F74642A
:101E70003E3C74643E3C696E707574207479706584
:101E80003D227375626D6974222076616C75653DC3
:101E9000222045696E7374656C6C756E67202655DB
:101EA000756D6C3B6265726E65686D656E20223E75
:101EB0003C2F74643E3C2F74723E3C2F7461626C04
:101EC000653E3C2F666F726D3E004D4143003C7491
:101ED000723E3C746420616C69676E3D2272696772
:101EE0006874223E444E532D5365727665723C2FC2
:101EF00074643E3C74643E3C696E707574206E611F
:101F00006D653D22444E532220747970653D2274E4
:101F1000657874222073697A653D223135222076F6
:101F2000616C75653D22257322206D61786C656E4C
:101F30006774683D223135223E3C2F74643E3C2F4D
:101F400074723E00444E53003C74723E3C746420F4
:101F5000616C69676E3D227269676874223E4761F1
:101F600074657761793C2F74643E3C74643E3C69CF
:101F70006E707574206E616D653D22474154452237
:101F800020747970653D2274657874222073697AB3
:101F9000653D223135222076616C75653D222573C1
:101FA00022206D61786C656E6774683D2231352240
:101FB0003E3C2F74643E3C2F74723E0047415445B2
:101FC000003C74723E3C746420616C69676E3D2213
:101FD0007269676874223E4E65747A7765726B6DBC
:101FE00061736B653C2F74643E3C74643E3C696E67
:101FF000707574206E616D653D224D41534B2220FA
:10200000747970653D2274657874222073697A65ED
:102010003D223135222076616C75653D2225732283
:10202000206D61786C656E6774683D223135223EA3
:102030003C2F74643E3C2F74723E004D41534B0064
:102040003C74723E3C746420616C69676E3D227220
:1020500069676874223E49502D41647265737365E7
:102060003C2F74643E3C74643E3C696E7075742011
:102070006E616D653D2249502220747970653D2264
:1020800074657874222073697A653D223135222087
:1020900076616C75653D22257322206D61786C65D3
:1020A0006E6774683D223135223E3C2F74643E3C9D
:1020B0002F74723E004950003E3C2F74643E3C2F0A
:1020C00074723E00636865636B6564006F6E003C0C
:1020D00074723E3C746420616C69676E3D22726963
:1020E000676874223E4448435020616B7469766986
:1020F0006572656E3C2F74643E3C74643E3C696E50
:1021000070757420747970653D22636865636B62D5
:102110006F7822206E616D653D2244484350222035
:1021200076616C75653D226F6E22200044484350F5
:10213000003C666F726D20616374696F6E3D226E44
:102140006574776F726B2E636769223E3C746162BF
:102150006C6520626F726465723D22302220636577
:102160006C6C70616464696E673D22352220636522
:102170006C6C73706163696E673D2230223E006350
:102180006F6E666967003C2F7072653E0D0A0073C2
:1021900074617473006966636F6E666967003C7092
:1021A00072653E0D0A000D0A48572D4164723A20AF
:1021B000253032783A253032783A253032783A254F
:1021C0003032783A253032783A253032780D0A0D9F
:1021D0000A00444E533A25730D0A0047617465772F
:1021E00061793A25730D0A004E65746D61736B3A1F
:1021F00025730D0A0049503A25730D0A006E657467
:10220000776F726B2E636769006966636F6E6669CC
:1022100067004E5450004E5450534552564552009C
:102220005554435A4F4E450045696E7374656C6C46
:10223000756E67656E2075656265726E6F6D6D6532
:102240006E210D0A003C74723E3C746420616C691E
:10225000676E3D227269676874223E534E54502D5A
:102260005365727665723C2F74643E3C74643E3CE8
:10227000696E707574206E616D653D224E545053C9
:1022800045525645522220747970653D2274657816
:1022900074222073697A653D223235222076616C82
:1022A00075653D22257322206D61786C656E6774BB
:1022B000683D223235223E3C2F74643E3C2F7472BE
:1022C0003E3C74723E3C746420616C69676E3D22D2
:1022D0007269676874223E5A6569747A6F6E653CEC
:1022E0002F74643E3C74643E3C696E707574206E5D
:1022F000616D653D225554435A4F4E4522207479F5
:1023000070653D2274657874222073697A653D2278
:1023100033222076616C75653D22257322206D6124
:10232000786C656E6774683D2233223E3C2F74647E
:102330003E3C2F74723E3C74723E3C74643E3C2FB3
:1023400074643E3C74643E3C696E707574207479AC
:1023500070653D227375626D6974222076616C75BB
:10236000653D222045696E7374656C6C756E6720DF
:102370002655756D6C3B6265726E65686D656E2085
:10238000223E3C2F74643E3C2F74723E3C2F74619D
:10239000626C653E3C2F666F726D3E003000746962
:1023A0006D652E66752D6265726C696E2E646500B2
:1023B0003E3C2F74643E3C2F74723E00636865633C
:1023C0006B6564006F6E003C666F726D20616374B4
:1023D000696F6E3D226E74702E636769223E0D3CFC
:1023E0007461626C6520626F726465723D22302296
:1023F0002063656C6C70616464696E673D22352290
:102400002063656C6C73706163696E673D22302276
:102410003E3C74723E3C746420616C69676E3D2280
:102420007269676874223E534E545020616B746920
:1024300076696572656E3C2F74643E3C74643E3C04
:10244000696E70757420747970653D226368656388
:102450006B626F7822206E616D653D224E54502272
:102460002076616C75653D226F6E2220006E74705F
:10247000203C6E74707365727665723E0D0A00467C
:1024800065686C65720D0A004E657565205A656950
:10249000743A20253032643A253032643A2530329D
:1024A000640D0A00486F6C65205A65697420766F68
:1024B0006E2025730D0A004665686C65720D0A0072
:1024C0006E74702E636769006E7470002644594EF6
:1024D000444E535F5553455250570044594E444E55
:1024E000535F444F4D41494E0045696E7374656CAE
:1024F0006C756E67656E2075656265726E6F6D6D69
:10250000656E210D0A002D31202D31352022647990
:102510006E646E7320757064617465220044594E58
:10252000444E535F4F4E002D31202D313520226413
:10253000796E646E7320757064617465220044590D
:102540004E444E530044594E444E535F4F4E004448
:10255000594E444E5300444F4D41494E0044594E4C
:10256000444E535F444F4D41494E00444F4D414905
:102570004E004143434F554E54002644594E444E5D
:10258000535F555345525057004143434F554E54A6
:10259000004143434F554E54003C666F726D2061BD
:1025A0006374696F6E3D2264796E646E732E636727
:1025B00069223E0D203C7461626C6520626F72641A
:1025C00065723D2230222063656C6C7061646469C1
:1025D0006E673D2235222063656C6C7370616369A0
:1025E0006E673D2230223E20203C74723E0D20203A
:1025F000203C746420616C69676E3D227269676873
:1026000074223E44796E444E5320616B746976693E
:102610006572656E3C2F74643E2020203C74643EDD
:102620003C696E70757420747970653D22636865CD
:10263000636B626F7822206E616D653D2244594E56
:10264000444E53222076616C75653D226F6E2220C8
:102650002573203E20203C2F74643E0D20203C74C6
:10266000723E0D2020203C746420616C69676E3DD1
:10267000227269676874223E64796E444E53204129
:1026800063636F756E74202820757365723A707776
:1026900020293C2F74643E2020203C74643E3C6919
:1026A0006E707574206E616D653D224143434F55D8
:1026B0004E542220747970653D227465787422200E
:1026C00073697A653D223331222076616C75653DF0
:1026D0002222206D61786C656E6774683D2233310B
:1026E000223E3C2F74643E20203C2F74723E0D200D
:1026F000203C74723E0D2020203C746420616C6983
:10270000676E3D227269676874223E44796E444E5A
:102710005320446F6D61696E3C2F74643E2020200D
:102720003C74643E3C696E707574206E616D653DED
:1027300022444F4D41494E2220747970653D2274E8
:10274000657874222073697A653D223331222076C0
:10275000616C75653D22257322206D61786C656E14
:102760006774683D223331223E3C2F74643E202042
:102770003C2F74723E0D20203C74723E0D202020B0
:102780003C74643E3C2F74643E3C74643E3C696E11
:1027900070757420747970653D227375626D69740B
:1027A000222076616C75653D222045696E737465E3
:1027B0006C6C756E67202655756D6C3B6265726E2C
:1027C00065686D656E20223E3C2F74643E20203C7F
:1027D0002F74723E0D203C2F7461626C653E0D3C7F
:1027E0002F666F726D3E00636865636B6564006F92
:1027F0006E0044594E444E535F4F4E0044594E4470
:102800004E535F444F4D41494E0044594E444E5340
:102810005F444F4D41494E0064796E646E73203CB5
:102820007570646174653E202F203C73657461632C
:10283000636F756E7420757365723A707740647952
:102840006E646E732D646F6D61696E3E0D0A00419A
:1028500063636F756E74646174656E206765737011
:10286000656963686572742E0D0A0073657461632F
:10287000636F756E7400557064617465206675656C
:1028800072202573206665686C67657363686C6188
:1028900067656E0D0A005570646174652066756524
:1028A00072202573206572666F6C67726569636854
:1028B0002E0D0A007570646174650064796E646E33
:1028C000732E6367690064796E646E730064656C6F
:1028D0000064656C0045696E7374656C6C756E6739
:1028E000656E2075656265726E6F6D6D656E210D2A
:1028F0000A00434D440025642025642022257322CC
:10290000004D4D00484800434D44003C666F726DD9
:1029100020616374696F6E3D2263726F6E2E636710
:1029200069223E3C7461626C6520626F72646572FC
:102930003D2230222063656C6C70616464696E674F
:102940003D2235222063656C6C73706163696E672C
:102950003D2230223E3C74723E3C746420616C69BE
:10296000676E3D227269676874223E5374756E64A7
:10297000653C2F74643E3C74643E3C696E707574B3
:10298000206E616D653D2248482220747970653D56
:102990002274657874222073697A653D223322207F
:1029A00076616C75653D2230226D61786C656E676D
:1029B00074683D2233223E3C2F74643E3C2F747277
:1029C0003E3C74723E3C746420616C69676E3D22CB
:1029D0007269676874223E4D696E7574653C2F7428
:1029E000643E3C74643E3C696E707574206E616D2B
:1029F000653D224D4D2220747970653D22746578C5
:102A000074222073697A653D2233222076616C75C9
:102A1000653D223022206D61786C656E6774683D7B
:102A20002233223E3C2F74643E3C2F74723E3C7431
:102A3000723E3C746420616C69676E3D2272696706
:102A40006874223E436F6D6D616E643C2F74643E0A
:102A50003C74643E3C696E707574206E616D653DBA
:102A600022434D442220747970653D227465787448
:102A7000222073697A653D22333022206D61786CA3
:102A8000656E6774683D223330223E3C2F74643E8D
:102A90003C2F74723E3C74723E3C74643E3C2F7416
:102AA000643E3C74643E3C696E7075742074797049
:102AB000653D227375626D6974222076616C75655F
:102AC0003D222045696E7472616720736963686591
:102AD000726E20223E3C2F74643E3C2F74723E3C4A
:102AE0002F7461626C653E3C2F666F726D3E0D0007
:102AF0006164646E6577003C74723E3C746420616E
:102B00006C69676E3D226C656674223E3C6120688C
:102B10007265663D2263726F6E2E6367693F616402
:102B2000646E657722207374796C653D22746578D4
:102B3000742D6465636F726174696F6E3A6E6F6E47
:102B40006522207469746C653D22416464223E3CB8
:102B5000696E70757420747970653D226275747445
:102B60006F6E222076616C75653D22616464206E13
:102B700065772063726F6E2220636C6173733D22F0
:102B8000616374696F6E42746E223E3C2F613E3CFD
:102B90002F74643E3C2F74723E3C2F7461626C65EE
:102BA0003E0D003C74723E3C746420616C69676E3B
:102BB0003D226C656674223E25733C2F74643E3C56
:102BC000746420616C69676E3D226C656674223E98
:102BD0003C6120687265663D2263726F6E2E63678A
:102BE000693F64656C3D256422207374796C653D92
:102BF00022746578742D6465636F726174696F6E99
:102C00003A6E6F6E6522207469746C653D2244656E
:102C10006C223E3C696E70757420747970653D223B
:102C2000627574746F6E222076616C75653D2264E6
:102C3000656C2220636C6173733D22616374696FFC
:102C40006E42746E223E3C2F613E3C2F74643E3CCB
:102C50002F74723E003C7461626C6520626F726416
:102C600065723D2230222063656C6C70616464691A
:102C70006E673D2235222063656C6C7370616369F9
:102C80006E673D2230223E0063726F6E2E6367696D
:102C9000003C2F7072653E003C7072653E006565B9
:102CA0006D656D203C70726F746563743E7C3C751D
:102CB0006E70726F746563743E203C616464205B67
:102CC0006E616D652076616C5D3E203C64656C20B4
:102CD0005B6E616D655D3E203C7072696E743E2076
:102CE0003C636C65616E3E0D0A00636C65616E004D
:102CF0007072696E740064656C0061646400756E66
:102D000070726F7465637465740D0A00575249548C
:102D1000455F50524F54454354004F464600756E30
:102D200070726F746563740057524954455F505216
:102D30004F54454354004F4E0070726F7465637476
:102D40000065656D656D2E6367690065656D656D10
:102D50000048415550545354454C4C450045494753
:102D6000454E454E554D4D455200464553544548F8
:102D70005053540044555243485741484C544142E3
:102D8000005478500054656C657850686F6E65200B
:102D9000506F72742025642E0D0A007478702D64B3
:102DA000656275672E636769007478702D636F6E56
:102DB0006669672E636769007478702D6D73672D7F
:102DC0006F75742E636769007478702D6D73672D4D
:102DD000696E2E636769007478702D6D73672E635A
:102DE0006769003C62723E44757263687761686C23
:102DF000656E3A2025730025642C25642C25642CEF
:102E000025642C25642C25642C25642C25642C2514
:102E100064003C62723E466573746520486175705B
:102E2000747374656C6C653A202564003C62723E74
:102E300048617570747374656C6C653A2025640024
:102E40003C62723E456967656E65204E756D6D65C5
:102E500072206B6F6E6E7465206E69636874206794
:102E6000652661756D6C3B6E646572742077657262
:102E700064656E003C62723E456967656E65204E12
:102E8000756D6D65723A202564006E657565204527
:102E9000696E7374656C6C756E67656E3A203C6123
:102EA00020687265663D227478702D636F6E666966
:102EB000672E636769223E7765697465723C2F618E
:102EC0003E003C74723E3C74643E3C696E707574A6
:102ED00020747970653D227375626D697422207665
:102EE000616C75653D222045696E7374656C6C7507
:102EF0006E67202655756D6C3B6265726E65686DF8
:102F0000656E20223E3C2F74643E3C2F74723E3C22
:102F10002F7461626C653E3C2F666F726D3E003CA3
:102F200074723E3C746420616C69676E3D22726904
:102F3000676874223E44757263687761686C656E79
:102F40003A3C62723E286D6974204B6F6D6D612052
:102F50007472656E6E656E293C2F74643E3C7464B9
:102F60003E3C696E707574206E616D653D224455FE
:102F70005243485741484C5441422220747970656D
:102F80003D2274657874222073697A653D2233305E
:102F9000222076616C75653D22257322206D617853
:102FA0006C656E6774683D223330223E3C2F74643A
:102FB0003E3C2F74723E003E3C2F74643E3C2F74A6
:102FC000723E00636865636B6564003C74723E3CEE
:102FD000746420616C69676E3D227269676874224F
:102FE0003E66657374652048617570747374656CB2
:102FF0006C653A3C2F74643E3C74643E3C696E7070
:103000007574206E616D653D2246455354454850A8
:1030100053542220747970653D22636865636B6246
:103020006F78222076616C75653D22312220003C4C
:1030300074723E3C746420616C69676E3D227269F3
:10304000676874223E48617570747374656C6C6552
:103050003A3C2F74643E3C74643E3C696E707574F7
:10306000206E616D653D2248415550545354454C86
:103070004C452220747970653D2274657874222055
:1030800073697A653D2232222076616C75653D2236
:10309000256422206D61786C656E6774683D22320C
:1030A000223E3C2F74643E3C2F74723E003C74728E
:1030B0003E3C746420616C69676E3D22726967688A
:1030C00074223E456967656E65204E756D6D65724B
:1030D0003A3C2F74643E3C74643E3C696E70757477
:1030E000206E616D653D22454947454E454E554D23
:1030F0004D45522220747970653D227465787422A2
:103100002073697A653D2232222076616C75653DB7
:1031100022256422206D61786C656E6774683D229B
:1031200032223E3C2F74643E3C2F74723E003C665B
:103130006F726D20616374696F6E3D227478702DBB
:10314000636F6E6669672E636769223E3C746162D5
:103150006C6520626F726465723D22302220636567
:103160006C6C70616464696E673D22352220636512
:103170006C6C73706163696E673D2230223E003C67
:10318000666F726D20616374696F6E3D2274787032
:103190002D6D73672D696E2E636769223E45696EDA
:1031A000676162653A203C696E707574206E616D6E
:1031B000653D2245696E676162652220747970659C
:1031C0003D2274657874222073697A653D22363514
:1031D000222076616C75653D2222206D61786C65D8
:1031E0006E6774683D223635223E3C696E70757498
:1031F00020747970653D227375626D697422207642
:10320000616C75653D2220416273656E64656E2058
:10321000223E3C6120687265663D227478702D6D97
:1032200073672D6F75742E636769222074617267EE
:1032300065743D224D73674F7574223E416B747502
:10324000616C6973696572656E3C2F613E3C2F66E7
:103250006F726D3E000D0A0045696E676162650020
:1032600045696E67616265005465787465696E676B
:103270006162652073746172746574204665726E54
:10328000736368726569626572003C693E3C707286
:10329000653E25733C2F7072653E3C2F693E0044AD
:1032A0007275636B7370696567656C3A3C62723EF8
:1032B0003C7072653E25733C2F7072653E003C4841
:1032C000544D4C3E3C484541443E3C6D6574612044
:1032D000687474702D65717569763D2265787069C2
:1032E0007265732220636F6E74656E743D223122A5
:1032F0003E3C6D65746120687474702D65717569EC
:10330000763D22707261676D612220636F6E746515
:103310006E743D226E6F2D6361636865223E3C6D65
:1033200065746120687474702D65717569763D22CD
:10333000726566726573682220636F6E74656E7461
:103340003D22353B2055524C3D7478702D6D73678E
:103350002D6F75742E636769223E3C2F48454144AA
:103360003E3C424F44593E003C48544D4C3E3C4844
:103370004541443E3C6D65746120687474702D65F0
:10338000717569763D226578706972657322206374
:103390006F6E74656E743D2231223E3C6D657461C2
:1033A00020687474702D65717569763D2270726144
:1033B000676D612220636F6E74656E743D226E6F5F
:1033C0002D6361636865223E3C2F484541443E3C85
:1033D0006672616D6573657420726F77733D222A22
:1033E0002C363022207363726F6C6C696E673D22DD
:1033F0006E6F22206672616D65626F726465723DE8
:1034000022322220626F726465723D22322220666F
:1034100072616D6573706163696E673D223222204F
:10342000626F72646572636F6C6F723D222330301D
:1034300030303030223E3C6672616D6520737263BD
:103440003D227478702D6D73672D6F75742E6367D0
:103450006922206E616D653D224D73674F75742240
:10346000207363726F6C6C696E673D226175746F57
:10347000223E3C6672616D65207372633D227478F2
:10348000702D6D73672D696E2E63676922206E61E2
:103490006D653D224D7367496E22207363726F6CB8
:1034A0006C696E673D226E6F223E3C6E6F66726184
:1034B0006D65733E3C626F64793E3C703E49687254
:1034C0002042726F7773657220756E7465727374C3
:1034D000C3BC747A74206B65696E65204672616D39
:1034E0006573213C2F703E3C2F626F64793E3C2F08
:1034F0006E6F6672616D65733E3C2F6672616D65BD
:103500007365743E3C2F48544D4C3E0D0A0D0A0025
:103510003C703E45746865726E65743A20256C6433
:1035200020427974657320696E20256C6420506197
:10353000636B6574656E204C6F636B4572726F725E
:103540007320256C640D0A003C62723E54787054FE
:103550006872656164436F756E74202F203530305A
:10356000203D202564003C62723E54696D657230D6
:1035700043616C6C6261636B436F756E74202F20C6
:10358000353030203D202564003C62723E5477691E
:10359000497372436F756E74203D202564003C6250
:1035A000723E46616C7363686572436F6465203D6B
:1035B000202564003C62723E4C6562656E737A65DC
:1035C000696368656E5A6165686C6572203D202587
:1035D00064003C62723E53656E64654D61726B209F
:1035E0003D202564003C62723E536572556D536503
:1035F0006E64446174656E203D202564003C6272F7
:103600003E536572556D53656E644269744E722007
:103610003D202564002025303258003C62723E5027
:103620007566666572416E7A61686C2826456D70B4
:103630006650756666657229203D202564003C62EF
:10364000723E527568655A6165686C6572203D20EE
:103650002564003C62723E536572556D5469636B1C
:103660005A6165686C657253656E64203D202564FF
:10367000003C62723E536572556D5469636B5A61CA
:1036800065686C6572456D7066203D202564003C60
:1036900062723E536572556D456D70664D61726B19
:1036A0005A6165686C203D202564003C62723E537F
:1036B0006572556D456D70664665686C6572203D36
:1036C000202564003C62723E536572556D456D70F5
:1036D00066446174656E203D202564003C62723E44
:1036E000536572556D456D70664269744E72203D2A
:1036F000202564003C62723E427573456D70664DD4
:1037000061726B203D202564003C62723E537461FF
:10371000747573203D202564003C62723E4D6F64D9
:103720007573203D202564003C62723E54696D65CE
:10373000723043616C6C6261636B5F4D6178203DF8
:10374000202564003C62723E54696D657230436EA0
:10375000745F4D6178203D202564003C62723E54C8
:10376000696D657230436E745F4D696E203D202532
:1037700064005D3C703E44656275674D73673A2036
:1037800025733C62723E005D3C62723E53656E641E
:1037900065546578743A205B00456D7066546578B1
:1037A000743A205B0054656C6E65742D41736369D7
:1037B000692D56657262696E64756E672042656533
:1037C0006E64656E0D0A002B2B2B0054656C6E65C4
:1037D000742D41736369692D56657262696E6475F3
:1037E0006E672067657472656E6E740D0A005465AD
:1037F0006C6E65742D41736369692D5665726269DB
:103800006E64756E67206162676577696573656E62
:103810000D0A0054656C6E65742D41736369692DE2
:1038200056657262696E64756E6720686572676559
:103830007374656C6C740D0A005478503A204175AD
:1038400073736368616C74756E6720696E746572FA
:103850006E0D0A00526573657276696572756E67E2
:103860002066C3BC722045696E736368616C7475B1
:103870006E67206B6F6E6E7465206E69636874206E
:1038800076657273616E642077657264656E00544C
:1038900078503A2045696E736368616C74756E6721
:1038A0002065787465726E202D3E20696E74657295
:1038B0006E20564552534147540D0A005478503AF1
:1038C0002045696E736368616C74756E67206578F6
:1038D0007465726E202D3E2045696E736368616C5D
:1038E00074756E6720696E7465726E0D0A00547887
:1038F000503A2045696E736368616C74756E672019
:1039000065787465726E202D3E20526573657276FF
:10391000696572756E6720696E7465726E0D0A0056
:103920003F6E6963687420647275636B626172656F
:10393000205A65696368656E3A20005363686C7548
:1039400073737175697474756E67206F686E652026
:10395000417566666F72646572756E670054785063
:103960003A20417573736368616C74756E6720717A
:1039700075697474696572740D0A005478503A2040
:1039800056657262696E64756E672041736369691A
:1039900020776972642067657363686C6F73736501
:1039A0006E0D0A005478503A204175737363686154
:1039B0006C74756E6720696E7465726E0D0A0054C2
:1039C00078503A2056657262696E64756E67204160
:1039D0007363696920617573676568656E642068E3
:1039E000657267657374656C6C740D0A0054785069
:1039F0003A2056657262696E64756E672041736322
:103A0000696920617573676568656E6420766572A3
:103A1000736167740D0A005478503A205761686CDE
:103A20007A696666657220256420696E7465726EB7
:103A3000202F20676568656E640D0A005478503A3F
:103A4000205761686C617566666F72646572756E29
:103A50006720696E7465726E202F206B6F6D6D65C7
:103A60006E643F3F3F0D0A005478503A2045696E1E
:103A7000736368616C747175697474756E672069BD
:103A80006E7465726E202F206B6F6D6D656E640DA8
:103A90000A005478503A2045696E736368616C740B
:103AA0006B6F6D6D616E646F20696E7465726E20F0
:103AB0002F20676568656E640D0A005478503A20BF
:103AC000526573657276696572756E6720696E748A
:103AD00065726E202F20676568656E6420766F6E54
:103AE0002025640D0A000D0A0A646174756D3A2080
:103AF000253032752E253032752E25303475202034
:103B00007568727A6569743A20253032643A2530D6
:103B100032643A253032640D0A0A0023740D6F2096
:103B2000686E6D0A6C726769706376657A64627339
:103B300079667861776A2375716B230023350D39B7
:103B400020232C2E0A29342338303A3D332B233FAF
:103B50002736232F2D32232337312823000014BE8C
:103B600088E10FB6F89480936000109260000FBE59
:103B700011241FBECFEFD1E2DEBFCDBF00E00CBFEE
:103B800080917400806880937400579A5F980E94B7
:103B9000392A80E00E941B2AC0E0D2E2CE010E94B6
:103BA000F92989938FEFCF3FD807C1F7C0E0D2E260
:103BB000EE24FF241881CE010E94F929181719F06C
:103BC0000894E11CF11C19928FEFCF3FD80791F7B1
:103BD000E114F10421F081E00E941B2AFFCF81E073
:103BE0000E941B2A80E00E94112A12E2A0E0B2E2A9
:103BF000ECE7F8E001E00BBF02C007900D92A03C9B
:103C0000B107D9F716EAA0ECB2E201C01D92AC3AB6
:103C1000B107E1F704D00C943C840C9400000E949E
:103C2000055182E00E941B2A0E94E36482E00E9408
:103C3000112A83E00E941B2A0E94E7640E94976F6A
:103C400083E00E94112A0E94B654FDCF10926900B1
:103C500010926A000895AC018830910554F42DB398
:103C600081E090E002C0880F991F4A95E2F7282B67
:103C70002DBB0895DC018830910514F08EEF089576
:103C80006430710514F08FEF0895FC01EE0FFF1FF3
:103C9000A430B105CCF48091690023E030E00E2E11
:103CA00002C0220F331F0A94E2F7209528232093A5
:103CB00069008091690002C0660F771FEA95E2F7FC
:103CC000862B8093690018C080916A0023E030E061
:103CD0000E2E02C0220F331F0A94E2F720952823EC
:103CE00020936A0080916A0002C0660F771FEA95F0
:103CF000E2F7862B80936A00FD01EE0FFF1FE05470
:103D0000FD4D51834083CD01A6DF80E00895AC01D5
:103D1000883091055CF42DB381E090E002C0880FFB
:103D2000991F4A95E2F7809582238DBB08951F92D3
:103D30000F920FB60F920BB60F9211242F933F9351
:103D40004F935F936F937F938F939F93AF93BF93A3
:103D5000EF93FF93E091C022F091C1221995FF915A
:103D6000EF91BF91AF919F918F917F916F915F91F3
:103D70004F913F912F910F900BBE0F900FBE0F9060
:103D80001F9018951F920F920FB60F920BB60F92BD
:103D900011242F933F934F935F936F937F938F9350
:103DA0009F93AF93BF93EF93FF93E091C222F09163
:103DB000C3221995FF91EF91BF91AF919F918F9180
:103DC0007F916F915F914F913F912F910F900BBE1B
:103DD0000F900FBE0F901F9018951F920F920FB665
:103DE0000F920BB60F9211242F933F934F935F9333
:103DF0006F937F938F939F93AF93BF93EF93FF93B3
:103E0000E091C422F091C5221995FF91EF91BF91E5
:103E1000AF919F918F917F916F915F914F913F9162
:103E20002F910F900BBE0F900FBE0F901F90189503
:103E30001F920F920FB60F920BB60F9211242F9371
:103E40003F934F935F936F937F938F939F93AF9322
:103E5000BF93EF93FF93E091C622F091C72219958B
:103E6000FF91EF91BF91AF919F918F917F916F9152
:103E70005F914F913F912F910F900BBE0F900FBE0E
:103E80000F901F9018951F920F920FB60F920BB6BE
:103E90000F9211242F933F934F935F936F937F93D0
:103EA0008F939F93AF93BF93EF93FF93E091C822BB
:103EB000F091C9221995FF91EF91BF91AF919F9118
:103EC0008F917F916F915F914F913F912F910F90C3
:103ED0000BBE0F900FBE0F901F9018951F920F9260
:103EE0000FB60F920BB60F9211242F933F934F935F
:103EF0005F936F937F938F939F93AF93BF93EF9352
:103F0000FF93E091CA22F091CB221995FF91EF9196
:103F1000BF91AF919F918F917F916F915F914F91E1
:103F20003F912F910F900BBE0F900FBE0F901F90DF
:103F300018951F920F920FB60F920BB60F92112485
:103F40002F933F934F935F936F937F938F939F93A1
:103F5000AF93BF93EF93FF93E091CC22F091CD22EA
:103F60001995FF91EF91BF91AF919F918F917F91A3
:103F70006F915F914F913F912F910F900BBE0F90DA
:103F80000FBE0F901F9018951F920F920FB60F92B1
:103F90000BB60F9211242F933F934F935F936F9320
:103FA0007F938F939F93AF93BF93EF93FF93E09192
:103FB000CE22F091CF221995FF91EF91BF91AF9151
:103FC0009F918F917F916F915F914F913F912F9131
:103FD0000F900BBE0F900FBE0F901F901895FC0115
:103FE000EE0FFF1FEE0FFF1FE80FF91FE05FFC4D04
:103FF00086E084830895613011F4845E089567300B
:1040000008F0615060FD02C08FE108958EE10895CF
:10401000A0E0B0E0EEE0F0E20C94947EEC018E843F
:104020009F84A888B988EE84FF84088919896985E6
:1040300070E080E090E020E13EE040E050E00E944F
:10404000267EE60EF71E081F191FEE86FF86088BD8
:10405000198B8CE697E098878F836E857F8588899A
:10406000998920E831E541E050E00E946C7E162FEE
:10407000072FF82EE92E6E857F858889998920E89B
:1040800031E541E050E00E946C7E6901612F702FA4
:104090008F2D9E2D2CE330E040E050E00E946C7E9E
:1040A0006983612F702F8F2D9E2D20E13EE040E02F
:1040B00050E00E946C7E2CE330E040E050E00E9433
:1040C0006C7E2A83612F702F8F2D9E2D20E13EE084
:1040D00040E050E00E946C7E2B83C601019667E0B1
:1040E00070E00E94457E8C8322C08F81988583700A
:1040F0009070892B99F48F81988564E670E00E9416
:10410000457E892B41F48F81988560E971E00E949A
:10411000457E892B19F48EE691E002C08DE691E090
:10412000C81AD90A8F819885019698878F838F81C5
:10413000988583709070892B99F48F81988564E6B7
:1041400070E00E94457E892B41F48F81988560E95B
:1041500071E00E94457E892B19F48EE691E002C041
:104160008DE691E0C816D90608F0BFCF1E8228C0A0
:104170008F81988583709070892B19F080E090E092
:1041800018C08F81988564E670E00E94457E892B77
:1041900019F081E090E00DC08F81988520E030E03B
:1041A00060E971E00E94457E892B11F421E030E046
:1041B000C9016E8120DFC81AD1088E818F5F8E837E
:1041C0008F81988583709070892B19F080E090E042
:1041D00018C08F81988564E670E00E94457E892B27
:1041E00019F081E090E00DC08F81988520E030E0EB
:1041F00060E971E00E94457E892B11F421E030E0F6
:10420000C9016E81F8DE90E0C816D90608F0B0CF7B
:104210008E818F5F8E838C2D8F5F8D838E81833017
:1042200010F430E007C08E8130E08B3008F031E0D0
:1042300081E038278D812C8190E0821B910949977C
:1042400054F08C81882319F48B81823020F08E8188
:104250008A3021F440C08E818330E9F13323D9F1D3
:104260008B818F5F8B838B818831A9F51B828C8139
:104270008F5F8C838C81873009F41C821D818F8134
:10428000988583709070892B19F080E090E018C0B9
:104290008F81988564E670E00E94457E892B19F035
:1042A00081E090E00DC08F81988520E030E060E9EA
:1042B00071E00E94457E892B11F421E030E0C901B4
:1042C0006E8199DE181721F41D828E818F5F8E8397
:1042D0008D818F5F8D838E869F86A88AB98ACDB7A0
:1042E000DEB7ECE00C94B07E1F93CF93DF93809108
:1042F000B0238F5F8093B0238091B023843611F078
:1043000011E053C01092B0238091B1238F5F80934E
:10431000B1238091BA239091BB23A091BC23B0918B
:10432000BD230196A11DB11D8093BA239093BB2399
:10433000A093BC23B093BD238091BE239091BF2353
:10434000A091C023B091C1230196A11DB11D8093FE
:10435000BE239093BF23A093C023B093C123809129
:10436000B1238C3311F012E020C01092B123809160
:10437000B2238F5F8093B2238091B2238C3311F0EC
:1043800013E013C01092B2238091B3238F5F809308
:10439000B32380EB93E23CDE8091B323883111F0AC
:1043A00014E003C01092B32315E0C0E0D0E0FE019A
:1043B000EE0FFF1FEE0FFF1FEE52FD4D808118170D
:1043C00098F0FE01EE0FFF1FEE0FFF1F123028F0D6
:1043D000E053FD4D81E0838307C0E053FD4D138220
:1043E0000190F081E02D19952196C031D105F9F6A3
:1043F00020E030E0F901EE0FFF1FEE0FFF1FE0534A
:10440000FD4DDF0113968381813041F41C920190B0
:10441000F081E02D199520E030E006C02F5F3F4F7E
:104420002031310539F7F7CFF901EE0FFF1FEE0FFD
:10443000FF1FE20FF31FE05FFC4D8481181798F017
:1044400080819181A281B3810097A105B10559F0C6
:1044500080819181A281B3810197A109B1098083F3
:104460009183A283B3832F5F3F4F20323105E1F662
:10447000DF91CF911F9108950F931F938C012CD141
:1044800080EB93E2B80142E150E00E9462802AD1C1
:1044900080E090E01F910F9108950F931F938C017E
:1044A0001BD1C80160EB73E242E150E00E946280E0
:1044B00019D180E090E01F910F910895EF92FF9243
:1044C0000F931F938C0108D1F801EE0FFF1FEE0F21
:1044D000FF1FE00FF11FE05FFC4DE080F1800281E3
:1044E000138100D1C7011F910F91FF90EF900895A4
:1044F000BF92CF92DF92EF92FF920F931F936C01C6
:104500007B01B42EE9D000E010E0F601EE0FFF1FB2
:10451000EE0FFF1FEC0DFD1DE05FFC4DE082F18210
:1045200002831383B482DED01F910F91FF90EF902E
:10453000DF90CF90BF900895CF93DF93CDD0C0E0B0
:10454000D0E0FE01EE0FFF1FEE0FFF1FEC0FFD1F6F
:10455000E05FFC4D8481863031F41082118212823A
:104560001382C0D007C02196C032D10551F7BAD00E
:10457000CFEFDFEFCE01DF91CF9108951F93CF935F
:10458000DF93EC01162FA8D020E030E0F901EE0F08
:10459000FF1FEE0FFF1FE053FD4D808191818C17AF
:1045A0009D07E9F02F5F3F4F2031310579F7E0E0BB
:1045B000F0E0DF01AA0FBB1FAA0FBB1FA053BD4D28
:1045C0008D919C911197892B69F41196DC93CE9370
:1045D000EE0FFF1FEE0FFF1FEE52FD4D108382D036
:1045E00080E006C03196E031F10519F77BD08FEFFE
:1045F000DF91CF911F91089520E030E0F901EE0F97
:10460000FF1FEE0FFF1FE053FD4D11821082F901D5
:10461000EE0FFF1FEE0FFF1FEE52FD4D86E0808371
:104620002F5F3F4F2031310549F720E030E0F9019D
:10463000EE0FFF1FEE0FFF1FE20FF31FE05FFC4DB9
:10464000108211821282138286E084832F5F3F4F93
:104650002032310561F71092BA231092BB231092D9
:10466000BC231092BD231092BE231092BF23109240
:10467000C0231092C1231092B92380EB93E2C8DCCF
:1046800084E690E060E070E003D084E791E25DC0F2
:104690000F931F938B011092C3231092C2232AE021
:1046A000209381009C0183E0220F331F8A95E1F75C
:1046B00040E050E060E074E284EF90E00E946C7EA5
:1046C000201B310B309389002093880082E0809377
:1046D0006F001F910F910895EFE6F0E080818D7FCC
:1046E00080830895EFE6F0E0808182608083089502
:1046F0001F920F920FB60F920BB60F9211242F93A9
:104700003F934F935F936F937F938F939F93AF9359
:10471000BF93EF93FF93E091C223F091C3233097AF
:1047200009F01995FF91EF91BF91AF919F918F91F2
:104730007F916F915F914F913F912F910F900BBEA1
:104740000F900FBE0F901F9018952091C2233091AB
:10475000C3232817390711F481E00895232B11F0A2
:1047600080E008959093C3238093C22381E008954D
:104770008330910584F4FC0133E0EE0FFF1F3A957E
:10478000E1F7880F991FE80FF91FE55BFD4D0190D8
:10479000F081E02D199508958330910514F080E0A3
:1047A0000895FC01EE0FFF1FEE0FFF1FE80FF91F2A
:1047B000EE0FFF1FE35BFD4D0190F081E02D862F92
:1047C000199508958330910594F4FC0133E0EE0FC0
:1047D000FF1F3A95E1F7880F991FE80FF91FE55B76
:1047E000FD4D0680F781E02DCB01BA0119950895A2
:1047F0009C01FC0193E0EE0FFF1F9A95E1F7220F59
:10480000331FE20FF31FE759FD4D0190F081E02DBA
:1048100019950895FC01EE0FFF1FEE0FFF1FE80F23
:10482000F91FEE0FFF1FE559FD4D0190F081E02DBE
:10483000862F199508959C01FC0153E0EE0FFF1F90
:104840005A95E1F7220F331FE20FF31FE759FD4D91
:104850000480F581E02D199508959C01FC0173E019
:10486000EE0FFF1F7A95E1F7220F331FE20FF31FC0
:10487000E759FD4D0680F781E02D199508951F92A7
:104880000F920FB60F920BB60F9211248F93EF93E6
:10489000FF93E1ECF0E080818F7B80831092C42352
:1048A000FF91EF918F910F900BBE0F900FBE0F9065
:1048B0001F9018951F920F920FB60F920BB60F9282
:1048C00011242F933F934F935F936F937F938F9315
:1048D0009F93AF93BF93EF93FF938091C7239091E2
:1048E000C8230E94154F892B49F08091C7239091CE
:1048F000C8230E94834F8093C6000AC08091C100E4
:1049000080648093C1008091C1008F7D8093C1003D
:10491000FF91EF91BF91AF919F918F917F916F9197
:104920005F914F913F912F910F900BBE0F900FBE53
:104930000F901F9018951F920F920FB60F920BB603
:104940000F9211241F932F933F934F935F936F9375
:104950007F938F939F93AF93BF93EF93FF931091A8
:10496000C6008091C5239091C6230E94154F8F3FAA
:10497000910509F03CF48091C5239091C623612FE5
:104980000E942E4FFF91EF91BF91AF919F918F9118
:104990007F916F915F914F913F912F911F910F9058
:1049A0000BBE0F900FBE0F901F9018951F920F9285
:1049B0000FB60F920BB60F9211248F93EF93FF93C4
:1049C000E9ECF0E080818F7B80831092C923FF9116
:1049D000EF918F910F900BBE0F900FBE0F901F9015
:1049E00018951F931FB7F8948091CA259091CB25F5
:1049F0000E94154F1FBF1F9108951F931FB7F89472
:104A00008091CA259091CB250E94154F892B11F4D6
:104A100080E006C08091CA259091CB250E94834FEB
:104A20001FBF1F9108951F920F920FB60F920BB6E2
:104A30000F9211242F933F934F935F936F937F9324
:104A40008F939F93AF93BF93EF93FF938091CC2568
:104A50009091CD250E94154F892B49F08091CC254E
:104A60009091CD250E94834F8093CE000AC0809103
:104A7000C90080648093C9008091C9008F7D8093B4
:104A8000C900FF91EF91BF91AF919F918F917F915D
:104A90006F915F914F913F912F910F900BBE0F90AF
:104AA0000FBE0F901F9018950F931F93182F0FB7DD
:104AB000F8948091CC259091CD250E94154F892B9B
:104AC00031F58091C923813091F48091CC2590916A
:104AD000CD25612F0E942E4F8091C9008F7B80933E
:104AE000C9008091C90080628093C90024C01093DE
:104AF000CE008091C90080648093C9008091C90074
:104B00008F7D8093C90081E08093C92314C0F894FD
:104B10008091CC259091CD250E94154F8F3F910516
:104B200019F014F00FBFF3CF8091CC259091CD25D3
:104B3000612F0E942E4F0FBF1F910F9108951F925A
:104B40000F920FB60F920BB60F9211241F932F9353
:104B50003F934F935F936F937F938F939F93AF9305
:104B6000BF93EF93FF931091CE008091CA2590914F
:104B7000CB250E94154F8F3F910509F03CF48091A1
:104B8000CA259091CB25612F0E942E4FFF91EF9166
:104B9000BF91AF919F918F917F916F915F914F9155
:104BA0003F912F911F910F900BBE0F900FBE0F9052
:104BB0001F9018958AEC94E260E071E00E94E94E43
:104BC0009093CB258093CA258AEC93E260E071E054
:104BD0000E94E94E9093CD258093CC251092C92355
:104BE0001092CD0087E68093CC0088E98093C900BD
:104BF00086E08093CA000895362F377066956695D3
:104C00006695623009F44AC0633030F4662371F06F
:104C1000613009F0B0C026C0643009F477C0643058
:104C200008F458C0653009F0A6C08BC0813059F433
:104C300021B181E090E002C0880F991F3A95E2F718
:104C4000282B21B998C0823009F095C021B181E0AC
:104C500090E002C0880F991F3A95E2F78095822371
:104C600081B989C0813059F424B181E090E002C05B
:104C7000880F991F3A95E2F7282B24B97CC082301F
:104C800009F079C024B181E090E002C0880F991F3B
:104C90003A95E2F78095822384B96DC0813059F44A
:104CA00027B181E090E002C0880F991F3A95E2F7A2
:104CB000282B27B960C0823009F05DC027B181E0A0
:104CC00090E002C0880F991F3A95E2F78095822301
:104CD00087B951C0813059F42AB181E090E002C017
:104CE000880F991F3A95E2F7282B2AB944C08230E1
:104CF00009F041C02AB181E090E002C0880F991FFD
:104D00003A95E2F7809582238AB935C0813059F40B
:104D10002DB181E090E002C0880F991F3A95E2F72B
:104D2000282B2DB928C0823031F52DB181E090E0DB
:104D300002C0880F991F3A95E2F7809582238DB9BA
:104D40001AC0813059F420B381E090E002C0880F8E
:104D5000991F3A95E2F7282B20BB0DC0823059F4F9
:104D600020B381E090E002C0880F991F3A95E2F7E6
:104D70008095822380BB8FEF90E00895382F3770A5
:104D8000869586958695823031F1833030F488237C
:104D900061F0813009F04AC013C0843091F1843051
:104DA00028F1853009F042C037C022B181E090E09F
:104DB00002C0880F991F3A95E2F7282B22B936C016
:104DC00025B181E090E002C0880F991F3A95E2F783
:104DD000282B25B92BC028B181E090E002C0880FB4
:104DE000991F3A95E2F7282B28B920C02BB181E012
:104DF00090E002C0880F991F3A95E2F7282B2BB953
:104E000015C02EB181E090E002C0880F991F3A953D
:104E1000E2F7282B2EB90AC021B381E090E002C04E
:104E2000880F991F3A95E2F7282B21BB8FEF90E06E
:104E30000895382F3770869586958695823041F192
:104E4000833030F4882361F0813009F050C014C001
:104E50008430B1F1843040F1853009F048C03CC065
:104E600022B181E090E002C0880F991F3A95E2F7E5
:104E70008095822382B93BC025B181E090E002C0D9
:104E8000880F991F3A95E2F78095822385B92FC044
:104E900028B181E090E002C0880F991F3A95E2F7AF
:104EA0008095822388B923C02BB181E090E002C0B5
:104EB000880F991F3A95E2F7809582238BB917C026
:104EC0002EB181E090E002C0880F991F3A95E2F779
:104ED000809582238EB90BC021B381E090E002C09F
:104EE000880F991F3A95E2F78095822381BB8FEF57
:104EF00090E00895382F3770869586958695823094
:104F000091F0833028F4882351F08130E9F409C00E
:104F1000843069F0843048F08530B1F40AC020B1A3
:104F200009C023B107C026B105C029B103C02CB107
:104F300001C02FB181E090E002C0880F991F3A951F
:104F4000E2F72823822F09F081E090E00895FF9294
:104F50000F931F93CF93DF93EC018B01FFB6F8946F
:104F6000739881E090E06AE705C0F80161918F01D4
:104F700081E090E011DC2197FFEFCF3FDF07A9F739
:104F800083E08A9501F0E9F7C895739AFFBECDB723
:104F9000DEB7E5E00C94B77E0F931F93142F0FB785
:104FA000F89473986F71682B81E090E0F5DB81E0F5
:104FB00090E0612FF1DB83E08A9501F0E9F7C89575
:104FC000739A0FBF1F910F9108951F93CF93DF9393
:104FD000182FC82FD0E0C076D0708091CE2590E0F9
:104FE000C817D90781F080EA6FE143E0D5DF85E09B
:104FF000D595C7958A95E1F780E86FE14C2FCCDF16
:1050000010761093CE25DF91CF911F9108950F93C5
:105010001F93182F062FD9DF80E4612F402FBCDFAC
:105020001F910F9108950F931F938C0184EEF80147
:105030006081EDDF85EEF8016181E9DF82EEF80144
:105040006281E5DF83EEF8016381E1DF80EEF80144
:105050006481DDDF81EEF8016581D9DF1F910F9159
:1050600008950F931F93162F0FB7F89473986F71CD
:10507000682B81E090E090DB81E090E060E08CDBE9
:1050800017FF04C081E090E060E086DB93E09A9532
:1050900001F0E9F7C895739A0FBF1F910F9108951A
:1050A0001F93182F92DF80E0612FDBDF1F9108959F
:1050B0000F931F93CF93DF93EC018B018FE1F0DF10
:1050C00083FDFCCF82E060E0A2DF83E068E19FDF48
:1050D00086E06C2F9CDFC050D84E6D2F772767FD80
:1050E0007A95C050D84187E092DF8AE760E040E0DF
:1050F00053DFCE01B8012BDF80E86FE140E84CDFE1
:1051000080EA6FE140E848DF80E86FE148E044DF93
:10511000DF91CF911F910F91089582E7C1DF90E059
:1051200008950F931F93982F8B0184ED692F6FDFE4
:1051300086ED602F6CDF012F110F110B87ED602FB3
:1051400066DF8AEEADDF80FDFCCF1F910F910895E1
:1051500081E090E00DDB6B9A739A8FEF60E04FEF88
:105160001BDF8DE19DDF80FFFCCF1092D0251092D8
:10517000CF2588E060E04BDF89E060E048DF8CE02D
:1051800060E045DF8DE060E042DF8AE06EEF3FDF08
:105190008BE067E13CDF84E060E039DF85E068E1D7
:1051A00036DF88E361EA33DF80EC6DE030DF81ECED
:1051B00060E02DDF88EC63E02ADF80E862EC42E308
:1051C000EBDE86EC62E123DF87EC6CE020DF84EC31
:1051D00062E11DDF8AEC6EEE1ADF8BEC65E017DF13
:1051E00080E160E071E09DDF8FE1EFDE80E86BE160
:1051F00040ECD2DE80E86FE144E0CEDE84E166E799
:1052000074E08FCF0F931F93682F84ED00DF82ED42
:1052100061E0FDDE8AEE44DF80FDFCCF82ED60E0E0
:10522000F6DE88ED3DDF082F10E089ED39DF382FFD
:1052300020E0202B312BC9011F910F91089581E0AF
:10524000E1DF96958795969587958095817008956D
:1052500080EA6FE14CE0A0DE80E0D4DFBC017E7F1D
:1052600080E05FDF82EC1CDF682F70E06E7F82ECF5
:10527000CEDE84EC65E1CBDE86EC62E1C8DE87EC55
:105280006CE0C5DE80E86FE144E086CEDF92EF920D
:10529000FF920F931F938C017B01DFB6F8947398F4
:1052A00081E090E06AE378DA81E090E0B701A8015C
:1052B00089DA83E08A9501F0E9F7C895739ADFBE31
:1052C0001F910F91FF90EF90DF900895A0E0B0E064
:1052D000ECE6F9E20C94967EEC017B018CE1E0DED9
:1052E00086FD05C089E3DCDE882309F43DC080E04B
:1052F0006091CF258CDE6091D02581E088DE8AE345
:1053000060E0AFDE082F10E01093D0250093CF258A
:105310008AE360E0A6DE382F20E0202B312B30938B
:10532000D0252093CF258AE360E09BDEA82EBB2406
:105330008AE360E096DE382F20E0A22AB32A8AE3CF
:1053400060E08FDE8AE360E08CDECA15DB057CF46A
:105350008CE06091CF255BDE6091D0258DE057DE3B
:1053600080E86EE140E418DEAA24BB243CC0C501FD
:10537000B7018CDF89E094DE182F00E088E090DE32
:10538000C82E8BE08DDEF82EEE248AE089DEC82F51
:10539000D0E0CE29DF296091CF257091D025CB01B7
:1053A0000197DD240C291D298017910718F0C817D3
:1053B000D90748F48CE06C2F2ADE6D2F772767FD24
:1053C0007A958DE00BC061508CE021DE2091CF25D5
:1053D0003091D025215030408DE0632F18DE80E8D9
:1053E0006EE140E4D9DDC501CDB7DEB7EAE00C944B
:1053F000B27E292F280F892F90E06DE070E00E9487
:10540000457E90E007C027FF03C0220F216001C046
:10541000220F9F5F9817B8F3883008F02095822FED
:105420000895843038F4E82FF0E0E453FF4FE4911E
:105430008E2FFFCC0895843038F4E82FF0E0E45349
:10544000FF4FE4918E2F9ACC08951F93182F84302C
:1054500070F4E82FF0E0E453FF4FE4918E2F4ADD23
:10546000892B19F0812FDDDF02C0812FE4DF1F912E
:1054700008951F93CF93DF93CCECD0E010E0FE01B2
:10548000649181E0B9DB812FCCDF21961F5F14305E
:10549000B1F7DF91CF911F91089585B1836085B9F0
:1054A00084B1876084B9239880E58CBD81E08DBD8F
:1054B00008958EBD0DB407FEFDCF8EB50895DC01B5
:1054C0008C918EBD81E090E009C0FD01E80FF91FCD
:1054D000E0810DB407FEFDCFEEBD0196861797075C
:1054E000A0F30DB407FEFDCF0895AC011EBC20E073
:1054F00030E00BC00DB407FEFDCF1EBC8EB5FA0127
:10550000E20FF31F80832F5F3F4F2617370790F37B
:105510000DB407FEFDCF0895E4ECF0E01182108297
:105520006A9A80EC8093C20088E18093C100118266
:1055300010820895982F8091C00085FFFCCF909332
:10554000C6008091C00087FFFCCF8091C6000895FF
:10555000DC018C918093C60021E030E00CC0FD019D
:10556000E20FF31FE0818091C00085FFFCCFE09344
:10557000C6002F5F3F4F261737078CF38091C0007E
:1055800087FFFCCF0895AC0120E030E013C080918C
:10559000C00085FFFCCF8FEF8093C6008091C000D4
:1055A00087FFFCCF8091C600FA01E20FF31F8083D2
:1055B0002F5F3F4F6217730754F78091C00085FF3C
:1055C000FCCF0895299884B18A6084B922980895FF
:1055D000282F90E080E0880F27FF02C02B9A01C09F
:1055E0002B98299A1A99816029989F5F983011F019
:1055F000220FF1CF089520E030E013C0FC01E20F4C
:10560000F31FE08140E0E7FF02C02B9A01C02B9816
:10561000299A29984F5F483011F0EE0FF4CF2F5F91
:105620003F4F2617370750F30895FC012B9880E071
:1056300090E030E00BC020E0330F299A1A993160D6
:1056400029982F5F2830C1F7319301968617970765
:1056500090F308951F931092D2251092D12512E055
:1056600014BD9C01442737FD4095542F542F432FE0
:10567000322F222760E074E284EF90E00E946C7E7B
:1056800027BD84E085BD10936E001F9108951F9281
:105690000F920FB60F920BB60F9211242F933F93D8
:1056A0004F935F936F937F938F939F93AF93BF932A
:1056B000EF93FF93E091D125F091D225309709F037
:1056C0001995FF91EF91BF91AF919F918F917F912C
:1056D0006F915F914F913F912F910F900BBE0F9063
:1056E0000FBE0F901F9018952091D1253091D22593
:1056F0002817390711F48FEF0895232B11F080E05C
:1057000008959093D2258093D1258FEF0895DF924D
:10571000EF92FF920F931F93D82E7A018B0181E0B5
:1057200090E06FEF39D86D2D606481E090E034D85F
:10573000212F33274427552781E090E0622F2CD872
:1057400098014427552781E090E0622F25D85527FE
:10575000412F302F2F2D81E090E0622F1DD881E066
:1057600090E06E2D19D8DD2021F088E0D81649F49C
:1057700004C081E090E065E907C081E090E067E85F
:1057800003C081E090E06FEF07D810E081E090E087
:105790006FEF02D88F3F19F41F5F1A30B9F71F91CE
:1057A0000F91FF90EF90DF900895A0E0B0E0EBED57
:1057B000FBE20C948E7E3B014C012A0119016DC065
:1057C00083011170C801A0E0B0E064015301A81A80
:1057D000B90ACA0ADB0AE12CF2E0FF2EE01AF10A4C
:1057E0002E143F0408F471018091D3279091D4279F
:1057F000A091D527B091D627A816B906CA06DB0610
:10580000D1F12A9881E1B601A50181DF882319F041
:105810002A9A80E047C081E090E06FEF0E94CC239D
:105820008E3FC9F7C3EDD5E281E090E06FEF0E94B3
:10583000CC23899387E2C33DD807B1F7A092D32741
:10584000B092D427C092D527D092D6270D521A4DA8
:10585000C201B801A7010E9462804E0C5F1C81E06A
:1058600090E06FEF0E94CC2381E090E06FEF0E9408
:10587000CC232A9A09C00D521A4DC201B801A701C2
:105880000E9462804E0C5F1C2E183F08C701A0E0EA
:10589000B0E0680E791E8A1E9B1E2114310409F0A7
:1058A0008FCF81E0CDB7DEB7E2E10C94AA7EA0E015
:1058B000B0E0EDE5FCE20C94907E4B015C013A0116
:1058C000E90126014115510571F12115310559F103
:1058D0000217130740F1E114F10429F1CC24DD246F
:1058E000C21AD30A021B130BC501B401A3019E0106
:1058F0005CDF8823C1F0C301B501A4019201F70167
:105900001995882391F00C0D1D1DC8018C0F9D1F4A
:105910008C179D0750F0CE01A0E0B0E0880E991ED4
:10592000AA1EBB1EE1CF80E001C081E0CDB7DEB78B
:10593000E0E10C94AC7EA0E0B0E0E1EAFCE20C9483
:10594000907E4B015C012A01390182C0E401D170D3
:10595000CE01A0E0B0E085017401E81AF90A0A0B53
:105960001B0BC12CA2E0DA2ECC1ADD0A6C147D04CC
:1059700008F463018091D3279091D427A091D52773
:10598000B091D627E816F9060A071B07C9F0209739
:1059900029F480E0C81682E0D80650F4C801B701A7
:1059A00043ED55E220E032E000DF882309F455C0E2
:1059B000E092D327F092D4270093D5271093D627CF
:1059C00083ED481685E2580639F0CE018D529A4D86
:1059D000B201A6010E9462802A9888E1B801A7015D
:1059E00096DE882319F02A9A80E037C081E090E0A3
:1059F0006EEF0E94CC23C3EDD5E2699181E090E087
:105A00000E94CC2387E2C33DD807B9F781E090E03C
:105A10006FEF0E94CC2381E090E06FEF0E94CC23D7
:105A200081E090E06FEF0E94CC238F3FC9F781E0C7
:105A300090E06FEF0E94CC232A9A4C0C5D1CC601AB
:105A4000A0E0B0E0880E991EAA1EBB1E6C187D084F
:105A50006114710409F07ACF81E0CDB7DEB7E0E1DF
:105A60000C94AC7EA0E0B0E0E8E3FDE20C94907E04
:105A70005B016C014A01E90138012701411551051B
:105A800069F10115110551F1FF242115310509F5C1
:105A9000FF24F3941EC0C401B601A5019201F301D5
:105AA00019958C010097E1F0FF2019F4C817D90768
:105AB000A8F0C601B501A40198013DDF882371F06B
:105AC000C801A0E0B0E0A80EB91ECA1EDB1EC01BB4
:105AD000D10BFF2001F72097F1F602C080E001C052
