:100000000C94531A0C943B1B0C94661B0C94911B80
:100010000C94BC1B0C94E71B0C94121C0C943D1C00
:100020000C94681C0C94B11A0C94B11A0C94B11A6B
:100030000C94B11A0C94B11A0C94B11A0C94B11A14
:100040000C94B11A0C941C200C94B11A0C94B11A93
:100050000C94B11A0C94AA270C94B11A0C94B11AEE
:100060000C94B11A0C943F210C94FE200C94E320C4
:100070000C94B11A0C94B11A0C94B11A0C94B11AD4
:100080000C94B11A0C94B11A0C94B11A0C94B11AC4
:100090000C9443220C94B7210C947A210C94A26EF8
:1000A0000C94B11A0C94B11A0C94B11A0C94B11AA4
:1000B0000C94B11A0C94B11A0C94B11A0C94B11A94
:1000C0000C94B11A0C94B11A0C94B11A0C0D0E0FB9
:1000D000253032783A253032783A253032783A2550
:1000E0003032783A253032783A253032780025643B
:1000F0002E25642E25642E25640044484350206D2F
:10010000736720747970652035332076616C75656E
:100110002025750D0A0044484350206D73672074F4
:100120007970652035332076616C75652025750DF5
:100130000A004950004D41534B00444E5300474183
:10014000544500444843502D436F6E6669672067ED
:1001500065686F6C740D0A00444843502D436F6E00
:10016000666967204665686C67657363686C61677C
:10017000656E0D0A00207C2D3E20566572737563F6
:10018000686520444843502D436F6E666967207A46
:100190007520686F6C656E2E2000206665686C6740
:1001A000657363686C6167656E0D0A00206665683B
:1001B0006C67657363686C6167656E0D0A00205A31
:1001C0006569743A20253032643A253032643A2524
:1001D0003032642E253032640D0A004E545053459F
:1001E00052564552005554435A4F4E4500207C2DDF
:1001F0003E204E54502D536572766572205A6569C3
:100200007420616B7475616C6973696572656E3AAF
:10021000006F6E004E545000207C202020444E532E
:10022000202020203A2025730D0A00207C20202049
:10023000476174657761793A2025730D0A00207C47
:100240002020204E65746D61736B3A2025730D0A72
:1002500000207C202020495020202020203A2025EA
:10026000730D0A006F6E00444843500044484350E9
:1002700000207C2D3E20544350202848757272691E
:1002800063616E2D656E67696E652920696E69749C
:1002900069616C6973696572740D0A00207C2D3E7A
:1002A000205544502028546F726E61646F2D656E26
:1002B00067696E652920696E697469616C69736923
:1002C0006572740D0A002D2B2D3E2041525020697D
:1002D0006E697469616C6973696572740D0A0020D6
:1002E0004C696E6B2072656164790D0A0020467559
:1002F0006C6C6475706C65783A00454E4332386AB0
:10030000363020285265762E3A2025642920696EE1
:10031000697469616C697369657274202820485733
:100320002D4164643A20253032783A253032783ACB
:10033000253032783A253032783A253032783A25ED
:100340003032782029004D4143004D4143004D4358
:1003500050636F6E666967000D0A000A002563002E
:10036000436F6E6669672069737420256420627923
:100370007465732067726F73732C20256420627913
:1003800074652077657264656E2062656E75747A37
:10039000742E204F66667365742025640D0A0D0A5D
:1003A000004F46460057524954455F50524F5445FE
:1003B00043540020496E697469616C6973696572A0
:1003C000740D0A00204572726F720D0A0054485273
:1003D000454144005348454C4C00455854494E54FF
:1003E00000436F6E666967004C45445F636F7265DA
:1003F00000434C4F434B005354444F555400554118
:100400005254004F70656E4D4350202E2E2E0D0A13
:10041000003EFFFFFF3F3435363738393A3B3C3D2D
:10042000FFFFFFFFFFFFFF000102030405060708AF
:10043000090A0B0C0D0E0F101112131415161718B4
:1004400019FFFFFFFFFFFF1A1B1C1D1E1F2021228B
:10045000232425262728292A2B2C2D2E2F303132F4
:10046000334142434445464748494A4B4C4D4E4F21
:10047000505152535455565758595A6162636465E6
:10048000666768696A6B6C6D6E6F70717273747594
:10049000767778797A303132333435363738392BCC
:1004A0002F002F6E69632F7570646174653F686FEC
:1004B00073746E616D653D2573006D656D62657267
:1004C000732E64796E646E732E6F72670063686555
:1004D000636B69702E64796E646E732E6F72670041
:1004E000474554200020485454502F312E300D0AD7
:1004F000557365722D4167656E743A205767657450
:100500002F312E31312E340D0A4163636570743AF8
:10051000202A2F2A0D0A486F73743A20000D0A41D1
:100520007574686F72697A6174696F6E3A2042619E
:100530007369632025730D0A0D0A00202044594E6B
:10054000444E535F6765745075626C696349503AF5
:10055000204950737472203D2025730D0A0020201D
:1005600044594E444E535F6765745075626C6963BD
:1005700049503A20273A2720666F756E642C204335
:100580006F6E74656E746C656E676874203D2025AF
:10059000640D0A00202044594E444E535F67657431
:1005A0005075626C696349503A20526573706F6E82
:1005B0007365436F6465206F6B2C20436F6E7465A9
:1005C0006E746C656E676874203D2025640D0A00AA
:1005D000202044594E444E535F6765745075626CD9
:1005E000696349503A20526573706F6E7365436F4B
:1005F0006465203D2025640D0A0020202E2E2E202B
:10060000436865636B536F636B65745374617465A2
:10061000203D2025640D0A0020202E2E2E20436828
:1006200065636B536F636B65745374617465203DD0
:100630002025640D0A0020202E2E2E207265717553
:100640006573742073656E740D0A000D0A0D0A003F
:100650002F0020202E2E2E20436865636B536F637E
:100660006B65745374617465203D2025640D0A0028
:1006700020202E2E2E20636F6E6E65637465640DD0
:100680000A00202044594E444E535F6765745075EC
:10069000626C696349503A20636865636B2D6970C9
:1006A0002069732025730D0A00202044594E444EC2
:1006B000535F706861727365485454506865616433
:1006C00065723A20626C616E6B206C696E650D0A12
:1006D0000020202E2E2E20436F6E74656E746C6584
:1006E0006E676874203D2025640D0A00436F6E74A8
:1006F000656E742D4C656E6774683A200020202E5C
:100700002E2E2052657175657374203D2025640D71
:100710000A00485454502F312E00202044594E4492
:100720004E535F70686172736548545450686561D8
:100730006465723A20435220726563656976656428
:100740002E20427566666572203D2025730D0A00D5
:10075000202044594E444E535F706861727365485F
:100760005454506865616465723A2074696D656FB0
:10077000757420320D0A00202044594E444E535FB8
:10078000706861727365485454506865616465723D
:100790003A2074696D656F757420310D0A00202050
:1007A0002E2E2E20526573706F6E7365436F6465D5
:1007B000203D2025640D0A002020757365723A7073
:1007C00077203D2025730D0A0020206970206F6678
:1007D0002044594E444E532069732025730D0A005E
:1007E00020202E2E2E206D75737420757064617418
:1007F000650D0A002020646E73206970206F6620EA
:1008000025732069732025730D0A0020206D79203F
:1008100063757272656E7420697020697320257328
:100820000D0A0044594E444E53207570646174653E
:100830002073746172740D0A000D0A00436F6D6DB0
:10084000616E64733A0D0A0D0A0068656C700048A9
:100850005454502F312E30203430330D0A436F6EF4
:1008600074656E742D547970653A20746578742FB0
:1008700068746D6C0D0A4B6565702D416C69766509
:100880003A20636C6F73650D0A0D0A3C48544D4C59
:100890003E3C424F44593E3430332046696C65201B
:1008A0006E6F7420666F756E64213C2F424F445901
:1008B0003E3C2F48544D4C3E0D0A0D0A00504F53FC
:1008C0005400474554006874747064004854545090
:1008D0002D53657276657220506F72742025642ED8
:1008E0000D0A00696E6465782E68746D6C003C2F8B
:1008F000424F44593E3C2F48544D4C3E0D0A0D0A80
:10090000003C48544D4C3E3C484541443E3C6D659E
:10091000746120687474702D65717569763D226507
:100920007870697265732220636F6E74656E743DB2
:100930002231223E3C6D65746120687474702D65AF
:10094000717569763D22707261676D612220636FF7
:100950006E74656E743D226E6F2D636163686522EF
:100960003E3C2F484541443E3C424F44593E00489E
:100970005454502F312E302032303020446F637564
:100980006D656E7420666F6C6C6F77730D0A436FC4
:100990006E74656E742D547970653A207465787440
:1009A0002F68746D6C0D0A436F6E6E656374696FAA
:1009B0006E3A20636C6F73650D0A0D0A00696E64F0
:1009C00065782E68746D6C003C48544D4C3E3C4834
:1009D0004541443E3C5449544C453E547850322D98
:1009E0004E6574202D2044617320496E7465726ECB
:1009F00065742D496E74657266616365207A756DE4
:100A00002054656C657850686F6E6520323C2F54B9
:100A100049544C453E3C2F484541443E3C6672613A
:100A20006D6573657420726F77733D2236302C3399
:100A3000352C2A2C343022207363726F6C6C696EF3
:100A4000673D226E6F22206672616D65626F72640F
:100A500065723D22322220626F726465723D2232DD
:100A600022206672616D6573706163696E673D22F5
:100A7000322220626F72646572636F6C6F723D2206
:100A800023303030303030223E3C6672616D65205C
:100A90007372633D22686561646C696E652E68746B
:100AA0006D6C22206E616D653D224E6176696761D5
:100AB00074696F6E3122207363726F6C6C696E673C
:100AC0003D226E6F223E3C6672616D6520737263DB
:100AD0003D226D61696E6D656E752E68746D6C2258
:100AE000206E616D653D224E617669676174696F44
:100AF0006E3222207363726F6C6C696E673D226E7A
:100B00006F223E3C6672616D65207372633D22699F
:100B10006E666F2E68746D6C22206E616D653D226D
:100B20006D61696E223E3C6672616D652073726311
:100B30003D2273746174732E63676922206E616D48
:100B4000653D2275706461746522207363726F6CF9
:100B50006C696E673D226E6F223E3C6E6F667261FD
:100B60006D65733E3C626F64793E3C703E496872CD
:100B70002042726F7773657220756E74657273743C
:100B8000C3BC747A74206B65696E65204672616DB2
:100B90006573213C2F703E3C2F626F64793E3C2F81
:100BA0006E6F6672616D65733E3C2F6672616D6536
:100BB0007365743E3C2F48544D4C3E0D0A0D0A009F
:100BC000686561646C696E652E68746D6C003C4884
:100BD000544D4C3E3C424F4459206267636F6C6FEA
:100BE000723D2223303036343030222074657874E0
:100BF0003D2223464646414630223E3C68313E5423
:100C00007850322D4E6574202D2044617320496E3A
:100C10007465726E65742D496E7465726661636584
:100C2000207A756D2054656C657850686F6E653CF0
:100C30002F68313E3C2F424F44593E3C2F48544D83
:100C40004C3E0D0A0D0A006D61696E6D656E752E64
:100C500068746D6C003C48544D4C3E3C48454144E2
:100C60003E3C6C696E6B2072656C3D227374796CCE
:100C70006573686565742220747970653D227465BA
:100C800078742F6373732220687265663D227374D3
:100C9000796C652E637373223E3C2F484541443E78
:100CA0003C424F4459206267636F6C6F723D222350
:100CB0003232384232322220746578743D22234623
:100CC0004646464646223E3C6120687265663D22A5
:100CD000696E666F2E68746D6C22746172676574DC
:100CE0003D226D61696E223E496E666F726D617460
:100CF000696F6E656E3C2F613E202F203C6120683D
:100D00007265663D227478702D6D73672E63676916
:100D1000227461726765743D226D61696E223E4E78
:100D200061636872696368742073656E64656E3CA4
:100D30002F613E202F203C6120687265663D227441
:100D400078702D636F6E6669672E636769227461C0
:100D5000726765743D226D61696E223E5478502D34
:100D600045696E7374656C6C756E67656E3C2F615A
:100D70003E202F203C6120687265663D22747870A9
:100D80002D64656275672E63676922746172676599
:100D9000743D226D61696E223E44656275672D491E
:100DA0006E666F733C2F613E202F203C612068727D
:100DB00065663D226E6574776F726B2E68746D6C1C
:100DC000223E4E65747A7765726B3C2F613E202F10
:100DD000203C6120687265663D2273797374656D8D
:100DE0002E68746D6C223E53797374656D3C2F616F
:100DF0003E3C2F424F44593E3C2F48544D4C3E0DF3
:100E00000A0D0A006E6574776F726B2E68746D6CD4
:100E1000003C48544D4C3E3C484541443E3C6C6986
:100E20006E6B2072656C3D227374796C65736865B6
:100E300065742220747970653D22746578742F631F
:100E400073732220687265663D227374796C652E17
:100E5000637373223E3C2F484541443E3C424F441D
:100E600059206267636F6C6F723D222332323842C1
:100E700032322220746578743D2223464646464627
:100E800046223E3C6120687265663D226D61696E56
:100E90006D656E752E68746D6C223E7A757275651F
:100EA000636B3C2F613E202F203C61206872656699
:100EB0003D226E6574776F726B2E636769222074B2
:100EC00061726765743D226D61696E223E496E668E
:100ED0006F733C2F613E202F203C61206872656655
:100EE0003D226E6574776F726B2E6367693F636F27
:100EF0006E66696722207461726765743D226D6158
:100F0000696E223E4B6F6E66696775726174696FB8
:100F10006E3C2F613E3C2F424F44593E3C2F48547B
:100F20004D4C3E0D0A0D0A0073797374656D2E6881
:100F3000746D6C003C48544D4C3E3C484541443E29
:100F40003C6C696E6B2072656C3D227374796C65C4
:100F500073686565742220747970653D22746578C4
:100F6000742F6373732220687265663D22737479EF
:100F70006C652E637373223E3C2F484541443E3CD2
:100F8000424F4459206267636F6C6F723D22233277
:100F900032384232322220746578743D222346462C
:100FA00046464646223E3C6120687265663D226D9B
:100FB00061696E6D656E752E68746D6C223E7A7512
:100FC000727565636B3C2F613E202F203C61206869
:100FD0007265663D2272657365742E6367692220AF
:100FE0007461726765743D226D61696E223E52655F
:100FF0007365743C2F613E202F203C612068726530
:10100000663D226E74702E63676922207461726778
:1010100065743D226D61696E223E4E54503C2F61D5
:101020003E202F203C6120687265663D2264796E07
:10103000646E732E63676922207461726765743D04
:10104000226D61696E223E44796E444E533C2F619D
:101050003E202F203C6120687265663D2265656DEB
:10106000656D2E63676922207461726765743D2225
:101070006D61696E223E45456D656D3C2F613E2078
:101080002F203C6120687265663D2263726F6E2E70
:1010900063676922207461726765743D226D6169BE
:1010A0006E223E63726F6E3C2F613E3C2F424F4476
:1010B000593E3C2F48544D4C3E0D0A0D0A00696EB6
:1010C000666F2E68746D6C003C48544D4C3E3C423B
:1010D0004F44593E3C7072653E3C703E202057653F
:1010E0006C636F6D65206F6E0D0A5F5F5F5F5F5FA2
:1010F0005F5F5F5F5F5F5F5F5F5F5F5F5F5F5F5F00
:101100005F5F5F5F5F5F5F5F5F5F5F5F5F5F5F5FEF
:101110005F5F5F5F5F5F5F5F5F5F5F5F5F5F5F5FDF
:101120005F5F5F5F5F5F5F5F5F5F5F5F5F5F5F5FCF
:101130005F5F5F5F0D0A204F4F4F4F4F20204F4F93
:101140004F4F4F20204F2020202020204F4F4F4F27
:101150004F20204F2020204F202020202020204FD3
:101160004F4F4F2020204F2020204F2020204F4F36
:101170004F2020204F2020204F20204F4F4F4F4FF7
:101180000D0A2020204F202020204F20202020202A
:10119000204F2020202020204F20202020202020F1
:1011A0004F204F20202020202020204F2020204F83
:1011B00020204F2020204F20204F2020204F202073
:1011C0004F4F20204F20204F202020200D0A202E7E
:1011D0002E2E2E2E2E2E2E2E2E2E2E2E2E2E2E2E2F
:1011E0002E2E2E2E2E2E2E2E2E2E2E2E2E2E2E2E1F
:1011F0002E2E2E2E2E2E2E2E2E2E2E2E2E2E2E2E0F
:101200002E2E2E2E2E2E2E2E2E2E2E2E2E2E2E2EFE
:101210002E2E2E2E2E2E2E2E0D0A2020204F202058
:1012200020204F4F4F202020204F20202020202002
:101230004F4F4F2020202020204F202020204F4F94
:101240004F20204F4F4F4F2020204F4F4F4F4F20C8
:10125000204F2020204F20204F204F204F20204F74
:101260004F4F20200D0A2020204F202020204F20EB
:1012700020202020204F2020202020204F20202010
:10128000202020204F204F20202020202020204FD1
:101290002020202020204F2020204F20204F2020C1
:1012A000204F20204F20204F4F20204F2020202053
:1012B0000D0A2020204F202020204F4F4F4F4F203D
:1012C000204F4F4F4F4F20204F4F4F4F4F20204F19
:1012D0002020204F202020202020204F20202020B0
:1012E00020204F2020204F2020204F4F4F20202013
:1012F0004F2020204F20204F4F4F4F4F0D0A5F5F50
:101300005F5F5F5F5F5F5F5F5F5F5F5F5F5F5F5FED
:101310005F5F5F5F5F5F5F5F5F5F5F5F5F5F5F5FDD
:101320005F5F5F5F5F5F5F5F5F5F5F5F5F5F5F5FCD
:101330005F5F5F5F5F5F5F5F5F5F5F5F5F5F5F5FBD
:101340005F5F5F5F5F5F5F5F0D0A0D0A6275696CCB
:1013500064206F6E204156522D6C69626320766561
:101360007273696F6E3A20312E362E372F3230303D
:1013700039303730322077697468206176722D6792
:10138000636320342E332E332C20446174653A205D
:1013900046656220313020323031322031313A31ED
:1013A000343A3431200D0A0D0A28632932303036A0
:1013B0002D32303132202020536F66747761726590
:1013C0003A204672656420536F6E6E656E72656971
:1013D0006E0D0A6261736564206F6E204F70656EDA
:1013E0004D4350206279204469726B2042726F73C2
:1013F000737769636B0D0A3C2F7072653E3C2F70EA
:101400003E3C2F424F44593E3C2F48544D4C3E0DDC
:101410000A007374796C652E6373730040636861AE
:1014200072736574202249534F2D383835392D3168
:10143000220D0A202020613A6C696E6B207B20749B
:101440006578742D6465636F726174696F6E3A6E4E
:101450006F6E653B20666F6E742D77656967687483
:101460003A626F6C643B20636F6C6F723A2346463E
:10147000464646463B207D0D0A202020613A76698B
:101480007369746564207B20746578742D6465636A
:101490006F726174696F6E3A6E6F6E653B20666F36
:1014A0006E742D7765696768743A626F6C643B206F
:1014B000636F6C6F723A234646464646463B207D34
:1014C0000D0A202020613A686F766572207B2074B7
:1014D0006578742D6465636F726174696F6E3A6EBE
:1014E0006F6E653B20666F6E742D776569676874F3
:1014F0003A626F6C643B206261636B67726F756EFA
:10150000642D636F6C6F723A233431363945313B49
:10151000207D0D0A202020613A6163746976652080
:101520007B20746578742D6465636F726174696F74
:101530006E3A6E6F6E653B20666F6E742D776569CF
:101540006768743A626F6C643B206261636B6772B8
:101550006F756E642D636F6C6F723A234646464614
:1015600046463B207D0D0A202020613A666F637558
:1015700073207B20746578742D6465636F72617469
:10158000696F6E3A6E6F6E653B20666F6E742D7775
:1015900065696768743A626F6C643B206261636B73
:1015A00067726F756E642D636F6C6F723A2344447B
:1015B000413044443B207D0D0A202020707265207C
:1015C0007B206F766572666C6F773A207363726FFB
:1015D0006C6C3B207D0D0A000D0A436F6E74656EC6
:1015E000742D4C656E6774683A2025640D0A43615A
:1015F0006368652D436F6E74726F6C3A206D61780D
:101600002D6167653D333630300D0A436F6E6E6570
:101610006374696F6E3A20636C6F73650D0A0D0A0F
:101620000062696E00746578742F68746D6C006A6E
:1016300070656700706E6700485454502F312E302B
:101640002032303020446F63756D656E7420666F94
:101650006C6C6F77730D0A436F6E74656E742D54E6
:101660007970653A20003E200051756974696E6793
:101670000D0A007175697400556E642C206C6F73CF
:10168000206765687427732E2E2E212121202822A1
:1016900068656C70222068696C6674203A2D29296F
:1016A0000D0A3E200074656C6E65740054656C6EA6
:1016B00065742D53657276657220506F72742025A3
:1016C000642E0D0A0043524F4E5F454E5452595FEF
:1016D000253032640025643A206E696368742062A4
:1016E000656C6567740D0A0025643A202564202521
:1016F000642025730D0A0043524F4E3A2025732073
:1017000066696E69736865640D0A0043524F4E2026
:1017100073746172742025730D0A0043524F4E207A
:10172000232564203D2025730D0A0063726F6E002F
:10173000666F6F2E636769002573202F2025732045
:101740002F2025640D0A0049502F4D41432F54543A
:101750004C0D0A00617270003C2F424F44593E3CD0
:101760002F48544D4C3E0D0A0D0A003C48544D4C38
:101770003E3C484541443E3C6D657461206874744C
:10178000702D65717569763D227265667265736844
:101790002220636F6E74656E743D223630303B20BC
:1017A000223E3C5449544C453E53747265616D6908
:1017B0006E673C2F5449544C453E3C2F48454144AC
:1017C0003E3C424F4459206267636F6C6F723D220A
:1017D000233232384232322220746578743D22231B
:1017E000464646464646223E5A6569743A202530AA
:1017F00032643A253032643A253032642E25303254
:101800006420282025752F25752F25303475202933
:101810000050485354415432207C203078253034D5
:10182000580D0A0050485354415431207C203078E0
:10183000253034580D0A005265762E494420207C0C
:101840002020203078253032580D0A002D2D2D2DE6
:101850002D2D2D2D2B2D2D2D2D2D2D2D2D0D0A002A
:101860005265672E202020207C20576572740D0A57
:1018700000454E4332384A36303A0D0A0054435040
:101880002D5458204572726F72733A20256420548B
:1018900043502D5258204572726F72733A2025645E
:1018A0002028756E736F727465642025642C206F18
:1018B0006C64736571202564290D0A0D0A00457456
:1018C0006865726E65743A20256C6420427974658F
:1018D0007320696E20256C64205061636B657465AC
:1018E0006E204C6F636B4572726F727320256C644F
:1018F0000D0A0073746174732E63676900737461F9
:101900007473005265736574007265736574007258
:1019100065736574007265736574003C666F726D03
:1019200020616374696F6E3D2272657365742E6306
:10193000676922206D6574686F643D226765742253
:10194000206163636570742D636861727365743DB3
:101950002249534F2D383835392D31223E3C703EC7
:101960003C696E70757420747970653D2273756280
:101970006D697422206E616D653D227265736574B8
:10198000222076616C75653D227265736574223E16
:101990003C2F703E3C2F666F726D3E007265736522
:1019A000742E63676900726573657400646E7320DA
:1019B0003C686F73746E616D653E0D0A004950207E
:1019C0007A75202573203D2025730D0A00646E73FF
:1019D0000044484350004950004D41534B0047419B
:1019E000544500444E53004D41430045696E7374A5
:1019F000656C6C756E67656E2075656265726E6F7D
:101A00006D6D656E210D0A003C74723E3C7464205D
:101A1000616C69676E3D227269676874223E486135
:101A20007264776172652D4D41433C2F74643E3C76
:101A300074643E3C696E707574206E616D653D2204
:101A40004D41432220747970653D2274657874227B
:101A50002073697A653D223137222076616C756585
:101A60003D22257322206D61786C656E6774683D38
:101A7000223137223E3C2F74643E3C2F74723E3C30
:101A800074723E3C74643E3C2F74643E3C74643E0D
:101A90003C696E70757420747970653D227375624F
:101AA0006D6974222076616C75653D222045696EF2
:101AB0007374656C6C756E67202655756D6C3B6232
:101AC00065726E65686D656E20223E3C2F74643EC3
:101AD0003C2F74723E3C2F7461626C653E3C2F66F5
:101AE0006F726D3E004D4143003C74723E3C746425
:101AF00020616C69676E3D227269676874223E449A
:101B00004E532D5365727665723C2F74643E3C745F
:101B1000643E3C696E707574206E616D653D224453
:101B20004E532220747970653D22746578742220AA
:101B300073697A653D223135222076616C75653D89
:101B400022257322206D61786C656E6774683D2272
:101B50003135223E3C2F74643E3C2F74723E00446B
:101B60004E53003C74723E3C746420616C69676E35
:101B70003D227269676874223E47617465776179B6
:101B80003C2F74643E3C74643E3C696E70757420F6
:101B90006E616D653D224741544522207479706520
:101BA0003D2274657874222073697A653D2231354F
:101BB000222076616C75653D22257322206D617847
:101BC0006C656E6774683D223135223E3C2F74642B
:101BD0003E3C2F74723E0047415445003C74723EB7
:101BE0003C746420616C69676E3D22726967687439
:101BF000223E4E65747A7765726B6D61736B653CDE
:101C00002F74643E3C74643E3C696E707574206E43
:101C1000616D653D224D41534B2220747970653DC5
:101C20002274657874222073697A653D22313522E9
:101C30002076616C75653D22257322206D61786C7C
:101C4000656E6774683D223135223E3C2F74643ED8
:101C50003C2F74723E004D41534B003C74723E3C2D
:101C6000746420616C69676E3D22726967687422D2
:101C70003E49502D416472657373653C2F74643E18
:101C80003C74643E3C696E707574206E616D653D98
:101C90002249502220747970653D2274657874223F
:101CA0002073697A653D223135222076616C756535
:101CB0003D22257322206D61786C656E6774683DE6
:101CC000223135223E3C2F74643E3C2F74723E001C
:101CD0004950003E3C2F74643E3C2F74723E0063BA
:101CE0006865636B6564006F6E003C74723E3C74A3
:101CF0006420616C69676E3D227269676874223E78
:101D00004448435020616B746976696572656E3C26
:101D10002F74643E3C74643E3C696E70757420742C
:101D20007970653D22636865636B626F7822206E0F
:101D3000616D653D2244484350222076616C756593
:101D40003D226F6E22200044484350003C666F7273
:101D50006D20616374696F6E3D226E6574776F727A
:101D60006B2E636769223E3C7461626C6520626F12
:101D7000726465723D2230222063656C6C70616410
:101D800064696E673D2235222063656C6C737061F7
:101D900063696E673D2230223E00636F6E6669673D
:101DA000003C2F7072653E0D0A00737461747300FD
:101DB0006966636F6E666967003C7072653E0D0A06
:101DC000000D0A48572D4164723A20253032783A86
:101DD000253032783A253032783A253032783A2533
:101DE0003032783A253032780D0A0D0A00444E53CD
:101DF0003A25730D0A00476174657761793A257356
:101E00000D0A004E65746D61736B3A25730D0A00FF
:101E100049503A25730D0A006E6574776F726B2E08
:101E2000636769006966636F6E666967004E545048
:101E3000004E5450534552564552005554435A4F44
:101E40004E450045696E7374656C6C756E67656EA2
:101E50002075656265726E6F6D6D656E210D0A008D
:101E60003C74723E3C746420616C69676E3D227202
:101E700069676874223E534E54502D5365727665DF
:101E8000723C2F74643E3C74643E3C696E707574A1
:101E9000206E616D653D224E545053455256455259
:101EA0002220747970653D227465787422207369EC
:101EB0007A653D223235222076616C75653D22259A
:101EC0007322206D61786C656E6774683D223235CF
:101ED000223E3C2F74643E3C2F74723E3C74723E32
:101EE0003C746420616C69676E3D22726967687436
:101EF000223E5A6569747A6F6E653C2F74643E3C6D
:101F000074643E3C696E707574206E616D653D222F
:101F10005554435A4F4E452220747970653D2274C2
:101F2000657874222073697A653D223322207661B8
:101F30006C75653D22257322206D61786C656E6736
:101F400074683D2233223E3C2F74643E3C2F7472F1
:101F50003E3C74723E3C74643E3C2F74643E3C7460
:101F6000643E3C696E70757420747970653D2273AF
:101F700075626D6974222076616C75653D2220451D
:101F8000696E7374656C6C756E67202655756D6C23
:101F90003B6265726E65686D656E20223E3C2F74F3
:101FA000643E3C2F74723E3C2F7461626C653E3C13
:101FB0002F666F726D3E00300074696D652E667518
:101FC0002D6265726C696E2E6465003E3C2F7464F0
:101FD0003E3C2F74723E00636865636B6564006FFE
:101FE0006E003C666F726D20616374696F6E3D2296
:101FF0006E74702E636769223E0D3C7461626C657D
:1020000020626F726465723D2230222063656C6CC1
:1020100070616464696E673D2235222063656C6C73
:1020200073706163696E673D2230223E3C74723E7C
:102030003C746420616C69676E3D227269676874E4
:10204000223E534E545020616B7469766965726507
:102050006E3C2F74643E3C74643E3C696E707574D3
:1020600020747970653D22636865636B626F7822C6
:10207000206E616D653D224E5450222076616C7554
:10208000653D226F6E2220006E7470203C6E74706D
:102090007365727665723E0D0A004665686C6572FE
:1020A0000D0A004E657565205A6569743A20253021
:1020B00032643A253032643A253032640D0A0048E1
:1020C0006F6C65205A65697420766F6E2025730DDC
:1020D0000A004665686C65720D0A006E74702E63A6
:1020E0006769006E7470002644594E444E535F5524
:1020F00053455250570044594E444E535F444F4D40
:1021000041494E0045696E7374656C6C756E676508
:102110006E2075656265726E6F6D6D656E210D0A5C
:10212000002D31202D3135202264796E646E7320AC
:10213000757064617465220044594E444E535F4F7C
:102140004E002D31202D3135202264796E646E735E
:1021500020757064617465220044594E444E5300EA
:1021600044594E444E535F4F4E0044594E444E53D3
:1021700000444F4D41494E0044594E444E535F4434
:102180004F4D41494E00444F4D41494E004143435C
:102190004F554E54002644594E444E535F555345B7
:1021A000525057004143434F554E54004143434F13
:1021B000554E54003C666F726D20616374696F6E9A
:1021C0003D2264796E646E732E636769223E0D2032
:1021D0003C7461626C6520626F726465723D22308E
:1021E000222063656C6C70616464696E673D2235A2
:1021F000222063656C6C73706163696E673D223089
:10220000223E20203C74723E0D2020203C7464202D
:10221000616C69676E3D227269676874223E447919
:102220006E444E5320616B746976696572656E3CCD
:102230002F74643E2020203C74643E3C696E7075AF
:102240007420747970653D22636865636B626F7892
:1022500022206E616D653D2244594E444E5322202A
:1022600076616C75653D226F6E22202573203E20BD
:10227000203C2F74643E0D20203C74723E0D2020C3
:10228000203C746420616C69676E3D2272696768E6
:1022900074223E64796E444E53204163636F756EC1
:1022A00074202820757365723A707720293C2F744A
:1022B000643E2020203C74643E3C696E707574203E
:1022C0006E616D653D224143434F554E542220744B
:1022D0007970653D2274657874222073697A653D52
:1022E000223331222076616C75653D2222206D619A
:1022F000786C656E6774683D223331223E3C2F74E2
:10230000643E20203C2F74723E0D20203C74723EAF
:102310000D2020203C746420616C69676E3D227240
:1023200069676874223E44796E444E5320446F6D51
:1023300061696E3C2F74643E2020203C74643E3CF6
:10234000696E707574206E616D653D22444F4D411C
:10235000494E2220747970653D227465787422207C
:1023600073697A653D223331222076616C75653D53
:1023700022257322206D61786C656E6774683D223A
:102380003331223E3C2F74643E20203C2F74723E39
:102390000D20203C74723E0D2020203C74643E3C95
:1023A0002F74643E3C74643E3C696E707574207496
:1023B0007970653D227375626D6974222076616C57
:1023C00075653D222045696E7374656C6C756E672A
:1023D000202655756D6C3B6265726E65686D656E25
:1023E00020223E3C2F74643E20203C2F74723E0D10
:1023F000203C2F7461626C653E0D3C2F666F726DE0
:102400003E00636865636B6564006F6E0044594EFF
:10241000444E535F4F4E0044594E444E535F444F19
:102420004D41494E0044594E444E535F444F4D4137
:10243000494E0064796E646E73203C7570646174FB
:10244000653E202F203C7365746163636F756E7405
:1024500020757365723A70774064796E646E732D7F
:10246000646F6D61696E3E0D0A004163636F756E46
:1024700074646174656E206765737065696368650F
:1024800072742E0D0A007365746163636F756E74E8
:10249000005570646174652066756572202573202F
:1024A0006665686C67657363686C6167656E0D0A65
:1024B000005570646174652066756572202573200F
:1024C0006572666F6C6772656963682E0D0A0075C8
:1024D00070646174650064796E646E732E636769FD
:1024E0000064796E646E730064656C0064656C00F2
:1024F00045696E7374656C6C756E67656E20756585
:102500006265726E6F6D6D656E210D0A00434D44FC
:102510000025642025642022257322004D4D0048AB
:102520004800434D44003C666F726D2061637469DE
:102530006F6E3D2263726F6E2E636769223E3C743C
:1025400061626C6520626F726465723D2230222088
:1025500063656C6C70616464696E673D223522202E
:1025600063656C6C73706163696E673D2230223EF7
:102570003C74723E3C746420616C69676E3D2272EB
:1025800069676874223E5374756E64653C2F746489
:102590003E3C74643E3C696E707574206E616D657E
:1025A0003D2248482220747970653D227465787414
:1025B000222073697A653D2233222076616C75652D
:1025C0003D2230226D61786C656E6774683D223300
:1025D000223E3C2F74643E3C2F74723E3C74723E2B
:1025E0003C746420616C69676E3D2272696768742F
:1025F000223E4D696E7574653C2F74643E3C746474
:102600003E3C696E707574206E616D653D224D4D66
:102610002220747970653D22746578742220736974
:102620007A653D2233222076616C75653D22302229
:10263000206D61786C656E6774683D2233223E3C84
:102640002F74643E3C2F74723E3C74723E3C746442
:1026500020616C69676E3D227269676874223E432F
:102660006F6D6D616E643C2F74643E3C74643E3CDF
:10267000696E707574206E616D653D22434D442214
:1026800020747970653D2274657874222073697AAC
:10269000653D22333022206D61786C656E67746809
:1026A0003D223330223E3C2F74643E3C2F74723EF8
:1026B0003C74723E3C74643E3C2F74643E3C7464D3
:1026C0003E3C696E70757420747970653D22737537
:1026D000626D6974222076616C75653D22204569C2
:1026E0006E74726167207369636865726E20223E42
:1026F0003C2F74643E3C2F74723E3C2F7461626CBC
:10270000653E3C2F666F726D3E0D006164646E65C0
:1027100077003C74723E3C746420616C69676E3D66
:10272000226C656674223E3C6120687265663D22BB
:1027300063726F6E2E6367693F6164646E657722B2
:10274000207374796C653D22746578742D646563BB
:102750006F726174696F6E3A6E6F6E652220746974
:10276000746C653D22416464223E3C696E707574F0
:1027700020747970653D22627574746F6E222076C4
:10278000616C75653D22616464206E6577206372BB
:102790006F6E2220636C6173733D22616374696F95
:1027A0006E42746E223E3C2F613E3C2F74643E3C70
:1027B0002F74723E3C2F7461626C653E0D003C7458
:1027C000723E3C746420616C69676E3D226C656684
:1027D00074223E25733C2F74643E3C746420616C0B
:1027E00069676E3D226C656674223E3C61206872AA
:1027F00065663D2263726F6E2E6367693F64656C28
:102800003D256422207374796C653D22746578746B
:102810002D6465636F726174696F6E3A6E6F6E6579
:1028200022207469746C653D2244656C223E3C69CB
:102830006E70757420747970653D22627574746F62
:102840006E222076616C75653D2264656C22206382
:102850006C6173733D22616374696F6E42746E22A2
:102860003E3C2F613E3C2F74643E3C2F74723E0010
:102870003C7461626C6520626F726465723D2230E7
:10288000222063656C6C70616464696E673D2235FB
:10289000222063656C6C73706163696E673D2230E2
:1028A000223E0063726F6E2E636769003C2F707268
:1028B000653E003C7072653E0065656D656D203C4F
:1028C00070726F746563743E7C3C756E70726F7469
:1028D0006563743E203C616464205B6E616D6520BD
:1028E00076616C5D3E203C64656C205B6E616D655D
:1028F0005D3E203C7072696E743E203C636C656185
:102900006E3E0D0A00636C65616E007072696E74D4
:102910000064656C0061646400756E70726F74654C
:10292000637465740D0A0057524954455F50524F05
:1029300054454354004F464600756E70726F74657F
:1029400063740057524954455F50524F54454354A5
:10295000004F4E0070726F746563740065656D653D
:102960006D2E6367690065656D656D004841555062
:10297000545354454C4C4500454947454E454E55EA
:102980004D4D45520046455354454850535400441C
:10299000555243485741484C5441420054785000E6
:1029A00054656C657850686F6E6520506F72742046
:1029B00025642E0D0A007478702D64656275672E8B
:1029C000636769007478702D636F6E6669672E6344
:1029D0006769007478702D6D73672D6F75742E6341
:1029E0006769007478702D6D73672D696E2E63674B
:1029F00069007478702D6D73672E636769003C629F
:102A0000723E44757263687761686C656E3A202522
:102A1000730025642C25642C25642C25642C2564E6
:102A20002C25642C25642C25642C2564003C6272C2
:102A30003E46657374652048617570747374656C87
:102A40006C653A202564003C62723E486175707482
:102A50007374656C6C653A202564003C62723E4577
:102A60006967656E65204E756D6D6572206B6F6E62
:102A70006E7465206E696368742067652661756D84
:102A80006C3B6E646572742077657264656E003CA1
:102A900062723E456967656E65204E756D6D657243
:102AA0003A202564006E6575652045696E7374650E
:102AB0006C6C756E67656E3A203C61206872656665
:102AC0003D227478702D636F6E6669672E63676947
:102AD000223E7765697465723C2F613E003C7472DA
:102AE0003E3C74643E3C696E707574207479706508
:102AF0003D227375626D6974222076616C75653D47
:102B0000222045696E7374656C6C756E672026555E
:102B1000756D6C3B6265726E65686D656E20223EF8
:102B20003C2F74643E3C2F74723E3C2F7461626C87
:102B3000653E3C2F666F726D3E003C74723E3C7485
:102B40006420616C69676E3D227269676874223E19
:102B500044757263687761686C656E3A3C62723E78
:102B6000286D6974204B6F6D6D61207472656E6E97
:102B7000656E293C2F74643E3C74643E3C696E7003
:102B80007574206E616D653D22445552434857412E
:102B9000484C5441422220747970653D2274657816
:102BA00074222073697A653D223330222076616C6D
:102BB00075653D22257322206D61786C656E6774A2
:102BC000683D223330223E3C2F74643E3C2F7472A9
:102BD0003E003E3C2F74643E3C2F74723E0063689E
:102BE00065636B6564003C74723E3C746420616C88
:102BF00069676E3D227269676874223E6665737408
:102C0000652048617570747374656C6C653A3C2F0F
:102C100074643E3C74643E3C696E707574206E61F1
:102C20006D653D2246455354454850535422207407
:102C30007970653D22636865636B626F78222076E8
:102C4000616C75653D22312220003C74723E3C74FB
:102C50006420616C69676E3D227269676874223E08
:102C600048617570747374656C6C653A3C2F74645C
:102C70003E3C74643E3C696E707574206E616D6597
:102C80003D2248415550545354454C4C45222074E4
:102C90007970653D2274657874222073697A653D88
:102CA0002232222076616C75653D22256422206DDA
:102CB00061786C656E6774683D2232223E3C2F74E9
:102CC000643E3C2F74723E003C74723E3C7464203F
:102CD000616C69676E3D227269676874223E45695E
:102CE00067656E65204E756D6D65723A3C2F746434
:102CF0003E3C74643E3C696E707574206E616D6517
:102D00003D22454947454E454E554D4D45522220A1
:102D1000747970653D2274657874222073697A65D0
:102D20003D2232222076616C75653D222564222089
:102D30006D61786C656E6774683D2232223E3C2F6F
:102D400074643E3C2F74723E003C666F726D20616D
:102D50006374696F6E3D227478702D636F6E66695F
:102D6000672E636769223E3C7461626C6520626F06
:102D7000726465723D2230222063656C6C70616400
:102D800064696E673D2235222063656C6C737061E7
:102D900063696E673D2230223E0045696E6761625D
:102DA000653A203C696E707574206E616D653D22D8
:102DB00045696E676162652220747970653D227491
:102DC000657874222073697A653D22363522207633
:102DD000616C75653D2222206D61786C656E67744B
:102DE000683D223635223E3C696E707574207479D8
:102DF00070653D227375626D6974222076616C7511
:102E0000653D2220416273656E64656E20223E3C02
:102E1000666F726D20616374696F6E3D22747870A5
:102E20002D6D73672D696E2E636769223E3C6120AC
:102E3000687265663D227478702D6D73672D6F75AD
:102E4000742E63676922207461726765743D224D38
:102E500073674F7574223E416B7475616C69736959
:102E60006572656E3C2F613E3C2F666F726D3E0051
:102E70000D0A0045696E676162650045696E6761AC
:102E80006265005465787465696E67616265207378
:102E9000746172746574204665726E7363687265DE
:102EA00069626572003C693E3C7072653E25733C08
:102EB0002F7072653E3C2F693E00447275636B73E0
:102EC00070696567656C3A3C62723E3C7072653E43
:102ED00025733C2F7072653E003C48544D4C3E3C7F
:102EE000484541443E3C6D65746120687474702DA2
:102EF00065717569763D2265787069726573222007
:102F0000636F6E74656E743D2231223E3C6D657454
:102F10006120687474702D65717569763D227072D8
:102F200061676D612220636F6E74656E743D226E01
:102F30006F2D6361636865223E3C6D657461206836
:102F40007474702D65717569763D2272656672655F
:102F500073682220636F6E74656E743D22353B206A
:102F600055524C3D7478702D6D73672D6F75742EAE
:102F7000636769223E3C2F484541443E3C424F44F2
:102F8000593E003C6672616D6573657420726F779F
:102F9000733D222A2C363022207363726F6C6C6969
:102FA0006E673D226E6F22206672616D65626F7280
:102FB0006465723D22322220626F726465723D2226
:102FC0003222206672616D6573706163696E673D60
:102FD00022322220626F72646572636F6C6F723D81
:102FE0002223303030303030223E3C6672616D65D5
:102FF000207372633D227478702D6D73672D6F7529
:10300000742E63676922206E616D653D224D736782
:103010004F757422203E3C6672616D652073726349
:103020003D227478702D6D73672D696E2E6367690C
:1030300022206E616D653D224D7367496E222073BB
:1030400063726F6C6C696E673D226E6F223E3C6EE0
:103050006F6672616D65733E3C626F64793E3C7071
:103060003E4968722042726F7773657220756E7484
:1030700065727374FC747A74206B65696E652046A2
:1030800072616D6573213C2F703E3C2F626F6479D5
:103090003E3C2F6E6F6672616D65733E3C2F6672AB
:1030A000616D657365743E3C2F48544D4C3E0D0A6E
:1030B0000D0A003C703E45746865726E65743A2076
:1030C000256C6420427974657320696E20256C64D8
:1030D000205061636B6574656E204C6F636B457245
:1030E000726F727320256C640D0A003C62723E544C
:1030F0007870546872656164436F756E74202F2018
:10310000353030203D202564003C62723E54696DAC
:1031100065723043616C6C6261636B436F756E7492
:10312000202F20353030203D202564003C62723E47
:10313000547769497372436F756E74203D2025641E
:10314000003C62723E46616C7363686572436F64F3
:1031500065203D202564003C62723E4C6562656ED0
:10316000737A65696368656E5A6165686C6572201B
:103170003D202564003C62723E53656E64654D617E
:10318000726B203D202564003C62723E536572558F
:103190006D53656E64446174656E203D2025640046
:1031A0003C62723E536572556D53656E644269743C
:1031B0004E72203D202564002025303258003C62AC
:1031C000723E507566666572416E7A61686C28263B
:1031D000456D706650756666657229203D202564D0
:1031E000003C62723E527568655A6165686C657232
:1031F000203D202564003C62723E536572556D543B
:1032000069636B5A6165686C657253656E64203DD5
:10321000202564003C62723E536572556D546963AB
:103220006B5A6165686C6572456D7066203D20253E
:1032300064003C62723E536572556D456D70664D1B
:1032400061726B5A6165686C203D202564003C62A8
:10325000723E536572556D456D70664665686C6566
:1032600072203D202564003C62723E536572556DAC
:10327000456D7066446174656E203D202564003C98
:1032800062723E536572556D456D70664269744E4B
:1032900072203D202564003C62723E427573456D8C
:1032A00070664D61726B203D202564003C62723E69
:1032B000537461747573203D202564003C62723E36
:1032C0004D6F647573203D202564003C62723E544E
:1032D000696D65723043616C6C6261636B5F4D61F7
:1032E00078203D202564003C62723E54696D657211
:1032F00030436E745F4D6178203D202564003C6250
:10330000723E54696D657230436E745F4D696E2014
:103310003D202564005D3C703E44656275674D73D9
:10332000673A2025733C62723E005D3C62723E53F8
:10333000656E6465546578743A205B00456D70660F
:10334000546578743A205B0054656C6E65742D4149
:10335000736369692D56657262696E64756E672064
:103360004265656E64656E0D0A002B2B2B0054655B
:103370006C6E65742D41736369692D56657262695F
:103380006E64756E672067657472656E6E740D0A83
:103390000054656C6E65742D41736369692D5665C3
:1033A0007262696E64756E672068657267657374B2
:1033B000656C6C740D0A005265736572766965728E
:1033C000756E672066FC722045696E736368616C78
:1033D00074756E67206B6F6E6E7465206E696368BE
:1033E000742076657273616E642077657264656EB1
:1033F000003F6E6963687420647275636B6261720A
:1034000065205A65696368656E3A20005363686C8D
:103410007573737175697474756E67206F686E6506
:1034200020417566666F72646572756E67000D0A7D
:103430000A646174756D3A20253032752E2530325C
:10344000752E2530347520207568727A6569743A56
:1034500020253032643A253032643A253032640D0A
:103460000A0A0023740D6F20686E6D0A6C7267691A
:10347000706376657A64627379667861776A2375BA
:10348000716B230023350D3920232C2E0A29342378
:1034900038303A3D332B233F2736232F2D32232339
:1034A00037312823000014BE88E10FB6F8948093CA
:1034B0006000109260000FBE11241FBECFEFD1E25A
:1034C000DEBFCDBF00E00CBF8091740080688093A8
:1034D0007400579A5F980E949C2680E00E94922672
:1034E000C0E0D2E2CE010E94702689938FEFCF3FD9
:1034F000D807C1F7C0E0D2E2EE24FF241881CE0144
:103500000E947026181719F00894E11CF11C1992FA
:103510008FEFCF3FD80791F7E114F10421F081E05C
:103520000E949226FFCF81E00E94922680E00E94B6
:10353000882612E2A0E0B2E2E6EBFCEE00E00BBF70
:1035400002C007900D92A23AB107D9F714EAA2EA95
:10355000B2E201C01D92AF37B107E1F704D00C947D
:1035600059760C9400000E94F84A82E00E9492264C
:103570000E944B5982E00E94882683E00E94922696
:103580000E944F590E94F16383E00E9488260E94A6
:103590002A50FDCF1092690010926A000895AC0184
:1035A0008830910554F42DB381E090E002C0880F7B
:1035B000991F4A95E2F7282B2DBB0895DC0188302E
:1035C000910514F08EEF08956430710514F08FEFBB
:1035D0000895FC01EE0FFF1FA430B105CCF48091DB
:1035E000690023E030E00E2E02C0220F331F0A9440
:1035F000E2F720952823209369008091690002C09A
:10360000660F771FEA95E2F7862B8093690018C052
:1036100080916A0023E030E00E2E02C0220F331F9B
:103620000A94E2F72095282320936A0080916A008B
:1036300002C0660F771FEA95E2F7862B80936A0037
:10364000FD01EE0FFF1FEE55FD4D51834083CD016F
:10365000A6DF80E00895AC01883091055CF42DB3BD
:1036600081E090E002C0880F991F4A95E2F78095AB
:1036700082238DBB08951F920F920FB60F920BB647
:103680000F9211242F933F934F935F936F937F93E8
:103690008F939F93AF93BF93EF93FF93E091A222F9
:1036A000F091A3221995FF91EF91BF91AF919F9156
:1036B0008F917F916F915F914F913F912F910F90DB
:1036C0000BBE0F900FBE0F901F9018951F920F9278
:1036D0000FB60F920BB60F9211242F933F934F9377
:1036E0005F936F937F938F939F93AF93BF93EF936A
:1036F000FF93E091A422F091A5221995FF91EF91FB
:10370000BF91AF919F918F917F916F915F914F91F9
:103710003F912F910F900BBE0F900FBE0F901F90F7
:1037200018951F920F920FB60F920BB60F9211249D
:103730002F933F934F935F936F937F938F939F93B9
:10374000AF93BF93EF93FF93E091A622F091A7224E
:103750001995FF91EF91BF91AF919F918F917F91BB
:103760006F915F914F913F912F910F900BBE0F90F2
:103770000FBE0F901F9018951F920F920FB60F92C9
:103780000BB60F9211242F933F934F935F936F9338
:103790007F938F939F93AF93BF93EF93FF93E091AA
:1037A000A822F091A9221995FF91EF91BF91AF91B5
:1037B0009F918F917F916F915F914F913F912F9149
:1037C0000F900BBE0F900FBE0F901F9018951F9279
:1037D0000F920FB60F920BB60F9211242F933F93B7
:1037E0004F935F936F937F938F939F93AF93BF9309
:1037F000EF93FF93E091AA22F091AB221995FF91EC
:10380000EF91BF91AF919F918F917F916F915F9158
:103810004F913F912F910F900BBE0F900FBE0F90C5
:103820001F9018951F920F920FB60F920BB60F9222
:1038300011242F933F934F935F936F937F938F93B5
:103840009F93AF93BF93EF93FF93E091AC22F091DE
:10385000AD221995FF91EF91BF91AF919F918F91FB
:103860007F916F915F914F913F912F910F900BBE80
:103870000F900FBE0F901F9018951F920F920FB6CA
:103880000F920BB60F9211242F933F934F935F9398
:103890006F937F938F939F93AF93BF93EF93FF9318
:1038A000E091AE22F091AF221995FF91EF91BF9177
:1038B000AF919F918F917F916F915F914F913F91C8
:1038C0002F910F900BBE0F900FBE0F901F90189569
:1038D0001F920F920FB60F920BB60F9211242F93D7
:1038E0003F934F935F936F937F938F939F93AF9388
:1038F000BF93EF93FF93E091B022F091B12219951D
:10390000FF91EF91BF91AF919F918F917F916F91B7
:103910005F914F913F912F910F900BBE0F900FBE73
:103920000F901F901895FC01EE0FFF1FEE0FFF1F69
:10393000E80FF91FEE50FD4D86E084830895613055
:1039400011F4845E0895673008F0615060FD02C094
:103950008FE108958EE10895A0E0B0E0E2EBFCE194
:103960000C94CF71EC018E849F84A888B988EE8472
:10397000FF8408891989698570E080E090E020E182
:103980003EE040E050E00E946171E60EF71E081F25
:10399000191FEE86FF86088B198B8CE697E09887B7
:1039A0008F836E857F858889998920E831E541E09C
:1039B00050E00E94A771162F072FF82EE92E6E8572
:1039C0007F858889998920E831E541E050E00E94AF
:1039D000A7716901612F702F8F2D9E2D2CE330E090
:1039E00040E050E00E94A7716983612F702F8F2DF6
:1039F0009E2D20E13EE040E050E00E94A7712CE3C4
:103A000030E040E050E00E94A7712A83612F702FC0
:103A10008F2D9E2D20E13EE040E050E00E94A771F6
:103A20002B83C601019667E070E00E9480718C8351
:103A300022C08F81988583709070892B99F48F8133
:103A4000988564E670E00E948071892B41F48F8133
:103A5000988560E971E00E948071892B19F48EE6E7
:103A600091E002C08DE691E0C81AD90A8F8198854D
:103A7000019698878F838F81988583709070892BAA
:103A800099F48F81988564E670E00E948071892B9B
:103A900041F48F81988560E971E00E948071892BE3
:103AA00019F48EE691E002C08DE691E0C816D906C1
:103AB00008F0BFCF1E8228C08F81988583709070D8
:103AC000892B19F080E090E018C08F81988564E61A
:103AD00070E00E948071892B19F081E090E00DC0A8
:103AE0008F81988520E030E060E971E00E9480716C
:103AF000892B11F421E030E0C9016E8120DFC81A62
:103B0000D1088E818F5F8E838F81988583709070AE
:103B1000892B19F080E090E018C08F81988564E6C9
:103B200070E00E948071892B19F081E090E00DC057
:103B30008F81988520E030E060E971E00E9480711B
:103B4000892B11F421E030E0C9016E81F8DE90E0AC
:103B5000C816D90608F0B0CF8E818F5F8E838C2D6A
:103B60008F5F8D838E81833010F430E007C08E81AB
:103B700030E08B3008F031E081E038278D812C81F6
:103B800090E0821B9109499754F08C81882319F4A5
:103B90008B81823020F08E818A3021F440C08E816A
:103BA0008330E9F13323D9F18B818F5F8B838B8154
:103BB0008831A9F51B828C818F5F8C838C81873043
:103BC00009F41C821D818F81988583709070892BE8
:103BD00019F080E090E018C08F81988564E670E06D
:103BE0000E948071892B19F081E090E00DC08F81D7
:103BF000988520E030E060E971E00E948071892BB7
:103C000011F421E030E0C9016E8199DE181721F42A
:103C10001D828E818F5F8E838D818F5F8D838E86D7
:103C20009F86A88AB98ACDB7DEB7ECE00C94EB7119
:103C30001F93CF93DF93809192238F5F8093922382
:103C400080919223843611F011E053C01092922398
:103C5000809193238F5F8093932380919C239091F5
:103C60009D23A0919E23B0919F230196A11DB11D7C
:103C700080939C2390939D23A0939E23B0939F2396
:103C80008091A0239091A123A091A223B091A3237E
:103C90000196A11DB11D8093A0239093A123A09311
:103CA000A223B093A323809193238C3311F012E0CD
:103CB00020C010929323809194238F5F809394234C
:103CC000809194238C3311F013E013C0109294234D
:103CD000809195238F5F8093952382E993E23CDE68
:103CE00080919523883111F014E003C01092952340
:103CF00015E0C0E0D0E0FE01EE0FFF1FEE0FFF1F4A
:103D0000EC54FD4D8081181798F0FE01EE0FFF1F57
:103D1000EE0FFF1F123028F0EE54FD4D81E083833B
:103D200007C0EE54FD4D13820190F081E02D1995EE
:103D30002196C031D105F9F620E030E0F901EE0F0F
:103D4000FF1FEE0FFF1FEE54FD4DDF011396838121
:103D5000813041F41C920190F081E02D199520E012
:103D600030E006C02F5F3F4F2031310539F7F7CFE4
:103D7000F901EE0FFF1FEE0FFF1FE20FF31FEE50D2
:103D8000FD4D8481181798F080819181A281B381C3
:103D90000097A105B10559F080819181A281B3817D
:103DA0000197A109B10980839183A283B3832F5F17
:103DB0003F4F20323105E1F6DF91CF911F910895F9
:103DC0000F931F938C012CD182E993E2B80142E159
:103DD00050E00E9498722AD180E090E01F910F91EC
:103DE00008950F931F938C011BD1C80162E973E200
:103DF00042E150E00E94987219D180E090E01F915A
:103E00000F910895EF92FF920F931F938C0108D1A9
:103E1000F801EE0FFF1FEE0FFF1FE00FF11FEE5036
:103E2000FD4DE080F1800281138100D1C7011F9117
:103E30000F91FF90EF900895BF92CF92DF92EF9293
:103E4000FF920F931F936C017B01B42EE9D000E029
:103E500010E0F601EE0FFF1FEE0FFF1FEC0DFD1D32
:103E6000EE50FD4DE082F18202831383B482DED0F6
:103E70001F910F91FF90EF90DF90CF90BF9008952A
:103E8000CF93DF93CDD0C0E0D0E0FE01EE0FFF1F57
:103E9000EE0FFF1FEC0FFD1FEE50FD4D84818630AD
:103EA00031F41082118212821382C0D007C0219691
:103EB000C032D10551F7BAD0CFEFDFEFCE01DF919D
:103EC000CF9108951F93CF93DF93EC01162FA8D0C5
:103ED00020E030E0F901EE0FFF1FEE0FFF1FEE5460
:103EE000FD4D808191818C179D07E9F02F5F3F4F39
:103EF0002031310579F7E0E0F0E0DF01AA0FBB1FC8
:103F0000AA0FBB1FAE54BD4D8D919C911197892B6B
:103F100069F41196DC93CE93EE0FFF1FEE0FFF1F97
:103F2000EC54FD4D108382D080E006C03196E03124
:103F3000F10519F77BD08FEFDF91CF911F91089595
:103F400020E030E0F901EE0FFF1FEE0FFF1FEE54EF
:103F5000FD4D11821082F901EE0FFF1FEE0FFF1FC2
:103F6000EC54FD4D86E080832F5F3F4F20313105BB
:103F700049F720E030E0F901EE0FFF1FEE0FFF1FC1
:103F8000E20FF31FEE50FD4D108211821282138258
:103F900086E084832F5F3F4F2032310561F7109216
:103FA0009C2310929D2310929E2310929F23109287
:103FB000A0231092A1231092A2231092A323109267
:103FC0009B2382E993E2C8DC84E690E060E070E045
:103FD00003D088E19EE15DC00F931F938B01109287
:103FE000A5231092A4232AE0209381009C0183E062
:103FF000220F331F8A95E1F740E050E060E074E261
:1040000084EF90E00E94A771201B310B3093890050
:104010002093880082E080936F001F910F91089594
:10402000EFE6F0E080818D7F80830895EFE6F0E099
:1040300080818260808308951F920F920FB60F9245
:104040000BB60F9211242F933F934F935F936F936F
:104050007F938F939F93AF93BF93EF93FF93E091E1
:10406000A423F091A523309709F01995FF91EF91C2
:10407000BF91AF919F918F917F916F915F914F9180
:104080003F912F910F900BBE0F900FBE0F901F907E
:1040900018952091A4233091A5232817390711F4EE
:1040A00081E00895232B11F080E008959093A523DB
:1040B0008093A42381E008958330910584F4FC016A
:1040C00033E0EE0FFF1F3A95E1F7880F991FE80FD5
:1040D000F91FEF5BFD4D0190F081E02D19950895DA
:1040E0008330910514F080E00895FC01EE0FFF1F6E
:1040F000EE0FFF1FE80FF91FEE0FFF1FED5BFD4DE9
:104100000190F081E02D862F199508958330910557
:1041100094F4FC0133E0EE0FFF1F3A95E1F7880FAE
:10412000991FE80FF91FEF5BFD4D0680F781E02D29
:10413000CB01BA01199508959C01FC0193E0EE0FA3
:10414000FF1F9A95E1F7220F331FE20FF31FE15A89
:10415000FD4D0190F081E02D19950895FC01EE0FC1
:10416000FF1FEE0FFF1FE80FF91FEE0FFF1FEF59A4
:10417000FD4D0190F081E02D862F199508959C0149
:10418000FC0153E0EE0FFF1F5A95E1F7220F331F9A
:10419000E20FF31FE15AFD4D0480F581E02D1995E2
:1041A00008959C01FC0173E0EE0FFF1F7A95E1F783
:1041B000220F331FE20FF31FE15AFD4D0680F781F6
:1041C000E02D199508951F920F920FB60F920BB61E
:1041D0000F9211248F93EF93FF93E1ECF0E0808135
:1041E0008F7B80831092A623FF91EF918F910F9088
:1041F0000BBE0F900FBE0F901F9018951F920F923D
:104200000FB60F920BB60F9211242F933F934F933B
:104210005F936F937F938F939F93AF93BF93EF932E
:10422000FF938091A9239091AA230E940849892B8A
:1042300049F08091A9239091AA230E947649809306
:10424000C6000AC08091C10080648093C100809143
:10425000C1008F7D8093C100FF91EF91BF91AF911D
:104260009F918F917F916F915F914F913F912F918E
:104270000F900BBE0F900FBE0F901F9018951F92BE
:104280000F920FB60F920BB60F9211241F932F931C
:104290003F934F935F936F937F938F939F93AF93CE
:1042A000BF93EF93FF931091C6008091A723909145
:1042B000A8230E9408498F3F910509F03CF48091A2
:1042C000A7239091A823612F0E942149FF91EF918C
:1042D000BF91AF919F918F917F916F915F914F911E
:1042E0003F912F911F910F900BBE0F900FBE0F901B
:1042F0001F9018951F920F920FB60F920BB60F9248
:1043000011248F93EF93FF93E9ECF0E080818F7B92
:1043100080831092AB23FF91EF918F910F900BBE92
:104320000F900FBE0F901F9018951F931FB7F89412
:104330008091AC259091AD250E9408491FBF1F9127
:1043400008951F931FB7F8948091AC259091AD25E7
:104350000E940849892B11F480E006C08091AC25A9
:104360009091AD250E9476491FBF1F9108951F921D
:104370000F920FB60F920BB60F9211242F933F930B
:104380004F935F936F937F938F939F93AF93BF935D
:10439000EF93FF938091AE259091AF250E9408493D
:1043A000892B49F08091AE259091AF250E947649E6
:1043B0008093CE000AC08091C90080648093C900B8
:1043C0008091C9008F7D8093C900FF91EF91BF91CB
:1043D000AF919F918F917F916F915F914F913F919D
:1043E0002F910F900BBE0F900FBE0F901F9018953E
:1043F0000F931F93182F0FB7F8948091AE259091CB
:10440000AF250E940849892B31F58091AB2381307B
:1044100091F48091AE259091AF25612F0E942149A2
:104420008091C9008F7B8093C9008091C900806210
:104430008093C90024C01093CE008091C90080648D
:104440008093C9008091C9008F7D8093C90081E06D
:104450008093AB2314C0F8948091AE259091AF2542
:104460000E9408498F3F910519F014F00FBFF3CF58
:104470008091AE259091AF25612F0E9421490FBFF9
:104480001F910F9108951F920F920FB60F920BB6C6
:104490000F9211241F932F933F934F935F936F932A
:1044A0007F938F939F93AF93BF93EF93FF9310915D
:1044B000CE008091AC259091AD250E9408498F3F98
:1044C000910509F03CF48091AC259091AD25612FC8
:1044D0000E942149FF91EF91BF91AF919F918F91E0
:1044E0007F916F915F914F913F912F911F910F900D
:1044F0000BBE0F900FBE0F901F9018958CEA94E2A0
:1045000060E071E00E94DC489093AD258093AC257B
:104510008CEA93E260E071E00E94DC489093AF2562
:104520008093AE251092AB231092CD0087E6809346
:10453000CC0088E98093C90086E08093CA00089582
:10454000362F3770669566956695623009F44AC0D5
:10455000633030F4662371F0613009F0B0C026C0DA
:10456000643009F477C0643008F458C0653009F04D
:10457000A6C08BC0813059F421B181E090E002C027
:10458000880F991F3A95E2F7282B21B998C08230FD
:1045900009F095C021B181E090E002C0880F991F19
:1045A0003A95E2F78095822381B989C0813059F428
:1045B00024B181E090E002C0880F991F3A95E2F79C
:1045C000282B24B97CC0823009F079C024B181E065
:1045D00090E002C0880F991F3A95E2F780958223F8
:1045E00084B96DC0813059F427B181E090E002C0F8
:1045F000880F991F3A95E2F7282B27B960C08230BF
:1046000009F05DC027B181E090E002C0880F991FDA
:104610003A95E2F78095822387B951C0813059F4E9
:104620002AB181E090E002C0880F991F3A95E2F725
:10463000282B2AB944C0823009F041C02AB181E058
:1046400090E002C0880F991F3A95E2F78095822387
:104650008AB935C0813059F42DB181E090E002C0B3
:10466000880F991F3A95E2F7282B2DB928C0823080
:1046700031F52DB181E090E002C0880F991F3A9585
:10468000E2F7809582238DB91AC0813059F420B3A6
:1046900081E090E002C0880F991F3A95E2F7282B3D
:1046A00020BB0DC0823059F420B381E090E002C0FD
:1046B000880F991F3A95E2F78095822380BB8FEF90
:1046C00090E00895382F37708695869586958230CC
:1046D00031F1833030F4882361F0813009F04AC031
:1046E00013C0843091F1843028F1853009F042C044
:1046F00037C022B181E090E002C0880F991F3A953F
:10470000E2F7282B22B936C025B181E090E002C043
:10471000880F991F3A95E2F7282B25B92BC028B1AD
:1047200081E090E002C0880F991F3A95E2F7282BAC
:1047300028B920C02BB181E090E002C0880F991FFA
:104740003A95E2F7282B2BB915C02EB181E090E005
:1047500002C0880F991F3A95E2F7282B2EB90AC09C
:1047600021B381E090E002C0880F991F3A95E2F7EB
:10477000282B21BB8FEF90E00895382F3770869556
:1047800086958695823041F1833030F4882361F03C
:10479000813009F050C014C08430B1F1843040F150
:1047A000853009F048C03CC022B181E090E002C0F1
:1047B000880F991F3A95E2F78095822382B93BC012
:1047C00025B181E090E002C0880F991F3A95E2F789
:1047D0008095822385B92FC028B181E090E002C086
:1047E000880F991F3A95E2F78095822388B923C0F4
:1047F0002BB181E090E002C0880F991F3A95E2F753
:10480000809582238BB917C02EB181E090E002C061
:10481000880F991F3A95E2F7809582238EB90BC0D5
:1048200021B381E090E002C0880F991F3A95E2F72A
:104830008095822381BB8FEF90E00895FF920F93C4
:104840001F93CF93DF93EC018B01FFB6F89473981D
:1048500081E090E06AE705C0F80161918F0181E095
:1048600090E03EDC2197FFEFCF3FDF07A9F783E021
:104870008A9501F0E9F7C895739AFFBECDB7DEB708
:10488000E5E00C94F2710F931F93142F0FB7F89477
:1048900073986F71682B81E090E022DC81E090E0FA
:1048A000612F1EDC83E08A9501F0E9F7C895739AC1
:1048B0000FBF1F910F9108951F93CF93DF93182F70
:1048C000C82FD0E0C076D0708091B02590E0C81796
:1048D000D90781F080EA6FE143E0D5DF85E0D59527
:1048E000C7958A95E1F780E86FE14C2FCCDF107611
:1048F0001093B025DF91CF911F9108950F931F93CF
:10490000182F062FD9DF80E4612F402FBCDF1F91C5
:104910000F9108950F931F938C0184EEF80160812D
:10492000EDDF85EEF8016181E9DF82EEF801628159
:10493000E5DF83EEF8016381E1DF80EEF801648159
:10494000DDDF81EEF8016581D9DF1F910F910895B8
:104950000F931F93162F0FB7F89473986F71682BEE
:1049600081E090E0BDDB81E090E060E0B9DB17FF23
:1049700004C081E090E060E0B3DB93E09A9501F041
:10498000E9F7C895739A0FBF1F910F9108951F9370
:10499000182F92DF80E0612FDBDF1F9108950F93C6
:1049A0001F93CF93DF93EC018B018FE1F0DF83FD49
:1049B000FCCF82E060E0A2DF83E068E19FDF86E079
:1049C0006C2F9CDFC050D84E6D2F772767FD7A95EE
:1049D000C050D84187E092DF8AE760E040E053DFD3
:1049E000CE01B8012BDF80E86FE140E84CDF80EAC0
:1049F0006FE140E848DF80E86FE148E044DFDF91A5
:104A0000CF911F910F91089582E7C1DF90E0089543
:104A10000F931F93982F8B0184ED692F6FDF86ED25
:104A2000602F6CDF012F110F110B87ED602F66DFF8
:104A30008AEEADDF80FDFCCF1F910F91089581E0DC
:104A400090E03ADB6B9A739A8FEF60E04FEF1BDFD9
:104A50008DE19DDF80FFFCCF1092B2251092B12531
:104A600088E060E04BDF89E060E048DF8CE060E0F8
:104A700045DF8DE060E042DF8AE06EEF3FDF8BE0F4
:104A800067E13CDF84E060E039DF85E068E136DF44
:104A900088E361EA33DF80EC6DE030DF81EC60E0D9
:104AA0002DDF88EC63E02ADF80E862EC42E3EBDE96
:104AB00086EC62E123DF87EC6CE020DF84EC62E1CE
:104AC0001DDF8AEC6EEE1ADF8BEC65E017DF80E10C
:104AD00060E071E09DDF8FE1EFDE80E86BE140ECAC
:104AE000D2DE80E86FE144E0CEDE84E166E774E088
:104AF0008FCF0F931F93682F84ED00DF82ED61E06D
:104B0000FDDE8AEE44DF80FDFCCF82ED60E0F6DE64
:104B100088ED3DDF082F10E089ED39DF382F20E0E8
:104B2000202B312BC9011F910F91089581E0E1DF06
:104B3000969587959695879580958170089580EADA
:104B40006FE14CE0A0DE80E0D4DFBC017E7F80E03E
:104B50005FDF82EC1CDF682F70E06E7F82ECCEDEC0
:104B600084EC65E1CBDE86EC62E1C8DE87EC6CE0CC
:104B7000C5DE80E86FE144E086CEDF92EF92FF92DF
:104B80000F931F938C017B01DFB6F894739881E03B
:104B900090E06AE3A5DA81E090E0B701A801B6DA17
:104BA00083E08A9501F0E9F7C895739ADFBE1F91FB
:104BB0000F91FF90EF90DF900895A0E0B0E0E3EE5A
:104BC000F5E20C94D171EC017B018CE1E0DE86FD15
:104BD00005C089E3DCDE882309F43DC080E06091F4
:104BE000B1258CDE6091B22581E088DE8AE360E049
:104BF000AFDE082F10E01093B2250093B1258AE3B1
:104C000060E0A6DE382F20E0202B312B3093B22538
:104C10002093B1258AE360E09BDEA82EBB248AE3C3
:104C200060E096DE382F20E0A22AB32A8AE360E013
:104C30008FDE8AE360E08CDECA15DB057CF48CE055
:104C40006091B1255BDE6091B2258DE057DE80E892
:104C50006EE140E418DEAA24BB243CC0C501B701C4
:104C60008CDF89E094DE182F00E088E090DEC82E0B
:104C70008BE08DDEF82EEE248AE089DEC82FD0E0AE
:104C8000CE29DF296091B1257091B225CB01019722
:104C9000DD240C291D298017910718F0C817D907A2
:104CA00048F48CE06C2F2ADE6D2F772767FD7A950C
:104CB0008DE00BC061508CE021DE2091B125309158
:104CC000B225215030408DE0632F18DE80E86EE180
:104CD00040E4D9DDC501CDB7DEB7EAE00C94ED7153
:104CE000292F280F892F90E06DE070E00E948071DD
:104CF00090E007C027FF03C0220F216001C0220FF0
:104D00009F5F9817B8F3883008F02095822F089598
:104D1000843038F4E82FF0E0E453FF4FE4918E2F15
:104D20002CCD0895843038F4E82FF0E0E453FF4FA1
:104D3000E4918E2FC7CC08951F93CF93DF93CCECD3
:104D4000D0E010E0FE01649181E0FADB812FE0DF2A
:104D500021961F5F1430B1F7DF91CF911F91089515
:104D600085B1836085B984B1876084B9239880E573
:104D70008CBD81E08DBD08958EBD0DB407FEFDCFC5
:104D80008EB50895DC018C918EBD81E090E009C064
:104D9000FD01E80FF91FE0810DB407FEFDCFEEBD68
:104DA000019686179707A0F30DB407FEFDCF08956F
:104DB000AC011EBC20E030E00BC00DB407FEFDCFFF
:104DC0001EBC8EB5FA01E20FF31F80832F5F3F4FA9
:104DD0002617370790F30DB407FEFDCF0895E4ECD6
:104DE000F0E0118210826A9A80EC8093C20088E120
:104DF0008093C100118210820895982F8091C00085
:104E000085FFFCCF9093C6008091C00087FFFCCF48
:104E10008091C6000895DC018C918093C60021E04A
:104E200030E00CC0FD01E20FF31FE0818091C00073
:104E300085FFFCCFE093C6002F5F3F4F2617370753
:104E40008CF38091C00087FFFCCF0895AC0120E077
:104E500030E013C08091C00085FFFCCF8FEF8093BE
:104E6000C6008091C00087FFFCCF8091C600FA0188
:104E7000E20FF31F80832F5F3F4F6217730754F7D2
:104E80008091C00085FFFCCF0895299884B18A6085
:104E900084B922980895282F90E080E0880F27FF9A
:104EA00002C02B9A01C02B98299A1A9981602998DF
:104EB0009F5F983011F0220FF1CF089520E030E08D
:104EC00013C0FC01E20FF31FE08140E0E7FF02C0E6
:104ED0002B9A01C02B98299A29984F5F483011F0DE
:104EE000EE0FF4CF2F5F3F4F2617370750F308958B
:104EF000FC012B9880E090E030E00BC020E0330F05
:104F0000299A1A99316029982F5F2830C1F7319377
:104F100001968617970790F308951F931092B42572
:104F20001092B32512E014BD9C01442737FD409533
:104F3000542F542F432F322F222760E074E284EF46
:104F400090E00E94A77127BD84E085BD10936E009C
:104F50001F9108951F920F920FB60F920BB60F92EA
:104F600011242F933F934F935F936F937F938F936E
:104F70009F93AF93BF93EF93FF93E091B325F0918D
:104F8000B425309709F01995FF91EF91BF91AF913A
:104F90009F918F917F916F915F914F913F912F9151
:104FA0000F900BBE0F900FBE0F901F901895209181
:104FB000B3253091B4252817390711F48FEF0895E0
:104FC000232B11F080E008959093B4258093B325AE
:104FD0008FEF0895A0E0B0E0E0EFF7E20C94D1711C
:104FE0006C017B01B62EAF2C8B01025F1F4FFB01C2
:104FF0008685682F70E06F707070660F771F660F80
:10500000771F625F7F4FE701C60FD71F6E5070405A
:105010008881882309F441C0883009F04AC0F8012A
:1050200084859585A685B785808B918BA28BB38B64
:1050300080911F2290912022A0912122B0912222C2
:1050400084879587A687B78713861286C8010E9432
:105050000D440E94AB50F801938782871882198211
:105060008A81883F18F08B818F5F8B838A81885F6C
:105070008A832B2D3A2DC901FC01A8E1B2E2868179
:1050800080838D918683319622E2AE31B207B9F7E3
:10509000C601B7010E944E380CC08C819D818D5194
:1050A0009C4A39F480911622813019F482E0809371
:1050B0001622CDB7DEB7EAE00C94ED719C01863084
:1050C00091051CF0EFEFFFEF12C08FB7F894F901D4
:1050D000EE0FFF1FE20FF31F93E0EE0FFF1F9A95F5
:1050E000E1F7EB54FA4D0190F081E02D8FBFCF0135
:1050F00008959C01863091051CF02FEF3FEF11C001
:105100008FB7F894F901EE0FFF1FE20FF31F53E082
:10511000EE0FFF1F5A95E1F7EB54FA4D22893389C0
:105120008FBFC90108959C01863091051CF02FEFB7
:105130003FEF17C08FB7F894F901EE0FFF1FE20F92
:10514000F31F93E0EE0FFF1F9A95E1F7EB54FA4D32
:10515000138A128A20E130E0318320838FBF20E060
:1051600030E0C9010895863091051CF02FEF3FEF24
:1051700044C04FB7F8949C01220F331F280F391FEA
:10518000D90153E0AA0FBB1F5A95E1F7AB54BA4DB2
:105190008D919C911197892B69F111961C921E9209
:1051A000F90193E0EE0FFF1F9A95E1F7E954FA4DEC
:1051B0001082118212821382F90183E0EE0FFF1F29
:1051C0008A95E1F7E354FA4D1182108217961C92EA
:1051D0001E92169753961C921E92529751961C92AD
:1051E0001E92509755961C921E92549757961C9259
:1051F0001E9256974FBF20E030E0C9010895CF932B
:10520000DF93C0E0D0E0CE01AEDF2196C630D105FD
:10521000D1F7DF91CF9108954FB7F894E5EBF5E220
:1052200020E030E080819181892B41F02F5F3F4F5A
:10523000789626303105B1F72FEF3FEF4FBFC90108
:105240000895EF92FF920F931F93CF93DF937B010B
:10525000FA01863091051CF02FEF3FEF32C0268512
:10526000C22FD0E0CF70D070CC0FDD1FCC0FDD1F70
:105270002E96CE0FDF1F8C01000F111F080F191F74
:1052800023E0000F111F2A95E1F7F801E354FA4DCE
:10529000808191810E94AB509B838A830B541A4D6D
:1052A000F801868197810E94AB50998388831F8281
:1052B0001E82C70108960E94AB509D838C8320E01C
:1052C00030E0C901CDB7DEB7E6E00C94F171A0E0A3
:1052D000B0E0EDE6F9E20C94CE715C01BEE08B2EFD
:1052E000912C880E991EDC011E968C91C82FD0E05F
:1052F000CF70D070CC0FDD1FCC0FDD1F2E96CA0DE6
:10530000DB1D7FB6F894F7EBEF2EF5E2FF2ECC24F1
:10531000DD24F701048115818A819B810E94AB50B5
:105320000817190709F04EC0D70116960D911C9168
:105330001797888199810E94AB500817190709F4C3
:105340003FC0F70186819781892BE1F580819181AA
:10535000A281B3810097A105B105A1F58601000FD7
:10536000111F0C0D1D1DF80173E0EE0FFF1F7A9544
:10537000E1F7E954FA4DD4011C962D913D914D91E0
:105380005C911F9720833183428353838881998165
:105390000E94AB5063E0000F111F6A95E1F7F8011E
:1053A000E354FA4D91838083E6E0F0E0AE0EBF1E39
:1053B000C80181549A4DB50146E050E00E949872B0
:1053C00096010EC00894C11CD11C88E190E0E80E43
:1053D000F91E96E0C916D10409F09BCF2FEF3FEFDD
:1053E0007FBEC901CDB7DEB7EDE00C94EA71A0E055
:1053F000B0E0EDEFF9E20C94CD713B01FB011685B5
:10540000CB0165DF4C01FFEF8F3F9F0709F492C08E
:10541000C12FD0E0CF70D070CC0FDD1FCC0FDD1FBF
:105420002E96C60DD71D8C819D810E94AB5008978A
:1054300009F480C0F3018685E82EFF24FFE0EF2207
:10544000FF24EE0CFF1CEE0CFF1C86E190E0E80E42
:10545000F91E6401CC0CDD1CC80CD91C860143E08C
:10546000000F111F4A95E1F70B541A4DF801A68859
:10547000B788A114B10459F18C819D810E94AB5071
:10548000BC0168507040C3018E0D9F1DF501199538
:1054900080E190E0F80191838083F60133E0EE0F24
:1054A000FF1F3A95E1F7E354FA4D11821082F6019D
:1054B00023E0EE0FFF1F2A95E1F7E954FA4D108221
:1054C000118212821382F801138A128A33C0F80102
:1054D00080819181409771F58C819D810E94AB50B4
:1054E000F8014089518908978417950740F48C8109
:1054F0009D810E94AB509C012850304001C09A0110
:10550000F401EE0FFF1FE80DF91D83E0EE0FFF1F02
:105510008A95E1F7EB54FA4D228B338B80E290E0D1
:1055200091838083E60CF71C84899589B701A901D2
:105530000E949872CDB7DEB7EEE00C94E971A0E05E
:10554000B0E0E5EAFAE20C94CB714C013B018A0130
:105550004DB65EB686E0881691041CF02FEF3FEF43
:1055600049C00E942738BAE2AB2EB12CA60CB71C5A
:10557000EDB7FEB7EA19FB090FB6F894FEBF0FBEF0
:10558000EDBFCDB6DEB60894C11CD11C85E4F60192
:1055900086878DB79EB78B96B801A3010E9498723B
:1055A0007401EE0CFF1CE80CF91CF3E0EE0CFF1C80
:1055B000FA95E1F7F701E954FA4D60817181828132
:1055C00093819301285F3F4F41E186010E94C63BD2
:1055D000C401B301A60135DEC70181549A4DB6015D
:1055E0000E94E637C501B6010E944E380E9401387C
:1055F00020E030E0C9010FB6F8945EBE0FBE4DBE8C
:105600002096E0E10C94E7716F927F929F92AF92A7
:10561000BF92CF92DF92EF92FF920F931F93CF939F
:10562000DF936B017C01EA0139019FB6F894F4DD48
:105630005C018FEFA8168FEFB80609F498C0F5014A
:10564000EE0FFF1FEA0DFB1D53E0EE0FFF1F5A95F3
:10565000E1F7DF01AB54BA4D80E190E011969C93E5
:105660008E93E354FA4DD183C083C334D10539F40A
:1056700084E490E017969C938E93169706C0C0958D
:10568000D0951796DC93CE931697C501880F991F76
:105690008A0D9B1D23E0880F991F2A95E1F7FC01D5
:1056A000E954FA4DC082D182E282F382AC01FA0160
:1056B000EB54FA4D138A128A718A608A158B048B17
:1056C000178A168A8FEFC8168FEFD8068FEFE80675
:1056D0008FEFF80659F10091232210912422209196
:1056E00025223091262200951095209530958091A5
:1056F0001F2290912022A0912122B09122228C255C
:105700009D25AE25BF2580239123A223B323009797
:10571000A105B105E9F4D701C60180239123A22395
:10572000B32380179107A207B30741F48FEF828755
:105730008387848785878687878719C09FBE415462
:105740005A4DC701B6010E94233A9FB6F8940FC084
:105750009FBE6091272270912822809129229091EA
:105760002A2241545A4D0E94233A9FB6F8949FBE74
:10577000C501DF91CF911F910F91FF90EF90DF90C6
:10578000CF90BF90AF909F907F906F9008951092B0
:105790001722089581E080931722089520E030E0D9
:1057A0008AE290E1289FF001299FF00D389FF00DCB
:1057B0001124E35BF94D8081882321F48689978940
:1057C000892B39F02F5F3F4F2630310549F72FEFF6
:1057D0003FEFC9010895AC0120E030E0F901EE0F80
:1057E000FF1FE75BF84780819181892B29F4518362
:1057F000408320E030E007C02F5F3F4F2430310569
:1058000069F72FEF3FEFC9010895AC0120E030E0C8
:10581000F901EE0FFF1FE75BF84780819181841744
:10582000950719F420E030E007C02F5F3F4F243088
:10583000310571F72FEF3FEFC9010895DC014FEFFC
:105840005FEF6EE170E020E030E08AE290E1289FB7
:10585000F001299FF00D389FF00D1124E35BF94D05
:10586000848195818A179B0769F480818F3051F478
:10587000868997898617970728F46689778980E152
:105880008083A9012F5F3F4F26303105F1F6CA0111
:1058900008959C018630910510F08FEF08958AE2FB
:1058A00090E1289FF001299FF00D389FF00D112401
:1058B000E35BF94D808108959C018630910518F0D5
:1058C0002FEF3FEF10C08AE290E1289FF001299F5F
:1058D000F00D389FF00D1124E35BF94D80A591A5E3
:1058E0000E94BF499C01C90108959C018630910521
:1058F00018F02FEF3FEF10C08AE290E1289FF001EF
:10590000299FF00D389FF00D1124E35BF94D80A520
:1059100091A50E9408499C01C9010895A0E0B0E04A
:10592000E4E9FCE20C94D3716C01FB01EA0137C09D
:105930008081813041F08130A0F19F012F5F3F4F86
:10594000883029F503C03196219729C0018110E0E4
:1059500079010894E11CF11C8AE290E19C01C29E4D
:10596000C001C39E900DD29E900D11248959994D6E
:10597000B70144E050E00E94987202501040F701D5
:10598000E00FF11F0E5F1F4FC01BD10B08C08181BC
:1059900090E0F901E80FF91F3197C81BD90B209748
:1059A00039F6CDB7DEB7E8E00C94EF71DF92EF92F5
:1059B000FF920F931F93CF93DF937B018A01FA012C
:1059C000D6842AE230E1829FE001839FD00D929F2E
:1059D000D00D1124C35BD94D88A599A50E94DE493D
:1059E0008E159F0524F4EE24EA94FE2C27C0ED2D9D
:1059F000F0E0EF70F070EE0FFF1FEE0FFF1F3E960E
:105A0000E00FF11F248588A599A5F801468550E08F
:105A10004F705070440F551F440F551F30E0207FCA
:105A200030703595279535952795420F531F425F66
:105A30005F4F400F511FB7010E94774AC701CDB792
:105A4000DEB7E7E00C94F071A0E0B0E0EAE2FDE23E
:105A50000C94D171FC019EE0A92EB12CAE0EBF1E9C
:105A60008685C82FD0E0CF70D070CC0FDD1FCC0F53
:105A7000DD1F2E96CE0FDF1FEE24FF248AE290E179
:105A8000E89E6001E99ED00CF89ED00C11248DE4B4
:105A900096E2C80ED91EF6018081882379F185E14E
:105AA00098E0E89EF001E99EF00DF89EF00D1124BB
:105AB000EE0FFF1FE15BF94D008111818881998113
:105AC0000E94AB5008171907C9F4F601048115812B
:105AD0008A819B810E94AB500817190779F4F6015F
